:020000040100F9
:10000000000001211DA20201F1A10201D1A1020102
:10001000F1A10201F1A10201F1A10201F1A102018C
:10002000F1A10201F1A10201F1A10201F1A102017C
:10003000F1A10201F1A10201F1A10201F1A102016C
:10004000F1A10201F1A10201F1A10201F1A102015C
:10005000F1A10201799D0201F1A10201F1A10201C8
:100060000DB20201F1A10201D99A0201F1A102012E
:10007000D99F0201F1A10201F1A10201F1A1020146
:10008000F1A10201259E0201E99C020129A00201C1
:10009000F1A10201F1A10201319E0201F1A10201CF
:1000A000E99F0201F99F0201F1A10201F1A1020100
:1000B000F1A10201F1A10201000000000000000016
:1000C0000000000000000000000000000000000030
:1000D0000000000000000000000000000000000020
:1000E0000000000000000000000000000000000010
:1000F0000000000000000000000000000000000000
:10010000002070470388F7B5A3F57C4306460C46EC
:10011000032B4DD8DFE803F00212204391F90000D1
:1001200000F0AAFA04460120318822F031F818B113
:1001300000F8054921F0D8FF01203AE0CB788A7811
:10014000207802EB0322497892B22AF0CBFE08B164
:100150000024E8E71224E6E7CA798B79497903EBB2
:1001600002232279E07802EB0122A178657801EB85
:1001700000212078E77A00EB0520A57A9BB205EBF9
:100180000725ADB20195657A247A92B204EB052475
:10019000A4B2009489B280B22BF0ECFED7E70878C5
:1001A0002AF03EFF0028D5D060782AF055FFCEE730
:1001B000002003B0F0BD00002DE9F047A54D86B04A
:1001C000A5482AF063FB284623F08AFD302205F17A
:1001D0000C0102202AF06EFB302205F132010120D1
:1001E0002AF068FB302205F1390106202AF062FB73
:1001F0001022ADF8042008228DF8062020220B23BF
:10020000ADF8082080224FF0040840F20D112B7148
:10021000EB8BADF80C206A7B1C338DF80E208DF82B
:100220001220ADF814302A7FEB7EADF81010134485
:1002300095F822200DEB0801134495F823200520A2
:1002400013448DF816308DF80A8028F0A7FE80B28E
:1002500028F072FF29F012F829F076F900F068F919
:1002600028F07AFF074628F07DFF06467A4828F0F6
:10027000F7F832463946404603F0D0FB07EB000959
:10028000A6EB000A044652464946404602F032FFB9
:100290000444AAEB000209EB0001404603F028F8F1
:1002A00000EB0408284623F043FDAC7E4744A6EB50
:1002B000080634B13146384623F078FE0446074438
:1002C000361A3146384623F02CFE361A074481464A
:1002D0003146384623F03BFE361A07443146444443
:1002E0008046384623F057FE361A074431464C44C0
:1002F0008146384623F03DFE4444311A8046381882
:1003000023F074FE4C444444044428F0AFF802F057
:1003100021FC00F045FC02F0B1FA01F07BFA02F09A
:10032000C7FB01F043F801F061F801F021FC2AF06D
:1003300015FE01F093FF02F021F901F0BBFC01F082
:100340007DFD03F043FB454828F08CFF28F06CFD51
:1003500023F0E0FD23F040FE23F030FE23F0F0FD1B
:1003600023F033FE23F048FE23F04DFE23F0DBFDA7
:1003700023F034FE23F03CFE23F004FE23F0F2FDD4
:1003800023F0E7FD23F046FE23F007FE23F0F3FD04
:1003900023F00AFE23F02EFE314828F063FF23F0FD
:1003A000CDFC304828F05EFFAA8CE98B28F05EF97E
:1003B00023F024F823F02EF923F0DCF823F04EF894
:1003C00023F038F923F0ACF823F03AF823F012F9CF
:1003D00023F0B2F923F022F823F0ECF823F04EF8E2
:1003E00023F0C0F823F098F923F082F923F078F88D
:1003F00023F056F823F064F823F082F823F058F93C
:10040000194828F02FFF23F027F923F019FB17488C
:1004100022F0EEFF2046002428F08EFE01A8019471
:10042000ADF8084023F0F8FD042168462AF0F8FBF7
:10043000684626F01FFD01214FF4003023F08AFEAC
:100440000B4828F02BFF28F035FF204606B0BDE80A
:10045000F08700BF3001002120010021498E0201F8
:10046000C93D020199860201B13C0201050100016A
:1004700001010001014B1878704700BF0000072000
:10048000014B1970704700BF000007200120704722
:100490000122014B5A6070470020014138B5C40069
:1004A000343420462EF09EFB054618B1224600212A
:1004B0002EF0CFFB284638BD2DF082BB70B50E461E
:1004C000CAB1541EA0B228F061FE054698B122467A
:1004D000711C2EF097FB3378022B0ED0052B05D024
:1004E000012B08D100212A46084602E02A460321B2
:1004F000002028F027F9002070BD2A460121F7E7E7
:10050000C30703D5024B58682DF012BA704700BFDD
:10051000B001002148F29C63C360044B436003F2C6
:100520004E33036020238360704700BF04800720A0
:100530001FB56846FFF7EEFF0298FFF7AFFF044CC8
:1005400020600298FFF7AAFF606004B010BD00BFF2
:10055000B001002130B5294B8BB004AC93E8030007
:10056000002284E803002649072029F073FB254870
:1005700029F08CFB06A8FFF7CDFF20462EF00EF8E1
:10058000099B2148214C43612DF0EAFF2246204976
:1005900020482DF0B1FF226893680BB102F10C03E3
:1005A00004201D4A069990601062012051601B4989
:1005B000BDF820400D684968156091611849079D94
:1005C0008861022053619481D362D5619484CA62A8
:1005D0000022886213480862009213482DF074FDCF
:1005E000124B134A0293134B0F4901934FF0FF3301
:1005F000114800932DF05EFA0BB030BDB4FC02013F
:1006000001050001BCFC0201000000216C01002179
:1006100094FC02019EFC020144020021B001002171
:100620007802002140FD0201B8010021B904000157
:10063000A6FC0201BD04000170010021022907B5DA
:10064000184603F1FF3310D1042100F8011C0121E9
:1006500008480A4401910092D0E909122DF09CF952
:1006600003B05DF804EB27F0EDBF01290CBF0221B8
:100670000521EAE770010021024B83F87A0000208F
:10068000704700BFC84000212AF0F2B82DE9F843B6
:100690001C46D0F82890C56807460E46904627F0BD
:1006A0009FFF99F80D302C44022B04440DD0032BEE
:1006B0000DD0012B00D12834306C3D690319AB42B9
:1006C00008D935640020BDE8F8831834F4E704F550
:1006D000A874F1E77B682D1A63B14146986827F04A
:1006E00085FF854228BF0546AC4203D9336C2B44B5
:1006F0003364E7E7281B4FF47A75044B1B689C882A
:100700006C43A04228BF2046DDE700BFB043002174
:100710001FB501238DF80430002301A8CDE9023371
:100720002AF024F805B05DF804FB1FB5002301A8EA
:10073000CDE9013303932AF019F805B05DF804FB05
:100740002DE9F84304468846866A2AF041FB0546AF
:100750000146A06806F1900727F048FF78B9A36822
:10076000DFF88890C9F8743027F03AFF2844A06079
:10077000D9F87410284627F039FFC6F8D000D6F80B
:100780009C300BB120469847394600232046A2688A
:10079000FFF77CFF074618B9BDE8F84327F0F4BE21
:1007A000124DA36840466B6729F054FF104BC5F803
:1007B0008470AB670F4B05F17800EB67A368C5F851
:1007C0008030A36029F0CAFF002385F87030D6F886
:1007D000943043B1FFF79CFFD6F890002721BDE885
:1007E000F8432AF013B8FFF7A0FFF5E7CC05002186
:1007F000B10A0001950800012DE9F84380460C4636
:1008000027F0CCFE064618B101263046BDE8F88335
:100810002AF0DEFA1D4D8146696F27F0E7FE236C52
:1008200003442364C5F8749027F0DAFE4A46034671
:1008300021464046FFF72AFF07460028E4D0636AB6
:1008400053B1024649464046984728B10122D8F89C
:10085000283083F8C020D8E7D5F8748027F0C0FE90
:100860004044C5E920070A4829F078FF002385F8AD
:100870007030636833B1FFF74BFF2721206829F000
:10088000C5FFC2E7FFF751FFF7E700BFCC05002126
:10089000440600212DE9F04F87B09A469DF840307C
:1008A00003910293934607462AF092FADFF8F491F7
:1008B000C9F8000027F062FEDDE90231846A804653
:1008C000D4F8BC50ADB194F8C020012A11D1CDE9C3
:1008D00000A30A465B463946D4F8B000A847012871
:1008E00004D10023C4F8B03084F8C03007B0BDE8AC
:1008F000F08F6D4A6D4D92F87060701C82F8700038
:1009000076B1022E00F08680AC8C2AF061FAD9F81C
:100910000030C01A844240F2B580A88CA884E5E774
:1009200007B3FB1E012B40F2B680042F68D06FD8AE
:1009300033460126032F5DD032461E46EB69013354
:10094000EB613346164643B117F0FB0F46D04046E5
:1009500004F19001FFF750FF0646002ED4D027F097
:1009600023FED1E784F8C31084F8C4303A46C4E9C2
:1009700032BAD4F8900004F1D80304F1780102F0FF
:10098000EBF9002834D04046D4F8A030D4F89010C9
:10099000984700287DD06E8C2AF01AFAD9F80030DA
:1009A000C01A86421DD9688C94F8C1306884ADF8AD
:1009B0001030D4F894300593FFF7AAFE012104A863
:1009C00029F006FFD4F8A4301BB14046D4F89010AB
:1009D00098472B6801332B60002F95D029F046FFF4
:1009E000B5E72AF0F5F9D9F80030C01A80B2DBE794
:1009F0000127EEE7AA680132AA60002BA7D1ACE775
:100A0000334601266A6801326A60002BE6D1A4E70A
:100A1000012293E76FB1FB1E012B1ED9042F4FF06B
:100A200000034FF0010629D022D9EA690132EA61B8
:100A300089E73A46D4F8980004F1D80304F1780124
:100A400002F08AF928B14046D4F8AC30D4F89810B6
:100A500098472B6901332B61C0E7D4F8AC300021F3
:100A600040469847042F4FF001034FF0000605D091
:100A7000032FDAD1AA690132AA61BEE76A6901329D
:100A80006A61C2E72AF0A4F9D9F80030C01A80B22E
:100A900044E7012796E7042F4FF001037FF44AAFA4
:100AA000B0E700BF50050021CC050021A8020021BD
:100AB0002DE9F84381462AF08BF9364E306027F055
:100AC0005DFD856A0746D5F8B83083B195F8C0203A
:100AD000012A0CD14946D5F8B0009847012804D125
:100AE0000023C5F8B03085F8C030BDE8F8832A4B44
:100AF0002A4C93F8708008F10102B8F1010F83F8D5
:100B000070202CD1B9F1000F3FD13846D5F8A8306C
:100B1000D5F89410984790B1B4F820802AF058F98D
:100B20003368C01A804524D9238C2384FFF7FDFD48
:100B30002721D5F8980029F08FFE4FF00008E368D0
:100B40000133E360B8F1000F09D029F08FFE384679
:100B500005F19001FFF750FE08B127F025FDE58C67
:100B60002AF036F93368C01A854208D9E08CE0844F
:100B7000BBE72AF02DF93368C31A9BB2D5E72AF0F8
:100B800027F93368C01A80B2F1E7E3690133E36102
:100B9000E3E700BF50050021CC050021A802002199
:100BA00008B50220054A064902F00EF8BDE80840E3
:100BB0002822002103482EF04CB800BF890600010E
:100BC00041070001A802002130B50446044D0FCDB5
:100BD0000FC40FCD0FC495E8030084E8030030BDB7
:100BE000A80200211FB5002301A8CDE9013303931A
:100BF00029F0BCFD05B05DF804FB1FB501238DF89D
:100C00000430002301A8CDE9023329F0AFFD05B07F
:100C10005DF804FB70B50546866A084629F01AFDA2
:100C2000114C124B04F17800A367114BE367D6F81F
:100C3000AC30C4F88430AB68C4F88030AB6029F0C5
:100C40008DFD002384F87030D6F8903043B1FFF763
:100C5000D4FFBDE8704040F20111064829F0D6BD2E
:100C6000FFF7C0FFF5E700BFCC050021910F0001A1
:100C700055130001D002002170B50546866A08466A
:100C800029F0E8FC0D4C0E4B04F17800E367D6F830
:100C90009830C4F88430AB68C4F88030AB6029F079
:100CA0005DFD002384F87030FFF79CFFBDE87040C5
:100CB00040F20111034829F0A9BD00BFCC05002175
:100CC000C90C0001080400212DE9F74F0E469DF8DC
:100CD00030109A460192009105462AF079F8DFF823
:100CE0003082DFF83092C8F8000027F047FCDDE9D9
:100CF000001299F870300746D0F828B0864C83B1BE
:100D0000032B00F08680258C2AF062F8D8F800309A
:100D1000C01A854240F2EE80208C208403B0BDE8EA
:100D2000F08FDDB1EA1E012A40F2EB80042D64D081
:100D30006DD81A460123032D59D019461346A269CE
:100D40000132A2611A460B46002A5DD015F0FB0F56
:100D500001D129F08BFD27F027FCD4E703238BF882
:100D60009D600126CBE9282A89F870302A468BF845
:100D70009E10DBF8903069498BF8A86098470546CB
:100D800078B3584629F066FC554409F17800C9F853
:100D9000805029F0E3FCA58B2AF01AF8D8F800302F
:100DA000C01A854216D9A08BA083FFF71BFF40F223
:100DB00001115A4829F02AFD3846DBF89430584989
:100DC0009847B0FA80F67609236801332360002E35
:100DD00099D0BEE729F0FCFFD8F80030C01A80B2E5
:100DE000E2E73846DBF894304C499847ECE7A168D5
:100DF0000131A160002AAED106E01A4601236168E4
:100E000001316160002AA4D1002BA4D17BE701212C
:100E100095E7DBF89030ADB1EA1E012A52D92A4697
:100E200000219847DBF89430002138469847042D7C
:100E30004FF000024FF0010358D051D9A1690131A0
:100E4000A16181E72A468BF8A8508BF89E108BF899
:100E50009D6032499847054668B3584629F0FAFB29
:100E6000554409F17800C9F8805029F077FCA58B2A
:100E700029F0AEFFD8F80030C01A854214D9A08BF3
:100E8000A083FFF7AFFE40F20111244829F0BEFC19
:100E90003846DBF8943022499847B0FA80F6760954
:100EA000E3680133E36092E729F092FFD8F800305D
:100EB000C01A80B2E4E73846DBF894301749984707
:100EC0000126EDE72A4600219847DBF894300021FF
:100ED00038469847042D4FF001024FF0000305D02B
:100EE000032DABD161690131616183E72169013172
:100EF000216187E729F06CFFD8F80030C01A80B272
:100F00000BE7042D4FF001027FF415AF77E700BF28
:100F100050050021CC0500210C050021080400210A
:100F2000D002002170B5164B93F870506A1C012D49
:100F300083F8702015D1134CE1B9A68D29F048FF34
:100F4000114D2B68C01A86420ED9A08DA085FFF7DF
:100F500049FE40F201110D4829F07EFCE36801339F
:100F6000E3600025284670BD29F032FF2B68C01AC7
:100F700080B2EBE7A36A0133A36227F015FBF1E728
:100F8000CC050021D403002150050021D00200210E
:100F900070B5044629F01CFF0B4D286027F0EEFACF
:100FA00021460A4CFFF7BEFF668E29F011FF2B6821
:100FB000C01A864202D9608E608670BD29F008FF93
:100FC0002B68C01A80B2F7E750050021D403002136
:100FD0002DE9F74FDFF87C920E4699F87040804675
:100FE000022CDDF830A09DF83410856A00F0C48032
:100FF000032C00F03981002C40F09E81964F06B3FF
:10100000F31E012B40F29A81042E00F0AA8000F218
:10101000B18023460124032E00F0968022461C4610
:10102000BB6A0133BB6223461446002B00F092805A
:1010300016F0FB0F01D129F019FC27F0B5FA0124B5
:101040008BE0C5E92D3A85F8B210D5F89430834984
:1010500085F8B12098470446002862D0D5F8903032
:10106000002B5ED00123B7F82EB089F8703029F03C
:10107000AFFE7B4E3368C01A83454CD9FB8DFB8590
:1010800095F8A830ADF80030D5F890300193FFF70F
:10109000B4FD0121684629F09BFBD5F8983013B1C7
:1010A00040466E499847002C4CD1D5F8A030002B13
:1010B00040D0404669499847044600283AD0032367
:1010C00089F8703029F0D2FB284629F0C3FA54443D
:1010D0006448C9F8804029F041FBBE8D29F078FEB4
:1010E0005F4C2368C01A86421ED9B88DB885FFF7B9
:1010F00079FD40F20111594829F088FB4046D5F8A6
:10110000A43056499847B0FA80F464093B6801332B
:101110003B6014B38FE729F05BFE3368C31A9BB2C0
:10112000ADE729F0A3FBB8E729F052FE2368C01A07
:1011300080B2DBE7D5F8A43013B140464749984761
:101140000124E3E70024E1E7BA680132BA60002B2A
:101150007FF473AF002C7FF470AF204603B0BDE87E
:10116000F08F234601247A6801327A60002B7FF4E5
:1011700062AFEFE7012253E70324374F89F870404D
:101180006EB1F31E012B51D9042E4FF000034FF026
:1011900001045BD054D9BA6A0132BA6245E7C5E9A5
:1011A0002D3A85F8B210D5F89C302C4985F8B1203D
:1011B0009847D5F8A0308BB3404628499847044655
:1011C00060B3284629F046FA544409F17800C9F87A
:1011D000804029F0C3FABE8D29F0FAFD204C236827
:1011E000C01A864214D9B88DB885FFF7FBFC40F2CF
:1011F00001111A4829F00AFB4046D5F8A4301749D6
:101200009847B0FA80F464093B6901333B6180E799
:1012100029F0DEFD2368C01A80B2E5E7D5F8A430D6
:1012200013B140460D4998470124EDE7D5F89C30AD
:1012300000219847042E4FF001034FF0000405D021
:10124000032EA8D1BA690132BA6180E77A69013206
:101250007A618BE7CC050021D4030021D002002164
:101260005005002144060021D5F8A030364FC6B104
:10127000F21E012A4ED900219847D5F8A43013B1A7
:10128000002140469847042E4FF000034FF0010420
:101290004ED080D8032E7FF47EAF7A6A01327A6214
:1012A00055E72A499847044660B3284629F0D2F901
:1012B000544409F17800C9F8804029F04FFABE8DF6
:1012C00029F086FD224C2368C01A864214D9B88DB5
:1012D000B885FFF787FC40F201111C4829F096FA07
:1012E0004046D5F8A43019499847B0FA80F464090B
:1012F000FB690133FB610CE729F06AFD2368C01A22
:1013000080B2E5E7D5F8A43013B140460F499847BD
:101310000124EDE700219847D5F8A43013B100214E
:1013200040469847042E4FF001034FF00004B1D11E
:101330003A6A01323A6219E700240EE7042E4FF0B0
:1013400001037FF468AE0EE7D4030021D002002130
:10135000500500212DE9F3410E46174698460446F4
:1013600029F036FD0F4D286027F008F99DF8203050
:1013700021460D4C3246CDE900833B46FFF728FE5F
:10138000268E29F025FD2B68C01A864204D9208EAE
:10139000208602B0BDE8F08129F01AFD2B68C01A42
:1013A00080B2F5E750050021D403002108B50022E2
:1013B0000620054901F008FCBDE808403422002160
:1013C00002482DF046BC00BF150C0001D4030021DB
:1013D00030B50446044D0FCD0FC40FCD0FC40FCD53
:1013E0000FC42B68236030BDD403002108B5002250
:1013F0000920054901F0E8FBBDE80840242200214E
:1014000002482DF026BC00BF790C00010C0500211C
:1014100030B50446034D0FCD0FC40FCD0FC42B685C
:10142000236030BD0C05002170B50446866A08466D
:1014300029F010F90F4DD6F8AC3005F17800C5F859
:101440008430A368C5F88030A36029F087F90023B1
:1014500085F87030D6F8903043B1FFF7CEFBBDE889
:10146000704040F20111044829F0D0B9FFF7BAFBEF
:10147000F5E700BFCC050021D002002129F0F8B922
:101480001FB5002301A8CDE90133039329F06EF9BC
:1014900005B05DF804FB00002DE9F04F85B08046F3
:1014A0000E469346994627F079F8074668B93E4CB0
:1014B000D8F828A094F8723094F87150032B06D114
:1014C00018B184F8723084F87150012754E0022D6D
:1014D00092BF2A46033DEAB202F125018AF80110C3
:1014E000F17E551C41FA02F20133D2074FF00100A0
:1014F000DBB2EDB2E2D584F8723084F87150B9F104
:10150000000F04D11BF0FB0F01D129F0AFF95046B9
:1015100029F0A0F8B9F1000F04D0D8F80830C4F8C9
:10152000803009E073685BB329F052FC054627F070
:1015300057F82844C4F88000002384F87030F3681A
:101540001BB14046D4F880109847184829F006F996
:10155000736833B301238DF80430002301A8CDE96B
:10156000023329F003F9337E0121ADF804303368EA
:1015700001A8029329F002F9384605B0BDE8F08FC2
:10158000327E9AF80E109AF80C0025F092FF05466C
:1015900027F026F8284425F0F3FFD4F880300344E0
:1015A000BDE7FFF76DFFDEE7CC0500214406002113
:1015B0000E4B0F4A10B5816A9A670E4A91F8AA40FD
:1015C000DA670422C3F88420002283F8714083F88C
:1015D000702083F8722090310123FFF75DFF18B16E
:1015E000BDE8104026F0D0BF10BD00BFCC050021E3
:1015F00039170001F91500012DE9F3479946054611
:1016000029F0E6FBDFF82481494CC8F8000026F0F9
:10161000B5FF484A866A92F870300746591C012B7C
:1016200082F8701068D106F1900A002D4BD1C6F8EF
:10163000AC902A46D6F8940006F1B00306F1780182
:1016400001F08AFB814668B33846D6F8A030D6F858
:101650009410984730B3B4F81A9029F0B9FBD8F831
:101660000030C01A814516D9608B6083FFF708FFF0
:1016700096F8A9300121ADF80030D6F898306846C8
:10168000019329F0A5F8D6F8A430ABB13846D6F8C6
:101690009410984710E029F09BFBD8F80030C01A4E
:1016A00080B2E2E7002351461A463846FFF7F4FEBF
:1016B0000546B9F1000FE6D1636801336360DDB11F
:1016C00029F0D4F810E000232A465146FFF7E4FE43
:1016D000042D1ED001D8032D09D063690133636145
:1016E00050B115F0FB0FEBD026F05EFF04E0E3688D
:1016F0000133E3600028F7D1A58B29F069FBD8F806
:101700000030C01A85420AD9A08BA08302B0BDE880
:10171000F087A3680133A3600028D1D1ECE729F05A
:1017200057FBD8F80030C01A80B2EEE75005002110
:1017300030050021CC0500212DE9FF41074629F0A5
:1017400047FB314E314C306026F018FF2FB16369F2
:101750000133636126F028FF0CE02D4BD0F8288080
:1017600093F8705008F190016A1C83F870206DB1F5
:10177000022D39D0E58B29F02BFB3368C01A854246
:101780003BD9E08BE08304B0BDE8F081D8F8943019
:1017900023B3278B29F01CFB3368C01A874217D963
:1017A000208B01238DF804300023208301A8CDE98C
:1017B000023328F0DBFF2421D8F8940029F04CF8FC
:1017C000236801332360002DD4D029F04FF8C1E7FE
:1017D00029F0FEFA3368C01A80B2E2E72B462A46A7
:1017E000FFF75AFE0546EBE73B463A46FFF754FE45
:1017F0002369054601332361E5E729F0E9FA3368F7
:10180000C01A80B2BEE700BF50050021300500219C
:10181000CC05002108B50320054A064901F0D4F99A
:10182000BDE808402022002103482DF012BA00BF75
:101830007D140001B11500013005002130B50446CA
:10184000034D0FCD0FC495E80F0084E80F0030BDA5
:10185000300500211FB5002301A8CDE90133039312
:1018600028F084FF05B05DF804FB00002DE9F04787
:101870009A46054629F0ACFA354F364C386026F0CA
:101880007DFE354B866A93F87090804609F101021F
:10189000B9F1010F83F8702045D185BB9DF8203048
:1018A000D6F8A01086F8D130C6F8D4A0D6F8C43047
:1018B000984788B3B4F81E9029F08AFA3B68C01A9A
:1018C000814516D9E38BE383FFF7C4FF022106F1BC
:1018D000A40028F07DFFD6F8C8301BB14046D6F8EA
:1018E000A0109847636801336360E5B128F0BEFF3C
:1018F00017E029F06DFA3B68C31A9BB2E3E7042DA9
:101900001CD001D8032D09D0A36915F0FB0F03F1FA
:101910000103A36105D1E9E74D46E3E7E36801333D
:10192000E36026F041FE258C29F052FA3B68C01A8C
:10193000854207D9208C2084BDE8F087A368013355
:10194000A360D3E729F044FA3B68C01A80B2F2E7FB
:101950005005002154050021CC050021F8B5CB6BC2
:1019600006460C460BB90120F8BD012198470546F3
:101970000028F8D0B06A28F06DFE1148114ED0F85A
:10198000803078302B44104D836028F0E7FEAF8B19
:1019900029F01EFA3368C01A87420AD9A88BA88397
:1019A000FFF758FF04F12400022128F0E7FE002091
:1019B000DAE729F00DFA3368C01A80B2EFE700BF0A
:1019C000CC05002150050021540500212DE9FF47D9
:1019D000054629F0FDF93F4F3F4C386026F0CEFD1B
:1019E00081462DB1A3690133A36126F0DDFD1AE024
:1019F000DFF8E880866A98F8705006F1900A022DA8
:101A00003FD0032D55D075B9D6F8A030BBB903230C
:101A1000514688F87030FFF7A1FF0546236801336F
:101A20002360002D53D1658C29F0D2F93B68C01A90
:101A3000854246D9608C608404B0BDE8F0870123FC
:101A400088F87030B4F81C8029F0C2F93B68C01ADD
:101A5000804510D9A08B01238DF804300023A0838A
:101A600001A8CDE9023328F081FE2421D6F8A00098
:101A700028F0F2FED2E729F0ABF93B68C01A80B239
:101A8000E9E7032388F870300E2296F8D110707BB6
:101A9000D6F8D45025F00DFD9635054451464846FC
:101AA000C8F88050FFF75AFF2369054601332361C8
:101AB000B7E75146FFF752FF63690546013363619B
:101AC000AFE729F085F93B68C01A80B2B3E728F088
:101AD000CDFE8AE75005002154050021CC050021E8
:101AE000F0B51E4B1E4C866AA3671E4B85B0E3679C
:101AF0000423C4F8843000230F460546A4F8703050
:101B000026F04CFD014630BBD6F8CC300BB1284650
:101B10009847384628F09EFDAB6800251248C4F867
:101B2000803084F8705028F019FED6F8A0307BB1D0
:101B3000012301A8CDE902558DF8043028F016FEE6
:101B4000022106F1900005B0BDE8F04028F016BE75
:101B5000FFF780FEF4E705B0F0BD00BFCD1900012E
:101B6000CC0500216D18000144060021FFF7B8BF25
:101B700008B500220720074901F026F800220820B6
:101B8000054901F021F8BDE808402422002103485E
:101B90002DF05FB8E11A00016D1B00015405002112
:101BA00030B50446034D0FCD0FC40FCD0FC42B68C5
:101BB000236030BD5405002128F05ABE2DE9F041C4
:101BC0000F469846054629F003F9224C224E94F818
:101BD00070303060013384F8703026F0CFFC002381
:101BE000826AD4F88C10C2F89C8082F8A070C4F885
:101BF0008C30D2F898302A46984726F0CFFC18B19E
:101C000028F034FE26F0D0FC032D144C10D0042D07
:101C100012D0ADB9236801332360258B29F0D8F8A1
:101C20003368C01A85420FD9208B2083BDE8F0812C
:101C3000A3680133A360F0E7636801336360ECE7F6
:101C4000236901332361E8E729F0C2F83368C01A39
:101C500080B2EAE7CC05002150050021780500217B
:101C600070B50446866A084628F0F4FC0F4D104B08
:101C700005F17800EB67A368C5F88030D6F890309E
:101C8000C5F8843028F06AFD0023204685F87030BE
:101C9000D6F89430984726F081FC30B126F06EFCDF
:101CA00018B1BDE8704026F07FBC70BDCC050021A6
:101CB000BD1B000108B50C20054A064900F084FF51
:101CC000BDE808401C22002103482CF0C2BF00BF21
:101CD000B91B0001611C0001780500212DE9FF41BD
:101CE0001A4E0D46A6F888100221C6F88C0004464C
:101CF00001A8CDE902239DF828708DF8041028F082
:101D000035FD96F8703003B137B12946204604B04E
:101D1000BDE8F04128F07ABD0D4E0E4FB6F81480A4
:101D200029F056F83B68C01A804508D9B38A29467D
:101D30002046B38204B0BDE8F04128F08DBD29F003
:101D400047F83B68C31A9BB2F1E700BFCC050021FE
:101D5000780500215005002170B50C460546074E58
:101D600028F084FD2046C6F8805028F073FC06F168
:101D70007800BDE8704028F0F1BC00BFCC05002120
:101D800028F076BD70B5044629F022F8144A154DA6
:101D900092F870302860013382F8703026F0EEFB44
:101DA000836A2146104CD3F894309847E368013396
:101DB000E36026F0F3FB18B128F058FD26F0F4FBA1
:101DC000668B29F005F82B68C01A864202D9608B11
:101DD000608370BD28F0FCFF2B68C01A80B2F7E763
:101DE000CC050021500500217805002170B504467E
:101DF000866A084628F02EFC0E4D0F4B05F1780040
:101E0000AB67A368C5F88030A36028F0A7FC002367
:101E1000204685F87030D6F89030984726F0BEFB03
:101E200030B126F0ABFB18B1BDE8704026F0BCBB6A
:101E300070BD00BFCC050021851D000108B50D2037
:101E4000054A064900F0C0FEBDE808401C220021FA
:101E500003482CF0FEBE00BF811D0001ED1D0001F6
:101E6000780500212DE9FF4104460D4693B102217A
:101E700002928DF8041001A8039328F077FC134B0D
:101E800093F870304BB92946204604B0BDE8F041C4
:101E900028F074BCCDE90133EDE70D4E0D4FB6F8D7
:101EA000168028F095FF3B68C01A804508D9F38A50
:101EB00029462046F38204B0BDE8F04128F088BCF2
:101EC00028F086FF3B68C31A9BB2F1E7CC050021DE
:101ED000780500215005002130B50446034D0FCD93
:101EE0000FC495E8070084E8070030BD780500219D
:101EF0001FB501238DF80430002301A8CDE902337A
:101F000028F034FC05B05DF804FB00002DE9F04139
:101F100004460D4626F032FB836A1B780A2B0BD150
:101F2000124B93F870303BB9FFF7E2FF2946204689
:101F3000BDE8F04128F022BC0D4E0E4FB6F81680D9
:101F400028F046FF3B68C01A804509D9F38AF3821E
:101F5000FFF7CEFF29462046BDE8F04128F038BC07
:101F600028F036FF3B68C31A9BB2F0E7CC0500218E
:101F7000940500215005002170B50C4E04460D4615
:101F8000C6F88C00A6F8881026F0F8FA836A1B7849
:101F90000B2B0AD196F870303BB9FFF7A9FF294601
:101FA0002046BDE8704028F031BC70BDCC05002152
:101FB00030B50446034D0FCD0FC495E8070084E803
:101FC000070030BD9405002170B50D46044628F089
:101FD0004FFC094BD3F88C1039B100222046C3F8CE
:101FE0008C200222D5F8AC3098472046D5F8A43092
:101FF000BDE87040184700BFCC0500212DE9F04135
:1020000004460D46876A26F0C9FA0646D8B928461E
:1020100028F020FB0D4D0E4B05F17800AB670D4B02
:10202000EB67A368C5F88030A3600423C5F884304B
:1020300028F094FBD7F8983085F870601BB12046E3
:10204000BDE8F0411847BDE8F08100BFCC05002194
:10205000592000012D2100012DE9F04385B00546EE
:1020600028F0B6FE2E4F2F4E386026F087FAD0F8B3
:1020700028902946D9F8A83080469847D6F88C1081
:10208000294C00293AD055BBA58A28F0A1FE3B680F
:10209000C01A85421DD9A08A0023A08201A8CDE9DB
:1020A0000133039328F062FBB6F88810D6F88C0051
:1020B00028F0D2FBE3680133E360658B28F088FEEB
:1020C0003B68C01A854213D9608B608305B0BDE8B8
:1020D000F08328F07DFE3B68C01A80B2DCE7002365
:1020E0000222C6F88C304046D9F8AC30984708E058
:1020F00028F06EFE3B68C01A80B2E6E70DB928F002
:10210000B5FB96F8703023B926F04EFA012386F815
:102110007030002DCED0236901332361CDE700BF9D
:1021200050050021CC050021940500212DE9F3473D
:102130000F46054628F04CFEDFF81481C8F8000071
:1021400026F01CFA0023866A9DF8282086F8B070D5
:10215000404F8DF80730D7F88C1086F8B120C7F8BB
:102160008C302A46D6F8AC300446984726F016FA4A
:102170008146002837D04FF0010926F00FFA40EAD7
:102180000900C0B280B1062D06D80123AB4013F080
:10219000510F01D028F06AFB97F8703023B926F070
:1021A00003FA012387F870309DF8073023B92946D8
:1021B0002046D6F8A0309847032D274C35D0042D63
:1021C00037D0002D39D1236801332360258B28F0C7
:1021D000FFFDD8F80030C01A854232D9208B208309
:1021E00002B0BDE8F0872046D6F890300DF1070127
:1021F000984782460028BED028F038FBD6F89430A5
:102200000DF1070120469847A06A28F023FAD7F875
:1022100080005044C7F8800007F1780028F09EFA4B
:102220002046D6F89C309847A7E7A3680133A360FF
:10223000CCE7636801336360C8E723690133236136
:10224000C4E728F0C5FDD8F80030C01A80B2C6E750
:1022500050050021CC0500219405002108B50A2075
:10226000054A064900F0B0FCBDE808401C220021E8
:1022700003482CF0EEBC00BFC91F0001FD1F000188
:102280009405002170B50D46044628F0F1FA094B7B
:10229000D3F88C1039B100222046C3F88C200222DA
:1022A000D5F8AC3098472046D5F8A430BDE870404A
:1022B000184700BFCC05002101232DE9F041876AB2
:1022C000054687F8B03083680846C7F8B8300E4C2A
:1022D0000E4628F0BFF90D4B04F17800A3670C4BB4
:1022E000E367D7F8B830C4F88030D7F8C030C4F806
:1022F000843028F033FA0023284684F87030D6F86A
:102300009830BDE8F0411847CC0500218924000130
:10231000752300012DE9F04106460C46904626F053
:102320003DF9074618B101273846BDE8F08141461E
:1023300030462368984705460028F4D028F096FADE
:102340004146636830469847B06A28F083F9A36A2B
:1023500007482B44A362B360C0F88030236B783009
:10236000C36028F0FBF93046E3689847DCE700BF1C
:10237000CC0500212DE9F7431F468846054628F085
:1023800027FD3E4E306026F0F9F89DF82830846A2B
:1023900015F0FB0F84F8BD3094F8B03084F8BC80A1
:1023A00018BF8768012B08BF00234FF0000808BF43
:1023B000C4F8B470C4F8B870314F08BF84F8B030B6
:1023C000D7F88C10D4F8AC302A46C7F88C808146F8
:1023D000984705F0FD03012B8DF807800FD1484683
:1023E0000DF1070204F19001FFF794FF9DF807300B
:1023F000804623B929464846D4F8A030984726F0AD
:10240000CDF840EA0800C0B280B1062D06D80123FD
:10241000AB4013F0510F01D028F028FA97F8703034
:1024200023B926F0C1F8012387F87030032D154C2D
:1024300011D0042D13D0B5B9236801332360258B47
:1024400028F0C6FC3368C01A854210D9208B20833F
:1024500003B0BDE8F083A3680133A360EFE76368CE
:1024600001336360EBE7236901332361E7E728F079
:10247000AFFC3368C01A80B2E9E700BF5005002105
:10248000CC050021940500212DE9F743054628F0ED
:102490009FFC374F4FF00009386026F06FF8044674
:1024A000866A2946D6F8A830984720460DF10702DB
:1024B00006F190018DF80790FFF72CFF804655BB81
:1024C00026F06CF840EA0800C0B258B128F0CEF906
:1024D000284B93F870302BB926F066F80122254B73
:1024E00083F870209DF8073023B929462046D6F896
:1024F000A0309847204C8DBBE3680133E360658BC7
:1025000028F066FC3B68C01A85422BD9608B60833B
:1025100003B0BDE8F083012D12D10028E2D0DFF82E
:102520005480D8F88C1031B102222046D6F8AC3055
:10253000C8F88C90984728F099F998F87030CAE755
:10254000DFF83080D8F88C100029F6D0022220461F
:10255000D6F8AC30C8F88C909847EEE72369013381
:102560002361CCE728F034FC3B68C01A80B2CEE788
:1025700050050021CC0500219405002108B50B2051
:10258000054A064900F020FBBDE808401C22002156
:1025900003482CF05EBB00BF85220001B922000178
:1025A000940500211FB501238DF80430002301A8F4
:1025B000CDE9023328F0DAF805B05DF804FB00003D
:1025C0002DE9F04104460D4625F0D8FF836A1B78BB
:1025D000042B0BD1124B93F870303BB9FFF7E2FF9D
:1025E00029462046BDE8F04128F0C8B80D4E0E4FF0
:1025F000B6F8168028F0ECFB3B68C01A804509D974
:10260000F38AF382FFF7CEFF29462046BDE8F0416A
:1026100028F0DEB828F0DCFB3B68C31A9BB2F0E779
:10262000CC050021B00500215005002170B50C4EED
:1026300004460D46C6F88C00A6F8881025F09EFFCB
:10264000836A1B78052B0AD196F870303BB9FFF7E7
:10265000A9FF29462046BDE8704028F0D7B870BDD4
:10266000CC05002130B50446034D0FCD0FC495E8CD
:10267000070084E8070030BDB005002170B50D46A5
:10268000044628F0F5F8094BD3F88C1039B1002234
:102690002046C3F88C200222D5F89C30984720466B
:1026A000D5F89430BDE87040184700BFCC05002134
:1026B00070B5054608460E4C0E4627F0CBFF0D4B75
:1026C00004F17800A3670C4BE367AB68C4F8803073
:1026D000AB600423C4F8843028F040F80023284677
:1026E00084F87030D6F89030BDE87040184700BFCD
:1026F000CC050021B1270001FD26000170B50C4674
:10270000054628F065FB274E306025F037FF9DF821
:102710001030826A82F8A130234B82F8A04093F8EF
:10272000701011B9012183F870100024D3F88C10B7
:10273000C3F88C40D2F89C302A46984725F02EFFEB
:1027400050B1062D06D80123AB4013F0510F01D034
:1027500028F08CF825F028FF032D144C0FD0042D01
:1027600011D0A5B9236801332360258B28F030FBF5
:102770003368C01A85420ED9208B208370BDA368B0
:102780000133A360F1E7636801336360EDE7236918
:1027900001332361E9E728F01BFB3368C01A80B2DC
:1027A000EBE700BF50050021CC050021B00500215A
:1027B0002DE9F04385B0054628F00AFB2C4EDFF8E2
:1027C000B480306025F0DAFED0F828902946D9F898
:1027D000983007469847D8F88C10274C00293CD0F1
:1027E00065BBA58A28F0F4FA3368C01A85421FD960
:1027F000A08A01238DF804300023A08201A8CDE92E
:10280000023327F0B3FFB8F88810D8F88C0028F00E
:1028100023F8E3680133E360658B28F0D9FA336865
:10282000C01A854213D9608B608305B0BDE8F08380
:1028300028F0CEFA3368C01A80B2DAE70023022209
:10284000C8F88C303846D9F89C30984708E028F012
:10285000BFFA3368C01A80B2E6E70DB928F006F86F
:1028600025F0A2FE002DD4D0236901332361D3E7E4
:1028700050050021CC050021B005002108B5042039
:10288000054A064900F0A0F9BDE808401C220021D5
:1028900003482CF0DEB900BF7D260001B1260001FF
:1028A000B005002170B50D46044627F0E1FF094B45
:1028B000D3F88C1039B100222046C3F88C200222B4
:1028C000D5F8A03098472046D5F89830BDE870403C
:1028D000184700BFCC0500212DE9F0410446876A66
:1028E00008460E4D0E4627F0B5FE0D4B05F178005B
:1028F000AB670C4BEB67A368C5F88030A360D7F8D3
:102900009030C5F8843027F029FF0023204685F851
:102910007030D6F89430BDE8F0411847CC0500215E
:10292000E129000129290001F8B50C461F4605469A
:1029300028F04EFA274E306025F020FE826A9DF87E
:10294000183082F8A840244C82F8A93094F87030EE
:1029500023B90123C2F8A47084F870300023D4F89E
:102960008C10C4F88C30D2F8A0302A46984725F055
:1029700015FE50B1062D06D80123AB4013F0510FC0
:1029800001D027F073FF25F00FFE032D134C0FD05D
:10299000042D11D0A5B9236801332360258B28F0BD
:1029A00017FA3368C01A85420ED9208B2083F8BDF0
:1029B000A3680133A360F1E7636801336360EDE767
:1029C000236901332361E9E728F002FA3368C01A6A
:1029D00080B2EBE750050021CC050021B0050021B5
:1029E0002DE9F04385B0804628F0F2F92D4D2E4EAA
:1029F000286025F0C3FDD0F828904146D9F89C30D6
:102A000007462A4C9847B8F1000F29D1D6F88C30E8
:102A10000BB3A78A28F0DCF92B68C01A874214D9B7
:102A2000A08A01238DF804300023A08201A8CDE9FB
:102A3000023327F09BFEB6F88810D6F88C0027F0FA
:102A40000BFFE3680133E3601AE028F0C1F92B685B
:102A5000C01A80B2E5E727F009FF25F0A5FDF0E7F1
:102A6000D6F88C1039B100230222C6F88C303846D3
:102A7000D9F8A030984725F097FD236901332361E9
:102A8000668B28F0A5F92B68C01A864204D9608BA2
:102A9000608305B0BDE8F08328F09AF92B68C01A6E
:102AA00080B2F5E750050021CC050021B0050021DA
:102AB00008B50520054A064900F086F8BDE808403B
:102AC0001C22002103482CF0C4B800BFA528000137
:102AD000D9280001B0050021816A034B0A7853F818
:102AE000323003B118477047CC050021816A044B8E
:102AF0000A7803EBC2035B6803B11847704700BF55
:102B0000CC05002127F0BEBE27F0A2BD08B527F0F6
:102B10009FFDBDE80840002027F0AEBE08B527F0B5
:102B200089FD002027F0A6FEBDE80840012027F01F
:102B3000A3BE08B527F07EFDBDE80840002027F0C1
:102B400099BE08B527F076FDBDE80840012027F0C2
:102B500091BE000073B5134C134D144E27F068FD61
:102B6000224629460120124B009625F045FD2246BB
:102B7000294602200F4B009625F03EFD0E4B2246C3
:102B8000009300210D4B032025F036FD01200C4958
:102B900025F040FD902200210A4802B0BDE87040B7
:102BA0002CF057B8ED2A0001D92A0001092B0001A9
:102BB000432B0001332B00010D2B00011D2B0001C5
:102BC000052B0001CC050021034B43F8301003EB2B
:102BD000C0035A60704700BFCC050021F0B5044621
:102BE0008C46D3E9000116461D46177885B0002CA7
:102BF00036D0CFB14FEA112E0EF0C00EBEF1400F0D
:102C000012D1BCF1000F04D000F00AFD204605B03F
:102C1000F0BD00F07BFC044608B10124F6E71F4A32
:102C2000D38B0133D383F1E702460B46384600F0DD
:102C30007BFD0238C0B20128EFD80DF10F030093DD
:102C40003078D5E9002300F013FC18B19DF80F305F
:102C5000002BDBD1114A0224138B01331383D5E7F8
:102C600027B10B0A03F0C003402BD6D002460B4617
:102C7000384600F059FD02380128CED80DF10F0377
:102C800000933078D5E9002300F0F2FB0028E1D072
:102C90009DF80F30002BC0D1DCE700BF5C0600219F
:102CA0002DE9F041884617461E46044658B152EABF
:102CB00006030E4D0AD100F055FF012806D1044647
:102CC000EB880133EB802046BDE8F0813A4633467D
:102CD000404600F0C5FE20B9AB8802240133AB802A
:102CE000F1E7EB880133EB80EDE700BF5C060021E4
:102CF00037B5DDE9065410B9002003B030BDCAB1C4
:102D0000230A03F0C003402B14D129B128462146E1
:102D10000AAB08AA00F0D8FCDDE90A232846CDE971
:102D2000002321469DF8202000F02EFC003818BF1B
:102D30000120E2E79DF82000DDE90A2300F005FD0F
:102D40000238C0B20128D7D8024A0220538B01337F
:102D50005383D2E75C0600212DE9F04F90F8008004
:102D60000D8808F00F0845FA08F515F001058146B1
:102D70000F4692461C466E4E87B006D1338801330B
:102D80003380284607B0BDE8F08F4FF4C07B7288CF
:102D90004BFA08FB01321BF0010B4378728001D023
:102DA0000125EEE703F03F03637484F8108010F808
:102DB000025B26F0CFF8C5F38015E574A574C4E96D
:102DC0000201C4E900017868514604F1080304F1E6
:102DD0001302C0F38010FFF701FF0128054602D05F
:102DE000022839D05D46D4E90223D7F804C094F80C
:102DF00013E01CF0040B0ED0D7E90410834208BF87
:102E00008A4203D1CCF3C00CE64527D04FF0020B29
:102E10003089013030817888714640FA08F000F03E
:102E20000100FFF73DFF584523D2D7F804C01CF03E
:102E3000040F1CD0D7E90413A068E2689A4208BFC7
:102E4000884204D1E37CCCF3C00C63450CD03389B9
:102E500001333381012D1AD1002592E770894FF09B
:102E6000010B01307081D6E773890133738101252D
:102E70000DE07888E17C40FA08F000F00100D4E928
:102E80000223FFF70DFF0128F1D90228E2D04FF00D
:102E9000010BB8F1050F257584F815B080D80BFA31
:102EA00008F818F02A0F3FF47BAF484610F8085B8B
:102EB00026F050F8D4E902238146CDE9042378684E
:102EC000E37CED09CDE9009188462A4651460293FC
:102ED000C0F30010FFF70CFF01283FF461AF022898
:102EE000BAD07B68DA077FF55BAFD7E902124245BB
:102EF00008BF494503D1C3F34002AA4213D0B289A7
:102F00000132B281002DA7D04FEA182808F0C0087E
:102F1000B8F14008A0D19B069ED5338C0133338491
:102F200084F815802DE7F3890133F38138E700BF7A
:102F30005C0600212DE9F04F07461C4608883B7CC3
:102F40000E46184110F001009046624D87B005D141
:102F50002B8801332B8007B0BDE8F08F6B880133DD
:102F60006B80D7E90023C4E90223C4E90023BB7CBA
:102F700004F11302E374A374486804F108034146A2
:102F8000C0F38010FFF72AFE0128814603D00228F3
:102F90003DD04FF00009D4E90223D6F804C094F8DC
:102FA00013E01CF0040A0ED0D6E90410834208BFD7
:102FB0008A4203D1CCF3C00086452AD04FF0020AE2
:102FC000288901302881708897F810C0714640FA2E
:102FD0000CF000F00100FFF763FE504525D2D6F853
:102FE00004C01CF0040F1DD0D6E90413A068E268E9
:102FF0009A4208BF884204D1E37CCCF3C00C6345FD
:103000000DD02B8901332B81B9F1010F1BD1002089
:10301000A1E768894FF0010A01306881D3E76B8925
:1030200001336B814FF001090DE03B7C7088E17C3E
:10303000184100F00100D4E90223FFF731FE012816
:10304000F0D90228E0D04FF0010A84F8149084F8F7
:1030500015A07B7C990701D401207CE797F8139099
:10306000D4E90223D7E902B77068CDE90423E37CF1
:103070004A464146CDE900B70293C0F30010FFF77E
:1030800037FE01283FF467AF0228C0D07368DA0723
:10309000E2D5D6E90212BA4208BF594503D1C3F3BB
:1030A00040024A4511D0AA890132AA81B9F1000F24
:1030B000ADD03F0A07F0C007403FA8D19B06A6D578
:1030C0002B8C01332B846775C6E7EB890133EB81C9
:1030D000C2E700BF5C060021054B03F1240253F850
:1030E000041B934240F8041BF9D11B8803807047EE
:1030F0005C060021002330B50A4C0B4D23700B4CAD
:1031000023708B070EBF0B4621F0030304332B60A3
:1031100003EB00135B1A934296BF2070002098B215
:1031200030BD00BF820600218406002183060021F5
:10313000F0B500240D499DF814C00D780C490968BC
:10314000A54201D80020F0BD0E7A864208D1D1E90F
:1031500000769E4208BF974202D14E7A664502D061
:1031600001341031ECE70120EDE700BF82060021B9
:1031700084060021014B1878704700BF83060021A8
:103180000022014B1A7070478206002130B50B49AE
:103190000B4D09782C78A1420DD90A49096801EB39
:1031A000041108720120C1E900239DF80C3001349C
:1031B0004B722C7030BD0020FCE700BF830600215D
:1031C00082060021840600212DE9F0411B4C844633
:1031D000276800253C46DFF868E09DF818809EF8D7
:1031E0000010EEB2B14201D8002021E0267A6645F7
:1031F00020D1D4E900069E4208BF90421AD1667AD7
:10320000464517D1012901F1FF300ED985420CD076
:1032100001F18051013907EB01110B7A2372D1E9D9
:103220000023C4E900234B7A63728EF8000001206A
:10323000BDE8F08101351034D3E700BF84060021DA
:1032400082060021F0B50C4943EA00430D780B4992
:103250000C680021C8B2854201D800200AE020464F
:10326000D0E908769E4208BF974201F1010104F1BE
:103270004804EFD1F0BD00BF8C060021900600216C
:1032800030B585B00C4605461022002168462BF06B
:10329000E0FC6A46230A28468DF800401146240CBB
:1032A0008DF801308DF8024027F0D2FB9DF80230F6
:1032B0009DF801001B0443EA00239DF80000184319
:1032C00005B030BD13B5042104460DEB010027F015
:1032D000A7FC01992046C1F3150141F48001019139
:1032E000FFF7CEFF019940EA0160090A02B010BD64
:1032F000002330B50A4C0B4D23700B4C23708B0709
:103300000EBF0B4621F0030304332B60482505FB59
:1033100000335B1A934296BF2070002098B230BDF4
:103320008C060021900600218D060021014B1860BB
:10333000704700BF88060021014B1878704700BF16
:103340008D0600210022014B1A7070478C06002167
:10335000F8B507461D46FFF775FF1646044680B9C7
:103360002E4A2F4913780978994201D80020F8BDD8
:1033700048202C490C6800FB034401331370002CD7
:10338000F4D0224645EA0745069BC4E9086503F1E7
:10339000100153F8040B8B4242F8040BF9D10123BE
:1033A00004F10F0284F84030631E13F8011F71B35B
:1033B000002384F8403004F110000246079B03F11B
:1033C000100153F8045B8B4242F8045BF9D10123EE
:1033D00084F84130034604F1200213F8011BC9B1FF
:1033E000002384F8413000230022C4E90A23C4E901
:1033F0000C23C4E90E230023A4F8423094F8413092
:103400001BB9FFF75FFFC4E90C010120AFE79A4247
:10341000CBD1D0E79A42E0D1E5E700BF8C0600218E
:103420008D0600219006002138B5FFF70BFF78B11B
:10343000084D2C78012C08D9482202FB04F30649D8
:10344000483B096819442BF0DDFB0120013C2C703E
:1034500038BD00BF8C0600219006002108B5FFF79B
:10346000F1FE20B19DF8083080F84330012008BDFE
:1034700008B5FFF7E7FE20B190F843200120029B3A
:103480001A7008BD10B5029CFFF7DCFE40B1D0E910
:103490000A2352EA030116BF01200020C4E90023D9
:1034A00010BD10B5029CFFF7CDFE40B1D0E90C2352
:1034B00052EA030116BF01200020C4E9002310BD19
:1034C00008B5FFF7BFFE28B1029BD3E90023C0E98E
:1034D0000C23012008BD10B5FFF7B4FE044698B1D7
:1034E00090F8403083B990F8423033B9FFF7EAFEE4
:1034F0000123C4E90A0184F84230029BD4E90A019D
:10350000C3E90001012010BD0020FCE7F7B500264B
:10351000194C94F800C0194C25683446F7B2BC45E4
:1035200010D80CB3164C2468F4B1164E758C0135C6
:103530007584D3E90067CDE9006713780122A047BD
:10354000002411E095F8407097B9D5E90A748C42CF
:1035500008BF87420BD10124E98C01F001011170F1
:10356000296AAA8CC3E90012204603B0F0BD0124E9
:1035700001364835D2E700BF8C06002190060021B5
:10358000880600215C0600212DE9F347DDE90A6782
:103590009146804632463B4648460D46FFF752FE6E
:1035A000E8B190F84140D4B9D0E90E23AB4208BF4E
:1035B000424516D00C4BD3F800A0BAF1000F0AD048
:1035C0000A4A4046938C2946013393844B4622464F
:1035D000CDE90067D047204602B0BDE8F08700245F
:1035E000F9E70124F7E700BF880600215C06002107
:1035F00038B505461046DDE904230C46FFF722FEE8
:1036000050B190F8413043B9D0E90E23A34208BF2E
:10361000AA420CBF0120002038BD0020FCE70000BA
:103620002DE9F74F0E4605461F464FF000084FF0B4
:10363000480B010E41EA0621DFF880A0009221F03C
:103640007F411F4B5FFA88F41B78A34205D81D4ABF
:103650000020138A0133138229E0DAF800300BFBD3
:10366000043494F84090B9F1000F23D1D4E90A232F
:10367000B34208BFAA4210D020460191FFF700FED6
:1036800025F07F438342019914D10E4AC4E90A56BA
:10369000538A84F84290013353820120E38C009ACC
:1036A00003F001031370226AA38CC7E9002303B05F
:1036B000BDE8F08F08F10108C3E700BF90060021C4
:1036C0008C0600215C06002170B50E461146D3E938
:1036D000002305460878FFF7B5FD0446E0B190F8F1
:1036E0004130CBB9D0E90E23B34208BFAA4211D072
:1036F000290E41EA062121F07F411030FFF7C0FD7D
:1037000025F07F43834207D1064AC4E90E56D38A87
:103710000133D382012004E00020024A938A01335E
:10372000938270BD5C06002108B5FFF78BFD48B1A0
:10373000D0E90A23134306D190F84030002B14BF80
:103740000120022008BD0320FCE708B5FFF77AFD41
:1037500048B1D0E90C23134306D190F84130002B37
:1037600014BF0120022008BD0320FCE72DE9F04131
:1037700000254FF04808124E124F3378ECB2A342A6
:1037800001D8BDE8F0813B6808FB043494F841306F
:103790002BB904F11000FFF795FDC4E90C0194F872
:1037A00040303BB994F8423023B12046FFF78AFD00
:1037B000C4E90A01012384F844301D44DDE700BF59
:1037C0008C0600219006002108B5FFF73BFD03465B
:1037D00020B1002290F8440083F8442008BD08B5C9
:1037E000FFF730FD003818BF012008BD1FB50023CA
:1037F00001A8CDE90133039326F0B8FF05B05DF8C9
:1038000004FB000038B50C460E4D0F4BAB670F4B59
:10381000EB678368C5F880308360D1F89030084644
:10382000C5F8843026F016FF05F1780026F096FFE3
:10383000FFF7DCFFB4F89C10D4F89800BDE83840DE
:1038400026F0E4BFCC050021E93800015138000121
:10385000F8B5044624F092FE856A14F0FB0F214669
:10386000D5F8943020D19847F8B126F0FFFF1B4BD4
:103870001B4E1B689F7827F0ABFAD5F89030384480
:10388000C6F880002846C6F8843026F0E3FE06F12C
:10389000780026F063FFFFF7A9FFB5F89C10D5F874
:1038A000980026F0B3FF02E0984724F07DFE032C39
:1038B0000C4B06D0042C08D05CB91A6801321A608F
:1038C000F8BD9A6801329A60FAE75A6801325A6084
:1038D000F6E71A6901321A61F2E700BFB04300212E
:1038E000CC05002194060021F7B5054624F046FEDC
:1038F0001C4E0746846A25BB26F0B8FF2946384689
:10390000D4F89030984700B3174DB4F89A20D5F802
:10391000803020461344C5F8803026F09BFE05F128
:10392000780026F01BFFFFF761FFB4F89830012103
:10393000ADF80030D4F894306846019326F01EFFAD
:1039400006E02946D4F89030984724F02DFE25B99A
:10395000F3680133F36003B0F0BD336901333361C1
:10396000F9E700BF94060021CC05002137B50C46CD
:103970000F4D104BAB67104BEB678368C5F8803079
:103980008360084626F066FE05F1780026F0E6FE24
:10399000FFF72CFFB4F898300121ADF80030D4F8CF
:1039A00094306846019326F0E9FE03B030BD00BFB5
:1039B000CC050021E93800015138000108B526F096
:1039C00057FFBDE8084024F0EFBD000010B5094CDA
:1039D000002022460849FFF7F7F822460120074950
:1039E000FFF7F2F8BDE810401C22002104482BF03C
:1039F00030B900BFBD3900016D3900010538000143
:103A00009406002130B50446034D0FCD0FC495E850
:103A1000070084E8070030BD94060021002330B57C
:103A20000B4C0C4D23700C4C2B7023708B070CBF70
:103A30000B4621F00303094D18BF04332B6003EB41
:103A4000C0035B1A934296BF2070002098B230BD2D
:103A5000B1060021B0060021B2060021B406002103
:103A600030B50B4943EA00430A480968047801EB82
:103A7000C404A14201D1002030BDD1E900509842D8
:103A800008BF954201F10801F3D10120F4E700BF1E
:103A9000B4060021B1060021014B1878704700BF21
:103AA000B20600210023024A1370024A13707047C5
:103AB000B1060021B006002170B5064615461C4629
:103AC000FFF7CEFF80B9094B094A197812788A426C
:103AD0000BD9084A44EA0644126802EBC10042F8D6
:103AE0003150013144601970012070BDB1060021D0
:103AF000B2060021B406002143EA00431148F0B5A4
:103B00000468DFF844C025469CF8001004EBC10EA1
:103B1000754501D1002014E02846D0E900769E4288
:103B200008BF974205F10805F2D1012905D904EB38
:103B3000C10454E90223C0E90023012001398CF8B3
:103B40000010F0BDB4060021B10600210122014B96
:103B50001A707047B00600210022014B1A7070479E
:103B6000B0060021014B1878704700BFB006002155
:103B700037B5044623F05AFA0022144B9C42144BEA
:103B80000CBFDA701A7194F8423003F0FD03012B78
:103B900001D123F05BFA20460BF08AFE04F12805E0
:103BA00028460DF1070125F011FB40B930342046BD
:103BB0000DF1070125F00AFB20B903B030BD25F057
:103BC000EDFAEDE725F0EAFAF1E700BFB00D0021CC
:103BD000C03F0021154A38B5154C164B1068516886
:103BE0001D6804F13C0303C304F1480029790BF07C
:103BF00087FF012024F04CFC23F010FA01230E4D26
:103C0000EB7094F8423003F0FD03012B01D123F057
:103C100015FA0BF06FFE00200123687184F8C031A3
:103C2000A4F8BE31BDE8384023F0A3B98C40002190
:103C3000B00D0021AC0D0021C03F0021054BDB7809
:103C400033B10123044880F899309C3025F02CB81A
:103C5000704700BFC03F0021B00D0021002023F0BD
:103C600088B90C2023F085B908B5012024F026FC82
:103C7000BDE808400148FFF77BBF00BFB00D002141
:103C800008B5012024F01AFC0348FFF771FFBDE8D6
:103C90000840002023F06DB9B00D0021FFF7E4BF0C
:103CA000034B044A19684B6813608B685360704774
:103CB000AC0D00218C40002108B5084B08481B685A
:103CC000197990F888308B4202D048300BF018FFF9
:103CD000BDE80840002023F04CB900BFAC0D002126
:103CE000B00D002110B50446012024F0E7FBA37BB2
:103CF00003F0FD03012B01D123F0A8F9D4F8C80289
:103D000020B125F04BFA0023C4F8C832D4F8D00211
:103D100020B125F043FA0023C4F8D032034AD37807
:103D2000013BD370BDE8104023F080B9C03F0021B3
:103D300038B505460F4C012024F0C0FB2C1B0E4863
:103D4000EB68241144430BB1A0B298470434E0B2AD
:103D500024F0D2F995F858320BB123F087F923F00B
:103D600065F9D5F8440208B125F018FA00232B7044
:103D700038BD00BFC8180021D1581F1A38B50C46ED
:103D800005460E22002120462AF063FF204695F8C2
:103D9000C03200F8023BD5E9B22325F0E1F895F8EE
:103DA000C132084A637095F808332372D5F84C3154
:103DB000A3FB0232DB0F43EA4203638195F85031E3
:103DC000237338BDE3361A0038B50446012024F0C9
:103DD0005FFBA37B03F0FD03012B01D123F02EF940
:103DE000002320466370A370A4F8083284F83C30A6
:103DF0000CF0C2F9054620B920460CF0D3FA05466E
:103E000040B1284623F008FA2046BDE83840032197
:103E10000CF0AABC074AD3780133D37023F0FEF824
:103E20000123284684F86830A4F86630BDE838409D
:103E300023F0F2B9C03F0021002023F0EDB90000CB
:103E400030B4027C0121022A18BF00220C4C817080
:103E5000657895420AD190F8082222B900F50370DE
:103E600030BC24F021BF00F54A70F9E701FA02F2F4
:103E7000217821EA02022270032130BC0CF074BCCC
:103E8000780F0021002023F0C7B9000010B5094CBD
:103E90006378012B04D9BDE810400C2023F0BCB995
:103EA00004F1600025F067FB04F17000BDE81040EC
:103EB00025F061BB800F0021034B5B7813B10C2010
:103EC00023F0AAB9704700BF800F0021024B587839
:103ED00000B10C2023F0A0B9800F002108B5FFF736
:103EE00001FF044B5B7823B1BDE80840002023F0BC
:103EF00093B908BD800F002138B51E4B01201C6806
:103F000024F0C6FA23790BB123F0A8F823791A4DCF
:103F10002B72D4E90223C5E90423E379AB72A379B8
:103F20006B72637D2B760CF063FFD8B12862237926
:103F300080F85832A37980F85932E37980F85A3200
:103F4000D4E90223C0E998230A22238AA0F8503238
:103F5000638A5343C0F854320B23437263798371ED
:103F6000237DC371286A0CF0CFFCBDE8384023F0F4
:103F700055B800BF6C2B0021302B0021034B5A7821
:103F8000012A04BF00225A70704700BF302B002165
:103F9000084B186A90F843220AB9012202715B7833
:103FA000012B03D1C3702C3024F07EBE05210CF010
:103FB000F5BB00BF302B002130B50F4C85B06378C6
:103FC000012B07D10025206AC37005712C3024F025
:103FD0006BFE65706946206AFFF7D0FE216A074BC9
:103FE0006A46C91A064B091159433E2089B223F08B
:103FF00049F905B030BD00BF302B0021C8180021A1
:10400000D1581F1A30B52D4C85B06378206A012B2A
:1040100004BF00236370FFF78BFE256A2B7973B111
:104020000E22002168462AF014FE25496A46691AC4
:10403000244D09116943442089B223F023F9256AEC
:1040400095F84332ABB1217A11F0010113D10E2260
:1040500068462AF0FEFD1A496A46691A194D091187
:1040600069431A2089B223F00DF90022236A83F8EC
:10407000432205B030BD182025F088F801460028FD
:10408000F3D040F20B134380D4E90423C0E90223A8
:10409000A37AC371637A8371237A0371236A9A794D
:1040A0004271B3F85022D3F8543202824382237E05
:1040B0004375054B187B25F07AF8D6E7302B0021A5
:1040C000C8180021D1581F1A004000212DE9F043E3
:1040D0003D4B85B01D680CF08BFE0446002870D067
:1040E000012024F0D5F9002184F8581295F82030E9
:1040F000364F84F8593295F82130354E84F85A32CB
:10410000D5E90A23C4E9982395F82330384684F882
:1041100008334FF47A73C4F854320C233461A4F892
:1041200050126372A91D16F0E1FE40F2E242BB8814
:104130005343C4F84C3195F8203084F8C03295F8D8
:10414000213084F8C132DB07D5E90A01C4E9B201A4
:104150001CD50B0A03F0C003403B17D14FF00008F9
:104160004FF000098DF807300DF1070202ABCDE9E1
:104170000289FFF755FA48B19DF8073043F0020372
:1041800084F8C132DDE90223C4E9B22330690CF0BE
:10419000BBFB22F043FFAB88288BB3806B8B708016
:1041A000F380AB8B33812B8E738195F82230337380
:1041B000EB8BF3810CF09CFC05B0BDE8F04305F0FF
:1041C00067BC05B0BDE8F0836C2B0021702B00218B
:1041D000582B002170470000012310B5054C2069C1
:1041E000C3702C3024F060FD21693E20BDE81040F2
:1041F0000CF04EBE582B0021034B186901232C30C4
:1042000000F8293C24F050BD582B0021044B1869BC
:10421000C378012B04BF0023C370FFF789BD00BF23
:10422000582B00211FB5437A04460B2B0ED169464B
:10423000FFF7A4FD0A496A46611A0A4C0911614355
:10424000002089B223F01EF804B010BD0C2BFBD166
:104250000146002004B0BDE810400CF019BE00BFBC
:10426000C8180021D1581F1A01232C3000F82A3C0D
:1042700024F01ABDFFF75CBD012310B5044683701E
:104280002C3024F011FD04F52C7025F074F905484C
:10429000201A054C00116043BDE8104080B223F0A5
:1042A00018B800BFC8180021D1581F1AF8B50579F1
:1042B000C38815B1012D18D0F8BD4FF44472534393
:1042C0000E490688CC18B4F880214088921B82429F
:1042D000F2DCD4E95E6703F51E73C4E99E67C81873
:1042E00022F0FCFE84F87051E6E74FF44472034874
:1042F00002FB0303002283F8D821DDE7C818002160
:1043000008B522F093FE0022054B5A70054B93F836
:1043100021301BB1BDE8084022F098BE08BD00BFA7
:10432000C03F0021C840002108B5012024F0B0F8AA
:1043300022F074FE0122074B5A70074B93F821308C
:104340000BB122F07BFE0CF0B1FEBDE8084000206E
:1043500022F000BEC03F0021C840002108B5012066
:1043600024F096F822F05AFE0122064B5A70064BB2
:1043700093F821300BB122F061FEBDE808400CF04B
:1043800095BE00BFC03F0021C8400021054B5B78AF
:1043900033B10123044880F829302C3024F084BC48
:1043A000704700BFC03F0021B82B0021002022F041
:1043B000D1BD0C2022F0CEBD2DE9F0415B4B8AB07F
:1043C0005B78002B00F0AF80594C94F82860002EE9
:1043D00000F08480D4F8EC80B8F1000F79D001228D
:1043E00004F5847304F1D0014046FEF7B5FC06469F
:1043F000602024F0CBFE0546002800F0908000F1FC
:104400000807384608F1020116F039FF384616F061
:104410008DFF00B196B9284624F0C0FE042024F098
:10442000B5FE014630B14FF441734380414B187BD8
:1044300024F0BDFE012024F041F84AE00023AB70D7
:10444000D4F84831AB6394F81B3185F83C3094F8CC
:104450001A219A4207D1D4E94461D4E94202914237
:1044600008BF864203D043F0020385F83C300020A9
:10447000D4E944230021C5E91223C5E9140194F8C5
:104480001B0194F81A11884207D1D4E94470D4E989
:104490004261884208BFB74203D0D4E94201C5E96E
:1044A000140195F83C0013F0CDF90028B3D1224B4C
:1044B0002946D3E91C23C5E9162394F82A3085F848
:1044C000410085F83D300123EB871A4B187B24F01F
:1044D0006EFE0AB0BDE8F041FFF712BF164C0CF0BB
:1044E0001DFF257C012DA5D13146242201A82AF0EB
:1044F000B0FB43F60543ADF806303C238DF8083099
:10450000A37C0DF10E008DF80D30D4E906238DF853
:104510000C5024F025FD01A822F014FD8AE7002E9E
:104520003FF47CAFD5E70AB0BDE8F081C03F002181
:10453000B82B002100400021C840002108B501200F
:1045400023F0BCFFFFF7DCFE0CF0E8FEBDE80840FE
:10455000002022F0FFBC08B5012023F0AFFFFFF7D9
:10456000CFFEBDE808400CF0D9BE0000054B30B5C9
:104570001C68054D08340FCC0FC594E80F0085E882
:104580000F0030BDAC0D0021D040002110B5044615
:10459000012023F093FF074B1868201A064CC01027
:1045A00060430430C0B223F0EDFCBDE8104022F0BF
:1045B0003DBD00BF782D0021FBE14BC710B504467F
:1045C000D0F8280928B1043824F0E8FD0023C4F805
:1045D0002839D4F8FC0728B1043824F0DFFD002383
:1045E000C4F8FC3794F83B300BB122F02FFD024A9F
:1045F0009378013B937010BDC03F002138B504464D
:104600001F4D012023F044FF2A682046137A84F8C6
:10461000BC32002384F8BD3284F8BE3284F83437CB
:1046200084F836375168C4F8C0320DF0F7FF014600
:1046300040B1607822F05CFE2046BDE8384004219D
:104640000DF0A8BE0F4A93780133937094F83B3075
:104650000BB122F0F3FC2B68596851B14FF47A7218
:10466000636A0A39B3FBF2F304F52B70C91A24F01C
:104670007CFF60780021BDE8384022F039BE00BFE1
:104680007C2D0021C03F002138B504461C4D01207F
:1046900023F0FEFE2A682046137A84F8BC320023F9
:1046A00084F8BD3284F8BE3284F8343784F8363763
:1046B0005168C4F8C0320DF0B1FF014640B16078D6
:1046C00022F016FE2046BDE8384004210DF062BEFF
:1046D0002B685B6893B14FF47A71626A4B4302F5C1
:1046E0009C520832B3FBF2F3013B534304F52B70A9
:1046F000B3FBF1F1BDE8384024F037BF38BD00BF4F
:104700007C2D002170B5134D00F52B760446304604
:1047100024F031FF2B685B687BB14FF47A71626AD9
:104720004B4302F59C520832B3FBF2F3013B534377
:104730003046B3FBF1F124F018FF00212B686078BC
:104740001B7A84F8BD1284F8BC32BDE8704022F0B8
:10475000CFBD00BF7C2D002110B5044600F52B70A5
:1047600024F009FF002384F8BE32012384F8363791
:1047700010BD0021407822F0BBBD0C21407822F012
:10478000B7BD0000F0B590F8343704469DB0002B5B
:1047900034D100F52B7024F0EEFE2046FFF70EFF1B
:1047A000012023F08BFE94F8BC2294F8BD3222B194
:1047B000934224BF432284F8BE22002294F8BE1202
:1047C000607822F0E6FB238C03F01D031D2B13D130
:1047D000002000213C230022CDE90401CDE906326E
:1047E000CDE90201D4E90C0194F83A30CDE9000199
:1047F0000121607801F0FAFB1DB0F0BDD0F8FC6734
:10480000784F002E77D000F6180300F5FC610122E6
:104810003046FEF7A1FA002800F0D080602024F096
:10482000B5FC0546002800F0C98063783146038056
:104830000023837010A816F0F9FC311805F1080068
:1048400016F01DFDD4F8FC37002B00F0828094F8A0
:104850002BC804F5026185F83CC094F82A386345FA
:1048600008D151E90203D4F820684A689A4208BF87
:10487000864203D04CF0020C85F83CC0D1E90023FD
:10488000C5E9122300220023C5E9142394F82B283C
:1048900094F82A389A4208D151E90203D4F82068E2
:1048A0004A689A4208BF864203D051E90223C5E90B
:1048B0001423012385F83E30D4F83037387BAB63BE
:1048C000494B2946D3E91C23C5E9162394F835370B
:1048D00085F83D30012385F83F3094F8BD3285F8E6
:1048E000403094F82C3785F8413024F060FC2046A5
:1048F000FFF764FE80E7D0F82869002E8ED031469D
:1049000008A816F093FC311810A816F0B8FC002384
:104910000F939DF8203004F5FC618DF838300323A7
:104920008DF83930DDE91023CDE90A239DF82230D6
:104930000AA88DF83A30DDE91223CDE90C239DF861
:10494000233001228DF83B3004F51663FEF7F2FAAE
:1049500061E794F873C904F5166185F83CC094F8D2
:104960007239634508D1D1E90262D4F860094B6815
:104970009A4208BF864203D04CF0020C85F83CC036
:10498000D1E90223C5E9122300220023C5E914233B
:1049900094F8732994F872399A4208D1D1E90262E5
:1049A000D4F860094B689A4208BF864203D0D1E927
:1049B0000023C5E9142394F895387BE76378311F09
:1049C00026F8043C082306F8023C032306F8013CC1
:1049D000387B24F0ECFB01201DB0BDE8F04023F053
:1049E0006DBD00BF00400021C840002110B5044645
:1049F000FFF7E4FD012023F061FD60780021BDE8B0
:104A0000104022F075BC10B50446FFF7D7FD012019
:104A100023F054FD2046BDE810400CF0E1BD3C23DE
:104A200080F8BE32012380F83637704700221346E3
:104A3000F0B5D0E90076C3F12005A3F1200427FAF0
:104A400003F106FA05F5294326FA04F42143C907C0
:104A500044BF81180B7203F1010348BF0132252BBB
:104A6000E9D180F82D20F0BD70B504460025012065
:104A700023F00EFD84F84E520AF0FCFDA4F82851F4
:104A8000254601262B4BC4F82401D3E90C23E5E984
:104A90009A23284622F022FBD4F82431284683EAC0
:104AA0001343B4F82811A4F8983284F896620CF0F5
:104AB00099FE84F84D0220460DF00EFF054648B1E0
:104AC000204603210DF0C8FE29466078BDE87040FD
:104AD00022F045BCA37884F82161012B13D194F80E
:104AE0007D290AB984F82A31D4F80064B4F8FC535B
:104AF00022F0DAF93246294624F03EFA0123A4F8DE
:104B00000C0484F87E3994F854325BB1D4F8006414
:104B1000B4F8FC5322F0C8F93246294624F02CFAA6
:104B2000A4F856026078002122F019FCBDE870401C
:104B300022F074BAC03F00210021407822F00FBC5F
:104B40000C21407822F00BBCF8B583780446012B89
:104B500011D190F82151012D0DD1D0F80074B0F889
:104B6000FC6322F0A1F93A46314624F005FA84F8B4
:104B70007E59A4F80C04012384F84E32002304F576
:104B8000967084F8213184F82A31BDE8F84024F089
:104B90008BB810B590F820310446012B04D1FFF7F3
:104BA000D3FF2046FFF7F2FC2046BDE81040FFF798
:104BB000D3BD10B590F820310446012B04D1FFF786
:104BC000C3FF2046FFF7E2FC2046BDE810400CF092
:104BD00007BD10B50446FFF7D9FC60780021BDE899
:104BE000104022F0BCBB000090F85030012B12D0D6
:104BF000094B1B68D3E90223C0E9A823C0E91623A7
:104C0000B0F828310633A0F86030082380F852301D
:104C1000012380F850307047742D0021D0F8883976
:104C20000BB1407818477047D0F88C390BB14078F9
:104C300018477047682200212AF00BB85030FFF760
:104C4000F9BF2A2307B58DF803008DF804006846E4
:104C5000ADF800108DF802308DF8051022F072F9D1
:104C600003B05DF804FB2C2307B5ADF800008DF808
:104C700004006846ADF802308DF8051022F062F9A4
:104C800003B05DF804FB08B5012023F001FCBDE88A
:104C9000084022F0C3B900002DE9F04FDFF8388159
:104CA0000446D8F800608FB006F1080529460EF0DA
:104CB00095FE2946002520460EF0F0FEAA46B37D5B
:104CC000AB423ED9002794F8562004F1570305F172
:104CD000010906E0D4F894302BBBC4F894B022E06C
:104CE0000137BA421FD913F8011B4945F8D12046B4
:104CF0000EF02CF896F84030F18E0293D6E90E2390
:104D0000CDE900230A46F16A83460EF0C5F8D4F8CF
:104D10009030002BDED1E368C4F890B06B4384F888
:104D20009C50C4F8983094F85630BB4207D194F8A0
:104D300034305A1C0E3384F8342044F823A04D46F6
:104D4000BDE7D8F80010204608310EF0CFFD216FE6
:104D500004F1600024F009FC2B23A5782022002117
:104D600006A8ADF81630ADF8145029F072FFE36ACA
:104D70001A4A0793A38A04F138015BBAADF82030D0
:104D8000E38A8DF81950ADF82230A3885034ADF87D
:104D9000243054F8403CA3FB0232DB0F43EA4203C9
:104DA0000022ADF82630134651F8040B40B140887C
:104DB0000EAD5A1C05EB430323F80E0CD3B20122AF
:104DC0008C42F1D10AB18DF8283005A822F0BAF84A
:104DD0000FB0BDE8F08F00BF8C2D0021E3361A0024
:104DE00090F8BA3080F85430704710B543780446D4
:104DF000012B8AB018D181780020FFF722FF2022F2
:104E0000002102A829F025FF2B228DF8062044223C
:104E1000A37801A8ADF804308DF807208DF808209C
:104E20008DF8093022F08EF80AB010BD082380F802
:104E3000543070473D2380F85430704710B5044615
:104E4000012023F03BFB20460EF01AFB22F0EEF887
:104E500094F85430A07823B1BDE810401946FFF70C
:104E600002BF0146BDE810401846FFF7EABEF8B59C
:104E700005460FF0AFFB044648B1284604210FF069
:104E800077FB21462846BDE8F8400FF00BBB012018
:104E900023F0FEFA2C6DCCB1012384F82131A378E4
:104EA000012B13D194F87D290AB984F82A31D4F85A
:104EB0000074B4F8FC6321F0F7FF3A46314624F061
:104EC0005BF80123A4F80C0484F87E3928460221FB
:104ED0000FF064FBBDE8F84022F0A0B8F0B504463E
:104EE00085B007200EF008FA064630B3144B03A92C
:104EF0001868258C0390304617F052FC114F063588
:104F0000ADB2D7E90C230095304417F05CFC0622C3
:104F1000314620460EF0F7F994F8A030A4F8A850D6
:104F200043F0010384F8A030D7E90C23C4E92C2313
:104F3000236D13B1002283F8B82005B0F0BD00BF87
:104F400064FD0201C03F002173B5044603200EF04A
:104F5000D3F90646E0B1124B01A95868258C01909F
:104F6000304617F01DFC0635ADB22A4694F8BA104B
:104F7000304417F03AFC0622314620460EF0C3F9C1
:104F800094F8A030A4F8B85043F0020384F8A0309D
:104F90000321204602B0BDE870400FF0FFBA00BF09
:104FA00064FD020110B50446C43023F07DFE2046A6
:104FB000BDE8104003210FF0F1BA000010B504461F
:104FC0000B4B1B68C31A0B48DB1043430C33D8B29E
:104FD00022F0D8FF20460EF053FA012023F06EFA9B
:104FE00022F024F82046BDE810400FF0ADBA00BF13
:104FF000842D002167EBD06F7FB50622ADF8062027
:105000000022C3880D4DADF80430ADF80A30C37FDF
:1050100001A88DF80C308DF8082021F093FF2B7833
:105020004BB1074EF0880FF0D5FB044618B9304657
:1050300021F088FF2C7004B070BD00BFC2060021B3
:10504000B80600212DE9F0438BB0044615460E4604
:105050002422002101A829F0FCFD26238DF802302E
:1050600040F2E243B4F8582294F85B1294F85A7272
:1050700002FB01FE02FB07F003FB0EFE94F84A92CE
:1050800003FB00F8D4F85432B9F1010F0CBF5B19DF
:10509000EB1A734405932369D4F850020393B4F8D0
:1050A0004632B4F806C0ADF8183094F85C3208BF48
:1050B00040198DF81A3094F8643218BF281A8DF808
:1050C0001B3094F8653208BF40448DF81C30237AB9
:1050D00018BF4044ADF800C08DF803600CBF0490C9
:1050E0000490ADF806C08DF8046002958DF81D702F
:1050F0008DF81E10ADF824208BB9B4F83421012BA3
:105100000CBFB4F83431B4F830316846ADF8202023
:10511000ADF8223021F016FF0BB0BDE8F083B4F8F3
:105120003021ECE738B5054604200C4624F02EF873
:10513000014650B1EB88C47003800F238370034B8A
:10514000187BBDE8384024F032B838BD004000215B
:1051500038B5054604200C4624F018F8014650B135
:10516000AB88C470038001238370034B187BBDE8B8
:10517000384024F01CB838BD00400021014B9B7C16
:10518000C3777047E02D0021024B1B681B79C37762
:10519000704700BF942D00213E23C377704708233A
:1051A000C37770472223C37770470D23C3777047B7
:1051B000014B5B7CC3777047E02D00213D23C37713
:1051C0007047000010B50446407A0FF06BFB4FF4B7
:1051D00070711B4BA2881B6801FB0233C27C013239
:1051E000C274227A22BB94F84612032993F846200F
:1051F00021D1013A18BF01228A1A1A4492F9A82132
:105200007E2A1AD193F85D03B8B10E4A5818126875
:10521000032992F9202080F8A72108BF83F8AB2149
:10522000D3F88C325B0702D5012384F83D3210BDE0
:1052300094F84712D9E70122DEE784F83A21F6E72D
:10524000702E00217C3F0021002210B590F84730DD
:105250000446C17F80F8472033B1222904D1BDE83C
:1052600010401121FFF7EEBE00222046FFF7EAFEB4
:10527000E37F442B04D116232046E377FFF7BCFEDF
:105280002046BDE810400FF0ADBD000038B5044623
:10529000808811F057FF054698B9082023F076FF63
:1052A000014668B1A388038041F201734380E3881B
:1052B000C380E37F0371044B187B23F078FFA5764E
:1052C00038BD0123A376FBE700400021F8B5044672
:1052D00001218688C08814F0C3FA0221E08814F006
:1052E000BFFA607A0FF0DEFA054604F50B7024F081
:1052F00042F901236376E37F3E2B0CD100276776CA
:10530000EB7C2046013BEB740FF06CFD3A462046E7
:10531000E17FFFF797FE144B1B6893F82A20134B8D
:105320001C680023934219D2A188B14217D1657E2F
:10533000ADB9A17E99B1082023F028FF014668B1DC
:10534000A388038041F201734380E388C380E37F35
:105350000371074B187B23F02AFFA576F8BD0133B4
:1053600004F53C74DEE700BF7C3F0021982D00214E
:105370000040002110B50446407A0FF093FA63789C
:10538000012B05D163762030BDE8104023F08CBCA2
:1053900010BD70B5054604200C46CE7F12F07CFC93
:1053A000014648B122230370637A4370A37AC67022
:1053B0008370284612F046FC21462846BDE870401E
:1053C0000FF01FBE034B9B7CCB77012380F8C932C3
:1053D000704700BFE02D002108460521FFF7A2BE5F
:1053E000FFF7D7BF012380F8C93270472DE9FF4787
:1053F0000546487A0C460FF055FAC37C0646002B4A
:1054000040F04181837C002B00F01E814179DFF860
:105410004493DFF84483C1B940F2E242038A534324
:10542000D9F80020801ACD4A801008FB00F0CDE9A1
:105430000112F2680A300092C0B21A4622F04EFD04
:10544000002800F0018101237371607A0FF02AFABD
:10545000B5F86421B5F86611D31DB5F8982340F26C
:10546000E24703FB0212002392B2A4F84820521A2A
:10547000D9F80010A4F84A30411AB5F868318910FB
:1054800008FB01F15A43008A6B690A3107FB0232BB
:105490007843C9B222F084FDB5F8683194F85C22F3
:1054A0005F43AF4BD4F860121B68E0649B8D3B44B4
:1054B00001FB1233E26C9A4280F0DD80214606F156
:1054C00050000FF077FBA74BC5F87833A64BC5F813
:1054D0007C33A64B1B681B88A380D5F8A031C4F889
:1054E000E830B5F8DA31A4F828320AF0C3F8D5E983
:1054F0005C23C4F8E40020460FF0ACFA242012F03C
:10550000CBFB0146002800F095801F230370637ACF
:105510004370A37A837094F84632022B03D0032B96
:1055200014BF01230423CB7094F84732022B03D01D
:10553000032B14BF012304230B71B4F84C3228460B
:105540004B7194F84A32B4F84C22DB03C2F30B02DD
:105550009BB213431B128B71B4F84E32CB71B4F86B
:105560004E32C3F303230B72D4F850324B72D4F88B
:1055700050321B0A8B72B4F8523203F00F03CB7215
:10558000D4F854320B73D4F854321B0A4B73B4F86A
:10559000563203F00F038B73B4F83431CB73B4F885
:1055A00034311B0A0B74B4F830314B74B4F8303119
:1055B0001B0A8B7494F85C32CB74D4F860320B7590
:1055C000D4F860321B0A4B75B4F862328B7594F8CC
:1055D000643294F8652203F00F0343EA0213CB759B
:1055E00094F85A320B7694F85B324B76B4F8583212
:1055F0008B76B4F858321B0ACB76E36C0B77E36CEE
:105600001B0A4B77B4F84E308B77E36CCB77E36CA7
:105610001B0A81F82030B4F84E3081F82130B4F8FC
:10562000483081F82230B4F848301B0A81F8233022
:1056300012F008FB01232146284684F8473004B0C5
:10564000BDE8F0470FF0DDBC2046FFF7AEFD0420BB
:1056500023F09CFD014610B904B0BDE8F087A38893
:10566000038044F601334380414B187B04B0BDE80E
:10567000F04723F09CBDD21BE264B4F8482001320D
:10568000A4F8482016E740F2E24A607A0FF00AF9DF
:10569000B5F86411B5F86621CB1DB5F89813B5F8C7
:1056A000688103FB012189B2A4F84810891A01FB23
:1056B00008F16B6907460AFB01380023A4F84A3059
:1056C000B4F84A30B7F8109001339BB203FB09F9E4
:1056D000A4F84A30BB6A41460AFB0939484622F021
:1056E00085FF0028ECD04146484622F07FFFB5F800
:1056F00068111B4B0AFB01F11B6894F85C229B8D1F
:10570000E064D4F860020B4400FB1233E26C9A426E
:105710000ED2BB7873BB396D91B9616906F1500047
:10572000C91A13442161E36421460FF058FACAE60E
:10573000521AE264B4F848200132A4F84820E5E7A0
:105740000868496890F85C72D0F8600200FB073383
:10575000E2E700BF902D0021E1830F3E3965010192
:105760007C3F0021454F0101A14F01016C2E00211A
:1057700000400021012B09D10023396D0029CCD034
:1057800008684968D0F810010344F7E70023C4E72C
:10579000002310B50C46084681F84730FFF708FD96
:1057A000204610F0D9FE2046BDE810400221FFF748
:1057B000B9BC000070B50546487A0C460FF072F887
:1057C000384B0646D3E904329A4205D3C37803B373
:1057D000204610F0F5FD1EE001220D21284601F0C3
:1057E00087F9214628460FF016FC0023204684F84E
:1057F0004730FFF7DAFC214606F150000FF04AFA75
:10580000204610F0A9FE02212046BDE87040FFF7B7
:1058100089BC10F021FD20460FF07CF9337923B9C3
:1058200022462946304610F041FE0023102084F81D
:10583000473012F031FA014670B321230370D4F8D7
:10584000E4304370D4F8E4301B0A8370B4F8E630D7
:10585000C37094F8E7300371E36C4371E36C1B0A87
:105860008371B4F84E30C3716369037263691B0AB4
:105870004372E38A83722369C37223691B0A037329
:10588000638A4373B4F848308373B4F848301B0A12
:10589000C373284612F0D6F9214628460FF0BBFB09
:1058A0000121B1E7E02D002170B50646487A0C468B
:1058B0000EF0F8FF0546214630460FF0ACFB2046BF
:1058C000FFF770FC214605F150000FF0E3F9204688
:1058D00010F042FE2046BDE870400221FFF722BCD6
:1058E00010B50C460FF097FB204610F035FE204611
:1058F000BDE810400221FFF715BC10B50C460FF0B3
:105900008AFB204610F028FE44232046E37702213C
:10591000BDE81040FFF706BC40F67C4238B58B8CE2
:105920000546043B9BB293420C4654D80B7E1F2B7A
:1059300051D80B79012B4ED8CB88B3F5805F4AD272
:105940000B89B3F5805F46D2CB68B3F5801F42D296
:105950000B69B3F5801F3ED240F6FB738A8A9A42E8
:1059600039D8CA8A9A4236D889784B1E012B01D978
:10597000042930D1E078431E012B01D904282AD113
:1059800021F03AF838B394F82230013B1E2B22D88C
:1059900094F82330013B1E2B1DD894F82030102B97
:1059A00019D894F82130102B15D8D4E90A3199422E
:1059B00011D3227E012A10D9B5F8680140F2E245E0
:1059C000074B013A1B689B8D05FB0033E06900FB28
:1059D0001233994201D9122038BD0020FCE700BFE4
:1059E0007C3F00211FB52722C388ADF80620ADF803
:1059F0000430ADF80A30437A82888DF80C30837A0F
:105A0000044601A8ADF808208DF80D3021F09AFA6F
:105A100018B91A21E0881FF027FC04B010BD00005F
:105A200070B50D4E054600F5AA700C4623F0A3FD97
:105A300033681979102903D100222046FFF702FBB1
:105A4000336828460122197901F052F82046BDE852
:105A500070400FF0C7B900BF6C2E00212DE9F04750
:105A6000064600F5AA70894623F085FD092012F04C
:105A700013F90446C0B11B4BD3E90E57BD42B3F82E
:105A8000408017D0D6F818A022F0AAFD50448542D5
:105A900003D8B56922F0A4FD0544AF420AD2012221
:105AA0001121304601F024F849463046BDE8F04760
:105AB0000FF0A7BA202323702B0A6570A3702D0C5A
:105AC0003B0A277184F807803F0C4FEA18282146CB
:105AD0003046E5706371A77184F8088012F0B2F85F
