:020000040100F9
:100000000000012195AA020169AA020149AA020180
:1000100069AA020169AA020169AA020169AA020188
:1000200069AA020169AA020169AA020169AA020178
:1000300069AA020169AA020169AA020169AA020168
:1000400069AA020169AA020169AA020169AA020158
:1000500069AA020169A5020169AA020169AA02014D
:10006000E9B9020169AA02019DA2020169AA02017D
:10007000C9A7020169AA020169AA020169AA0201CB
:1000800069AA020115A60201D9A4020119A8020158
:1000900069AA020169AA020121A6020169AA020154
:1000A000D9A70201E9A7020169AA020169AA02010E
:1000B00069AA020169AA0201000000000000000014
:1000C0000000000000000000000000000000000030
:1000D0000000000000000000000000000000000020
:1000E0000000000000000000000000000000000010
:1000F0000000000000000000000000000000000000
:10010000002070470388F7B5A3F57C4306460C46EC
:10011000032B4DD8DFE803F00212204391F90000D1
:1001200000F0A8FA04460120318822F04FFA18B1F5
:1001300000F8054922F0F6F901203AE0CB788A78F8
:10014000207802EB0322497892B22BF0DBFA08B157
:100150000024E8E71224E6E7CA798B79497903EBB2
:1001600002232279E07802EB0122A178657801EB85
:1001700000212078E77A00EB0520A57A9BB205EBF9
:100180000725ADB20195657A247A92B204EB052475
:10019000A4B2009489B280B22CF0B6FAD7E70878FE
:1001A0002BF084FB0028D5D060782BF09BFBCEE7AA
:1001B000002003B0F0BD00002DE9F047A44D88B049
:1001C000A4482AF06DFF284623F0B2FF342205F13F
:1001D0000C0102202AF070FF34220120A9182AF015
:1001E0006BFF342205F13B0106202AF065FF102247
:1001F000ADF8082008228DF80A2020220B23ADF844
:100200000C20802240F20D114FF004082B71EB8B73
:10021000ADF810206A7B1C338DF812208DF8162063
:10022000ADF818302A7FEB7EADF81410134495F822
:10023000222002A9134495F82320052013448DF8A9
:100240001A308DF80E8029F067F980B229F032FA61
:1002500029F0D2FA29F03EFC00F068F929F03AFAC8
:10026000074629F03DFA06467A4828F0BBFB32469D
:100270003946404603F0E2FB07EB0009A6EB000A13
:10028000044652464946404602F04AFF0444AAEB5F
:10029000000209EB0001404603F040F800EB0408BF
:1002A000284623F06FFFAC7E4744A6EB080634B126
:1002B0003146384624F0AEF804460744361A314633
:1002C000384624F062F8361A0744814631463846EB
:1002D00024F071F8361A07443146444480463846C3
:1002E00024F08DF8361A074431464C44814638468E
:1002F00024F073F84444311A8046381824F0AAF8E0
:100300004C444444044428F073FB02F039FC00F0F0
:1003100047FC02F0C7FA01F081FA02F0DFFB01F0BE
:1003200047F801F065F801F029FC2BF037FA01F0ED
:100330009FFF02F035F901F0C5FC01F087FD03F0E5
:1003400055FB454829F04CFA29F02AF824F016F814
:1003500024F076F824F066F824F026F824F069F802
:1003600024F07EF824F083F824F011F824F06AF8E1
:1003700024F072F824F03AF824F028F824F01DF85C
:1003800024F07CF824F03DF824F029F824F040F81B
:1003900024F064F8314829F023FA23F0F9FE3048BC
:1003A00029F01EFAAA8CE98B28F020FC23F044FAED
:1003B00023F04EFB23F0FCFA23F06EFA23F058FBF7
:1003C00023F0CCFA23F05AFA23F032FB23F0D2FBCD
:1003D00023F042FA23F00CFB23F06EFA23F0E0FA4C
:1003E00023F0B8FB23F0A2FB23F098FA23F076FA6F
:1003F00023F084FA23F0A2FA23F078FB194829F0BD
:10040000EFF923F047FB23F039FD174823F00EFAEC
:100410002046002429F04EF968460094ADF80440C7
:1004200024F02EF802A824F089F902A826F0AAFFE9
:10043000012200214FF4003024F0C0F80B4829F0CD
:10044000EBF929F0F5F9204608B0BDE8F08700BFC8
:10045000B8010021A8010021C1930201314202012B
:10046000198C020101410201050100010101000195
:10047000014B1878704700BF00000720014B19702E
:10048000704700BF00000720012070470122014B88
:100490005A6070470020014138B5C400343420460A
:1004A0002EF09AFF054618B1224600212EF0CBFF10
:1004B000284638BD2DF054BF70B50E46CAB1541E43
:1004C000A0B229F021F9054698B12246711C2EF000
:1004D00093FF3378022B0ED0052B05D0012B08D1CA
:1004E00000212A46084602E02A460321002028F07F
:1004F000E9FB002070BD2A460121F7E7C30703D5B9
:10050000024B58682DF0DEBD704700BF3C02002151
:1005100048F29C63C360044B436003F5547303606B
:1005200020238360704700BF048007201FB5684602
:10053000FFF7EEFF0298FFF7AFFF044C2060029830
:10054000FFF7AAFF606004B010BD00BF3C020021AD
:1005500030B5294B8BB004AC93E80300002284E84B
:1005600003002649072029F06DFF254829F086FF62
:1005700006A8FFF7CDFF20462EF00CFC099B214872
:10058000214C43612EF0E8FB2246204920482EF002
:10059000AFFB226893680BB102F10C0304201D4AE3
:1005A000069990601062012051601B49BDF82040FF
:1005B0000D684968156091611849079D886102209E
:1005C00053619481D362D5619484CA6200228862A7
:1005D00013480862009213482EF04AFA124B134A4D
:1005E0000293134B0F4901934FF0FF3311480093CF
:1005F0002DF03CFE0BB030BDA8040301FD0400014A
:10060000B004030100000021F80100218804030167
:1006100092040301D80200213C02002108030021BA
:100620003405030144020021B50400019A040301CA
:10063000B9040001FC010021022907B5184603F1A5
:10064000FF3310D1042100F8011C012108480A449D
:1006500001910092D0E909122DF068FD03B05DF818
:1006600004EB28F0AFBA01290CBF02210521EAE70B
:10067000FC010021024B83F87A000020704700BF84
:10068000804200212AF0FEBC2DE9F8431C46D0F838
:100690002890C56807460E46904628F063FA99F8F8
:1006A0000D302C44022B04440DD0032B0DD0012B14
:1006B00000D12834306C3D690319AB4208D9356448
:1006C0000020BDE8F8831834F4E704F5A874F1E7D6
:1006D0007B682D1A63B14146986828F049FA854233
:1006E00028BF0546AC4203D9336C2B443364E7E79B
:1006F000281B4FF47A75044B1B689C886C43A042FE
:1007000028BF2046DDE700BF684500211FB5012353
:100710008DF80430002301A8CDE902332AF030FC23
:1007200005B05DF804FB1FB5002301A8CDE9013336
:1007300003932AF025FC05B05DF804FB2DE9F8438E
:1007400004468846866A2AF03FFF05460146A068AF
:1007500006F1900728F00CFA78B9A368DFF88C90BE
:10076000C9F87C3028F0FEF92844A060D9F87C1044
:10077000284628F0FDF9C6F8D000D6F89C300BB119
:1007800020469847394600232046A268FFF77CFFA1
:10079000074618B9BDE8F84328F0B8B9134DA36867
:1007A0004046EB672AF078FB114BC5F88C70C5F812
:1007B0008030104B05F18000C5F88430A368C5F87F
:1007C0008830A3602AF0D4FB002385F87830D6F86F
:1007D000943043B1FFF79AFFD6F890002721BDE887
:1007E000F8432AF01DBCFFF79EFFF5E75C060021E9
:1007F000B10A0001950800012DE9F84380460C4636
:1008000028F08EF9064618B101263046BDE8F88377
:100810002AF0DAFE1D4D8146E96F28F0A9F9236C14
:1008200003442364C5F87C9028F09CF94A460346AB
:1008300021464046FFF728FF07460028E4D0636AB8
:1008400053B1024649464046984728B10122D8F89C
:10085000283083F8C020D8E7D5F87C8028F082F9CA
:100860004044C5E922070A482AF082FB002385F8A4
:100870007830636833B1FFF749FF272120682AF0F9
:10088000CFFBC2E7FFF74FFFF7E700BF5C06002191
:10089000DC0600212DE9F04F87B09A469DF84030E4
:1008A00003910293934607462AF08EFEDFF8F491F7
:1008B000C9F8000028F024F9DDE90231846A804695
:1008C000D4F8BC50ADB194F8C020012A11D1CDE9C3
:1008D00000A30A465B463946D4F8B000A847012871
:1008E00004D10023C4F8B03084F8C03007B0BDE8AC
:1008F000F08F6D4A6D4D92F87860701C82F8780028
:1009000076B1022E00F08680AC8C2AF05DFED9F81C
:100910000030C01A844240F2B580A88CA884E5E774
:1009200007B3FB1E012B40F2B680042F68D06FD8AE
:1009300033460126032F5DD032461E46EB69013354
:10094000EB613346164643B117F0FB0F46D04046E5
:1009500004F19001FFF750FF0646002ED4D028F096
:10096000E5F8D1E784F8C31084F8C4303A46C4E906
:1009700032BAD4F8900004F1D80304F1780102F0FF
:1009800001FA002834D04046D4F8A030D4F89010B2
:10099000984700287DD06E8C2AF016FED9F80030DA
:1009A000C01A86421DD9688C94F8C1306884ADF8AD
:1009B0001030D4F894300593FFF7A8FE012104A865
:1009C0002AF010FBD4F8A4301BB14046D4F89010A4
:1009D00098472B6801332B60002F95D02AF050FBED
:1009E000B5E72AF0F1FDD9F80030C01A80B2DBE794
:1009F0000127EEE7AA680132AA60002BA7D1ACE775
:100A0000334601266A6801326A60002BE6D1A4E70A
:100A1000012293E76FB1FB1E012B1ED9042F4FF06B
:100A200000034FF0010629D022D9EA690132EA61B8
:100A300089E73A46D4F8980004F1D80304F1780124
:100A400002F0A0F928B14046D4F8AC30D4F89810A0
:100A500098472B6901332B61C0E7D4F8AC300021F3
:100A600040469847042F4FF001034FF0000605D091
:100A7000032FDAD1AA690132AA61BEE76A6901329D
:100A80006A61C2E72AF0A0FDD9F80030C01A80B22E
:100A900044E7012796E7042F4FF001037FF44AAFA4
:100AA000B0E700BFE00500215C060021380300210B
:100AB0002DE9F84381462AF087FD364E306028F054
:100AC0001FF8856A0746D5F8B83083B195F8C0207D
:100AD000012A0CD14946D5F8B0009847012804D125
:100AE0000023C5F8B03085F8C030BDE8F8832A4B44
:100AF0002A4C93F8788008F10102B8F1010F83F8CD
:100B000078202CD1B9F1000F3FD13846D5F8A83064
:100B1000D5F89410984790B1B4F820802AF054FD8D
:100B20003368C01A804524D9238C2384FFF7FBFD4A
:100B30002721D5F898002AF099FA4FF00008E368C9
:100B40000133E360B8F1000F09D02AF099FA384672
:100B500005F19001FFF750FE08B127F0E7FFE58CA3
:100B60002AF032FD3368C01A854208D9E08CE0844F
:100B7000BBE72AF029FD3368C31A9BB2D5E72AF0F8
:100B800023FD3368C01A80B2F1E7E3690133E36102
:100B9000E3E700BFE00500215C06002138030021E7
:100BA00008B50220054A064902F024F8BDE80840CD
:100BB0002822002103482EF046BC00BF8506000114
:100BC0003D0700013803002130B50446044D0FCD28
:100BD0000FC40FCD0FC495E8030084E8030030BDB7
:100BE000380300211FB5002301A8CDE90133039389
:100BF0002AF0C6F905B05DF804FB1FB501238DF896
:100C00000430002301A8CDE902332AF0B9F905B078
:100C10005DF804FB70B50546866A08462AF03CF983
:100C2000124C134B04F18000C4F88030114BC4F80F
:100C30008430D6F8AC30C4F88C30AB68C4F8883057
:100C4000AB602AF095F9002384F87830D6F890301C
:100C500043B1FFF7D2FFBDE8704040F201110648F2
:100C60002AF0DEB9FFF7BEFFF5E700BF5C06002102
:100C7000950F0001591300016003002170B505466E
:100C8000866A08462AF008F90D4C0E4B04F18000E4
:100C9000C4F88430D6F89830C4F88C30AB68C4F807
:100CA0008830AB602AF064F9002384F87830FFF7CD
:100CB00099FFBDE8704040F2011103482AF0B0B935
:100CC0005C060021CD0C0001980400212DE9F74FAE
:100CD0000E469DF830109A460192009105462AF082
:100CE00073FCDFF83082DFF83092C8F8000027F09C
:100CF00007FFDDE9001299F878300746D0F828B0F0
:100D0000864C83B1032B00F08680258C2AF05CFC96
:100D1000D8F80030C01A854240F2EE80208C208442
:100D200003B0BDE8F08FDDB1EA1E012A40F2EB808E
:100D3000042D64D06DD81A460123032D59D01946CD
:100D40001346A2690132A2611A460B46002A5DD001
:100D500015F0FB0F01D12AF093F927F0E7FED4E755
:100D600003238BF89D600126CBE9282A89F8783087
:100D70002A468BF89E10DBF8903069498BF8A86002
:100D80009847054678B358462AF086F8554409F145
:100D90008000C9F888502AF0EBF8A58B2AF014FCE3
:100DA000D8F80030C01A854216D9A08BA083FFF76F
:100DB00019FF40F201115A482AF032F93846DBF89F
:100DC000943058499847B0FA80F676092368013381
:100DD0002360002E99D0BEE72AF0F6FBD8F8003049
:100DE000C01A80B2E2E73846DBF894304C499847A5
:100DF000ECE7A1680131A160002AAED106E01A46F5
:100E00000123616801316160002AA4D1002BA4D1C3
:100E10007BE7012195E7DBF89030ADB1EA1E012AAE
:100E200052D92A4600219847DBF8943000213846F1
:100E30009847042D4FF000024FF0010358D051D9CC
:100E4000A1690131A16181E72A468BF8A8508BF88E
:100E50009E108BF89D6032499847054668B3584606
:100E60002AF01AF8554409F18000C9F888502AF090
:100E70007FF8A58B2AF0A8FBD8F80030C01A85426D
:100E800014D9A08BA083FFF7ADFE40F201112448D6
:100E90002AF0C6F83846DBF8943022499847B0FA71
:100EA00080F67609E3680133E36092E72AF08CFB71
:100EB000D8F80030C01A80B2E4E73846DBF8943046
:100EC000174998470126EDE72A4600219847DBF8A5
:100ED0009430002138469847042D4FF001024FF01E
:100EE000000305D0032DABD161690131616183E756
:100EF00021690131216187E72AF066FBD8F80030CB
:100F0000C01A80B20BE7042D4FF001027FF415AF39
:100F100077E700BFE00500215C0600219C05002169
:100F2000980400216003002170B5164B93F87850A7
:100F30006A1C012D83F8782015D1134CE1B9A68DD8
:100F40002AF042FB114D2B68C01A86420ED9A08DA3
:100F5000A085FFF747FE40F201110D482AF086F800
:100F6000E3680133E3600025284670BD2AF02CFBBE
:100F70002B68C01A80B2EBE7A36A0133A36227F0A3
:100F8000D5FDF1E75C06002164040021E0050021A5
:100F90006003002170B504462AF016FB0B4D286053
:100FA00027F0AEFD21460A4CFFF7BEFF668E2AF001
:100FB0000BFB2B68C01A864202D9608E608670BD1A
:100FC0002AF002FB2B68C01A80B2F7E7E005002187
:100FD000640400212DE9F74FDFF87C920E4699F862
:100FE00078408046022CDDF830A09DF83410856AE8
:100FF00000F0C480032C00F03981002C40F09E8169
:10100000964F06B3F31E012B40F29A81042E00F096
:10101000AA8000F2B18023460124032E00F09680BE
:1010200022461C46BB6A0133BB6223461446002B92
:1010300000F0928016F0FB0F01D12AF021F827F082
:1010400075FD01248BE0C5E92D3A85F8B210D5F87D
:101050009430834985F8B12098470446002862D02F
:10106000D5F89030002B5ED00123B7F82EB089F868
:1010700078302AF0A9FA7B4E3368C01A83454CD9E0
:10108000FB8DFB8595F8A830ADF80030D5F8903091
:101090000193FFF7B2FD0121684629F0A3FFD5F8BF
:1010A000983013B140466E499847002C4CD1D5F882
:1010B000A030002B40D0404669499847044600289C
:1010C0003AD0032389F8783029F0DAFF284629F04E
:1010D000E3FE54446448C9F8884029F049FFBE8DB6
:1010E0002AF072FA5F4C2368C01A86421ED9B88D66
:1010F000B885FFF777FD40F20111594829F090FFBC
:101100004046D5F8A43056499847B0FA80F46409AF
:101110003B6801333B6014B38FE72AF055FA33681C
:10112000C31A9BB2ADE729F0ABFFB8E72AF04CFA3F
:101130002368C01A80B2DBE7D5F8A43013B140466B
:10114000474998470124E3E70024E1E7BA68013200
:10115000BA60002B7FF473AF002C7FF470AF204691
:1011600003B0BDE8F08F234601247A6801327A602B
:10117000002B7FF462AFEFE7012253E70324374FE0
:1011800089F878406EB1F31E012B51D9042E4FF02F
:1011900000034FF001045BD054D9BA6A0132BA623D
:1011A00045E7C5E92D3A85F8B210D5F89C302C49B1
:1011B00085F8B1209847D5F8A0308BB34046284930
:1011C0009847044660B3284629F066FE544409F166
:1011D0008000C9F8884029F0CBFEBE8D2AF0F4F9D2
:1011E000204C2368C01A864214D9B88DB885FFF701
:1011F000F9FC40F201111A4829F012FF4046D5F8D7
:10120000A43017499847B0FA80F464093B69013368
:101210003B6180E72AF0D8F92368C01A80B2E5E77D
:10122000D5F8A43013B140460D4998470124EDE7A5
:10123000D5F89C3000219847042E4FF001034FF061
:10124000000405D0032EA8D1BA690132BA6180E743
:101250007A6901327A618BE75C060021640400211F
:1012600060030021E0050021DC060021D5F8A03054
:10127000364FC6B1F21E012A4ED900219847D5F843
:10128000A43013B1002140469847042E4FF00003CC
:101290004FF001044ED080D8032E7FF47EAF7A6ADF
:1012A00001327A6255E72A499847044660B32846D6
:1012B00029F0F2FD544409F18000C9F8884029F072
:1012C00057FEBE8D2AF080F9224C2368C01A864250
:1012D00014D9B88DB885FFF785FC40F201111C4880
:1012E00029F09EFE4046D5F8A43019499847B0FA37
:1012F00080F46409FB690133FB610CE72AF064F9AF
:101300002368C01A80B2E5E7D5F8A43013B140468F
:101310000F4998470124EDE700219847D5F8A430FC
:1013200013B1002140469847042E4FF001034FF0BF
:101330000004B1D13A6A01323A6219E700240EE79B
:10134000042E4FF001037FF468AE0EE76404002121
:1013500060030021E00500212DE9F3410E46174608
:10136000984604462AF030F90F4D286027F0C8FB54
:101370009DF8203021460D4C3246CDE900833B4696
:10138000FFF728FE268E2AF01FF92B68C01A864226
:1013900004D9208E208602B0BDE8F0812AF014F92D
:1013A0002B68C01A80B2F5E7E00500216404002133
:1013B00008B500220620054901F01CFCBDE80840E4
:1013C0003422002102482EF03EB800BF150C000167
:1013D0006404002130B50446044D0FCD0FC40FCD79
:1013E0000FC40FCD0FC42B68236030BD64040021EF
:1013F00008B500220920054901F0FCFBBDE80840C2
:101400002422002102482EF01EB800BF7D0C0001EE
:101410009C05002130B50446034D0FCD0FC40FCD00
:101420000FC42B68236030BD9C05002170B50446B5
:10143000866A084629F030FD0F4DD6F8AC3005F12C
:101440008000C5F88C30A368C5F88830A36029F007
:101450008FFD002385F87830D6F8903043B1FFF740
:10146000CCFBBDE8704040F20111044829F0D8BD22
:10147000FFF7B8FBF5E700BF5C0600216003002121
:1014800029F000BE1FB5002301A8CDE90133039365
:1014900029F076FD05B05DF804FB00002DE9F04F62
:1014A00085B080460E469346994627F039FB07469D
:1014B00068B93E4CD8F828A094F87A3094F879505E
:1014C000032B06D118B184F87A3084F879500127BB
:1014D00054E0022D92BF2A46033DEAB202F12501F3
:1014E0008AF80110F17E551C41FA02F20133D2074D
:1014F0004FF00100DBB2EDB2E2D584F87A3084F827
:101500007950B9F1000F04D11BF0FB0F01D129F084
:10151000B7FD504629F0C0FCB9F1000F04D0D8F84F
:101520000830C4F8883009E073685BB32AF04CF8DF
:10153000054627F017FB2844C4F88800002384F8E8
:101540007830F3681BB14046D4F8881098471848A3
:1015500029F00EFD736833B301238DF804300023A6
:1015600001A8CDE9023329F00BFD337E0121ADF84E
:101570000430336801A8029329F00AFD384605B00B
:10158000BDE8F08F327E9AF80E109AF80C0026F023
:1015900022FA054627F0E6FA284426F083FAD4F822
:1015A00088300344BDE7FFF76DFFDEE75C060021EE
:1015B000DC0600210F4B104A10B5816AC3F8802069
:1015C0000E4A91F8AA40C3F884200422C3F88C2064
:1015D000002283F8794083F8782083F87A209031CC
:1015E0000123FFF75BFF18B1BDE8104027F08EBA6A
:1015F00010BD00BF5C06002141170001011600016B
:101600002DE9F3479946054629F0DEFFDFF82481EE
:10161000494CC8F8000027F073FA484A866A92F8E5
:1016200078300746591C012B82F8781068D106F1F2
:10163000900A002D4BD1C6F8AC902A46D6F89400FB
:1016400006F1B00306F1780101F09CFB814668B316
:101650003846D6F8A030D6F89410984730B3B4F88E
:101660001A9029F0B1FFD8F80030C01A814516D978
:10167000608B6083FFF706FF96F8A9300121ADF873
:101680000030D6F898306846019329F0ABFCD6F8C4
:10169000A430ABB13846D6F89410984710E029F042
:1016A00093FFD8F80030C01A80B2E2E70023514619
:1016B0001A463846FFF7F2FE0546B9F1000FE6D1AB
:1016C000636801336360DDB129F0DAFC10E00023C8
:1016D0002A465146FFF7E2FE042D1ED001D8032D05
:1016E00009D063690133636150B115F0FB0FEBD092
:1016F00027F01CFA04E0E3680133E3600028F7D127
:10170000A58B29F061FFD8F80030C01A85420AD9AC
:10171000A08BA08302B0BDE8F087A3680133A3606B
:101720000028D1D1ECE729F04FFFD8F80030C01ADB
:1017300080B2EEE7E0050021C00500215C06002133
:101740002DE9FF41074629F03FFF314E314C306013
:1017500027F0D6F92FB163690133636127F0E6F909
:101760000CE02D4BD0F8288093F8785008F19001C8
:101770006A1C83F878206DB1022D39D0E58B29F0F1
:1017800023FF3368C01A85423BD9E08BE08304B065
:10179000BDE8F081D8F8943023B3278B29F014FFEB
:1017A0003368C01A874217D9208B01238DF8043083
:1017B0000023208301A8CDE9023329F0E1FB242195
:1017C000D8F8940029F052FC236801332360002DDF
:1017D000D4D029F055FCC1E729F0F6FE3368C01AD1
:1017E00080B2E2E72B462A46FFF758FE0546EBE7B4
:1017F0003B463A46FFF752FE236905460133236113
:10180000E5E729F0E1FE3368C01A80B2BEE700BF09
:10181000E0050021C00500215C06002108B5032079
:10182000054A064901F0E6F9BDE8084020220021FA
:1018300003482DF008BE00BF81140001B51500015A
:10184000C005002130B50446034D0FCD0FC495E807
:101850000F0084E80F0030BDC00500211FB5002334
:1018600001A8CDE90133039329F08AFB05B05DF8A7
:1018700004FB00002DE9F0479A46054629F0A4FE36
:10188000354F364C386027F03BF9354B866A93F874
:101890007890804609F10102B9F1010F83F87820B0
:1018A00045D185BB9DF82030D6F8A01086F8D13000
:1018B000C6F8D4A0D6F8C430984788B3B4F81E90C0
:1018C00029F082FE3B68C01A814516D9E38BE38379
:1018D000FFF7C4FF022106F1A40029F083FBD6F82C
:1018E000C8301BB14046D6F8A01098476368013352
:1018F0006360E5B129F0C4FB17E029F065FE3B68A1
:10190000C31A9BB2E3E7042D1CD001D8032D09D0E4
:10191000A36915F0FB0F03F10103A36105D1E9E70A
:101920004D46E3E7E3680133E36027F0FFF8258CD9
:1019300029F04AFE3B68C01A854207D9208C2084D2
:10194000BDE8F087A3680133A360D3E729F03CFE2C
:101950003B68C01A80B2F2E7E0050021E4050021EF
:101960005C060021F8B5CB6B06460C460BB901208E
:10197000F8BD0121984705460028F8D0B06A29F043
:101980008BFA1148114ED0F8883080302B44104D1E
:10199000836029F0EDFAAF8B29F016FE3368C01A88
:1019A00087420AD9A88BA883FFF758FF04F12400C7
:1019B000022129F0EDFA0020DAE729F005FE33686C
:1019C000C01A80B2EFE700BF5C060021E0050021ED
:1019D000E40500212DE9FF47054629F0F5FD3F4FBD
:1019E0003F4C386027F08CF881462DB1A369013354
:1019F000A36127F09BF81AE0DFF8E880866A98F880
:101A0000785006F1900A022D3FD0032D55D075B9BC
:101A1000D6F8A030BBB90323514688F87830FFF7D9
:101A2000A1FF0546236801332360002D53D1658C47
:101A300029F0CAFD3B68C01A854246D9608C608493
:101A400004B0BDE8F087012388F87830B4F81C8032
:101A500029F0BAFD3B68C01A804510D9A08B01233C
:101A60008DF804300023A08301A8CDE9023329F0CA
:101A700087FA2421D6F8A00029F0F8FAD2E729F055
:101A8000A3FD3B68C01A80B2E9E7032388F87830E9
:101A90000E2296F8D110707BD6F8D45025F09BFF1B
:101AA0009635054451464846C8F88850FFF75AFF16
:101AB0002369054601332361B7E75146FFF752FF1B
:101AC0006369054601336361AFE729F07DFD3B683B
:101AD000C01A80B2B3E729F0D3FA8AE7E005002103
:101AE000E40500215C060021F0B51F4B1F4C866AFF
:101AF000C4F880301E4B85B0C4F884300423C4F889
:101B00008C3000230F460546A4F8783027F008F8FB
:101B1000014630BBD6F8CC300BB128469847384642
:101B200029F0BAF9AB6800251248C4F8883084F867
:101B3000785029F01DFAD6F8A0307BB1012301A816
:101B4000CDE902558DF8043029F01AFA022106F188
:101B5000900005B0BDE8F04029F01ABAFFF77EFE0C
:101B6000F4E705B0F0BD00BFD51900015C06002107
:101B700075180001DC060021FFF7B6BF08B500228A
:101B80000720074901F036F800220820054901F036
:101B900031F8BDE808402422002103482DF053BC51
:101BA000E91A0001791B0001E405002130B5044663
:101BB000034D0FCD0FC40FCD0FC42B68236030BD74
:101BC000E405002129F05EBA2DE9F0410F46984660
:101BD000054629F0F9FC224C224E94F8783030600A
:101BE000013384F8783026F08BFF0023826AD4F822
:101BF0009410C2F89C8082F8A070C4F89430D2F897
:101C000098302A46984726F08BFF18B129F038FA09
:101C100026F08CFF032D144C10D0042D12D0ADB93A
:101C2000236801332360258B29F0CEFC3368C01A6A
:101C300085420FD9208B2083BDE8F081A368013352
:101C4000A360F0E7636801336360ECE72369013365
:101C50002361E8E729F0B8FC3368C01A80B2EAE7EC
:101C60005C060021E00500210806002170B504464D
:101C7000866A084629F010F9104D114B05F18000D5
:101C8000C5F88430A368C5F88830D6F89030C5F818
:101C90008C3029F06DF90023204685F87830D6F88D
:101CA0009430984726F03CFF30B126F029FF18B158
:101CB000BDE8704026F03ABF70BD00BF5C06002151
:101CC000C91B000108B50C20054A064900F092FF27
:101CD000BDE808401C22002103482DF0B4BB00BF22
:101CE000C51B00016D1C0001080600212DE9FF4104
:101CF0001A4E0D46A6F890100221C6F8940004462C
:101D000001A8CDE902239DF828708DF8041029F070
:101D100037F996F8783003B137B12946204604B038
:101D2000BDE8F04129F07CB90D4E0E4FB6F8148095
:101D300029F04AFC3B68C01A804508D9B38A294675
:101D40002046B38204B0BDE8F04129F08FB929F0F4
:101D50003BFC3B68C31A9BB2F1E700BF5C06002165
:101D600008060021E005002170B50C460546074E27
:101D700029F086F92046C6F8885029F08DF806F13A
:101D80008000BDE8704029F0F3B800BF5C06002178
:101D900029F078B970B5044629F016FC144A154D9F
:101DA00092F878302860013382F8783026F0A8FE67
:101DB000836A2146104CD3F894309847E368013386
:101DC000E36026F0ADFE18B129F05AF926F0AEFE18
:101DD000668B29F0F9FB2B68C01A864202D9608B0A
:101DE000608370BD29F0F0FB2B68C01A80B2F7E762
:101DF0005C060021E00500210806002170B50446BC
:101E0000866A084629F048F80E4D0F4B05F1800010
:101E1000C5F88030A368C5F88830A36029F0A8F819
:101E20000023204685F87830D6F89030984726F081
:101E300077FE30B126F064FE18B1BDE8704026F0A0
:101E400075BE70BD5C060021951D000108B50D2012
:101E5000054A064900F0CEFEBDE808401C220021DC
:101E600003482DF0F0BA00BF911D0001FD1D0001D7
:101E7000080600212DE9FF4104460D4693B10221D9
:101E800002928DF8041001A8039329F079F8134BFE
:101E900093F878304BB92946204604B0BDE8F041AC
:101EA00029F076B8CDE90133EDE70D4E0D4FB6F8C8
:101EB000168029F089FB3B68C01A804508D9F38A4F
:101EC00029462046F38204B0BDE8F04129F08AB8E3
:101ED00029F07AFB3B68C31A9BB2F1E75C0600214C
:101EE00008060021E005002130B50446034D0FCD62
:101EF0000FC495E8070084E8070030BD08060021FC
:101F00001FB501238DF80430002301A8CDE9023369
:101F100029F036F805B05DF804FB00002DE9F0412A
:101F200004460D4626F0ECFD836A1B780A2B0BD184
:101F3000124B93F878303BB9FFF7E2FF2946204671
:101F4000BDE8F04129F024B80D4E0E4FB6F81680CA
:101F500029F03AFB3B68C01A804509D9F38AF3821D
:101F6000FFF7CEFF29462046BDE8F04129F03AB8F8
:101F700029F02AFB3B68C31A9BB2F0E75C060021FC
:101F800024060021E005002170B50C4E04460D46E4
:101F9000C6F89400A6F8901026F0B2FD836A1B786C
:101FA0000B2B0AD196F878303BB9FFF7A9FF2946E9
:101FB0002046BDE8704029F033B870BD5C060021B2
:101FC00030B50446034D0FCD0FC495E8070084E8F3
:101FD000070030BD2406002170B50D46044629F0E7
:101FE00051F8094BD3F8941039B100222046C3F8B8
:101FF00094200222D5F8AC3098472046D5F8A4307A
:10200000BDE87040184700BF5C0600212DE9F04193
:1020100004460D46876A26F083FD0646E8B9284641
:1020200028F03AFF0E4D0F4B05F18000C5F88030C7
:102030000D4BC5F88430A368C5F88830A36004232D
:10204000C5F88C3028F094FFD7F8983085F8786080
:102050001BB12046BDE8F0411847BDE8F08100BF44
:102060005C0600216D200001412100012DE9F043B3
:1020700085B0054629F0A8FA2E4F2F4E386026F07D
:102080003FFDD0F828902946D9F8A83080469847D7
:10209000D6F89410294C00293AD055BBA58A29F0CE
:1020A00093FA3B68C01A85421DD9A08A0023A082FA
:1020B00001A8CDE90133039328F062FFB6F8901030
:1020C000D6F8940028F0D2FFE3680133E360658B13
:1020D00029F07AFA3B68C01A854213D9608B608375
:1020E00005B0BDE8F08329F06FFA3B68C01A80B2F2
:1020F000DCE700230222C6F894304046D9F8AC3021
:10210000984708E029F060FA3B68C01A80B2E6E719
:102110000DB928F0B5FF96F8783023B926F006FD02
:10212000012386F87830002DCED023690133236156
:10213000CDE700BFE00500215C0600212406002158
:102140002DE9F3470F46054629F03EFADFF81481E2
:10215000C8F8000026F0D4FC0023866A9DF82820E9
:1021600086F8B070404F8DF80730D7F8941086F895
:10217000B120C7F894302A46D6F8AC3004469847C8
:1021800026F0CEFC8146002837D04FF0010926F01A
:10219000C7FC40EA0900C0B280B1062D06D8012371
:1021A000AB4013F0510F01D028F06AFF97F8783058
:1021B00023B926F0BBFC012387F878309DF807305F
:1021C00023B929462046D6F8A0309847032D274C3E
:1021D00035D0042D37D0002D39D123680133236049
:1021E000258B29F0F1F9D8F80030C01A854232D990
:1021F000208B208302B0BDE8F0872046D6F89030CF
:102200000DF10701984782460028BED028F038FF1C
:10221000D6F894300DF1070120469847A06A28F0BF
:102220003BFED7F888005044C7F8880007F18000CB
:1022300028F09EFE2046D6F89C309847A7E7A36872
:102240000133A360CCE7636801336360C8E72369A7
:1022500001332361C4E729F0B7F9D8F80030C01A78
:1022600080B2C6E7E00500215C06002124060021BB
:1022700008B50A20054A064900F0BCFCBDE8084044
:102280001C22002103482DF0DEB800BFD91F000139
:102290000D2000012406002170B50D46044628F0EB
:1022A000F1FE094BD3F8941039B100222046C3F84F
:1022B00094200222D5F8AC3098472046D5F8A430B7
:1022C000BDE87040184700BF5C06002101232DE9DE
:1022D000F041876A054687F8B03083680846C7F83A
:1022E000B8300F4C0E4628F0D7FD0E4B04F180009D
:1022F000C4F880300C4BC4F88430D7F8B830C4F838
:102300008830D7F8C030C4F88C3028F031FE002374
:10231000284684F87830D6F89830BDE8F041184760
:102320005C060021AD2400018D2300012DE9F04160
:1023300006460C46904626F0F3FB074618B10127E7
:102340003846BDE8F0814146304623689847054647
:102350000028F4D028F094FE414663683046984740
:10236000B06A28F099FDA36A07482B44A362B360C2
:10237000C0F88830236B8030C36028F0F9FD304608
:10238000E3689847DCE700BF5C0600212DE9F043D5
:1023900085B00F469846044629F016F9404E306045
:1023A00026F0AEFB856A9DF8303085F8BC7014F0DD
:1023B000FB07814685F8BD3007D1C5F8B88001A874
:1023C000CDE90177039728F0DBFD95F8B030012BBC
:1023D00006D12FB9D5F8B83085F8B070C5F8B4304B
:1023E0004FF000082F4FD5F8AC30D7F894102246A4
:1023F0004846C7F89480984704F0FD03012B8DF8F8
:1024000004800ED1484601AA05F19001FFF78EFF26
:102410009DF80430804623B921464846D5F8A030BF
:10242000984726F07DFB40EA0800C0B280B1062C38
:1024300006D80123A34013F0510F01D028F020FE4D
:1024400097F8783023B926F071FB012387F87830AC
:10245000032C154D11D0042C13D0B4B92B680133C3
:102460002B602C8B29F0B0F83368C01A844210D945
:10247000288B288305B0BDE8F083AB680133AB60DF
:10248000EFE76B6801336B60EBE72B6901332B617E
:10249000E7E729F099F83368C01A80B2E9E700BF8E
:1024A000E00500215C060021240600212DE9F74308
:1024B000054629F089F8374F4FF00009386026F0BB
:1024C0001FFB0446866A2946D6F8A830984720465E
:1024D0000DF1070206F190018DF80790FFF726FF36
:1024E000804655BB26F01CFB40EA0800C0B258B13C
:1024F00028F0C6FD284B93F878302BB926F016FB50
:102500000122254B83F878209DF8073023B929460E
:102510002046D6F8A0309847204C8DBBE3680133A5
:10252000E360658B29F050F83B68C01A85422BD9CF
:10253000608B608303B0BDE8F083012D12D10028C9
:10254000E2D0DFF85480D8F8941031B1022220464E
:10255000D6F8AC30C8F89490984728F091FD98F8D8
:102560007830CAE7DFF83080D8F894100029F6D028
:1025700002222046D6F8AC30C8F894909847EEE78F
:10258000236901332361CCE729F01EF83B68C01AA8
:1025900080B2CEE7E00500215C0600212406002180
:1025A00008B50B20054A064900F024FBBDE80840A9
:1025B0001C22002103482CF046BF00BF99220001D5
:1025C000CD220001240600211FB501238DF804301F
:1025D000002301A8CDE9023328F0D2FC05B05DF854
:1025E00004FB00002DE9F04104460D4626F088FA70
:1025F000836A1B78042B0BD1124B93F878303BB9CC
:10260000FFF7E2FF29462046BDE8F04128F0C0BCB4
:102610000D4E0E4FB6F8168028F0D6FF3B68C01A54
:10262000804509D9F38AF382FFF7CEFF2946204679
:10263000BDE8F04128F0D6BC28F0C6FF3B68C31ABD
:102640009BB2F0E75C06002140060021E005002176
:1026500070B50C4E04460D46C6F89400A6F89010CE
:1026600026F04EFA836A1B78052B0AD196F878304B
:102670003BB9FFF7A9FF29462046BDE8704028F086
:10268000CFBC70BD5C06002130B50446034D0FCDB4
:102690000FC495E8070084E8070030BD400600211C
:1026A00070B50D46044628F0EDFC094BD3F89410A4
:1026B00039B100222046C3F894200222D5F89C307C
:1026C00098472046D5F89430BDE87040184700BFC1
:1026D0005C06002170B5054608460F4C0E4628F0F2
:1026E000DBFB0E4B04F18000C4F880300C4BC4F8C7
:1026F0008430AB68C4F88830AB600423C4F88C30F5
:1027000028F036FC0023284684F87830D6F890303C
:10271000BDE87040184700BF5C060021D9270001C2
:102720002527000170B50C46054628F04DFF274EC1
:10273000306026F0E5F99DF81030826A82F8A13009
:10274000234B82F8A04093F8781011B9012183F847
:1027500078100024D3F89410C3F89440D2F89C3039
:102760002A46984726F0DCF950B1062D06D80123F9
:10277000AB4013F0510F01D028F082FC26F0D6F9BF
:10278000032D144C0FD0042D11D0A5B923680133AB
:102790002360258B28F018FF3368C01A85420ED9B4
:1027A000208B208370BDA3680133A360F1E76368C9
:1027B00001336360EDE7236901332361E9E728F022
:1027C00003FF3368C01A80B2EBE700BFE0050021C9
:1027D0005C060021400600212DE9F04385B0054646
:1027E00028F0F2FE2C4EDFF8B480306026F088F935
:1027F000D0F828902946D9F8983007469847D8F855
:102800009410274C00293CD065BBA58A28F0DCFE3B
:102810003368C01A85421FD9A08A01238DF804307D
:102820000023A08201A8CDE9023328F0A9FBB8F863
:102830009010D8F8940028F019FCE3680133E360A5
:10284000658B28F0C1FE3368C01A854213D9608BAE
:10285000608305B0BDE8F08328F0B6FE3368C01A87
:1028600080B2DAE700230222C8F894303846D9F85B
:102870009C30984708E028F0A7FE3368C01A80B261
:10288000E6E70DB928F0FCFB26F050F9002DD4D076
:10289000236901332361D3E7E00500215C060021B1
:1028A0004006002108B50420054A064900F0A2F9B7
:1028B000BDE808401C22002103482CF0C4BD00BF25
:1028C000A1260001D52600014006002170B50D4665
:1028D000044628F0D7FB094BD3F8941039B10022F5
:1028E0002046C3F894200222D5F8A030984720460D
:1028F000D5F89830BDE87040184700BF5C0600214D
:102900002DE9F0410446876A08460F4D0E4628F02F
:10291000C3FA0E4B05F18000C5F880300C4BC5F8AA
:102920008430A368C5F88830A360D7F89030C5F824
:102930008C3028F01DFB0023204685F87830D6F82F
:102940009430BDE8F04118475C0600210D2A0001D3
:1029500055290001F8B50C461F46054628F034FEFF
:10296000274E306026F0CCF8826A9DF8183082F845
:10297000A840244C82F8A93094F8783023B9012378
:10298000C2F8A47084F878300023D4F89410C4F806
:102990009430D2F8A0302A46984726F0C1F850B1BA
:1029A000062D06D80123AB4013F0510F01D028F0BB
:1029B00067FB26F0BBF8032D134C0FD0042D11D06C
:1029C000A5B9236801332360258B28F0FDFD33680A
:1029D000C01A85420ED9208B2083F8BDA36801332D
:1029E000A360F1E7636801336360EDE723690133B6
:1029F0002361E9E728F0E8FD3368C01A80B2EBE70D
:102A0000E00500215C060021400600212DE9F0438D
:102A100085B0804628F0D8FD2D4D2E4E286026F03A
:102A20006FF8D0F828904146D9F89C3007462A4CD8
:102A30009847B8F1000F29D1D6F894300BB3A78A84
:102A400028F0C2FD2B68C01A874214D9A08A01233E
:102A50008DF804300023A08201A8CDE9023328F0CC
:102A60008FFAB6F89010D6F8940028F0FFFAE368D1
:102A70000133E3601AE028F0A7FD2B68C01A80B28A
:102A8000E5E728F0FDFA26F051F8F0E7D6F89410C3
:102A900039B100230222C6F894303846D9F8A03064
:102AA000984726F043F8236901332361668B28F0A9
:102AB0008BFD2B68C01A864204D9608B608305B0F9
:102AC000BDE8F08328F080FD2B68C01A80B2F5E7DE
:102AD000E00500215C0600214006002108B5052024
:102AE000054A064900F086F8BDE808401C2200218E
:102AF00003482CF0A8BC00BFCD280001012900012B
:102B000040060021816A034B0A7853F8323003B142
:102B1000184770475C060021816A044B0A7803EB72
:102B2000C2035B6803B11847704700BF5C06002111
:102B300028F0B2BA28F0AEB908B528F0ABF9BDE874
:102B40000840002028F0A2BA08B528F095F9002026
:102B500028F09AFABDE80840012028F097BA08B595
:102B600028F08AF9BDE80840002028F08DBA08B5A1
:102B700028F082F9BDE80840012028F085BA00005D
:102B800073B5134C134D144E28F074F922462946A0
:102B90000120124B009625F0EFFF22462946022025
:102BA0000F4B009625F0E8FF0E4B224600930021C4
:102BB0000D4B032025F0E0FF01200C4925F0EAFF32
:102BC000982200210A4802B0BDE870402CF03BBCBE
:102BD000192B0001052B0001352B00016F2B000183
:102BE0005F2B0001392B0001492B0001312B000123
:102BF0005C060021034B43F8301003EBC0035A601E
:102C0000704700BF5C060021F0B504468C46D3E94E
:102C1000000116461D46177885B0002C36D0CFB17E
:102C20004FEA112E0EF0C00EBEF1400F12D1BCF1D2
:102C3000000F04D000F00AFD204605B0F0BD00F002
:102C40007BFC044608B10124F6E71F4AD38B01330D
:102C5000D383F1E702460B46384600F07BFD02388D
:102C6000C0B20128EFD80DF10F0300933078D5E9F9
:102C7000002300F013FC18B19DF80F30002BDBD1BE
:102C8000114A0224138B01331383D5E727B10B0AB2
:102C900003F0C003402BD6D002460B46384600F066
:102CA00059FD02380128CED80DF10F03009330787A
:102CB000D5E9002300F0F2FB0028E1D09DF80F30A9
:102CC000002BC0D1DCE700BFF40600212DE9F04164
:102CD000884617461E46044658B152EA06030E4D72
:102CE0000AD100F04FFF012806D10446EB880133DA
:102CF000EB802046BDE8F0813A463346404600F07E
:102D0000BFFE20B9AB8802240133AB80F1E7EB882A
:102D10000133EB80EDE700BFF406002137B5DDE9B4
:102D2000065410B9002003B030BDCAB1230A03F025
:102D3000C003402B14D129B1284621460AAB08AA6A
:102D400000F0D8FCDDE90A232846CDE9002321461E
:102D50009DF8202000F02EFC003818BF0120E2E78B
:102D60009DF82000DDE90A2300F005FD0238C0B21D
:102D70000128D7D8024A0220538B01335383D2E76C
:102D8000F40600212DE9F04F90F800800D8808F03E
:102D90000F0845FA08F515F0010581460F469246E1
:102DA0001C466E4E87B006D13388013333802846E7
:102DB00007B0BDE8F08F4FF4C07B72884BFA08FB78
:102DC00001321BF0010B4378728001D00125EEE740
:102DD00003F03F03637484F8108010F8025B26F060
:102DE00077FBC5F38015E574A574C4E90201C4E955
:102DF00000017868514604F1080304F11302C0F39E
:102E00008010FFF701FF0128054602D0022839D0C3
:102E10005D46D4E90223D7F804C094F813E01CF00F
:102E2000040B0ED0D7E90410834208BF8A4203D1B5
:102E3000CCF3C00CE64527D04FF0020B30890130AF
:102E400030817888714640FA08F000F00100FFF701
:102E50003DFF584523D2D7F804C01CF0040F1CD006
:102E6000D7E90413A068E2689A4208BF884204D1F7
:102E7000E37CCCF3C00C63450CD033890133338140
:102E8000012D1AD1002592E770894FF0010B013016
:102E90007081D6E773890133738101250DE078884D
:102EA000E17C40FA08F000F00100D4E90223FFF7CA
:102EB0000DFF0128F1D90228E2D04FF0010BB8F143
:102EC000050F257584F815B080D80BFA08F818F0AE
:102ED0002A0F3FF47BAF484610F8085B26F0F8FA5B
:102EE000D4E902238146CDE904237868E37CED0927
:102EF000CDE9009188462A4651460293C0F300105E
:102F0000FFF70CFF01283FF461AF0228BAD07B68BD
:102F1000DA077FF55BAFD7E90212424508BF4945A2
:102F200003D1C3F34002AA4213D0B2890132B28165
:102F3000002DA7D04FEA182808F0C008B8F14008C3
:102F4000A0D19B069ED5338C0133338484F8158041
:102F50002DE7F3890133F38138E700BFF406002140
:102F60002DE9F04F07461C4608883B7C0E46184169
:102F700010F001009046624D87B005D12B880133D7
:102F80002B8007B0BDE8F08F6B8801336B80D7E9E9
:102F90000023C4E90223C4E90023BB7C04F113022B
:102FA000E374A374486804F108034146C0F3801039
:102FB000FFF72AFE0128814603D002283DD04FF0BA
:102FC0000009D4E90223D6F804C094F813E01CF0F9
:102FD000040A0ED0D6E90410834208BF8A4203D106
:102FE000CCF3C00086452AD04FF0020A2889013070
:102FF0002881708897F810C0714640FA0CF000F0F4
:103000000100FFF763FE504525D2D6F804C01CF03E
:10301000040F1DD0D6E90413A068E2689A4208BFE5
:10302000884204D1E37CCCF3C00C63450DD02B89DE
:1030300001332B81B9F1010F1BD10020A1E7688971
:103040004FF0010A01306881D3E76B8901336B814E
:103050004FF001090DE03B7C7088E17C184100F0E5
:103060000100D4E90223FFF731FE0128F0D902283C
:10307000E0D04FF0010A84F8149084F815A07B7C0E
:10308000990701D401207CE797F81390D4E9022333
:10309000D7E902B77068CDE90423E37C4A4641468C
:1030A000CDE900B70293C0F30010FFF737FE012807
:1030B0003FF467AF0228C0D07368DA07E2D5D6E9DB
:1030C0000212BA4208BF594503D1C3F340024A4530
:1030D00011D0AA890132AA81B9F1000FADD03F0AFF
:1030E00007F0C007403FA8D19B06A6D52B8C013323
:1030F0002B846775C6E7EB890133EB81C2E700BF1C
:10310000F4060021054B03F1240253F8041B9342FB
:1031100040F8041BF9D11B8803807047F406002196
:10312000002330B50A4C0B4D23700B4C23708B07DA
:103130000EBF0B4621F0030304332B6003EB001397
:103140005B1A934296BF2070002098B230BD00BF3A
:103150001A0700211C0700211B070021F0B50024DD
:103160000D499DF814C00D780C490968A54201D895
:103170000020F0BD0E7A864208D1D1E900769E4249
:1031800008BF974202D14E7A664502D00134103111
:10319000ECE70120EDE700BF1A0700211C07002122
:1031A000014B1878704700BF1B0700210022014B1C
:1031B0001A7070471A07002130B50B490B4D09787A
:1031C0002C78A1420DD90A49096801EB0411087253
:1031D0000120C1E900239DF80C3001344B722C70A2
:1031E00030BD0020FCE700BF1B0700211A070021AB
:1031F0001C0700212DE9F0411B4C8446276800255F
:103200003C46DFF868E09DF818809EF80010EEB2AA
:10321000B14201D8002021E0267A664520D1D4E9C8
:1032200000069E4208BF90421AD1667A464517D1E1
:10323000012901F1FF300ED985420CD001F18051F6
:10324000013907EB01110B7A2372D1E90023C4E99C
:1032500000234B7A63728EF800000120BDE8F081F4
:1032600001351034D3E700BF1C0700211A070021E5
:10327000F0B50C4943EA00430D780B490C68002176
:10328000C8B2854201D800200AE02046D0E908767D
:103290009E4208BF974201F1010104F14804EFD1B9
:1032A000F0BD00BF240700212807002130B585B0FC
:1032B0000C4605461022002168462CF0C4F86A46E8
:1032C000230A28468DF800401146240C8DF8013061
:1032D0008DF8024027F0DCFF9DF802309DF80100D8
:1032E0001B0443EA00239DF80000184305B030BDDD
:1032F00013B5042104460DEB010028F085F801996F
:103300002046C1F3150141F480010191FFF7CEFF82
:10331000019940EA0160090A02B010BD002330B5EE
:103320000A4C0B4D23700B4C23708B070EBF0B46C2
:1033300021F0030304332B60482505FB00335B1A9F
:10334000934296BF2070002098B230BD2407002120
:103350002807002125070021014B1860704700BF96
:1033600020070021014B1878704700BF2507002176
:103370000022014B1A70704724070021F8B5074658
:103380001D46FFF775FF1646044680B92E4A2F49A1
:1033900013780978994201D80020F8BD48202C49BB
:1033A0000C6800FB034401331370002CF4D0224658
:1033B00045EA0745069BC4E9086503F1100153F887
:1033C000040B8B4242F8040BF9D1012304F10F02E4
:1033D00084F84030631E13F8011F71B3002384F892
:1033E000403004F110000246079B03F1100153F82E
:1033F000045B8B4242F8045BF9D1012384F841302D
:10340000034604F1200213F8011BC9B1002384F81C
:10341000413000230022C4E90A23C4E90C23C4E993
:103420000E230023A4F8423094F841301BB9FFF773
:103430005FFFC4E90C010120AFE79A42CBD1D0E78E
:103440009A42E0D1E5E700BF2407002125070021CB
:103450002807002138B5FFF70BFF78B1084D2C780D
:10346000012C08D9482202FB04F30649483B0968AD
:1034700019442BF0C1FF0120013C2C7038BD00BF66
:10348000240700212807002108B5FFF7F1FE20B12D
:103490009DF8083080F84330012008BD08B5FFF7DB
:1034A000E7FE20B190F843200120029B1A7008BD6E
:1034B00010B5029CFFF7DCFE40B1D0E90A2352EAC6
:1034C000030116BF01200020C4E9002310BD10B580
:1034D000029CFFF7CDFE40B1D0E90C2352EA030174
:1034E00016BF01200020C4E9002310BD08B5FFF776
:1034F000BFFE28B1029BD3E90023C0E90C230120C1
:1035000008BD10B5FFF7B4FE044698B190F84030FE
:1035100083B990F8423033B9FFF7EAFE0123C4E9DA
:103520000A0184F84230029BD4E90A01C3E9000190
:10353000012010BD0020FCE7F7B50026194C94F8D7
:1035400000C0194C25683446F7B2BC4510D80CB3FE
:10355000164C2468F4B1164E758C01357584D3E988
:103560000067CDE9006713780122A047002411E02D
:1035700095F8407097B9D5E90A748C4208BF874224
:103580000BD10124E98C01F001011170296AAA8C88
:10359000C3E90012204603B0F0BD012401364835CE
:1035A000D2E700BF240700212807002120070021BF
:1035B000F40600212DE9F347DDE90A6791468046CC
:1035C00032463B4648460D46FFF752FEE8B190F8BA
:1035D0004140D4B9D0E90E23AB4208BF424516D0D2
:1035E0000C4BD3F800A0BAF1000F0AD00A4A4046AB
:1035F000938C2946013393844B462246CDE90067DC
:10360000D047204602B0BDE8F0870024F9E7012446
:10361000F7E700BF20070021F406002138B5054672
:103620001046DDE904230C46FFF722FE50B190F866
:10363000413043B9D0E90E23A34208BFAA420CBFD0
:103640000120002038BD0020FCE700002DE9F74FE5
:103650000E4605461F464FF000084FF0480B010E7E
:1036600041EA0621DFF880A0009221F07F411F4B44
:103670005FFA88F41B78A34205D81D4A0020138AFC
:103680000133138229E0DAF800300BFB043494F89C
:103690004090B9F1000F23D1D4E90A23B34208BF07
:1036A000AA4210D020460191FFF700FE25F07F438B
:1036B0008342019914D10E4AC4E90A56538A84F808
:1036C0004290013353820120E38C009A03F00103FE
:1036D0001370226AA38CC7E9002303B0BDE8F08F02
:1036E00008F10108C3E700BF2807002124070021D3
:1036F000F406002170B50E461146D3E900230546B5
:103700000878FFF7B5FD0446E0B190F84130CBB939
:10371000D0E90E23B34208BFAA4211D0290E41EAD4
:10372000062121F07F411030FFF7C0FD25F07F43D7
:10373000834207D1064AC4E90E56D38A0133D382A5
:10374000012004E00020024A938A0133938270BD75
:10375000F406002108B5FFF78BFD48B1D0E90A2334
:10376000134306D190F84030002B14BF01200220F3
:1037700008BD0320FCE708B5FFF77AFD48B1D0E9A2
:103780000C23134306D190F84130002B14BF0120C5
:10379000022008BD0320FCE72DE9F04100254FF091
:1037A0004808124E124F3378ECB2A34201D8BDE85C
:1037B000F0813B6808FB043494F841302BB904F1E4
:1037C0001000FFF795FDC4E90C0194F840303BB9B7
:1037D00094F8423023B12046FFF78AFDC4E90A017C
:1037E000012384F844301D44DDE700BF2407002195
:1037F0002807002108B5FFF73BFD034620B1002252
:1038000090F8440083F8442008BD08B5FFF730FD68
:10381000003818BF012008BD1FB5002301A8CDE95D
:103820000133039327F0ACFB05B05DF804FB000007
:1038300030B5144B144D85B0C5F88030134B0C4691
:10384000C5F884308368C5F888308360D1F890303B
:103850000846C5F88C3027F01FFB05F1800027F0E3
:1038600087FB03238DF80430002301A8CDE9023340
:1038700027F086FBB4F89C10D4F8980027F0D0FB12
:1038800005B030BD053900015C060021913800010A
:103890007FB5044625F034F9856A14F0FB0621460D
:1038A000D5F8943010D1984778B1032301A8CDE919
:1038B00002668DF8043027F063FBB5F89C10D5F84C
:1038C000980027F0D3FB04E0984727F0D9FB25F0B8
:1038D0002DF9032C0A4B07D0042C09D064B91A68BF
:1038E00001321A6004B070BD9A6801329A60F9E73B
:1038F0005A6801325A60F5E71A6901321A61F1E734
:103900002C070021F7B5054625F0FAF81C4E0746AE
:10391000846A25BB27F0B4FB29463846D4F890309A
:10392000984700B3174DB4F89A20D5F88830204650
:103930001344C5F8883027F0AFFA05F1800027F06E
:1039400017FBFFF769FFB4F898300121ADF800309C
:10395000D4F894306846019327F01AFB06E0294614
:10396000D4F89030984725F0E1F825B9F368013391
:10397000F36003B0F0BD336901333361F9E700BF91
:103980002C0700215C06002137B50C46104D114B69
:10399000C5F88030104BC5F884308368C5F888308E
:1039A0008360084627F078FA05F1800027F0E0FAF6
:1039B000FFF732FFB4F898300121ADF80030D4F8A9
:1039C00094306846019327F0E3FA03B030BD00BF9E
:1039D0005C060021053900019138000108B527F087
:1039E00051FBBDE8084025F0A1B8000010B5094C16
:1039F000002022460849FFF7FDF82246012007492A
:103A0000FFF7F8F8BDE810401C22002104482BF015
:103A10001ABD00BFDD3900018939000131380001CC
:103A20002C07002130B50446034D0FCD0FC495E897
:103A3000070084E8070030BD2C070021002330B5C3
:103A40000B4C0C4D23700C4C2B7023708B070CBF50
:103A50000B4621F00303094D18BF04332B6003EB21
:103A6000C0035B1A934296BF2070002098B230BD0D
:103A700049070021480700214A0700214C0700217F
:103A800030B50B4943EA00430A480968047801EB62
:103A9000C404A14201D1002030BDD1E900509842B8
:103AA00008BF954201F10801F3D10120F4E700BFFE
:103AB0004C07002149070021014B1878704700BFCF
:103AC0004A0700210023024A1370024A137070470C
:103AD000490700214807002170B5064615461C46D7
:103AE000FFF7CEFF80B9094B094A197812788A424C
:103AF0000BD9084A44EA0644126802EBC10042F8B6
:103B00003150013144601970012070BD4907002116
:103B10004A0700214C07002143EA00431148F0B551
:103B20000468DFF844C025469CF8001004EBC10E81
:103B3000754501D1002014E02846D0E900769E4268
:103B400008BF974205F10805F2D1012905D904EB18
:103B5000C10454E90223C0E90023012001398CF893
:103B60000010F0BD4C070021490700210122014B44
:103B70001A707047480700210022014B1A707047E5
:103B800048070021014B1878704700BF4807002103
:103B900037B5044623F0D8FC0022144B9C42144B4A
:103BA0000CBFDA701A7194F8423003F0FD03012B58
:103BB00001D123F0D9FC20460BF084FE04F1280546
:103BC00028460DF1070125F0BFFD40B930342046ED
:103BD0000DF1070125F0B8FD20B903B030BD25F087
:103BE0009BFDEDE725F098FDF1E700BF580E0021A1
:103BF00070410021154A38B5154C164B10685168B4
:103C00001D6804F13C0303C304F1480029790BF05B
:103C100081FF012024F0FEFE23F08EFC01230E4DD7
:103C2000EB7094F8423003F0FD03012B01D123F037
:103C300093FC0BF069FE00200123687184F8C03109
:103C4000A4F8BE31BDE8384023F01BBC4842002137
:103C5000580E0021540E002170410021054BDB78E5
:103C600033B10123044880F899309C3025F0D8BA4C
:103C7000704700BF70410021580E0021002023F042
:103C800000BC0C2023F0FDBB08B5012024F0D8FEB9
:103C9000BDE808400148FFF77BBF00BF580E002178
:103CA00008B5012024F0CCFE0348FFF771FFBDE802
:103CB0000840002023F0E5BB580E0021FFF7E4BFC9
:103CC000034B044A19684B6813608B685360704754
:103CD000540E00214842002108B5084B08481B68D3
:103CE000197990F888308B4202D048300BF012FFDF
:103CF000BDE80840002023F0C4BB00BF540E0021E3
:103D0000580E002110B50446012024F099FEA37B33
:103D100003F0FD03012B01D123F026FCD4F8C802E7
:103D200020B125F0F9FC0023C4F8C832D4F8D00241
:103D300020B125F0F1FC0023C4F8D032034AD37837
:103D4000013BD370BDE8104023F0FEBB7041002161
:103D500038B505460F4C012024F072FE2C1B0E488E
:103D6000EB68241144430BB1A0B298470434E0B28D
:103D700024F084FC95F858320BB123F005FC23F0B5
:103D8000E3FBD5F8440208B125F0C6FC00232B70F4
:103D900038BD00BF70190021D1581F1A38B50C4624
:103DA00005460E22002120462BF04DFB204695F8BB
:103DB000C03200F8023BD5E9B22325F08FFB95F81D
:103DC000C132084A637095F808332372D5F84C3134
:103DD000A3FB0232DB0F43EA4203638195F85031C3
:103DE000237338BDE3361A0038B50446012024F0A9
:103DF00011FEA37B03F0FD03012B01D123F0ACFBEB
:103E0000002320466370A370A4F8083284F83C3085
:103E10000CF0BCF9054620B920460CF0CDFA054659
:103E200040B1284623F086FC2046BDE838400321F7
:103E30000CF0A4BC074AD3780133D37023F07CFB89
:103E40000123284684F86830A4F86630BDE838407D
:103E500023F070BC70410021002023F06BBC0000F7
:103E600030B4027C0121022A18BF00220C4C817060
:103E7000657895420AD190F8082222B900F50370BE
:103E800030BC25F0CDB900F54A70F9E701FA02F22D
:103E9000217821EA02022270032130BC0CF06EBCB2
:103EA00020100021002023F045BC000010B5094C73
:103EB0006378012B04D9BDE810400C2023F03ABCF4
:103EC00004F1600025F01DFE04F17000BDE8104013
:103ED00025F017BE28100021034B5B7813B10C208E
:103EE00023F028BC704700BF28100021024B5878EF
:103EF00000B10C2023F01EBC2810002108B5FFF7EC
:103F000001FF044B5B7823B1BDE80840002023F09B
:103F100011BC08BD2810002138B51E4B01201C68BB
:103F200024F078FD23790BB123F026FB23791A4D79
:103F30002B72D4E90223C5E90423E379AB72A37998
:103F40006B72637D2B760CF05DFFD8B1286223790C
:103F500080F85832A37980F85932E37980F85A32E0
:103F6000D4E90223C0E998230A22238AA0F8503218
:103F7000638A5343C0F854320B23437263798371CD
:103F8000237DC371286A0CF0C9FCBDE8384023F0DA
:103F9000D3BA00BF142C0021D82B0021034B5A7830
:103FA000012A04BF00225A70704700BFD82B00219D
:103FB000084B186A90F843220AB9012202715B7813
:103FC000012B03D1C3702C3025F02AB905210CF048
:103FD000EFBB00BFD82B002130B50F4C85B0637804
:103FE000012B07D10025206AC37005712C3025F004
:103FF00017F965706946206AFFF7D0FE216A074B02
:104000006A46C91A064B091159433E2089B223F06A
:10401000C7FB05B030BD00BFD82B002170190021AF
:10402000D1581F1A30B52D4C85B06378206A012B0A
:1040300004BF00236370FFF78BFE256A2B7973B1F1
:104040000E22002168462BF0FEF925496A46691ABE
:10405000244D09116943442089B223F0A1FB256A4C
:1040600095F84332ABB1217A11F0010113D10E2240
:1040700068462BF0E8F91A496A46691A194D091180
:1040800069431A2089B223F08BFB0022236A83F84C
:10409000432205B030BD182025F036FB014600282C
:1040A000F3D040F20B134380D4E90423C0E9022388
:1040B000A37AC371637A8371237A0371236A9A792D
:1040C0004271B3F85022D3F8543202824382237EE5
:1040D0004375054B187B25F028FBD6E7D82B00212C
:1040E00070190021D1581F1AB84100212DE9F04361
:1040F0003D4B85B01D680CF085FE0446002870D04D
:10410000012024F087FC002184F8581295F8203013
:10411000364F84F8593295F82130354E84F85A32AA
:10412000D5E90A23C4E9982395F82330384684F862
:1041300008334FF47A73C4F854320C233461A4F872
:1041400050126372A91D17F007F940F2E242BB88D2
:104150005343C4F84C3195F8203084F8C03295F8B8
:10416000213084F8C132DB07D5E90A01C4E9B20184
:104170001CD50B0A03F0C003403B17D14FF00008D9
:104180004FF000098DF807300DF1070202ABCDE9C1
:104190000289FFF75BFA48B19DF8073043F002034C
:1041A00084F8C132DDE90223C4E9B22330690CF09E
:1041B000B5FB23F0C1F9AB88288BB3806B8B708083
:1041C000F380AB8B33812B8E738195F82230337360
:1041D000EB8BF3810CF096FC05B0BDE8F04305F0E5
:1041E00043BC05B0BDE8F083142C0021182C00213D
:1041F000002C002170470000012310B5054C2069F8
:10420000C3702C3025F00CF821693E20BDE8104029
:104210000CF048BE002C0021034B186901232C3000
:1042200000F8293C24F0FCBF002C0021044B186945
:10423000C378012B04BF0023C370FFF789BD00BF03
:10424000002C00211FB5437A04460B2B0ED1694682
:10425000FFF7A4FD0A496A46611A0A4C0911614335
:10426000002089B223F09CFA04B010BD0C2BFBD1C6
:104270000146002004B0BDE810400CF013BE00BFA2
:1042800070190021D1581F1A01232C3000F82A3C44
:1042900024F0C6BFFFF75CBD012310B50446837050
:1042A0002C3024F0BDFF04F52C7025F02AFC0548C5
:1042B000201A054C00116043BDE8104080B223F085
:1042C00096BA00BF70190021D1581F1AF8B50579A8
:1042D000C38815B1012D18D0F8BD4FF44472534373
:1042E0000E490688CC18B4F880214088921B82427F
:1042F000F2DCD4E95E6703F51E73C4E99E67C81853
:1043000023F07AF984F87051E6E74FF444720348D9
:1043100002FB0303002283F8D821DDE77019002196
:1043200008B523F011F90022054B5A70054B93F89C
:1043300021301BB1BDE8084023F016B908BD00BF0D
:10434000704100218042002108B5012024F062FB69
:1043500023F0F2F80122074B5A70074B93F82130F3
:104360000BB123F0F9F80CF0ABFEBDE808400020DB
:1043700023F078B8704100218042002108B5012067
:1043800024F048FB23F0D8F80122064B5A70064B64
:1043900093F821300BB123F0DFF8BDE808400CF0B2
:1043A0008FBE00BF7041002180420021054B5B7829
:1043B00033B10123044880F829302C3024F030BF79
:1043C000704700BF70410021602C0021002023F0C5
:1043D00049B80C2023F046B82DE9F0415B4B8AB078
:1043E0005B78002B00F0AF80594C94F82860002EC9
:1043F00000F08480D4F8EC80B8F1000F79D001226D
:1044000004F5847304F1D0014046FEF7BBFC064678
:10441000602025F079F90546002800F0908000F131
:104420000807384608F1020117F05FF9384617F01F
:10443000B3F900B196B9284625F06EF9042025F0AD
:1044400063F9014630B14FF441734380414B187B0F
:1044500025F06BF9012024F0F3FA4AE00023AB7059
:10446000D4F84831AB6394F81B3185F83C3094F8AC
:104470001A219A4207D1D4E94461D4E94202914217
:1044800008BF864203D043F0020385F83C30002089
:10449000D4E944230021C5E91223C5E9140194F8A5
:1044A0001B0194F81A11884207D1D4E94470D4E969
:1044B0004261884208BFB74203D0D4E94201C5E94E
:1044C000140195F83C0013F0DFFA0028B3D1224B19
:1044D0002946D3E91C23C5E9162394F82A3085F828
:1044E000410085F83D300123EB871A4B187B25F0FE
:1044F0001CF90AB0BDE8F041FFF712BF164C0CF0F2
:1045000017FF257C012DA5D13146242201A82AF0D0
:104510009AFF43F60543ADF806303C238DF808308A
:10452000A37C0DF10E008DF80D30D4E906238DF833
:104530000C5024F0D3FF01A822F08CFF8AE7002E54
:104540003FF47CAFD5E70AB0BDE8F08170410021AF
:10455000602C0021B84100218042002108B50120D3
:1045600024F06EFAFFF7DCFE0CF0E2FEBDE8084036
:10457000002022F077BF08B5012024F061FAFFF790
:10458000CFFEBDE808400CF0D3BE0000054B30B5AF
:104590001C68054D08340FCC0FC594E80F0085E862
:1045A0000F0030BD540E00218842002110B5044692
:1045B000012024F045FA074B1868201A064CC01059
:1045C00060430430C0B223F09FFFBDE8104022F0EA
:1045D000BBBF00BF202E0021FBE14BC710B5044636
:1045E000D0F8280928B1043825F096F80023C4F83B
:1045F0002839D4F8FC0728B1043825F08DF80023B9
:10460000C4F8FC3794F83B300BB122F0ADFF024AFE
:104610009378013B937010BD7041002138B504467A
:104620001F4D012024F0F6F92A682046137A84F8F9
:10463000BC32002384F8BD3284F8BE3284F83437AB
:1046400084F836375168C4F8C0320DF0FFFF0146D8
:1046500040B1607823F0DAF82046BDE83840042104
:104660000DF0B0BE0F4A93780133937094F83B304D
:104670000BB122F071FF2B68596851B14FF47A7277
:10468000636A0A39B3FBF2F304F52B70C91A25F0FB
:1046900032FA60780021BDE8384023F0B7B800BF97
:1046A000242E00217041002138B504461C4D012004
:1046B00024F0B0F92A682046137A84F8BC3200232B
:1046C00084F8BD3284F8BE3284F8343784F8363743
:1046D0005168C4F8C0320DF0B9FF014640B16078AE
:1046E00023F094F82046BDE8384004210DF06ABE5E
:1046F0002B685B6893B14FF47A71626A4B4302F5A1
:104700009C520832B3FBF2F3013B534304F52B7088
:10471000B3FBF1F1BDE8384025F0EDB938BD00BF7D
:10472000242E002170B5134D00F52B76044630463B
:1047300025F0E7F92B685B687BB14FF47A71626A08
:104740004B4302F59C520832B3FBF2F3013B534357
:104750003046B3FBF1F125F0CEF900212B686078EB
:104760001B7A84F8BD1284F8BC32BDE8704023F097
:104770004DB800BF242E002110B5044600F52B7063
:1047800025F0BFF9002384F8BE32012384F83637C0
:1047900010BD0021407823F039B80C21407823F077
:1047A00035B80000F0B590F8343704469DB0002BC2
:1047B00034D100F52B7025F0A4F92046FFF70EFF49
:1047C000012024F03DF994F8BC2294F8BD3222B1C6
:1047D000934224BF432284F8BE22002294F8BE12E2
:1047E000607822F05EFE238C03F01D031D2B13D195
:1047F000002000213C230022CDE90401CDE906324E
:10480000CDE90201D4E90C0194F83A30CDE9000178
:104810000121607801F0C4FB1DB0F0BDD0F8FC6749
:10482000784F002E77D000F6180300F5FC610122C6
:104830003046FEF7A7FA002800F0D080602024F070
:1048400063FF0546002800F0C98063783146038085
:104850000023837010A816F01FFF311805F108001F
:1048600016F043FFD4F8FC37002B00F0828094F858
:104870002BC804F5026185F83CC094F82A386345DA
:1048800008D151E90203D4F820684A689A4208BF67
:10489000864203D04CF0020C85F83CC0D1E90023DD
:1048A000C5E9122300220023C5E9142394F82B281C
:1048B00094F82A389A4208D151E90203D4F82068C2
:1048C0004A689A4208BF864203D051E90223C5E9EB
:1048D0001423012385F83E30D4F83037387BAB639E
:1048E000494B2946D3E91C23C5E9162394F83537EB
:1048F00085F83D30012385F83F3094F8BD3285F8C6
:10490000403094F82C3785F8413024F00EFF2046D3
:10491000FFF764FE80E7D0F82869002E8ED031467C
:1049200008A816F0B9FE311810A816F0DEFE002314
:104930000F939DF8203004F5FC618DF83830032387
:104940008DF83930DDE91023CDE90A239DF82230B6
:104950000AA88DF83A30DDE91223CDE90C239DF841
:10496000233001228DF83B3004F51663FEF7F8FA88
:1049700061E794F873C904F5166185F83CC094F8B2
:104980007239634508D1D1E90262D4F860094B68F5
:104990009A4208BF864203D04CF0020C85F83CC016
:1049A000D1E90223C5E9122300220023C5E914231B
:1049B00094F8732994F872399A4208D1D1E90262C5
:1049C000D4F860094B689A4208BF864203D0D1E907
:1049D0000023C5E9142394F895387BE76378311FE9
:1049E00026F8043C082306F8023C032306F8013CA1
:1049F000387B24F09AFE01201DB0BDE8F04024F081
:104A00001FB800BFB84100218042002110B5044604
:104A1000FFF7E4FD012024F013F860780021BDE8E1
:104A2000104022F0F3BE10B50446FFF7D7FD012079
:104A300024F006F82046BDE810400CF0DBBD3C2316
:104A400080F8BE32012380F83637704700221346C3
:104A5000F0B5D0E90076C3F12005A3F1200427FAD0
:104A600003F106FA05F5294326FA04F42143C907A0
:104A700044BF81180B7203F1010348BF0132252B9B
:104A8000E9D180F82D20F0BD70B504460025012045
:104A900023F0C0FF84F84E520AF006FEA4F8285115
:104AA000254601262B4BC4F82401D3E90E23E5E962
:104AB0009A23284622F0A0FDD4F82431284683EA20
:104AC0001343B4F82811A4F8983284F896620CF0D5
:104AD0009FFE84F84D0220460DF016FF054648B1B2
:104AE000204603210DF0D0FE29466078BDE87040D5
:104AF00022F0C3BEA37884F82161012B13D194F86E
:104B00007D290AB984F82A31D4F80064B4F8FC533A
:104B100022F052FC3246294624F0ECFC0123A4F892
:104B20000C0484F87E3994F854325BB1D4F80064F4
:104B3000B4F8FC5322F040FC3246294624F0DAFC5B
:104B4000A4F856026078002122F097FEBDE870407C
:104B500022F0F2BC704100210021407822F08DBE8D
:104B60000C21407822F089BEF8B583780446012BE9
:104B700011D190F82151012D0DD1D0F80074B0F869
:104B8000FC6322F019FC3A46314624F0B3FC84F869
:104B90007E59A4F80C04012384F84E32002304F556
:104BA000967084F8213184F82A31BDE8F84024F069
:104BB00037BB10B590F820310446012B04D1FFF724
:104BC000D3FF2046FFF7F2FC2046BDE81040FFF778
:104BD000D3BD10B590F820310446012B04D1FFF766
:104BE000C3FF2046FFF7E2FC2046BDE810400CF072
:104BF00001BD10B50446FFF7D9FC60780021BDE87F
:104C0000104022F03ABE000090F85030012B12D034
:104C1000094B1B68D3E90223C0E9A823C0E9162386
:104C2000B0F828310633A0F86030082380F85230FD
:104C3000012380F8503070471C2E0021D0F88839AD
:104C40000BB1407818477047D0F88C390BB14078D9
:104C500018477047682200212AF0F5BB5030FFF753
:104C6000F9BF2A2307B58DF803008DF804006846C4
:104C7000ADF800108DF802308DF8051022F0EAFB37
:104C800003B05DF804FB2C2307B5ADF800008DF8E8
:104C900004006846ADF802308DF8051022F0DAFB0A
:104CA00003B05DF804FB08B5012023F0B3FEBDE8B6
:104CB000084022F041BC00002DE9F04FDFF83881B8
:104CC0000446D8F800608FB006F1080529460EF0BA
:104CD000C7FE2946002520460EF02AFFAA46B37DCE
:104CE000AB423ED9002794F8562004F1570305F152
:104CF000010906E0D4F894302BBBC4F894B022E04C
:104D00000137BA421FD913F8011B4945F8D1204693
:104D10000EF034F896F84030F18E0293D6E90E2367
:104D2000CDE900230A46F16A83460EF0CDF8D4F8A7
:104D30009030002BDED1E368C4F890B06B4384F868
:104D40009C50C4F8983094F85630BB4207D194F880
:104D500034305A1C0E3384F8342044F823A04D46D6
:104D6000BDE7D8F80010204608310EF001FE216F93
:104D700004F1600024F0BFFE2B23A578202200213F
:104D800006A8ADF81630ADF814502AF05CFBE36AC3
:104D90001A4A0793A38A04F138015BBAADF82030B0
:104DA000E38A8DF81950ADF82230A3885034ADF85D
:104DB000243054F8403CA3FB0232DB0F43EA4203A9
:104DC0000022ADF82630134651F8040B40B140885C
:104DD0000EAD5A1C05EB430323F80E0CD3B201228F
:104DE0008C42F1D10AB18DF8283005A822F032FBAF
:104DF0000FB0BDE8F08F00BF342E0021E3361A005B
:104E000090F8BA3080F85430704710B543780446B3
:104E1000012B8AB018D181780020FFF722FF2022D1
:104E2000002102A82AF00FFB2B228DF80620442235
:104E3000A37801A8ADF804308DF807208DF808207C
:104E40008DF8093022F006FB0AB010BD082380F867
:104E5000543070473D2380F85430704710B50446F5
:104E6000012023F0EDFD20460EF022FB22F06CFB2A
:104E70000022236D83F8DA2194F85430A07823B10E
:104E8000BDE810401946FFF7FEBE0146BDE81040E0
:104E90001846FFF7E6BEF8B505460FF0F5FB0446E9
:104EA00048B1284604210FF0BDFB21462846BDE845
:104EB000F8400FF051BB012023F0ACFD2C6DCCB1BC
:104EC000012384F82131A378012B13D194F87D2993
:104ED0000AB984F82A31D4F80074B4F8FC6322F0DB
:104EE0006BFA3A46314624F005FB0123A4F80C0482
:104EF00084F87E39284602210FF0AAFBBDE8F8406D
:104F000022F01ABBF0B5044685B007200EF00CFA6B
:104F1000064630B3144B03A91868258C039030461D
:104F200017F072FE114F0635ADB2D7E90E2300958A
:104F3000304417F07CFE0622314620460EF0FBF985
:104F400094F8A030A4F8A85043F0010384F8A030EE
:104F5000D7E90E23C4E92C23236D13B1002283F873
:104F6000B82005B0F0BD00BF580503017041002115
:104F700073B5044603200EF0D7F90646E0B1124B94
:104F800001A95868258C0190304617F03DFE063582
:104F9000ADB22A4694F8BA10304417F05AFE0622F1
:104FA000314620460EF0C7F994F8A030A4F8B85066
:104FB00043F0020384F8A0300321204602B0BDE88C
:104FC00070400FF045BB00BF5805030110B5044603
:104FD000C43024F025F92046BDE8104003210FF02D
:104FE00037BB000010B504460B4B1B68C31A0B48B7
:104FF000DB1043430C33D8B223F086FA20460EF080
:1050000057FA012023F01CFD22F09EFA2046BDE84D
:1050100010400FF0F3BA00BF2C2E002167EBD06FC9
:105020007FB50622ADF80620002203890D4DADF8AC
:105030000430ADF80A30C37F01A88DF80C308DF82C
:10504000082022F007FA2B784BB1074EF0880FF0BA
:105050001BFC044618B9304622F0FCF92C7004B051
:1050600070BD00BF5A070021500700212DE9F04311
:105070008BB0044615460E462422002101A82AF0D2
:10508000E2F926238DF8023040F2E243B4F85822C8
:1050900094F85B1294F85A7202FB01FE02FB07F0CF
:1050A00003FB0EFE94F84A9203FB00F8D4F8543246
:1050B000B9F1010F0CBF5B19EB1A73440593236917
:1050C000D4F850020393B4F84632B4F808C0ADF8EF
:1050D000183094F85C3208BF40198DF81A3094F8F3
:1050E000643218BF281A8DF81B3094F8653208BF57
:1050F00040448DF81C30A37A18BF4044ADF800C07E
:105100008DF803600CBF04900490ADF806C08DF8D4
:10511000046002958DF81D708DF81E10ADF82420E6
:105120008BB9B4F83021012B0CBFB4F83031B4F88E
:105130002C316846ADF82020ADF8223022F08AF9F3
:105140000BB0BDE8F083B4F82C21ECE738B5054688
:1051500004200C4624F0D8FA014650B12B89C470C3
:1051600003800F238370034B187BBDE8384024F085
:10517000DCBA38BDB841002138B5054604200C46DC
:1051800024F0C2FA014650B1EB88C47003800123B9
:105190008370034B187BBDE8384024F0C6BA38BD95
:1051A000B8410021014B9B7CC3777047882E0021BA
:1051B000024B1B681B79C377704700BF3C2E002150
:1051C0003E23C37770470823C37770472223C377F2
:1051D00070470D23C3777047014B5B7CC3777047E3
:1051E000882E00213D23C3777047000010B5044688
:1051F000C07A0FF0BBFB4FF476711B4BE2881B6843
:1052000001FB0233C27C0132C274A27A22BB94F841
:105210004612032993F84E2021D1013A18BF0122EA
:105220008A1A1A4492F9B0217E2A1AD193F865039A
:10523000B8B10E4A58181268032992F9202080F854
:10524000AF2108BF83F8B321D3F894325B0702D5AE
:10525000012384F83D3210BD94F84712D9E70122AA
:10526000DEE784F83A21F6E7182F002124410021D7
:10527000002210B590F847300446C17F80F84720DF
:1052800033B1222904D1BDE810401121FFF7EEBE51
:1052900000222046FFF7EAFEE37F442B04D11623C9
:1052A0002046E377FFF7BCFE2046BDE810400FF034
:1052B00075BE000038B50446C08812F065F8054692
:1052C00098B9082024F020FA014668B1E3880380E9
:1052D00041F2017343802389C380E37F0371044B50
:1052E000187B24F022FAA57638BD0123A376FBE7CC
:1052F000B8410021F8B504460121C688008914F0A0
:1053000027FC0221208914F023FCE07A0FF02EFB09
:10531000054604F50B7024F0F4FB01236376E37F6C
:105320003E2B0CD100276776EB7C2046013BEB74CB
:105330000FF034FE3A462046E17FFFF797FE144B0C
:105340001B6893F82A20134B1C680023934219D240
:10535000E188B14217D1657EADB9A17E99B108202F
:1053600024F0D2F9014668B1E388038041F2017369
:1053700043802389C380E37F0371074B187B24F0AC
:10538000D4F9A576F8BD013304F53C74DEE700BF1F
:1053900024410021402E0021B841002110B50446CF
:1053A000C07A0FF0E3FAA378012B05D1637624309D
:1053B000BDE8104023F034BF10BD70B50546042091
:1053C0000C46CE7F12F088FD014648B122230370BF
:1053D000E37A4370237BC6708370284612F052FD37
:1053E00021462846BDE870400FF0CFBE034B9B7CA2
:1053F000CB77012380F8D132704700BF882E00217F
:1054000008460521FFF7A2BEFFF7D7BF012380F8AA
:10541000D13270472DE9F04106460C46C87A0FF0AC
:10542000A5FAB6F86C31B6F8A013DA1DB6F86E31ED
:10543000074602FB0133A4F848300023A4F84A30A1
:105440000FF0AAFBB4F84810B6F86E51B6F87031F8
:10545000F26998BB40F2E248491B4B43284929486E
:10546000096808FB0322791A09114143388A0A3175
:1054700008FB00F0C9B223F055F8D4E904239B1AC5
:105480000344E364B6F8703194F85C2208FB03F837
:105490001D4BD4F860121B689B8D01FB12334344F3
:1054A000E26C9A4201D2BDE8F081A2EB0802E2640C
:1054B000B4F848200132A4F84820F1E740F2E2486D
:1054C0004D1B5D4308FB0525B4F84A303E8A013385
:1054D0009BB2A4F84A3073433E6A294608FB036630
:1054E000304623F045FB0028EED02946304623F015
:1054F0003FFBD4E904239B1A0344E364D3E700BFD2
:10550000382E0021398EE338244100217FB505462D
:10551000C87A0C460FF02AFAC37C0646F3B9837C9E
:10552000002B00F0E4804179C1B940F2E242038AE5
:1055300053437A4A10687A4A301A00115043794A24
:105540000A30CDE90112F268C0B200921A4622F088
:1055500087FF002800F0CB80012373712146284685
:10556000FFF758FF214630460FF08AFB6E4BC5F817
:1055700080336E4BC5F884336D4B1B681B88E3800A
:10558000D5F8A831C4F8E830B5F8E231A4F82832EB
:105590000AF08AF8D5E95E23C4F8E40020460FF04B
:1055A000FFFA242012F098FC0146002800F09580B4
:1055B0001F230370E37A4370237B837094F8463291
:1055C000022B03D0032B14BF01230423CB7094F8C8
:1055D0004732022B03D0032B14BF012304230B718A
:1055E000B4F84C3228464B7194F84A32B4F84C2245
:1055F000DB03C2F30B029BB213431B128B71B4F893
:105600004E32CB71B4F84E32C3F303230B72D4F88D
:1056100050324B72D4F850321B0A8B72B4F85232AB
:1056200003F00F03CB72D4F854320B73D4F8543216
:105630001B0A4B73B4F8563203F00F038B73B4F8A4
:105640003031CB73B4F830311B0A0B74B4F82C3101
:105650004B74B4F82C311B0A8B7494F85C32CB7405
:10566000D4F860320B75D4F860321B0A4B75B4F86D
:1056700062328B7594F8643294F8652203F00F035C
:1056800043EA0213CB7594F85A320B7694F85B32E6
:105690004B76B4F858328B76B4F858321B0ACB7676
:1056A000E36C0B77E36C1B0A4B77B4F84E308B77C7
:1056B000E36CCB77E36C1B0A81F82030B4F84E30F2
:1056C00081F82130B4F8483081F82230B4F84830FD
:1056D0001B0A81F8233012F0D5FB0123214628460E
:1056E00084F8473004B0BDE870400FF04EBD20464E
:1056F000FFF76FFD042024F007F8014608B904B055
:1057000070BDE388038044F601334380094B187B66
:1057100004B0BDE8704024F008B800BF382E002166
:10572000398EE33861670101CD5001012951010132
:10573000142F0021B8410021002310B50C46084663
:1057400081F84730FFF748FD204611F019F8204650
:10575000BDE810400221FFF7F9BC000070B5054616
:10576000C87A0C460FF002F9384B0646D3E90432EA
:105770009A4205D3C378FBB1204610F02DFF1DE0FF
:1057800001220D21284601F08DF9214628460FF00F
:1057900006FD0023204684F84730FFF71AFD214616
:1057A00030460FF000FB204610F0EAFF02212046B1
:1057B000BDE87040FFF7CABC10F078FE20460FF03D
:1057C0000FFA337923B922462946304610F07AFF82
:1057D0000023102084F8473012F07EFB014670B39E
:1057E00021230370D4F8E4304370D4F8E4301B0A6A
:1057F0008370B4F8E630C37094F8E7300371E36C5B
:105800004371E36C1B0A8371B4F84E30C371636952
:10581000037263691B0A4372E38A83722369C3724A
:1058200023691B0A0373638A4373B4F84830837394
:10583000B4F848301B0AC373284612F023FB2146F4
:1058400028460FF0ACFC0121B1E700BF882E0021F3
:1058500070B50646C87A0C460FF088F80546214612
:1058600030460FF09CFC2046FFF7B0FC214628464E
:105870000FF099FA204610F083FF2046BDE87040F3
:105880000221FFF763BC10B50C460FF088FC2046E0
:1058900010F076FF2046BDE810400221FFF756BC0D
:1058A00010B50C460FF07BFC204610F069FF442336
:1058B0002046E3770221BDE81040FFF747BC000017
:1058C00040F67C4238B58B8C0546043B9BB2934234
:1058D0000C4654D80B7E1F2B51D80B79012B4ED878
:1058E000CB88B3F5805F4AD20B89B3F5805F46D28F
:1058F000CB68B3F5801F42D20B69B3F5801F3ED24F
:1059000040F6FB738A8A9A4239D8CA8A9A4236D8B4
:1059100089784B1E012B01D9042930D1E078431E30
:10592000012B01D904282AD121F0EEFA38B394F8DA
:105930002230013B1E2B22D894F82330013B1E2B32
:105940001DD894F82030102B19D894F82130102B42
:1059500015D8D4E90A31994211D3227E012A10D9EF
:10596000B5F8700140F2E245074B013A1B689B8D88
:1059700005FB0033E06900FB1233994201D9122084
:1059800038BD0020FCE700BF244100211FB52722BD
:105990000389ADF80620ADF80430ADF80A30C37ABB
:1059A000C2888DF80C30037B044601A8ADF80820AE
:1059B0008DF80D3021F04EFD18B91A2120891FF005
:1059C0009DFE04B010BD000070B50D4E054600F5FB
:1059D000AE700C4624F095F833681979102903D17C
:1059E00000222046FFF742FB33682846012219793E
:1059F00001F058F82046BDE870400FF0CFBA00BF64
:105A0000142F00212DE9F047064600F5AE708946B7
:105A100024F077F8092012F05FFA0446C0B11B4B5E
:105A2000D3E90E57BD42B3F8408017D0D6F820A076
:105A300023F098F85044854203D8356A23F092F851
:105A40000544AF420AD201221121304601F02AF862
:105A500049463046BDE8F0470FF097BB202323703E
:105A60002B0A6570A3702D0C3B0A277184F8078000
:105A70003F0C4FEA182821463046E5706371A77144
:105A800084F8088012F0FEF9E2E700BF882E0021BA
:105A90002DE9F74F7F4E074633690C46C1F8E430D5
:105AA000338CA1F84830D0F8A831C1F8E830B0F80C
:105AB000E231C87AA1F828327369CB64B3694B61CB
:105AC000F3690B610EF052FF054621460FF0F9F81D
:105AD000214628460FF0D4F8EB78ABBBB3692046DB
