:020000040100F9
:100000000000012125AC0201F9AB0201D9AB0201CC
:10001000F9AB0201F9AB0201F9AB0201F9AB020144
:10002000F9AB0201F9AB0201F9AB0201F9AB020134
:10003000F9AB0201F9AB0201F9AB0201F9AB020124
:10004000F9AB0201F9AB0201F9AB0201F9AB020114
:10005000F9AB0201F9A60201F9AB0201F9AB020109
:1000600079BB0201F9AB02012DA40201F9AB020137
:1000700059A90201F9AB0201F9AB0201F9AB020186
:10008000F9AB0201A5A7020169A60201A9A9020113
:10009000F9AB0201F9AB0201B1A70201F9AB020110
:1000A00069A9020179A90201F9AB0201F9AB0201C8
:1000B000F9AB0201F9AB02010000000000000000F2
:1000C0000000000000000000000000000000000030
:1000D0000000000000000000000000000000000020
:1000E0000000000000000000000000000000000010
:1000F0000000000000000000000000000000000000
:10010000002070470388F7B5A3F57C4306460C46EC
:10011000032B4DD8DFE803F00212204391F90000D1
:1001200000F0A8FA04460120318822F017FB18B12C
:1001300000F8054922F0BEFA01203AE0CB788A782F
:10014000207802EB0322497892B22BF0A3FB08B18E
:100150000024E8E71224E6E7CA798B79497903EBB2
:1001600002232279E07802EB0122A178657801EB85
:1001700000212078E77A00EB0520A57A9BB205EBF9
:100180000725ADB20195657A247A92B204EB052475
:10019000A4B2009489B280B22CF098FBD7E708781B
:1001A0002BF04CFC0028D5D060782BF063FCCEE718
:1001B000002003B0F0BD00002DE9F047A44D88B049
:1001C000A4482BF035F8284624F07AF8342205F1BB
:1001D0000C0102202BF038F834220120A9182BF052
:1001E00033F8342205F13B0106202BF02DF81022C4
:1001F000ADF8082008228DF80A2020220B23ADF844
:100200000C20802240F20D114FF004082B71EB8B73
:10021000ADF810206A7B1C338DF812208DF8162063
:10022000ADF818302A7FEB7EADF81410134495F822
:10023000222002A9134495F82320052013448DF8A9
:100240001A308DF80E8029F02FFA80B229F0FAFAD0
:1002500029F09AFB29F006FD00F068F929F002FB6D
:10026000074629F005FB06467A4828F083FC32460B
:100270003946404603F0E2FB07EB0009A6EB000A13
:10028000044652464946404602F04AFF0444AAEB5F
:10029000000209EB0001404603F040F800EB0408BF
:1002A000284624F037F8AC7E4744A6EB080634B164
:1002B0003146384624F076F904460744361A31466A
:1002C000384624F02AF9361A074481463146384622
:1002D00024F039F9361A07443146444480463846FA
:1002E00024F055F9361A074431464C4481463846C5
:1002F00024F03BF94444311A8046381824F072F94E
:100300004C444444044428F03BFC02F039FC00F027
:1003100047FC02F0C7FA01F081FA02F0DFFB01F0BE
:1003200047F801F065F801F029FC2BF0FFFA01F025
:100330009FFF02F035F901F0C5FC01F087FD03F0E5
:1003400055FB454829F014FB29F0F2F824F0DEF8BB
:1003500024F03EF924F02EF924F0EEF824F031F9DF
:1003600024F046F924F04BF924F0D9F824F032F9BE
:1003700024F03AF924F002F924F0F0F824F0E5F83A
:1003800024F044F924F005F924F0F1F824F008F9F8
:1003900024F02CF9314829F0EBFA23F0C1FF304862
:1003A00029F0E6FAAA8CE98B28F0E8FC23F00CFB94
:1003B00023F016FC23F0C4FB23F036FB23F020FCD3
:1003C00023F094FB23F022FB23F0FAFB23F09AFCAA
:1003D00023F00AFB23F0D4FB23F036FB23F0A8FB29
:1003E00023F080FC23F06AFC23F060FB23F03EFB4B
:1003F00023F04CFB23F06AFB23F040FC194829F062
:10040000B7FA23F00FFC23F001FE174823F0D6FAC9
:100410002046002429F016FA68460094ADF80440FE
:1004200024F0F6F802A824F051FA02A827F072F896
:10043000012200214FF4003024F088F90B4829F004
:10044000B3FA29F0BDFA204608B0BDE8F08700BF36
:10045000B8010021A801002151950201C143020108
:10046000A98D020191420201050100010101000173
:10047000014B1878704700BF00000720014B19702E
:10048000704700BF00000720012070470122014B88
:100490005A6070470020014138B5C400343420460A
:1004A0002FF00AF9054618B1224600212FF03BF93A
:1004B000284638BD2EF050B870B50E46CAB1541E4D
:1004C000A0B229F0E9F9054698B12246711C2FF037
:1004D00003F93378022B0ED0052B05D0012B08D160
:1004E00000212A46084602E02A460321002028F07F
:1004F000B1FC002070BD2A460121F7E7C30703D5F0
:10050000024B58682DF0BEBE704700BF3C02002170
:1005100048F29C63C360044B436003F5547303606B
:1005200020238360704700BF048007201FB5684602
:10053000FFF7EEFF0298FFF7AFFF044C2060029830
:10054000FFF7AAFF606004B010BD00BF3C020021AD
:1005500030B5294B8BB004AC93E80300002284E84B
:100560000300264907202AF035F825482AF04EF8DE
:1005700006A8FFF7CDFF20462EF07AFD099B214803
:10058000214C43612EF056FD2246204920482EF092
:100590001DFD226893680BB102F10C0304201D4A73
:1005A000069990601062012051601B49BDF82040FF
:1005B0000D684968156091611849079D886102209E
:1005C00053619481D362D5619484CA6200228862A7
:1005D00013480862009213482EF0B6FB124B134AE0
:1005E0000293134B0F4901934FF0FF3311480093CF
:1005F0002DF032FF0BB030BD88070301FD04000170
:100600009007030100000021F801002168070301A1
:1006100072070301EC0200213C02002120030021AB
:100620001408030144020021B50400017A07030104
:10063000B9040001FC010021022907B5184603F1A5
:10064000FF3310D1042100F8011C012108480A449D
:1006500001910092D0E909122DF048FE03B05DF837
:1006600004EB28F077BB01290CBF02210521EAE742
:10067000FC010021024B83F87A000020704700BF84
:10068000984200212AF0C6BD2DE9F8431C46D0F857
:100690002890C56807460E46904628F02BFB99F82F
:1006A0000D302C44022B04440DD0032B0DD0012B14
:1006B00000D12834306C3D690319AB4208D9356448
:1006C0000020BDE8F8831834F4E704F5A874F1E7D6
:1006D0007B682D1A63B14146986828F011FB85426A
:1006E00028BF0546AC4203D9336C2B443364E7E79B
:1006F000281B4FF47A75044B1B689C886C43A042FE
:1007000028BF2046DDE700BF804500211FB501233B
:100710008DF80430002301A8CDE902332AF0F8FC5B
:1007200005B05DF804FB1FB5002301A8CDE9013336
:1007300003932AF0EDFC05B05DF804FB2DE9F843C6
:1007400004468846866A2BF007F805460146A068ED
:1007500006F1900728F0D4FA78B9A368DFF88C90F6
:10076000C9F87C3028F0C6FA2844A060D9F87C107B
:10077000284628F0C5FAC6F8D000D6F89C300BB150
:1007800020469847394600232046A268FFF77CFFA1
:10079000074618B9BDE8F84328F080BA134DA3689E
:1007A0004046EB672AF040FC114BC5F88C70C5F849
:1007B0008030104B05F18000C5F88430A368C5F87F
:1007C0008830A3602AF09CFC002385F87830D6F8A6
:1007D000943043B1FFF79AFFD6F890002721BDE887
:1007E000F8432AF0E5BCFFF79EFFF5E77406002109
:1007F000B10A0001950800012DE9F84380460C4636
:1008000028F056FA064618B101263046BDE8F883AE
:100810002AF0A2FF1D4D8146E96F28F071FA236C82
:1008200003442364C5F87C9028F064FA4A460346E2
:1008300021464046FFF728FF07460028E4D0636AB8
:1008400053B1024649464046984728B10122D8F89C
:10085000283083F8C020D8E7D5F87C8028F04AFA01
:100860004044C5E922070A482AF04AFC002385F8DB
:100870007830636833B1FFF749FF272120682AF0F9
:1008800097FCC2E7FFF74FFFF7E700BF74060021B0
:10089000F40600212DE9F04F87B09A469DF84030CC
:1008A00003910293934607462AF056FFDFF8F4912E
:1008B000C9F8000028F0ECF9DDE90231846A8046CD
:1008C000D4F8BC50ADB194F8C020012A11D1CDE9C3
:1008D00000A30A465B463946D4F8B000A847012871
:1008E00004D10023C4F8B03084F8C03007B0BDE8AC
:1008F000F08F6D4A6D4D92F87860701C82F8780028
:1009000076B1022E00F08680AC8C2AF025FFD9F853
:100910000030C01A844240F2B580A88CA884E5E774
:1009200007B3FB1E012B40F2B680042F68D06FD8AE
:1009300033460126032F5DD032461E46EB69013354
:10094000EB613346164643B117F0FB0F46D04046E5
:1009500004F19001FFF750FF0646002ED4D028F096
:10096000ADF9D1E784F8C31084F8C4303A46C4E93D
:1009700032BAD4F8900004F1D80304F1780102F0FF
:1009800001FA002834D04046D4F8A030D4F89010B2
:10099000984700287DD06E8C2AF0DEFED9F8003012
:1009A000C01A86421DD9688C94F8C1306884ADF8AD
:1009B0001030D4F894300593FFF7A8FE012104A865
:1009C0002AF0D8FBD4F8A4301BB14046D4F89010DC
:1009D00098472B6801332B60002F95D02AF018FC24
:1009E000B5E72AF0B9FED9F80030C01A80B2DBE7CB
:1009F0000127EEE7AA680132AA60002BA7D1ACE775
:100A0000334601266A6801326A60002BE6D1A4E70A
:100A1000012293E76FB1FB1E012B1ED9042F4FF06B
:100A200000034FF0010629D022D9EA690132EA61B8
:100A300089E73A46D4F8980004F1D80304F1780124
:100A400002F0A0F928B14046D4F8AC30D4F89810A0
:100A500098472B6901332B61C0E7D4F8AC300021F3
:100A600040469847042F4FF001034FF0000605D091
:100A7000032FDAD1AA690132AA61BEE76A6901329D
:100A80006A61C2E72AF068FED9F80030C01A80B265
:100A900044E7012796E7042F4FF001037FF44AAFA4
:100AA000B0E700BFF80500217406002150030021C3
:100AB0002DE9F84381462AF04FFE364E306028F08B
:100AC000E7F8856A0746D5F8B83083B195F8C020B5
:100AD000012A0CD14946D5F8B0009847012804D125
:100AE0000023C5F8B03085F8C030BDE8F8832A4B44
:100AF0002A4C93F8788008F10102B8F1010F83F8CD
:100B000078202CD1B9F1000F3FD13846D5F8A83064
:100B1000D5F89410984790B1B4F820802AF01CFEC4
:100B20003368C01A804524D9238C2384FFF7FBFD4A
:100B30002721D5F898002AF061FB4FF00008E36800
:100B40000133E360B8F1000F09D02AF061FB3846A9
:100B500005F19001FFF750FE08B128F0AFF8E58CE1
:100B60002AF0FAFD3368C01A854208D9E08CE08487
:100B7000BBE72AF0F1FD3368C31A9BB2D5E72AF030
:100B8000EBFD3368C01A80B2F1E7E3690133E3613A
:100B9000E3E700BFF805002174060021500300219F
:100BA00008B50220054A064902F024F8BDE80840CD
:100BB0002822002103482EF0B6BD00BF85060001A3
:100BC0003D0700015003002130B50446044D0FCD10
:100BD0000FC40FCD0FC495E8030084E8030030BDB7
:100BE000500300211FB5002301A8CDE90133039371
:100BF0002AF08EFA05B05DF804FB1FB501238DF8CD
:100C00000430002301A8CDE902332AF081FA05B0AF
:100C10005DF804FB70B50546866A08462AF004FABA
:100C2000124C134B04F18000C4F88030114BC4F80F
:100C30008430D6F8AC30C4F88C30AB68C4F8883057
:100C4000AB602AF05DFA002384F87830D6F8903053
:100C500043B1FFF7D2FFBDE8704040F201110648F2
:100C60002AF0A6BAFFF7BEFFF5E700BF7406002121
:100C7000950F0001591300017803002170B5054656
:100C8000866A08462AF0D0F90D4C0E4B04F180001C
:100C9000C4F88430D6F89830C4F88C30AB68C4F807
:100CA0008830AB602AF02CFA002384F87830FFF704
:100CB00099FFBDE8704040F2011103482AF078BA6C
:100CC00074060021CD0C0001B00400212DE9F74F7E
:100CD0000E469DF830109A460192009105462AF082
:100CE0003BFDDFF83082DFF83092C8F8000027F0D3
:100CF000CFFFDDE9001299F878300746D0F828B028
:100D0000864C83B1032B00F08680258C2AF024FDCD
:100D1000D8F80030C01A854240F2EE80208C208442
:100D200003B0BDE8F08FDDB1EA1E012A40F2EB808E
:100D3000042D64D06DD81A460123032D59D01946CD
:100D40001346A2690132A2611A460B46002A5DD001
:100D500015F0FB0F01D12AF05BFA27F0AFFFD4E7C3
:100D600003238BF89D600126CBE9282A89F8783087
:100D70002A468BF89E10DBF8903069498BF8A86002
:100D80009847054678B358462AF04EF9554409F17C
:100D90008000C9F888502AF0B3F9A58B2AF0DCFC52
:100DA000D8F80030C01A854216D9A08BA083FFF76F
:100DB00019FF40F201115A482AF0FAF93846DBF8D7
:100DC000943058499847B0FA80F676092368013381
:100DD0002360002E99D0BEE72AF0BEFCD8F8003080
:100DE000C01A80B2E2E73846DBF894304C499847A5
:100DF000ECE7A1680131A160002AAED106E01A46F5
:100E00000123616801316160002AA4D1002BA4D1C3
:100E10007BE7012195E7DBF89030ADB1EA1E012AAE
:100E200052D92A4600219847DBF8943000213846F1
:100E30009847042D4FF000024FF0010358D051D9CC
:100E4000A1690131A16181E72A468BF8A8508BF88E
:100E50009E108BF89D6032499847054668B3584606
:100E60002AF0E2F8554409F18000C9F888502AF0C8
:100E700047F9A58B2AF070FCD8F80030C01A8542DB
:100E800014D9A08BA083FFF7ADFE40F201112448D6
:100E90002AF08EF93846DBF8943022499847B0FAA8
:100EA00080F67609E3680133E36092E72AF054FCA8
:100EB000D8F80030C01A80B2E4E73846DBF8943046
:100EC000174998470126EDE72A4600219847DBF8A5
:100ED0009430002138469847042D4FF001024FF01E
:100EE000000305D0032DABD161690131616183E756
:100EF00021690131216187E72AF02EFCD8F8003002
:100F0000C01A80B20BE7042D4FF001027FF415AF39
:100F100077E700BFF805002174060021B405002121
:100F2000B00400217803002170B5164B93F8785077
:100F30006A1C012D83F8782015D1134CE1B9A68DD8
:100F40002AF00AFC114D2B68C01A86420ED9A08DDA
:100F5000A085FFF747FE40F201110D482AF04EF937
:100F6000E3680133E3600025284670BD2AF0F4FBF6
:100F70002B68C01A80B2EBE7A36A0133A36227F0A3
:100F80009DFEF1E7740600217C040021F805002194
:100F90007803002170B504462AF0DEFB0B4D286073
:100FA00027F076FE21460A4CFFF7BEFF668E2AF038
:100FB000D3FB2B68C01A864202D9608E608670BD52
:100FC0002AF0CAFB2B68C01A80B2F7E7F8050021A7
:100FD0007C0400212DE9F74FDFF87C920E4699F84A
:100FE00078408046022CDDF830A09DF83410856AE8
:100FF00000F0C480032C00F03981002C40F09E8169
:10100000964F06B3F31E012B40F29A81042E00F096
:10101000AA8000F2B18023460124032E00F09680BE
:1010200022461C46BB6A0133BB6223461446002B92
:1010300000F0928016F0FB0F01D12AF0E9F827F0BA
:101040003DFE01248BE0C5E92D3A85F8B210D5F8B4
:101050009430834985F8B12098470446002862D02F
:10106000D5F89030002B5ED00123B7F82EB089F868
:1010700078302AF071FB7B4E3368C01A83454CD917
:10108000FB8DFB8595F8A830ADF80030D5F8903091
:101090000193FFF7B2FD012168462AF06BF8D5F8FD
:1010A000983013B140466E499847002C4CD1D5F882
:1010B000A030002B40D0404669499847044600289C
:1010C0003AD0032389F878302AF0A2F8284629F08C
:1010D000ABFF54446448C9F888402AF011F8BE8D2B
:1010E0002AF03AFB5F4C2368C01A86421ED9B88D9D
:1010F000B885FFF777FD40F2011159482AF058F8FA
:101100004046D5F8A43056499847B0FA80F46409AF
:101110003B6801333B6014B38FE72AF01DFB336853
:10112000C31A9BB2ADE72AF073F8B8E72AF014FBB4
:101130002368C01A80B2DBE7D5F8A43013B140466B
:10114000474998470124E3E70024E1E7BA68013200
:10115000BA60002B7FF473AF002C7FF470AF204691
:1011600003B0BDE8F08F234601247A6801327A602B
:10117000002B7FF462AFEFE7012253E70324374FE0
:1011800089F878406EB1F31E012B51D9042E4FF02F
:1011900000034FF001045BD054D9BA6A0132BA623D
:1011A00045E7C5E92D3A85F8B210D5F89C302C49B1
:1011B00085F8B1209847D5F8A0308BB34046284930
:1011C0009847044660B3284629F02EFF544409F19D
:1011D0008000C9F8884029F093FFBE8D2AF0BCFA40
:1011E000204C2368C01A864214D9B88DB885FFF701
:1011F000F9FC40F201111A4829F0DAFF4046D5F80F
:10120000A43017499847B0FA80F464093B69013368
:101210003B6180E72AF0A0FA2368C01A80B2E5E7B4
:10122000D5F8A43013B140460D4998470124EDE7A5
:10123000D5F89C3000219847042E4FF001034FF061
:10124000000405D0032EA8D1BA690132BA6180E743
:101250007A6901327A618BE7740600217C040021EF
:1012600078030021F8050021F4060021D5F8A0300C
:10127000364FC6B1F21E012A4ED900219847D5F843
:10128000A43013B1002140469847042E4FF00003CC
:101290004FF001044ED080D8032E7FF47EAF7A6ADF
:1012A00001327A6255E72A499847044660B32846D6
:1012B00029F0BAFE544409F18000C9F8884029F0A9
:1012C0001FFFBE8D2AF048FA224C2368C01A8642BE
:1012D00014D9B88DB885FFF785FC40F201111C4880
:1012E00029F066FF4046D5F8A43019499847B0FA6E
:1012F00080F46409FB690133FB610CE72AF02CFAE6
:101300002368C01A80B2E5E7D5F8A43013B140468F
:101310000F4998470124EDE700219847D5F8A430FC
:1013200013B1002140469847042E4FF001034FF0BF
:101330000004B1D13A6A01323A6219E700240EE79B
:10134000042E4FF001037FF468AE0EE77C04002109
:1013500078030021F80500212DE9F3410E461746D8
:10136000984604462AF0F8F90F4D286027F090FCC3
:101370009DF8203021460D4C3246CDE900833B4696
:10138000FFF728FE268E2AF0E7F92B68C01A86425E
:1013900004D9208E208602B0BDE8F0812AF0DCF965
:1013A0002B68C01A80B2F5E7F80500217C04002103
:1013B00008B500220620054901F01CFCBDE80840E4
:1013C0003422002102482EF0AEB900BF150C0001F6
:1013D0007C04002130B50446044D0FCD0FC40FCD61
:1013E0000FC40FCD0FC42B68236030BD7C040021D7
:1013F00008B500220920054901F0FCFBBDE80840C2
:101400002422002102482EF08EB900BF7D0C00017D
:10141000B405002130B50446034D0FCD0FC40FCDE8
:101420000FC42B68236030BDB405002170B504469D
:10143000866A084629F0F8FD0F4DD6F8AC3005F164
:101440008000C5F88C30A368C5F88830A36029F007
:1014500057FE002385F87830D6F8903043B1FFF777
:10146000CCFBBDE8704040F20111044829F0A0BE59
:10147000FFF7B8FBF5E700BF7406002178030021F1
:1014800029F0C8BE1FB5002301A8CDE9013303939D
:1014900029F03EFE05B05DF804FB00002DE9F04F99
:1014A00085B080460E469346994627F001FC0746D4
:1014B00068B93E4CD8F828A094F87A3094F879505E
:1014C000032B06D118B184F87A3084F879500127BB
:1014D00054E0022D92BF2A46033DEAB202F12501F3
:1014E0008AF80110F17E551C41FA02F20133D2074D
:1014F0004FF00100DBB2EDB2E2D584F87A3084F827
:101500007950B9F1000F04D11BF0FB0F01D129F084
:101510007FFE504629F088FDB9F1000F04D0D8F8BD
:101520000830C4F8883009E073685BB32AF014F916
:10153000054627F0DFFB2844C4F88800002384F820
:101540007830F3681BB14046D4F8881098471848A3
:1015500029F0D6FD736833B301238DF804300023DE
:1015600001A8CDE9023329F0D3FD337E0121ADF886
:101570000430336801A8029329F0D2FD384605B043
:10158000BDE8F08F327E9AF80E109AF80C0026F023
:10159000EAFA054627F0AEFB284426F04BFBD4F8C8
:1015A00088300344BDE7FFF76DFFDEE774060021D6
:1015B000F40600210F4B104A10B5816AC3F8802051
:1015C0000E4A91F8AA40C3F884200422C3F88C2064
:1015D000002283F8794083F8782083F87A209031CC
:1015E0000123FFF75BFF18B1BDE8104027F056BBA1
:1015F00010BD00BF74060021411700010116000153
:101600002DE9F347994605462AF0A6F8DFF824812C
:10161000494CC8F8000027F03BFB484A866A92F81C
:1016200078300746591C012B82F8781068D106F1F2
:10163000900A002D4BD1C6F8AC902A46D6F89400FB
:1016400006F1B00306F1780101F09CFB814668B316
:101650003846D6F8A030D6F89410984730B3B4F88E
:101660001A902AF079F8D8F80030C01A814516D9B6
:10167000608B6083FFF706FF96F8A9300121ADF873
:101680000030D6F898306846019329F073FDD6F8FB
:10169000A430ABB13846D6F89410984710E02AF041
:1016A0005BF8D8F80030C01A80B2E2E70023514658
:1016B0001A463846FFF7F2FE0546B9F1000FE6D1AB
:1016C000636801336360DDB129F0A2FD10E00023FF
:1016D0002A465146FFF7E2FE042D1ED001D8032D05
:1016E00009D063690133636150B115F0FB0FEBD092
:1016F00027F0E4FA04E0E3680133E3600028F7D15F
:10170000A58B2AF029F8D8F80030C01A85420AD9EA
:10171000A08BA08302B0BDE8F087A3680133A3606B
:101720000028D1D1ECE72AF017F8D8F80030C01A19
:1017300080B2EEE7F8050021D805002174060021EB
:101740002DE9FF4107462AF007F8314E314C306051
:1017500027F09EFA2FB163690133636127F0AEFA77
:101760000CE02D4BD0F8288093F8785008F19001C8
:101770006A1C83F878206DB1022D39D0E58B29F0F1
:10178000EBFF3368C01A85423BD9E08BE08304B09D
:10179000BDE8F081D8F8943023B3278B29F0DCFF23
:1017A0003368C01A874217D9208B01238DF8043083
:1017B0000023208301A8CDE9023329F0A9FC2421CC
:1017C000D8F8940029F01AFD236801332360002D16
:1017D000D4D029F01DFDC1E729F0BEFF3368C01A3F
:1017E00080B2E2E72B462A46FFF758FE0546EBE7B4
:1017F0003B463A46FFF752FE236905460133236113
:10180000E5E729F0A9FF3368C01A80B2BEE700BF40
:10181000F8050021D80500217406002108B5032031
:10182000054A064901F0E6F9BDE8084020220021FA
:1018300003482DF078BF00BF81140001B5150001E9
:10184000D805002130B50446034D0FCD0FC495E8EF
:101850000F0084E80F0030BDD80500211FB500231C
:1018600001A8CDE90133039329F052FC05B05DF8DE
:1018700004FB00002DE9F0479A46054629F06CFF6D
:10188000354F364C386027F003FA354B866A93F8AB
:101890007890804609F10102B9F1010F83F87820B0
:1018A00045D185BB9DF82030D6F8A01086F8D13000
:1018B000C6F8D4A0D6F8C430984788B3B4F81E90C0
:1018C00029F04AFF3B68C01A814516D9E38BE383B0
:1018D000FFF7C4FF022106F1A40029F04BFCD6F863
:1018E000C8301BB14046D6F8A01098476368013352
:1018F0006360E5B129F08CFC17E029F02DFF3B680F
:10190000C31A9BB2E3E7042D1CD001D8032D09D0E4
:10191000A36915F0FB0F03F10103A36105D1E9E70A
:101920004D46E3E7E3680133E36027F0C7F9258C10
:1019300029F012FF3B68C01A854207D9208C208409
:10194000BDE8F087A3680133A360D3E729F004FF63
:101950003B68C01A80B2F2E7F8050021FC050021BF
:1019600074060021F8B5CB6B06460C460BB9012076
:10197000F8BD0121984705460028F8D0B06A29F043
:1019800053FB1148114ED0F8883080302B44104D55
:10199000836029F0B5FBAF8B29F0DEFE3368C01AF7
:1019A00087420AD9A88BA883FFF758FF04F12400C7
:1019B000022129F0B5FB0020DAE729F0CDFE3368DB
:1019C000C01A80B2EFE700BF74060021F8050021BD
:1019D000FC0500212DE9FF47054629F0BDFE3F4FDC
:1019E0003F4C386027F054F981462DB1A36901338B
:1019F000A36127F063F91AE0DFF8E880866A98F8B7
:101A0000785006F1900A022D3FD0032D55D075B9BC
:101A1000D6F8A030BBB90323514688F87830FFF7D9
:101A2000A1FF0546236801332360002D53D1658C47
:101A300029F092FE3B68C01A854246D9608C6084CA
:101A400004B0BDE8F087012388F87830B4F81C8032
:101A500029F082FE3B68C01A804510D9A08B012373
:101A60008DF804300023A08301A8CDE9023329F0CA
:101A70004FFB2421D6F8A00029F0C0FBD2E729F0C3
:101A80006BFE3B68C01A80B2E9E7032388F8783020
:101A90000E2296F8D110707BD6F8D45026F063F859
:101AA0009635054451464846C8F88850FFF75AFF16
:101AB0002369054601332361B7E75146FFF752FF1B
:101AC0006369054601336361AFE729F045FE3B6872
:101AD000C01A80B2B3E729F09BFB8AE7F805002122
:101AE000FC05002174060021F0B51F4B1F4C866ACF
:101AF000C4F880301E4B85B0C4F884300423C4F889
:101B00008C3000230F460546A4F8783027F0D0F833
:101B1000014630BBD6F8CC300BB128469847384642
:101B200029F082FAAB6800251248C4F8883084F89E
:101B3000785029F0E5FAD6F8A0307BB1012301A84E
:101B4000CDE902558DF8043029F0E2FA022106F1C0
:101B5000900005B0BDE8F04029F0E2BAFFF77EFE44
:101B6000F4E705B0F0BD00BFD519000174060021EF
:101B700075180001F4060021FFF7B6BF08B5002272
:101B80000720074901F036F800220820054901F036
:101B900031F8BDE808402422002103482DF0C3BDE0
:101BA000E91A0001791B0001FC05002130B504464B
:101BB000034D0FCD0FC40FCD0FC42B68236030BD74
:101BC000FC05002129F026BB2DE9F0410F4698467F
:101BD000054629F0C1FD224C224E94F87830306041
:101BE000013384F8783027F053F80023826AD4F860
:101BF0009410C2F89C8082F8A070C4F89430D2F897
:101C000098302A46984727F053F818B129F000FB7E
:101C100027F054F8032D144C10D0042D12D0ADB978
:101C2000236801332360258B29F096FD3368C01AA1
:101C300085420FD9208B2083BDE8F081A368013352
:101C4000A360F0E7636801336360ECE72369013365
:101C50002361E8E729F080FD3368C01A80B2EAE723
:101C600074060021F80500212006002170B5044605
:101C7000866A084629F0D8F9104D114B05F180000D
:101C8000C5F88430A368C5F88830D6F89030C5F818
:101C90008C3029F035FA0023204685F87830D6F8C4
:101CA0009430984727F004F830B126F0F1FF18B1CE
:101CB000BDE8704027F002B870BD00BF7406002177
:101CC000C91B000108B50C20054A064900F092FF27
:101CD000BDE808401C22002103482DF024BD00BFB0
:101CE000C51B00016D1C0001200600212DE9FF41EC
:101CF0001A4E0D46A6F890100221C6F8940004462C
:101D000001A8CDE902239DF828708DF8041029F070
:101D1000FFF996F8783003B137B12946204604B070
:101D2000BDE8F04129F044BA0D4E0E4FB6F81480CC
:101D300029F012FD3B68C01A804508D9B38A2946AC
:101D40002046B38204B0BDE8F04129F057BA29F02B
:101D500003FD3B68C31A9BB2F1E700BF7406002184
:101D600020060021F805002170B50C460546074EF7
:101D700029F04EFA2046C6F8885029F055F906F1A8
:101D80008000BDE8704029F0BBB900BF7406002197
:101D900029F040BA70B5044629F0DEFC144A154D0E
:101DA00092F878302860013382F8783026F070FF9E
:101DB000836A2146104CD3F894309847E368013386
:101DC000E36026F075FF18B129F022FA26F076FFBD
:101DD000668B29F0C1FC2B68C01A864202D9608B41
:101DE000608370BD29F0B8FC2B68C01A80B2F7E799
:101DF00074060021F80500212006002170B5044674
:101E0000866A084629F010F90E4D0F4B05F1800047
:101E1000C5F88030A368C5F88830A36029F070F950
:101E20000023204685F87830D6F89030984726F081
:101E30003FFF30B126F02CFF18B1BDE8704026F00E
:101E40003DBF70BD74060021951D000108B50D2031
:101E5000054A064900F0CEFEBDE808401C220021DC
:101E600003482DF060BC00BF911D0001FD1D000165
:101E7000200600212DE9FF4104460D4693B10221C1
:101E800002928DF8041001A8039329F041F9134B35
:101E900093F878304BB92946204604B0BDE8F041AC
:101EA00029F03EB9CDE90133EDE70D4E0D4FB6F8FF
:101EB000168029F051FC3B68C01A804508D9F38A86
:101EC00029462046F38204B0BDE8F04129F052B91A
:101ED00029F042FC3B68C31A9BB2F1E7740600216B
:101EE00020060021F805002130B50446034D0FCD32
:101EF0000FC495E8070084E8070030BD20060021E4
:101F00001FB501238DF80430002301A8CDE9023369
:101F100029F0FEF805B05DF804FB00002DE9F04162
:101F200004460D4626F0B4FE836A1B780A2B0BD1BB
:101F3000124B93F878303BB9FFF7E2FF2946204671
:101F4000BDE8F04129F0ECB80D4E0E4FB6F8168002
:101F500029F002FC3B68C01A804509D9F38AF38254
:101F6000FFF7CEFF29462046BDE8F04129F002B92F
:101F700029F0F2FB3B68C31A9BB2F0E7740600211C
:101F80003C060021F805002170B50C4E04460D46B4
:101F9000C6F89400A6F8901026F07AFE836A1B78A3
:101FA0000B2B0AD196F878303BB9FFF7A9FF2946E9
:101FB0002046BDE8704029F0FBB870BD74060021D2
:101FC00030B50446034D0FCD0FC495E8070084E8F3
:101FD000070030BD3C06002170B50D46044629F0CF
:101FE00019F9094BD3F8941039B100222046C3F8EF
:101FF00094200222D5F8AC3098472046D5F8A4307A
:10200000BDE87040184700BF740600212DE9F0417B
:1020100004460D46876A26F04BFE0646E8B9284678
:1020200029F002F80E4D0F4B05F18000C5F8803005
:102030000D4BC5F88430A368C5F88830A36004232D
:10204000C5F88C3029F05CF8D7F8983085F87860BE
:102050001BB12046BDE8F0411847BDE8F08100BF44
:10206000740600216D200001412100012DE9F0439B
:1020700085B0054629F070FB2E4F2F4E386026F0B4
:1020800007FED0F828902946D9F8A830804698470E
:10209000D6F89410294C00293AD055BBA58A29F0CE
:1020A0005BFB3B68C01A85421DD9A08A0023A08231
:1020B00001A8CDE90133039329F02AF8B6F890106E
:1020C000D6F8940029F09AF8E3680133E360658B51
:1020D00029F042FB3B68C01A854213D9608B6083AC
:1020E00005B0BDE8F08329F037FB3B68C01A80B229
:1020F000DCE700230222C6F894304046D9F8AC3021
:10210000984708E029F028FB3B68C01A80B2E6E750
:102110000DB929F07DF896F8783023B926F0CEFD78
:10212000012386F87830002DCED023690133236156
:10213000CDE700BFF8050021740600213C06002110
:102140002DE9F3470F46054629F006FBDFF8148119
:10215000C8F8000026F09CFD0023866A9DF8282020
:1021600086F8B070404F8DF80730D7F8941086F895
:10217000B120C7F894302A46D6F8AC3004469847C8
:1021800026F096FD8146002837D04FF0010926F051
:102190008FFD40EA0900C0B280B1062D06D80123A8
:1021A000AB4013F0510F01D029F032F897F8783096
:1021B00023B926F083FD012387F878309DF8073096
:1021C00023B929462046D6F8A0309847032D274C3E
:1021D00035D0042D37D0002D39D123680133236049
:1021E000258B29F0B9FAD8F80030C01A854232D9C7
:1021F000208B208302B0BDE8F0872046D6F89030CF
:102200000DF10701984782460028BED029F000F85A
:10221000D6F894300DF1070120469847A06A28F0BF
:1022200003FFD7F888005044C7F8880007F1800002
:1022300028F066FF2046D6F89C309847A7E7A368A9
:102240000133A360CCE7636801336360C8E72369A7
:1022500001332361C4E729F07FFAD8F80030C01AAF
:1022600080B2C6E7F8050021740600213C06002173
:1022700008B50A20054A064900F0BCFCBDE8084044
:102280001C22002103482DF04EBA00BFD91F0001C7
:102290000D2000013C06002170B50D46044628F0D3
:1022A000B9FF094BD3F8941039B100222046C3F886
:1022B00094200222D5F8AC3098472046D5F8A430B7
:1022C000BDE87040184700BF7406002101232DE9C6
:1022D000F041876A054687F8B03083680846C7F83A
:1022E000B8300F4C0E4628F09FFE0E4B04F18000D4
:1022F000C4F880300C4BC4F88430D7F8B830C4F838
:102300008830D7F8C030C4F88C3028F0F9FE0023AC
:10231000284684F87830D6F89830BDE8F041184760
:1023200074060021AD2400018D2300012DE9F04148
:1023300006460C46904626F0BBFC074618B101271E
:102340003846BDE8F0814146304623689847054647
:102350000028F4D028F05CFF414663683046984777
:10236000B06A28F061FEA36A07482B44A362B360F9
:10237000C0F88830236B8030C36028F0C1FE30463F
:10238000E3689847DCE700BF740600212DE9F043BD
:1023900085B00F469846044629F0DEF9404E30607D
:1023A00026F076FC856A9DF8303085F8BC7014F014
:1023B000FB07814685F8BD3007D1C5F8B88001A874
:1023C000CDE90177039728F0A3FE95F8B030012BF3
:1023D00006D12FB9D5F8B83085F8B070C5F8B4304B
:1023E0004FF000082F4FD5F8AC30D7F894102246A4
:1023F0004846C7F89480984704F0FD03012B8DF8F8
:1024000004800ED1484601AA05F19001FFF78EFF26
:102410009DF80430804623B921464846D5F8A030BF
:10242000984726F045FC40EA0800C0B280B1062C6F
:1024300006D80123A34013F0510F01D028F0E8FE85
:1024400097F8783023B926F039FC012387F87830E3
:10245000032C154D11D0042C13D0B4B92B680133C3
:102460002B602C8B29F078F93368C01A844210D97C
:10247000288B288305B0BDE8F083AB680133AB60DF
:10248000EFE76B6801336B60EBE72B6901332B617E
:10249000E7E729F061F93368C01A80B2E9E700BFC5
:1024A000F8050021740600213C0600212DE9F743C0
:1024B000054629F051F9374F4FF00009386026F0F2
:1024C000E7FB0446866A2946D6F8A8309847204696
:1024D0000DF1070206F190018DF80790FFF726FF36
:1024E000804655BB26F0E4FB40EA0800C0B258B174
:1024F00028F08EFE284B93F878302BB926F0DEFBBF
:102500000122254B83F878209DF8073023B929460E
:102510002046D6F8A0309847204C8DBBE3680133A5
:10252000E360658B29F018F93B68C01A85422BD906
:10253000608B608303B0BDE8F083012D12D10028C9
:10254000E2D0DFF85480D8F8941031B1022220464E
:10255000D6F8AC30C8F89490984728F059FE98F80F
:102560007830CAE7DFF83080D8F894100029F6D028
:1025700002222046D6F8AC30C8F894909847EEE78F
:10258000236901332361CCE729F0E6F83B68C01AE0
:1025900080B2CEE7F8050021740600213C06002138
:1025A00008B50B20054A064900F024FBBDE80840A9
:1025B0001C22002103482DF0B6B800BF992200016B
:1025C000CD2200013C0600211FB501238DF8043007
:1025D000002301A8CDE9023328F09AFD05B05DF88B
:1025E00004FB00002DE9F04104460D4626F050FBA7
:1025F000836A1B78042B0BD1124B93F878303BB9CC
:10260000FFF7E2FF29462046BDE8F04128F088BDEB
:102610000D4E0E4FB6F8168029F09EF83B68C01A92
:10262000804509D9F38AF382FFF7CEFF2946204679
:10263000BDE8F04128F09EBD29F08EF83B68C31A32
:102640009BB2F0E77406002158060021F80500212E
:1026500070B50C4E04460D46C6F89400A6F89010CE
:1026600026F016FB836A1B78052B0AD196F8783082
:102670003BB9FFF7A9FF29462046BDE8704028F086
:1026800097BD70BD7406002130B50446034D0FCDD3
:102690000FC495E8070084E8070030BD5806002104
:1026A00070B50D46044628F0B5FD094BD3F89410DB
:1026B00039B100222046C3F894200222D5F89C307C
:1026C00098472046D5F89430BDE87040184700BFC1
:1026D0007406002170B5054608460F4C0E4628F0DA
:1026E000A3FC0E4B04F18000C4F880300C4BC4F8FE
:1026F0008430AB68C4F88830AB600423C4F88C30F5
:1027000028F0FEFC0023284684F87830D6F8903074
:10271000BDE87040184700BF74060021D9270001AA
:102720002527000170B50C46054629F015F8274EFF
:10273000306026F0ADFA9DF81030826A82F8A13040
:10274000234B82F8A04093F8781011B9012183F847
:1027500078100024D3F89410C3F89440D2F89C3039
:102760002A46984726F0A4FA50B1062D06D8012330
:10277000AB4013F0510F01D028F04AFD26F09EFA2D
:10278000032D144C0FD0042D11D0A5B923680133AB
:102790002360258B28F0E0FF3368C01A85420ED9EC
:1027A000208B208370BDA3680133A360F1E76368C9
:1027B00001336360EDE7236901332361E9E728F022
:1027C000CBFF3368C01A80B2EBE700BFF8050021E9
:1027D00074060021580600212DE9F04385B0054616
:1027E00028F0BAFF2C4EDFF8B480306026F050FAA3
:1027F000D0F828902946D9F8983007469847D8F855
:102800009410274C00293CD065BBA58A28F0A4FF72
:102810003368C01A85421FD9A08A01238DF804307D
:102820000023A08201A8CDE9023328F071FCB8F89A
:102830009010D8F8940028F0E1FCE3680133E360DD
:10284000658B28F089FF3368C01A854213D9608BE5
:10285000608305B0BDE8F08328F07EFF3368C01ABE
:1028600080B2DAE700230222C8F894303846D9F85B
:102870009C30984708E028F06FFF3368C01A80B298
:10288000E6E70DB928F0C4FC26F018FA002DD4D0E4
:10289000236901332361D3E7F80500217406002181
:1028A0005806002108B50420054A064900F0A2F99F
:1028B000BDE808401C22002103482CF034BF00BFB3
:1028C000A1260001D52600015806002170B50D464D
:1028D000044628F09FFC094BD3F8941039B100222C
:1028E0002046C3F894200222D5F8A030984720460D
:1028F000D5F89830BDE87040184700BF7406002135
:102900002DE9F0410446876A08460F4D0E4628F02F
:102910008BFB0E4B05F18000C5F880300C4BC5F8E1
:102920008430A368C5F88830A360D7F89030C5F824
:102930008C3028F0E5FB0023204685F87830D6F867
:102940009430BDE8F0411847740600210D2A0001BB
:1029500055290001F8B50C461F46054628F0FCFE37
:10296000274E306026F094F9826A9DF8183082F87C
:10297000A840244C82F8A93094F8783023B9012378
:10298000C2F8A47084F878300023D4F89410C4F806
:102990009430D2F8A0302A46984726F089F950B1F1
:1029A000062D06D80123AB4013F0510F01D028F0BB
:1029B0002FFC26F083F9032D134C0FD0042D11D0DA
:1029C000A5B9236801332360258B28F0C5FE336841
:1029D000C01A85420ED9208B2083F8BDA36801332D
:1029E000A360F1E7636801336360EDE723690133B6
:1029F0002361E9E728F0B0FE3368C01A80B2EBE744
:102A0000F805002174060021580600212DE9F04345
:102A100085B0804628F0A0FE2D4D2E4E286026F071
:102A200037F9D0F828904146D9F89C3007462A4C0F
:102A30009847B8F1000F29D1D6F894300BB3A78A84
:102A400028F08AFE2B68C01A874214D9A08A012375
:102A50008DF804300023A08201A8CDE9023328F0CC
:102A600057FBB6F89010D6F8940028F0C7FBE3683F
:102A70000133E3601AE028F06FFE2B68C01A80B2C1
:102A8000E5E728F0C5FB26F019F9F0E7D6F8941031
:102A900039B100230222C6F894303846D9F8A03064
:102AA000984726F00BF9236901332361668B28F0E0
:102AB00053FE2B68C01A864204D9608B608305B030
:102AC000BDE8F08328F048FE2B68C01A80B2F5E715
:102AD000F8050021740600215806002108B50520DC
:102AE000054A064900F086F8BDE808401C2200218E
:102AF00003482CF018BE00BFCD28000101290001B9
:102B000058060021816A034B0A7853F8323003B12A
:102B10001847704774060021816A044B0A7803EB5A
:102B2000C2035B6803B11847704700BF74060021F9
:102B300028F07ABB28F076BA08B528F073FABDE819
:102B40000840002028F06ABB08B528F05DFA002094
:102B500028F062FBBDE80840012028F05FBB08B503
:102B600028F052FABDE80840002028F055BB08B50F
:102B700028F04AFABDE80840012028F04DBB0000CB
:102B800073B5134C134D144E28F03CFA22462946D7
:102B90000120124B009626F0B7F822462946022063
:102BA0000F4B009626F0B0F80E4B22460093002102
:102BB0000D4B032026F0A8F801200C4926F0B2F8AE
:102BC000982200210A4802B0BDE870402CF0ABBD4D
:102BD000192B0001052B0001352B00016F2B000183
:102BE0005F2B0001392B0001492B0001312B000123
:102BF00074060021034B43F8301003EBC0035A6006
:102C0000704700BF74060021F0B504468C46D3E936
:102C1000000116461D46177885B0002C36D0CFB17E
:102C20004FEA112E0EF0C00EBEF1400F12D1BCF1D2
:102C3000000F04D000F00AFD204605B0F0BD00F002
:102C40007BFC044608B10124F6E71F4AD38B01330D
:102C5000D383F1E702460B46384600F07BFD02388D
:102C6000C0B20128EFD80DF10F0300933078D5E9F9
:102C7000002300F013FC18B19DF80F30002BDBD1BE
:102C8000114A0224138B01331383D5E727B10B0AB2
:102C900003F0C003402BD6D002460B46384600F066
:102CA00059FD02380128CED80DF10F03009330787A
:102CB000D5E9002300F0F2FB0028E1D09DF80F30A9
:102CC000002BC0D1DCE700BF0C0700212DE9F0414B
:102CD000884617461E46044658B152EA06030E4D72
:102CE0000AD100F04FFF012806D10446EB880133DA
:102CF000EB802046BDE8F0813A463346404600F07E
:102D0000BFFE20B9AB8802240133AB80F1E7EB882A
:102D10000133EB80EDE700BF0C07002137B5DDE99B
:102D2000065410B9002003B030BDCAB1230A03F025
:102D3000C003402B14D129B1284621460AAB08AA6A
:102D400000F0D8FCDDE90A232846CDE9002321461E
:102D50009DF8202000F02EFC003818BF0120E2E78B
:102D60009DF82000DDE90A2300F005FD0238C0B21D
:102D70000128D7D8024A0220538B01335383D2E76C
:102D80000C0700212DE9F04F90F800800D8808F025
:102D90000F0845FA08F515F0010581460F469246E1
:102DA0001C466E4E87B006D13388013333802846E7
:102DB00007B0BDE8F08F4FF4C07B72884BFA08FB78
:102DC00001321BF0010B4378728001D00125EEE740
:102DD00003F03F03637484F8108010F8025B26F060
:102DE0003FFCC5F38015E574A574C4E90201C4E98C
:102DF00000017868514604F1080304F11302C0F39E
:102E00008010FFF701FF0128054602D0022839D0C3
:102E10005D46D4E90223D7F804C094F813E01CF00F
:102E2000040B0ED0D7E90410834208BF8A4203D1B5
:102E3000CCF3C00CE64527D04FF0020B30890130AF
:102E400030817888714640FA08F000F00100FFF701
:102E50003DFF584523D2D7F804C01CF0040F1CD006
:102E6000D7E90413A068E2689A4208BF884204D1F7
:102E7000E37CCCF3C00C63450CD033890133338140
:102E8000012D1AD1002592E770894FF0010B013016
:102E90007081D6E773890133738101250DE078884D
:102EA000E17C40FA08F000F00100D4E90223FFF7CA
:102EB0000DFF0128F1D90228E2D04FF0010BB8F143
:102EC000050F257584F815B080D80BFA08F818F0AE
:102ED0002A0F3FF47BAF484610F8085B26F0C0FB92
:102EE000D4E902238146CDE904237868E37CED0927
:102EF000CDE9009188462A4651460293C0F300105E
:102F0000FFF70CFF01283FF461AF0228BAD07B68BD
:102F1000DA077FF55BAFD7E90212424508BF4945A2
:102F200003D1C3F34002AA4213D0B2890132B28165
:102F3000002DA7D04FEA182808F0C008B8F14008C3
:102F4000A0D19B069ED5338C0133338484F8158041
:102F50002DE7F3890133F38138E700BF0C07002127
:102F60002DE9F04F07461C4608883B7C0E46184169
:102F700010F001009046624D87B005D12B880133D7
:102F80002B8007B0BDE8F08F6B8801336B80D7E9E9
:102F90000023C4E90223C4E90023BB7C04F113022B
:102FA000E374A374486804F108034146C0F3801039
:102FB000FFF72AFE0128814603D002283DD04FF0BA
:102FC0000009D4E90223D6F804C094F813E01CF0F9
:102FD000040A0ED0D6E90410834208BF8A4203D106
:102FE000CCF3C00086452AD04FF0020A2889013070
:102FF0002881708897F810C0714640FA0CF000F0F4
:103000000100FFF763FE504525D2D6F804C01CF03E
:10301000040F1DD0D6E90413A068E2689A4208BFE5
:10302000884204D1E37CCCF3C00C63450DD02B89DE
:1030300001332B81B9F1010F1BD10020A1E7688971
:103040004FF0010A01306881D3E76B8901336B814E
:103050004FF001090DE03B7C7088E17C184100F0E5
:103060000100D4E90223FFF731FE0128F0D902283C
:10307000E0D04FF0010A84F8149084F815A07B7C0E
:10308000990701D401207CE797F81390D4E9022333
:10309000D7E902B77068CDE90423E37C4A4641468C
:1030A000CDE900B70293C0F30010FFF737FE012807
:1030B0003FF467AF0228C0D07368DA07E2D5D6E9DB
:1030C0000212BA4208BF594503D1C3F340024A4530
:1030D00011D0AA890132AA81B9F1000FADD03F0AFF
:1030E00007F0C007403FA8D19B06A6D52B8C013323
:1030F0002B846775C6E7EB890133EB81C2E700BF1C
:103100000C070021054B03F1240253F8041B9342E2
:1031100040F8041BF9D11B88038070470C0700217D
:10312000002330B50A4C0B4D23700B4C23708B07DA
:103130000EBF0B4621F0030304332B6003EB001397
:103140005B1A934296BF2070002098B230BD00BF3A
:10315000320700213407002133070021F0B5002495
:103160000D499DF814C00D780C490968A54201D895
:103170000020F0BD0E7A864208D1D1E900769E4249
:1031800008BF974202D14E7A664502D00134103111
:10319000ECE70120EDE700BF3207002134070021F2
:1031A000014B1878704700BF330700210022014B04
:1031B0001A7070473207002130B50B490B4D097862
:1031C0002C78A1420DD90A49096801EB0411087253
:1031D0000120C1E900239DF80C3001344B722C70A2
:1031E00030BD0020FCE700BF33070021320700217B
:1031F000340700212DE9F0411B4C84462768002547
:103200003C46DFF868E09DF818809EF80010EEB2AA
:10321000B14201D8002021E0267A664520D1D4E9C8
:1032200000069E4208BF90421AD1667A464517D1E1
:10323000012901F1FF300ED985420CD001F18051F6
:10324000013907EB01110B7A2372D1E90023C4E99C
:1032500000234B7A63728EF800000120BDE8F081F4
:1032600001351034D3E700BF3407002132070021B5
:10327000F0B50C4943EA00430D780B490C68002176
:10328000C8B2854201D800200AE02046D0E908767D
:103290009E4208BF974201F1010104F14804EFD1B9
:1032A000F0BD00BF3C0700214007002130B585B0CC
:1032B0000C4605461022002168462CF034FA6A4676
:1032C000230A28468DF800401146240C8DF8013061
:1032D0008DF8024028F0A4F89DF802309DF8010016
:1032E0001B0443EA00239DF80000184305B030BDDD
:1032F00013B5042104460DEB010028F04DF90199A6
:103300002046C1F3150141F480010191FFF7CEFF82
:10331000019940EA0160090A02B010BD002330B5EE
:103320000A4C0B4D23700B4C23708B070EBF0B46C2
:1033300021F0030304332B60482505FB00335B1A9F
:10334000934296BF2070002098B230BD3C07002108
:10335000400700213D070021014B1860704700BF66
:1033600038070021014B1878704700BF3D07002146
:103370000022014B1A7070473C070021F8B5074640
:103380001D46FFF775FF1646044680B92E4A2F49A1
:1033900013780978994201D80020F8BD48202C49BB
:1033A0000C6800FB034401331370002CF4D0224658
:1033B00045EA0745069BC4E9086503F1100153F887
:1033C000040B8B4242F8040BF9D1012304F10F02E4
:1033D00084F84030631E13F8011F71B3002384F892
:1033E000403004F110000246079B03F1100153F82E
:1033F000045B8B4242F8045BF9D1012384F841302D
:10340000034604F1200213F8011BC9B1002384F81C
:10341000413000230022C4E90A23C4E90C23C4E993
:103420000E230023A4F8423094F841301BB9FFF773
:103430005FFFC4E90C010120AFE79A42CBD1D0E78E
:103440009A42E0D1E5E700BF3C0700213D0700219B
:103450004007002138B5FFF70BFF78B1084D2C78F5
:10346000012C08D9482202FB04F30649483B0968AD
:1034700019442CF031F90120013C2C7038BD00BFFB
:103480003C0700214007002108B5FFF7F1FE20B1FD
:103490009DF8083080F84330012008BD08B5FFF7DB
:1034A000E7FE20B190F843200120029B1A7008BD6E
:1034B00010B5029CFFF7DCFE40B1D0E90A2352EAC6
:1034C000030116BF01200020C4E9002310BD10B580
:1034D000029CFFF7CDFE40B1D0E90C2352EA030174
:1034E00016BF01200020C4E9002310BD08B5FFF776
:1034F000BFFE28B1029BD3E90023C0E90C230120C1
:1035000008BD10B5FFF7B4FE044698B190F84030FE
:1035100083B990F8423033B9FFF7EAFE0123C4E9DA
:103520000A0184F84230029BD4E90A01C3E9000190
:10353000012010BD0020FCE7F7B50026194C94F8D7
:1035400000C0194C25683446F7B2BC4510D80CB3FE
:10355000164C2468F4B1164E758C01357584D3E988
:103560000067CDE9006713780122A047002411E02D
:1035700095F8407097B9D5E90A748C4208BF874224
:103580000BD10124E98C01F001011170296AAA8C88
:10359000C3E90012204603B0F0BD012401364835CE
:1035A000D2E700BF3C070021400700213807002177
:1035B0000C0700212DE9F347DDE90A6791468046B3
:1035C00032463B4648460D46FFF752FEE8B190F8BA
:1035D0004140D4B9D0E90E23AB4208BF424516D0D2
:1035E0000C4BD3F800A0BAF1000F0AD00A4A4046AB
:1035F000938C2946013393844B462246CDE90067DC
:10360000D047204602B0BDE8F0870024F9E7012446
:10361000F7E700BF380700210C07002138B5054641
:103620001046DDE904230C46FFF722FE50B190F866
:10363000413043B9D0E90E23A34208BFAA420CBFD0
:103640000120002038BD0020FCE700002DE9F74FE5
:103650000E4605461F464FF000084FF0480B010E7E
:1036600041EA0621DFF880A0009221F07F411F4B44
:103670005FFA88F41B78A34205D81D4A0020138AFC
:103680000133138229E0DAF800300BFB043494F89C
:103690004090B9F1000F23D1D4E90A23B34208BF07
:1036A000AA4210D020460191FFF700FE25F07F438B
:1036B0008342019914D10E4AC4E90A56538A84F808
:1036C0004290013353820120E38C009A03F00103FE
:1036D0001370226AA38CC7E9002303B0BDE8F08F02
:1036E00008F10108C3E700BF400700213C070021A3
:1036F0000C07002170B50E461146D3E9002305469C
:103700000878FFF7B5FD0446E0B190F84130CBB939
:10371000D0E90E23B34208BFAA4211D0290E41EAD4
:10372000062121F07F411030FFF7C0FD25F07F43D7
:10373000834207D1064AC4E90E56D38A0133D382A5
:10374000012004E00020024A938A0133938270BD75
:103750000C07002108B5FFF78BFD48B1D0E90A231B
:10376000134306D190F84030002B14BF01200220F3
:1037700008BD0320FCE708B5FFF77AFD48B1D0E9A2
:103780000C23134306D190F84130002B14BF0120C5
:10379000022008BD0320FCE72DE9F04100254FF091
:1037A0004808124E124F3378ECB2A34201D8BDE85C
:1037B000F0813B6808FB043494F841302BB904F1E4
:1037C0001000FFF795FDC4E90C0194F840303BB9B7
:1037D00094F8423023B12046FFF78AFDC4E90A017C
:1037E000012384F844301D44DDE700BF3C0700217D
:1037F0004007002108B5FFF73BFD034620B100223A
:1038000090F8440083F8442008BD08B5FFF730FD68
:10381000003818BF012008BD1FB5002301A8CDE95D
:103820000133039327F074FC05B05DF804FB00003E
:1038300030B5144B144D85B0C5F88030134B0C4691
:10384000C5F884308368C5F888308360D1F890303B
:103850000846C5F88C3027F0E7FB05F1800027F01B
:103860004FFC03238DF80430002301A8CDE9023377
:1038700027F04EFCB4F89C10D4F8980027F098FC80
:1038800005B030BD053900017406002191380001F2
:103890007FB5044625F0FCF9856A14F0FB06214645
:1038A000D5F8943010D1984778B1032301A8CDE919
:1038B00002668DF8043027F02BFCB5F89C10D5F883
:1038C000980027F09BFC04E0984727F0A1FC25F026
:1038D000F5F9032C0A4B07D0042C09D064B91A68F7
:1038E00001321A6004B070BD9A6801329A60F9E73B
:1038F0005A6801325A60F5E71A6901321A61F1E734
:1039000044070021F7B5054625F0C2F91C4E0746CD
:10391000846A25BB27F07CFC29463846D4F89030D1
:10392000984700B3174DB4F89A20D5F88830204650
:103930001344C5F8883027F077FB05F1800027F0A5
:10394000DFFBFFF769FFB4F898300121ADF80030D4
:10395000D4F894306846019327F0E2FB06E029464C
:10396000D4F89030984725F0A9F925B9F3680133C8
:10397000F36003B0F0BD336901333361F9E700BF91
:10398000440700217406002137B50C46104D114B39
:10399000C5F88030104BC5F884308368C5F888308E
:1039A0008360084627F040FB05F1800027F0A8FB64
:1039B000FFF732FFB4F898300121ADF80030D4F8A9
:1039C00094306846019327F0ABFB03B030BD00BFD5
:1039D00074060021053900019138000108B527F06F
:1039E00019FCBDE8084025F069B9000010B5094C84
:1039F000002022460849FFF7FDF82246012007492A
:103A0000FFF7F8F8BDE810401C22002104482BF015
:103A10008ABE00BFDD39000189390001313800015B
:103A20004407002130B50446034D0FCD0FC495E87F
:103A3000070084E8070030BD44070021002330B5AB
:103A40000B4C0C4D23700C4C2B7023708B070CBF50
:103A50000B4621F00303094D18BF04332B6003EB21
:103A6000C0035B1A934296BF2070002098B230BD0D
:103A7000610700216007002162070021640700211F
:103A800030B50B4943EA00430A480968047801EB62
:103A9000C404A14201D1002030BDD1E900509842B8
:103AA00008BF954201F10801F3D10120F4E700BFFE
:103AB0006407002161070021014B1878704700BF9F
:103AC000620700210023024A1370024A13707047F4
:103AD000610700216007002170B5064615461C46A7
:103AE000FFF7CEFF80B9094B094A197812788A424C
:103AF0000BD9084A44EA0644126802EBC10042F8B6
:103B00003150013144601970012070BD61070021FE
:103B1000620700216407002143EA00431148F0B521
:103B20000468DFF844C025469CF8001004EBC10E81
:103B3000754501D1002014E02846D0E900769E4268
:103B400008BF974205F10805F2D1012905D904EB18
:103B5000C10454E90223C0E90023012001398CF893
:103B60000010F0BD64070021610700210122014B14
:103B70001A707047600700210022014B1A707047CD
:103B800060070021014B1878704700BF60070021D3
:103B900037B5044623F0A0FD0022144B9C42144B81
:103BA0000CBFDA701A7194F8423003F0FD03012B58
:103BB00001D123F0A1FD20460BF0B6FE04F128054B
:103BC00028460DF1070125F087FE40B93034204624
:103BD0000DF1070125F080FE20B903B030BD25F0BE
:103BE00063FEEDE725F060FEF1E700BF700E0021F7
:103BF00088410021154A38B5154C164B106851689C
:103C00001D6804F13C0303C304F1480029790BF05B
:103C1000B3FF012024F0C6FF23F056FD01230E4D13
:103C2000EB7094F8423003F0FD03012B01D123F037
:103C30005BFD0BF09BFE00200123687184F8C0310E
:103C4000A4F8BE31BDE8384023F0E3BC6042002157
:103C5000700E00216C0E002188410021054BDB789D
:103C600033B10123044880F899309C3025F0A0BB83
:103C7000704700BF88410021700E0021002023F012
:103C8000C8BC0C2023F0C5BC08B5012024F0A0FF5F
:103C9000BDE808400148FFF77BBF00BF700E002160
:103CA00008B5012024F094FF0348FFF771FFBDE839
:103CB0000840002023F0ADBC700E0021FFF7E4BFE8
:103CC000034B044A19684B6813608B685360704754
:103CD0006C0E00216042002108B5084B08481B68A3
:103CE000197990F888308B4202D048300BF044FFAD
:103CF000BDE80840002023F08CBC00BF6C0E002102
:103D0000700E002110B50446012024F061FFA37B52
:103D100003F0FD03012B01D123F0EEFCD4F8C8021F
:103D200020B125F0C1FD0023C4F8C832D4F8D00278
:103D300020B125F0B9FD0023C4F8D032034AD3786E
:103D4000013BD370BDE8104023F0C6BC8841002180
:103D500038B505460F4C012024F03AFF2C1B0E48C5
:103D6000EB68241144430BB1A0B298470434E0B28D
:103D700024F04CFD95F858320BB123F0CDFC23F024
:103D8000ABFCD5F8440208B125F08EFD00232B7062
:103D900038BD00BF88190021D1581F1A38B50C460C
:103DA00005460E22002120462BF0BDFC204695F84A
:103DB000C03200F8023BD5E9B22325F057FC95F854
:103DC000C132084A637095F808332372D5F84C3134
:103DD000A3FB0232DB0F43EA4203638195F85031C3
:103DE000237338BDE3361A0038B50446012024F0A9
:103DF000D9FEA37B03F0FD03012B01D123F074FC5A
:103E0000002320466370A370A4F8083284F83C3085
:103E10000CF0EEF9054620B920460CF0FFFA0546F5
:103E200040B1284623F04EFD2046BDE8384003212E
:103E30000CF0D6BC074AD3780133D37023F044FC8E
:103E40000123284684F86830A4F86630BDE838407D
:103E500023F038BD88410021002023F033BD00004D
:103E600030B4027C0121022A18BF00220C4C817060
:103E7000657895420AD190F8082222B900F50370BE
:103E800030BC25F095BA00F54A70F9E701FA02F264
:103E9000217821EA02022270032130BC0CF0A0BC80
:103EA00038100021002023F00DBD000010B5094C92
:103EB0006378012B04D9BDE810400C2023F002BD2B
:103EC00004F1600025F0E5FE04F17000BDE810404B
:103ED00025F0DFBE40100021034B5B7813B10C20AE
:103EE00023F0F0BC704700BF40100021024B58780F
:103EF00000B10C2023F0E6BC4010002108B5FFF70C
:103F000001FF044B5B7823B1BDE80840002023F09B
:103F1000D9BC08BD4010002138B51E4B01201C68DB
:103F200024F040FE23790BB123F0EEFB23791A4DE8
:103F30002B72D4E90223C5E90423E379AB72A37998
:103F40006B72637D2B760CF08FFFD8B128622379DA
:103F500080F85832A37980F85932E37980F85A32E0
:103F6000D4E90223C0E998230A22238AA0F8503218
:103F7000638A5343C0F854320B23437263798371CD
:103F8000237DC371286A0CF0FBFCBDE8384023F0A8
:103F90009BBB00BF2C2C0021F02B0021034B5A7837
:103FA000012A04BF00225A70704700BFF02B002185
:103FB000084B186A90F843220AB9012202715B7813
:103FC000012B03D1C3702C3025F0F2B905210CF080
:103FD00021BC00BFF02B002130B50F4C85B06378B9
:103FE000012B07D10025206AC37005712C3025F004
:103FF000DFF965706946206AFFF7D0FE216A074B3A
:104000006A46C91A064B091159433E2089B223F06A
:104010008FFC05B030BD00BFF02B002188190021B6
:10402000D1581F1A30B52D4C85B06378206A012B0A
:1040300004BF00236370FFF78BFE256A2B7973B1F1
:104040000E22002168462BF06EFB25496A46691A4C
:10405000244D09116943442089B223F069FC256A83
:1040600095F84332ABB1217A11F0010113D10E2240
:1040700068462BF058FB1A496A46691A194D09110E
:1040800069431A2089B223F053FC0022236A83F883
:10409000432205B030BD182025F0FEFB0146002864
:1040A000F3D040F20B134380D4E90423C0E9022388
:1040B000A37AC371637A8371237A0371236A9A792D
:1040C0004271B3F85022D3F8543202824382237EE5
:1040D0004375054B187B25F0F0FBD6E7F02B00214C
:1040E00088190021D1581F1AD04100212DE9F04331
:1040F0003D4B85B01D680CF0B7FE0446002870D01B
:10410000012024F04FFD002184F8581295F820304A
:10411000364F84F8593295F82130354E84F85A32AA
:10412000D5E90A23C4E9982395F82330384684F862
:1041300008334FF47A73C4F854320C233461A4F872
:1041400050126372A91D17F0CFF940F2E242BB880A
:104150005343C4F84C3195F8203084F8C03295F8B8
:10416000213084F8C132DB07D5E90A01C4E9B20184
:104170001CD50B0A03F0C003403B17D14FF00008D9
:104180004FF000098DF807300DF1070202ABCDE9C1
:104190000289FFF75BFA48B19DF8073043F002034C
:1041A00084F8C132DDE90223C4E9B22330690CF09E
:1041B000E7FB23F089FAAB88288BB3806B8B708088
:1041C000F380AB8B33812B8E738195F82230337360
:1041D000EB8BF3810CF0C8FC05B0BDE8F04305F0B3
:1041E0004BBC05B0BDE8F0832C2C0021302C002105
:1041F000182C002170470000012310B5054C2069E0
:10420000C3702C3025F0D4F821693E20BDE8104061
:104210000CF07ABE182C0021034B186901232C30B6
:1042200000F8293C25F0C4B8182C0021044B18696B
:10423000C378012B04BF0023C370FFF789BD00BF03
:10424000182C00211FB5437A04460B2B0ED169466A
:10425000FFF7A4FD0A496A46611A0A4C0911614335
:10426000002089B223F064FB04B010BD0C2BFBD1FD
:104270000146002004B0BDE810400CF045BE00BF70
:1042800088190021D1581F1A01232C3000F82A3C2C
:1042900025F08EB8FFF75CBD012310B5044683708E
:1042A0002C3025F085F804F52C7025F0F2FC05483B
:1042B000201A054C00116043BDE8104080B223F085
:1042C0005EBB00BF88190021D1581F1AF8B50579C7
:1042D000C38815B1012D18D0F8BD4FF44472534373
:1042E0000E490688CC18B4F880214088921B82427F
:1042F000F2DCD4E95E6703F51E73C4E99E67C81853
:1043000023F042FA84F87051E6E74FF44472034810
:1043100002FB0303002283F8D821DDE7881900217E
:1043200008B523F0D9F90022054B5A70054B93F8D4
:1043300021301BB1BDE8084023F0DEB908BD00BF45
:10434000884100219842002108B5012024F02AFC70
:1043500023F0BAF90122074B5A70074B93F821302A
:104360000BB123F0C1F90CF0DDFEBDE808400020E0
:1043700023F040B9884100219842002108B501206E
:1043800024F010FC23F0A0F90122064B5A70064BD2
:1043900093F821300BB123F0A7F9BDE808400CF0E9
:1043A000C1BE00BF8841002198420021054B5B78C7
:1043B00033B10123044880F829302C3024F0F8BFB1
:1043C000704700BF88410021782C0021002023F095
:1043D00011B90C2023F00EB92DE9F0415B4B8AB0E6
:1043E0005B78002B00F0AF80594C94F82860002EC9
:1043F00000F08480D4F8EC80B8F1000F79D001226D
:1044000004F5847304F1D0014046FEF7BBFC064678
:10441000602025F041FA0546002800F0908000F168
:104420000807384608F1020117F027FA384617F056
:104430007BFA00B196B9284625F036FA042025F01B
:104440002BFA014630B14FF441734380414B187B46
:1044500025F033FA012024F0BBFB4AE00023AB70C7
:10446000D4F84831AB6394F81B3185F83C3094F8AC
:104470001A219A4207D1D4E94461D4E94202914217
:1044800008BF864203D043F0020385F83C30002089
:10449000D4E944230021C5E91223C5E9140194F8A5
:1044A0001B0194F81A11884207D1D4E94470D4E969
:1044B0004261884208BFB74203D0D4E94201C5E94E
:1044C000140195F83C0013F0A7FB0028B3D1224B50
:1044D0002946D3E91C23C5E9162394F82A3085F828
:1044E000410085F83D300123EB871A4B187B25F0FE
:1044F000E4F90AB0BDE8F041FFF712BF164C0CF02A
:1045000049FF257C012DA5D13146242201A82BF09D
:104510000AF943F60543ADF806303C238DF8083020
:10452000A37C0DF10E008DF80D30D4E906238DF833
:104530000C5025F09BF801A823F054F88AE7002ED0
:104540003FF47CAFD5E70AB0BDE8F0818841002197
:10455000782C0021D04100219842002108B501208B
:1045600024F036FBFFF7DCFE0CF014FFBDE808403A
:10457000002023F03FB808B5012024F029FBFFF705
:10458000CFFEBDE808400CF005BF0000054B30B57C
:104590001C68054D08340FCC0FC594E80F0085E862
:1045A0000F0030BD6C0E0021A042002110B5044662
:1045B000012024F00DFB074B1868201A064CC01090
:1045C00060430430C0B224F067F8BDE8104023F027
:1045D00083B800BF382E0021FBE14BC710B504465D
:1045E000D0F8280928B1043825F05EF90023C4F872
:1045F0002839D4F8FC0728B1043825F055F90023F0
:10460000C4F8FC3794F83B300BB123F075F8024A3C
:104610009378013B937010BD8841002138B5044662
:104620001F4D012024F0BEFA2A682046137A84F830
:10463000BC32002384F8BD3284F8BE3284F83437AB
:1046400084F836375168C4F8C0320EF031F80146AC
:1046500040B1607823F0A2F92046BDE8384004213B
:104660000DF0E2BE0F4A93780133937094F83B301B
:104670000BB123F039F82B68596851B14FF47A72B5
:10468000636A0A39B3FBF2F304F52B70C91A25F0FB
:10469000FAFA60780021BDE8384023F07FB900BF06
:1046A0003C2E00218841002138B504461C4D0120D4
:1046B00024F078FA2A682046137A84F8BC32002362
:1046C00084F8BD3284F8BE3284F8343784F8363743
:1046D0005168C4F8C0320DF0EBFF014640B160787C
:1046E00023F05CF92046BDE8384004210DF09CBE63
:1046F0002B685B6893B14FF47A71626A4B4302F5A1
:104700009C520832B3FBF2F3013B534304F52B7088
:10471000B3FBF1F1BDE8384025F0B5BA38BD00BFB4
:104720003C2E002170B5134D00F52B760446304623
:1047300025F0AFFA2B685B687BB14FF47A71626A3F
:104740004B4302F59C520832B3FBF2F3013B534357
:104750003046B3FBF1F125F096FA00212B68607822
:104760001B7A84F8BD1284F8BC32BDE8704023F097
:1047700015B900BF3C2E002110B5044600F52B7082
:1047800025F087FA002384F8BE32012384F83637F7
:1047900010BD0021407823F001B90C21407823F0AE
:1047A000FDB80000F0B590F8343704469DB0002BFA
:1047B00034D100F52B7025F06CFA2046FFF70EFF80
:1047C000012024F005FA94F8BC2294F8BD3222B1FD
:1047D000934224BF432284F8BE22002294F8BE12E2
:1047E000607822F026FF238C03F01D031D2B13D1CC
:1047F000002000213C230022CDE90401CDE906324E
:10480000CDE90201D4E90C0194F83A30CDE9000178
:104810000121607801F0CCFB1DB0F0BDD0F8FC6741
:10482000784F002E77D000F6180300F5FC610122C6
:104830003046FEF7A7FA002800F0D080602025F06F
:104840002BF80546002800F0C980637831460380C4
:104850000023837010A816F0E7FF311805F1080057
:1048600017F00BF8D4F8FC37002B00F0828094F896
:104870002BC804F5026185F83CC094F82A386345DA
:1048800008D151E90203D4F820684A689A4208BF67
:10489000864203D04CF0020C85F83CC0D1E90023DD
:1048A000C5E9122300220023C5E9142394F82B281C
:1048B00094F82A389A4208D151E90203D4F82068C2
:1048C0004A689A4208BF864203D051E90223C5E9EB
:1048D0001423012385F83E30D4F83037387BAB639E
:1048E000494B2946D3E91C23C5E9162394F83537EB
:1048F00085F83D30012385F83F3094F8BD3285F8C6
:10490000403094F82C3785F8413024F0D6FF20460B
:10491000FFF764FE80E7D0F82869002E8ED031467C
:1049200008A816F081FF311810A816F0A6FF002382
:104930000F939DF8203004F5FC618DF83830032387
:104940008DF83930DDE91023CDE90A239DF82230B6
:104950000AA88DF83A30DDE91223CDE90C239DF841
:10496000233001228DF83B3004F51663FEF7F8FA88
:1049700061E794F873C904F5166185F83CC094F8B2
:104980007239634508D1D1E90262D4F860094B68F5
:104990009A4208BF864203D04CF0020C85F83CC016
:1049A000D1E90223C5E9122300220023C5E914231B
:1049B00094F8732994F872399A4208D1D1E90262C5
:1049C000D4F860094B689A4208BF864203D0D1E907
:1049D0000023C5E9142394F895387BE76378311FE9
:1049E00026F8043C082306F8023C032306F8013CA1
:1049F000387B24F062FF01201DB0BDE8F04024F0B8
:104A0000E7B800BFD04100219842002110B504460C
:104A1000FFF7E4FD012024F0DBF860780021BDE819
:104A2000104022F0BBBF10B50446FFF7D7FD0120B0
:104A300024F0CEF82046BDE810400CF00DBE3C231B
:104A400080F8BE32012380F83637704700221346C3
:104A5000F0B5D0E90076C3F12005A3F1200427FAD0
:104A600003F106FA05F5294326FA04F42143C907A0
:104A700044BF81180B7203F1010348BF0132252B9B
:104A8000E9D180F82D20F0BD70B504460025012045
:104A900024F088F884F84E520AF036FEA4F8285123
:104AA000254601262B4BC4F82401D3E90E23E5E962
:104AB0009A23284622F068FED4F82431284683EA57
:104AC0001343B4F82811A4F8983284F896620CF0D5
:104AD000D1FE84F84D0220460DF048FF054648B14E
:104AE000204603210DF002FF29466078BDE87040A2
:104AF00022F08BBFA37884F82161012B13D194F8A5
:104B00007D290AB984F82A31D4F80064B4F8FC533A
:104B100022F01AFD3246294624F0B4FD0123A4F800
:104B20000C0484F87E3994F854325BB1D4F80064F4
:104B3000B4F8FC5322F008FD3246294624F0A2FDC9
:104B4000A4F856026078002122F05FFFBDE87040B3
:104B500022F0BABD884100210021407822F055BFE3
:104B60000C21407822F051BFF8B583780446012B20
:104B700011D190F82151012D0DD1D0F80074B0F869
:104B8000FC6322F0E1FC3A46314624F07BFD84F8D8
:104B90007E59A4F80C04012384F84E32002304F556
:104BA000967084F8213184F82A31BDE8F84024F069
:104BB000FFBB10B590F820310446012B04D1FFF75C
:104BC000D3FF2046FFF7F2FC2046BDE81040FFF778
:104BD000D3BD10B590F820310446012B04D1FFF766
:104BE000C3FF2046FFF7E2FC2046BDE810400CF072
:104BF00033BD10B50446FFF7D9FC60780021BDE84D
:104C0000104022F002BF000090F85030012B12D06B
:104C1000094B1B68D3E90223C0E9A823C0E9162386
:104C2000B0F828310633A0F86030082380F85230FD
:104C3000012380F850307047342E0021D0F8883995
:104C40000BB1407818477047D0F88C390BB14078D9
:104C500018477047682200212AF065BD5030FFF7E1
:104C6000F9BF2A2307B58DF803008DF804006846C4
:104C7000ADF800108DF802308DF8051022F0B2FC6E
:104C800003B05DF804FB2C2307B5ADF800008DF8E8
:104C900004006846ADF802308DF8051022F0A2FC41
:104CA00003B05DF804FB08B5012023F07BFFBDE8ED
:104CB000084022F009BD00002DE9F04FDFF83881EF
:104CC0000446D8F800608FB006F1080529460EF0BA
:104CD000F9FE2946002520460EF05CFFAA46B37D6A
:104CE000AB423ED9002794F8562004F1570305F152
:104CF000010906E0D4F894302BBBC4F894B022E04C
:104D00000137BA421FD913F8011B4945F8D1204693
:104D10000EF066F896F84030F18E0293D6E90E2335
:104D2000CDE900230A46F16A83460EF0FFF8D4F875
:104D30009030002BDED1E368C4F890B06B4384F868
:104D40009C50C4F8983094F85630BB4207D194F880
:104D500034305A1C0E3384F8342044F823A04D46D6
:104D6000BDE7D8F80010204608310EF033FE216F61
:104D700004F1600024F087FF2B23A5782022002176
:104D800006A8ADF81630ADF814502AF0CCFCE36A52
:104D90001A4A0793A38A04F138015BBAADF82030B0
:104DA000E38A8DF81950ADF82230A3885034ADF85D
:104DB000243054F8403CA3FB0232DB0F43EA4203A9
:104DC0000022ADF82630134651F8040B40B140885C
:104DD0000EAD5A1C05EB430323F80E0CD3B201228F
:104DE0008C42F1D10AB18DF8283005A822F0FAFBE7
:104DF0000FB0BDE8F08F00BF4C2E0021E3361A0043
:104E000090F8BA3080F85430704710B543780446B3
:104E1000012B8AB018D181780020FFF722FF2022D1
:104E2000002102A82AF07FFC2B228DF806204422C4
:104E3000A37801A8ADF804308DF807208DF808207C
:104E40008DF8093022F0CEFB0AB010BD082380F89F
:104E5000543070473D2380F85430704710B50446F5
:104E6000012023F0B5FE236D13B1002283F8DA216F
:104E70006378032B06D194F85430A0784BB11946CF
:104E8000FFF701FF20460EF045FBBDE8104022F081
:104E900023BC01461846FFF7E4FEF3E7F8B50546E4
:104EA0000FF024FC044648B1284604210FF0ECFB27
:104EB00021462846BDE8F8400FF080BB012023F0D2
:104EC00071FE2C6DCCB1012384F82131A378012B24
:104ED00013D194F87D290AB984F82A31D4F80074E2
:104EE000B4F8FC6322F030FB3A46314624F0CAFBAA
:104EF0000123A4F80C0484F87E39284602210FF01F
:104F0000D9FBBDE8F84022F0DFBB0000F0B5044655
:104F100085B007200EF03AFA064630B3144B03A9C9
:104F20001868258C0390304617F036FF114F063570
:104F3000ADB2D7E90E230095304417F040FF0622AA
:104F4000314620460EF029FA94F8A030A4F8A85073
:104F500043F0010384F8A030D7E90E23C4E92C23E1
:104F6000236D13B1002283F8B82005B0F0BD00BF57
:104F7000380803018841002173B5044603200EF070
:104F800005FA0646E0B1124B01A95868258C01903C
:104F9000304617F001FF0635ADB22A4694F8BA1034
:104FA000304417F01EFF0622314620460EF0F5F978
:104FB00094F8A030A4F8B85043F0020384F8A0306D
:104FC0000321204602B0BDE870400FF073BB00BF64
:104FD0003808030110B50446C43024F0E9F920462E
:104FE000BDE8104003210FF065BB000010B504467A
:104FF0000D4B1B68C31A0D48DB1043430C33D8B26A
:1050000023F04AFB012023F0E3FD20460EF082FA54
:1050100022F062FB6378022B04D12046BDE81040E9
:105020000FF01EBB10BD00BF442E002167EBD06FF8
:105030007FB50622ADF80620002203890D4DADF89C
:105040000430ADF80A30C37F01A88DF80C308DF81C
:10505000082022F0C7FA2B784BB1074EF0880FF0EA
:1050600045FC044618B9304622F0BCFA2C7004B056
:1050700070BD00BF72070021680700212DE9F043D1
:105080008BB0044615460E462422002101A82AF0C2
:105090004AFB26238DF8023040F2E243B4F858224E
:1050A00094F85B1294F85A7202FB01FE02FB07F0BF
:1050B00003FB0EFE94F84A9203FB00F8D4F8543236
:1050C000B9F1010F0CBF5B19EB1A73440593236907
:1050D000D4F850020393B4F84632B4F808C0ADF8DF
:1050E000183094F85C3208BF40198DF81A3094F8E3
:1050F000643218BF281A8DF81B3094F8653208BF47
:1051000040448DF81C30A37A18BF4044ADF800C06D
:105110008DF803600CBF04900490ADF806C08DF8C4
:10512000046002958DF81D708DF81E10ADF82420D6
:105130008BB9B4F83021012B0CBFB4F83031B4F87E
:105140002C316846ADF82020ADF8223022F04AFA22
:105150000BB0BDE8F083B4F82C21ECE738B5054678
:1051600004200C4624F098FB014650B12B89C470F2
:1051700003800F238370034B187BBDE8384024F075
:105180009CBB38BDD041002138B5054604200C46F3
:1051900024F082FB014650B1EB88C47003800123E8
:1051A0008370034B187BBDE8384024F086BB38BDC4
:1051B000D0410021014B9B7CC3777047A02E00217A
:1051C000024B1B681B79C377704700BF542E002128
:1051D0003E23C37770470823C37770472223C377E2
:1051E00070470D23C3777047014B5B7CC3777047D3
:1051F000A02E00213D23C3777047000010B5044660
:10520000C07A0FF0E5FB4FF476711B4BE2881B6808
:1052100001FB0233C27C0132C274A27A22BB94F831
:105220004612032993F84E2021D1013A18BF0122DA
:105230008A1A1A4492F9B0217E2A1AD193F865038A
:10524000B8B10E4A58181268032992F9202080F844
:10525000AF2108BF83F8B321D3F894325B0702D59E
:10526000012384F83D3210BD94F84712D9E701229A
:10527000DEE784F83A21F6E7302F00213C41002197
:10528000002210B590F847300446C17F80F84720CF
:1052900033B1222904D1BDE810401121FFF7EEBE41
:1052A00000222046FFF7EAFEE37F442B04D11623B9
:1052B0002046E377FFF7BCFE2046BDE810400FF024
:1052C00099BE000038B50446C08812F02DF9054695
:1052D00098B9082024F0E0FA014668B1E388038019
:1052E00041F2017343802389C380E37F0371044B40
:1052F000187B24F0E2FAA57638BD0123A376FBE7FC
:10530000D0410021F8B504460121C688008914F077
:10531000E7FC0221208914F0E3FCE07A0FF058FB4F
:10532000054604F50B7024F0B4FC01236376E37F9B
:105330003E2B0CD100276776EB7C2046013BEB74BB
:105340000FF058FE3A462046E17FFFF797FE144BD8
:105350001B6893F82A20134B1C680023934219D230
:10536000E188B14217D1657EADB9A17E99B108201F
:1053700024F092FA014668B1E388038041F2017398
:1053800043802389C380E37F0371074B187B24F09C
:1053900094FAA576F8BD013304F53C74DEE700BF4E
:1053A0003C410021582E0021D041002110B5044677
:1053B000C07A0FF00DFBA378012B05D16376243062
:1053C000BDE8104023F0F4BF10BD70B505460420C1
:1053D0000C46CE7F12F048FE014648B122230370EE
:1053E000E37A4370237BC6708370284612F012FE66
:1053F00021462846BDE870400FF0F3BE034B9B7C6E
:10540000CB77012380F8D132704700BFA02E002156
:1054100008460521FFF7A2BEFFF7D7BF012380F89A
:10542000D13270472DE9F04106460C46C87A0FF09C
:10543000CFFAB6F86C31B6F8A013DA1DB6F86E31B3
:10544000074602FB0133A4F848300023A4F84A3091
:105450000FF08EFBB4F84810B6F86E51B6F8703104
:10546000F26998BB40F2E248491B4B43284929485E
:10547000096808FB0322791A09114143388A0A3165
:1054800008FB00F0C9B223F015F9D4E904239B1AF4
:105490000344E364B6F8703194F85C2208FB03F827
:1054A0001D4BD4F860121B689B8D01FB12334344E3
:1054B000E26C9A4201D2BDE8F081A2EB0802E264FC
:1054C000B4F848200132A4F84820F1E740F2E2485D
:1054D0004D1B5D4308FB0525B4F84A303E8A013375
:1054E0009BB2A4F84A3073433E6A294608FB036620
:1054F000304623F005FC0028EED02946304623F044
:10550000FFFBD4E904239B1A0344E364D3E700BF01
:10551000502E0021398EE3383C4100217FB50546ED
:10552000C87A0C460FF054FAC37C0646F3B9837C64
:10553000002B00F0E4804179C1B940F2E242038AD5
:1055400053437A4A10687A4A301A00115043794A14
:105550000A30CDE90112F268C0B200921A4623F077
:1055600047F8002800F0CB800123737121462846BC
:10557000FFF758FF214630460FF0AEFB6E4BC5F8E3
:1055800080336E4BC5F884336D4B1B681B88E380FA
:10559000D5F8A831C4F8E830B5F8E231A4F82832DB
:1055A0000AF0B2F8D5E95E23C4F8E40020460FF013
:1055B000E3FA242012F058FD0146002800F09580FF
:1055C0001F230370E37A4370237B837094F8463281
:1055D000022B03D0032B14BF01230423CB7094F8B8
:1055E0004732022B03D0032B14BF012304230B717A
:1055F000B4F84C3228464B7194F84A32B4F84C2235
:10560000DB03C2F30B029BB213431B128B71B4F882
:105610004E32CB71B4F84E32C3F303230B72D4F87D
:1056200050324B72D4F850321B0A8B72B4F852329B
:1056300003F00F03CB72D4F854320B73D4F8543206
:105640001B0A4B73B4F8563203F00F038B73B4F894
:105650003031CB73B4F830311B0A0B74B4F82C31F1
:105660004B74B4F82C311B0A8B7494F85C32CB74F5
:10567000D4F860320B75D4F860321B0A4B75B4F85D
:1056800062328B7594F8643294F8652203F00F034C
:1056900043EA0213CB7594F85A320B7694F85B32D6
:1056A0004B76B4F858328B76B4F858321B0ACB7666
:1056B000E36C0B77E36C1B0A4B77B4F84E308B77B7
:1056C000E36CCB77E36C1B0A81F82030B4F84E30E2
:1056D00081F82130B4F8483081F82230B4F84830ED
:1056E0001B0A81F8233012F095FC0123214628463D
:1056F00084F8473004B0BDE870400FF072BD20461A
:10570000FFF76FFD042024F0C7F8014608B904B084
:1057100070BDE388038044F601334380094B187B56
:1057200004B0BDE8704024F0C8B800BF502E00217E
:10573000398EE338F16801012551010181510101E0
:105740002C2F0021D0410021002310B50C46084623
:1057500081F84730FFF748FD204611F0D9F8204680
:10576000BDE810400221FFF7F9BC000070B5054606
:10577000C87A0C460FF02CF9384B0646D3E90432B0
:105780009A4205D3C378FBB1204610F0EDFF1DE02F
:1057900001220D21284601F08DF9214628460FF0FF
:1057A0002AFD0023204684F84730FFF71AFD2146E2
:1057B00030460FF024FB204611F0AAF802212046C3
:1057C000BDE87040FFF7CABC10F038FF20460FF06C
:1057D00033FA337923B922462946304611F03AF894
:1057E0000023102084F8473012F03EFC014670B3CD
:1057F00021230370D4F8E4304370D4F8E4301B0A5A
:105800008370B4F8E630C37094F8E7300371E36C4A
:105810004371E36C1B0A8371B4F84E30C371636942
:10582000037263691B0A4372E38A83722369C3723A
:1058300023691B0A0373638A4373B4F84830837384
:10584000B4F848301B0AC373284612F0E3FB214624
:1058500028460FF0D0FC0121B1E700BFA02E0021A7
:1058600070B50646C87A0C460FF0B2F805462146D8
:1058700030460FF0C0FC2046FFF7B0FC214628461A
:105880000FF0BDFA204611F043F82046BDE8704005
:105890000221FFF763BC10B50C460FF0ACFC2046AC
:1058A00011F036F82046BDE810400221FFF756BC43
:1058B00010B50C460FF09FFC204611F029F8442348
:1058C0002046E3770221BDE81040FFF747BC000007
:1058D00040F67C4238B58B8C0546043B9BB2934224
:1058E0000C4654D80B7E1F2B51D80B79012B4ED868
:1058F000CB88B3F5805F4AD20B89B3F5805F46D27F
:10590000CB68B3F5801F42D20B69B3F5801F3ED23E
:1059100040F6FB738A8A9A4239D8CA8A9A4236D8A4
:1059200089784B1E012B01D9042930D1E078431E20
:10593000012B01D904282AD121F0AEFB38B394F809
:105940002230013B1E2B22D894F82330013B1E2B22
:105950001DD894F82030102B19D894F82130102B32
:1059600015D8D4E90A31994211D3227E012A10D9DF
:10597000B5F8700140F2E245074B013A1B689B8D78
:1059800005FB0033E06900FB1233994201D9122074
:1059900038BD0020FCE700BF3C4100211FB5272295
:1059A0000389ADF80620ADF80430ADF80A30C37AAB
:1059B000C2888DF80C30037B044601A8ADF808209E
:1059C0008DF80D3021F00EFE18B91A2120891FF034
:1059D0005DFF04B010BD000070B50D4E054600F52A
:1059E000AE700C4624F055F933681979102903D1AB
:1059F00000222046FFF742FB33682846012219792E
:105A000001F058F82046BDE870400FF0F3BA00BF2F
:105A10002C2F00212DE9F047064600F5AE7089468F
:105A200024F037F9092012F01FFB0446C0B11B4BCC
:105A3000D3E90E57BD42B3F8408017D0D6F820A066
:105A400023F058F95044854203D8356A23F052F9BF
:105A50000544AF420AD201221121304601F02AF852
:105A600049463046BDE8F0470FF0BBBB202323700A
:105A70002B0A6570A3702D0C3B0A277184F80780F0
:105A80003F0C4FEA182821463046E5706371A77134
:105A900084F8088012F0BEFAE2E700BFA02E0021D1
:105AA0002DE9F74F7F4E074633690C46C1F8E430C5
:105AB000338CA1F84830D0F8A831C1F8E830B0F8FC
:105AC000E231C87AA1F828327369CB64B3694B61BB
:105AD000F3690B610EF07CFF054621460FF01DF9BE
