:10C20000C80A002089D50000C9050100A9D3000093
:10C21000A9D30000A9D30000A9D30000A9D300002E
:10C22000A9D30000A9D30000A9D3000071D3000056
:10C23000A9D30000A9D300001DD300006F040100A2
:10C24000D5D30000D5D30000D5D30000D5D300004E
:10C25000D5D30000D5D30000D5D30000D5D300003E
:10C26000D5D30000D5D30000D5D30000D5D300002E
:10C27000D5D30000D5D30000D5D30000D5D300001E
:10C28000D5D30000D5D30000D5D30000D5D300000E
:10C29000D5D30000D5D30000D5D30000D5D30000FE
:10C2A000D5D30000D5D30000D5D30000D5D30000EE
:10C2B000D5D30000D5D30000D5D30000D5D30000DE
:10C2C000D5D30000D5D30000D5D30000D5D30000CE
:10C2D000D5D30000D5D30000D5D30000D5D30000BE
:10C2E000D5D30000D5D30000D5D30000D5D30000AE
:10C2F000D5D30000D5D30000D5D30000D5D300009E
:10C30000D5D30000D5D30000D5D30000D5D300008D
:10C31000D5D30000D5D30000D5D30000D5D300007D
:10C32000D5D30000D5D30000D5D30000D5D300006D
:10C33000D5D30000D5D30000D5D30000D5D300005D
:10C34000D5D3000000000000000000000000000045
:10C3500000000000000000000000000000000000DD
:10C3600000000000000000000000000000000000CD
:10C3700000000000000000000000000000000000BD
:10C3800000000000000000000000000000000000AD
:10C39000000000000000000000000000000000009D
:10C3A000000000000000000000000000000000008D
:10C3B000000000000000000000000000000000007D
:10C3C000000000000000000000000000000000006D
:10C3D000000000000000000000000000000000005D
:10C3E000000000000000000000000000000000004D
:10C3F000000000000000000000000000000000003D
:10C40000DEE61E284CBBCE8F015B000000BE0000A4
:10C410000100000000C200000814002069DE0000D6
:10C420007BB972B90029BEBF00204FF0004106E081
:10C4300008BF00281CBF6FF000414FF0FF3000F034
:10C44000AFB9ADF1080C6DE904CE002909DB002B72
:10C450001ADB00F035F8DDF804E0DDE9022304B072
:10C460007047404261EB4101002B1BDB00F028F8D4
:10C47000DDF804E0DDE9022304B0404261EB410154
:10C48000524263EB43037047524263EB430300F0B5
:10C4900017F8DDF804E0DDE9022304B0404261EB67
:10C4A00041017047524263EB430300F009F8DDF8A5
:10C4B00004E0DDE9022304B0524263EB430370471A
:10C4C0002DE9F0478C46089D04468A46002B4AD148
:10C4D0008A42174662D9B2FA82F64EB1C6F1200EF0
:10C4E00001FA06F3B740B44020FA0EFE4EEA030A02
:10C4F0004FEA1748230C1FFA87F9BAFBF8FE08FB2E
:10C500001EAA0EFB09F243EA0A439A420BD9FB1812
:10C510000EF1FF312CBF012000209A4202D90028E1
:10C5200000F02A818E469A1AA3B2B2FBF8F008FBFB
:10C53000102200FB09F943EA0244A14507D93C193E
:10C5400000F1FF3302D2A14500F210811846A4EB9E
:10C55000090440EA0E4000211DB1F4400023C5E962
:10C560000043BDE8F0878B4208D9002D00F0F2802F
:10C570000021C5E9000C0846BDE8F087B3FA83F155
:10C5800000294ED16345C0F0E880824240F2E58048
:10C590000846002DE5D0C5E9004AE2E702B9FFDE12
:10C5A000B2FA82F6002E40F099808B1A4FEA124EB2
:10C5B0001FFA82F801214FEA144CB3FBFEF20EFB86
:10C5C000123008FB02F94CEA004CE14508D917EBA0
:10C5D0000C0C02F1FF3302D2E14500F2CA801A4688
:10C5E000ACEB090CA3B2BCFBFEF00EFB10CC08FBBD
:10C5F00000F843EA0C44A0450ED93C1900F1FF3382
:10C600002CBF4FF0010C4FF0000CA04503D9BCF13A
:10C61000000F00F0A8801846A4EB080440EA02408E
:10C620009AE7C1F120048B4002FA01FE0CFA01F6F0
:10C63000E24020FA04F72CFA04FC00FA01F8134354
:10C640003E431F0C320C1FFA83F9BCFBF7F007FBCB
:10C6500010CC00FB09FA42EA0C4CE24508D913EB76
:10C660000C0C00F1FF3202D2E24500F28980104644
:10C67000ACEB0A0CB6B2BCFBF7FA07FB1ACC0AFB10
:10C6800009F946EA0C42914506D99A180AF1FF3693
:10C6900001D291457AD8B2464AEA0040A2EB09029B
:10C6A000A0FB0E67BA42B446B94602D307D1B045E3
:10C6B00005D2B6EB0E0C67EB030301389946002D4B
:10C6C0006BD0B8EB0C0362EB090202FA04F4CB4026
:10C6D000CA4000211C43C5E9004242E7B740C6F109
:10C6E000200201FA06F3B44021FA02FC4FEA174E89
:10C6F00020FA02F21FFA87F8BCFBFEF11A430EFB88
:10C7000011CC01FB08F0130C43EA0C4C604507D92F
:10C7100017EB0C0C01F1FF3301D2604533D81946F9
:10C72000ACEB000C92B2BCFBFEF00EFB10CC00FB9D
:10C7300008F342EA0C4C634507D917EB0C0C00F1E7
:10C74000FF3201D2634525D81046ACEB030340EA23
:10C75000014130E72946284603E7841A6CEB0303BE
:10C7600001209A4615E702383C4455E702383C441C
:10C77000EDE6023ABC4433E7AEF1020E3B44D2E6AA
:10C7800002389C4474E70239BC44C9E7AAF1020AA2
:10C790001A4481E70238BC44D7E72946E1E600BFE6
:10C7A000704700BF2DE9E04F2746A046A146A246AC
:10C7B000A346A4462DED108B4FF0000545EC185B09
:10C7C00045EC195A45EC1A5A45EC1B5A45EC1C5AD3
:10C7D00045EC1D5A45EC1E5A45EC1F5AF1EE105A15
:10C7E0004FF66076C0F6FF763540E1EE105A84F3DE
:10C7F000008825462646A447BDEC108BBDE8E08F97
:10C8000082680C4B9A60036883F38888436883F3DB
:10C810008988027B02F00101EFF3948323F0030384
:10C82000920748BF43F0020309B143F0010383F3C9
:10C830009488704700ED02E0084AD36848B123F4B9
:10C8400000531B041B0C43F0BF6343F40033D3605D
:10C8500070479BB243F40053F5E700BF00ED00E0E2
:10C86000084AD36840B19BB243F4804343F0BF63AE
:10C8700043F40033D360704723F480431B041B0C44
:10C88000F4E700BF00ED00E0084AD36840B19BB276
:10C8900043F0080343F0BF6343F40033D3607047B1
:10C8A00023F008031B041B0CF4E700BF00ED00E0BD
:10C8B000034AD2F88C3043F44063C2F88C3070479E
:10C8C00000ED00E0084B1A6818B142F001021A604E
:10C8D000704722F001021A601A6811B142F0020298
:10C8E000F5E722F00202F2E7D0ED00E00B68013339
:10C8F0000B60014B1B6818470C1400202DE9F04F0A
:10C9000085B00E9C9B46012CB8BF0124012B0CBFA7
:10C910003023202316468246884601250A27002216
:10C92000DFF86C900293B6FBF9F301930AB9B145B5
:10C930001CD8019B414603F13000D047012201354C
:10C94000019B013F09FB13660A23012FB9FBF3F991
:10C95000E9D1414606F13000D047BBF1030F02D1C7
:10C96000641B002C0EDC05B0BDE8F08FBC42E7DB99
:10C97000BBF1020FE4D84146029803920135D0473B
:10C98000039ADDE741462020D047013CE9E700BF9C
:10C9900000CA9A3B014B1860704700BF0C1400207E
:10C9A000002313B502AC44F8043D02460B4603488D
:10C9B000214603F015FB02B010BD00BFEDC800001A
:10C9C0004FF02002EFF3118382F31188BFF36F8FD2
:10C9D0000121044AC2F8401583F31188BFF36F8F19
:10C9E00000207047009003500A2838B50446074DD0
:10C9F00004D1286843680D215B689847286843681C
:10CA0000E1B25B689847204638BD00BF08000020AF
:10CA100010B5044C204601F071F82046BDE81040E6
:10CA2000FFF7B8BFE9C9000008B5044801F054FD9C
:10CA3000034B1860FFF7ECFF002008BDDB1001007E
:10CA40000800002008B5114B1A686AB14FF0502257
:10CA5000D2F80823D10707D500220D481A60836851
:10CA60005B7A0BB903F0E6FC0A4B1A6862B14FF02F
:10CA70005022D2F80823920706D5002206481A60F1
:10CA8000BDE8084003F0D6BC08BD00BF005100500F
:10CA9000E414002004510050F014002000220D4B3B
:10CAA000C3F840214FF02002EFF3118182F3118887
:10CAB000BFF36F8F084AD3F804051368C01A20F03B
:10CAC0007F400344136081F31188BFF36F8F02F03E
:10CAD000CFBA00BF005001502400002070B51848A4
:10CAE00001F0FAFC48B3436800211B68984701260F
:10CAF00000244FF480334FF40012124D3146C5F834
:10CB00000845C5F84065C5F804330F4B15201C6077
:10CB10000E4BC3F88021224600F0A6FC152000F041
:10CB200093FC20460A4B1E602E60D5F80435334432
:10CB300023F07F43C5F8403570BD4FF0FF30FBE771
:10CB4000E2100100005001504051015000E100E0AE
:10CB50000850015070B5214EB0F1FF3F08BF30467C
:10CB60004FF02003EFF3118483F31188BFF36F8F2D
:10CB70001B491C4BD1F804251D680138531B23F0B9
:10CB80007F4301352B4420EAE070B042D4BF18182F
:10CB90009819821A22F07F4220F07F43022AC1F8BE
:10CBA000403504D984F31188BFF36F8F70BDD1F87D
:10CBB00004350D4AC31A23F07F435D1E954205D903
:10CBC0004FF40012094BC3F80021EBE7012B02BF21
:10CBD000023020F07F40C1F84005E3E7FEFFFF0090
:10CBE0000050015024000020FEFF7F0000E100E023
:10CBF0004FF02002EFF3118382F31188BFF36F8FA0
:10CC0000064AD2F80405064A1268801A20F07F40CE
:10CC100083F31188BFF36F8F704700BF005001503E
:10CC20002400002008B543B2002B0CDB012200F0E9
:10CC30001F018A405B091049203341F82320BFF3CC
:10CC40004F8FBFF36F8F830003F1A04303F5405371
:10CC50003128D3F8002806D0002A07DA02F00302B0
:10CC6000023A012A02D8054AC3F80028002103F03D
:10CC70007CFC002008BD00BF00E100E00001008056
:10CC800030B54FF4C13485B02E4D4FF4C1312E482C
:10CC900003F01CFB21682D4803F018FB29682C4881
:10CCA00003F014FB10220021684603F00FFD2368F7
:10CCB000684600930294FFF7A3FD0120FFF7D0FD23
:10CCC0000020FFF7B9FD0020FFF7DEFD0121002065
:10CCD000FFF7F8FDFFF7ECFD2C681E4803F0F6FAAD
:10CCE0000820FFF79FFF24F00104BFF34F8FBFF32D
:10CCF0006F8F6408640020462146224623469FED3C
:10CD0000160ADFED150A9FED141ADFED131A9FEDD9
:10CD1000122ADFED112A9FED103ADFED0F3A9FED59
:10CD20000E4ADFED0D4A9FED0C5ADFED0B5A9FEDD9
:10CD30000A6ADFED096A9FED087ADFED077AFFF7EF
:10CD400031FD00BF04820100441201005B120100AA
:10CD5000701201008E120100000000002DE9F8435E
:10CD60006F4803F0B3FA0021DFF800826D4F6E4D7B
:10CD700058F82140CA0301F5C07347F823406B48B7
:10CD800002F500434E1C03F0A1FA694B14F0100F9A
:10CD90006849694808BF194603F098FA14F0040F6F
:10CDA00014BF72212D21284603F090FA14F0020FCF
:10CDB00014BF77212D21284603F088FA14F0010FC3
:10CDC00014BF78212D21284603F080FA14F4807FC7
:10CDD00014BF6C212D21284603F078FA574803F040
:10CDE00075FA202E3146C3D1554B4E4AC3F3C43198
:10CDF000C3F30E03C3F50043C3F34313C2F8001596
:10CE0000C2F80435D2F80015D2F804254D48520175
:10CE100003F05CFA494803F059FA03F02AFB014693
:10CE200010B1494803F052FA444803F04FFA47481A
:10CE300003F04CFA0021DFF838813A4F3A4D58F8A8
:10CE400021404A0301F5E07347F82340404802F5CA
:10CE500000534E1C03F03AFA354B14F0100F3549CD
:10CE6000354808BF194603F031FA14F0040F14BF17
:10CE700072212D21284603F029FA14F0020F14BF65
:10CE800077212D21284603F021FA14F0010F14BF59
:10CE900078212D21284603F019FA14F4807F14BF5D
:10CEA0006C212D21284603F011FA244803F00EFAD4
:10CEB000202E3146C3D1214803F008FA4FF6FF7304
:10CEC0000024184D2348C5F8803403F0FFF9DFF83B
:10CED000A480C5F8C044DFF8A0901F4D05EBC40640
:10CEE000777955F83420002F14BF43464B4621462E
:10CEF0001A4803F0EBF957B91948013403F0E6F981
:10CF0000192CEBD10D48BDE8F84303F0DFB93079B7
:10CF1000FFF788FE08B11348EFE71348EDE700BFBD
:10CF20002011010000300050581101004311010090
:10CF300009110100001101002D120100401401002F
:10CF4000E07F01005B110100A1110100D11101007E
:10CF5000F311010007120100000E0100231201006D
:10CF600030120100371201003F120100800D010054
:10CF7000C80E0100151101000D11010010B50028A7
:10CF800050D0002A4ED0B1F5404F48D35318B3F5D6
:10CF9000424F06D9254CA1423BD904F61D24A34299
:10CFA0003AD803F066FB0020BDE810407146724697
:10CFB0007346B7EE000AF7EE000AB7EE001AF7EE76
:10CFC000001AB7EE002AF7EE002AB7EE003AF7EEA5
:10CFD000003AB7EE004AF7EE004AB7EE005AF7EE15
:10CFE000005AB7EE006AF7EE006AB7EE007AF7EE85
:10CFF000007A8EF3008C10B4F1EE10CA4FF6607414
:10D00000C0F6FF740CEA040CE1EE10CA10BCF44642
:10D010007447074CA14202D9064CA342C1D94FF034
:10D02000FF30C1E76FF01500BEE700BF0302FF004D
:10D030002F01FF003801FF002DE9F04F844685B035
:10D040000F4600296AD0002445F6013ADFF8D8E0FF
:10D05000344EDFF8D880DFF8D89001AD5EF824B008
:10D0600096E807000CEB0B0385E807009A0744D10C
:10D070005CF80B20424505D15A684A4502D19A68AE
:10D08000524544D00134032CE8D16FF00D0005B0B7
:10D09000B7EE000AF7EE000AB7EE001AF7EE001A34
:10D0A000B7EE002AF7EE002AB7EE003AF7EE003AA4
:10D0B000B7EE004AF7EE004AB7EE005AF7EE005A14
:10D0C000B7EE006AF7EE006AB7EE007ABDE8F04FFF
:10D0D000714672467346F7EE007A8EF3008C10B4F8
:10D0E000F1EE10CA4FF66074C0F6FF740CEA040C3F
:10D0F000E1EE10CA10BCF44674470022985CA95CAB
:10D100008842BFD101320C2AF8D1002BBAD020229C
:10D110001946384603F0ADFA0020B8E76FF0150065
:10D12000B5E700BF200D0100480F0100DEE61E2814
:10D130004CBBCE8F30B50D4B89B01C6808AB03F8E3
:10D14000190D0293012300220393CDE90513072350
:10D150008DF810208DF81C30636802225D6802A9EA
:10D1600046232046A84709B030BD00BF2800002054
:10D1700070B586B00E460DF1070105461446FFF75F
:10D18000D9FFC0B90D4B9DF80720186802AB039377
:10D19000022322EA060222438DF807208DF8085068
:10D1A0008DF8092004938DF81430436801225C68DF
:10D1B00003A94623A04706B070BD00BF2800002089
:10D1C00008B501F089F9024B1860002008BD00BFC6
:10D1D00028000020014802F0ABB900BF540F010045
:10D1E00008B530B143683BB1006801F063FB002033
:10D1F00008BD6FF4E040FBE70048F9E7EA8FFFFF66
:10D2000008B558B1436863B100684FF0FF3101F0D1
:10D21000DFFA0028044808BF002008BD6FF4E04092
:10D22000FBE70248F9E700BFE98FFFFFEA8FFFFF46
:10D2300038B5044618B90B4B0B485B6898476568CE
:10D2400055B115F00205206807D10146074801F0E5
:10D2500091FA25600023636038BD1422002103F099
:10D2600035FAF7E788140020AC1301002C000020E9
:10D2700010B5044618B9134B13485B6898476368A8
:10D28000BBB92368ABB94FF0FF3221460F4801F01C
:10D2900043FA08B923681BB90A4B0D485B689847E5
:10D2A00014220021206803F011FA636843F002039E
:10D2B0006360206803F0BDFA636843F001036360B4
:10D2C00010BD00BF88140020AC1301002C0000200A
:10D2D000D213010008B5064940230648142203F082
:10D2E00096FABDE808400449044802F059B900BF65
:10D2F000480000202C0000206C0F01005C0F010092
:10D3000004488168406A884203D003494FF0805244
:10D310000A6070476806002004ED00E012498A6840
:10D320004FF028001044EFF3098C80E8F01F202014
:10D3300080F31188BFF36F8F0C4F4FF000664A6A7D
:10D340008A603E60506E0023536680F3118804B5F6
:10D35000104603F040F9BDE8044002F1280090E8CF
:10D36000F01F8CF3098870476806002004ED00E088
:10D370001EF0040F0CBFEFF30880EFF30980816902
:10D3800011F8021C0229FFD001B503F019F901BD03
:10D39000014910220A60704710ED00E0404080F320
:10D3A000118830BF704700BF404080F311884FF0B4
:10D3B00004007146014202D0EFF3098001D1EFF37E
:10D3C0000880714601B500F061F901BD30BFFFF77B
:10D3D000FDBF00BF01B572B60B4A106A00281EBF20
:10D3E0000021116203F011FA62B6EFF30580A0F19B
:10D3F00010004FEAC0000549014409C99847BDE83B
:10D40000014003490847000068060020880A01001F
:10D4100001D30000094A0A49936809685866996669
:10D4200008494B6843F080534B60002383F3118815
:10D43000BFF36F8F9368986E704700BF6806002037
:10D44000D80F010000ED00E043B2002B08DB012201
:10D4500000F01F0002FA00F0024A5B0942F82300C4
:10D46000704700BF00E100E043B2002B01F1010171
:10D47000A8BF03F160434FEA4111B8BF054BC9B2E1
:10D48000ABBF03F5614300F00F0083F8001319549C
:10D49000704700BF14ED00E02DE9F0418C1888467C
:10D4A00017461E4604220A9B0999054603F09EFA78
:10D4B00000220D49A4F1200323F0070321F001010C
:10D4C000C5E91322C5E91687996106991E6059605E
:10D4D000079999600899D9604FF08071D961AB6460
:10D4E0006A66BDE8F08100BFADFF0000F8B51E46DA
:10D4F00005460C4617460023E1EE103A00F06EF99F
:10D500000B4B3C4428469D6024F0070403F063F86D
:10D51000304684F3098863B64FF0000181F3118827
:10D52000BFF36F8F00210022002302F03FFD00BFF8
:10D5300068060020114A08B5114B22F07F029A605C
:10D54000BFF34F8FBFF36F8FD3F8882042F4A00250
:10D55000C3F888200B4A536823F040435360BFF35D
:10D560004F8FBFF36F8F0023E1EE103A00F0F4FF0E
:10D5700000F0FCFF00F000F901F02AF800C2000002
:10D5800000ED00E030EF00E002F0AEFE202080F37E
:10D59000118808484FF40061401880F30988EFF3C0
:10D5A00014800221084380F31488BFF36F8FFFF7C4
:10D5B000C1FF0000080C00200C4B9A6A9A6A9A6A14
:10D5C000920708D55A6B9A6A120604D518B19A6A5E
:10D5D00022F080029A6200209A6A9A6A9A6A9A6A8B
:10D5E00042F0FF029A620870704700BF00ED00E051
:10D5F0000D4B9A6A9A6A9A6A920508D59A6B9A6A4A
:10D60000120404D518B19A6A22F400429A620020EA
:10D610009A6A9A6AD205044A58BF9B6A936A43F48D
:10D620007F4393620870704700ED00E0074B0020D5
:10D630009A6A9A6A9A6A9A6A9A6A9A6A9A6A9A6ACA
:10D640006FEA02426FEA12429A62704700ED00E010
:10D650000D4B9A695A695A69D0070FD45A699107D4
:10D660000CD45A69520709D45A69100706D45A696A
:10D67000D10603D45A69920658BF5A695A6942F0D2
:10D68000FF025A61704700BFD0ED00E037B5044695
:10D69000314A01F07F40B0F17F4F536859D111F00A
:10D6A00001000AD0480611D411F0080009D0EFF3A8
:10D6B0008984506810F4006008D1214602F07EFF92
:10D6C00025E0EFF3888452681105F6D40022C3F3F5
:10D6D0000803033B8DF80720042B30D8DFE803F064
:10D6E000033135262D001C4BDA6A920727D4D86AFD
:10D6F00010F0804007D028331B7853B101200DF182
:10D700000701FFF759FF9DF80730002BD5D003B074
:10D7100030BD124B1B782BB101200DF10701FFF733
:10D7200067FFF0E70E4B188885B215B1FFF77EFF53
:10D73000E9E70C4B58690028E5D0FFF789FF002086
:10D74000E1E70DF107010020DBE70DF10701002003
:10D75000E5E70020B1E700BF00ED00E029ED00E0C3
:10D760002AED00E0D0ED00E0024A536943F01003D7
:10D770005361704700ED00E0002320210348C218E8
:10D780000133412B82F80013F9D1704700E100E02A
:10D7900038B505464FF02003EFF3118483F3118869
:10D7A000BFF36F8F03F003F90A4B9B68AB420BD1B9
:10D7B000094B5A68C2F3080212B92046FFF72AFE45
:10D7C0005A6842F080525A602046BDE8384003F063
:10D7D00067B800BF6806002000ED00E010B50E4BF2
:10D7E00088B002930D4B0E4C03930E4B08A8049384
:10D7F00002AB40F81C3D0C4A2346012100F002F91F
:10D8000000230793094B0121E41A05A80593069408
:10D8100000F002F908B010BD000000200000000078
:10D820000000012006000100000000200000002090
:10D8300010B50B680C7A23F01F0304F01F021A4383
:10D84000CB68640923F01F03044943F0010343EA52
:10D8500044038860CA600B6110BD00BF90ED00E01A
:10D860002DE9F04F8046894614460027484D85B083
:10D870004F4507DA58F827305E68C6B31F2E05D823
:10D880006FF01504204605B0BDE8F08FF206F7D121
:10D89000D3F800A01AF01F0FF2D1504602F031FB6E
:10D8A000834606EB0A00013802F02BFB8345E7D1E3
:10D8B0001BF1160FE4D0631E5B45E1DBC5F808B031
:10D8C000E86858F82710C5F808B02E6920F01F0046
:10D8D000D1E900321A44984246F01F0602F1FF3A9D
:10D8E00018D1564505D15FFA8BF002F07CFE013766
:10D8F000BEE7C5F808B0EB6822F01F0203F01F0373
:10D900001A43EA60E0B202F06EFE10F1160FB7D0D3
:10D91000441CECE7C5F808B02A69013B23F01F035B
:10D9200002F01F0213435645E0B22B61EBD002F028
:10D930005AFE10F1160FA3D0C5F808B0EA689DF89A
:10D940000830013E62F304038DF808302B699DF81E
:10D9500008205B0863F347128DF8082058F8272049
:10D960000130D2E900321344009323F01F031E4418
:10D97000A6EB0A06C4B226F01F060F2C03963FF64C
:10D980007FAF20466946FFF753FF0134AFE700BF82
:10D9900090ED00E00522034B5A60BFF34F8FBFF3B9
:10D9A0006F8F704790ED00E0BFF35F8F0022014B57
:10D9B0005A60704790ED00E070B50E4D2E68102E45
:10D9C00015D80024FFF7F0FF0B4B0C4A1A63A64250
:10D9D00005D10B4B1E70FFF7DDFF002070BD69689D
:10D9E000204601EB0411FFF723FF0134EFE74FF06E
:10D9F000FF30F3E72C0D010090ED00E0AAFF44009A
:10DA0000C406002010B5034C2278FFF729FF2070D0
:10DA100010BD00BFC40600202DE9F74F8946074618
:10DA20000026DFF89080DFF890A0214C4E4519DAEF
:10DA3000D7F804B0BBF1000F36D03B68184601930D
:10DA400002F05FFA019B05460BEB0300013802F080
:10DA500058FA1423854203FB06F306D06FF0150233
:10DA600048F8032003B0BDE8F08F15F1160F48F811
:10DA70000350F7D09AF80020AA42F3DDA560434492
:10DA8000A560E068197B60F3040119732169187BB4
:10DA9000490861F347101873E26822F01F025A60C8
:10DAA000226922F01F021A6101360C37BEE700BF5F
:10DAB00090ED00E048050020C406002070B50C4B36
:10DAC0000E461C780546234600210A4A0F2B0BDD23
:10DAD000094B191D1868FFF7ABFE22463146284650
:10DAE000BDE87040FFF7BCBE936011610133EDE704
:10DAF000C406002090ED00E048050020014B1860AE
:10DB0000704700BF3014002008B51248FFF758FBDB
:10DB1000F0B902F011FDD8B902F01AFDC0B9012028
:10DB200002F01BFDA0B9012002F00BFD80B9072017
:10DB300002F0F0FC60B91F2002F0E6FC40B90720BB
:10DB400002F0F3FC20B9BDE80840012002F0E8BC77
:10DB500008BD00BFFF13010010B5044600220121DB
:10DB60000A20FFF781FC2368064A9868234600F1E3
:10DB7000080100F05BFA044B984214BF6FF00F00ED
:10DB8000002010BD8DDB00000000AD0B02788B681B
:10DB9000012A0AD003D3022A09D0064A00E0064A25
:10DBA0001A6203F1100001F0FFB8044AF8E7044AD2
:10DBB000F6E700BF0100AD0B0000AD0B0100AE0B9E
:10DBC0000200AE0B2DE9F04F044687B00D4691469A
:10DBD0009A4680684FF0FF3101F00CF92368002766
:10DBE000986800F067FADFF8988023684F45D3F80B
:10DBF00008B001D3002522E02E7A16F0080136D1B4
:10DC000012220DF1060002F061FD06F001038DF80D
:10DC100004306B6816F0020F02932B680CBF2022B1
:10DC2000002201A958468DF805A0049300F06EFA71
:10DC300040450FD0114B98421CD06FF0040523686B
:10DC4000986800F047FAA06801F0AEF8284607B0DF
:10DC5000BDE8F08FA06810304FF0FF3101F0CAF836
:10DC6000A3680C351B6A4345E7D10137BDE76FF068
:10DC70002205E4E76FF00F05E1E700BF0B00AD0BF5
:10DC80000000AD0BF0B54B79012B29D0032B24D12B
:10DC900001268B79032B20D1CD792DB1012D1CD1FB
:10DCA00003689B681B79C3B10A7912B1022A14D1A7
:10DCB0000E2247F6122703689B681C680B68BB425C
:10DCC00074D029D8B3F5965F6AD014D8B3F5167F0F
:10DCD0004FD007D8B3F5967F7DD06FF022005BE080
:10DCE0000026D6E7B3F5966F57D0B3F5166FF4D18B
:10DCF0004FF41D233FE0B3F5615F53D004D8B3F573
:10DD0000165FEAD1354B36E0B3F5964F4CD0B3F5FC
:10DD1000E14FE2D1324B2EE0B3F5E13F4FD012D8C4
:10DD20004DF6C027BB4244D005D8B3F5164FD4D129
:10DD30004FF41D031FE0B3F5614F3DD0B3F5963F9F
:10DD4000CBD1284B17E0B3F5E12F3ED008D8B3F57F
:10DD5000613F37D0244FBB42BFD14FF080630AE010
:10DD6000B3F5612F34D0214FBB42B6D14FF0805371
:10DD700001E04FF41C332A43C4F82435C4F86C2561
:10DD80002EB1D4F86C3543F01003C4F86C358368B9
:10DD900003C983E803000020F0BD4FF49E23EAE7A7
:10DDA000134BE8E7134BE6E7134BE4E74FF40003AC
:10DDB000E1E74FF46503DEE74FF46B03DBE74FF079
:10DDC000EB73D8E74FF06C73D5E74FF0E863D2E719
:10DDD0004FF07063CFE74FF4A033CCE7005027003B
:10DDE00000C0750000903A0190D0030040420F003F
:10DDF00000B0130000F03A0000A04E00026870B5B9
:10DE00009268184B14684FF48022856803219A6049
:10DE100012260022C3F84812C3F84C22C4F80C653D
:10DE20001326C4F814654FF480169E60C3F8501290
:10DE3000C3F854221423C4F8083515232946C4F81E
:10DE40001035FFF71FFF58B90823C4F800351D44EB
:10DE50000123C4F81001C4F83455C4F838352360E0
:10DE600070BD00BF00258450F0B5DAB100231C4618
:10DE70000E4E0F4FB34206D3002C14BF6FF00800B4
:10DE80006FF0010009E057F82350D5F80CC0604549
:10DE900006D14C1E11B908461560F0BD214601247B
:10DEA0000133E7E76FF00D00F7E700BF0000000067
:10DEB0004C140100524A136843F00203136000221D
:10DEC000D30003F57F03D3F80013013108D0D3F852
:10DED00000130132D3F80433B2F5807F0B60EFD129
:10DEE000484AD36913F001033BD0474B1946D3F896
:10DEF0000024012AFBD1C3F80425D1F80034012BFA
:10DF0000FBD1404BDA69D20708D5DA693E4922F0E5
:10DF10000102DA61D1F80024012AFBD11A6A013228
:10DF20000AD11A6A22F0FF0242F020021A62364A2F
:10DF3000D2F80034012BFBD10022334BC3F8042567
:10DF4000D3F80024012AFBD1BFF34F8F2F49304B68
:10DF5000CA6802F4E0621343CB60BFF34F8F00BF87
:10DF6000FDE7126A0132C0D02A4A116809290AD194
:10DF700029490968013901299EBF4FF05021C1F894
:10DF80001431C1F818311368092B09D1224B1B68D1
:10DF9000012B01BF214A1360A2F63822C2F878355E
:10DFA0001C4B1A68092A0BD11B4A1268022A07D196
:10DFB00000211A4A11600121A2F63822C2F8781510
:10DFC0001B68092B06D1144B1B68022B02BF0C22C5
:10DFD000134B1A600D4BD3F88C2042F44062C3F807
:10DFE0008C20D3F8882042F47002C3F88820BFF355
:10DFF0004F8FBFF36F8F0B4B0B4A1A60704700BFF8
:10E00000D0ED00E00080FF000090035000ED00E044
:10E010000400FA053001FF003401FF00384A0050C7
:10E02000E4AE0350681400200090D0034FF0340C8D
:10E03000F8B506791B4D0CFB06FC05EB0C0494F8B7
:10E040002D7067BB45F80C2040F20C6C63604B7B75
:10E05000A76084F8307084F82F7084F832300C6830
:10E06000114F04F1800347F823C04B68006803F1A7
:10E07000800E47F82EC0C0F80845C0F80C358B68F4
:10E08000C0F824351AB140F30730FFF7DDF9342327
:10E0900003FB06550123054885F82D30F8BD0448DB
:10E0A000FCE700BF5C050020002584500000AD0B9C
:10E0B0000500AD0B062102680379C2F80015342172
:10E0C000034A01FB0323022283F82D20704700BF7F
:10E0D0005C0500200268037934200A4900FB031321
:10E0E000002009499860C2F80813D2F8001221F400
:10E0F000BC51C2F80012C2F80005012283F82D209D
:10E10000704700BF5C05002002029C01CB682DE92E
:10E11000F04703F06043B3F1005F0D46944602D030
:10E120008E48BDE8F0874FF0340E07798C4E8D4B4A
:10E130000EFB076E0468C4F808339EF82F3003F016
:10E14000FF0A2BB1DEF808308748C4F80433E8E74B
:10E1500012F0140F0CBF0123002389468EF82F30D4
:10E160000EF10C08B9E80F00A8E80F00D9F800304C
:10E17000C8F80030CCF300138EF830306B78C4F858
:10E1800088351CF0010318BF0123C4F804A1C4F8AA
:10E1900024A1C4F850351CF0020318BF0123C4F8B1
:10E1A00040352B78032B00F2BB80DFE803F07CA323
:10E1B0005D022A6902F06043B3F1005FB0D14FF411
:10E1C0008073E968C4F800326B68C4F84415C4F879
:10E1D000483501210023C4F85031C4F86031C4F837
:10E1E00048312162A160D4F850110029FBD0C4F855
:10E1F0005031AB68C4F84425C4F84835342303FBD8
:10E2000007635A4A9A604FF48273082258481CF0F8
:10E21000080F04D1297803291CBF0121A150342201
:10E220007A43B118B258002A7FD1012123441A68D9
:10E23000002A00F08780342202FB07660022D4F80F
:10E24000C434C4F8C43486F82F20002B3FF469AFDF
:10E25000484A13F0020F484808BF104613F0040F55
:10E26000464B18BF18465CE76B68EA68C4F844255B
:10E27000C4F848352B6903F06042B2F1005F7FF4C7
:10E280004FAFAA68C4F834354FF48453C4F8382526
:10E29000C4F80032342340F2022203FB07639A6081
:10E2A00001232362AFE76B68EA681CF0200FC4F813
:10E2B0004425C4F848354FF034030FD04FF4807232
:10E2C00003FB0763C4F80022284A9A600023C4F8BD
:10E2D00048314FF4A4730122226296E74FF4007292
:10E2E000C4F8002240F2022203FB07639A604FF455
:10E2F0008273F0E76B68EA68C4F83425C4F83835EF
:10E300004FF48053C4F80032342340F2022203FB5E
:10E3100007639A600123002223624FF4827375E73A
:10E320004FF482730822164871E71CF0040F1CBFDB
:10E330004FF400738B60342303FB0766B368C4F8A3
:10E340000433EEE6D4F82451002D3FF470AFC4F846
:10E3500024214FF482732162616167E70A00AD0BEB
:10E360005C05002002029C010B00AD0B00020400C2
:10E370000000AD0B0100AD0B0100AE0B0200AE0BB7
:10E380000400AD0BF0B5454B87B0D3F824211D46F2
:10E39000434C92B10022C3F82421D3F8042162B97E
:10E3A000A268C3F808230222A260A268C3F804236B
:10E3B00001221A625A6107B0F0BDD5F80431002B72
:10E3C0003FD00023374FC5F8043101AE0FCF0FC641
:10E3D0003B6894F82E10336079B1237B012B0CBF7E
:10E3E000D5F83C25D5F84C25022B2C4B02920CBFBE
:10E3F000D3F83C35D3F84C3503930022274B94F8DF
:10E400003000C3F86021C3F85C2100B129B1C3F822
:10E410000022A260244AC3F80823204AD2F8C43458
:10E42000C2F8C4349A0733D501238DF8003094F82C
:10E4300030300BB984F82F30D4E900316846984762
:10E44000B9E7C5F84831237B83B9164F01AE0FCF2A
:10E450000FC63B68336094F83030002BDDD1C5F82F
:10E460000032A360104BC5F80833D6E74FF40073B1
:10E47000C5F8003240F20223A36003F1CE73C5F861
:10E480000833A368C5F804330123AB602B6292E71D
:10E4900013F0040318BF0223C7E700BF00A0005019
:10E4A0005C0500206805002002029C0170B5002672
:10E4B000084B53F82040013053F82050A54200D8B3
:10E4C00070BD236820465B68984700B166600C34D5
:10E4D000F4E700BFC40F0100104B70B505461E469F
:10E4E0000F4C9C4204D10E4CB44209D1002412E0DE
:10E4F00062681AB122681268AA420CD00C34F0E7A4
:10E5000063680BB90C34EFE723682846196802F0FA
:10E510008CF80028F6D1204670BD00BF44150020BD
:10E52000B414002008B50B4D4FF02002EFF3118317
:10E5300082F31188BFF36F8F02F076FA012104464F
:10E540000228D8BF084602F07FFA2C62FEF726FFA9
:10E55000EAE700BF680600200248034A0021121AB9
:10E5600002F0B4B800000020C806002008B5064834
:10E57000064A0749121A02F07CF8BDE80840054A2D
:10E580000549064802F075B80C140020A8150020B3
:10E590004C140100000000004C1401000000002099
:10E5A00008B50220FFF782FF074801F08FFE032025
:10E5B000FFF77CFF00F082FC01F09CFC034A137B18
:10E5C00023F00103137308BD10140100FC050020A3
:10E5D00080B5374BA2B083F308880025E023354C83
:10E5E000012784F82230E57725766576A576E576ED
:10E5F000636A314E43F4E0236362636A43F40023A9
:10E600006362A563FFF7B0F8FEF7C2FE4FF0FF3379
:10E61000A362E36207AB6C222946184602F056F863
:10E62000264C8DF82970A0602846FFF73FFF38463A
:10E63000FFF73CFF00F0A6FB214B66624FF48062BF
:10E64000CDE90473CDE902551E4BCDE900551E49B5
:10E65000304600F019FC737B23F0040213F01B0F0B
:10E66000727304D1B36913B9304600F01BFA174B2B
:10E67000012205930F23CDE903320023144DCDE988
:10E68000013300934FF4A072124B1349284600F057
:10E69000FBFB6B7BE56023F004036B730F4B4FF4C4
:10E6A0008062C4E906330849064B0348FEF71EFFA3
:10E6B0000814002000ED00E0FC05002068060020A2
:10E6C00042140100A1E50000C80600204714010023
:10E6D0009005002025E50000C80A002080060020E3
:10E6E00070B500240A4B0B48834201D3002070BD53
:10E6F00000211A699D685C61A94201D11C33F3E7CE
:10E700005E6901311660DE685A613244F4E700BF89
:10E71000441500204415002010B513460C464FF058
:10E720002002EFF3118182F31188BFF36F8F4269EA
:10E7300062B1226043691B6843618369013383616D
:10E74000002081F31188BFF36F8F0DE01BB92360A8
:10E750006FF00B00F5E70246044800F0BDFA18B967
:10E76000034B9B685B69236010BD00BFC50600209A
:10E770006806002070B504460D464FF02003EFF305
:10E78000118683F31188BFF36F8F02F0DAF880B13E
:10E7900000212A6881664261427BD20603D18369E7
:10E7A0000BB900F07FF93146BDE87040074802F030
:10E7B00068B82B6862691A602B686361A369013BC2
:10E7C000A36186F31188BFF36F8F70BDC50600206B
:10E7D000F8B504460F464FF02003EFF3118583F39D
:10E7E0001188BFF36F8FC26830495AB180688E6854
:10E7F000B04215D0B7B985F31188BFF36F8F6FF0B2
:10E800000F000CE08B6893F90E3023618B680132A6
:10E81000E260A36085F31188BFF36F8F0020F8BD1D
:10E820002369F2E790F90E3096F90E109942A8BFCD
:10E83000194621EAE17199422BDA00F061FA0646A5
:10E840003B46224629461A4800F046FA0028E6D000
:10E850004FF02003EFF3118583F31188BFF36F8F1F
:10E86000236821699C4207D033B193F90E30994255
:10E87000A8BF194621EAE171A06890F90E309942CB
:10E8800009D16EB129460A4801F0FBFF6FF00A007A
:10E89000C5E70026D4E700F033FA0028F2D1F0E70C
:10E8A00085F31188BFF36F8FF0E700BF6806002083
:10E8B000C50600201E4B70B59A680446D37B013B09
:10E8C000D373C368012B05D0013BC360BDE8704022
:10E8D00000F0CCB84FF02003EFF3118683F31188DA
:10E8E000BFF36F8F0169806890F90E30994201D0B3
:10E8F00000F006FA204602F024F80546A06080B138
:10E90000437BDB0603D183690BB900F0CBF886F3B8
:10E910001188BFF36F8F0023AB6695F90E3023612A
:10E92000D4E7E06086F31188BFF36F8FCEE700BFB6
:10E9300068060020EFF305800D2809D828B1054BA3
:10E94000586880F40060C0F3C02080F00100704778
:10E950000120FAE700ED00E010B5084C23685BB138
:10E96000FEF746F92368064A184410610021BDE805
:10E970001040184602F068B810BD00BFA006002085
:10E9800068060020F8B50D464FF02003EFF3118420
:10E9900083F31188BFF36F8F4FF4004140F2E736E5
:10E9A00000270022C1FB0067094B30461A61394637
:10E9B0004FF47A720023FDF733FD064B1860064BC7
:10E9C0001D60FFF7C9FF84F31188BFF36F8FF8BD97
:10E9D00068060020A00600209C0600204FF02003BF
:10E9E000EFF3118183F31188BFF36F8F044B9A68A3
:10E9F000D37B013BD37381F31188BFF36F8F7047D3
:10EA000068060020094B03F12802824205D19B6869
:10EA10008B4202D14B7BDB0607D1D1E900231A6080
:10EA20000A6853600023C1E900337047680600207C
:10EA300038B50D4C024604F1280001F04BFF0546A5
:10EA400000B9E568A3684AB95A7BD20606D1AA691B
:10EA500022B9DA897F2A01D9636238BD9D4201D08B
:10EA6000FFF77AFF6562F8E76806002010B54FF0FF
:10EA70002003EFF3118483F31188BFF36F8F084BEA
:10EA800000209A68D37B0133D373FFF7D1FF84F35F
:10EA90001188BFF36F8FBDE8104001F011BF00BFB8
:10EAA00068060020F8B54FF02003EFF3118483F3DC
:10EAB0001188BFF36F8F164A114651F8283F8B42D9
:10EAC0000CD05BB1D66A90F90E5093F90E70AF423C
:10EAD0000BDCB34202D01B68002BF6D1D36A016075
:10EAE0004360D36A1860D06205E05A68C0E900321A
:10EAF0005A6810605860437B43F040034373002022
:10EB0000FFF796FF84F31188BFF36F8FF8BD00BF46
:10EB100068060020F8B504464FF02003EFF3118596
:10EB200083F31188BFF36F8F437B5A0603D50146E9
:10EB30001848FFF767FF184A02F12801D2E90A30A6
:10EB40008B420BD053B194F90E6093F90E70B7421B
:10EB50000ADC834202D01B68002BF6D1C4E9001006
:10EB6000D36A1C60D46205E05968C4E90031596871
:10EB70000C605C60637B906843F040036373031B2D
:10EB800058425841FFF754FF85F31188BFF36F8F48
:10EB9000F8BD00BF9006002068060020154A1649FF
:10EBA00038B50C689368A342144603D1BDE83840D9
:10EBB000FFF7D2BE00250D6010490968B9B1D989A7
:10EBC0007F2914D80E4993F90E5009688D420EDB47
:10EBD0000C498B420BD0996949B91169814203DC18
:10EBE0001846FFF797FFE1E7091A116138BD0023C6
:10EBF0002361FBE76806002098060020A00600209D
:10EC00009C0600209005002038B504464FF02003F4
:10EC1000EFF3118583F31188BFF36F8F437B5A069F
:10EC200007D501460948FFF7EDFE637B23F040035B
:10EC30006373074B9868031B58425841FFF7F8FE6F
:10EC400085F31188BFF36F8F38BD00BF9006002099
:10EC50006806002070B504460D461646FFF7D4FF3F
:10EC6000637B43F002036373EDB12B68A5609D42A3
:10EC70000CD05BB194F90E2093F90E1091420CDC8C
:10EC800069688B4202D01B68002BF5D16B68256048
:10EC900063606B681C606C6005E05A68C4E9003210
:10ECA0005A6814605C60731C13D04FF4004540F246
:10ECB000E73000214FF47A72C5FB06010023FDF70F
:10ECC000AFFB0449421C04F11800BDE8704000F09D
:10ECD0008BB970BDE108010010B50C461146064A1B
:10ECE0009068064A10601A46FFF7B4FF2046BDE858
:10ECF0001040FEF78FBB00BF68060020980600207A
:10ED00002DE9F84304464FF02003EFF3118983F314
:10ED10001188BFF36F8F01F092FD4EB2804668B349
:10ED2000174D214605F128073846FFF76BFEAB6A01
:10ED3000A673BB422A460AD04BB1E96A93F90E008A
:10ED4000B0420BDC994202D01B68002BF6D1D36A8B
:10ED500027606360D36A1C60D46205E05A68C4E926
:10ED600000325A6814605C600120FFF761FE89F38D
:10ED70001188BFF36F8F4046BDE8F883A673F6E7AE
:10ED8000680600200021044B084603F12802C3E96D
:10ED90000A22FFF7F7BD00BF68060020014B986804
:10EDA000704700BF6806002070B504464FF020038E
:10EDB000EFF3118683F31188BFF36F8F01F0C1FD6C
:10EDC000054670B1437BDB0603D183690BB9FFF7BE
:10EDD00069FE0023AB663146BDE87040044801F08F
:10EDE00050BDD4E902329A4218BF0133A360F2E762
:10EDF000C506002010B402460B464FF02000EFF38A
:10EE0000118180F31188BFF36F8F94684CB1013C7E
:10EE1000946081F31188BFF36F8F00205DF8044B7D
:10EE2000704733B981F31188BFF36F8F6FF00F0014
:10EE3000F4E702485DF8044BFFF74EBFC50600201B
:10EE400010B502464FF02003EFF3118483F31188CD
:10EE5000BFF36F8F437B590704D484F31188BFF34A
:10EE60006F8F10BD23F00403437301F097FD10B1C1
:10EE70001046FFF717FE2146BDE81040014801F09B
:10EE800000BD00BFC506002030B587B00E9D04460A
:10EE900004950D9D03950C9D02950B9D01950A9D72
:10EEA0000095FEF7F9FA044B9B6813B9236607B087
:10EEB00030BD1B6EFAE700BF680600202DE9F04F59
:10EEC000284E294DB04687B0B54205F1300410D325
:10EED000FFF784FD4FF4004940F2E7360027224C4B
:10EEE000DFF888A0444521D307B0BDE8F04FFFF715
:10EEF000BDBD54F8043C059354F8103C049354F8F9
:10EF0000143C039354F8183C029354F81C3C0193AE
:10EF100054F8203C009354E90A2354E90C01FFF70C
:10EF2000B3FF54F8303CDD642546CDE7616A4B1CE5
:10EF300004D0256821B92846FFF782FF3034D1E795
:10EF4000B346BC46C9FB01BC4FF47A720023584655
:10EF50006146FDF765FA5146421C05F1180000F0C4
:10EF600043F8EBE74415002044150020E1080100B8
:10EF7000034B1B680BB9FDF73BBE0020704700BF79
:10EF8000A4060020036840B1084A5268904204D0A9
:10EF90001BB19A6881680A449A60426813600368EA
:10EFA0005A600023C0E90033704700BF6C14002092
:10EFB0000B4B10B51C689C4208BF0024FFF7D8FF1C
:10EFC00054B1A368181A20EAE070064B1B6913B10C
:10EFD0009842A8BF184610BD6FF00040F5E700BF8B
:10EFE0006C1400206806002070B504461646C16007
:10EFF0004FF02003EFF3118583F31188BFF36F8F78
:10F00000FFF7B6FF012EACBF80190130174BA0608F
:10F010001A689A4201D05E6832B95A682360626009
:10F020005A6814605C600BE09068A168884216DD45
:10F03000411A91605168C4E9002151680C60546024
:10F040001A689A4206D0944204D1FFF7B1FF00211A
:10F05000FDF780FD85F31188BFF36F8F70BD091A2E
:10F060009642A160D9D01268D6E700BF6C14002088
:10F070002DE9F04B0446FFF791FD4FF02003EFF32D
:10F08000118583F31188BFF36F8F214F214EB8464E
:10F09000DFF884903460D9F8004032684C45D7E9F5
:10F0A00000BC05D024B1A368934214DD9B1AA36071
:10F0B00000241BEB02004CEBE271C8E90001346054
:10F0C000FFF776FF2146FDF745FD85F31188BFF375
:10F0D0006F8FBDE8F08B1BEB03004CEBE371D31A91
:10F0E00033600023C7E90001A3602046FFF74AFF11
:10F0F00085F31188BFF36F8FE36898474FF02003C3
:10F10000EFF3118583F31188BFF36F8FC3E700BF5F
:10F1100000000020A40600206C14002038B5074C25
:10F12000074DAC4201D3002038BD04F11403204642
:10F13000C4E9053300F0EEFE1C34F2E7441500206C
:10F140004415002001F07EBA0A46002101F0BEBA43
:10F1500010B5114800F048F800B110BD0F4800F09C
:10F1600043F80028F9D10E4C204600F03DF8002865
:10F17000F3D10C4B0C481C6000F036F80146002817
:10F18000EBD100F02DF8044608B1204610BD00F088
:10F1900051F82046FAE700BF8014002074140020C4
:10F1A0007C140020841400207814002008B508483E
:10F1B00000F024F8074800F021F8074800F01EF896
:10F1C000064800F01BF8BDE8084000F00BB800BF8F
:10F1D00080140020741400207C1400207814002077
:10F1E00000207047704700BF08B5034B02681B68DA
:10F1F00010689847002008BD9014002008B5034B04
:10F2000002685B6810689847002008BD90140020D1
:10F210000268024B10689B68184700BF90140020DA
:10F2200008B5034B0268DB6810689847002008BDEA
:10F230009014002070B5094C094D2069AB689847BF
:10F2400018B1084B08485B6898470021074AEB68EB
:10F2500011602069BDE87040184700BFA01400206D
:10F260009014002088140020DC0F0100A806002064
:10F2700070B5144C144D0646AB6820699847F0B938
:10F28000124A13685EB91BB901201149C1F8000583
:10F2900001331360EB6820699847002070BD002B94
:10F2A000F8D0012B08BF0A4903F1FF3308BFC1F8AA
:10F2B000000520691360EB6898470020EEE70548D9
:10F2C00070BD00BFA014002090140020A8060020EC
:10F2D00000008450E98FFFFF002070470020704736
:10F2E000430503D54FF0FF32024B1A60024B186002
:10F2F000704700BF08118450081A8450014B1860F1
:10F30000704700BF041A845008B100F003B84FF4EE
:10F31000750070470246074803681342FCD021B1CC
:10F32000054B06481B680B600360054B00201A6004
:10F33000704700BF001A8450041184500811845093
:10F34000081A845000F0A0B830B129B1002301445C
:10F35000037001308142FBD1704700BF2DE9F041BD
:10F36000ADF51A7D0F4605920021144612A84FF400
:10F3700008721E4601F0AAF9002308A8194628229F
:10F38000069301F0A3F9002F3CD0002E3AD0002CB8
:10F3900038D0042106A8FFF7D7FE08A82821FFF7D8
:10F3A000D3FE08A800F032F878B14FF0FF3512A86C
:10F3B0004FF40871FFF7C8FF06A80421FFF7C4FF48
:10F3C00028460DF51A7DBDE8F08112AB0DF11C0841
:10F3D0000390CDE90163024605AB08A9CDF8008092
:10F3E00006A800F0E9FC0028DFD13368A342DCD393
:10F3F000D8F800100546083138462246FFF7A2FE2D
:10F400003460D4E74FF0FF35DAE700BF1C2330B596
:10F4100083B002A941F8043D044600F0B1F9054665
:10F42000D8B9019B1C2B1BD1D4E900320121003338
:10F43000E16118BF01230AB143F00203A26832B9A7
:10F44000E268AAB9C4E908323BB90D4D09E0E268A7
:10F4500043F0040362B9C4E90832284603B030BD62
:10F46000084D20461C21FFF76FFE284603B030BD33
:10F470000022284643F00803C4E9083203B030BD37
:10F480000E0CF000370CF00010B50C4C236813B1D3
:10F490000B4B1B686BB900F031F938B10138062805
:10F4A00096BF084B084853F8200010BD0122044BBA
:10F4B0001A6001230020236010BD00BFAC060020AD
:10F4C000B0060020FC0F0100FE8FFFFF10B5094CB5
:10F4D00023681BB101230020236010BD00F07CF8DD
:10F4E0000028F7D00138062896BF034B034853F88D
:10F4F000200010BDAC060020FC0F0100FE8FFFFFB6
:10F50000BFF34F8F0549064BCA6802F4E06213430C
:10F51000CB60BFF34F8F00BFFDE700BF00ED00E001
:10F520000400FA05014B5B68184700BF88140020EF
:10F53000024BD0E90012C3E9001270478814002082
:10F54000704700BF10B5044620B1BFF35F8F0020A5
:10F55000206010BD0348FFF7E5FFBFF35F8F002079
:10F56000206010BD3C10010010B5044610B100230E
:10F57000236010BD0248FFF7D5FF0023236010BDB4
:10F580001810010050B10122D0E8EF3FC0E8E12F90
:10F590000029F9D1012BF7D0BFF35F8F002070470E
:10F5A00070B40B4B0668C268D0E90154C3E902424B
:10F5B000C3E90065D1E903020E68064BD1E90154A5
:10F5C000C3E90065C3E902401A6170BC704700BF1F
:10F5D00090140020A014002010B5FFF77DFE70B934
:10F5E000FFF7B6FD80B9FFF743FE80B9114B1B68EA
:10F5F0001B0EF02B0DD00624FFF770FE00E0032455
:10F60000FFF7D4FD204610BD0424204610BD002481
:10F61000F2E7094A094B12689A4201D00724EBE746
:10F620000120FFF725FE0028F1D1054B04461860A4
:10F63000E8E700BF28198450241A84500000E02015
:10F640000C1A845030B5ADF5157D4FF408720021C9
:10F650000CA801F03BF8002302A8194628220193C8
:10F6600001F034F802A8FFF7D1FE18B105200DF51E
:10F67000157D30BD1C4D4FF0FF312868FFF7C8FDE8
:10F680000446F0B90020FFF7F3FDB0B90CAA02A9B7
:10F6900001A800F0D5FB04460120FFF7E9FDF0B911
:10F6A0002868FFF7BDFD10B11048FFF73BFF20466B
:10F6B000002CDBD10DF5157D30BD0D48FFF732FF75
:10F6C000E4E70C48FFF72EFF012CDBD12868FFF799
:10F6D000A7FD0028CAD00548FFF724FFC6E7064863
:10F6E000FFF720FFDCE700BF841400207410010046
:10F6F0008C1001005C100100AC10010008B5FFF790
:10F70000EBFD18B1FFF752FD032008BDFFF720FD08
:10F7100068B9FFF7ADFD60B9154B1B681B0EF02BE8
:10F7200012D0FFF7DBFDFFF741FD062008BD0420E6
:10F7300008BDFFF7D3FDFFF739FDFFF783FF002872
:10F740000CBF0020052008BD0A4A0B4B12689A42E4
:10F7500005D0FFF7C3FDFFF729FD072008BD0120F5
:10F76000FFF786FD0028E4D1044B1860E5E700BFF1
:10F7700028198450241A84500000E0200C1A845068
:10F7800018B111B10B681C2B01D0012070474FF448
:10F790007F033A4AD3F8101C91425AD0D3F8102C68
:10F7A000013256D0D3F8102C4FF47F030260D3F807
:10F7B000141C334A91425ED0D3F8142C01325AD033
:10F7C000D3F8142C4FF47F034260D3F8182C12F5B1
:10F7D000947F4DD0D3F8182C013249D0D3F8182C8F
:10F7E0004FF47F038260D3F81C1C264A91423CD020
:10F7F000D3F81C2C013238D0D3F81C2C4FF47F03E3
:10F80000C260D3F8002C70322DD0D3F8002C013216
:10F8100029D0D3F8002C4FF47F030261D3F8042CD5
:10F82000AF321ED0D3F8042C01321AD0D3F8042CF6
:10F830004FF47F034261D3F8081C134A91420BD066
:10F84000D3F8082C013207D0D3F8083C836100209C
:10F85000704740F6FC02A7E740F23733836100208F
:10F8600070475122E4E79022D5E742F60412C5E73B
:10F8700040F6D862B4E742F2D002A3E7FCF8FFFFFB
:10F88000D020FFFF0429FFFF37F3FFFFA8B32DE9C6
:10F89000F0414C1EB4F5047F2CD25BB352B34FF051
:10F8A000000CC900E646654664464F1E03F1FF386A
:10F8B0000CE0AB4216D08E4501D10CF1010CA845ED
:10F8C00016D00134BC4205F1010518D8610950F881
:10F8D000211004F01F06F1401F2E18BF01F0010196
:10F8E000002CE6D10025A8458E464FF0010CE8D14A
:10F8F0006245E6D20348BDE8F08102487047002027
:10F90000BDE8F081370CF1002DE9F04F8FB00D46C6
:10F91000DDE919418346002957D129690391002166
:10F920001C60189B1960002A00F02281814A824BDA
:10F9300011686A6A1B689A4257D10A2955D19BF807
:10F94000033006930399042308467C4A0293A2FBE2
:10F9500000029208CB0002EB420204F10800A1EB86
:10F960004202013BDFF8D091DFF800A20490009240
:10F970000593189B039C1C60002C00F0CC80002693
:10F98000049F00F0A9FA00230793069BBBF1000F28
:10F990003AD0002D34D053BB5B000693BBF1000F6F
:10F9A00036D0002D34D0E3B106A9284600F084FA01
:10F9B000002800F07D81624B984212D0009000F048
:10F9C0008BFA00980FB0BDE8F08F4FF47F01D1F8AB
:10F9D0000C0C01300CBF4FF40471D1F80C1C0391D6
:10F9E0009DE72B6A73B95648E8E75648E6E706A94B
:10F9F000284600F061FA68B1534B9842DED0069B6E
:10FA0000082BC9D15148D9E7082BFBD05B000693DE
:10FA10004F48D3E72946069800F030FA0028EBD18A
:10FA2000069B082B00F00E81042B00F03181A3F11E
:10FA30000203B3FA83F35B09019301231946454A94
:10FA4000136042F8843C434B19606B6AC9F800307C
:10FA5000D9F800206B6A9A42F5D14FF000084FF0B8
:10FA6000FF30CAF80080FFF73BFC3B4A3B4B404667
:10FA70001A60FFF743FC0A22019839492D4B0860B0
:10FA80001A602A69A8F15538A8FB02126B6A12099C
:10FA900003EB4303DB0303FB02F3324A9B091360CE
:10FAA0000123CAF800300699DBF800200B0243EA74
:10FAB000016322F07F421343CBF8003007A800F027
:10FAC000CDF9002898D1284BA8FB04281A681433D4
:10FAD000089253F8102CB6EB980F099253F80C2C9F
:10FAE0000A9253F8082C0B9253F8042C0C921B68C2
:10FAF0000D9301D1009B9BB93846182208A9FFF746
:10FB000021FB183C18370136002C7FF43AAF049BD8
:10FB1000002B40F09A800023189A1360069B6FE731
:10FB20001A46384608A9E41AFFF70CFB009B1F444D
:10FB3000E9E700BF3811845030118450ABAAAAAA5B
:10FB4000310CF100300CF100020CF100320CF1002C
:10FB5000350CF100C4118450FEFFFF0F00118450DA
:10FB60000C118450D8118450141184502C118450DD
:10FB7000BBF1000F3FF44CAF002D3FF449AF012320
:10FB80000EA941F8203DCBF80020284600F094F95A
:10FB900000287FF413AF2946069800F06FF900287B
:10FBA0007FF40CAF069F082F00F0EB80042F00F0CD
:10FBB000EA80A7F10207B7FA87F77F090122164604
:10FBC000734B74491A6018460A60943B06606A6A6F
:10FBD0001A6019686A6A9142F8D14FF000086E4BBA
:10FBE0004FF0FF30C3F80080FFF77AFB6B4B6C4A95
:10FBF00040461A60FFF782FB0A226A496A4B0F608F
:10FC00001A601A992B6901296A6A00F0B180674964
:10FC1000A1FB03131B09012102EB4202D20303FBE8
:10FC200002F3634A9B0913605B4B19600699DBF88A
:10FC300000200B0243EA016322F07F421343CBF81A
:10FC400000307FE603230193F7E6039BB3F5047FBF
:10FC50003FF661AFDDE9047C204623466E6904E08F
:10FC6000012001336345144615D85A0957F822205C
:10FC700003F01F01CA401F2918BF02F00102002B28
:10FC8000EED0A242ECD101308642EAD149480BE0E5
:10FC900002230193D1E64FF48063DDE90310AA69E2
:10FCA000FFF7F4FD00285DD00023189A1360A3E647
:10FCB0002946069800F0E2F800287FF47CAE069C06
:10FCC000082C51D0042C51D0A4F10204B4FA84F4CD
:10FCD000640901231E4619462D4A136042F8843CEC
:10FCE0002B4B19606B6AC9F80030D9F800206B6A99
:10FCF0009A42F5D100274FF0FF30CAF80070FFF7A5
:10FD0000EFFA264B264A38461A60FFF7F7FA0A221E
:10FD10002449254B0C601A602A6924496B6AA1FBAF
:10FD2000021203EB43031209DB0303FB02F3204A35
:10FD30009B091360CAF80060069BDBF800101A02EA
:10FD400042EA036321F07F421A43130A03F47F035C
:10FD5000134323F07F43CBF80030029B013B029317
:10FD60007FF407AE002029E60324B2E70224B0E7BF
:10FD70004FF47F03D3F80C1C013106D0D3F80C3CB0
:10FD800045E703271AE7022718E7162343E700BFD2
:10FD9000C4118450401184502C118450001184509F
:10FDA000FEFFFF0F0C11845038118450ABAAAAAA91
:10FDB000D8118450360CF1002DE9F0431B4C85B06E
:10FDC0000746DDE90D56884620684FF0FF31914621
:10FDD000FFF71EFA28BB0020FFF74AFAE8B9002314
:10FDE000CDE9005602934A46414638460C9BFFF740
:10FDF0008BFD05460120FFF73BFA50B92068FFF75D
:10FE00000FFA10B10A48FFF78DFB284605B0BDE890
:10FE1000F0830848FFF786FBF0E70748FFF782FB0F
:10FE2000DDE70648FFF77EFBD5E700BF841400201E
:10FE300074100100AC1001008C1001005C10010076
:10FE400010B5012486B005ABCDE901240093002252
:10FE500004ABFFF759FD06B010BD00BF08B5014661
:10FE60004FF48060FFF750FA00230249024A0B600A
:10FE7000136008BDC81184502C1184500138072824
:10FE800015D8DFE800F0100C140814141404CB6823
:10FE900000204B6270478B6800204B6270474B68B4
:10FEA00000204B6270470B6800204B62704701488E
:10FEB000704700BF310CF1000B6802E0082B0B60AB
:10FEC00006D8026A13424FEA4303F7D00020704776
:10FED00000487047310CF10000230449044A0B60CC
:10FEE0004FF480601360FFF7FBB900BF2C11845002
:10FEF000C411845008B5FCF731FFBDE80840FCF799
:10FF0000BFBE40E800F313F4803FD8B208BF6FF0E3
:10FF100015007047FF232DE9F74F45680022294659
:10FF20004FF00C0A4FF0200B0789046805FB07FC13
:10FF3000C372837A64440193019B934208DC0023DB
:10FF400019468F4205EB030C21DC03B0BDE8F08FAE
:10FF5000BCFBF1F3202B84BF1F3393FBFBF30AFBA5
:10FF600002FED0F80C804FEA910108EB0E0606F174
:10FF70000409C6E9019921F0030194BFC27248F84F
:10FF80000E4002F1010288BF04EB8304D4E7C2688B
:10FF9000066802F1040EF41846F803E09368013194
:10FFA000636093681C6094606346CAE7044608B5C2
:10FFB000084611461A46A047FEF7F0FEFDF7E8FB9B
:10FFC0000020704770B50D4604464520A0472946DD
:10FFD0005220A04729462346BDE8704052201847CA
:10FFE0002DE9F04F002705460E4692461C464FF07D
:10FFF000FF39B846BB4689B09AF8000010B909B07D
:020000021000EC
:10000000BDE8F08FBBF1000F07D1252800F04E812D
:100010003146A8470AF1010AEEE7642868D01AD8E9
:1000200039280BD831285AD22D2800F046813028A3
:1000300046D0252808D13146A8477AE0582800F054
:10004000B480632800F02C8131462520A847314632
:100050009AF80000F0E7702800F09D800DD869281C
:1000600046D06C2803D16C2F26D14C27D2E76828C4
:10007000EAD1682F20D14827CCE7752870D017D84F
:100080007328E1D1226804F1040B11460C4614F8E0
:10009000010B002840F0F980B8F1030F40F0138104
:1000A0008C1AA9EB0404002C00F3F5805C4640E0B8
:1000B00078287AD07A28C7D1002FC5D10746A9E77A
:1000C000B9F1000F0EDAB8F1000F00F0F980A0F1DD
:1000D0003009B8F1000F08BF4FF002089AE7B9F1F4
:1000E000000FF4DB0A2202FB0909A9F13009F0E74D
:1000F0007A2F03D1D4F800B004341EE06C2FF9D06D
:100100004C2FF7D14FF0000C4FF0FF3B073424F099
:10011000070303F10804D3E9002312F1004043F17F
:1001200000018C4508BF834506D231462846FFF7BB
:1001300049FF4FF0000B6DE79346BBF1000F06DA65
:1001400031462D20A847CBF1000B09F1FF3943467A
:100150005A46CDF8009031462846FCF7CFFBE8E739
:100160007A2F02D12268043411E06C2FFAD04C2F80
:10017000F8D100214FF0FF30073424F0070303F1DA
:100180000804D3E90023994208BF9042CDD3CDF8AB
:1001900000904346DFE731463020A84731467820BB
:1001A000A8474FF008094FF001089AF80020702A7C
:1001B00005D1236804340493002302930CE06C2FD0
:1001C000F7D04C2FF5D1073424F00702136802F161
:1001D00008040493536802930022102303920592AB
:1001E0004022043A02990498C2F1200CA2F1200E98
:1001F000D04001FA0CFC40EA0C0021FA0EFE40EA65
:100200000E0010F00F0008D1059901B942BB4FF064
:10021000300C08E0CDF814B0E3E709288CBF4FF0AC
:10022000570C4FF0300C31466044CDE90523A84708
:10023000039B01330393DDE90523002AEAD1B8F1DA
:10024000030F7FF476AF039BC3EB490BBBF1000FA9
:100250007FF76FAF31462020A8470BF1FF3BF5E752
:10026000591E9945069107DBB8F1010F06D13146B9
:1002700030200792A847079A069BB2E7B8F1020F11
:10028000FAD1079231462020F4E731460292A8477E
:100290002146029AFAE631462020A847013C02E7AF
:1002A0003146206804F1040BA847FFE65F46D846B4
:1002B0004FF0FF394FF0010BACE64FF00308A9E611
:1002C0004FF00108A6E65C468346A3E60FB407B5E7
:1002D00004A951F8040B0191FCF762FB03B05DF82F
:1002E00004EB04B070477047FDF7E4BD83685A7AA9
:1002F00032B993F908000028CCBF002001207047D4
:1003000002207047026870B5956884684FF020033A
:10031000EFF3118683F31188BFF36F8F237A013BCC
:100320005BB2002B237218D1C4E900336B6883B928
:100330000122EB7A03F150231A6000222B8903F18A
:1003400050231A600020607286F31188BFF36F8F0C
:1003500070BD98470028EBD1F4E74FF00000BCBF18
:1003600020726FF04400EFE7F8B5036806461446C4
:100370009F6885684FF02003EFF3118283F31188A3
:10038000BFF36F8F2B7A01335BB22B7282F311882C
:10039000BFF36F8F6A7A32B10CB90020F8BDD4E98F
:1003A00001319847F9E7012B06D13B6833B90122A7
:1003B000BB7A03F150231A604CB9EEE79847002846
:1003C000F5D1002CE9D0D4E90131304698472B68AB
:1003D0009C420DD013B11B68002BF9D10020206086
:1003E0006B6813B9C5E90044D7E71C606C60D5E7BA
:1003F0006FF04400D2E70022FFF7B6BF8368002009
:10040000C3E90000704710B5002204460121052011
:10041000FDF72AF80520FDF717F84FF050230222C8
:10042000C3F8182503220020C3F80423A368C3E9F6
:10043000000010BD38B58468054623682BB161689B
:100440001A688B42226008BF62600122627203B99F
:1004500038BDD3E90121284690472368002BF7D007
:1004600061681A688B42226008BF6260EFE77047DC
:100470007047002307B502A800F8043DFEF762FFAD
:1004800003B05DF804FB902908B5134639D10A463C
:1004900001460020FEF762FFBDE808407146724643
:1004A0007346B7EE000AF7EE000AB7EE001AF7EE51
:1004B000001AB7EE002AF7EE002AB7EE003AF7EE80
:1004C000003AB7EE004AF7EE004AB7EE005AF7EEF0
:1004D000005AB7EE006AF7EE006AB7EE007AF7EE60
:1004E000007A8EF3008C10B4F1EE10CA4FF66074EF
:1004F000C0F6FF740CEA040CE1EE10CA10BCF4461E
:1005000074476FF01500C7E700F01F021F21042099
:10051000FCF72EBE00F0070207210220FCF728BEE0
:10052000024601210720FCF723BE420102F0E0024F
:10053000E0211520FCF71CBE18223F212A20FCF7E1
:1005400017BE420002F0FE0202212920FCF710BE75
:1005500013223F212C20FCF70BBE024601212B2049
:10056000FCF706BEFEE7FCF71FBF43B2A9B1002BA4
:1005700012DB01215B099B0003F1604303F561433A
:10058000D3F8802200F01F0001FA00F022EA0000F8
:10059000C3F88002D3F880327047002BFCDB0122C5
:1005A0005B099B0003F1604303F56143D3F88012BC
:1005B00000F01F0002FA00F00843E9E700F016B966
:1005C0000146006800F012B908B5FCF7FFFEBDE86F
:1005D0000840FCF795BE07B5002101A8FDF76EFAAB
:1005E00003B05DF804FB30B585B09DF808200D8997
:1005F0000B684C68498965F3040261F34712009364
:100600008DF8082023F01F03621E134423F01F03FC
:100610000F280393044605D86946FDF709F92046DB
:1006200005B030BD6FF01504F9E70138013910F855
:10063000013F11F8012F934202D1002BF7D11A4646
:10064000981A7047431A934210B500EB020308D37F
:10065000024601399A420BD011F8014F02F8014BC2
:10066000F8E70A4412F8014D8A4203F8014DF9D126
:1006700010BDF0B581EA0004A50703460BD0013B8D
:100680000A4491421DD1F0BD002AFCD011F8014B63
:10069000013A03F8014B9C07F6D10C461D1F8F1839
:1006A0003E1B032E08D86FF00305940805FB0422B7
:1006B000A40023442144E2E754F8046B45F8046F96
:1006C000EEE711F8014B03F8014FDAE70346F0B506
:1006D000C9B29C070FD11D4641EA012444EA0444F3
:1006E0009F187E1B032E0CD8940803EB840413443C
:1006F0009C4209D1F0BD002AFCD003F8011B013A4D
:10070000E7E745F8044BECE704F8011BF0E74FF08E
:10071000FF3070470368CA079B6805D4C1F34202E3
:10072000012A04D0022A0BD06FF0150070474FF059
:10073000CC721B68C3F82425836800205962704777
:100740001B684FF0C862F5E70B46826892E8030029
:1007500083E803000020704703689B681B68D3F898
:10076000240118B1D3F88004C3F8800470470368EB
:1007700082689B681B68D3F8100138B1127A002098
:100780000A700122C3F810011A6070474FF0FF3061
:10079000704782B002AA02F8011D002103689B681D
:1007A0001B68C3F82011C3F844250122C3F848256B
:1007B0009A60D3F820110029FBD0DA6002B07047AC
:1007C00008B5FCF707FDFCF785FDBDE80840FEF71E
:1007D0007DBE00474FF02002EFF3118382F31188B2
:1007E000BFF36F8FFEE708B5FFF7F4FF70B505465E
:1007F0000E46FEF7D3FA314604462846FFF7F3FFCC
:100800002046BDE87040FCF7C3BFFFF731BE30B5EE
:100810000024C0E90232C0E905440161A34202D1CB
:10082000C0E9000030BD456901340D6041611144EB
:10083000F4E70023C0E90000C0E902337047437BBE
:10084000DB0603BF8069B0FA80F0400900207047E2
:1008500038B504464FF02003EFF3118583F3118878
:10086000BFF36F8F01468068FEF7CCF8637B23F0FF
:100870000203637385F31188BFF36F8F0023A360B6
:1008800038BD08B539B9FEF755F820B1BDE80840C4
:100890000846FCF7BFBD81F31188BFF36F8F08BD19
:1008A00008B5024638B9FEF745F820B1BDE8084062
:1008B0001046FCF7AFBD82F31188BFF36F8F08BD00
:1008C0004FF02003EFF3118083F31188BFF36F8F94
:1008D000FFF7E6BF0368984214BF18460020704730
:1008E00050F8103C70B50446A0F11805CBB14FF09C
:1008F0002003EFF3118683F31188BFF36F8F29462E
:1009000050F8100CFEF77EF814F80B3C23F00203AD
:1009100004F80B3C86F31188BFF36F8F002344F873
:10092000103C14F80B3C284623F0140304F80B3C4D
:10093000FFF785FF20B12846BDE87040FEF7B2B84A
:1009400070BD38B54FF02003EFF3118283F31188A7
:10095000BFF36F8FFFF7BEFF044682F31188BFF32A
:100960006F8FC8B14FF02003EFF3118583F3118827
:10097000BFF36F8F01468068FEF744F8637B23F076
:100980000203637385F31188BFF36F8F002304F1B3
:100990001800A36000F032F8204638BD437BDB0628
:1009A00003BF8069B0FA80F0400900207047036DF2
:1009B00010B5044603B198472046FFF7EFFF38B162
:1009C0002046FEF721F9637B43F00803637310BDF3
:1009D000637B9B0702D52046FFF73AFFA369002BF4
:1009E000F1D004F1180000F009F8ECE703730023DC
:1009F00042738173C373C0E90633704710B54FF07B
:100A00002002EFF3118482F31188BFF36F8F036824
:100A10003BB1FEF7B7FA002084F31188BFF36F8F64
:100A200010BD6FF01500F7E710B54FF02003EFF39E
:100A3000118483F31188BFF36F8FFEF7B9FA84F343
:100A40001188BFF36F8F10BD70B504460E464FF08E
:100A50002003EFF3118583F31188BFF36F8FFEF747
:100A6000A7FA012805DDA04203DD31462046FCF748
:0E0A700071F885F31188BFF36F8F70BD70476A
:020A7E00FFFF78
:080A800040BAFF7F01000000F5
:100A88000000000067050100000000006705010084
:100A98000000000067050100000000006705010074
:100AA80000000000670501000000000045CA0000C2
:100AB8000000000067050100000000006705010054
:100AC8000000000067050100000000006705010044
:100AD80085E30000D307010000000000670501005E
:100AE8000000000067050100000000006705010024
:100AF8000000000067050100000000006705010014
:100B08000000000067050100000000006705010003
:100B180000000000670501000000000067050100F3
:100B28000000000067050100000000009DCA0000E9
:100B380000000000670501000000000067050100D3
:100B480000000000670501000000000067050100C3
:100B580000000000670501000000000067050100B3
:100B680000000000670501000000000067050100A3
:100B78000000000067050100000000006705010093
:100B88000000000067050100000000006705010083
:100B98000000000067050100000000006705010073
:100BA8000000000067050100000000006705010063
:100BB8000000000067050100000000006705010053
:100BC8000000000067050100000000006705010043
:100BD8000000000067050100000000006705010033
:100BE8000000000067050100000000006705010023
:100BF8000000000067050100000000006705010013
:100C08000000000067050100000000006705010002
:100C180000000000670501000000000067050100F2
:100C280000000000670501000000000067050100E2
:100C380000000000670501000000000067050100D2
:100C480000000000670501000000000067050100C2
:100C580000000000670501000000000067050100B2
:100C680000000000670501000000000067050100A2
:100C78000000000067050100000000006705010092
:080C88000000000067050100F7
:100C900008110100C1C90000000000000811010096
:100CA00029CA000000000000E2100100FD0301005D
:100CB000740D0100EC10010007040100680D010033
:100CC000F6100100DDCA000000000000081101005C
:100CD000B9D90000000000000811010009DB000084
:100CE00000000000FF13010059DB0000900F01001D
:100CF000DB100100FDDD0000BC0F01000514010048
:100D0000C10701000000000008110100E1E6000039
:100D100000000000081101001DF1000000000000AB
:100D2000DEE61E284CBBCE8F015B000002000000F7
:100D3000340D010000000000CC100100060000008E
:100D4000E0FF0F0000000020D4100100210000008F
:100D5000E0FF0020F7030100050301006903010023
:100D600000000000ED020100000000000000000093
:100D70000001000400000000000000000401080C55
:100D80001701000017010000170100000701000013
:100D90000701000007010000070100000701000033
:100DA0000701000007010000070100000701000023
:100DB0000701000007010000070100000701000013
:100DC0000701000007010000070100000701000003
:100DD00007010000070100000701000007010000F3
:100DE00007010000070100000701000007010000E3
:100DF00007010000070100000701000007010000D3
:100E0000B912010042010000C012010005010000FA
:100E1000CA12010015010000D312010039010000BF
:100E2000DC12010009010000E71201000A000000C5
:100E3000F21201000A010000FC1201000B01000087
:100E4000061301000F010000111301001001000042
:100E50001C13010011010000271301000E01000006
:100E600031130100210100003A13010022010000AA
:100E700043130100230100004C1301002401000072
:100E800055130100180000005D1301002A01000045
:100E9000651301003A0100006D1301002C010000F0
:100EA000751301001C0100007E1301001D010000EC
:100EB00087130100170100009113010031010000A8
:100EC0009D1301000400000017010000170100003D
:100ED00017010000170100001701000017010000B2
:100EE00017010000170100000701000007010000C2
:100EF00007010000070100000701000007010000D2
:100F000007010000070100000701000007010000C1
:100F100007010000070100000701000007010000B1
:100F200007010000070100000701000007010000A1
:100F30000701000007010000070100000701000091
:100F4000070100000701000000020000000400008B
:100F500000080000000000006505010071D20000DB
:100F600031D2000001D20000E1D10000281400209D
:100F7000101400202014002000000000181400208D
:100F800015070100C5DB00000000000000000000A4
:100F900000A00050000000000C0000000B0000004A
:100FA00000004006000000006F07010093070100E9
:100FB0005907010085DC000049070100008000504E
:100FC00001000000B414002014150020201500209A
:100FD0003815002044150020F5FFFFFF436F756CA6
:100FE00064206E6F74206C6F636B20706F77657216
:100FF0002073617665206D7574657800FF8FFFFF43
:10100000FF8FFFFFFE8FFFFFFE8FFFFFFD8FFFFFB4
:10101000FC8FFFFFFC8FFFFF43616E277420696E1A
:10102000697469616C697A65206D757465782C20C6
:10103000776173204E554C4C0D0A000043616E27BA
:101040007420756E6C6F636B206D757465782C20E1
:10105000776173204E554C4C0D0A00004661696C57
:1010600020746F2061637175697265206D75746598
:10107000780A00004661696C20746F2072656C65A7
:10108000617365206D757465780A00004661696C4E
:1010900020746F20696E63726561736520504D2006
:1010A000636F756E7465720A000000004661696CBA
:1010B00020746F20646563726561736520504D20F4
:1010C000636F756E7465720A00000000464C4153F0
:1010D000485F30005352414D5F3000554152545FDC
:1010E0003000434C4F434B5F33324B00434C4F4334
:1010F0004B5F31364D007379735F636C6F636B00C8
:101100005365637572650909004E6F6E2D536563F3
:1011100075726509004E6F6E2D53656375726500BB
:10112000466C61736820726567696F6E0909446F68
:101130006D61696E09095065726D697373696F6ECF
:10114000730A00253032752030782530357820300C
:1011500078253035782009002563004E6F6E2D7399
:1011600065637572652063616C6C61626C65207289
:101170006567696F6E203020706C616365642069FB
:101180006E20666C61736820726567696F6E2025DA
:101190006420776974682073697A652025642E0A53
:1011A00000436F756C64206E6F7420696E6974699A
:1011B000616C697A65207365637572652073657209
:1011C00076696365732028657272202564292E0A6A
:1011D000005352414D20726567696F6E0909446F73
:1011E0006D61696E09095065726D697373696F6E1F
:1011F000730A00253032752030782530357820305C
:1012000078253035780900506572697068657261BB
:101210006C0909446F6D61696E09095374617475D5
:10122000730A002530327520252D32317325730065
:1012300009534B49500A00094552524F520A0009BE
:101240004F4B0A0053504D3A204E5320696D616751
:101250006520617420307825780A0053504D3A207B
:101260004E53204D535020617420307825780A0069
:1012700053504D3A204E5320726573657420766545
:1012800063746F7220617420307825780A0053509F
:101290004D3A207072657061726520746F206A75B6
:1012A0006D7020746F204E6F6E2D5365637572657F
:1012B00020696D6167652E0A004E52465F5030000E
:1012C0004E52465F434C4F434B004E52465F525482
:1012D0004331004E52465F4E564D43004E52465FDC
:1012E000554152544531004E52465F554152544586
:1012F00032004E52465F5457494D32004E52465FBF
:101300005350494D33004E52465F54494D4552307B
:10131000004E52465F54494D455231004E52465F91
:1013200054494D455232004E52465F534141444369
:10133000004E52465F50574D30004E52465F505758
:101340004D31004E52465F50574D32004E52465F6F
:1013500050574D33004E52465F574454004E52464C
:101360005F495043004E52465F564D43004E524631
:101370005F465055004E52465F45475531004E522C
:10138000465F45475532004E52465F4450504943F0
:10139000004E52465F4750494F544531004E524629
:1013A0005F524547554C41544F5253006D7574651B
:1013B000785F696E69742063616C6C65642077691D
:1013C0007468204E554C4C20706172616D65746577
:1013D0007200436F756C64206E6F7420616C6C6F6B
:1013E00063617465206D75746578206265666F72DF
:1013F0006520696E697469616C697A696E67004914
:1014000032435F320048575F43433331305F30002F
:101410002A2A2A2A2A20426F6F74696E67205A6529
:1014200070687972204F53206275696C642076323F
:101430002E302E39392D6E637331202A2A2A2A2A1A
:0C1440000A006D61696E0069646C650053
:10144C00C1FF000058150020010000006C150020A1
:10145C000100000080150020010000009415002000
:10146C00010000000F070100341400203414002088
:10147C00010000000100000044140020441400206E
:10148C00000000000100000000000000000000004F
:10149C0000C2010000010300000000000090D00316
:1014AC006C1400206C140020A4140020B014002034
:1014BC00A8140020A01400207C14002000000000C0
:1014CC0001F5000069F5000041F5000085F500000C
:1014DC0045F50000C0060020B4060020BC06002024
:0814EC0000000000B80600201A
:1014F400900C01000000000000000000080D010035
:101504000000000000000000140D010000000000B5
:1015140000000000CC0C01000000000000000000EE
:10152400B40C0100540D01000C000020A80C0100B3
:10153400540D010018000020F00C0100A80F010058
:101544005C1400209C0C010000000000000000005E
:10155400C00C01000000000000000000FC0C0100B1
:101564000000000000000000E40C0100800F0100F6
:1015740034140020D80C010000000000000000001A
:101584004415002044150020000000000000000065
:101594000F0000005815002058150020000000001E
:1015A400000000000F0000006C1500206C150020E6
:1015B40000000000000000000F0000008015002063
:1015C4008015002000000000000000000F00000053
:1015D4009415002094150020000000000000000075
:0415E4000F000000F4
:1015E800FFFFFFFFFFFFFFFFFFFFFFFFFFFFFFFF03
:0815F800FFFFFFFFFFFFFFFFF3
:1016000000000000000000000000000000000000DA
:1016100000000000000000000000000000000000CA
:107FE0007FE97FE9F4F7CABF7FE97FE9F5F724B8B5
:107FF0007FE97FE9F8F747BA0000000000000000C1
:040000030000D5899B
:00000001FF
