:10000000385300205D210000A9580000592000004D
:1000100059200000592000005920000059200000FC
:100020005920000059200000592000002D20000018
:100030005920000059200000D91F000081580000FD
:10004000892000008920000089200000892000000C
:1000500089200000892000008920000089200000FC
:1000600089200000892000008920000089200000EC
:1000700089200000892000008920000089200000DC
:1000800089200000892000008920000089200000CC
:1000900089200000892000008920000089200000BC
:1000A00089200000892000008920000089200000AC
:1000B000892000008920000089200000892000009C
:1000C000892000008920000089200000892000008C
:1000D000892000008920000089200000892000007C
:1000E000892000008920000089200000892000006C
:1000F000892000008920000089200000892000005C
:10010000892000008920000089200000892000004B
:10011000892000008920000089200000892000003B
:10012000892000008920000089200000892000002B
:10013000892000008920000089200000892000001B
:040140008920000012
:1001440053B94AB9002908BF00281CBF4FF0FF313A
:100154004FF0FF3000F07CB9ADF1080C6DE904CE2E
:1001640000F006F8DDF804E0DDE9022304B070478E
:100174002DE9F0478C46089D04468A46002B4AD157
:100184008A42174662D9B2FA82F64EB1C6F1200EFF
:1001940001FA06F3B740B44020FA0EFE4EEA030A11
:1001A4004FEA1748230C1FFA87F9BAFBF8FE08FB3D
:1001B4001EAA0EFB09F243EA0A439A420BD9FB1822
:1001C4000EF1FF312CBF012000209A4202D90028F1
:1001D40000F02A818E469A1AA3B2B2FBF8F008FB0B
:1001E400102200FB09F943EA0244A14507D93C194E
:1001F40000F1FF3302D2A14500F210811846A4EBAE
:10020400090440EA0E4000211DB1F4400023C5E971
:100214000043BDE8F0878B4208D9002D00F0F2803E
:100224000021C5E9000C0846BDE8F087B3FA83F164
:1002340000294ED16345C0F0E880824240F2E58057
:100244000846002DE5D0C5E9004AE2E702B9FFDE21
:10025400B2FA82F6002E40F099808B1A4FEA124EC1
:100264001FFA82F801214FEA144CB3FBFEF20EFB95
:10027400123008FB02F94CEA004CE14508D917EBAF
:100284000C0C02F1FF3302D2E14500F2CA801A4697
:10029400ACEB090CA3B2BCFBFEF00EFB10CC08FBCC
:1002A40000F843EA0C44A0450ED93C1900F1FF3391
:1002B4002CBF4FF0010C4FF0000CA04503D9BCF14A
:1002C400000F00F0A8801846A4EB080440EA02409E
:1002D4009AE7C1F120048B4002FA01FE0CFA01F600
:1002E400E24020FA04F72CFA04FC00FA01F8134364
:1002F4003E431F0C320C1FFA83F9BCFBF7F007FBDB
:1003040010CC00FB09FA42EA0C4CE24508D913EB85
:100314000C0C00F1FF3202D2E24500F28980104653
:10032400ACEB0A0CB6B2BCFBF7FA07FB1ACC0AFB1F
:1003340009F946EA0C42914506D99A180AF1FF36A2
:1003440001D291457AD8B2464AEA0040A2EB0902AA
:10035400A0FB0E67BA42B446B94602D307D1B045F2
:1003640005D2B6EB0E0C67EB030301389946002D5A
:100374006BD0B8EB0C0362EB090202FA04F4CB4035
:10038400CA4000211C43C5E9004242E7B740C6F118
:10039400200201FA06F3B44021FA02FC4FEA174E98
:1003A40020FA02F21FFA87F8BCFBFEF11A430EFB97
:1003B40011CC01FB08F0130C43EA0C4C604507D93F
:1003C40017EB0C0C01F1FF3301D2604533D8194609
:1003D400ACEB000C92B2BCFBFEF00EFB10CC00FBAD
:1003E40008F342EA0C4C634507D917EB0C0C00F1F7
:1003F400FF3201D2634525D81046ACEB030340EA33
:10040400014130E72946284603E7841A6CEB0303CD
:1004140001209A4615E702383C4455E702383C442B
:10042400EDE6023ABC4433E7AEF1020E3B44D2E6B9
:1004340002389C4474E70239BC44C9E7AAF1020AB1
:100444001A4481E70238BC44D7E72946E1E600BFF5
:10045400704700BF70B584B04FF00000032363F30E
:1004640002006FF3C500304D304B5B1BC3F3C9036F
:1004740063F38F102E4904F091FF00F097F82D4894
:1004840000F064F8A0B101A800F078FE00B34FF0CA
:100494000000012363F302006FF3C500234B5B1BD1
:1004A400C3F3C90363F38F10234904F077FFFEE716
:1004B400012363F302006FF3C5001C4B5B1BC3F302
:1004C400C90363F38F101B4A1C4904F067FFFEE75E
:1004D40003264FF0000066F302006FF3C500134CCF
:1004E400641BC4F3C90464F38F10039A144904F021
:1004F40055FF4FF0000066F302006FF3C50064F38C
:100504008F10104904F04AFF01A803F08BFF4FF04D
:100514000000012363F302006FF3C50064F38F103E
:10052400094904F03BFFFEE7447F00004C7F0000D4
:10053400987F0000AC7F0000DC7F0000C07F0000DB
:10054400FC7F0000288000004880000008B5054BAF
:100554001B6813B1034B186808BD03F02BFD014B56
:100564001860F7E70800002010B900200860704701
:1005740008B502464FF00000012363F302006FF355
:10058400C500074B07495B1AC3F3C90363F38F1014
:100594000023054904F002FF6FF0150008BD00BFF9
:1005A4004C7F0000447F00006880000008B54FF4D1
:1005B400C051024802F030FE08BD00BF0C0000200C
:1005C40002680F4B9A4201D000207047C268038929
:1005D400D84382420BD810B4D418012010B18B68D0
:1005E400A34202D95DF8044B70470020FAE70020CB
:1005F40010B18B68A34200D970470020FCE700BF0C
:100604003DB8F3962DE9F843876AD0F854C0802F9B
:100614000DD8BCF1800F0AD8836DD3F8088000246C
:1006240025462146A146A6462246234621E04FF010
:100634000000022363F302006FF3C5004A4B4B4AE8
:100644009B1AC3F3C90363F38F10494904F0A6FE50
:100654000020BDE8F883466A06EBC1067668334499
:10066400066D06EBC50676683244013101359A42BF
:1006740041D0B94201D365455AD29A42EBD09A424D
:100684001CD9466A06EBC10676683344022C02D0B4
:1006940001310124EBE74FF00000022363F3020071
:1006A4006FF3C500304B314A9B1AC3F3C90363F39C
:1006B4008F10304904F072FE0020CAE7066D06EB85
:1006C400C50676683244012C02D001350224CEE7F7
:1006D4004FF00000022363F302006FF3C500224BC6
:1006E400224A9B1AC3F3C90363F38F10214904F010
:1006F40055FE0020ADE79E449144434505D842454C
:1007040003D8002422462346B3E74FF00000022317
:1007140063F302006FF3C500134B144A9B1AC3F32F
:10072400C90363F38F10144904F038FE002090E7E6
:10073400B94201D1654512D04FF00000022363F3A2
:1007440002006FF3C500084B084A9B1AC3F3C903A0
:1007540063F38F10094904F021FE002079E7CE45A8
:10076400EAD1012075E700BF4C7F0000447F000000
:10077400508100007C810000B0810000E481000011
:1007840030B589B004A9022004F0B3F906A9072002
:1007940004F0AFF94FF00000032363F302006FF39A
:1007A400C5004E4D4E4B5B1BC3F3C90363F38F105F
:1007B4009DF81030012B34D0032B30D0494B9DF8D9
:1007C40011209DF812109DF813400294019100929B
:1007D400454A464904F0E2FD4FF00000032363F369
:1007E40002006FF3C5003E4B5B1BC3F3C90363F305
:1007F4008F109DF81830012B17D0032B13D0394BD1
:100804009DF819209DF81A109DF81B40029401913F
:100814000092374A354904F0C1FD002412E0354BFB
:10082400CDE7354BCBE7334BEAE7334BE8E7334AC5
:1008340000E0334A334904F0B1FD20464BE0324A2C
:10084400F8E70134032C35D89DF810102F4B13F81A
:10085400240004F0BAF80028F3D02C4B03EB8403F3
:100864009DF81810587804F0B0F80028E9D0274B08
:1008740003EB84039B78042B03D09DF8122093424E
:10088400DFD1224B03EB8404E4784FF00000032310
:1008940063F302006FF3C500114B5B1BC3F3C90381
:1008A40063F38F10002CC4D0012CC8D0022CBED00E
:1008B400174ABFE74FF00000032363F302006FF30E
:1008C400C500074B5D1BC5F3C90565F38F101149BE
:1008D40004F064FD002009B030BD00BF447F000077
:1008E4004C7F0000108200005882000068820000E3
:1008F400A48200001C8200001482000048820000D0
:100904002C820000AC82000024820000D08200000F
:1009140034820000BC8200002DE9F04F83B006460B
:100924008A46914604F079F880463146002004F066
:1009340062F8071E4BDB0024A346254607E02DB1D1
:10094400BBF1000F02D1A34600E001250134BC42F3
:1009540014DA9AF8651001230DF1070204FB0181F2
:10096400304603F08DFD002833DB0128E7D0002D4D
:10097400EBD0BBF1000FE9D02B4600E00023A3B974
:1009840045B3BBF1000F00D05C46144B83FB04233A
:10099400A3EBE4735A1CC9F8002003EB4303E41AE5
:1009A400013489F80440002514E04FF000000123CD
:1009B40063F302006FF3C500094B0A4A9B1AC3F3A1
:1009C400C90363F38F10084904F0E8FCD8E707254E
:1009D40000E00125284603B0BDE8F08F5655555573
:1009E4004C7F0000447F0000308100002DE9F84F67
:1009F400884692461F46DDF828900B9E00250FE09E
:100A040023460F4AE919404604F0CBFDA0B923461A
:100A14000B4A05EB0901504604F0E2FD70B9254488
:100A2400B54206D2741BB4F5806FE9D94FF48064E3
:100A3400E6E70020BDE8F88F0120FBE70120F9E795
:100A44007818002000B587B000200490039002902D
:100A54004FF480730193074B009313460A460146F3
:100A640000F0A8FC034618B9184607B05DF804FB6B
:100A74000323F9E7782800202DE9F04182B00546E8
:100A84000C461746002003F0EBFC01A9C0B201F0AC
:100A940045F9002844D12C2000FB04562146284661
:100AA40003F030FD90B3336913F0100F36D1DDF845
:100AB400048041463046FFF783FDB0B9F4B94FF0E6
:100AC4000000012363F302006FF3C500164B174ABD
:100AD4009B1AC3F3C90363F38F10ACB9144A1549C5
:100AE40004F05CFC4FF0FF3511E03B4642463146D2
:100AF4002846FFF7A7FF054648B1DFE7019882685B
:100B0400002104F09DFDDAE70B4AE8E7012501988E
:100B140004F046FD284602B0BDE8F0810125F6E761
:100B24004FF0FF35F6E700BF4C7F0000447F000024
:100B34000C83000020830000148300002DE9F0439F
:100B44008BB00F4615461C46536A53F830601B6839
:100B5400F61A92F8650003F048FFAB6A013BB91935
:100B64006A6A52F8333012689B1A994228D9A7EB63
:100B740000082368012B25D00023637109A90220F2
:100B840001F0CCF808A9062001F0C8F807A907204D
:100B940001F0C4F82379012B1AD02379022B7DD0DC
:100BA4002379032B00F0A180099804F0F9FC08983C
:100BB40004F0F6FC079804F0F3FC0BB0BDE8F083F6
:100BC400B846D6E7B84501D00123D6E70023D4E7D9
:100BD40007988268002104F033FD2368012B16D0A6
:100BE400CDF80480002300933346079A08992846D9
:100BF400FFF7FCFE2146284603F044FE022323713E
:100C04000028CAD0664A136801331360C5E7DDF8CB
:100C14001C9003A9062003F06CFFA17901292BD1B4
:100C24009DF80F30012B2CD0A168484603F0B1FF8A
:100C3400484600F0EFFA6379002BD1D10999284690
:100C440003F099FDDDF8249003A9062003F051FF79
:100C5400A179012919D19DF80F30012B1AD0A1686F
:100C6400484603F096FF484600F0D4FA0798826895
:100C7400002104F0E5FCB3E70022484603F077FFC7
:100C8400CEE7484603F06CFFCEE70022484603F067
:100C94006EFFE0E7484603F063FFE0E73A4631467B
:100CA400089804F0CDFCCDF8048000963346089AE9
:100CB40009992846FFF79AFE2368012B0DD0214697
:100CC400284603F0DFFD0323237100283FF468AFB7
:100CD400334A13680133136062E76379002BEED162
:100CE4000899284603F047FDE9E73A463146099852
:100CF40004F0A6FCCDF8048000960023099A079915
:100D04002846FFF773FE6379CBB9667900236371D4
:100D14002146284603F0B6FD2368013323600123EE
:100D2400237118B11E4A136801331360002E3FF477
:100D34003BAF3A460021079804F082FC34E7079859
:100D440003F06BFE464495F865305B000193009612
:100D54000346099A07992846FFF748FE18B1104A36
:100D640013680133136005A9072003F0C2FE9DF840
:100D74001730012B0BD09DF8151001290BD1A16858
:100D8400099803F006FF099800F044FABDE70998B2
:100D940003F0E6FEEFE70022099803F0E8FEEEE731
:100DA4007418002070B584B005460E4600230193E4
:100DB40002930B68012B02D10B79012B0AD006F1A7
:100DC4000801002003F0AAFEB36801930020034643
:100DD40001461BE00268314B9A420BD0EA6A2F4B62
:100DE4009A420CD0029B019A934200D90193019B31
:100DF400B360EBE701AA002103F036FCEEE702AA98
:100E04000121284603F030FCECE70131019A9A42B3
:100E140001D8834204D26C6A04EBC104646823449D
:100E2400824201D8834204D92C6D04EBC104646866
:100E340020449A42E9D88242E7D89842E5D1002476
:100E440002E003990139013400290EDB03AA284684
:100E540003F035FB3368013BA342F2D833462A46FC
:100E640001460398FFF76AFEEBE70D4B1A68002A68
:100E740010DD4FF00000022363F302006FF3C5009E
:100E8400084B09495B1AC3F3C90363F38F1007497D
:100E940004F084FA002004B070BD00BF3DB8F3969E
:100EA400741800204C7F0000447F0000E0820000A2
:100EB40038B504460D46FFF775FF0246AB7984F852
:100EC4006430AB79033BDBB2012B14D9AB79022B31
:100ED40003D0042B01D0032B07D1002003F084FCA2
:100EE400024610B1FF2384F8643094F86430FF2B79
:100EF4000BD0104638BD002003F089FC02460028C0
:100F0400E4D0FF2384F86430E0E74FF000000123CD
:100F140063F302006FF3C500054B064A9B1AC3F343
:100F2400C90363F38F10044904F038FAFEE700BFE5
:100F34004C7F0000447F00009880000038B50446D0
:100F44000D4603F02EFB60B90021204603F0FAFBA6
:100F5400E8B92046FFF756FB78BB012384F86430D8
:100F640014E04FF00000022363F302006FF3C500A6
:100F7400344B354A9B1AC3F3C90363F38F108022A1
:100F8400324904F00BFA012384F8643038BD4FF081
:100F94000000022363F302006FF3C500294B2A4AC1
:100FA4009B1AC3F3C90363F38F100022284904F08A
:100FB400F5F9012384F86430E8E72946204603F074
:100FC4000EFB88B92B68012B02D12B79012B21D080
:100FD40029462046FFF76CFF0021204603F0B2FBB0
:100FE400012384F86430D1E74FF00000022363F357
:100FF40002006FF3C500134B134A9B1AC3F3C903D2
:1010040063F38F100022134904F0C8F9012384F814
:101014006430BBE7AB79012B09D02A460121204675
:10102400FFF72AFD50B1052384F86430AEE7294662
:10103400204603F00BFC84F86400A7E7AB7984F83E
:101044006430A3E74C7F0000447F0000A0800000D0
:10105400E080000008810000F0B585B004460E462B
:101064006822002104F0C0FC3E4B63623E4B2365C2
:101074003E4BE36500250CE02946002003F0F0F91F
:101084002C2101FB05F120312144C0B200F046FEC1
:101094000135012DF0D904F15801072000F03EFE7E
:1010A40001A92046FFF74AFF94F864308DF80A300E
:1010B400013B042B30D8DFE803F0070303032600C9
:1010C40001A9204603F017FC94F86430FF2B27D0C5
:1010D400012B05D00021204603F034FB074668B9F4
:1010E400002211462046FFF7C7FC074650BB236A7F
:1010F4005B783371236A5B68B3603460A06D04F07D
:101104004FFA002529E0002003F081FB0028DBD002
:10111400FF2384F86430D7E7FF2384F86430D3E7EF
:101124004FF00000012363F302006FF3C500104B7E
:10113400104A9B1AC3F3C90363F38F100E4904F0DA
:101144002DF9FEE70327D9E7C5F101032C2202FBA1
:101154000343186A04F024FA0135012DF4D9384602
:1011640005B0F0BD781C00207824002078200020F1
:101174004C7F0000447F00009880000008B50146C1
:101184000148FFF769FF08BD0C18002008B51022BC
:10119400034904F0ECFB08B9012008BD0220FCE778
:1011A4004483000070B586B00E46184B1B88ADF81A
:1011B4000430002407E0306804F0F2F923E03068DA
:1011C40004F0EEF90134012C1BD8314606AB23445C
:1011D40013F8140C00F0A2FD0546A0B9306881682C
:1011E400102302AA103904F0DCF905460028E2D1E4
:1011F4001022074902A804F0BAFB05460028DED1F4
:1012040001E04FF0FF35284606B070BD847F000032
:101214004483000008B581681023054A103904F09E
:10122400DFF9034608B9184608BD0123FBE700BFF0
:101234004483000030B585B002A9022003F059FCB4
:1012440000286CD16946062003F053FC002869D1BC
:10125400002407E02B79042B28D09DF80A20934220
:1012640024D00134022C47D804EB44035B002E4AFB
:10127400D5189DF80810D05C03F0A7FB0028F0D027
:101284009DF80010687803F0A0FB0028E9D0AB7843
:10129400042B03D09DF80B209342E2D1EB78042B6E
:1012A400D8D09DF803209342DBD1D3E74FF0000060
:1012B400032363F302006FF3C5001C4B1C4A9B1A03
:1012C400C3F3C90363F38F106B79022B07D0032B8D
:1012D40010D0042B01D0174A02E0174A00E0174A45
:1012E400174904F05BF86879831EDBB2022B17D927
:1012F400FF2015E0134AF3E74FF00000032363F3E4
:1013040002006FF3C500094B094A9B1AC3F3C903D2
:1013140063F38F100C4904F041F8012000E0FF2032
:1013240005B030BDFF20FBE7548300004C7F000074
:10133400447F000034820000788300007083000042
:1013440080830000688300009083000070B5A4B01F
:10135400202928D80D4606460024144B1B68A342B6
:101364001CDD09A806F0F2F9002109A802F090F8A2
:101374000F4B03EBC4025268126853F8341009A8E7
:1013840006F0EAF901A909A806F029FA2A46314625
:1013940001A804F0ECFA18B10134DEE74FF0FF3491
:1013A400204624B070BD4FF0FF34F9E78C80000074
:1013B400908000002DE9F041D6B017461C465F9D91
:1013C40004955E9D039506AD02955D9D01955C9D1A
:1013D400009503F0EFFB0646002840F08280609BF6
:1013E40023B1202206A9184604F0D9FA0023009359
:1013F400FF23224639464EA803F0A2FC06460028E5
:101404006FD1074680464FF0FF351DE04FF0FF35A2
:101414001AE04FF0FF3517E04FF0FF35012713E0D6
:10142400BDF85231202B60D10EAA5599204604F004
:10143400B8F800285CD120220EA906A804F097FA77
:10144400002857D14FF001080DF251130DF5A97280
:1014540055A94EA803F0D9FC002840DB38DC9DF8E0
:101464005131102BDCD0012B21D0202BECD1002DBD
:10147400CCDB294B1B68AB42CBDDBDF85231B3F555
:10148400807F3FD10EAA5599204604F08AF800289F
:101494003BD1BDF85231EDB200950EAA202106A829
:1014A40000F0B0F80028B7D04FF0FF35CCE7BDF816
:1014B4005231202B21D80EAA5599204604F071F8F8
:1014C400F0B99DF852110EA8FFF740FF0546BBE79F
:1014D400B8F1000F1CD027B94FF0FF3601E04FF0F0
:1014E400FF36304656B0BDE8F0814FF0FF36F8E7DE
:1014F4000646F6E74FF0FF36F3E74FF0FF36F0E726
:101504000646EEE74FF0FF36EBE74FF0FF36E8E72D
:101514004FF0FF36E5E700BF8C80000070B5ADF5F5
:101524001C7D4468B4F5807F55D1202A56D10E46DF
:1015340041AA194601F06AFF0546002851D19DF8D9
:101544000332BC2B50D10DF2E31109A803F0C6FB02
:101554002B4606E041AAD25C09A8C45C6240C2548E
:101564000133DE2BF6DD9DF8243003F07F038DF884
:101574002430BD2D05DC09AB5B5D002B37D1013573
:10158400F7E79DF8E230012B37D181A806F0DEF8A9
:10159400002181A801F07CFF0822194981A806F0E6
:1015A400DBF82022314681A806F0D6F820220DF17E
:1015B400E30181A806F0D0F801A981A806F00FF98B
:1015C40020220DF2E31101A804F0D1F9034680B101
:1015D4004FF0FF330DE04FF0FF330AE04FF0FF33DD
:1015E40007E04FF0FF3304E04FF0FF3301E04FF02A
:1015F400FF3318460DF51C7D70BD4FF0FF33F8E73F
:10160400A08300002DE9F041ACB005460E46174614
:101614001C469DF8C8800022114601A806F050F827
:10162400124B53F838202CA941F8B02D03EBC80312
:101634005B681B681A4401A803F0FBFA804610B9E2
:10164400029BA34206D001A806F048F840462CB0FD
:10165400BDE8F0813B463246294601A8FFF75EFF0C
:10166400804601A806F03AF8F0E700BF9080000039
:1016740008B50B6801330B60014B1B68984708BD24
:10168400385B00202DE9F84F81468A4615469B4673
:101694000A9B002B2DDD01270A264FF00008204C61
:1016A40010E0B5FBF4F051463030C84701374FF035
:1016B4000108013EB5FBF4F304FB1355194BA3FBDE
:1016C4000434E408092C17D9B8F1000FE9D1AC426D
:1016D400E7D90A9B9E42ECDCBBF1020FE9D8BBF1CF
:1016E400010F04D020205146C8470137E1E73020DC
:1016F400F9E701230A93CEE7514605F13000C847C4
:10170400BBF1030F01D0BDE8F88F0A9BDF1B03E098
:1017140051462020C84727467C1E002FF8DCF2E7FC
:1017240000CA9A3BCDCCCCCC014B1860704700BFAB
:10173400385B002010B582B002AC002344F8043DAD
:101744000B4602462146024803F06FFC02B010BD6E
:10175400751600004FF02002EFF3118382F3118815
:10176400BFF36F8F044A0121C2F8401583F3118837
:10177400BFF36F8F00207047009003502DE9F043B2
:1017840083B080460F461646114B1B689847814626
:10179400002400E001340F4B0F4A9B1AB4EB231FC3
:1017A40012DA0D4800EB041043685B79002BF1D08A
:1017B4002301094AD3585D68002DEBD000963B46BF
:1017C4004A464146A847E5E703B0BDE8F08300BFB9
:1017D4003C5B0020847F0000747F000008B5044B4C
:1017E400044A1A604FF4004000F008FA08BD00BF34
:1017F4003C5B002099530000054B064A9B1AB1EB51
:10180400D30F02D252F8310070470020704700BF56
:10181400747F0000447F000008B50B4BC31A1B11F2
:1018240001334268137143681960436801225A7195
:10183400064B1B781BB1054B01221A7008BD0448E6
:1018440002F054FDF7E700BF747F00002C2B00204A
:10185400205C002038B5134BD3E8EF2F511CC3E8AC
:10186400E01F0028F8D1DAB9002405E004220021A1
:101874002846FFF7D1FF01340B4B0C4A9B1AB4EBFB
:10188400231F0DDA094D05EB04152B7B002BF2D039
:101894002301064AD3585B69002BE7D09847E5E754
:1018A40038BD00BF78290020847F0000747F0000C9
:1018B400104B1B7803B1704710B5FFF7CBFF002422
:1018C40000E001340C4B0D4A9B1AB4EB231F0CDAD5
:1018D4000A4800EB041043685B79002BF1D0230124
:1018E400064AD3581B699847EBE7024B01221A704A
:1018F40010BD00BF2D2B0020847F0000747F0000EA
:101904000EB400B582B003AB53F8042B0193014627
:10191400044803F08AFB002002B05DF804EB03B036
:10192400704700BF95540000F0B585B011F0440F26
:1019340005D01A4B1C6834B9002005B0F0BD184915
:10194400FFF7DEFFF9E7174B1D68B2FBF5F5B5FBB2
:10195400F4F1154AA2FB0132D20A4FF4616606FB88
:101964001216124BA3FB06735B0904FB11514FF4CF
:101974007A7505FB01F1B1FBF4F707FB141105FBC4
:1019840001F1B1FBF4F402940197C3EB0314A10039
:10199400711A00910649FFF7B3FFCEE77C290020B6
:1019A4007C85000080290020C5B3A291898888889D
:1019B4008885000061B108B52AB1064A52F823208F
:1019C40012B9054A00E0044A0449FFF799FF08BD2B
:1019D400704700BF04850000F88400000085000003
:1019E40011F0100F0BD108B511F0200F03D10449E9
:1019F400FFF786FF08BD0349FFF782FFFAE7704748
:101A040040850000408900002DE9F04105460F465D
:101A1400164698460699FFF7E3FF002404E024499C
:101A24002846FFF76DFF01344445F8DB002409E044
:101A34001F492846FFF764FF0BE01E492846FFF7BD
:101A44005FFF01340F2C0CDC002C02DD14F0070FB7
:101A5400EED0B442F1D23A5D17492846FFF750FF61
:101A6400EFE716492846FFF74BFF002409E0104929
:101A74002846FFF745FF0BE011492846FFF740FFD2
:101A840001340F2C12DC002C02DD14F0070FEED011
:101A9400B44206D23A5DA2F120035E2BECD92E2289
:101AA400EAE703492846FFF72BFFE9E7BDE8F081A1
:101AB4003C85000020850000188500002485000076
:101AC40028850000F8B5044616461F4649B9002586
:101AD40086B10123079A934013F0100F16D10C4ED0
:101AE40009E00C4B079A53F822200B49FFF708FF33
:101AF4000546EDE7064E06993846FFF77DFE024699
:101B040031462046FFF7FCFE2844F8BD034EF2E7B9
:101B14003085000048850000388500002C850000D1
:101B240070B584B005461E46C1F3C203C1F38910E3
:101B340011F007040FD1089B32462946104803F0E0
:101B440074FA94B9304603F049FC98B10D4928461B
:101B5400FFF7D6FE0EE00290019300941346012293
:101B64000999284603F05EFCE5E7224609992846D0
:101B740003F04CFC284603F07EFC04B070BD00BFAB
:101B840095540000448500002DE9F04784B0804658
:101B94001D460C9E0D9C0E9F01F0070AC1F3C20363
:101BA400C1F3891102910193CDF800A013460122DB
:101BB400394603F037FC81462A460F494046FFF771
:101BC4009FFE0CE02546102C28BF102500974B469D
:101BD4002A4631464046FFF717FF2E44641B002C6B
:101BE400F0D152463946404603F010FC404603F01B
:101BF40042FC04B0BDE8F08700850000074B0122D9
:101C04001A6004E04008054A13685B001360044B43
:101C14009842F7D8034B1860704700BF8029002012
:101C240040420F007C29002008B5034802F0C2F9A5
:101C3400024B586008BD00BFBC8500008C29002001
:101C440008B5024803F017FC08BD00BFC4850000B6
:101C54002DE9F04184B00E46174698464FF0200314
:101C6400EFF3118583F31188BFF36F8F0B4C20467C
:101C740003F001FC0F2302930B9B01930A9B009337
:101C840043463A4631462046FFF77EFF85F31188E6
:101C9400BFF36F8F04B0BDE8F08100BFC4850000BE
:101CA4002DE9F04182B00E46174698464FF02003C6
:101CB400EFF3118583F31188BFF36F8F0A4C20462D
:101CC40003F0D9FB0F230193089B009343463A4644
:101CD40031462046FFF724FF85F31188BFF36F8F49
:101CE40002B0BDE8F08100BFC485000010B4044612
:101CF4000022084B1B68934208DD1301064909685A
:101D0400C818CB5CA34202D00132F2E700205DF890
:101D1400044B704778860000405B0020084B1B682A
:101D24003BB110B50C46FFF7E1FF28B1206000205D
:101D340010BD6FF00C0070476FF00100F8E700BFB2
:101D4400405B002000B58BB003AB0093024B03F063
:101D540000FC0BB05DF804FB1B55000010B50446F5
:101D64000A2805D1064B186843685B680D2198471B
:101D7400034B1868E1B243685B689847204610BD7E
:101D84009829002010B5044C204600F081FC204620
:101D9400FFF7CAFC10BD00BF611D000008B5044870
:101DA40002F008F9034B1860FFF7ECFF002008BDB0
:101DB400BC8500009829002008B501214FF48070EB
:101DC40003F073FC18B1094B9B685B7A33B10221B1
:101DD4004FF4827003F069FC20B908BD034803F096
:101DE40019FDF4E7024803F015FDF6E7B45B0020A3
:101DF400C05B002020F07F40014BC3F840057047D2
:101E040000500150014BD3F80405704700500150B5
:101E140070B50E4B0022C3F840214FF02003EFF3BE
:101E2400118683F31188BFF36F8FFFF7EBFF084D23
:101E34002C68214603F024FD04442C6086F31188A9
:101E4400BFF36F8F02F086FA70BD00BF00500150DF
:101E5400B429002070B5174802F0ACF838B34268D2
:101E6400126800219047144D0024C5F80845012646
:101E7400C5F840654FF48033C5F804330F4B1C603C
:101E84000F4B4FF40012C3F880212246314615202F
:101E940000F036F9152000F023F90A4B1E602E607D
:101EA400FFF7B0FF3044FFF7A5FF204670BD4FF0A9
:101EB400FF30FBE7A886000000500150405101505C
:101EC40000E100E008500150F8B5B0F1FF3F35D013
:101ED400441E234B9C4201DC002C31DD204B9C42F0
:101EE40000DD204C4FF02003EFF3118683F31188BB
:101EF400BFF36F8FFFF786FF07461B4B1D6829460C
:101F040003F0BEFC2044013005443946284603F062
:101F1400B7FC022816D82846FFF76CFFFFF772FFBC
:101F24000146284603F0ACFC421E104B9A4211D8DD
:101F340001280AD1A81CFFF75DFF06E00948C7E79E
:101F44000024CFE72846FFF755FF86F31188BFF337
:101F54006F8FF8BD064B4FF40012C3F80021F4E76D
:101F6400FDFFFF00FEFFFF00B4290020FEFF7F00FD
:101F740000E100E010B54FF02003EFF3118483F388
:101F84001188BFF36F8FFFF73DFF044B196803F00F
:101F940077FC84F31188BFF36F8F10BDB429002040
:101FA40038B54FF02003EFF3118583F31188BFF3A5
:101FB4006F8FFFF727FF054B1C68214603F060FC79
:101FC400204485F31188BFF36F8F38BDB4290020F6
:101FD400704700BF12498A684FF028001044EFF39D
:101FE400098C80E8F01F202080F31188BFF36F8FE5
:101FF4000C4F4FF00066CA698A603E60506E002341
:10200400536680F3118804B5104603F06EFCBDE8F6
:10201400044002F1280090E8F01F8CF3098870470F
:10202400002B002004ED00E01EF0040F0CBFEFF3C2
:102034000880EFF30980816911F8021C0229FFD09E
:1020440001B503F029FC01BD014910220A60704763
:1020540010ED00E0404080F31188DFF81CC0DCF88C
:1020640000C01CF4006C0CBFEFF30880EFF3098090
:1020740001B500F01BF901BD04ED00E030BFFFF72E
:10208400FDBF00BF01B5EFF30580A0F110004FEADA
:10209400C0000449014409C99847BDE80140024908
:1020A40008470000A07C0000D51F0000094A93687F
:1020B400586609490968996608494B6843F0805392
:1020C4004B60002383F31188BFF36F8F9368986E7E
:1020D400704700BF002B00200C89000000ED00E0D9
:1020E40043B2002B08DB00F01F005B09012202FA57
:1020F40000F0024A42F82300704700BF00E100E00C
:10210400013143B2002B08DB4901C9B203F160433A
:1021140003F5614383F80013704700F00F00490191
:10212400C9B2014B1954704714ED00E008B5084BCF
:1021340023F07F03074A9360BFF34F8FBFF36F8F82
:1021440001F060FF01F06AFF00F0CEF801F096FFA5
:102154000000000000ED00E003F016F9202080F3F9
:10216400118808484FF40061401880F30988EFF3A0
:1021740014800221084380F31488BFF36F8FFFF7A4
:10218400D5FF00003853002010B514460F4B9A6A4F
:102194009A6A9B6A13F0020F0BD00C4B5A6B9B6A22
:1021A40013F0800F05D021B1084A936A23F080030D
:1021B4009362064B9A6A9A6A9A6A9A6A42F0FF0292
:1021C4009A6203F075FB2070002010BD00ED00E062
:1021D40010B51446124B9A6A9A6A9B6A13F4007FEC
:1021E4000BD00F4B9A6B9B6A13F4004F05D021B1AF
:1021F4000B4A936A23F400439362094B9A6A9B6ADD
:1022040013F4807F01D1064B9B6A054A936A43F419
:102214007F43936203F04CFB2070002010BD00BF8D
:1022240000ED00E0074B9A6A9A6A9A6A9A6A9A6A77
:102234009A6A9A6A9A6A6FEA02426FEA12429A6248
:102244000020704700ED00E008B500230B70134B2D
:10225400DB6A13F0020F1CD1104BDB6A13F0804FC2
:1022640019D00A460E4B1B7843B90E4B1B784BB959
:102274000D4B1B889BB24BB900200BE00121FFF7EB
:1022840083FF07E00121FFF7A3FF03E0FFF7CAFF85
:1022940000E0002008BD0020FCE700BF00ED00E0E6
:1022A40028ED00E029ED00E02AED00E010B582B051
:1022B4000446084B59680DF10702C1F3080103F005
:1022C400F9FA9DF807300BB102B010BD214603F0B6
:1022D400DFFAF9E700ED00E0024A536943F0100326
:1022E4005361704700ED00E000220AE053B2002B76
:1022F4000ADB03F1604303F56143202183F80013F3
:102304000132402AF2DD704702F00F01024B0B4408
:1023140020211976F4E700BFFCEC00E038B505464F
:102324004FF02003EFF3118483F31188BFF36F8F11
:1023340005F03FFC0A4B9B68AB4209D1094B5B6833
:10234400C3F3080343B1074A536843F0805353600F
:10235400204601F0F9FE38BD2046FFF7A7FE00BF76
:10236400002B002000ED00E0014B024A1A63704785
:1023740090ED00E0AAFF440010B40B6823F01F02A4
:102384000C7A04F01F031A43CB6823F01F0364097B
:1023940043EA440343F0010303498860CA600B61C4
:1023A4005DF8044B704700BF90ED00E010B50F28B6
:1023B40004D80446FFF7E0FF204610BD4FF00004A8
:1023C400012363F302046FF3C504074B074A9B1A06
:1023D400C3F3C90363F38F1402460549204602F090
:1023E400DDFF6FF01504E7E7547F0000447F000031
:1023F400288700002DE9F04F87B080468B46019373
:10240400144600255EE0012363F302006FF3C50068
:102414006B4B6C4A9B1AC3F3C90363F38F102A46B0
:10242400694902F0BBFF6FF0150416E06FF0150662
:1024340065E04FF00000012363F302006FF3C50071
:102444005F4B604A9B1AC3F3C90363F38F10324690
:102454005E4902F0A3FF6FF01504204607B0BDE803
:10246400F08FBA4564D1F0B203F057FA29E0584A24
:10247400C2F808C0D36803F01F0320F01F001843FC
:10248400D06058F80910E0B203F047FA044610F19E
:10249400160FE2D0013414E0013B4D49C1F808C0E5
:1024A4000A6902F01F0223F01F0313430B6158F85B
:1024B4000910E0B203F031FA044610F1160FCCD043
:1024C400013401355D45C8DA4FEA850958F82560BD
:1024D4007768002FF5D0019B23B1304603F00BFA47
:1024E400002890D0D6F800A0504602F0E8FC06463A
:1024F40007EB0A00013802F0E2FC864296D116F19D
:10250400160F96D0631EB34293DBB446304B9E60E5
:10251400DA6822F01F029E601F6947F01F0758F80F
:1025240009100B684868184400F1FF3A934298D0A8
:1025340093429CD0BA45AFD0013B25496646C1F8C9
:1025440008C00A6902F01F0223F01F0313430B6142
:1025540058F80910E0B203F0E0F9044610F1160F40
:102564003FF47BAF01301A4B9E60D9689DF8102070
:1025740061F304028DF810201B69C3F34203D2B245
:1025840063F347128DF8102058F809201168546835
:10259400214402911368234423F01F03A7EB0A0785
:1025A4001F44013F27F01F07059702A9C0B2FFF798
:1025B400FDFE044610F1160F3FF44FAF013480E7DF
:1025C400547F0000447F0000E08600000487000080
:1025D40090ED00E0F8B506460F46104B1D782B46EB
:1025E40004E00F4A93600021116101330F2BF8DDE1
:1025F4000024002C06DD01232A4639463046FFF725
:10260400F9FEF8BD0748A30023449A008118043159
:102614008058FFF7B1FE0134EBE700BF2F2B0020F9
:1026240090ED00E0B8290020034B05225A60BFF367
:102634004F8FBFF36F8F704790ED00E0BFF35F8F54
:10264400014B00225A60704790ED00E038B50E4B04
:102654001D68102D15D8FFF7F1FFFFF785FE002444
:1026640007E0094B596801EB04112046FFF784FE8B
:102674000134A542F5D8054B1D70FFF7D5FF0020A6
:1026840038BD4FF0FF30FBE7C08400002F2B002043
:10269400014B1860704700BF445B00200023072BE8
:1026A4003AD870B403F5A2721D4C54F8222012F0EB
:1026B400030F07D00133DBB2072BF3D96FF01200FD
:1026C40070BC70479C00164A03F5A27552F8256049
:1026D40026F4473626F4407642F8256052F8256001
:1026E400000200F4F850090401F440310843304377
:1026F40042F8250004F1A04101F551410020086091
:1027040052F8251041F0010142F82510012101FA87
:1027140003F3C2F80433D3E76FF01200704700BF2D
:1027240000D0005010B4144BD3F80443E4B2002397
:1027340000E00133072B1BD803F5A2720E4951F8B0
:102744002220C2F304229042F3D124FA03F212F0BD
:10275400010FEED00A4603F5A27051F8201021F0C3
:10276400010142F82010012101FA03F3C2F80833F1
:102774005DF8044B704700BF00D0005070B50D46A3
:10278400866803689B681B7901F01F0444EA4314BC
:102794002046FFF7C7FF2B4B04F1800253F82210A9
:1027A40021F4403143F8221053F8221043F8221048
:1027B400B368EB4013F0010F3FD0F368EB4013F024
:1027C400010F3CD07369EB4013F0010F1AD0B369C9
:1027D400EB4013F0010F0ED13369EB4003F001031A
:1027E400DAB2F36923FA05F505F00105EDB2AA4260
:1027F40006D0012100E003212046FFF74FFF1DE032
:102804000221F9E73369F269534023FA05F515F01B
:10281400010F10D002200B4B803453F8241021F404
:10282400403143F8241053F8242042EA004243F88C
:102834002420002002E00320EDE7002070BD0020EA
:10284400FCE700BF002584502DE9F04F83B0846875
:1028540003F47045B5F5804F3FD00CDDB5F5E04F7E
:1028640038D012DDB5F5404F2BD0B5F5504F09D116
:102874004FF0070A11E0B5F5805F25D0B5F5405F4C
:1028840025D045B16FF015039BE0B5F5A04FF9D104
:102894004FF0030A01E04FF0000A03F44075B5F568
:1028A400807F20D0B5F5007F1AD0002501951E4603
:1028B400074603F0010BD946012917D0D5B2A84623
:1028C40040E04FF0060AE8E74FF0010AE5E74FF071
:1028D400040AE2E74FF0050ADFE74FF0020ADCE7FB
:1028E40001250195E3E703250195E0E74FF01F0873
:1028F400002527E0A3680122AA4023EA02033DE061
:10290400636901228A4023EA02033FE0A3690122AA
:102914008A4023EA020341E0236901228A4023EA30
:10292400020343E0E369012202FA01F123EA01010F
:10293400E16129463846FFF721FF0346002840D1CC
:102944000135EDB2A8453BD33B689B681A7929460B
:1029540005F01F0343EA42134BEA4902019842EA95
:10296400800242EA0A228033184840F8232016F0F5
:10297400020FBFD0A3680122AA401343A36016F03C
:10298400200FBDD0636901228A401343636116F0AE
:10299400400FBBD0A36901228A401343A36116F000
:1029A400040FB9D0236901228A401343236116F02E
:1029B400800FB7D0E369012202FA01F11943B7E7A6
:1029C4000023184603B0BDE8F08F00BF00258450F3
:1029D400F0B4866803689F68F368B2681A40736944
:1029E400B1690B4322EA03020121002013E04FF0F6
:1029F400030C134C803354F8235025F4403544F829
:102A0400235054F8235045EA0C4544F8235022EA55
:102A140001020130490082B11142FAD03C7900F040
:102A24001F0343EA44133469F5696C40C44014F04D
:102A3400010FDCD04FF0020CDBE7F0BC704700BFA5
:102A440000258450F0B4816803689F68CA688B6865
:102A54001A404B698869034322EA03023B681869F8
:102A6400CB6958400B69584022EA00000121002438
:102A740001E001344900AAB10A42FAD03D7904F0D8
:102A84001F0343EA4513084D803355F8236026F4A9
:102A9400403645F8236055F8236045F8236022EA60
:102AA4000102E6E7F0BC704700258450F0B583B01E
:102AB400002301932E4B1C68012C01D0002208E056
:102AC4002C48FFF7BFFF0190294B00221A60F5E75D
:102AD4000132072A21D8930003F580730121914024
:102AE4002548D0F804030142F2D09BB203F1A0437D
:102AF40003F5504319680129EAD102F5A2711E4871
:102B040050F82100C0F30420012101FA00F00199DA
:102B14000143019100211960DAE7019E1EB9012CDD
:102B240022D003B0F0BD134B9F68396811B121B1B5
:102B34000D6807E00025294604E0002502E02B4645
:102B440029461D460029EAD08B683340FA681342AF
:102B540003D04B68324607489847002DEFD00DB19B
:102B64002B68EDE70023EBE70248FFF731FFD8E7D6
:102B74007CD10050085C002000D0005008B50B4BFD
:102B84001B780BB1002008BD084B01221A700022EB
:102B940005210D20FFF7B4FA0D20FFF7A1FA044B2D
:102BA4004FF00042C3F80423ECE700BF302B0020B1
:102BB40000D00050034BD3F8003413F0010FF9D0C8
:102BC400704700BF00900350014B197000207047FC
:102BD400312B0020024B0B6001231360704700BFB0
:102BE400EC29002010B504F021FF054C206004F00E
:102BF40019FF6060034B01221A70002010BD00BF52
:102C0400EC290020312B0020F8B50C46154604F0C1
:102C140009FFB5FBF0F71A4B1B78DBB9064604F045
:102C2400FDFEA04219D9002C1ADB85421BD82B19B2
:102C340098421BD3B4FBF6F306FB1343CBB906FB54
:102C44001756CEB90FB90020F8BD2946204602F028
:102C5400A6FFF9E76FF00C00F6E76FF01500F3E755
:102C64006FF01500F0E76FF01500EDE76FF0150059
:102C7400EAE76FF01500E7E76FF01500E4E700BF3F
:102C8400312B00201548007808BB70B51D46164648
:102C94000C4604F0C3FEA04208D9002C0BDB85428D
:102CA4000BD82B1998420AD3012300E000238BB1DF
:102CB4003DB9002070BD0023F9E70023F7E70023A6
:102CC400F5E72A463146204602F0A4FFF2E76FF00A
:102CD4000C0070476FF01500ECE700BF312B0020AB
:102CE40003689B681A6847F61223994261D010D989
:102CF400B1F5E13F66D037D9B1F5E12F68D046D8B8
:102D0400B1F5613F61D0384B99426AD14FF080638D
:102D140015E0B1F5965F46D015D8B1F5167F5DD0B4
:102D240008D9B1F5966F3BD0B1F5166F59D14FF470
:102D34001D2304E0B1F5967F53D14FF4A033C2F8BC
:102D4400243500207047B1F5615F2ED007D9B1F565
:102D5400964F2CD0B1F5E14F43D1244BEFE7B1F5B9
:102D6400165F3ED1224BEAE74DF6C023994223D0A9
:102D740007D9B1F5614F22D0B1F5963F31D11D4B42
:102D8400DDE7B1F5164F2CD14FF41D03D7E7B1F5AC
:102D9400612F20D0184B994223D14FF08053CEE7B6
:102DA4004FF49E23CBE7154BC9E7154BC7E7154BEB
:102DB400C5E74FF40003C2E74FF46503BFE74FF4E0
:102DC4006B03BCE74FF0EB73B9E74FF06C73B6E7F6
:102DD4004FF0E863B3E74FF07063B0E74FF41C3390
:102DE400ADE76FF01500704790D0030000C0750088
:102DF4000050270000903A0140420F0000B0130039
:102E040000F03A0000A04E00F8B5164603689B682F
:102E14001C6885680B6801229A40274B9A600A68EF
:102E24008032032743F822704A688032002743F82F
:102E340022700A684B68C4F80C25C4F814358B68F2
:102E4400B3F1FF3F18D0CB68B3F1FF3F14D0012298
:102E540002FA03F3184A9360CB688033032742F8DD
:102E640023708B688033002742F82370CA688B680C
:102E7400C4F80825C4F81035816802F040FF034601
:102E8400C0B90822C4F800250022C4F8102105F1B5
:102E94000C02C4F834250122C4F8382522604EB14E
:102EA400AA689268C4F844250022C4F8482501227F
:102EB400A260E2601846F8BD0025845030B585B0A4
:102EC40005460A4B6C460FCB84E80F000022012113
:102ED4000820FFF715F90820FFF702F9012221461F
:102EE4002846FFF791FF05B030BD00BF887F000082
:102EF4000268124B9A4201D001207047C269A3F1C3
:102F04001023A3F1EF139A4201D001207047836884
:102F1400012B01D901207047C36813B102699342A0
:102F240006D0436933B18269934205D000207047CB
:102F340001207047002070470120704755AA00FF08
:102F440070B5104B9D68A5B12846FFF7D1FF064622
:102F540088B9EB680BB101260EE02C6964B12046F8
:102F6400FFF7C6FF50B9E368AB4209D1254624698F
:102F7400F4E7012600E00126304670BD0126FBE798
:102F84000126F9E7142A0020002800F0948038B5BF
:102F94000446494B1B68002B68D0474A9268002AB4
:102FA40064D0834263D9454B1B6801209847A4F140
:102FB40020052846FFF79CFF18B1404B1B680120F1
:102FC400984754F8183C012B03D03C4B1B68012054
:102FD4009847002344F8183C54F8143CCBB19A6841
:102FE400002A4AD154F81C2C59680A4420325A60E9
:102FF40054F8143C54F8102C1A6154F8144C2369F6
:1030040003B1DC6020220021284602F0EDFC2B46AF
:1030140025462C6924B3A26812BB63686A6813440A
:1030240020336B6023692B616B6943B3002B2AD077
:10303400AA699A61AB690BB16A695A6163696B6188
:10304400A269AA611BB39D61AB6903B15D612B6980
:1030540003B1DD6020220021204602F0C5FC234696
:10306400C3B1154B1B6913F0020F1BD138BD124AB3
:103074005268134483429AD895E70023C9E7AA69A2
:10308400002AD3D1DAE7AA690B4BDA60D2E70A4BFC
:10309400DD60D9E7084BDB68AB6103B15D61064BCA
:1030A400DD60DEE7FFF74CFF0028DFD0034B1B6831
:1030B40001209847DAE77047142A00206C5B00204F
:1030C40070B5514BDC681B68002B00F08F804E4BB1
:1030D4009B68002B00F08C8001FB00F6002800F0B8
:1030E4008980002900F08880B6FBF0F0884240F027
:1030F400858016F1040F00F2838016F0030F08D0C8
:1031040026F00305043534B16368AB4203D2A469E5
:10311400F9E73546F7E7002C74D0A3681BB13B4BA5
:103124001B68012098476268521B232A26D8012372
:10313400A3606369ABB1A2699A61A3690BB16269C7
:103144005A6100236361A3612F4B1B6913F0010FC4
:103154000BD1203432460021204602F045FC2046A3
:1031640070BDA269284BDA60E7E7FFF7E9FE0028A3
:10317400EFD0264B1B6801209847EAE705F12001B0
:103184006318203A5A6000229A60DC6022691A614E
:103194001F4860501F49D96102B1D36062695A6106
:1031A400A1699961B2B193619A6902B15361012233
:1031B400A2606560236100236361A361124B1B69F4
:1031C40013F0010F09D1203432460021204602F0C9
:1031D4000BFCC4E70C4AD360E6E7FFF7B1FE002816
:1031E400F1D00A4B1B6801209847ECE70024B6E7AE
:1031F4000024B4E70024B2E70024B0E70024AEE7DB
:103204000024ACE70024AAE7142A00206C5B002009
:1032140055AA00FF669911EE38B505460C461422EE
:103224000021134802F0E0FB1249134800F038F87B
:10323400232C1CD915F0030304D01C44043CC3F113
:1032440004031D4422460021284602F0CDFB084B0E
:103254001D605C609D60203C6C609A680749116049
:103264009A68A1F11021A1F1EF11D161DA6038BDA2
:10327400142A00208D2F0000C530000055AA00FF3D
:1032840008B5024B1B68984708BD00BF685B002067
:1032940008B5024B1B68984708BD00BF705B00204F
:1032A400024B1860024B196000207047685B0020D5
:1032B400705B002008B5034B1B680A460021984741
:1032C40008BD00BF745B0020F8B504460D4647688E
:1032D40000F10806304603F0E6F9874251D16368ED
:1032E400B3F5807F4FD80021304603F0E0FB00287F
:1032F4004BDD0021304603F0AFF9002847D0D5B1AB
:1033040004F12C060021304603F0D1FB002840DDF7
:103314000021304603F0A0F900283CD004F138061F
:103324000021304603F0C3FB002836DD002130467F
:1033340003F092F998B3002104F1140003F0B7FBF1
:1033440000282EDD15B98DB92846F8BD002104F1F9
:10335400440003F0ACFB002825DD002104F15000FB
:1033640003F0A5FB0028EEDC104DEDE7002104F18D
:103374005C0003F09CFB002801DD0025E4E70B4D15
:10338400E2E70A4DE0E7094DDEE7084DDCE7074DCB
:10339400DAE7064DD8E7054DD6E7044DD4E7034DEB
:1033A400D2E7024DD0E7014DCEE700BF80BFFFFF5B
:1033B40070B5044600221146FFF786FFD0B90646D1
:1033C40004F10805284603F057F97F2814D914346A
:1033D4000021204603F040F980B1204603F04CF967
:1033E40001280DD92946204603F019FB002809DAE3
:1033F400304670BD044EFBE7034EF9E7024EF7E793
:10340400014EF5E7004EF3E700BEFFFFF0B587B0CD
:1034140005460C46164600221146FFF755FF90BBA1
:1034240003A803F087F86A68214603A803F041F96A
:10343400044640B103A803F083F80CB1A4F5854415
:10344400204607B0F0BD05F10804214603A803F0A7
:10345400E6FA002802DB6FF00304EBE76F6805F17E
:1034640068030093234605F1140203A9084603F0F8
:1034740096FE04460028DDD13A46314603A803F0FF
:1034840049F90446D6E7014CDAE700BF80BFFFFFE5
:103494000023036043600B46E1B1194A8260194A74
:1034A400C26002F1794202F5740202F5016202611E
:1034B400154A4261154A826102F1D14202F5C012F5
:1034C40002F51E62C261124A0262124A42628366B5
:1034D40000207047104A8260104AC260104A02619C
:1034E400104A4261104A8261104AC261104A026263
:1034F40002F17452A2F52302A2F692424262E6E776
:10350400D89E05C107D57C3639590EF7310BC0FF5B
:10351400A78FF964A44FFABE67E6096A85AE67BB54
:1035240072F36E3C3AF54FA57F520E518C68059BA1
:10353400ABD9831F2DE9F04FD1B00790002306E0EB
:103544009A1C50F8222008AC44F823200133072B9E
:10355400F6D9002010E011F8204001EB80025378E6
:103564001B0443EA0463947843EA0423D2781343A4
:1035740010AA42F8203001300F28ECD94FF0000E89
:1035840042E10F9B0C9E4FEAF62181EAB61181EAD3
:10359400766119440E9C0D9884EA0003334063401D
:1035A4001944DFF8348758F82E3019440DF1400CD3
:1035B4005CF82E301944089D4FEA753A8AEAB50A38
:1035C4008AEAB55A099F05EA07030A9A45EA0709F0
:1035D40002EA090943EA09039A440B9B01EB030934
:1035E40051444FEAF92383EAB91383EA79631C440B
:1035F40086EA000309EA030343401C440EF1010A6E
:1036040058F82A301C445CF82A301C444FEA7133C1
:1036140083EAB10383EAB15305EA010A45EA010BDF
:1036240007EA0B0B4AEA0B0A534422441C444FEAB0
:10363400F22383EAB21383EA7263184486EA090325
:103644001340734018440EF1020A58F82A30184403
:103654005CF82A3018444FEA743383EAB40383EAEB
:10366400B45301EA040A41EA040B05EA0B0B4AEAE3
:103674000B0A5344074418444FEAF72383EAB71369
:1036840083EA77631E4489EA02033B4089EA030321
:103694001E440EF1030A58F82A301E445CF82A30FE
:1036A4001E444FEA703383EAB00383EAB05304EA5A
:1036B400000A44EA000B01EA0B0B4AEA0B0A5344E2
:1036C40035441E444FEAF52383EAB51383EA756350
:1036D400994482EA07032B40534099440EF1040AAB
:1036E40058F82A304B445CF82A904B444FEA763918
:1036F40089EAB60989EAB65900EA060A40EA060BDD
:1037040004EA0B0B4AEA0B0AD14419440F914B44C7
:103714000B934FEAF12989EAB11989EA71694A449C
:1037240087EA050901EA090987EA090991440EF1C2
:10373400050A58F82A204A445CF82A904A444FEA79
:10374400733A8AEAB30A8AEAB35A06EA030946EAEA
:10375400030B00EA0B0B49EA0B09CA4404EB020908
:10376400CDF8389052440A924FEAF92484EAB91405
:1037740084EA7964274485EA010409EA04046C4074
:103784003C440EF1060A58F82A703C445CF82A704E
:103794003C444FEA723787EAB20787EAB25703EA32
:1037A400020A43EA020B06EA0B0B4AEA0B0A5744E5
:1037B40020440D903C4409944FEAF02787EAB0175F
:1037C40087EA70673D4481EA090900EA090981EA48
:1037D400090129440EF1070058F8205029445CF8E7
:1037E400200001444FEA743080EAB40080EAB45007
:1037F40002EA0405224313402B4303440E440C966F
:103804000B4408930EF1080EBEF10F0F7FF6B9AE0C
:1038140010264BE20F9A0C9B4FEAF32787EAB31763
:1038240087EA73673A440E980D9D80EA05071F40A6
:1038340047403A44DFF8A0B45BF826701744B31E3F
:103844001A4610AB049253F822204FEAF24484EA59
:10385400724484EA9224F21F53F822201444A6F1FD
:103864000F0A53F82AC04FEABC4282EAFC1282EAE9
:10387400DC021444A6F1100253F82220224443F837
:1038840026203A4408994FEA713C8CEAB10C8CEA40
:10389400B15E099F3C460C400A990091089941EA9F
:1038A400070C009901EA0C0C44EA0C0CF4440B9C40
:1038B400144462444FEAF42888EAB41888EA746825
:1038C40080440C9981EA050904EA090985EA090991
:1038D400C844711C5BF821008044701E059053F8A5
:1038E40020004FEAF04C8CEA704C8CEA902CB01F0C
:1038F40053F820008444A6F10E0E53F82E904FEA9C
:10390400B94080EAF91080EAD900604453F82A905B
:103914004844029143F8210008EB00094FEA723849
:1039240088EAB20888EAB258089901EA020041EA32
:10393400020C019707EA0C0C40EA0C0CC4440098F2
:1039440000EB0908E1444FEAF82080EAB81080EA65
:10395400786005440C9981EA040008EA00004840B4
:103964000544B01C01465BF82000054453F82600CA
:103974004FEAF04C8CEA704C8CEA902C701F53F890
:1039840020008444A6F10D0A53F82A004FEAB040FF
:1039940053F82A7080EAF71080EAD700604453F89D
:1039A4002EC06044039143F8210005444FEA793C5A
:1039B4008CEAB90C8CEAB95C02EA090042EA090E05
:1039C400089901EA0E0E40EA0E008444019F07EBB9
:1039D400050E05EB0C0700974FEAFE2080EABE10A7
:1039E40080EA7E600C990D1884EA08010EEA010150
:1039F40061406818F71C5BF827100144029D53F8D6
:103A040025004FEAF04585EA704585EA9025301F88
:103A140053F8200005440195A6F10C0C53F82C0032
:103A24004FEAB04053F82C5080EAF51080EAD500F4
:103A3400019D284453F82A502844069743F8270048
:103A4400014400984FEA7035074685EAB00585EAD7
:103A5400B05509EA000049EA070A02EA0A0A40EAFC
:103A64000A000544089800EB010A294401914FEA31
:103A7400FA2585EABA1585EA7A652C4488EA0E05A2
:103A84000AEA050588EA05052544341D02945BF815
:103A940024000544039953F821404FEAF44080EA96
:103AA400744080EA9420F41E53F824402044A6F184
:103AB4000B0753F827104FEAB14484EAF11484EA5F
:103AC400D104044453F82C002044029943F8210003
:103AD400054401994FEA713C8CEAB10C8CEAB15C63
:103AE400009804460C4001460198084309EA000086
:103AF400204360442A440F9228440B904FEAF22C4E
:103B04008CEAB21C8CEA726CC4448EEA0A080392F2
:103B140002EA08088EEA0808C444741D21465BF8CA
:103B24002440A444069D53F825504FEAF54484EA02
:103B3400754484EA9524049A53F822502C44A6F13F
:103B44000A0853F828204FEAB24585EAF21585EAB7
:103B5400D205254453F827402C44049143F82140CE
:103B640064444FEA703787EAB00787EAB05701998F
:103B740001EA000541EA000C009901EA0C0C45EA4F
:103B84000C052F4409EB040CCDF838C03C440A94CE
:103B94004FEAFC2787EABC1787EA7C677744039DD2
:103BA4008AEA050E0CEA0E0E8AEA0E0E774406F136
:103BB40006095BF829502F44029D53F825504FEA1B
:103BC400F54E8EEA754E8EEA952E059A53F82250DC
:103BD400AE44A6F10902029253F8225029464FEA54
:103BE400B54585EAF11585EAD105754453F828E011
:103BF400754443F829502F444FEA743585EAB405D7
:103C040085EAB45500EA040940EA040E019A02EA7E
:103C14000E0E49EA0E09A9440099CD190D954F4499
:103C240009974FEAF52E8EEAB51E8EEA756ED644D4
:103C3400039A82EA0C0C05EA0C0C82EA0C02724428
:103C440006F107085BF8285002EB050E049953F8B7
:103C540021504FEAF54282EA754282EA952253F8EE
:103C640026100A44A6F1080553F825C04FEABC45BE
:103C740085EAFC1585EADC052A44029D53F82550A3
:103C84002A4443F8282072444FEA773383EAB7037F
:103C940083EAB75304EA0705274338402843184406
:103CA400019911440C911044089008363F2E7FF678
:103CB400B1AD0021079809E008AB53F821408A1CF4
:103CC40050F82230234440F8223001310729F3D937
:103CD400002051B0BDE8F08FF8870000044B1B6A48
:103CE400B3F1FF3F01D0002070470120704700BFAF
:103CF4000080FF00044BDB6913F0010F01D10020A9
:103D040070470120704700BF0080FF00084B1B680C
:103D1400092B01D000207047064B1B68012B03D0F0
:103D2400022B03D000207047012070470120704708
:103D34003001FF003401FF00064B1B68092B01D042
:103D440000207047044B1B68012B01D000207047F2
:103D5400012070473001FF003401FF00064B1B684F
:103D6400092B01D000207047044B1B68022B01D0A3
:103D740000207047012070473001FF003401FF002C
:103D8400064B1B68092B01D000207047044B1B68AD
:103D9400022B01D000207047012070473001FF0042
:103DA4003401FF00014B024A1A607047785B00201F
:103DB4000090D00308B50022FF2A15D802F1600351
:103DC4004FF47F0151F83330B3F1FF3F0CD002F1CF
:103DD40060034FF47F0151F83310DB0003F57F03D8
:103DE4005B680B600132E7E7FFF784FF00283BD1F3
:103DF400FFF774FFC0BBFFF789FF30B14FF05023CA
:103E04000022C3F81421C3F81821FFF795FF30B13D
:103E14000123354A1360A2F63822C2F87835FFF739
:103E24009DFF38B1304B00221A60A3F638230122DB
:103E3400C3F87825FFF7A4FF10B12C4B0C221A60AD
:103E44002B4BD3F88C2042F44062C3F88C20D3F877
:103E5400882042F47002C3F88820BFF34F8FBFF369
:103E64006F8FFFF79FFF08BD224BD3F80034012B5F
:103E7400FAD1204B0122C3F804251E4BD3F8003499
:103E8400012BFAD1FFF736FF48B11B4AD36923F05F
:103E94000103D361174BD3F80034012BFAD1FFF798
:103EA4001DFF58B1144A136A23F0FF0343F02003A3
:103EB4001362104BD3F80034012BFAD10D4B0022BE
:103EC400C3F804250B4BD3F80034012BFAD1BFF30C
:103ED4004F8F0749CA6802F4E062084B1343CB6072
:103EE400BFF34F8F00BFFDE7384A0050E4AE0350E4
:103EF40000ED00E0009003500080FF000400FA058C
:103F0400024B0022C3F80425704700BF0090035001
:103F1400024B0122C3F80425704700BF00900350F0
:103F2400024B0222C3F80425704700BF00900350DF
:103F3400044BD3F8083413F0010FF9D00160BFF338
:103F44005F8F70470090035010B5044603F0F5FCF2
:103F540008B9084810BDFFF7E3FF4FF0FF332360B3
:103F6400054BD3F8003413F0010FF9D0FFF7C8FF65
:103F74000248EFE70A00AD0B009003500000AD0BC0
:103F840038B505460A4B53F8204000E00C346B1C4E
:103F9400074A52F82330A34208D923685B682046B5
:103FA40098470028F2D000236360EFE738BD00BFD4
:103FB400F888000038B5114C00E00C34104B9C42DA
:103FC40008D06368002BF8D023681B688342F4D1BF
:103FD400204638BD0546094C00E00C34084B9C4291
:103FE4000AD06368002BF8D023681968284601F0CA
:103FF400B3FC0028F1D1EBE70024E9E7845B00205F
:10400400205C002008B50348034A121A002101F07D
:10401400EBFC08BD00000020342B002008B5064846
:10402400064A121A064901F0BAFC064A064907482C
:1040340001F0B5FC08BD00BF385B0020445C0020E3
:1040440048890000000000004889000000000020AA
:1040540008B50220FFF794FF064801F086F9032013
:10406400FFF78EFFFCF7F6F9034A137B23F00103F5
:10407400137308BD10890000942A002008B5FDF7C9
:10408400ADFB164B83F30888154CE02384F82230EB
:104094000025E57725766576A576636A43F4E02303
:1040A4006362FEF719F9FDF7CFFF4FF0FF33A36208
:1040B400E3622846FFF764FF0120FFF761FF2A4609
:1040C40029462846FFF7C4FF4FF02002EFF311837F
:1040D40082F31188BFF36F8FFEE700BF385B0020C7
:1040E40000ED00E010B5054C03E0204603F0C0FCF1
:1040F4001C34034B9C42F8D3002010BD205C0020EC
:10410400205C00200846C1B908B5EFF305830D2BE8
:1041140007D83BB10B4B5B6813F4006F02D101214C
:1041240000E0012111F0010F04D080F31188BFF3E6
:104134006F8F08BDFDF7BAFFFBE781F31188BFF36A
:104144006F8F704700ED00E008B5034668B9EFF3E0
:1041540005820D2A07D86AB10A4A526812F4006F20
:104164000AD0002200E0012242B183F31188BFF398
:104174006F8F08BD0022F7E70122F5E71846FDF727
:1041840095FFF6E700ED00E00A4B834209D04B6847
:104194000A681A600B684A685A6000230B604B6017
:1041A4007047203B9B688B42F1D14B7B13F01F0F70
:1041B400EDD0F5E7202B002010B504460C4803F0A1
:1041C40091FC034658B13CB90A4A9268517B11F0FC
:1041D4001F0F01D1996929B1064AD36110BD054B5E
:1041E400DB68F0E704498A42F6D0024BDA61F5E76E
:1041F400202B0020002B0020282A002070B5054623
:1042040000234FF02002EFF3118682F31188BFF3ED
:104214006F8F1DE063686B602C6063681D60656070
:104224000AE000241AE0174B03F120022A605A6ABC
:104234006A605A6A15605D626B7B43F040036B737E
:104244000020FFF7B9FF86F31188BFF36F8F0123B6
:10425400B3B90C4B53F8204F9C42E2D0002CE2D06F
:104264002146284603F014FC0028D3D1002CDAD0D0
:10427400044B5B6A9C42D6D02468002CEED1D2E772
:1042840070BD00BF002B002038B5044600234FF05A
:104294002002EFF3118582F31188BFF36F8F0CE0D6
:1042A4000D4B9868A04214BF00200120FFF784FF43
:1042B40085F31188BFF36F8F012363B9637B13F018
:1042C400400FEDD021460548FFF75EFF637B23F0E6
:1042D40040036373E4E738BD002B0020202B00204B
:1042E400014B9868704700BF002B002010B54FF0B9
:1042F4002003EFF3118483F31188BFF36F8F03F06E
:1043040035FC21460148FFF7FDFE10BD282B002097
:10431400034B1868984200D070470020FCE700BFA8
:104324007C5B002030B1044A5268904201D000689E
:1043340070470020704700BF7C5B002008B5044B29
:104344001B680BB1002008BDFDF714FEFBE700BF9E
:10435400282B00202DE978484FF02003EFF3118536
:1043640083F31188BFF36F8F244B18601FE0244E32
:10437400D6E9000110EB020B41EBE27CC6E900BC7C
:104384009B1A1E4A13600023A360204603F038FCE6
:1043940085F31188BFF36F8FE368204698474FF089
:1043A4002003EFF3118583F31188BFF36F8FFFF7B9
:1043B400AFFF044620B18268104B1B689A42D6DDD9
:1043C40024B1A3680D4A12689B1AA3600C480B49D8
:1043D4000C68D0E9002312EB040B43EBE47CC0E946
:1043E40000BC00240C6003F01EFC2146FDF76CFDAC
:1043F40085F31188BFF36F8FBDE87888282B0020E0
:104404000000002010B5054C03E0204603F038FC02
:104414001C34034B9C42F8D3002010BD205C0020C8
:10442400205C002070B582B0054601A90079FCF734
:104434009BF8AC68019B1C442B681D8966194FF0DE
:104444002002EFF3118382F31188BFF36F8F01F021
:1044540016FA635983F308887368984702B070BDED
:10446400012909D0022905D011B16FF01500704758
:10447400022070470720704706207047FF207047CE
:1044840038B515461C4601F08CF860B90146002386
:10449400A34205D2EA5CFF2A03D10133DBB2F7E77A
:1044A4000121084638BD4FF0FF31FAE702EB420321
:1044B4000138013902FB01F203FB0020704730B4DC
:1044C4000446836D9D680020002909DB636A03EBC1
:1044D400C1035B6803449D4202D301391846F3E7E4
:1044E4000131116030BC704738B50446006A01F0F0
:1044F400D5F80546A06D01F0D1F8854200D238BD4B
:104504002846FCE7F0B583B007460C460020FFF7C9
:10451400A7FF01A9C0B2FDF701FCE8B9064601985E
:10452400FFF7ACFF0546019801F03AF82C2000FB98
:1045340004700023032B05D8C25C954207D10133D4
:10454400DBB2F7E7012323B1304603B0F0BD00230B
:10455400F9E74FF0FF36F7E74FF0FF36F4E710B511
:1045640082B080230193022905D0062911D007299E
:1045740013D001230AE0426A00F12804084601A985
:10458400FDF7E0FB034608B9019A2260184602B021
:1045940010BD026D00F15404F0E7C26D00F1600437
:1045A400ECE738B505460221FFF7D9FF10B1012425
:1045B400204638BD06212846FFF7D1FF08B1012463
:1045C400F6E707212846FFF7CAFF044608B101248D
:1045D400EEE72846FFF788FF85F86500E8E770B541
:1045E40082B006460D460C220021284601F0FCF953
:1045F40001232B602B71AB713046FCF7C1F8012805
:1046040005D00446022803D040B1072406E007245D
:1046140001A9E0B2FDF782FB18B10124204602B0E3
:1046240070BD2A4631460198FCF776F9044618B164
:10463400019800F0B5FFF1E7019800F0F7F90123C4
:104644000DF1030201460198FFF71AFF012806D075
:104654009DF8033003F00F03AB710446E8E7012330
:104664008DF803302046F3E72DE9F04182B080460F
:104674000D4617460020FFF7F3FE01A9C0B2FDF76F
:104684004DFB38B10124019800F08AFF204602B0A6
:10469400BDE8F0812C2303FB05831E89DB681E44DF
:1046A40004236A463146019800F07BFF044630BB80
:1046B4002C2303FB05856D89BDF8002046F60813FD
:1046C4009A420CD0EDB9BDF8002046F607139A4281
:1046D40019D12E44BDF802301E443E60D3E7BDF824
:1046E40002108D4201D00324CDE704236A463144ED
:1046F400019800F056FF0028E5D00124C3E7012407
:10470400C1E70324BFE70324BDE710B582B0144614
:104714000020FFF7A5FE01A9C0B2FDF7FFFA30B1F2
:104724000124019800F03CFF204602B010BD202374
:1047340022460021019800F034FF04460028F0D0FE
:104744000124EEE770B505460E460024012C0FDC6B
:104754002C2202FB045221462846FFF7D6FF0346CB
:1047640008B90134F2E7002C03DD16B9002300E098
:104774000023184670BD2DE9F04706460F46002178
:104784000846FFF76DFE044601210020FFF768FE8E
:104794003B789C4226D0984201D0012020E001239E
:1047A40099462C2202FB03639C6A013C96F865003F
:1047B40000F01BF9804600252C2303FB09635B6A88
:1047C40003EBC402D2F804A053F834101B68524619
:1047D400C91A384600F034FF013C5544A845EBD8CB
:1047E400BDE8F0870023DBE710B582B001A9022001
:1047F400FDF794FA18B10124204602B010BD0198C7
:1048040000F0A7F90446019800F0CAFEF4E710B5D9
:1048140084B003A90220FDF781FA18B101242046CF
:1048240004B010BD01A9039800F003F9044640B98F
:104834009DF80730032B05D1039800F091F9044645
:1048440000E00124039800F0ABFEE8E770B50546EC
:104854000E460020FCF7EEFC0446022805D004288E
:1048640003D0032801D0204670BD324601212846DA
:10487400FCF702F9012803D00028F4D00524F2E75C
:104884000446F0E770B584B006460C464B795BB13C
:10489400072003A9FDF742FA40B10124039800F070
:1048A4007FFE204604B070BD0220F2E7039800F0BA
:1048B400B4F8054696F8652021792068FFF7F6FDDF
:1048C4000544039800F0EAFE06460398FFF7D6FD78
:1048D4000822014601A801F087F823798DF80430F5
:1048E400334601AA2946039800F07AFE04460028BC
:1048F400D4D00124D2E738B50546FCF753FA024672
:1049040095F86440E31EDBB2012B0FD9022C03D0CF
:10491400042C01D0032C07D10020FFF765FF0246C9
:1049240010B1FF2385F86430104638BD0020FFF72E
:104934006EFF02460028E9D0FF2485F86440E7E7CB
:10494400012801D101207047022070472DE9F0436E
:1049540083B006460F4690461C4600F09FFE082C86
:1049640022D80546082822D83046FFF787FD81461D
:10497400A54200D2254622464146684601F00FF87A
:104984002A1B49460DEB040001F02EF82B466A461B
:104994003946304600F024FE034618B9184603B0E1
:1049A400BDE8F0830123F9E74FF0FF33F6E74FF05A
:1049B400FF33F3E710B582B002AC04F8042D0123F1
:1049C4002246FFF7C3FF02B010BD04280BD0052810
:1049D40004D111F1FF3018BF01207047884214BF81
:1049E4000020012070470120704700EB4000C30104
:1049F40003F1300070470B78072B06D0022B06D04A
:104A0400062B07D14FF4C0707047032070474FF452
:104A1400C07070474FF0FF30704710B5044600F087
:104A24003DFEFFF7E2FFA368181A10BD806828381E
:104A3400704730B587B004460D468168102302AA3A
:104A44001039FFF71DFD00284ADB01283CD1032360
:104A54002B702046FFF7EAFF01230DF10702014600
:104A64002046FFF70DFD00283DDB9DF8073003F0DD
:104A74000F026A701B092B71012801D0042A03D983
:104A840001236B7000232B71A1680123AA1C203918
:104A94002046FFF7F5FC002827DB012819D0A87869
:104AA400FFF74EFFA870A1680123EA1C18392046BD
:104AB400FFF7E6FC00281ADB01280DD0E878FFF7A1
:104AC4003FFFE87000200CE002A8FCF75FFB2870B1
:104AD400BFE70323AB70E6E70323EB70002000E09D
:104AE400012007B030BD0120FBE70120F9E70120D8
:104AF400F7E710B582B00C4601A9C0B2FDF70EF974
:104B040018B10124204602B010BD21460198FFF7D8
:104B140090FF0446019800F043FDF3E730B583B0FD
:104B24000D4601A9FCF73EFB044610B1204603B034
:104B340030BD019C2046FFF779FF04232A46A0F1EB
:104B44000801204600F02DFD0446019800F028FDE0
:104B5400ECE708B5816801222039FFF72BFF08BD77
:104B640008B5816801221839FFF724FF08BD30B564
:104B740083B0054641EA021202AC04F8012DFFF7A6
:104B840055FF0123224601462846FFF7DFFE03B006
:104B940030BD30B583B0054602AC44F8041DFFF7C0
:104BA40045FF04232246A0F108012846FFF7CEFE64
:104BB40003B030BD2DE9F0439DB015469946249FBE
:104BC400DDF89480279C01A802F0C0FD002101A813
:104BD400FEF75EFC14B1289B002B06DC2B89EE68E3
:104BE40033446E891E44002513E01A46214601A869
:104BF40002F0B2FDF2E723463A462946484600F061
:104C0400D0FC034688B92246394601A802F0A4FD27
:104C14002544B54204D2741B4445ECD94446EAE722
:104C2400269901A802F0DBFD002318461DB0BDE85B
:104C3400F0832DE9F04184B004460E461546302336
:104C440003AA2946304601F0FCF990BB3368039A65
:104C54001344AB4230D104F108073A4629463046A2
:104C640001F002FA58BB04F11408424629463046C2
:104C740001F0FAF930BB384601F015FD6060336885
:104C8400AB4222D1CDF8048000220092134639466B
:104C9400204602F0D6FCD8B92046FEF789FB05462B
:104CA400C8B9384601F0FFFC6060284604B0BDE88E
:104CB400F0814FF0FF35F8E76FF00105F5E76FF08D
:104CC4000205F2E76FF00205EFE76FF00305ECE78A
:104CD4006FF00405E9E76FF00505E6E7F0B5A5B068
:104CE40006460F4600230893DF2407E025462A469C
:104CF4006946304600F053FE2E44641B002C1DDD33
:104D040009A802F023FD002109A8FEF7C1FB202217
:104D1400394609A802F020FD042208A909A802F0D6
:104D24001BFD694609A802F05AFD9DF823300133A2
:104D34008DF823301F2CD9DD2025D8E725B0F0BD10
:104D44002DE9F04383B000284AD0054600294AD013
:104D5400002A4BD0994617460C460E89CB681E4450
:104D640004230DEB03023146384600F01AFC80465A
:104D740000283ED1BDF8042046F608139A421ED0FE
:104D84006389002B3BD1BDF8042046F607139A42F1
:104D940038D12C606F6085F808909DF828306B72CC
:104DA40063893344EB6063893344BDF806201344BC
:104DB4006B6104362E61404603B0BDE8F08363891D
:104DC400BDF806108B4217D104230DEB03023144C6
:104DD400384600F0E6FB0028D5D04FF0FF38EAE76C
:104DE4004FF0FF38E7E74FF0FF38E4E74FF0FF38C4
:104DF400E1E74FF0FF38DEE74FF0FF38DBE74FF035
:104E0400FF38D8E74FF0FF38D5E700284BD0F0B58E
:104E140083B004460068002849D01D4616460F4654
:104E24006368FBB94FF0FF3138E004230DEB030254
:104E34002169606800F0B5FB014600283AD1637A25
:104E44001BB12269E3689A4237D2237AFF2B17D029
:104E54009DF80420934213D0BDF80600236918443A
:104E6400043020612069636998421AD223685B89FF
:104E7400002BDAD0E3688342D7D104302061D4E731
:104E840015B19DF804302B70236904333B60BDF8E1
:104E9400063033802269134404332361084603B087
:104EA400F0BD0121FAE74FF0FF31084670474FF09B
:104EB400FF31F3E74FF0FF31F0E70121EEE740E87F
:104EC40000F010F4803F01D0C0B270476FF01500BD
:104ED4007047006801FB02007047F8B50446B0F85B
:104EE40008C0406800FB0CFC27686744FF23E3729A
:104EF40000220AE0E3685F511F3117D4491107EB20
:104F04008107800820F003000132A37A93420FDD69
:104F1400BCFBF0F1E36802EB4206B5002B441E1D16
:104F24005E609E602029E5D8E272EAE71F31E5E77A
:104F340000250DE02A4661682046FFF7CAFFE368B2
:104F44001A1D02609A6842609A6810609860013580
:104F54002389AB42EEDCF8BD0020704738B5044627
:104F64000D464520A04729465220A04729465220F5
:104F7400A04738BD2DE9F04F83B08146009190469B
:104F84001D469DF83030019300264FF0100A374635
:104F9400402407E0092828D9572300991844C84712
:104FA40001360127032C2EDD043CC4F12002A4F1B8
:104FB400200328FA04F005FA02F2104325FA03F359
:104FC400184310F00F00E5D1002FE3D1002CE1D0FD
:104FD4000AF1FF3B0D9B9A4511DC019B012B06D185
:104FE40000993020C847DA46DCE73023D5E7019B37
:104FF400022B06D100992020C847DA46D2E7DA46C8
:10500400D0E7DA46CEE7019B032B02D003B0BDE81C
:10501400F08F0D9BC6EB430603E000992020C847A0
:105024002646741E002EF8DCF0E72DE9F04F85B01B
:1050340007460E46144603934FF000084FF0FF3A1C
:10504400C146454632E1A0F12503552B00F2768195
:10505400DFE813F06F0174017401740174017401C9
:1050640074017401830174017401560059005900DC
:105074005900590059005900590059005900740148
:105084007401740174017401740174017401740174
:105094007401740174017401740174017401740164
:1050A4007401740174017401740174017401740154
:1050B400740174017401740174010E0174017401AA
:1050C4007401740174017401740174017401740134
:1050D40067018F0074017401740173008F007401FF
:1050E4007401730074017401740104017401740186
:1050F40047017401D100740174010E01740173003D
:10510400BAF1000F10DBBAF1000F13DB0AEB8A0AC5
:105114004FEA4A031844A0F1300AB9F1000F40F0F5
:10512400C4804FF00209C0E0B9F1000FEBD14FF099
:105134000109BAE0A0F1300AEFE768280DD06C2825
:1051440011D0B8F1000F00F00B8131462520B8478B
:1051540031462078B8470025A7E0B8F1680FEED1B2
:105164004FF04808A1E0B8F16C0FEAD14FF04C08B9
:105174009BE0B8F17A0F0AD0B8F16C0F1DD0B8F1EA
:105184004C0F1FD0039B1A1D03921D6803E0039B61
:105194001A1D03921D68002D05DA31462D20B847EB
:1051A4006D420AF1FF3ACDF800A04B462A4631463B
:1051B4003846FCF767FA002577E0039B1A1D039233
:1051C4001D68E8E7039B073323F0070303F1080294
:1051D4000392D3E9002312F1004043F100010129B5
:1051E40008BF002801D21546D5E731463846FFF7F7
:1051F400B5FE002559E0B8F17A0F0AD0B8F16C0F6A
:1052040014D0B8F14C0F16D0039B1A1D03921A68E0
:1052140003E0039B1A1D03921A68CDF800A04B46C5
:1052240031463846FCF72EFA00253EE0039B1A1D52
:1052340003921A68F1E7039B073323F0070303F192
:1052440008020392D3E90023012B08BF002AE4D308
:1052540031463846FFF782FE002526E031463020ED
:10526400B84731467820B8474FF0080A4FF0010993
:105274002378702B0BD0B8F16C0F22D0B8F14C0FFF
:1052840025D0039B1A1D03921A68002304E0039B94
:105294001A1D03921A680023CDF804A0CDF80090DB
:1052A40031463846FFF766FE002501342078002891
:1052B40058D0002D7FF4C7AE252847D03146B847D3
:1052C400F3E7039B1A1D03921A680023E4E7039B88
:1052D400073323F0070303F1080203921A685B689B
:1052E400DAE7039B1A1D0392D3F800B05D4602E08F
:1052F40001353146B84728780028F9D1B9F1030FB0
:1053040001D00025D1E7A5EB0B03AAEB030303E0CF
:1053140031462020B8472B465D1E002BF8DC0025C3
:10532400C3E7039B1A1D039231461868B84700254A
:10533400BBE731462520B8470025B6E7314625208E
:10534400B84731462078B8470025AEE74FF000084B
:105354004FF0FF3AC1460125A7E74FF00309A4E740
:105364008046A2E705B0BDE8F08F0FB400B583B066
:1053740004A951F8040B0191FCF7DCF903B05DF8C2
:1053840004EB04B07047704708B5FEF713FD08BD81
:105394000020704708B5FCF703FE08BD0EB400B545
:1053A40082B003AA52F8041B0192FCF7E7F902B099
:1053B4005DF804EB03B0704708B5FCF74BFA002026
:1053C40008BDF8B507460D4614461E46324621462A
:1053D4002846B8470544241AF8D1F8BD002201E054
:1053E40001301A460378002BFAD10A2A14BF002090
:1053F4000120704708B513460122FCF7DBFA08BD0B
:1054040008B513460022FCF7D5FA08BD38B50546A1
:105414000C4601F00101FFF7F3FF21462846FCF793
:10542400DFFA38BD2DE9F04383B0044617469DF8F2
:10543400285001F00108C1F3C00611F0020F15D184
:105444004FF000092A4641462046FFF7D3FF019555
:10545400BDF8303000939DF82C303A463146204652
:10546400FCF730FB484403B0BDE8F0831A46FCF770
:105474005BFA8146E6E710B5044642685368126851
:1054840081680068FFF79DFF636800221A6010BD01
:1054940008B58A684B681B68D0544A68136801339E
:1054A40013604B681A68CB689A4201D0002008BD8B
:1054B4000846FFF7E0FFF9E7F8B507460E4615463C
:1054C400002405E0395D6B685B6828469847013421
:1054D400B442F7D33046F8BD00684B6898420FD306
:1054E40010B48C68234498420DD208694B699842E1
:1054F4000FD36FF00B038B6100231370012005E0C1
:105504000120107070470023137001205DF8044BD4
:1055140070470020FAE770B582B006460C46CD68A5
:105524000DF10702FFF7D8FF80B93368616822697B
:105534005B1A45F83230236905EBC30573686B6069
:10554400236901332361012002B070BD9DF8070077
:10555400FAE7F8B50D4616461F46069C2060FCF790
:10556400C5FBB8B1426862608268A260E66000224E
:10557400226129686161A261C068FEF71BFD60B108
:105584002246394600F077FBA3690BB923692B60E7
:10559400A069F8BD6FF01500FBE76FF01200F8E7A3
:1055A4007047F8B584688C4204D35D18AC4212D2BB
:1055B400002400E0002484B11E4617460D4604462C
:1055C400C068FEF7F7FC6168294443681C683346E9
:1055D4003A46A047F8BD0124EDE76FF01500F9E75E
:1055E4002DE9F84384688C4204D35D18AC4222D27E
:1055F400002400E0002404B31E46174688460446EF
:10560400C068FEF7D7FC05464368DB68002198476D
:10561400814668B9616841446B685C6833463A46C0
:105624002846A04781466B68DB68012128469847D5
:105634004846BDE8F8830124DDE76FF01509F7E774
:105644002DE9F04183688B4204D35418A34220D23D
:10565400002300E00023F3B117460E460446C06859
:10566400FEF7A8FC05464368DB680021984780469E
:1056740060B9616831446B689B683A46284698472C
:1056840080466B68DB680121284698474046BDE8A0
:10569400F0810123DFE76FF01508F7E708B5C0686C
:1056A400FEF788FC4368187D08BD00F1502213689A
:1056B40043B14FF05023D3F80833C9B2194207D08D
:1056C400012300E0002318460BB100231360704748
:1056D4000023F8E783685A7A2AB993F90830002B33
:1056E40003DD00207047022070470120704770B529
:1056F40003689E6884684FF02003EFF3118583F3F9
:105704001188BFF36F8F94F90830013B5BB22372A9
:10571400B3B92360636073680BB1984748B1F37AF7
:1057240003F1502301221A60338903F1502300222C
:105734001A600020607285F31188BFF36F8F70BD0B
:10574400002B01DB0020F6E7002323726FF04400F6
:10575400F1E703688B4205D033B11B68002BF9D104
:10576400002070470120704700207047F8B50646B6
:10577400154603689F6884684FF02003EFF3118295
:1057840083F31188BFF36F8F94F9083001335BB250
:10579400237282F31188BFF36F8F627A2AB145B303
:1057A4006B68A96898470020F8BD012B0DD015B38C
:1057B40029462046FFF7CDFFF8B900232B60636824
:1057C400A3B11D6065600020EEE73B680BB198470C
:1057D40028B1BB7A03F1502301221A60E7E7002DB8
:1057E400E5D06B68A96830469847E0E765602560B6
:1057F400DAE70020D8E70020D6E76FF04400D3E7CB
:1058040008B50022FFF7B2FF08BD836800201860C6
:105814005860704738B505468468236823B11A6810
:10582400226061688B420FD00122627273B15A68A0
:10583400996828469047236843B11A6822606168D2
:105844009942F3D16260F1E76260EDE738BD10B5CB
:105854000446002201210520FCF752FC0520FCF738
:105864003FFC4FF050230222C3F818250322C3F84B
:105874000423A36800201860586010BD7047704767
:10588400401A20F07F40704708B5FCF7E3FB08BDE1
:1058940008B502F0DFF808BD08B501460068FFF757
:1058A400F7FF08BD08B5FCF7E9FBFCF791FB08BD61
:1058B4000020704708B5002313700339032912D858
:1058C400DFE801F002060A0E1146FCF7BDFC08BD34
:1058D4000021FCF759FCFAE70021FCF779FCF6E714
:1058E400FCF7A0FCF3E70020F1E708B500216846C7
:1058F40000F02EF808BD43681F2B0AD913F01F0FC0
:1059040001D000207047036813F01F0F03D000205C
:105914007047002070470120704730B585B00B6890
:1059240000934C680D899DF8082065F30402897A78
:1059340061F347128DF8082023F01F032344013B31
:1059440023F01F0303936946FCF730FD05B030BD17
:1059540008B5FCF73FFE08BD01E0013001310378D2
:105964000A78934201D1002BF7D1981A704782B17B
:10597400531E10D010B404780A78944203D1013035
:105984000131013BF7D100780B78C01A5DF8044B64
:1059940070470020704700780B78C01A704710B425
:1059A40080EA010313F0030F01D0034617E0034616
:1059B40013F0030F0BD0A2B10C781C70013A013123
:1059C4000133F5E70C681C60043A04310433032AFC
:1059D400F8D804E00C781C70013A01310133002A34
:1059E400F8D15DF8044B704710B4CCB2034613F001
:1059F400030F04D0A2B11C70013A0133F7E7C9B216
:105A040041EA012141EA014102E01960043A043308
:105A1400032AFAD802E01C70013A0133002AFAD1B1
:105A24005DF8044B70474FF0FF30704710B40468C2
:105A3400A46824688068012911D0003318BF0123A9
:105A4400C169D14001F00101C9B28B420BD00123DD
:105A540003FA02F2A26000205DF8044B7047C269A9
:105A640053406360F7E7012303FA02F2E260F2E7CE
:105A7400F0B40468A4682468866867692569606866
:105A8400684038406840F4696040012906D0D0403D
:105A940000F0010018600020F0BC70471860FAE7BD
:105AA40030B485682B68D3B10C460020B3B19C4256
:105AB40002D018461B68F9E738B10B6803606B68BD
:105AC400994209D000230B6009E00B682B606868D9
:105AD4008142F7D16B60F5E76860F3E752B162B1D8
