:020000040100F9
:1028000000000121C9ED02019DED02017DED0201F3
:102810009DED02019DED02019DED02019DED020184
:102820009DED02019DED02019DED02019DED020174
:102830009DED02019DED02019DED02019DED020164
:102840009DED02019DED02019DED02019DED020154
:102850009DED02019DE802019DED02019DED020149
:1028600079FE02019DED0201D1E502019DED02011B
:10287000FDEA02019DED02019DED02019DED0201C7
:102880009DED020149E902010DE802014DEB020153
:102890009DED02019DED020155E902019DED020150
:1028A0000DEB02011DEB02019DED02019DED020108
:1028B0009DED02019DED02010000000000000000FE
:1028C0000000000000000000000000000000000008
:1028D00000000000000000000000000000000000F8
:1028E00000000000000000000000000000000000E8
:1028F00000000000000000000000000000000000D8
:1029000000000000000000000000000000000000C7
:1029100000000000000000000000000000000000B7
:1029200000000000000000000000000000000000A7
:102930000000000000000000000000000000000097
:102940000000000000000000000000000000000087
:102950000000000000000000000000000000000077
:102960000000000000000000000000000000000067
:102970000000000000000000000000000000000057
:102980000000000000000000000000000000000047
:102990000000000000000000000000000000000037
:1029A0000000000000000000000000000000000027
:1029B0000000000000000000000000000000000017
:1029C0000000000000000000000000000000000007
:1029D00000000000000000000000000000000000F7
:1029E00000000000000000000000000000000000E7
:1029F00000000000000000000000000000000000D7
:102A0000DEE61E284CBBCE8F023500003C000000E5
:102A1000583E0300010000000028000100280001CA
:102A2000FFFF029100000000000000000000000015
:0C2A30000000000000000000000000009A
:102A4000002070470388F7B5A3F57C4306460C4683
:102A5000032B4DD8DFE803F00212204391F9000068
:102A600000F0B0FA04460120318824F0CBF818B108
:102A700000F8054924F072F801203AE0CB788A7812
:102A8000207802EB0322497892B22DF059F808B170
:102A90000024E8E71224E6E7CA798B79497903EB49
:102AA00002232279E07802EB0122A178657801EB1C
:102AB00000212078E77A00EB0520A57A9BB205EB90
:102AC0000725ADB20195657A247A92B204EB05240C
:102AD000A4B2009489B280B22EF094FAD7E70878B5
:102AE0002DF018F90028D5D060782DF02FF9CEE719
:102AF000002003B0F0BD00002DE9F047A84D86B0DE
:102B000028462CF0D9FC4FF49673A64EEB80304645
:102B100025F08AFE402206F10C0102202CF0E0FC98
:102B2000402206F13E0101202CF0DAFC402206F1A1
:102B3000450106202CF0D4FC1022ADF80420082218
:102B40000B238DF80620202233714FF49C63ADF8DF
:102B500008208022042740F20D11B383F38CADF8D6
:102B60000C20B27B1C338DF80E208DF81220ADF8AE
:102B7000143096F8242096F82330ADF81010134442
:102B800096F82A200DEB0701134496F82B20052018
:102B900013448DF816308DF80A702AF0E5FD80B2E6
:102BA0002AF0B0FE2AF0D0FF2BF0E4F800F066F92E
:102BB0002AF0B8FE80462AF0BBFE0446284629F0DB
:102BC000DDFF22464146384603F078FD08EB000958
:102BD000A4EB000A054652464946384603F082F8FF
:102BE0000544AAEB000209EB0001384603F07CF92A
:102BF0004719304625F04AFE96F82250B844E41BA7
:102C000035B12146404625F089FF05468044241A07
:102C10002146404625F03DFF241A804421460544C4
:102C2000404625F04CFF241A804481462146404608
:102C300025F069FF241A804482462146404625F04B
:102C400050FF3D44211A0746404425F087FF0024E9
:102C50004D4455443D44054429F096FF02F04AFD99
:102C600000F048FC02F0D8FB01F0EEFA02F0F0FCB4
:102C700001F0B0F801F0CEF801F03EFD2CF0ACFF11
:102C800002F0B2F802F048FA01F0DAFD01F09CFE21
:102C900003F0ECFC44482AF03FFF2AF069FC25F0E1
:102CA000F1FE25F051FF25F041FF25F001FF25F051
:102CB00044FF25F05CFF25F061FF25F0ECFE25F0D8
:102CC00045FF25F050FF25F015FF25F003FF25F007
:102CD000F8FE25F05AFF25F018FF25F004FF25F037
:102CE0001BFF25F042FF31482AF016FF25F0D4FDE6
:102CF0002F482AF011FFB28DF18C2AF049F825F007
:102D0000E5F825F0EFF925F09DF925F00FF925F00C
:102D1000F9F925F06DF925F0FBF825F0D3F925F048
:102D200073FA25F0E3F825F0ADF925F00FF925F059
:102D300081F925F059FA25F043FA25F039F925F003
:102D400017F925F025F925F043F925F019FA194866
:102D50002AF0E2FE25F0E8F925F004FC164825F0FB
:102D6000AFF828462AF0CEFD01A80194ADF808403E
:102D700025F00EFF042168462CF064FD684628F01B
:102D8000F3FE012200214FF4003025F0B1FF0B4883
:102D90002AF0EAFE2AF0F4FE204606B0BDE8F087ED
:102DA000880100219801002191D502013989020191
:102DB000BDCD0201F9870201452A0001412A000127
:102DC000014B1878704700BF00000720014B1970B5
:102DD000704700BF00000720012070470122014B0F
:102DE0005A6070470020014138B5C4003434204691
:102DF00030F062FF054618B12246002130F093FF03
:102E0000284638BD2FF01CBF70B50E46CAB1541EFF
:102E1000A0B22AF0A7FD054698B12246711C30F0F9
:102E20005BFF3378022B0ED0052B05D0012B08D188
:102E300000212A46084602E02A46032100202AF003
:102E400013F8002070BD2A460121F7E7C30703D518
:102E5000024B58682FF0A6BD704700BF2802002122
:102E600048F29C63C360044B436003F554730360F2
:102E700020238360704700BF048007201FB5684689
:102E8000FFF7EEFF0298FFF7AFFF044C20600298B7
:102E9000FFF7AAFF606004B010BD00BF2802002148
:102EA00030B5294B8BB004AC93E80300002284E8D2
:102EB0000300264906202BF05FFC25482BF078FC08
:102EC00006A8FFF7CDFF204630F0D4FB099B214830
:102ED000214C436130F0B0FB22462049204830F0BD
:102EE00077FB226893680BB102F10C0304201D4AA2
:102EF000069990601062012051601B49BDF8204086
:102F00000D684968156091611849079D8861022024
:102F100053619481D362D5619484CA62002288622D
:102F2000134808620092134830F012FA124B134A09
:102F30000293134B0F4901934FF0FF331148009355
:102F40002FF004FE0BB030BD884D03014D2E000163
:102F5000904D030100000021E4010021684D0301B0
:102F6000724D0301C402002128020021F802002151
:102F7000144E030130020021052E00017A4D030199
:102F8000092E0001E8010021022907B5184603F1C6
:102F9000FF3310D1042100F8011C012108480A4424
:102FA00001910092D0E909122FF030FD03B05DF8D5
:102FB00004EB29F0D9BE01290CBF02210521EAE763
:102FC000E8010021024B83F87B000020704700BF1E
:102FD000405100212CF04EBA2DE9F8431C46D0F8A0
:102FE0002C90C56807460E46904629F08DFE99F84C
:102FF0000D302C44022B04440DD0032B0DD0012B9B
:1030000000D12834306C3D690319AB4208D93564CE
:103010000020BDE8F8831834F4E704F5A874F1E75C
:103020007B682D1A63B14146986829F073FE85428A
:1030300028BF0546AC4203D9336C2B443364E7E721
:10304000281B4FF47A75044B1B689C886C43A04284
:1030500028BF2046DDE700BF345300211FB5012300
:103060008DF80430002301A8CDE902332CF080F95B
:1030700005B05DF804FB1FB5002301A8CDE90133BD
:1030800003932CF075F905B05DF804FB2DE9F843C6
:1030900004468846C66A2CF0B5FC05460146A06881
:1030A00006F1980729F036FE78B9A368DFF890900A
:1030B000C9F8843029F028FE2844A060D9F884108B
:1030C000284629F027FEC6F8D800D6F8A4300BB160
:1030D00020469847394600232046A268FFF77CFF28
:1030E000074618B9BDE8F84329F0DCBD144DA368C4
:1030F0004046C5F884302CF097F8124B05F1880053
:10310000C5F88830104BC5F89470C5F88C30A368AA
:10311000C5F890302CF024F9002385F88030D6F8DB
:103120009C304BB1FFF79AFF96F8CA10D6F898007A
:10313000BDE8F8432CF06CB9FFF79DFFF4E700BF42
:103140006406002105340001E93100012DE9F8434E
:1031500080460C4629F0B0FD064618B101263046DF
:10316000BDE8F8832CF04EFC1D4D8146D5F8841047
:1031700029F0D0FD236C03442364C5F8849029F022
:10318000C3FD4A46034621464046FFF725FF074652
:103190000028E3D0636A53B1024649464046984747
:1031A00028B10122D8F82C3083F8C820D7E7D5F809
:1031B000848029F0A9FD4044C5E9240709482CF082
:1031C000CFF8002385F88030636833B1FFF746FFFE
:1031D000272120682CF01CF9C1E7FFF74CFFF7E727
:1031E00064060021EC0600212DE9F04F87B09A46D5
:1031F0009DF8403003910293934607462CF002FC61
:10320000DFF8F491C9F8000029F046FDDDE902314C
:10321000C46A8046D4F8C450ADB194F8C820012ADD
:1032200011D1CDE900A30A465B463946D4F8B8006F
:10323000A847012804D10023C4F8B83084F8C83066
:1032400007B0BDE8F08F6D4A6D4D92F88060701C3C
:1032500082F8800076B1022E00F08680AC8C2CF0D3
:10326000D1FBD9F80030C01A844240F2B580A88C56
:10327000A884E5E707B3FB1E012B40F2B680042FBC
:1032800068D06FD833460126032F5DD032461E46E4
:10329000EB690133EB613346164643B117F0FB0F80
:1032A00046D0404604F19801FFF750FF0646002E35
:1032B000D4D029F007FDD1E784F8CC1084F8CD30C4
:1032C0003A46C4E934BAD4F8980004F1E00304F1B2
:1032D000800102F01BFB002834D04046D4F8A8300F
:1032E000D4F89810984700287DD06E8C2CF08AFB7B
:1032F000D9F80030C01A86421DD9688C94F8C930BC
:103300006884ADF81030D4F89C300593FFF7A6FE22
:10331000012104A82CF05EF8D4F8AC301BB1404673
:10332000D4F8981098472B6801332B60002F95D064
:103330002CF09EF8B5E72CF065FBD9F80030C01AE8
:1033400080B2DBE70127EEE7AA680132AA60002B12
:10335000A7D1ACE7334601266A6801326A60002BC8
:10336000E6D1A4E7012293E76FB1FB1E012B1ED922
:10337000042F4FF000034FF0010629D022D9EA694B
:103380000132EA6189E73A46D4F8A00004F1E0038B
:1033900004F1800102F0BAFA28B14046D4F8B43002
:1033A000D4F8A01098472B6901332B61C0E7D4F8FB
:1033B000B430002140469847042F4FF001034FF0EE
:1033C000000605D0032FDAD1AA690132AA61BEE74F
:1033D0006A6901326A61C2E72CF014FBD9F8003047
:1033E000C01A80B244E7012796E7042F4FF001038B
:1033F0007FF44AAFB0E700BFDC050021640600217E
:10340000280300212DE9F84381462CF0FBFA364EC3
:10341000306029F041FCC56A0746D5F8C03083B159
:1034200095F8C820012A0CD14946D5F8B80098472C
:10343000012804D10023C5F8B83085F8C830BDE8AC
:10344000F8832A4B2A4C93F8808008F10102B8F1E6
:10345000010F83F880202CD1B9F1000F3FD13846FD
:10346000D5F8B030D5F89C10984790B1B4F82080CA
:103470002CF0C8FA3368C01A804524D9238C2384E1
:10348000FFF7F9FD2721D5F8A0002BF0E7FF4FF05B
:103490000008E3680133E360B8F1000F09D02BF0B6
:1034A000E7FF384605F19801FFF750FE08B129F013
:1034B00009FCE58C2CF0A6FA3368C01A854208D9BD
:1034C000E08CE084BBE72CF09DFA3368C31A9BB212
:1034D000D5E72CF097FA3368C01A80B2F1E7E369B8
:1034E0000133E361E3E700BFDC050021640600214E
:1034F0002803002108B50220054A064902F034F9E4
:10350000BDE8084028220021034830F00CBC00BF71
:10351000D52F00018D3000012803002130B504466D
:10352000044D0FCD0FC40FCD0FC495E8030084E800
:10353000030030BD280300211FB5002301A8CDE9F9
:10354000013303932BF014FF05B05DF804FB1FB5A6
:1035500001238DF80430002301A8CDE902332BF0BC
:1035600007FF05B05DF804FB70B50546C66A08465E
:103570002BF05AFE114C124B04F18800C4F888302D
:10358000104BC4F88C30D6F8B430C4F89430AB6823
:10359000C4F890302BF0E4FE002384F88030D6F895
:1035A000983043B1FFF7D3FFBDE8704040F20111FE
:1035B00005482BF02DBFFFF7BFFFF5E7640600219C
:1035C000B93900017D3D000150030021F8B50546E1
:1035D000134EC76A08462BF027FE124C336804F1DD
:1035E0008800C4F88830104BC4F88C30D7F8A0306D
:1035F000C4F89430AB68C4F890302BF0B1FE0023CF
:1036000084F88030336843B1FFF7A1FFBDE8F8408C
:1036100040F2011105482BF0FBBEFFF78DFFF5E7E7
:10362000B80500216406002131360001880400211C
:103630002DE9F04F85B08B469DF83810029203912A
:103640009A4606462CF0DEF9DFF89482DFF8949271
:10365000C8F8000029F020FB99F880200746C56AC9
:10366000A14C039982B1032A00F0BC80258C2CF078
:10367000C9F9D8F80030C01A854240F22981208C5F
:10368000208405B0BDE8F08F012E00F08A800AD9B1
:10369000F31E012B76D9042E00F09A8000F2A08050
:1036A0001346012278E0032385F8BEB04FF0010BEA
:1036B00089F88030029B85F8BF10C5E9303A8B4904
:1036C000D5F8983085F8C8B09847002838D00290CF
:1036D00028462BF0A9FD029B09F188005344C9F844
:1036E00090302BF03DFEB4F81C902CF08BF9D8F8FC
:1036F0000030C01A81451CD9A08BA083FFF71CFFA6
:1037000040F2011179482BF083FED5F89C30384601
:1037100076499847B0FA80F35B092268013222604B
:10372000002BA3D016F0FB0F00F0A98029F0CAFAF5
:103730009CE72CF067F9D8F80030C01A80B2DCE7BB
:1037400095F8BC3005F1980033B1694B1B68BBB1EB
:10375000594698470346E0E795F8CA30012B0AD14D
:10376000644A1568002DD8D00146604A3846CDF825
:1037700000A0A847EEE73846D5F89C305B4998474B
:103780005B46CAE71146D5F89C3002929847042E52
:103790004FF00103029A1DD0032E13D011461A4692
:1037A00006E01146D5F89C30029298473146029ABD
:1037B000A3690133A36113460A46002BB2D1002A44
:1037C000B4D153E7A1680131A160002BAED1F6E777
:1037D00013460122616801316160002B4FD1EEE791
:1037E0000121E5E7D5F89830AEB1F21E012A57D98C
:1037F000324600219847D5F89C300021384698473A
:10380000042E4FF000034FF001025DD056D9A1699C
:103810000131A161D1E7324685F8C86085F8BF1053
:1038200085F8BEB031499847064690B328462BF03C
:10383000FBFC564409F18800C9F890602BF090FD1C
:10384000A68B2CF0DFF8D8F80030C01A864219D9C0
:10385000A08BA083FFF770FE40F2011123482BF0EC
:10386000D7FD3846D5F89C3020499847B0FA80F00B
:103870004009E3680133E36000283FF4F7AE2BF022
:10388000F7FD53E72CF0BEF8D8F80030C01A80B22C
:10389000DFE73846D5F89C30144998470120E8E71F
:1038A000324600219847D5F89C3000213846984789
:1038B000042E4FF001034FF0000205D0032EA6D1D5
:1038C00061690131616180E721690131216184E72A
:1038D0002CF098F8D8F80030C01A80B2D0E600BFBB
:1038E000DC050021640600218C05002188040021EC
:1038F000B0050021B4050021012370B50546C66A54
:10390000A0B0104C7C22314601A884F8803030F001
:10391000E3F9B36F01A802932BF086FC0A4B04F184
:1039200088001B68C4F88830AB68C4F890302BF06E
:1039300017FDFFF701FE022106F1AC002BF020FD80
:1039400020B070BD64060021B805002170B5164B8B
:1039500093F880506A1C012D83F8802015D1134CF8
:10396000E1B9A68D2CF04EF8114D2B68C01A864295
:103970000ED9A08DA085FFF7DFFD40F201110D48A3
:103980002BF06CFDE3680133E3600025284670BD31
:103990002CF038F82B68C01A80B2EBE7A36A013329
:1039A000A36229F08FF9F1E7640600215404002195
:1039B000DC0500215003002170B504462CF022F8EC
:1039C0000B4D286029F068F921460A4CFFF7BEFF2D
:1039D000668E2CF017F82B68C01A864202D9608ECA
:1039E000608670BD2CF00EF82B68C01A80B2F7E725
:1039F000DC050021540400212DE9F74FDFF87C920B
:103A00000E4699F880408046022CDDF830A09DF8E3
:103A10003410C56A00F0C480032C00F03981002CFA
:103A200040F09E81964F06B3F31E012B40F29A811F
:103A3000042E00F0AA8000F2B18023460124032E58
:103A400000F0968022461C46BB6A0133BB622346C7
:103A50001446002B00F0928016F0FB0F01D12BF0E2
:103A600007FD29F02FF901248BE0C5E92F3A85F8ED
:103A7000BA10D5F89C30834985F8B9209847044698
:103A8000002862D0D5F89830002B5ED00123B7F81B
:103A90002EB089F880302BF0B5FF7B4E3368C01A0A
:103AA00083454CD9FB8DFB8595F8B030ADF80030DF
:103AB000D5F898300193FFF74AFD012168462BF0B5
:103AC00089FCD5F8A03013B140466E499847002CC8
:103AD0004CD1D5F8A830002B40D0404669499847D2
:103AE000044600283AD0032389F880302BF0C0FC2C
:103AF00028462BF099FB54446448C9F890402BF0B9
:103B00002FFCBE8D2BF07EFF5F4C2368C01A8642CF
:103B10001ED9B88DB885FFF70FFD40F20111594845
:103B20002BF076FC4046D5F8AC3056499847B0FAB1
:103B300080F464093B6801333B6014B38FE72BF0DA
:103B400061FF3368C31A9BB2ADE72BF091FCB8E775
:103B50002BF058FF2368C01A80B2DBE7D5F8AC30F1
:103B600013B14046474998470124E3E70024E1E7C1
:103B7000BA680132BA60002B7FF473AF002C7FF477
:103B800070AF204603B0BDE8F08F234601247A6869
:103B900001327A60002B7FF462AFEFE7012253E736
:103BA0000324374F89F880406EB1F31E012B51D9A1
:103BB000042E4FF000034FF001045BD054D9BA6AD1
:103BC0000132BA6245E7C5E92F3A85F8BA10D5F84F
:103BD000A4302C4985F8B9209847D5F8A8308BB384
:103BE000404628499847044660B328462BF01CFB02
:103BF000544409F18800C9F890402BF0B1FBBE8D08
:103C00002BF000FF204C2368C01A864214D9B88DCF
:103C1000B885FFF791FC40F201111A482BF0F8FB30
:103C20004046D5F8AC3017499847B0FA80F464099B
:103C30003B6901333B6180E72BF0E4FE2368C01A47
:103C400080B2E5E7D5F8AC3013B140460D4998474E
:103C50000124EDE7D5F8A43000219847042E4FF059
:103C600001034FF0000405D0032EA8D1BA69013238
:103C7000BA6180E77A6901327A618BE764060021D4
:103C80005404002150030021DC050021EC06002132
:103C9000D5F8A830364FC6B1F21E012A4ED9002100
:103CA0009847D5F8AC3013B1002140469847042E10
:103CB0004FF000034FF001044ED080D8032E7FF464
:103CC0007EAF7A6A01327A6255E72A4998470446FC
:103CD00060B328462BF0A8FA544409F18800C9F8CB
:103CE00090402BF03DFBBE8D2BF08CFE224C2368C8
:103CF000C01A864214D9B88DB885FFF71DFC40F272
:103D000001111C482BF084FB4046D5F8AC30194912
:103D10009847B0FA80F46409FB690133FB610CE752
:103D20002BF070FE2368C01A80B2E5E7D5F8AC30FE
:103D300013B140460F4998470124EDE70021984709
:103D4000D5F8AC3013B1002140469847042E4FF00F
:103D500001034FF00004B1D13A6A01323A6219E727
:103D600000240EE7042E4FF001037FF468AE0EE747
:103D70005404002150030021DC0500212DE9F3410A
:103D80000E461746984604462BF03CFE0F4D286021
:103D900028F082FF9DF8203021460D4C3246CDE9B7
:103DA00000833B46FFF728FE268E2BF02BFE2B6868
:103DB000C01A864204D9208E208602B0BDE8F08168
:103DC0002BF020FE2B68C01A80B2F5E7DC0500213D
:103DD0005404002108B500220620054901F0C4FC66
:103DE000BDE808403422002102482FF09CBF00BFEC
:103DF000693500015404002130B50446044D0FCD4F
:103E00000FC40FCD0FC40FCD0FC42B68236030BD7E
:103E10005404002108B500220920074901F0A4FC40
:103E200000220F20054901F09FFCBDE80840242234
:103E3000002103482FF077BFCD350001F93800018C
:103E40008C05002130B50446034D0FCD0FC40FCDB6
:103E50000FC42B68236030BD8C05002170B505466A
:103E6000C66A08462BF0E0F90E4CD6F8B43004F1DF
:103E70008800C4F89430AB68C4F890302BF070FA26
:103E8000002384F88030D6F8983043B1FFF75FFB09
:103E9000BDE8704040F2011103482BF0B9BAFFF7BA
:103EA0004BFBF5E764060021500300212BF0E2BA3A
:103EB0001FB5002301A8CDE9013303932BF058FA75
:103EC00005B05DF804FB00002DE9F04F85B0804699
:103ED0000E469346994628F0EFFE074668B93E4CD9
:103EE000D8F82CA094F8823094F88150032B06D196
:103EF00018B184F8823084F88150012754E0022DF3
:103F000092BF2A46033DEAB202F125018AF8011068
:103F1000F17E551C41FA02F20133D2074FF0010045
:103F2000DBB2EDB2E2D584F8823084F88150B9F189
:103F3000000F04D11BF0FB0F01D12BF099FA504672
:103F40002BF072F9B9F1000F04D0D8F80830C4F89A
:103F5000903009E073685BB32BF054FD054628F000
:103F6000CDFE2844C4F89000002384F88030F36824
:103F70001BB14046D4F89010984718482BF0F0F940
:103F8000736833B301238DF80430002301A8CDE911
:103F900002332BF0EDF9337E0121ADF804303368A4
:103FA00001A802932BF0ECF9384605B0BDE8F08F7C
:103FB000327E9AF80E109AF80C0028F0F4F80546B4
:103FC00028F09CFE284428F05DF9D4F89030034492
:103FD000BDE7FFF76DFFDEE764060021EC06002178
:103FE0000F4B104A10B5C16AC3F888200E4A91F8E9
:103FF000B240C3F88C200422C3F89420002283F836
:10400000814083F8802083F8822098310123FFF7D4
:104010005BFF18B1BDE8104028F044BE10BD00BFE2
:10402000640600216D4100012D4000012DE9F34798
:10403000994605462BF0E6FCDFF82481494CC8F888
:10404000000028F029FE484AC66A92F880300746E8
:10405000591C012B82F8801068D106F1980A002DB6
:104060004BD1C6F8B4902A46D6F89C0006F1B803A6
:1040700006F1800101F04AFC814668B33846D6F863
:10408000A830D6F89C10984730B3B4F81A902BF0AB
:10409000B9FCD8F80030C01A814516D9608B60830E
:1040A000FFF706FF96F8B1300121ADF80030D6F8E1
:1040B000A030684601932BF08DF9D6F8AC30ABB147
:1040C0003846D6F89C10984710E02BF09BFCD8F8A7
:1040D0000030C01A80B2E2E7002351461A46384643
:1040E000FFF7F2FE0546B9F1000FE6D16368013330
:1040F0006360DDB12BF0BCF910E000232A46514685
:10410000FFF7E2FE042D1ED001D8032D09D063690C
:104110000133636150B115F0FB0FEBD028F0D2FDF5
:1041200004E0E3680133E3600028F7D1A58B2BF0AE
:1041300069FCD8F80030C01A85420AD9A08BA08348
:1041400002B0BDE8F087A3680133A3600028D1D195
:10415000ECE72BF057FCD8F80030C01A80B2EEE73D
:10416000DC050021BC050021640600212DE9FF418A
:1041700007462BF047FC314E314C306028F08CFD67
:104180002FB163690133636128F09CFD0CE02D4B76
:10419000D0F82C8093F8805008F198016A1C83F8BD
:1041A00080206DB1022D39D0E58B2BF02BFC3368CC
:1041B000C01A85423BD9E08BE08304B0BDE8F081B2
:1041C000D8F89C3023B3278B2BF01CFC3368C01A23
:1041D000874217D9208B01238DF8043000232083D8
:1041E00001A8CDE902332BF0C3F82421D8F89C00B4
:1041F0002BF034F9236801332360002DD4D02BF049
:1042000037F9C1E72BF0FEFB3368C01A80B2E2E752
:104210002B462A46FFF758FE0546EBE73B463A4653
:10422000FFF752FE2369054601332361E5E72BF0D2
:10423000E9FB3368C01A80B2BEE700BFDC0500218D
:10424000BC0500216406002108B50320054A064983
:1042500001F08AFABDE808402022002103482FF02F
:1042600062BD00BFAD3E0001E13F0001BC05002181
:1042700030B50446034D0FCD0FC495E80F0084E818
:104280000F0030BDBC0500211FB501238DF804309F
:10429000002301A8CDE902332BF06AF805B05DF8E0
:1042A00004FB1FB5002301A8CDE9013303932BF0D4
:1042B0005FF805B05DF804FBF8B5204E204BC46AEA
:1042C000C6F888301F4B0F46C6F88C300423C6F85A
:1042D000943000230546A6F8803028F0EDFC014616
:1042E00050BBD4F8D4300BB12846984738462AF052
:1042F0009BFFAB681448C6F89030002386F88030E6
:104300002BF02EF8D4F8A83013B9D4F8643183B167
:10431000FFF7BAFFAB68B4F8A020C4F868310AB15F
:10432000C4F86C3104F198000221BDE8F8402BF08C
:1043300027B8FFF7B6FFEDE7F8BD00BF6406002120
:10434000594500014D430001EC0600212DE9F74FCE
:104350008B46019307462BF055FBDFF878815E4DC5
:10436000C8F8000028F098FC5C4AC46A92F88060A3
:104370008146711C012E019B82F8801040F08480E0
:10438000012F04F1980A03D00BD9FB1E012B2AD868
:1043900094F87C21002A66D000214846D4F8CC301D
:1043A00010E0C4F8DC3084F85FB19DF8303094F848
:1043B0007CB184F8D930BBF1000F05D0D4F8CC30F3
:1043C000D4F8F81098470EE094F85D3104EB8303BD
:1043D000D3F8F810E1B1D4F8CC309847C0B1404BD5
:1043E0001B687BB900260023032F84F87C3147D05B
:1043F000042F56D0002F58D16B6801336B60002E0C
:1044000042D05AE05A465146484698470646EAE79F
:10441000D4F8A8100029E6D04846D4F8CC30984704
:104420000028E0D0EE8B2BF0EDFAD8F80030C01A5F
:10443000864211D9E88BE883FFF733FF022104F1AC
:10444000AC002AF0C7FFD4F8D030002BCAD04846C1
:10445000D4F8A8109847C5E72BF0D4FAD8F8003064
:10446000C01A80B2E7E794F85D3104EB8303D3F818
:10447000F830002BB7D01B4B1B68002BC3D1B1E722
:10448000EB680133EB60D6B92C8C2BF0BBFAD8F873
:104490000030C01A844215D9288C288403B0BDE8A6
:1044A000F08FAB680133AB60A9E7AB690133AB6157
:1044B000002EE9D017F0FB0F01D12AF0D9FF28F028
:1044C00001FCE1E72BF09EFAD8F80030C01A80B268
:1044D000E3E700BFDC050021E005002164060021C0
:1044E0000806002104060021F8B5CB6B06460C46F1
:1044F0000BB90120F8BD0121984705460028F8D0E6
:10450000F06A2AF091FE1148114ED0F890308830B0
:104510002B44104D83602AF023FFAF8B2BF072FAEF
:104520003368C01A87420AD9A88BA883FFF7B9FE5F
:1045300004F1240002212AF023FF0020DAE72BF007
:1045400061FA3368C01A80B2EFE700BF6406002149
:10455000DC050021E00500212DE9F04704462BF0A1
:1045600051FA424F424D386028F096FB82462CB1FA
:10457000AB690133AB6128F0A5FB20E0DFF8F480E4
:10458000C66A98F8804006F19809022C44D0032CA2
:104590005AD0A4B9D6F8A8301BBB96F85D3106EB0B
:1045A0008306D6F8F830ABB1334B1B6813B14946DC
:1045B000984704462B6801332B60002C52D16C8C39
:1045C0002BF020FA3B68C01A844245D9688C688475
:1045D000BDE8F0870323494688F88030FFF784FF61
:1045E000E7E7012388F88030B5F81C802BF00AFA41
:1045F0003B68C01A804509D9A88BA883FFF744FE01
:104600002421D6F8A8002AF029FFD3E72BF0FAF9E5
:104610003B68C01A80B2F0E7032388F880300E228E
:1046200096F8D910707BD6F8DC4027F0BCFD9634A4
:10463000044449465046C8F89040FFF755FF2B699F
:10464000044601332B61B8E74946FFF74DFF6B691C
:10465000044601336B61B0E72BF0D4F93B68C01A14
:1046600080B2B4E72AF004FF85E700BFDC05002133
:10467000E0050021640600210C060021F8B51A4C63
:104680001A4BC66AC4F88830194B0F46C4F88C30F0
:104690000423C4F8943000230546A4F8803028F0A1
:1046A0000BFB0146F8B9D6F8D4300BB12846984731
:1046B00038462AF0B9FDAB680E48C4F890300023A4
:1046C00084F880302AF04CFED6F8A83043B1FFF7CA
:1046D000DBFD06F198000221BDE8F8402AF050BE4B
:1046E000FFF7DFFDF5E7F8BD64060021594500013D
:1046F0004D430001EC06002108B5002207200749C0
:1047000001F032F800220820054901F02DF8BDE83B
:1047100008402422002103482FF005BB7D460001FC
:10472000B9420001E005002130B50446034D0FCD2C
:104730000FC40FCD0FC42B68236030BDE0050021EE
:104740002AF098BE2DE9F0410F46984605462BF019
:1047500059F9224C224E94F880303060013384F8AD
:10476000803028F099FA0023C26AD4F89C10C2F86D
:10477000A48082F8A870C4F89C30D2F8A0302A46F1
:10478000984728F099FA18B12AF072FE28F09AFAA0
:10479000032D144C10D0042D12D0ADB92368013371
:1047A0002360258B2BF02EF93368C01A85420FD970
:1047B000208B2083BDE8F081A3680133A360F0E77C
:1047C000636801336360ECE7236901332361E8E741
:1047D0002BF018F93368C01A80B2EAE764060021AA
:1047E000DC0500211006002170B50446C66A0846A3
:1047F0002AF01AFD104D114B05F18800C5F88C30D8
:10480000A368C5F89030D6F89830C5F894302AF0EF
:10481000A7FD0023204685F88030D6F89C309847C5
:1048200028F04AFA30B128F037FA18B1BDE87040E4
:1048300028F048BA70BD00BF64060021454700015A
:1048400008B50C20054A064900F08EFFBDE8084077
:104850001C22002103482FF066BA00BF4147000127
:10486000E9470001100600212DE9FF411A4E0D46CF
:10487000A6F898100221C6F89C00044601A8CDE9CC
:1048800002239DF828708DF804102AF071FD96F827
:10489000803003B137B12946204604B0BDE8F0416D
:1048A0002AF0B6BD0D4E0E4FB6F814802BF0AAF8C4
:1048B0003B68C01A804508D9B38A29462046B3828E
:1048C00004B0BDE8F0412AF0C9BD2BF09BF83B686D
:1048D000C31A9BB2F1E700BF640600211006002155
:1048E000DC05002170B50C460546074E2AF0C0FDD8
:1048F0002046C6F890502AF097FC06F18800BDE8E3
:1049000070402AF02DBD00BF640600212AF0B2BD20
:1049100070B504462BF076F8144A154D92F88030A5
:104920002860013382F8803028F0B6F9C36A214646
:10493000104CD3F89C309847E3680133E36028F0CB
:10494000BBF918B12AF094FD28F0BCF9668B2BF066
:1049500059F82B68C01A864202D9608B608370BDFB
:104960002BF050F82B68C01A80B2F7E764060021DC
:10497000DC0500211006002170B50446C66A084611
:104980002AF052FC0E4D0F4B05F18800C5F8883017
:10499000A368C5F890302AF0E3FC0023204685F890
:1049A0008030D6F89830984728F086F930B128F052
:1049B00073F918B1BDE8704028F084B970BD00BF2C
:1049C000640600211149000108B50D20054A064979
:1049D00000F0CAFEBDE808401C22002103482FF069
:1049E000A2B900BF0D49000179490001100600215C
:1049F0002DE9FF4104460D4693B1022102928DF844
:104A0000041001A803932AF0B3FC134B93F88030F1
:104A10004BB92946204604B0BDE8F0412AF0B0BCAD
:104A2000CDE90133EDE70D4E0D4FB6F816802AF0B3
:104A3000E9FF3B68C01A804508D9F38A2946204619
:104A4000F38204B0BDE8F0412AF0C4BC2AF0DAFFDA
:104A50003B68C31A9BB2F1E76406002110060021EF
:104A6000DC05002130B50446034D0FCD0FC495E899
:104A7000070084E8070030BD100600211FB50123A0
:104A80008DF80430002301A8CDE902332AF070FC30
:104A900005B05DF804FB00002DE9F04104460D4629
:104AA00028F0FAF8C36A1B780A2B0BD1124B93F843
:104AB00080303BB9FFF7E2FF29462046BDE8F041D0
:104AC0002AF05EBC0D4E0E4FB6F816802AF09AFF03
:104AD0003B68C01A804509D9F38AF382FFF7CEFFFD
:104AE00029462046BDE8F0412AF074BC2AF08AFF2E
:104AF0003B68C31A9BB2F0E7640600212C06002134
:104B0000DC05002170B50C4E04460D46C6F89C002D
:104B1000A6F8981028F0C0F8C36A1B780B2B0AD1AE
:104B200096F880303BB9FFF7A9FF29462046BDE83B
:104B300070402AF06DBC70BD6406002130B504469B
:104B4000034D0FCD0FC495E8070084E8070030BD82
:104B50002C06002170B50D4604462AF08BFC094B4B
:104B6000D3F89C1039B100222046C3F89C200222C1
:104B7000D5F8B43098472046D5F8AC30BDE8704041
:104B8000184700BF640600212DE9F04105460C4698
:104B9000C76A28F091F80646E0B920462AF044FB9F
:104BA0000D4C0E4B04F18800C4F888300C4BC4F84F
:104BB0008C30AB68C4F890300423C4F894302AF0E9
:104BC000CFFBD7F8A03084F880601BB12846BDE841
:104BD000F0411847BDE8F08164060021E54B000173
:104BE000B94C00012DE9F04385B005462AF00AFFD3
:104BF0002E4F2F4E386028F04FF8D0F82C902946D1
:104C0000D9F8B03080469847D6F89C10294C002936
:104C10003AD055BBA58A2AF0F5FE3B68C01A8542FA
:104C20001DD9A08A0023A08201A8CDE901330393F6
:104C30002AF09EFBB6F89810D6F89C002AF00EFCDD
:104C4000E3680133E360658B2AF0DCFE3B68C01A41
:104C5000854213D9608B608305B0BDE8F0832AF0EC
:104C6000D1FE3B68C01A80B2DCE700230222C6F8FE
:104C70009C304046D9F8B430984708E02AF0C2FE8C
:104C80003B68C01A80B2E6E70DB92AF0F1FB96F84E
:104C9000803023B928F016F8012386F88030002DE3
:104CA000CED0236901332361CDE700BFDC050021AD
:104CB000640600212C0600212DE9F3470F46054626
:104CC0002AF0A0FEDFF81481C8F8000027F0E4FF06
:104CD0000023C66A9DF8282086F8B870404F8DF8EA
:104CE0000730D7F89C1086F8B920C7F89C302A46C0
:104CF000D6F8B4300446984727F0DEFF81460028F6
:104D000037D04FF0010927F0D7FF40EA0900C0B2C1
:104D100080B1062D06D80123AB4013F0510F01D00E
:104D20002AF0A6FB97F8803023B927F0CBFF0123A8
:104D300087F880309DF8073023B929462046D6F8F9
:104D4000A8309847032D274C35D0042D37D0002D9F
:104D500039D1236801332360258B2AF053FED8F81C
:104D60000030C01A854232D9208B208302B0BDE8C2
:104D7000F0872046D6F898300DF107019847824613
:104D80000028BED02AF074FBD6F89C300DF1070144
:104D900020469847E06A2AF047FAD7F89000504436
:104DA000C7F8900007F188002AF0DAFA2046D6F812
:104DB000A4309847A7E7A3680133A360CCE76368F2
:104DC00001336360C8E7236901332361C4E72AF034
:104DD00019FED8F80030C01A80B2C6E7DC05002101
:104DE000640600212C06002108B50A20054A064960
:104DF00000F0BAFCBDE808401C22002103482EF058
:104E000092BF00BF554B0001894B00012C060021C9
:104E100070B50D4604462AF02DFB094BD3F89C10C3
:104E200039B100222046C3F89C200222D5F8B430C4
:104E300098472046D5F8AC30BDE87040184700BF11
:104E40006406002101232DE9F041C76A054687F871
:104E5000B83083680846C7F8C0300F4C0E462AF0B9
:104E6000E3F90E4B04F18800C4F888300C4BC4F809
:104E70008C30D7F8C030C4F89030D7F8C830C4F8B8
:104E800094302AF06DFA0023284684F88030D6F852
:104E9000A030BDE8F041184764060021255000010C
:104EA000054F00012DE9F04106460C46904627F0DB
:104EB00003FF074618B101273846BDE8F081414697
:104EC00030462368984705460028F4D02AF0D0FAE7
:104ED000A36A0B482B44A362B360C0F89030236BE5
:104EE0008830C3602AF03CFA6368414630469847F0
:104EF000F06A2AF099F93046E3689847DCE700BF8A
:104F0000640600212DE9F04385B00F46984604461B
:104F10002AF078FD404E306027F0BEFEC56A9DF84D
:104F2000303085F8C47014F0FB07814685F8C53031
:104F300007D1C5F8C08001A8CDE9017703972AF011
:104F400017FA95F8B830012B06D12FB9D5F8C03033
:104F500085F8B870C5F8BC304FF000082F4FD5F871
:104F6000B430D7F89C1022464846C7F89C80984732
:104F700004F0FD03012B8DF804800ED1484601AAF0
:104F800005F19801FFF78EFF9DF80430804623B9A4
:104F900021464846D5F8A830984727F08DFE40EACC
:104FA0000800C0B280B1062C06D80123A34013F03C
:104FB000510F01D02AF05CFA97F8803023B927F01E
:104FC00081FE012387F88030032C154D11D0042C6D
:104FD00013D0B4B92B6801332B602C8B2AF012FD4F
:104FE0003368C01A844210D9288B288305B0BDE8E5
:104FF000F083AB680133AB60EFE76B6801336B6044
:10500000EBE72B6901332B61E7E72AF0FBFC336800
:10501000C01A80B2E9E700BFDC0500216406002168
:105020002C0600212DE9F74305462AF0EBFC374F0B
:105030004FF00009386027F02FFE0446C66A294663
:10504000D6F8B030984720460DF1070206F19801D6
:105050008DF80790FFF726FF804655BB27F02CFE02
:1050600040EA0800C0B258B12AF002FA284B93F87F
:1050700080302BB927F026FE0122254B83F88020B3
:105080009DF8073023B929462046D6F8A83098471E
:10509000204C8DBBE3680133E360658B2AF0B2FCE2
:1050A0003B68C01A85422BD9608B608303B0BDE892
:1050B000F083012D12D10028E2D0DFF85480D8F817
:1050C0009C1031B102222046D6F8B430C8F89C902A
:1050D00098472AF0CDF998F88030CAE7DFF8308099
:1050E000D8F89C100029F6D002222046D6F8B43019
:1050F000C8F89C909847EEE7236901332361CCE719
:105100002AF080FC3B68C01A80B2CEE7DC050021A3
:10511000640600212C06002108B50B20054A06492B
:1051200000F022FBBDE808401C22002103482EF0BD
:10513000FABD00BF114E0001454E00012C060021B2
:105140001FB501238DF80430002301A8CDE90233F7
:105150002AF00EF905B05DF804FB00002DE9F041DE
:1051600004460D4627F098FDC36A1B78042B0BD12B
:10517000124B93F880303BB9FFF7E2FF29462046F7
:10518000BDE8F0412AF0FCB80D4E0E4FB6F816807F
:105190002AF038FC3B68C01A804509D9F38AF382AB
:1051A000FFF7CEFF29462046BDE8F0412AF012B9AC
:1051B0002AF028FC3B68C31A9BB2F0E76406002182
:1051C00048060021DC05002170B50C4E04460D4652
:1051D000C6F89C00A6F8981027F05EFDC36A1B78FD
:1051E000052B0AD196F880303BB9FFF7A9FF294675
:1051F0002046BDE870402AF00BB970BD640600215E
:1052000030B50446034D0FCD0FC495E8070084E880
:10521000070030BD4806002170B50D4604462AF04F
:1052200029F9094BD3F89C1039B100222046C3F864
:105230009C200222D5F8A43098472046D5F89C300F
:10524000BDE87040184700BF6406002170B50546F0
:1052500008460E4C0E4629F0E7FF0D4B04F188007E
:10526000C4F888300B4BC4F88C30AB68C4F890306D
:105270000423C4F894302AF073F80023284684F8F5
:105280008030D6F89830BDE8704018476406002199
:105290004D5300019952000170B50C4605462AF0A5
:1052A000B1FB274E306027F0F7FC9DF81030C26A42
:1052B00082F8A930234B82F8A84093F8801011B9E6
:1052C000012183F880100024D3F89C10C3F89C407F
:1052D000D2F8A4302A46984727F0EEFC50B1062DAC
:1052E00006D80123AB4013F0510F01D02AF0C0F8CB
:1052F00027F0E8FC032D144C0FD0042D11D0A5B9D4
:10530000236801332360258B2AF07CFB3368C01AA5
:1053100085420ED9208B208370BDA3680133A36022
:10532000F1E7636801336360EDE7236901332361CB
:10533000E9E72AF067FB3368C01A80B2EBE700BFE9
:10534000DC05002164060021480600212DE9F04318
:1053500085B005462AF056FB2C4EDFF8B48030604D
:1053600027F09AFCD0F82C902946D9F8A0300746AF
:105370009847D8F89C10274C00293CD065BBA58ADB
:105380002AF040FB3368C01A85421FD9A08A012346
:105390008DF804300023A08201A8CDE9023329F062
:1053A000E7FFB8F89810D8F89C002AF057F8E3689F
:1053B0000133E360658B2AF025FB3368C01A854210
:1053C00013D9608B608305B0BDE8F0832AF01AFB27
:1053D0003368C01A80B2DAE700230222C8F89C3092
:1053E0003846D9F8A430984708E02AF00BFB336818
:1053F000C01A80B2E6E70DB92AF03AF827F062FC4D
:10540000002DD4D0236901332361D3E7DC050021CB
:10541000640600214806002108B50420054A064913
:1054200000F0A2F9BDE808401C22002103482EF03C
:105430007ABC00BF195200014D52000148060021FC
:1054400070B50D4604462AF015F8094BD3F89C10A8
:1054500039B100222046C3F89C200222D5F8A8309A
:1054600098472046D5F8A030BDE87040184700BFE7
:10547000640600212DE9F0410546C76A08460F4C35
:105480000E4629F0D1FE0E4B04F18800C4F8883096
:105490000C4BC4F88C30AB68C4F89030D7F8983017
:1054A000C4F8943029F05CFF0023284684F880304B
:1054B000D6F89C30BDE8F041184700BF64060021D3
:1054C00081550001C9540001F8B50C461F46054638
:1054D0002AF098FA274E306027F0DEFBC26A9DF86A
:1054E000183082F8B040244C82F8B13094F8803003
:1054F00023B90123C2F8AC7084F880300023D4F8BB
:105500009C10C4F89C30D2F8A8302A46984727F05F
:10551000D3FB50B1062D06D80123AB4013F0510F39
:1055200001D029F0A5FF27F0CDFB032D134C0FD0A0
:10553000042D11D0A5B9236801332360258B2AF0EF
:1055400061FA3368C01A85420ED9208B2083F8BDDA
:10555000A3680133A360F1E7636801336360EDE79B
:10556000236901332361E9E72AF04CFA3368C01A52
:1055700080B2EBE7DC05002164060021480600212B
:105580002DE9F04385B080462AF03CFA2D4D2E4E91
:10559000286027F081FBD0F82C904146D9F8A43040
:1055A00007462A4C9847B8F1000F29D1D6F89C300D
:1055B0000BB3A78A2AF026FA2B68C01A874214D99F
:1055C000A08A01238DF804300023A08201A8CDE930
:1055D000023329F0CDFEB6F89810D6F89C0029F0D9
:1055E0003DFFE3680133E3601AE02AF00BFA2B6811
:1055F000C01A80B2E5E729F03BFF27F063FBF0E734
:10560000D6F89C1039B100230222C6F89C303846E7
:10561000D9F8A830984727F055FB23690133236157
:10562000668B2AF0EFF92B68C01A864204D9608B8A
:10563000608305B0BDE8F0832AF0E4F92B68C01A56
:1056400080B2F5E7DC050021640600214806002150
:1056500008B50520054A064900F086F8BDE808406F
:105660001C22002103482EF05EBB00BF4154000104
:105670007554000148060021C16A034B0A7853F8AB
:10568000323003B11847704764060021C16A044BE9
:105690000A7803EBC2035B6803B11847704700BF89
:1056A0006406002129F0F0BE29F0BCBD08B529F040
:1056B000B9FDBDE80840002029F0E0BE08B529F09A
:1056C000A3FD002029F0D8FEBDE80840012029F004
:1056D000D5BE08B529F098FDBDE80840002029F0A6
:1056E000CBBE08B529F090FDBDE80840012029F0A7
:1056F000C3BE000073B5134C134D144E29F07CFD4E
:10570000224629460120124B009627F007FB22462D
:10571000294602200F4B009627F000FB0E4B224635
:10572000009300210D4B032027F0F8FA01200C49CB
:1057300027F002FBA02200210A4802B0BDE8704019
:105740002EF0F1BA8D56000179560001A9560001DC
:10575000E3560001D3560001AD560001BD560001CD
:10576000A556000164060021034B43F8301003EBFB
:10577000C0035A60704700BF640600212DE9FF4155
:10578000D3E90086044617461D461078002C3ED00B
:1057900010B34FEA162C0CF0C00CBCF1400F1BD11B
:1057A000404669B1314600F0C1FD38B12B463A465A
:1057B0004046314600F02AFD002846D0012008E08E
:1057C000314600F0A5FC0028F8D1214AD38B0133E3
:1057D000D38304B0BDE8F0814246334600F0BCFDFF
:1057E0000238C0B20128E9D80DF10F0300933878D0
:1057F000D5E9002300F03EFC10B19DF80F3023B92D
:105800000224134A138B013313832046E1E720B1AE
:10581000330A03F0C003402BD0D04246334600F099
:105820009BFD02380128C9D80DF10F030093387889
:10583000D5E9002300F01EFC18B19DF80F30002BB5
:10584000BCD1034A138B013313830220C1E700BF8D
:10585000040700212DE9F041884617461E460446FC
:1058600058B152EA06030E4D0AD100F0CFFF0128CD
:1058700006D10446EB880133EB802046BDE8F08179
:105880003A463346404600F03FFF20B9AB88022439
:105890000133AB80F1E7EB880133EB80EDE700BF2C
:1058A0000407002137B5DDE9065410B9002003B024
:1058B00030BDCAB1230A03F0C003402B14D129B173
:1058C000284621460AAB08AA00F0FAFCDDE90A23C3
:1058D0002846CDE9002321469DF8202000F050FC09
:1058E000003818BF0120E2E79DF82000DDE90A2317
:1058F00000F043FD0238C0B20128D7D8024A022086
:10590000538B01335383D2E7040700212DE9F04F75
:1059100090F800800D8808F00F0845FA08F515F09A
:10592000010581460F4692461C466E4E87B006D151
:10593000338801333380284607B0BDE8F08F4FF439
:10594000C07B72884BFA08FB01321BF0010B4378D5
:10595000728001D00125EEE703F03F03637484F801
:10596000108010F8025B27F09BFEC5F38015E574EC
:10597000A574C4E90201C4E900017868514604F144
:10598000080304F11302C0F38010FFF7F7FE0128AB
:10599000054602D0022839D05D46D4E90223D7F863
:1059A00004C094F813E01CF0040B0ED0D7E90410E7
:1059B000834208BF8A4203D1CCF3C00CE64527D00E
:1059C0004FF0020B3089013030817888714640FAFF
:1059D00008F000F00100FFF73DFF584523D2D7F84B
:1059E00004C01CF0040F1CD0D7E90413A068E268BF
:1059F0009A4208BF884204D1E37CCCF3C00C6345D3
:105A00000CD0338901333381012D1AD1002592E75F
:105A100070894FF0010B01307081D6E77389013333
:105A2000738101250DE07888E17C40FA08F000F0F0
:105A30000100D4E90223FFF70DFF0128F1D9022864
:105A4000E2D04FF0010BB8F1050F257584F815B0C1
:105A500080D80BFA08F818F02A0F3FF47BAF4846BD
:105A600010F8085B27F01CFED4E902238146CDE93B
:105A700004237868E37CED09CDE9009188462A4645
:105A800051460293C0F30010FFF70CFF01283FF4CA
:105A900061AF0228BAD07B68DA077FF55BAFD7E940
:105AA0000212424508BF494503D1C3F34002AA424E
:105AB00013D0B2890132B281002DA7D04FEA182845
:105AC00008F0C008B8F14008A0D19B069ED5338CE1
:105AD0000133338484F815802DE7F3890133F38192
:105AE00038E700BF040700212DE9F04F81469246B8
:105AF000027C08880E46104110F001001C46714DD2
:105B000089B005D12B8801332B8009B0BDE8F08F17
:105B10004FF00108D9E900016B88C4E902010133A3
:105B20006B80C4E9000199F8123008FA02F8E374B6
:105B3000A37470687388514608EA030800F0040BE8
:105B400004F1080304F11302C0F38010FFF716FEFE
:105B5000012807465FFA88F809D0022841D1BBF135
:105B6000000F01D00020D0E7B8F1000FFAD1D4E93E
:105B7000022394F813C0BBF1000F39D0D6E904100A
:105B8000834208BF8A4204D17068C0F3C0008445D4
:105B900029D002212889013028810791B8F1000815
:105BA00018BF4FF0010861464046FFF753FE079BC0
:105BB000984232D2BBF1000F3BD0D4E90202D6E9C1
:105BC00004139A4208BF884205D17368E27CC3F38C
:105BD000C0039A420FD02B8901332B81012F0ED1A4
:105BE000C0E70027C3E76889012101306881D4E755
:105BF000CDF81CB0D2E701276B8901336B814FF0E0
:105C0000010B781E47424741277584F815B099F873
:105C100011309F0714D4012077E74046D4E90223CE
:105C2000E17CFFF717FE012808D00228D6D0002813
:105C3000E5D1012F38BF0127FFB2E0E70746DEE7D5
:105C4000D4E9021299F81380CDE90412D9E9023798
:105C5000E27C706802925146424600930197C0F37D
:105C600000100793FFF71EFE01283FF44EAF0228F5
:105C70003FF478AF7268D107CDD5D6E90201079B12
:105C8000B94208BF984203D1C2F34003434514D040
:105C9000AB890133AB81B8F1000F3FF463AF3F0A2A
:105CA00007F0C007403F7FF45DAF93067FF55AAF22
:105CB0002B8C01332B846775ADE7EB890133EB81C6
:105CC000A9E700BF04070021054B03F1240253F8A4
:105CD000041B934240F8041BF9D11B8803807047D2
:105CE000040700212DE9F04100240C4BDFF830803F
:105CF000054608460E4617461C7088F8004027F0F7
:105D00002BFE084B186000EB0513991BB9428EBFA0
:105D1000204688F8005088B2BDE8F0812A070021AB
:105D20002B0700212C070021F0B500240D499DF818
:105D300014C00D780C490968A54201D80020F0BDB7
:105D40000E7A864208D1D1E900769E4208BF97427A
:105D500002D14E7A664502D001341031ECE70120C1
:105D6000EDE700BF2A0700212C070021014B18781E
:105D7000704700BF2B0700210022014B1A707047AB
:105D80002A07002130B50B490B4D09782C78A14228
:105D90000DD90A49096801EB041108720120C1E913
:105DA00000239DF80C3001344B722C7030BD002064
:105DB000FCE700BF2B0700212A0700212C07002148
:105DC0002DE9F0411B4C8446276800253C46DFF84E
:105DD00068E09DF818809EF80010EEB2B14201D83C
:105DE000002021E0267A664520D1D4E900069E42B3
:105DF00008BF90421AD1667A464517D1012901F1B0
:105E0000FF300ED985420CD001F18051013907EBEA
:105E100001110B7A2372D1E90023C4E900234B7AE4
:105E200063728EF800000120BDE8F0810135103466
:105E3000D3E700BF2C0700212A070021F0B50C4949
:105E400043EA00430D780B490C680021C8B2854233
:105E500001D800200AE02046D0E908769E4208BF1B
:105E6000974201F1010104F14804EFD1F0BD00BFF8
:105E7000340700215C07002130B585B00C4605468B
:105E80001022002168462DF04EFF6A46230A28465C
:105E90008DF800401146240C8DF801308DF8024039
:105EA00029F014FC9DF802309DF801001B0443EA20
:105EB00000239DF80000184305B030BD13B5042140
:105EC00004460DEB010029F0BDFC01992046C1F309
:105ED000150141F480010191FFF7CEFF019940EADD
:105EE0000160090A02B010BD2DE9F04100240D4BFC
:105EF000DFF83480054608460E4617461C7088F8C1
:105F0000004027F029FD4821084B186001FB0503DC
:105F1000991BB9428EBF204688F8005088B2BDE870
:105F2000F08100BF34070021350700215C07002104
:105F3000014B1860704700BF30070021014B1878F3
:105F4000704700BF350700210022014B1A707047CF
:105F500034070021F8B507461D46FFF76FFF1646C8
:105F6000044680B92E4A2F4913780978994201D8FE
:105F70000020F8BD48202C490C6800FB0344013385
:105F80001370002CF4D0224645EA0745069BC4E96D
:105F9000086503F1100153F8040B8B4242F8040B1F
:105FA000F9D1012304F10F0284F84030631E13F885
:105FB000011F71B3002384F8403004F11000024641
:105FC000079B03F1100153F8045B8B4242F8045B1A
:105FD000F9D1012384F84130034604F1200213F87B
:105FE000011BC9B1002384F8413000230022C4E919
:105FF0000A23C4E90C23C4E90E230023A4F8423089
:1060000094F841301BB9FFF759FFC4E90C01012096
:10601000AFE79A42CBD1D0E79A42E0D1E5E700BFA3
:1060200034070021350700215C07002138B5FFF750
:1060300005FF78B1084D2C78012C08D9482202FBC5
:1060400004F30649483B096819442DF045FE012038
:10605000013C2C7038BD00BF340700215C070021D3
:1060600008B5FFF7EBFE20B19DF8083080F843300B
:10607000012008BD08B5FFF7E1FE20B190F84320EC
:106080000120029B1A7008BD10B5029CFFF7D6FED6
:1060900040B1D0E90A2352EA030116BF01200020D3
:1060A000C4E9002310BD10B5029CFFF7C7FE40B144
:1060B000D0E90C2352EA030116BF01200020C4E9F5
:1060C000002310BD08B5FFF7B9FE28B1029BD3E944
:1060D0000023C0E90C23012008BD10B5FFF7AEFE78
:1060E000044698B190F8403083B990F8423033B903
:1060F000FFF7E4FE0123C4E90A0184F84230029B61
:10610000D4E90A01C3E90001012010BD0020FCE729
:10611000F7B50026174C94F800C0174C2568344694
:10612000F7B2BC450CD8ECB1144C2468D4B1D3E917
:106130000067CDE9006713780122A047002411E031
:1061400095F8407097B9D5E90A748C4208BF874228
:106150000BD10124E98C01F001011170296AAA8C8C
:10616000C3E90012204603B0F0BD012401364835D2
:10617000D6E700BF340700215C070021300700216B
:106180002DE9F347DDE90A679146804632463B46F2
:1061900048460D46FFF752FEC8B190F84140B4B9E9
:1061A000D0E90E23AB4208BF424512D00A4BD3F8C8
:1061B00000A0BAF1000F06D04B46224640462946C1
:1061C000CDE90067D047204602B0BDE8F087002443
:1061D000F9E70124F7E700BF3007002138B505468D
:1061E0001046DDE904230C46FFF728FE50B190F875
:1061F000413043B9D0E90E23A34208BFAA420CBFE5
:106200000120002038BD0020FCE700002DE9F74FF9
:106210000E4605461F464FF000084FF0480B010E92
:1062200041EA0621DFF888A021F07F41214B5FFA87
:1062300088F41B78A3420DD81F4A2049137801EB3C
:10624000C30041F83350013303F003034660137079
:10625000002026E0DAF800300BFB043494F840907C
:10626000B9F1000F20D1D4E90A03B34208BFA84214
:106270000ED02046CDE90012FFF7FEFDDDE9001249
:1062800025F07F4383420FD1C4E90A5684F8429037
:106290000120E38C03F001031370226AA38CC7E989
:1062A000002303B0BDE8F08F08F10108BEE700BF8E
:1062B0005C0700213407002158070021380700211E
:1062C00070B50E461146D3E9002305460878FFF75E
:1062D000B5FD0446C0B190F84130ABB9D0E90E230A
:1062E000B34208BFAA420DD0290E41EA062121F08F
:1062F0007F411030FFF7C0FD25F07F43834203D17B
:10630000C4E90E5601200CE0064A0749137801EB58
:10631000C30041F8335046600020013303F003030B
:10632000137070BD5807002138070021042330B5D1
:10633000084AD2E900548C4208BF854202F10802A3
:1063400005D0013B13F0FF03F3D1012030BD002045
:10635000FCE700BF3807002108B5FFF76FFD48B123
:10636000D0E90A23134306D190F84030002B14BF24
:106370000120022008BD0320FCE708B5FFF75EFD01
:1063800048B1D0E90C23134306D190F84130002BDB
:1063900014BF0120022008BD0320FCE72DE9F041D5
:1063A00000254FF04808124E124F3378ECB2A3424A
:1063B00001D8BDE8F0813B6808FB043494F8413013
:1063C0002BB904F11000FFF779FDC4E90C0194F832
:1063D00040303BB994F8423023B12046FFF76EFDC0
:1063E000C4E90A01012384F844301D44DDE700BFFD
:1063F000340700215C0700212DE9F04717460025EE
:106400004FF0480ADFF85C80DFF85C9043EA004612
:1064100098F80030ECB2A34201D8BDE8F087D9F873
:1064200000300AFB0434D4E90823B34208BFBA425F
:1064300016D194F841302BB904F11000FFF73EFD5E
:10644000C4E90C0194F840303BB994F8423023B1D0
:106450002046FFF733FDC4E90A01012384F84430E4
:106460000135D5E7340700215C07002108B5FFF7A7
:10647000E5FC034620B1002290F8440083F8442054
:1064800008BD08B5FFF7DAFC003818BF012008BDC9
:106490001FB5002301A8CDE90133039328F068FF5D
:1064A00005B05DF804FB000030B5144B144D85B009
:1064B000C5F88830134B0C46C5F88C308368084605
:1064C000C5F89030D1F89830C5F8943028F0ACFE7B
:1064D00005F1880028F044FF03238DF804300023E1
:1064E00001A8CDE9023328F043FFB4F8A410D4F892
:1064F000A00028F08DFF05B030BD00BF856500010C
:1065000064060021096500017FB504460E4626F0A9
:10651000C3FB38B3C56A214685F8A66014F0FB06B4
:10652000D5F89C3010D1984778B1032301A8CDE964
:1065300002668DF8043028F01BFFB5F8A410D5F8DA
:10654000A00028F08BFF04E0984728F091FF26F088
:10655000B9FB032C0A4B07D0042C09D064B91A6884
:1065600001321A6004B070BD9A6801329A60F9E78E
:106570005A6801325A60F5E71A6901321A61F1E787
:1065800060070021F7B5054626F086FB1D4F06463D
:10659000C46A25BB28F06CFF29463046D4F89830F1
:1065A000984718B3184DB4F8A220D5F8903020467B
:1065B0001344C5F8903028F037FE05F1880028F024
:1065C000CFFEFFF765FFB4F8A0300121ADF8003031
:1065D000D4F89C306846019328F0D2FE09E028F0F8
:1065E00047FF29463046D4F89830984726F06AFB92
:1065F00025B9FB680133FB6003B0F0BD3B69013393
:106600003B61F9E7600700216406002137B50C46BD
:106610000F4D104BC5F888300F4BC5F88C30836890
:106620000846C5F8903028F0FFFD05F1880028F0F5
:1066300097FEFFF72DFFB4F8A0300121ADF8003030
:10664000D4F89C306846019328F09AFE03B030BD20
:1066500064060021856500010965000108B528F080
:1066600009FFBDE8084026F02DBB000010B5094C1D
:10667000002022460849FFF777F822460120074903
:10668000FFF772F8BDE810401C22002104482DF0ED
:106690004ABB00BF5D6600010D660001A9640001F0
:1066A0006007002130B50446034D0FCD0FC495E8B7
:1066B000070084E8070030BD600700212DE9F041A4
:1066C00000240D4BDFF834801C700D4B0546084646
:1066D0000E4617461C7088F8004027F03DF9094B1C
:1066E000186000EBC503991BB9428EBF204688F89D
:1066F000005088B2BDE8F0817D0700217E070021AF
:106700007C0700218007002130B50B4943EA004394
:106710000A480968047801EBC404A14201D10020B1
:1067200030BDD1E90050984208BF954201F10801FF
:10673000F3D10120F4E700BF800700217D0700218D
:10674000014B1878704700BF7E0700210023024AE2
:106750001370024A137070477D0700217C070021E7
:1067600070B5064615461C46FFF7CEFF80B9094BAB
:10677000094A197812788A420BD9084A44EA064431
:10678000126802EBC10042F83150013144601970C7
:10679000012070BD7D0700217E07002180070021B8
:1067A00043EA00431148F0B50468DFF844C02546C9
:1067B0009CF8001004EBC10E754501D1002014E0D7
:1067C0002846D0E900769E4208BF974205F10805A9
:1067D000F2D1012905D904EBC10454E90223C0E92F
:1067E0000023012001398CF80010F0BD8007002142
:1067F0007D0700210122014B1A7070477C070021A0
:106800000022014B1A7070477C070021014B187859
:10681000704700BF7C07002137B5044625F058FAC1
:106820000022144B9C42144B0CBFDA701A7194F87E
:10683000423003F0FD03012B01D125F059FA204627
:106840000CF08AFC04F1280528460DF1070127F019
:10685000A9F840B9303420460DF1070127F0A2F81D
:1068600020B903B030BD27F085F8EDE727F082F8B6
:10687000F1E700BF580D00212050002138B5164C1B
:10688000164B174A1D6804F13C0392E8030083E8A5
:10689000030004F1480029790CF08FFD012026F057
:1068A00085F925F00DFA01230E4DEB7094F8423076
:1068B00003F0FD03012B01D125F012FA0CF06EFC60
:1068C00000200123687184F85832A4F85632BDE8DC
:1068D000384025F09CB900BF580D0021540D00210F
:1068E000F850002120500021054BDB7833B1012303
:1068F000044880F899309C3026F072BD704700BF84
:1069000020500021580D0021002025F080B90C20D6
:1069100025F07DB908B5012026F05EF9BDE80840F4
:106920000148FFF779BF00BF580D002108B50120CD
:1069300026F052F90348FFF76FFFBDE8084000203A
:1069400025F065B9580D0021FFF7E4BF034B1A6825
:10695000034B5068916803C3704700BF540D00217A
:10696000F850002108B5084B08481B68197990F8C1
:1069700088308B4202D048300CF01FFDBDE8084043
:10698000002025F044B900BF540D0021580D00210E
:1069900010B50446012026F01FF9A37B03F0FD0388
:1069A000012B01D125F0A4F9D4F8D00120B126F0B3
:1069B000E1FF0023C4F8D031D4F8D80120B126F08B
:1069C000D9FF0023C4F8D831034AD378013BD370F0
:1069D000BDE8104025F07CB92050002110B50446D8
:1069E000012026F0F9F8E36833B10B480B4A201A6E
:1069F000C010504380B2984794F870330BB125F023
:106A000087F925F065F9D4F85C0308B126F0B2FFE8
:106A10000023237010BD00BFD01D00214DF833E1CD
:106A200038B50C4605461222002120462DF07BF990
:106A3000204695F8D83300F8023BD5E9F82326F034
:106A400035FE95F8D9330E4A637095F820342372D9
:106A5000D5F8E431A3FB0232DB0F43EA4203638142
:106A600095F8E831237395F8F832637395F8F932A5
:106A7000A37395F8FA32E37395F8FB32237438BDAB
:106A8000E3361A0038B50446012026F08FF8A37BC0
:106A900003F0FD03012B01D125F022F9002320464C
:106AA0006370A370A4F8003184F83C300CF0AEFFA2
:106AB000054620B920460DF0C7F8054640B12846E6
:106AC00025F0FCF92046BDE8384003210DF098BAC6
:106AD000074AD3780133D37025F0F2F80123284612
:106AE00084F86830A4F86630BDE8384025F0E6B98F
:106AF00020500021002025F0E1B9000030B4027CD4
:106B00000121022A18BF00220C4C81706578954241
:106B10000AD190F8002122B900F5827030BC26F02D
:106B20005FBC00F52E70F9E701FA02F2217821EA44
:106B300002022270032130BC0DF062BAB80F0021AE
:106B4000002025F0BBB9000010B5094C6378012B7B
:106B500004D9BDE810400C2025F0B0B904F1600064
:106B600027F01FF904F17000BDE8104027F019B9B3
:106B700048140021034B5B7813B10C2025F09EB91B
:106B8000704700BF48140021024B587800B10C2018
:106B900025F094B94814002108B5FFF7F9FE044B1D
:106BA0005B7823B1BDE80840002025F087B908BD17
:106BB0004814002138B51E4B01201C6825F0F6FF53
:106BC00023790BB125F09CF823791A4D2B72D4E967
:106BD0000223C5E90423E379AB72A3796B72637D69
:106BE0002B760DF09DFDD8B12862237980F87033A3
:106BF000A37980F87133E37980F87233D4E9022302
:106C0000C0E9DE230A22238AA0F86833638A53434B
:106C1000C0F86C330B23437263798371237DC37196
:106C2000286A0DF0BDFABDE8384025F049B800BF2C
:106C30001C370021C0360021034B5A78012A04BFBB
:106C400000225A70704700BFC0360021084B186AF6
:106C500090F85B230AB9012202715B78012B03D102
:106C6000C370303026F0BCBB05210DF0E3B900BF86
:106C7000C036002130B5104C87B06378012B07D1A6
:106C80000025206AC3700571303026F0A9FB6570BD
:106C9000206A01A9FFF7C4FE236A0849084A591A65
:106CA000C91051433E2093F8213401AA89B225F03E
:106CB0003BF907B030BD00BFC0360021D01D002118
:106CC0004DF833E130B52F4C87B06378206A012B43
:106CD00004BF00236370FFF781FE256A2B7983B11F
:106CE0001222002101A82DF01EF82749274B691A0E
:106CF000C9105943442095F8213401AA89B225F0DE
:106D000013F9256A95F85B33BBB1217A11F00101C3
:106D100015D1122201A82DF006F81B491B4B691A48
:106D2000C91059431A2095F8213401AA89B225F0D7
:106D3000FBF80022236A83F85B2307B030BD1820DC
:106D400026F010FE01460028F3D040F20B134380DA
:106D5000D4E90423C0E90223A37AC371637A83715F
:106D6000237A0371236A9A794271B3F86823D3F8BE
:106D70006C3302824382237E4375054B187B26F0D9
:106D800002FED6E7C0360021D01D00214DF833E1C8
:106D9000685000212DE9F043564B85B01D680DF079
:106DA000BFFC0446002800F0A180012025F0FEFE73
:106DB000002184F8701395F820304F4F84F8713318
:106DC00095F821304D4E84F87233D5E90A23C4E991
:106DD000DE2395F82330384684F820344FF47A7354
:106DE000C4F86C330C233461A4F868136372A91DD2
:106DF00018F0C0FB40F2E242BB885343C4F8E431D0
:106E000095F8203084F8D83395F8213084F8D933B8
:106E1000DB07D5E90A01C4E9F8011CD50B0A03F028
:106E2000C003403B17D14FF000084FF000098DF828
:106E300007300DF1070202ABCDE90289FFF7E6F951
:106E400048B19DF8073043F0020384F8D933DDE9F7
:106E50000223C4E9F82395F83230306984F82134EC
:106E60006B6BC4F8F43295F8383084F8F83295F842
:106E7000393084F8F93295F83A3084F8FA3295F8D6
:106E80003B3084F8FB320DF08BF994F821348BB150
:106E90001B4B6A6B1B68E3641A4B1B6823651A4B18
:106EA0001B68C4F80831E36D9A67184B1B680BB177
:106EB0002046984724F004FFAB88288BB3806B8B67
:106EC0007080F380AB8B33812B8E738195F82230E9
:106ED0003373EB8BF3816B6B7361AB6BB3610DF051
:106EE00043FA05B0BDE8F04306F044B805B0BDE88C
:106EF000F08300BF1C37002120370021E836002135
:106F0000CC070021C4070021C0070021D0070021C1
:106F100070470000012310B5064C2069C370303063
:106F200026F05EFA21693E20BDE8104091F8212448
:106F30000DF078BCE8360021034B1869012330308E
:106F400000F82D3C26F04CBAE8360021044B1869B5
:106F5000C378012B04BF0023C370FFF73FBD00BF00
:106F6000E836002110B5437A04460B2B86B010D1C9
:106F700001A9FFF755FD0C490C4B611AC910594383
:106F8000002094F8213401AA89B224F0CDFF06B084
:106F900010BD0C2BFBD1014690F82124002006B037
:106FA000BDE810400DF03EBCD01D00214DF833E18E
:106FB0000123303000F82E3C26F012BAFFF70EBD48
:106FC000012310B504468370303026F009FA04F529
:106FD000727026F0E6FE0548201A054CC01060438A
:106FE000BDE8104080B224F0D1BF00BFD01D002109
:106FF0004DF833E1F8B50579C388012D1AD0022D7B
:1070000021D0B5B94FF48562534313490688CC1893
:10701000B4F830224088921B82420ADCD4E98A67A5
:1070200003F56473C4E9E467C81824F0A9FE84F882
:107030002052F8BD4FF48562074802FB030300228B
:1070400083F88822F5E74FF48562034802FB0303C7
:10705000002283F8F022ECE7D01D002108B524F0CF
:1070600037FE0022054B5A70054B93F821301BB1B7
:10707000BDE8084024F03CBE08BD00BF2050002100
:107080004051002108B5012025F090FD24F018FEA4
:107090000122074B5A70074B93F821300BB124F0B3
:1070A0001FFE0DF0F9FCBDE80840002024F0A0BD53
:1070B000205000214051002108B5012025F076FD27
:1070C00024F0FEFD0122064B5A70064B93F8213046
:1070D0000BB124F005FEBDE808400DF0DDBC00BF9B
:1070E0002050002140510021054B5B7833B1012332
:1070F000044880F829302C3026F072B9704700BF60
:107100002050002168370021002024F071BD0C20A0
:1071100024F06EBD2DE9F041634B8AB05B78002B03
:1071200000F0BE80614D95F82860002E00F08C8044
:10713000D5F8FC80B8F1000F00F08180012205F540
:107140008C7305F1E0014046FEF7E0FB064668203F
:1071500026F008FC0446002800F09E8000F1080795
:10716000384608F1020118F0D0FB384618F024FC2C
:1071700000B196B9204626F0FDFB042026F0F2FB74
:10718000014630B14FF441734380494B187B26F0E0
:10719000FAFB012025F020FD51E00023A370D5F873
:1071A000E031A36395F82B3184F83C3095F82A211F
:1071B0009A4207D1D5E94861D5E94602914208BF14
:1071C000864203D043F0020384F83C300020D5E926
:1071D00048230021C4E91223C4E9140195F82B01C6
:1071E00095F82A11884207D1D5E94870D5E946615A
:1071F000884208BFB74203D0D5E94601C4E914016B
:1072000094F83C0014F07EFC0028B3D1294B2146B1
:10721000D3E91C23C4E9162395F82A3084F84100E9
:1072200084F83D300123E387FF2384F860304FF674
:10723000FF73A4F862301E4B187B26F0A4FB0AB043
:10724000BDE8F041FFF70ABF1A4C0DF05FFD257C49
:10725000012D9ED13146232268462CF064FD43F671
:107260000543ADF802303C238DF80430A37C0DF1CA
:107270000A008DF80930FF238DF823304FF6FF7395
:10728000ADF82430D4E906238DF8085026F00EFA24
:10729000684624F0A5FC7CE7002E3FF46EAFCEE7F5
:1072A0000AB0BDE8F08100BF2050002168370021FE
:1072B000685000214051002108B5012025F08CFCC8
:1072C000FFF7CCFE0DF022FDBDE80840002024F0C1
:1072D0008FBC08B5012025F07FFCFFF7BFFEBDE89D
:1072E00008400DF013BD000010B50446012025F044
:1072F00073FC074B1868201A064CC010604304301A
:10730000C0B225F0B3FABDE8104024F0E1BC00BFE4
:10731000C0390021D53FF54F10B50446D0F8E80A32
:1073200028B1043826F026FB0023C4F8E83AD4F844
:107330002C0928B1043826F01DFB0023C4F82C3991
:1073400094F83B300BB124F0D3FC024A9378013B14
:10735000937010BD2050002138B504461F4D012008
:1073600025F024FC2A682046137A84F8D4330023BD
:1073700084F8D53384F8D63384F85C3884F85E38E2
:107380005168C4F8D8330EF0BFFE014640B16078B2
:1073900024F00AFE2046BDE8384004210EF06ABD04
:1073A0000F4A93780133937094F83B300BB124F07B
:1073B00097FC2B68596851B14FF47A72636A0A39A5
:1073C000B3FBF2F304F57170C91A26F0E4FC60789F
:1073D0000021BDE8384024F0E7BD00BFC8390021D6
:1073E0002050002138B504461C4D012025F0DEFB5D
:1073F0002A682046137A84F8D433002384F8D533DE
:1074000084F8D63384F85C3884F85E385168C4F860
:10741000D8330EF079FE014640B1607824F0C4FD07
:107420002046BDE8384004210EF024BD2B685B687F
:1074300093B14FF47A71626A4B4302F59C52083261
:10744000B3FBF2F3013B534304F57170B3FBF1F16D
:10745000BDE8384026F09FBC38BD00BFC8390021C8
:1074600070B5134D00F571760446304626F099FC50
:107470002B685B687BB14FF47A71626A4B4302F50B
:107480009C520832B3FBF2F3013B53433046B3FB4B
:10749000F1F126F080FC00212B6860781B7A84F8DB
:1074A000D51384F8D433BDE8704024F07DBD00BF0F
:1074B000C839002110B5044600F5717026F071FC42
:1074C000002384F8D633012384F85E3810BD0021F0
:1074D000407824F069BD0C21407824F065BD00009F
:1074E000F0B590F85C3804469FB0002B39D100F518
:1074F000717026F056FC2046FFF70EFF012025F0A4
:107500006BFB94F8D42394F8D53322B1934224BF73
:10751000432284F8D623002294F8D613607824F00E
:1075200086FB238C03F01D031D2B18D1FF234FF680
:10753000FF7200200021CDE908323C230022CDE972
:107540000401CDE90632CDE90201D4E90C0194F839
:107550003A30CDE900010121607801F05FFC1FB0F5
:10756000F0BDD0F82C697C4F002E7ED000F6481379
:1075700000F5116101223046FEF7C8F9002800F03D
:10758000D780682026F0EEF90546002800F0D0806C
:107590006378314603800023837012A818F08CF9B9
:1075A000311805F1080018F0B0F9D4F82C39002B87
:1075B00000F0898094F85BC904F5156185F83CC03A
:1075C00094F85A39634508D151E90203D4F8506957
:1075D0004A689A4208BF864203D04CF0020C85F8F4
:1075E0003CC0D1E90023C5E9122300220023C5E9EC
:1075F000142394F85B2994F85A399A4208D151E936
:107600000203D4F850694A689A4208BF864203D000
:1076100051E90223C5E91423012385F83E30D4F84B
:107620005838387BAB634D4B2946D3E91C23C5E959
:10763000162394F85D3885F83D30012385F83F30F6
:1076400094F8D53385F8403094F8543885F84130B3
:10765000FF2385F860304FF6FF73A5F8623026F0FF
:1076600092F92046FFF758FE79E7D0F8E86A002E35
:1076700087D031460AA818F01FF9311812A818F05F
:1076800044F9002311939DF8283004F511618DF819
:10769000403003238DF84130DDE91223CDE90C237E
:1076A0009DF82A300CA88DF84230DDE91423CDE98D
:1076B0000E239DF82B3001228DF8433004F5326300
:1076C000FEF712FA5AE794F833CB04F5326185F8E5
:1076D0003CC094F8323B634508D1D1E90262D4F84A
:1076E000200B4B689A4208BF864203D04CF0020C34
:1076F00085F83CC0D1E90223C5E91223002200230A
:10770000C5E9142394F8332B94F8323B9A4208D1FC
:10771000D1E90262D4F8200B4B689A4208BF864236
:1077200003D0D1E90023C5E9142394F84D3A74E756
:107730006378311F26F8043C082306F8023C032333
:1077400006F8013C387B26F01EF901201FB0BDE889
:10775000F04025F041BA00BF68500021405100219F
:1077600010B50446FFF7D8FD012025F035FA607802
:107770000021BDE8104024F017BC10B50446FFF707
:10778000CBFD012025F028FA2046BDE810400DF081
:1077900037BC3C2380F8D633012380F85E3870472D
:1077A00000221346F0B5D0E90076C3F12005A3F11D
:1077B000200427FA03F106FA05F5294326FA04F412
:1077C0002143C90744BF81180B7203F1010348BF6D
:1077D0000132252BE9D180F82D20F0BD70B504468B
:1077E0000025012025F0E2F984F84E530BF0A4FBAC
:1077F000A4F8905184F8B7532546354BC4F88C0152
:10780000D3E90E23E5E9DA23284624F0B9FA012367
:1078100084F89633D4F88C3183EA1343A4F8983370
:1078200094F8DD3BEBB194F8B713B4F890315940BC
:1078300028460DF00FFD94F8DD3B84F84D032046FB
:1078400093B1244B1B687BB19847054678B120461D
:1078500003210EF087FD29466078BDE8704024F0D2
:10786000DABBB4F89011E3E70EF0BCFDEDE70123BD
:1078700084F88931A378012B13D194F8C52B0AB968
:1078800084F89231D4F82C66B4F8525824F075F983
:107890003246294625F016FF0123A4F83E0684F857
:1078A000C63B94F854335BB1D4F82C66B4F8525804
:1078B00024F063F93246294625F004FFA4F8560364
:1078C0006078002124F0A7FBBDE8704024F0F8B9EF
:1078D00020500021840700210021407824F09BBB28
:1078E0000C21407824F097BBF8B583780446012B2F
:1078F00011D190F88951012D0DD1D0F82C76B0F826
:10790000526824F03AF93A46314625F0DBFE84F815
:10791000C65BA4F83E06012384F84E33002394F896
:10792000DD2B84F8893184F892316AB1D4F82405CA
:107930000F22A0F8003F47F6FF73FF21A0F8023F97
:1079400000F604702CF0EFF904F5CA70BDE8F840B9
:1079500025F046BD10B590F888310446012B04D1BE
:10796000FFF7C2FF2046FFF7BFFC2046BDE81040EE
:10797000FFF7A0BD10B590F888310446012B04D163
:10798000FFF7B2FF2046FFF7AFFC2046BDE81040EE
:107990000DF036BB10B50446FFF7A6FC6078002159
:1079A000BDE8104024F037BB90F85030012B12D0C6
:1079B000094B1B68D3E90223C0E9E823C0E9162379
:1079C000B0F890310633A0F86030082380F85230C8
:1079D000012380F850307047BC390021D0F8D03BEB
:1079E0000BB1407818477047D0F8D43B0BB14078C2
:1079F0001847704790F82031012B0ED0D0F8A833EB
:107A0000C0F82431B0F8AC33A0F82831B0F8B43362
:107A1000A0F82A31092380F8223170470023C0F8EA
:107A20002031C0F82431C0F8283170476822002185
:107A30002CF079B95030FFF7F9BF2B2307B58DF83B
:107A400003008DF804006846ADF800108DF8023090
:107A50008DF8051024F0C4F803B05DF804FB2D2365
:107A600007B5ADF800008DF804006846ADF80230A7
:107A70008DF8051024F0B4F803B05DF804FB08B5E8
:107A8000012025F093F8BDE8084024F019B9000062
:107A90002DE9F04FDFF840810446D8F800608FB040
:107AA00006F1080529460FF0F7FD29460025204676
:107AB0000FF05AFEAA46B37DAB4243D9002794F893
:107AC000562004F1570305F101090BE0D4F8943076
:107AD00053BB94F89C30C4F894B0ED1A84F89D50D0
:107AE00022E00137BA421FD913F8011B4945F8D1EA
:107AF00020460EF0EDFE96F84030F18E0293D6E966
:107B00000E23CDE900230A46F16A83460EF086FF74
:107B1000D4F89030002BD9D1E368C4F890B06B430F
:107B200084F89C50C4F8983094F85630BB4207D182
:107B300094F834305A1C0E3384F8342044F823A0CF
:107B40004D46B8E7D8F80010204608310FF022FD66
:107B5000216F04F1600026F01EF92C23A578202265
:107B6000002106A8ADF81630ADF814502CF0DBF863
:107B7000E36A1A4A0793238B04F138015BBAADF824
:107B80002030638B8DF81950ADF82230A388503423
:107B9000ADF8243054F8403CA3FB0232DB0F43EA3B
:107BA00042030022ADF82630134651F8040B40B1D1
:107BB00040880EAD5A1C05EB430323F80E0CD3B2DC
:107BC00001228C42F1D10AB18DF8283005A824F0A9
:107BD00007F80FB0BDE8F08FD8390021E3361A005E
:107BE00090F8BA3080F85430704710B504468AB027
:107BF00081780020FFF721FF0021202202A82CF02D
:107C000092F82C228DF806204422A37801A8ADF822
:107C100004308DF807208DF808208DF8093023F006
:107C2000DFFF20460FF05EFA0AB0BDE8104024F0F6
:107C30004FB8082380F8543070473D2380F8543003
:107C4000704710B50446012024F0C6FF236D13B120
:107C5000002283F88A226378032B06D194F85430EB
:107C6000A0784BB11946FFF7FAFE20460FF03AFA1A
:107C7000BDE8104024F02CB801461846FFF7DDFEA1
:107C8000F3E7F8B5054610F0E5FA044648B1284692
:107C9000042110F0ADFA21462846BDE8F84010F066
:107CA00041BA012024F082FF2C6DCCB1012384F86D
:107CB0008931A378012B13D194F8C52B0AB984F824
:107CC0009231D4F82C76B4F8526823F056FF3A4635
:107CD000314625F0F7FC0123A4F83E0684F8C63BA4
:107CE0002846022110F09AFABDE8F84023F0E8BFD8
:107CF000F0B5044685B007200FF030F9064630B3E2
:107D0000144B03A91868258C0390304619F088F9A4
:107D1000114F0635ADB2D7E90E230095304419F066
:107D200092F90622314620460FF01FF994F8A03050
:107D3000A4F8A85043F0010384F8A030D7E90E233B
:107D4000C4E92C23236D13B1002283F8B82005B0B9
:107D5000F0BD00BF384E03012050002173B504462A
:107D600003200FF0FBF80646E0B1124B01A958685A
:107D7000258C0190304619F053F90635ADB22A46EC
:107D800094F8BA10304419F070F9062231462046B2
:107D90000FF0EBF894F8A030A4F8B85043F00203C9
:107DA00084F8A0300321204602B0BDE8704010F0F6
:107DB00035BA00BF384E030110B50446C43025F073
:107DC0000FFB2046BDE81040032110F027BA10B584
:107DD0000446012024F000FF20460FF083F923F031
:107DE00077FF6378022B04D12046BDE8104010F0E5
:107DF000EBB910BD164A30B514684FF49562C388CC
:107E000085B002FB0344062203890546ADF8043021
:107E1000ADF80A30C37F01A88DF80C308DF806202C
:107E20008DF807108DF8081023F0DAFE94F82E3440
:107E300063B12989B4F8360410F0F6FB054628B979
:107E400004F5866023F0CCFE84F82E5405B030BDD6
:107E5000B43A00212DE9F0438BB0044615460E4696
:107E60002422002101A82BF05EFF27238DF8023089
:107E700040F2E243B4F8E82294F8EB1294F8EA7284
:107E800002FB01FE02FB07F003FB0EFE94F8D89202
:107E900003FB00F8D4F8E432B9F1010F0CBF5B1911
:107EA000EB1A734405932369D4F8E0020393B4F802
:107EB000D432B4F808C0ADF8183094F8EC3208BFEA
:107EC00040198DF81A3094F8F43218BF281A8DF83A
:107ED0001B3094F8F53208BF40448DF81C30A37A6B
:107EE00018BF4044ADF800C08DF803600CBF04908B
:107EF0000490ADF806C08DF8046002958DF81D70F1
:107F00008DF81E10ADF824208BB9B4F83021012B68
:107F10000CBFB4F83031B4F82C316846ADF82020ED
:107F2000ADF8223023F05CFE0BB0BDE8F083B4F86E
:107F30002C21ECE738B5054604200C4625F012FD4F
:107F4000014650B12B89C47003800F238370034B0B
:107F5000187BBDE8384025F016BD38BD68500021BB
:107F600038B5054604200C4625F0FCFC014650B10E
:107F7000EB88C470038001238370034B187BBDE83A
:107F8000384025F000BD38BD68500021014B9B7C76
:107F9000C3777047283A0021024B1B681B79C377CF
:107FA000704700BFE03900213E23C37770470823A4
:107FB000C37770472223C37770470D23C377704779
:107FC000014B5B7CC3777047283A00213D23C37780
:107FD0007047000010B50446C07A10F09FFB4FF4C4
:107FE00095611B4BE2881B6801FB0233C27D0132A5
:107FF000C275A27A22BB94F8D412032993F85620B2
:1080000021D1013A18BF01228A1A1A4492F950224A
:108010007E2A1AD193F81504B8B10E4A581812687E
:10802000032992F9282080F84F2208BF83F85322B1
:10803000D3F834335B0702D5012384F8CB3210BD6B
:1080400094F8D512D9E70122DEE784F83A21F6E761
:10805000B43A0021DC4D002138B590F84750044671
:108060000022C17F4DB1222906D180F8472011217D
:10807000BDE83840FFF7EEBE0C25204684F84720C7
:108080000022FFF7E7FE204610F054FEE37F442B6A
:1080900007D1162329462046E377BDE83840FFF78D
:1080A000A9BE38BD38B50446C08813F0AFF90546FF
:1080B00098B9082025F056FC014668B1E388038092
:1080C00041F2017343802389C380E37F0371044B32
:1080D000187B25F058FCA57638BD0123A376FBE775
:1080E00068500021F8B504460121C688008915F0C2
:1080F000A7FD0221208915F0A3FDE07A10F00EFB08
:10810000054604F52E7025F04CFE01236376E37FCF
:108110003E2B0CD100276776EB7D2046013BEB75AB
:1081200010F008FE3A462046E17FFFF793FE144B1D
:108130001B6893F83520134B1C680023934219D217
:10814000E188B14217D1657EADB9A17E99B1082011
:1081500025F008FC014668B1E388038041F2017311
:1081600043802389C380E37F0371074B187B25F08D
:108170000AFCA576F8BD013304F56274DEE700BFA2
:10818000DC4D0021E4390021685000218378012B67
:1081900008BF4376704770B5054604200C46CE7F75
:1081A00013F0D8FE014648B122230370E37A4370EE
:1081B000237BC6708370284613F0A2FE2146284612
:1081C000BDE8704010F0B5BE034B9B7CCB7701231C
:1081D00080F87F33704700BF283A00210846052108
:1081E000FFF7A8BEFFF7D7BF012380F87F337047A2
:1081F0002DE9F34705460C46C87A10F08FFAB5F81A
:108200000432B5F80672DA1DB5F80832B5F85E1416
:10821000C3EB470302FB0133A4F848300023A4F862
:108220004A30064610F042FBB4F84830B5F8061262
:10823000B5F80A225B1A5343EF6900285FD140F278
:10824000E242DFF8289102FB0377D9F80010DFF84B
:108250002081731A9B1008FB03F313F0FF0302D075
:108260003269002A47D03A46032340F2E247D9F860
:108270000010B08A711A891008FB01F10A310093CD
:10828000784305F11403C9B224F014FBD4E90423A4
:108290009B1A326913440344B3F5FA7F38BF4FF495
:1082A000FA73E36440F2E243B5F80A1294F8EC2260
:1082B0005943304BD4F8F0021B68DB8E00FB1233BD
:1082C0000B44E26C9A4249D202B0BDE8F087013219
:1082D000D2B2981AC7D40CFB001090F804E0BEF19B
