:020000040100F9
:1088000000000121DD4B0301B14B0301914B03013A
:10881000B14B0301B14B0301B14B0301B14B030158
:10882000B14B0301B14B0301B14B0301B14B030148
:10883000B14B0301B14B0301B14B0301B14B030138
:10884000B14B0301B14B0301B14B0301B14B030128
:10885000B14B0301B1460301B14B0301B14B03011D
:10886000F15B0301B14B0301E5430301B14B03018C
:1088700011490301B14B0301B14B0301B14B03019A
:10888000B14B03015D470301214603016149030127
:10889000B14B0301B14B030169470301B14B030124
:1088A0002149030131490301B14B0301B14B0301DC
:1088B000B14B0301B14B03010000000000000000B8
:1088C00000000000000000000000000000000000A8
:1088D0000000000000000000000000000000000098
:1088E0000000000000000000000000000000000088
:1088F0000000000000000000000000000000000078
:108900000000000000000000000000000000000067
:108910000000000000000000000000000000000057
:108920000000000000000000000000000000000047
:108930000000000000000000000000000000000037
:108940000000000000000000000000000000000027
:108950000000000000000000000000000000000017
:108960000000000000000000000000000000000007
:1089700000000000000000000000000000000000F7
:1089800000000000000000000000000000000000E7
:1089900000000000000000000000000000000000D7
:1089A00000000000000000000000000000000000C7
:1089B00000000000000000000000000000000000B7
:1089C00000000000000000000000000000000000A7
:1089D0000000000000000000000000000000000097
:1089E0000000000000000000000000000000000087
:1089F0000000000000000000000000000000000077
:108A0000DEE61E284CBBCE8F023500003C00000085
:108A10000C390300010000000088000100880001FB
:108A2000FFFF0291000000000000000000000000B5
:0C8A30000000000000000000000000003A
:108A4000002070470388F7B5A3F57C4306460C4623
:108A5000032B4DD8DFE803F00212204391F9000008
:108A600000F0AEFA04460120318823F0DBFD18B196
:108A700000F8054923F082FD01203AE0CB788A789E
:108A8000207802EB0322497892B22CF015FF08B14E
:108A90000024E8E71224E6E7CA798B79497903EBE9
:108AA00002232279E07802EB0122A178657801EBBC
:108AB00000212078E77A00EB0520A57A9BB205EB30
:108AC0000725ADB20195657A247A92B204EB0524AC
:108AD000A4B2009489B280B22EF02EF8D7E70878BD
:108AE0002CF0D4FF0028D5D060782CF0EBFFCEE737
:108AF000002003B0F0BD00002DE9F047A74D86B07F
:108B000028462CF0A5FB4FF49673A54EEB8030461B
:108B100025F092FB3C2206F10C0102202CF0A4FB74
:108B20003C2206F13A0101202CF09EFB3C2206F18A
:108B3000410106202CF098FB1022ADF804200822F9
:108B40008DF8062020220B23ADF808208022042770
:108B500040F20D113371B38CADF80C20B27B1C3395
:108B60008DF80E208DF81220ADF8143096F82220E2
:108B700096F82130ADF81010134496F828200DEB2C
:108B80000701134496F82920052013448DF8163068
:108B90008DF80A702AF00EFD80B22AF0D9FD2AF075
:108BA000D5FE2AF0F1FF00F067F92AF0E1FD8046DA
:108BB0002AF0E4FD0446284629F02CFF22464146CF
:108BC000384603F055FD08EB0009A4EB000A054602
:108BD00052464946384603F02FF80544AAEB0002F6
:108BE00009EB0001384603F029F94719304625F012
:108BF00051FB96F82050B844E41B35B1214640465D
:108C000025F090FC05468044241A2146404625F074
:108C100044FC241A804421460544404625F053FC78
:108C2000241A804481462146404625F070FC241ACF
:108C3000804482462146404625F057FC3D44211A97
:108C40000746404425F08EFC00244D4455443D44E5
:108C5000054429F0E5FE02F015FD00F047FC02F0A6
:108C6000A3FB01F0BFFA02F0BBFC01F087F801F0B2
:108C7000A5F801F009FD2CF06BFE02F07DF802F082
:108C800013FA01F0A5FD01F067FE03F0C9FC4548A9
:108C90002AF050FE2AF092FB25F0F8FB25F058FC54
:108CA00025F048FC25F008FC25F04BFC25F063FC82
:108CB00025F068FC25F0F3FB25F04CFC25F057FC73
:108CC00025F01CFC25F00AFC25F0FFFB25F061FCDB
:108CD00025F01FFC25F00BFC25F022FC25F049FCBB
:108CE00031482AF027FE25F0DBFA30482AF022FE30
:108CF000728DB18C29F098FF24F0F8FD24F002FF6A
:108D000024F0B0FE24F022FE24F00CFF24F080FEBC
:108D100024F00EFE24F0E6FE24F086FF24F0F6FD9B
:108D200024F0C0FE24F022FE24F094FE24F06CFF18
:108D300024F056FF24F04CFE24F02AFE24F038FEE6
:108D400024F056FE24F02CFF19482AF0F3FD24F0FD
:108D5000FBFE25F017F9174824F0C2FD28462AF03B
:108D6000F7FC01A80194ADF8084025F015FC04219A
:108D700068462CF023FC684628F086FC012200217E
:108D80004FF4003025F0AAFC0B482AF0EFFD2AF042
:108D9000F9FD204606B0BDE8F08700BF980100212C
:108DA000A8010021DD33030141E30201552C030139
:108DB00009E20201458A0001418A0001014B18784D
:108DC000704700BF00000720014B1970704700BFBB
:108DD00000000720012070470122014B5A607047B4
:108DE0000020014138B5C4003434204630F0FEFC88
:108DF000054618B12246002130F02FFD284638BD27
:108E00002FF0B8BC70B50E46CAB1541EA0B22AF0FD
:108E1000CFFC054698B12246711C30F0F7FC337840
:108E2000022B0ED0052B05D0012B08D100212A469C
:108E3000084602E02A460321002029F061FF0020B5
:108E400070BD2A460121F7E7C30703D5024B5868D6
:108E50002FF042BB704700BF3402002148F29C63F0
:108E6000C360044B436003F55473036020238360A5
:108E7000704700BF048007201FB56846FFF7EEFF6C
:108E80000298FFF7AFFF044C20600298FFF7AAFF9B
:108E9000606004B010BD00BF3402002130B5294B22
:108EA0008BB004AC93E80300002284E80300264959
:108EB00006202BF06BFB25482BF084FB06A8FFF760
:108EC000CDFF204630F070F9099B2148214C4361C9
:108ED00030F04CF922462049204830F013F922683E
:108EE00093680BB102F10C0304201D4A06999060AF
:108EF0001062012051601B49BDF820400D6849688F
:108F0000156091611849079D886102205361948121
:108F1000D362D5619484CA620022886213480862D1
:108F2000009213482FF0AEFF124B134A0293134BDB
:108F30000F4901934FF0FF33114800932FF0A0FB2E
:108F40000BB030BDBCA80301498E0001C4A80301C9
:108F500000000021F00100219CA80301A6A8030144
:108F6000D0020021340200210003002148A903019E
:108F70003C020021018E0001AEA80301058E000114
:108F8000F4010021022907B5184603F1FF3310D17F
:108F9000042100F8011C012108480A4401910092B3
:108FA000D0E909122FF0CCFA03B05DF804EB29F0F8
:108FB00027BE01290CBF02210521EAE7F4010021A7
:108FC000024B83F87B000020704700BFD84B002184
:108FD0002CF01CB92DE9F8431C46D0F82890C56840
:108FE00007460E46904629F0DBFD99F80D302C44DB
:108FF000022B04440DD0032B0DD0012B00D12834BB
:10900000306C3D690319AB4208D935640020BDE8D6
:10901000F8831834F4E704F5A874F1E77B682D1A97
:1090200063B14146986829F0C1FD854228BF0546D5
:10903000AC4203D9336C2B443364E7E7281B4FF46D
:109040007A75044B1B689C886C43A04228BF20465D
:10905000DDE700BFC04E00211FB501238DF80430AD
:10906000002301A8CDE902332CF04EF805B05DF8DD
:1090700004FB1FB5002301A8CDE9013303932CF0B5
:1090800043F805B05DF804FB2DE9F8430446884633
:10909000866A2CF073FB05460146A06806F1980726
:1090A00029F084FD78B9A368DFF88C90C9F87C308A
:1090B00029F076FD2844A060D9F87C10284629F0D4
:1090C00075FDC6F8D800D6F8A4300BB120469847F5
:1090D000394600232046A268FFF77CFF074618B9EF
:1090E000BDE8F84329F02ABD134DA3684046EB675D
:1090F0002BF096FF114B05F18000C5F88030104B26
:10910000C5F88C70C5F88430A368C5F888302BF09A
:10911000F3FF002385F87830D6F89C304BB1FFF789
:109120009BFF96F8CA10D6F89800BDE8F8432CF0DB
:109130003BB8FFF79EFFF4E76C060021FD930001AA
:10914000E19100012DE9F84380460C4629F000FD2D
:10915000064618B101263046BDE8F8832CF00EFB18
:109160001D4D8146E96F29F021FD236C03442364E2
:10917000C5F87C9029F014FD4A4603462146404636
:10918000FFF728FF07460028E4D0636A53B1024680
:1091900049464046984728B10122D8F8283083F83C
:1091A000C820D8E7D5F87C8029F0FAFC4044C5E90E
:1091B00022070A482BF0A0FF002385F87830636867
:1091C00033B1FFF749FF272120682BF0EDFFC2E7FD
:1091D000FFF74FFFF7E700BF6C060021EC06002108
:1091E0002DE9F04F87B09A469DF8403003910293E5
:1091F000934607462CF0C2FADFF8F491C9F8000054
:1092000029F096FCDDE90231846A8046D4F8C45026
:10921000ADB194F8C820012A11D1CDE900A30A46C6
:109220005B463946D4F8B800A847012804D100238A
:10923000C4F8B83084F8C83007B0BDE8F08F6D4A84
:109240006D4D92F87860701C82F8780076B1022E2D
:1092500000F08680AC8C2CF091FAD9F80030C01A5E
:10926000844240F2B580A88CA884E5E707B3FB1ED2
:10927000012B40F2B680042F68D06FD83346012608
:10928000032F5DD032461E46EB690133EB61334656
:10929000164643B117F0FB0F46D0404604F1980143
:1092A000FFF750FF0646002ED4D029F057FCD1E737
:1092B00084F8CC1084F8CD303A46C4E934BAD4F8F6
:1092C000980004F1E00304F1800102F0E7FA0028BD
:1092D00034D04046D4F8A830D4F8981098470028E5
:1092E0007DD06E8C2CF04AFAD9F80030C01A864234
:1092F0001DD9688C94F8C9306884ADF81030D4F862
:109300009C300593FFF7A8FE012104A82BF02EFF47
:10931000D4F8AC301BB14046D4F8981098472B686D
:1093200001332B60002F95D02BF06EFFB5E72CF0AA
:1093300025FAD9F80030C01A80B2DBE70127EEE742
:10934000AA680132AA60002BA7D1ACE733460126F8
:109350006A6801326A60002BE6D1A4E7012293E734
:109360006FB1FB1E012B1ED9042F4FF000034FF0ED
:10937000010629D022D9EA690132EA6189E73A4631
:10938000D4F8A00004F1E00304F1800102F086FAB1
:1093900028B14046D4F8B430D4F8A01098472B69CF
:1093A00001332B61C0E7D4F8B43000214046984720
:1093B000042F4FF001034FF0000605D0032FDAD140
:1093C000AA690132AA61BEE76A6901326A61C2E72D
:1093D0002CF0D4F9D9F80030C01A80B244E7012744
:1093E00096E7042F4FF001037FF44AAFB0E700BFC8
:1093F000E40500216C060021300300212DE9F8432B
:1094000081462CF0BBF9364E306029F091FB856A1D
:109410000746D5F8C03083B195F8C820012A0CD191
:109420004946D5F8B8009847012804D10023C5F86B
:10943000B83085F8C830BDE8F8832A4B2A4C93F839
:10944000788008F10102B8F1010F83F878202CD15F
:10945000B9F1000F3FD13846D5F8B030D5F89C109F
:10946000984790B1B4F820802CF088F93368C01A7E
:10947000804524D9238C2384FFF7FBFD2721D5F8D1
:10948000A0002BF0B7FE4FF00008E3680133E36063
:10949000B8F1000F09D02BF0B7FE384605F198015E
:1094A000FFF750FE08B129F059FBE58C2CF066F966
:1094B0003368C01A854208D9E08CE084BBE72CF001
:1094C0005DF93368C31A9BB2D5E72CF057F93368BE
:1094D000C01A80B2F1E7E3690133E361E3E700BF5B
:1094E000E40500216C0600213003002108B50220AC
:1094F000054A064902F000F9BDE80840282200218B
:10950000034830F0AAB900BFD18F00018990000153
:109510003003002130B50446044D0FCD0FC40FCDEC
:109520000FC495E8030084E8030030BD3003002138
:109530001FB5002301A8CDE9013303932BF0E4FD0F
:1095400005B05DF804FB1FB501238DF8043000233E
:1095500001A8CDE902332BF0D7FD05B05DF804FB7F
:1095600070B50546866A08462BF05AFD114C124B21
:1095700004F18000C4F88030104BC4F88430D6F871
:10958000B430C4F88C30AB68C4F888302BF0B4FD2C
:10959000002384F87830D6F8983043B1FFF7D3FF32
:1095A000BDE8704040F2011105482BF0FDBDFFF70A
:1095B000BFFFF5E76C06002161990001259D0001C0
:1095C00058030021F8B50546134E876A08462BF06C
:1095D00027FD124C336804F18000C4F88030104B32
:1095E000C4F88430D7F8A030C4F88C30AB68C4F825
:1095F00088302BF081FD002384F87830336843B144
:10960000FFF7A1FFBDE8F84040F2011105482BF03B
:10961000CBBDFFF78DFFF5E7C00500216C060021EB
:1096200029960001900400212DE9F04F85B08B466A
:109630009DF83810029203919A4606462CF09EF847
:10964000DFF89482DFF89492C8F8000029F070FAED
:1096500099F878200746856AA14C039982B1032ABC
:1096600000F0BC80258C2CF089F8D8F80030C01AA6
:10967000854240F22981208C208405B0BDE8F08F1E
:10968000012E00F08A800AD9F31E012B76D9042E10
:1096900000F09A8000F2A0801346012278E00323B4
:1096A00085F8BEB04FF0010B89F87830029B85F841
:1096B000BF10C5E9303A8B49D5F8983085F8C8B065
:1096C0009847002838D0029028462BF0A9FC029B2E
:1096D00009F180005344C9F888302BF00DFDB4F82F
:1096E0001C902CF04BF8D8F80030C01A81451CD9DA
:1096F000A08BA083FFF71CFF40F2011179482BF0EB
:1097000053FDD5F89C30384677499847B0FA80F336
:109710005B09226801322260002BA3D016F0FB0FF8
:1097200000F0A98029F01AFA9CE72CF027F8D8F865
:109730000030C01A80B2DCE795F8BC3005F1980023
:1097400033B16A4B1B68BBB1594698470346E0E703
:1097500095F8CA30012B0AD1654A1568002DD8D07A
:109760000146604A3846CDF800A0A847EEE73846E3
:10977000D5F89C305B4998475B46CAE71146D5F857
:109780009C3002929847042E4FF00103029A1DD09C
:10979000032E13D011461A4606E01146D5F89C3028
:1097A000029298473146029AA3690133A361134696
:1097B0000A46002BB2D1002AB4D153E7A168013187
:1097C000A160002BAED1F6E713460122616801319A
:1097D0006160002B4FD1EEE70121E5E7D5F8983025
:1097E000AEB1F21E012A57D9324600219847D5F86A
:1097F0009C30002138469847042E4FF000034FF06C
:1098000001025DD056D9A1690131A161D1E732468B
:1098100085F8C86085F8BF1085F8BEB03149984713
:10982000064690B328462BF0FBFB564409F1800016
:10983000C9F888602BF060FCA68B2BF09FFFD8F84E
:109840000030C01A864219D9A08BA083FFF770FEA2
:1098500040F2011123482BF0A7FC3846D5F89C3084
:1098600021499847B0FA80F04009E3680133E3608A
:1098700000283FF4F7AE2BF0C7FC53E72BF07EFF38
:10988000D8F80030C01A80B2DFE73846D5F89C30EF
:10989000144998470120E8E7324600219847D5F857
:1098A0009C30002138469847042E4FF001034FF0BA
:1098B000000205D0032EA6D161690131616180E704
:1098C00021690131216184E72BF058FFD8F800307D
:1098D000C01A80B2D0E600BFE40500216C0600216A
:1098E000940500219004002158030021B8050021AF
:1098F000BC05002170B5164B93F878506A1C012DF9
:1099000083F8782015D1134CE1B9A68D2BF036FFE2
:10991000114D2B68C01A86420ED9A08DA085FFF785
:1099200007FE40F201110D482BF064FCE36801339F
:10993000E3600025284670BD2BF020FF2B68C01A7D
:1099400080B2EBE7A36A0133A36229F007F9F1E7DC
:109950006C0600215C040021E4050021580300216D
:1099600070B504462BF00AFF0B4D286029F0E0F893
:1099700021460A4CFFF7BEFF668E2BF0FFFE2B68D8
:10998000C01A864202D9608E608670BD2BF0F6FE4A
:109990002B68C01A80B2F7E7E40500215C040021BF
:1099A0002DE9F74FDFF87C920E4699F87840804613
:1099B000022CDDF830A09DF83410856A00F0C480D8
:1099C000032C00F03981002C40F09E81964F06B3A5
:1099D000F31E012B40F29A81042E00F0AA8000F2BF
:1099E000B18023460124032E00F0968022461C46B7
:1099F000BB6A0133BB6223461446002B00F0928001
:109A000016F0FB0F01D12BF0FFFB29F0A7F8012482
:109A10008BE0C5E92F3A85F8BA10D5F89C30834918
:109A200085F8B92098470446002862D0D5F89830C8
:109A3000002B5ED00123B7F82EB089F878302BF0D8
:109A40009DFE7B4E3368C01A83454CD9FB8DFB8548
:109A500095F8B030ADF80030D5F898300193FFF7A5
:109A600072FD012168462BF081FBD5F8A03013B1BF
:109A700040466E499847002C4CD1D5F8A830002BB1
:109A800040D0404669499847044600283AD003230D
:109A900089F878302BF0B8FB28462BF0C1FA5444F3
:109AA0006448C9F888402BF027FBBE8D2BF066FE7A
:109AB0005F4C2368C01A86421ED9B88DB885FFF75F
:109AC00037FD40F2011159482BF06EFB4046D5F8A6
:109AD000AC3056499847B0FA80F464093B680133CA
:109AE0003B6014B38FE72BF049FE3368C31A9BB277
:109AF000ADE72BF089FBB8E72BF040FE2368C01AD6
:109B000080B2DBE7D5F8AC3013B1404647499847FF
:109B10000124E3E70024E1E7BA680132BA60002BD0
:109B20007FF473AF002C7FF470AF204603B0BDE824
:109B3000F08F234601247A6801327A60002B7FF48B
:109B400062AFEFE7012253E70324374F89F87840EB
:109B50006EB1F31E012B51D9042E4FF000034FF0CC
:109B600001045BD054D9BA6A0132BA6245E7C5E94B
:109B70002F3A85F8BA10D5F8A4302C4985F8B920C9
:109B80009847D5F8A8308BB34046284998470446F3
:109B900060B328462BF044FA544409F18000C9F818
:109BA00088402BF0A9FABE8D2BF0E8FD204C2368ED
:109BB000C01A864214D9B88DB885FFF7B9FC40F2B7
:109BC00001111A482BF0F0FA4046D5F8AC3017498D
:109BD0009847B0FA80F464093B6901333B6180E740
:109BE0002BF0CCFD2368C01A80B2E5E7D5F8AC3085
:109BF00013B140460D4998470124EDE7D5F8A4304C
:109C000000219847042E4FF001034FF0000405D0C7
:109C1000032EA8D1BA690132BA6180E77A690132AC
:109C20007A618BE76C0600215C0400215803002157
:109C3000E4050021EC060021D5F8A830364FC6B166
:109C4000F21E012A4ED900219847D5F8AC3013B145
:109C5000002140469847042E4FF000034FF00104C6
:109C60004ED080D8032E7FF47EAF7A6A01327A62BA
:109C700055E72A499847044660B328462BF0D0F9A7
:109C8000544409F18000C9F888402BF035FABE8DA4
:109C90002BF074FD224C2368C01A864214D9B88D6B
:109CA000B885FFF745FC40F201111C482BF07CFA07
:109CB0004046D5F8AC3019499847B0FA80F46409A9
:109CC000FB690133FB610CE72BF058FD2368C01AD8
:109CD00080B2E5E7D5F8AC3013B140460F4998475C
:109CE0000124EDE700219847D5F8AC3013B10021ED
:109CF00040469847042E4FF001034FF00004B1D1C5
:109D00003A6A01323A6219E700240EE7042E4FF056
:109D100001037FF468AE0EE75C04002158030021C4
:109D2000E40500212DE9F3410E4617469846044606
:109D30002BF024FD0F4D286028F0FAFE9DF820300E
:109D400021460D4C3246CDE900833B46FFF728FE05
:109D5000268E2BF013FD2B68C01A864204D9208E64
:109D6000208602B0BDE8F0812BF008FD2B68C01AF8
:109D700080B2F5E7E40500215C04002108B500226B
:109D80000620054901F0B8FCBDE808403422002156
:109D900002482FF062BD00BF619500015C04002104
:109DA00030B50446044D0FCD0FC40FCD0FC40FCDF9
:109DB0000FC42B68236030BD5C04002108B500226D
:109DC0000920054901F098FCBDE808402422002143
:109DD00002482FF042BD00BFC59500019405002147
:109DE00030B50446034D0FCD0FC40FCD0FC42B6803
:109DF000236030BD9405002170B50546866A08468B
:109E00002BF00EF90E4CD6F8B43004F18000C4F8F3
:109E10008C30AB68C4F888302BF06EF9002384F8DE
:109E20007830D6F8983043B1FFF78DFBBDE870402D
:109E300040F2011103482BF0B7B9FFF779FBF5E7C2
:109E40006C060021580300212BF0E0B91FB5002358
:109E500001A8CDE9013303932BF056F905B05DF865
:109E600004FB00002DE9F04F85B080460E46934676
:109E7000994628F06DFE074668B93E4CD8F828A0F0
:109E800094F87A3094F87950032B06D118B184F8FD
:109E90007A3084F87950012754E0022D92BF2A4687
:109EA000033DEAB202F125018AF80110F17E551C4A
:109EB00041FA02F20133D2074FF00100DBB2EDB2FA
:109EC000E2D584F87A3084F87950B9F1000F04D1E2
:109ED0001BF0FB0F01D12BF097F950462BF0A0F8A7
:109EE000B9F1000F04D0D8F80830C4F8883009E080
:109EF00073685BB32BF042FC054628F04BFE284408
:109F0000C4F88800002384F87830F3681BB1404619
:109F1000D4F88810984718482BF0EEF8736833B3DC
:109F200001238DF80430002301A8CDE902332BF082
:109F3000EBF8337E0121ADF80430336801A80293B9
:109F40002BF0EAF8384605B0BDE8F08F327E9AF87B
:109F50000E109AF80C0027F0B6FE054628F01AFEFF
:109F6000284427F01FFFD4F888300344BDE7FFF7EB
:109F70006DFFDEE76C060021EC0600210F4B104A56
:109F800010B5816AC3F880200E4A91F8B240C3F838
:109F900084200422C3F88C20002283F8794083F8BF
:109FA000782083F87A2098310123FFF75BFF18B1FE
:109FB000BDE8104028F0C2BD10BD00BF6C060021F6
:109FC00009A10001C99F00012DE9F3479946054603
:109FD0002BF0D4FBDFF82481494CC8F8000028F0AE
:109FE000A7FD484A866A92F878300746591C012B2B
:109FF00082F8781068D106F1980A002D4BD1C6F886
:10A00000B4902A46D6F89C0006F1B80306F1800108
:10A0100001F044FC814668B33846D6F8A830D6F83B
:10A020009C10984730B3B4F81A902BF0A7FBD8F8DF
:10A030000030C01A814516D9608B6083FFF706FF98
:10A0400096F8B1300121ADF80030D6F8A03068465E
:10A0500001932BF08BF8D6F8AC30ABB13846D6F87C
:10A060009C10984710E02BF089FBD8F80030C01AFC
:10A0700080B2E2E7002351461A463846FFF7F2FE67
:10A080000546B9F1000FE6D1636801336360DDB1C5
:10A090002BF0BAF810E000232A465146FFF7E2FE03
:10A0A000042D1ED001D8032D09D0636901336361EB
:10A0B00050B115F0FB0FEBD028F050FD04E0E36841
:10A0C0000133E3600028F7D1A58B2BF057FBD8F8BC
:10A0D0000030C01A85420AD9A08BA08302B0BDE827
:10A0E000F087A3680133A3600028D1D1ECE72BF0FF
:10A0F00045FBD8F80030C01A80B2EEE7E405002135
:10A10000C40500216C0600212DE9FF4107462BF014
:10A1100035FB314E314C306028F00AFD2FB16369B8
:10A120000133636128F01AFD0CE02D4BD0F8288034
:10A1300093F8785008F198016A1C83F878206DB183
:10A14000022D39D0E58B2BF019FB3368C01A8542FC
:10A150003BD9E08BE08304B0BDE8F081D8F89C30B7
:10A1600023B3278B2BF00AFB3368C01A874217D919
:10A17000208B01238DF804300023208301A8CDE932
:10A1800002332AF0C1FF2421D8F89C002BF032F8CA
:10A19000236801332360002DD4D02BF035F8C1E7BC
:10A1A0002BF0ECFA3368C01A80B2E2E72B462A465D
:10A1B000FFF758FE0546EBE73B463A46FFF752FEEF
:10A1C0002369054601332361E5E72BF0D7FA3368AD
:10A1D000C01A80B2BEE700BFE4050021C40500211B
:10A1E0006C06002108B50320054A064901F084FAEF
:10A1F000BDE808402022002103482FF02EBB00BFFD
:10A20000499E00017D9F0001C405002130B5044630
:10A21000034D0FCD0FC495E80F0084E80F0030BD4B
:10A22000C40500211FB501238DF80430002301A8C7
:10A23000CDE902332AF068FF05B05DF804FB1FB5D5
:10A24000002301A8CDE9013303932AF05DFF05B097
:10A250005DF804FBF8B51D4D1D4B866AC5F88030CE
:10A260001C4B0F46C5F884300423C5F88C300023FE
:10A270000446A5F8783028F06BFC014628BBD6F8D8
:10A28000D4300BB12046984738462AF0C9FEA3685F
:10A290001148C5F88830002385F878302AF02CFF63
:10A2A000D6F8A83013B9D6F810315BB1FFF7BAFF72
:10A2B000A36806F19800C6F814310221BDE8F84001
:10A2C0002AF02ABFFFF7BBFFF2E7F8BD6C060021BA
:10A2D000E9A40001DDA20001EC0600212DE9F74F01
:10A2E0008B46019307462BF049FADFF878815E4DE3
:10A2F000C8F8000028F01CFC5C4A846A92F8786078
:10A300008146711C012E019B82F8781040F08480F8
:10A31000012F04F1980A03D00BD9FB1E012B2AD878
:10A3200094F82421002A66D000214846D4F8CC3085
:10A3300010E0C4F8DC3084F80BB19DF8303094F8AC
:10A3400024B184F8D930BBF1000F05D0D4F8CC305B
:10A35000D4F8F81098470EE094F8093104EB830321
:10A36000D3F8F810E1B1D4F8CC309847C0B1404BE5
:10A370001B687BB900260023032F84F8243147D0C3
:10A38000042F56D0002F58D16B6801336B60002E1C
:10A3900042D05AE05A465146484698470646EAE7B0
:10A3A000D4F8A8100029E6D04846D4F8CC30984715
:10A3B0000028E0D0EE8B2BF0E1F9D8F80030C01A7D
:10A3C000864211D9E88BE883FFF739FF022104F1B7
:10A3D000AC002AF0CBFED4F8D030002BCAD04846CF
:10A3E000D4F8A8109847C5E72BF0C8F9D8F8003082
:10A3F000C01A80B2E7E794F8093104EB8303D3F87D
:10A40000F830002BB7D01B4B1B68002BC3D1B1E732
:10A41000EB680133EB60D6B92C8C2BF0AFF9D8F890
:10A420000030C01A844215D9288C288403B0BDE8B6
:10A43000F08FAB680133AB60A9E7AB690133AB6167
:10A44000002EE9D017F0FB0F01D12AF0DDFE28F035
:10A4500085FBE1E72BF092F9D8F80030C01A80B202
:10A46000E3E700BFE4050021E80500216C060021B8
:10A47000100600210C060021F8B5CB6B06460C46F1
:10A480000BB90120F8BD0121984705460028F8D0F6
:10A49000B06A2AF0C5FD1148114ED0F888308030DE
:10A4A0002B44104D83602AF027FEAF8B2BF066F90A
:10A4B0003368C01A87420AD9A88BA883FFF7BFFE6A
:10A4C00004F1240002212AF027FE0020DAE72BF015
:10A4D00055F93368C01A80B2EFE700BF6C0600215F
:10A4E000E4050021E80500212DE9F04704462BF0A2
:10A4F00045F9424F424D386028F01AFB82462CB194
:10A50000AB690133AB6128F029FB20E0DFF8F48070
:10A51000866A98F8784006F19809022C44D0032CFA
:10A520005AD0A4B9D6F8A8301BBB96F8093106EB6F
:10A530008306D6F8F830ABB1334B1B6813B14946EC
:10A54000984704462B6801332B60002C52D16C8C49
:10A550002BF014F93B68C01A844245D9688C688492
:10A56000BDE8F0870323494688F87830FFF784FF79
:10A57000E7E7012388F87830B5F81C802BF0FEF867
:10A580003B68C01A804509D9A88BA883FFF74AFE0B
:10A590002421D6F8A8002AF02DFED3E72BF0EEF800
:10A5A0003B68C01A80B2F0E7032388F878300E22A7
:10A5B00096F8D910707BD6F8DC4027F084FB9634EF
:10A5C000044449465046C8F88840FFF755FF2B69B8
:10A5D000044601332B61B8E74946FFF74DFF6B692D
:10A5E000044601336B61B0E72BF0C8F83B68C01A32
:10A5F00080B2B4E72AF008FE85E700BFE405002139
:10A60000E80500216C06002114060021F8B51A4C5B
:10A610001A4B866AC4F88030194B0F46C4F8843050
:10A620000423C4F88C3000230546A4F8783028F0C1
:10A630008FFA0146F8B9D6F8D4300BB128469847BE
:10A6400038462AF0EDFCAB680E48C4F88830002389
:10A6500084F878302AF050FDD6F8A83043B1FFF7DF
:10A66000E1FD06F198000221BDE8F8402AF054BD52
:10A67000FFF7E5FDF5E7F8BD6C060021E9A4000150
:10A68000DDA20001EC06002108B5002207200749E1
:10A6900001F032F800220820054901F02DF8BDE84C
:10A6A00008402422002103482FF0D7B80DA600014E
:10A6B00055A20001E805002130B50446034D0FCD39
:10A6C0000FC40FCD0FC42B68236030BDE8050021F7
:10A6D0002AF09CBD2DE9F0410F46984605462BF027
:10A6E0004DF8224C224E94F878303060013384F8D3
:10A6F000783028F01DFA0023826AD4F89410C2F84A
:10A70000A48082F8A870C4F89430D2F8A0302A4609
:10A71000984728F01DFA18B12AF076FD28F01EFAA5
:10A72000032D144C10D0042D12D0ADB92368013381
:10A730002360258B2BF022F83368C01A85420FD98D
:10A74000208B2083BDE8F081A3680133A360F0E78C
:10A75000636801336360ECE7236901332361E8E751
:10A760002BF00CF83368C01A80B2EAE76C060021BF
:10A77000E40500211806002170B50446866A0846E3
:10A780002AF04EFC104D114B05F18000C5F88430C5
:10A79000A368C5F88830D6F89830C5F88C302AF010
:10A7A000ABFC0023204685F87830D6F89C309847DB
:10A7B00028F0CEF930B128F0BBF918B1BDE87040EF
:10A7C00028F0CCB970BD00BF6C060021D5A60001F1
:10A7D00008B50C20054A064900F08EFFBDE8084088
:10A7E0001C22002103482FF038B800BFD1A6000179
:10A7F00079A70001180600212DE9FF411A4E0D46E8
:10A80000A6F890100221C6F89400044601A8CDE9EC
:10A8100002239DF828708DF804102AF075FC96F834
:10A82000783003B137B12946204604B0BDE8F04185
:10A830002AF0BABC0D4E0E4FB6F814802AF09EFFD7
:10A840003B68C01A804508D9B38A29462046B3829E
:10A8500004B0BDE8F0412AF0CDBC2AF08FFF3B6880
:10A86000C31A9BB2F1E700BF6C0600211806002155
:10A87000E405002170B50C460546074E2AF0C4FCDD
:10A880002046C6F888502AF0CBFB06F18000BDE8D0
:10A8900070402AF031BC00BF6C0600212AF0B6BC23
:10A8A00070B504462AF06AFF144A154D92F87830C4
:10A8B0002860013382F8783028F03AF9836A21461B
:10A8C000104CD3F89C309847E3680133E36028F0DC
:10A8D0003FF918B12AF098FC28F040F9668B2AF06D
:10A8E0004DFF2B68C01A864202D9608B608370BD11
:10A8F0002AF044FF2B68C01A80B2F7E76C060021EB
:10A90000E40500211806002170B50446866A084651
:10A910002AF086FB0E4D0F4B05F18000C5F8803004
:10A92000A368C5F888302AF0E7FB0023204685F8A5
:10A930007830D6F89830984728F00AF930B128F0E6
:10A94000F7F818B1BDE8704028F008B970BD00BF35
:10A950006C060021A1A8000108B50D20054A064992
:10A9600000F0CAFEBDE808401C22002103482EF07A
:10A9700074BF00BF9DA8000109A9000118060021AD
:10A980002DE9FF4104460D4693B1022102928DF854
:10A99000041001A803932AF0B7FB134B93F8783007
:10A9A0004BB92946204604B0BDE8F0412AF0B4BBBB
:10A9B000CDE90133EDE70D4E0D4FB6F816802AF0C4
:10A9C000DDFE3B68C01A804508D9F38A2946204637
:10A9D000F38204B0BDE8F0412AF0C8BB2AF0CEFEF5
:10A9E0003B68C31A9BB2F1E76C06002118060021F0
:10A9F000E405002130B50446034D0FCD0FC495E8A2
:10AA0000070084E8070030BD180600211FB50123A8
:10AA10008DF80430002301A8CDE902332AF074FB3D
:10AA200005B05DF804FB00002DE9F04104460D4639
:10AA300028F07EF8836A1B780A2B0BD1124B93F80F
:10AA400078303BB9FFF7E2FF29462046BDE8F041E8
:10AA50002AF062BB0D4E0E4FB6F816802AF08EFE1D
:10AA60003B68C01A804509D9F38AF382FFF7CEFF0D
:10AA700029462046BDE8F0412AF078BB2AF07EFE48
:10AA80003B68C31A9BB2F0E76C0600213406002134
:10AA9000E405002170B50C4E04460D46C6F894003E
:10AAA000A6F8901028F044F8836A1B780B2B0AD183
:10AAB00096F878303BB9FFF7A9FF29462046BDE854
:10AAC00070402AF071BB70BD6C06002130B50446A1
:10AAD000034D0FCD0FC495E8070084E8070030BD93
:10AAE0003406002170B50D4604462AF08FFB094B51
:10AAF000D3F8941039B100222046C3F894200222E2
:10AB0000D5F8B43098472046D5F8AC30BDE8704051
:10AB1000184700BF6C0600212DE9F04105460C46A0
:10AB2000876A28F015F80646E0B920462AF078FA38
:10AB30000D4C0E4B04F18000C4F880300C4BC4F86F
:10AB40008430AB68C4F888300423C4F88C302AF011
:10AB5000D3FAD7F8A03084F878601BB12846BDE856
:10AB6000F0411847BDE8F0816C06002175AB00018B
:10AB700049AC00012DE9F04385B005462AF0FEFD01
:10AB80002E4F2F4E386027F0D3FFD0F8289029465B
:10AB9000D9F8B03080469847D6F89410294C00294F
:10ABA0003AD055BBA58A2AF0E9FD3B68C01A854218
:10ABB0001DD9A08A0023A08201A8CDE90133039307
:10ABC0002AF0A2FAB6F89010D6F894002AF012FBF8
:10ABD000E3680133E360658B2AF0D0FD3B68C01A5F
:10ABE000854213D9608B608305B0BDE8F0832AF0FD
:10ABF000C5FD3B68C01A80B2DCE700230222C6F81C
:10AC000094304046D9F8B430984708E02AF0B6FDB1
:10AC10003B68C01A80B2E6E70DB92AF0F5FA96F85B
:10AC2000783023B927F09AFF012386F87830002D79
:10AC3000CED0236901332361CDE700BFE4050021B5
:10AC40006C060021340600212DE9F3470F46054626
:10AC50002AF094FDDFF81481C8F8000027F068FF9F
:10AC60000023866A9DF8282086F8B870404F8DF83A
:10AC70000730D7F8941086F8B920C7F894302A46E0
:10AC8000D6F8B4300446984727F062FF8146002882
:10AC900037D04FF0010927F05BFF40EA0900C0B24E
:10ACA00080B1062D06D80123AB4013F0510F01D01F
:10ACB0002AF0AAFA97F8783023B927F04FFF01233A
:10ACC00087F878309DF8073023B929462046D6F812
:10ACD000A8309847032D274C35D0042D37D0002DB0
:10ACE00039D1236801332360258B2AF047FDD8F83A
:10ACF0000030C01A854232D9208B208302B0BDE8D3
:10AD0000F0872046D6F898300DF107019847824623
:10AD10000028BED02AF078FAD6F89C300DF1070151
:10AD200020469847A06A2AF07BF9D7F8880050445B
:10AD3000C7F8880007F180002AF0DEF92046D6F82F
:10AD4000A4309847A7E7A3680133A360CCE7636802
:10AD500001336360C8E7236901332361C4E72AF044
:10AD60000DFDD8F80030C01A80B2C6E7E405002116
:10AD70006C0600213406002108B50A20054A064960
:10AD800000F0BAFCBDE808401C22002103482EF068
:10AD900064BD00BFE5AA000119AB00013406002123
:10ADA00070B50D4604462AF031FA094BD3F89410D9
:10ADB00039B100222046C3F894200222D5F8B430DD
:10ADC00098472046D5F8AC30BDE87040184700BF22
:10ADD0006C06002101232DE9F041876A054687F8BA
:10ADE000B83083680846C7F8C0300F4C0E462AF0CA
:10ADF00017F90E4B04F18000C4F880300C4BC4F8F6
:10AE00008430D7F8C030C4F88830D7F8C830C4F8D8
:10AE10008C302AF071F90023284684F87830D6F86F
:10AE2000A030BDE8F04118476C060021B5AF000125
:10AE300095AE00012DE9F04106460C46904627F0FC
:10AE400087FE074618B101273846BDE8F081414624
:10AE500030462368984705460028F4D02AF0D4F9F4
:10AE60004146636830469847B06A2AF0D9F8A36A29
:10AE700007482B44A362B360C0F88830236B80304E
:10AE8000C3602AF039F93046E3689847DCE700BF31
:10AE90006C0600212DE9F04385B00F469846044624
:10AEA0002AF06CFC404E306027F042FE856A9DF827
:10AEB000303085F8C47014F0FB07814685F8C53042
:10AEC00007D1C5F8C08001A8CDE9017703972AF022
:10AED0001BF995F8B830012B06D12FB9D5F8C03041
:10AEE00085F8B870C5F8BC304FF000082F4FD5F882
:10AEF000B430D7F8941022464846C7F89480984753
:10AF000004F0FD03012B8DF804800ED1484601AA00
:10AF100005F19801FFF78EFF9DF80430804623B9B4
:10AF200021464846D5F8A830984727F011FE40EA58
:10AF30000800C0B280B1062C06D80123A34013F04C
:10AF4000510F01D02AF060F997F8783023B927F033
:10AF500005FE012387F87830032C154D11D0042C01
:10AF600013D0B4B92B6801332B602C8B2AF006FC6C
:10AF70003368C01A844210D9288B288305B0BDE8F5
:10AF8000F083AB680133AB60EFE76B6801336B6054
:10AF9000EBE72B6901332B61E7E72AF0EFFB33681E
:10AFA000C01A80B2E9E700BFE40500216C06002169
:10AFB000340600212DE9F74305462AF0DFFB374F21
:10AFC0004FF00009386027F0B3FD0446866A294631
:10AFD000D6F8B030984720460DF1070206F19801E7
:10AFE0008DF80790FFF726FF804655BB27F0B0FD90
:10AFF00040EA0800C0B258B12AF006F9284B93F88D
:10B0000078302BB927F0AAFD0122254B83F8782050
:10B010009DF8073023B929462046D6F8A83098472E
:10B02000204C8DBBE3680133E360658B2AF0A6FBFF
:10B030003B68C01A85422BD9608B608303B0BDE8A2
:10B04000F083012D12D10028E2D0DFF85480D8F827
:10B05000941031B102222046D6F8B430C8F894904A
:10B0600098472AF0D1F898F87830CAE7DFF83080AE
:10B07000D8F894100029F6D002222046D6F8B43031
:10B08000C8F894909847EEE7236901332361CCE731
:10B090002AF074FB3B68C01A80B2CEE7E4050021B9
:10B0A0006C0600213406002108B50B20054A06492C
:10B0B00000F022FBBDE808401C22002103482EF0CE
:10B0C000CCBB00BFA1AD0001D5AD0001340600210D
:10B0D0001FB501238DF80430002301A8CDE9023308
:10B0E0002AF012F805B05DF804FB00002DE9F041EC
:10B0F00004460D4627F01CFD836A1B78042B0BD1F8
:10B10000124B93F878303BB9FFF7E2FF294620460F
:10B11000BDE8F0412AF000B80D4E0E4FB6F816808B
:10B120002AF02CFB3B68C01A804509D9F38AF382C8
:10B13000FFF7CEFF29462046BDE8F0412AF016B8B9
:10B140002AF01CFB3B68C31A9BB2F0E76C06002197
:10B1500050060021E405002170B50C4E04460D4652
:10B16000C6F89400A6F8901027F0E2FC836A1B78DA
:10B17000052B0AD196F878303BB9FFF7A9FF29468D
:10B180002046BDE870402AF00FB870BD6C06002163
:10B1900030B50446034D0FCD0FC495E8070084E891
:10B1A000070030BD5006002170B50D4604462AF058
:10B1B0002DF8094BD3F8941039B100222046C3F87A
:10B1C00094200222D5F8A43098472046D5F89C3028
:10B1D000BDE87040184700BF6C06002170B50546F9
:10B1E00008460E4C0E4629F01BFF0D4B04F1800063
:10B1F000C4F880300B4BC4F88430AB68C4F8883096
:10B200000423C4F88C3029F077FF0023284684F803
:10B210007830D6F89830BDE8704018476C060021A9
:10B22000DDB2000129B2000170B50C4605462AF0D6
:10B23000A5FA274E306027F07BFC9DF81030826A1B
:10B2400082F8A930234B82F8A84093F8781011B9FE
:10B25000012183F878100024D3F89410C3F89440A7
:10B26000D2F8A4302A46984727F072FC50B1062D38
:10B2700006D80123AB4013F0510F01D029F0C4FFD1
:10B2800027F06CFC032D144C0FD0042D11D0A5B960
:10B29000236801332360258B2AF070FA3368C01AC3
:10B2A00085420ED9208B208370BDA3680133A36033
:10B2B000F1E7636801336360EDE7236901332361DC
:10B2C000E9E72AF05BFA3368C01A80B2EBE700BF07
:10B2D000E40500216C060021500600212DE9F04311
:10B2E00085B005462AF04AFA2C4EDFF8B48030606B
:10B2F00027F01EFCD0F828902946D9F8A030074640
:10B300009847D8F89410274C00293CD065BBA58AF3
:10B310002AF034FA3368C01A85421FD9A08A012363
:10B320008DF804300023A08201A8CDE9023329F072
:10B33000EBFEB8F89010D8F8940029F05BFFE368B2
:10B340000133E360658B2AF019FA3368C01A85422D
:10B3500013D9608B608305B0BDE8F0832AF00EFA44
:10B360003368C01A80B2DAE700230222C8F89430AA
:10B370003846D9F8A430984708E02AF0FFF9336836
:10B38000C01A80B2E6E70DB929F03EFF27F0E6FBD0
:10B39000002DD4D0236901332361D3E7E4050021D4
:10B3A0006C0600215006002108B50420054A064914
:10B3B00000F0A2F9BDE808401C22002103482EF04D
:10B3C0004CBA00BFA9B10001DDB100015006002157
:10B3D00070B50D46044629F019FF094BD3F89410B7
:10B3E00039B100222046C3F894200222D5F8A830B3
:10B3F00098472046D5F8A030BDE87040184700BFF8
:10B400006C0600212DE9F0410546876A08460F4C7D
:10B410000E4629F005FE0E4B04F18000C4F8803082
:10B420000C4BC4F88430AB68C4F88830D7F8983037
:10B43000C4F88C3029F060FE0023284684F8783068
:10B44000D6F89C30BDE8F041184700BF6C060021DB
:10B4500011B5000159B40001F8B50C461F46054668
:10B460002AF08CF9274E306027F062FB826A9DF843
:10B47000183082F8B040244C82F8B13094F878301B
:10B4800023B90123C2F8AC7084F878300023D4F8D3
:10B490009410C4F89430D2F8A8302A46984727F080
:10B4A00057FB50B1062D06D80123AB4013F0510FC6
:10B4B00001D029F0A9FE27F051FB032D134C0FD02A
:10B4C000042D11D0A5B9236801332360258B2AF000
:10B4D00055F93368C01A85420ED9208B2083F8BDF8
:10B4E000A3680133A360F1E7636801336360EDE7AC
:10B4F000236901332361E9E72AF040F93368C01A70
:10B5000080B2EBE7E40500216C0600215006002123
:10B510002DE9F04385B080462AF030F92D4D2E4EAE
:10B52000286027F005FBD0F828904146D9F8A430D0
:10B5300007462A4C9847B8F1000F29D1D6F8943025
:10B540000BB3A78A2AF01AF92B68C01A874214D9BC
:10B55000A08A01238DF804300023A08201A8CDE940
:10B56000023329F0D1FDB6F89010D6F8940029F0F6
:10B5700041FEE3680133E3601AE02AF0FFF82B682C
:10B58000C01A80B2E5E729F03FFE27F0E7FAF0E7BE
:10B59000D6F8941039B100230222C6F89430384608
:10B5A000D9F8A830984727F0D9FA236901332361E5
:10B5B000668B2AF0E3F82B68C01A864204D9608BA8
:10B5C000608305B0BDE8F0832AF0D8F82B68C01A74
:10B5D00080B2F5E7E40500216C0600215006002149
:10B5E00008B50520054A064900F086F8BDE8084080
:10B5F0001C22002103482EF030B900BFD1B3000156
:10B6000005B4000150060021816A034B0A7853F803
:10B61000323003B1184770476C060021816A044B31
:10B620000A7803EBC2035B6803B11847704700BF99
:10B630006C06002129F0F4BD29F0F0BC08B529F012
:10B64000EDFCBDE80840002029F0E4BD08B529F074
:10B65000D7FC002029F0DCFDBDE80840012029F0DE
:10B66000D9BD08B529F0CCFCBDE80840002029F080
:10B67000CFBD08B529F0C4FCBDE80840012029F081
:10B68000C7BD000073B5134C134D144E29F0B6FC22
:10B69000224629460120124B009627F08BFA2246BB
:10B6A000294602200F4B009627F084FA0E4B2246C3
:10B6B000009300210D4B032027F07CFA01200C4958
:10B6C00027F086FA982200210A4802B0BDE87040AF
:10B6D0002EF0C3B81DB6000109B6000139B600014D
:10B6E00073B6000163B600013DB600014DB600011E
:10B6F00035B600016C060021034B43F8301003EB14
:10B70000C0035A60704700BF6C0600212DE9FF415D
:10B71000D3E90086044617461D461078002C3ED01B
:10B7200010B34FEA162C0CF0C00CBCF1400F1BD12B
:10B73000404669B1314600F0C3FD38B12B463A4668
:10B740004046314600F018FD002846D0012008E0B0
:10B75000314600F087FC0028F8D1214AD38B013311
:10B76000D38304B0BDE8F0814246334600F0BEFD0D
:10B770000238C0B20128E9D80DF10F0300933878E0
:10B78000D5E9002300F020FC10B19DF80F3023B95B
:10B790000224134A138B013313832046E1E720B1BF
:10B7A000330A03F0C003402BD0D04246334600F0AA
:10B7B0009DFD02380128C9D80DF10F030093387898
:10B7C000D5E9002300F000FC18B19DF80F30002BE4
:10B7D000BCD1034A138B013313830220C1E700BF9E
:10B7E000040700212DE9F041884617461E4604460D
:10B7F00058B152EA06030E4D0AD100F0E1FF0128CC
:10B8000006D10446EB880133EB802046BDE8F08189
:10B810003A463346404600F051FF20B9AB88022437
:10B820000133AB80F1E7EB880133EB80EDE700BF3C
:10B830000407002137B5DDE9065410B9002003B034
:10B8400030BDCAB1230A03F0C003402B14D129B183
:10B85000284621460AAB08AA00F0F2FCDDE90A23DB
:10B860002846CDE9002321469DF8202000F038FC31
:10B87000003818BF0120E2E79DF82000DDE90A2327
:10B8800000F045FD0238C0B20128D7D8024A022094
:10B89000538B01335383D2E7040700212DE9F04F86
:10B8A00090F800800D8808F00F0845FA08F515F0AB
:10B8B000010581460F4692461C466E4E87B006D162
:10B8C000338801333380284607B0BDE8F08F4FF44A
:10B8D000C07B72884BFA08FB01321BF0010B4378E6
:10B8E000728001D00125EEE703F03F03637484F812
:10B8F000108010F8025B27F0F9FDC5F38015E574A0
:10B90000A574C4E90201C4E900017868514604F154
:10B91000080304F11302C0F38010FFF7F7FE0128BB
:10B92000054602D0022839D05D46D4E90223D7F873
:10B9300004C094F813E01CF0040B0ED0D7E90410F7
:10B94000834208BF8A4203D1CCF3C00CE64527D01E
:10B950004FF0020B3089013030817888714640FA0F
:10B9600008F000F00100FFF73DFF584523D2D7F85B
:10B9700004C01CF0040F1CD0D7E90413A068E268CF
:10B980009A4208BF884204D1E37CCCF3C00C6345E3
:10B990000CD0338901333381012D1AD1002592E770
:10B9A00070894FF0010B01307081D6E77389013344
:10B9B000738101250DE07888E17C40FA08F000F001
:10B9C0000100D4E90223FFF70DFF0128F1D9022875
:10B9D000E2D04FF0010BB8F1050F257584F815B0D2
:10B9E00080D80BFA08F818F02A0F3FF47BAF4846CE
:10B9F00010F8085B27F07AFDD4E902238146CDE9EF
:10BA000004237868E37CED09CDE9009188462A4655
:10BA100051460293C0F30010FFF70CFF01283FF4DA
:10BA200061AF0228BAD07B68DA077FF55BAFD7E950
:10BA30000212424508BF494503D1C3F34002AA425E
:10BA400013D0B2890132B281002DA7D04FEA182855
:10BA500008F0C008B8F14008A0D19B069ED5338CF1
:10BA60000133338484F815802DE7F3890133F381A2
:10BA700038E700BF040700212DE9F04F07461C46B8
:10BA800008883B7C0E46184110F001009046624D3C
:10BA900087B005D12B8801332B8007B0BDE8F08F2C
:10BAA0006B8801336B80D7E90023C4E90223C4E922
:10BAB0000023BB7C04F11302E374A374486804F10F
:10BAC00008034146C0F38010FFF720FE012881469D
:10BAD00003D002283DD04FF00009D4E90223D6F864
:10BAE00004C094F813E01CF0040A0ED0D6E9041048
:10BAF000834208BF8A4203D1CCF3C00086452AD0D6
:10BB00004FF0020A288901302881708897F810C008
:10BB1000714640FA0CF000F00100FFF763FE50455B
:10BB200025D2D6F804C01CF0040F1DD0D6E90413AA
:10BB3000A068E2689A4208BF884204D1E37CCCF353
:10BB4000C00C63450DD02B8901332B81B9F1010F56
:10BB50001BD10020A1E768894FF0010A01306881FC
:10BB6000D3E76B8901336B814FF001090DE03B7C1A
:10BB70007088E17C184100F00100D4E90223FFF74E
:10BB800031FE0128F0D90228E0D04FF0010A84F8F4
:10BB9000149084F815A07B7C990701D401207CE7E0
:10BBA00097F81390D4E90223D7E902B77068CDE97A
:10BBB0000423E37C4A464146CDE900B70293C0F333
:10BBC0000010FFF737FE01283FF467AF0228C0D00E
:10BBD0007368DA07E2D5D6E90212BA4208BF5945BE
:10BBE00003D1C3F340024A4511D0AA890132AA8188
:10BBF000B9F1000FADD03F0A07F0C007403FA8D110
:10BC00009B06A6D52B8C01332B846775C6E7EB8981
:10BC10000133EB81C2E700BF04070021054B03F1AC
:10BC2000240253F8041B934240F8041BF9D11B88EB
:10BC300003807047040700212DE9F04100240C4BDC
:10BC4000DFF83080054608460E4617461C7088F817
:10BC5000004027F0A7FD084B186000EB0513991B67
:10BC6000B9428EBF204688F8005088B2BDE8F08106
:10BC70002A0700212B0700212C070021F0B5002402
:10BC80000D499DF814C00D780C490968A54201D8EA
:10BC90000020F0BD0E7A864208D1D1E900769E429E
:10BCA00008BF974202D14E7A664502D00134103166
:10BCB000ECE70120EDE700BF2A0700212C07002157
:10BCC000014B1878704700BF2B0700210022014B61
:10BCD0001A7070472A07002130B50B490B4D0978BF
:10BCE0002C78A1420DD90A49096801EB04110872A8
:10BCF0000120C1E900239DF80C3001344B722C70F7
:10BD000030BD0020FCE700BF2B0700212A070021DF
:10BD10002C0700212DE9F0411B4C844627680025A3
:10BD20003C46DFF868E09DF818809EF80010EEB2FF
:10BD3000B14201D8002021E0267A664520D1D4E91D
:10BD400000069E4208BF90421AD1667A464517D136
:10BD5000012901F1FF300ED985420CD001F180514B
:10BD6000013907EB01110B7A2372D1E90023C4E9F1
:10BD700000234B7A63728EF800000120BDE8F08149
:10BD800001351034D3E700BF2C0700212A0700211A
:10BD9000F0B50C4943EA00430D780B490C680021CB
:10BDA000C8B2854201D800200AE02046D0E90876D2
:10BDB0009E4208BF974201F1010104F14804EFD10E
:10BDC000F0BD00BF340700215C07002130B585B00D
:10BDD0000C4605461022002168462DF03EFD6A46BD
:10BDE000230A28468DF800401146240C8DF80130B6
:10BDF0008DF8024029F026FB9DF802309DF80100E5
:10BE00001B0443EA00239DF80000184305B030BD31
:10BE100013B5042104460DEB010029F0CFFB019975
:10BE20002046C1F3150141F480010191FFF7CEFFD7
:10BE3000019940EA0160090A02B010BD2DE9F04104
:10BE400000240D4BDFF83480054608460E461746A1
:10BE50001C7088F8004027F0A5FC4821084B1860AA
:10BE600001FB0503991BB9428EBF204688F800509C
:10BE700088B2BDE8F08100BF3407002135070021FA
:10BE80005C070021014B1860704700BF300700219C
:10BE9000014B1878704700BF350700210022014B85
:10BEA0001A70704734070021F8B507461D46FFF7A2
:10BEB0006FFF1646044680B92E4A2F491378097839
:10BEC000994201D80020F8BD48202C490C6800FB9D
:10BED000034401331370002CF4D0224645EA074591
:10BEE000069BC4E9086503F1100153F8040B8B426B
:10BEF00042F8040BF9D1012304F10F0284F8403019
:10BF0000631E13F8011F71B3002384F8403004F15D
:10BF100010000246079B03F1100153F8045B8B42AB
:10BF200042F8045BF9D1012384F84130034604F15F
:10BF3000200213F8011BC9B1002384F8413000230B
:10BF40000022C4E90A23C4E90C23C4E90E23002318
:10BF5000A4F8423094F841301BB9FFF759FFC4E907
:10BF60000C010120AFE79A42CBD1D0E79A42E0D151
:10BF7000E5E700BF34070021350700215C070021F9
:10BF800038B5FFF705FF78B1084D2C78012C08D99A
:10BF9000482202FB04F30649483B096819442DF086
:10BFA00035FC0120013C2C7038BD00BF3407002156
:10BFB0005C07002108B5FFF7EBFE20B19DF80830C3
:10BFC00080F84330012008BD08B5FFF7E1FE20B13D
:10BFD00090F843200120029B1A7008BD10B5029C06
:10BFE000FFF7D6FE40B1D0E90A2352EA030116BF9B
:10BFF00001200020C4E9002310BD10B5029CFFF70A
:10C00000C7FE40B1D0E90C2352EA030116BF01205C
:10C010000020C4E9002310BD08B5FFF7B9FE28B120
:10C02000029BD3E90023C0E90C23012008BD10B511
:10C03000FFF7AEFE044698B190F8403083B990F80F
:10C04000423033B9FFF7E4FE0123C4E90A0184F862
:10C050004230029BD4E90A01C3E90001012010BD6E
:10C060000020FCE7F7B50026194C94F800C0194CE5
:10C0700025683446F7B2BC4510D80CB3164C24687A
:10C08000F4B1164E758C01357584D3E90067CDE99E
:10C09000006713780122A047002411E095F8407052
:10C0A00097B9D5E90A748C4208BF87420BD10124A5
:10C0B000E98C01F001011170296AAA8CC3E9001210
:10C0C000204603B0F0BD012401364835D2E700BF59
:10C0D000340700215C0700213007002104070021FC
:10C0E0002DE9F347DDE90A679146804632463B4633
:10C0F00048460D46FFF74CFEE8B190F84140D4B9F0
:10C10000D0E90E23AB4208BF424516D00C4BD3F802
:10C1100000A0BAF1000F0AD00A4A4046938C294683
:10C12000013393844B462246CDE90067D047204631
:10C1300002B0BDE8F0870024F9E70124F7E700BF6B
:10C14000300700210407002138B505461046DDE917
:10C1500004230C46FFF71CFE50B190F8413043B960
:10C16000D0E90E23A34208BFAA420CBF0120002041
:10C1700038BD0020FCE700002DE9F74F0E460546CC
:10C180001F464FF000084FF0480B010E41EA062110
:10C19000DFF898A0009221F07F41254B5FFA88F4E8
:10C1A0001B78A34211D8234A2349138A01331382EF
:10C1B000224A137801EBC30041F83350013303F0F6
:10C1C000030346601370002029E0DAF800300BFB0F
:10C1D000043494F84090B9F1000F23D1D4E90A2334
:10C1E000B34208BFAA4210D020460191FFF7EEFDEE
:10C1F00025F07F438342019914D10E4AC4E90A56BF
:10C20000538A84F84290013353820120E38C009AD0
:10C2100003F001031370226AA38CC7E9002303B063
:10C22000BDE8F08F08F10108B7E700BF5C07002107
:10C230003407002104070021380700215807002196
:10C2400070B50E461146D3E9002305460878FFF77E
:10C250009FFD0446E0B190F84130CBB9D0E90E2300
:10C26000B34208BFAA4211D0290E41EA062121F0AB
:10C270007F411030FFF7AAFD25F07F43834207D1AD
:10C280000C4AC4E90E56D38A0133D382012010E050
:10C29000084A0949938A01339382084A137801EBCB
:10C2A000C30041F8335046600020013303F003031C
:10C2B000137070BD040700213807002158070021C2
:10C2C000042330B5084AD2E900548C4208BF8542A5
:10C2D00002F1080205D0013B13F0FF03F3D1012066
:10C2E00030BD0020FCE700BF3807002108B5FFF78C
:10C2F0004FFD48B1D0E90A23134306D190F84030EE
:10C30000002B14BF0120022008BD0320FCE708B564
:10C31000FFF73EFD48B1D0E90C23134306D190F856
:10C320004130002B14BF0120022008BD0320FCE790
:10C330002DE9F04100254FF04808124E124F337896
:10C34000ECB2A34201D8BDE8F0813B6808FB04349D
:10C3500094F841302BB904F11000FFF759FDC4E9FE
:10C360000C0194F840303BB994F8423023B1204698
:10C37000FFF74EFDC4E90A01012384F844301D444F
:10C38000DDE700BF340700215C0700212DE9F047FD
:10C39000174600254FF0480ADFF85C80DFF85C9014
:10C3A00043EA004698F80030ECB2A34201D8BDE859
:10C3B000F087D9F800300AFB0434D4E90823B342EB
:10C3C00008BFBA4216D194F841302BB904F11000DD
:10C3D000FFF71EFDC4E90C0194F840303BB994F816
:10C3E000423023B12046FFF713FDC4E90A010123BF
:10C3F00084F844300135D5E7340700215C0700217B
:10C4000008B5FFF7C5FC034620B1002290F84400B0
:10C4100083F8442008BD08B5FFF7BAFC003818BF00
:10C42000012008BD1FB5002301A8CDE90133039306
:10C4300028F06AFE05B05DF804FB000030B5144B2F
:10C44000144D85B0C5F88030134B0C46C5F88430C8
:10C4500083680846C5F88830D1F89830C5F88C3024
:10C4600028F0DEFD05F1800028F046FE03238DF85C
:10C470000430002301A8CDE9023328F045FEB4F8CA
:10C48000A410D4F8A00028F08FFE05B030BD00BF86
:10C490003DC500016C0600219DC40001F0B585B0CA
:10C4A0000F46044626F044FB856A064685F8A670CA
:10C4B000F4B9204B1B682BB195F82C2012B105F173
:10C4C0002C00984721463046D5F89C309847B0B1AB
:10C4D00003238DF80430002301A8CDE9023328F0AE
:10C4E00013FEB5F8A410D5F8A00028F083FE0AE0EA
:10C4F00014F0FB0FD5F89C30E4D02146984728F083
:10C5000083FE26F02BFB032C0B4B07D0042C09D009
:10C5100064B91A6801321A6005B0F0BD9A68013238
:10C520009A60F9E75A6801325A60F5E71A690132F0
:10C530001A61F1E7AC0D002160070021F7B505464F
:10C5400026F0F6FA1C4E0746846A25BB28F05CFEEE
:10C5500029463846D4F89830984700B3174DB4F8B8
:10C56000A220D5F8883020461344C5F8883028F03A
:10C5700057FD05F1800028F0BFFDFFF753FFB4F829
:10C58000A0300121ADF80030D4F89C30684601930A
:10C5900028F0C2FD06E02946D4F89830984726F0E6
:10C5A000DDFA25B9F3680133F36003B0F0BD3369F8
:10C5B00001333361F9E700BF600700216C060021F9
:10C5C00037B50C460F4D104BC5F880300F4BC5F8F2
:10C5D000843083680846C5F8883028F021FD05F1CD
:10C5E000800028F089FDFFF71DFFB4F8A03001217D
:10C5F000ADF80030D4F89C306846019328F08CFDEB
:10C6000003B030BD6C0600213DC500019DC4000192
:10C6100008B528F0FBFDBDE8084026F09FBA0000F1
:10C6200010B5094C002022460849FFF765F822465C
:10C6300001200749FFF760F8BDE810401C220021E7
:10C6400004482DF00AB900BF11C60001C1C50001A0
:10C650003DC400016007002130B50446034D0FCDF5
:10C660000FC495E8070084E8070030BD600700218B
:10C670002DE9F04100240D4BDFF834801C700D4B88
:10C68000054608460E4617461C7088F8004027F0FD
:10C6900089F8094B186000EBC503991BB9428EBF9E
:10C6A000204688F8005088B2BDE8F0817D0700215F
:10C6B0007E0700217C0700218007002130B50B494F
:10C6C00043EA00430A480968047801EBC404A14224
:10C6D00001D1002030BDD1E90050984208BF9542F9
:10C6E00001F10801F3D10120F4E700BF8007002128
:10C6F0007D070021014B1878704700BF7E0700219D
:10C700000023024A1370024A137070477D0700210C
:10C710007C07002170B5064615461C46FFF7CEFF84
:10C7200080B9094B094A197812788A420BD9084A0C
:10C7300044EA0644126802EBC10042F8315001316C
:10C7400044601970012070BD7D0700217E07002123
:10C750008007002143EA00431148F0B50468DFF880
:10C7600044C025469CF8001004EBC10E754501D16C
:10C77000002014E02846D0E900769E4208BF974288
:10C7800005F10805F2D1012905D904EBC10454E9EA
:10C790000223C0E90023012001398CF80010F0BD0C
:10C7A000800700217D0700210122014B1A7070478C
:10C7B0007C0700210022014B1A7070477C07002182
:10C7C000014B1878704700BF7C07002137B504463D
:10C7D00025F00EF80022144B9C42144B0CBFDA706B
:10C7E0001A7194F8423003F0FD03012B01D125F0BA
:10C7F0000FF820460CF076FB04F1280528460DF1D1
:10C80000070126F0F5FF40B9303420460DF107014D
:10C8100026F0EEFF20B903B030BD26F0D1FFEDE7E2
:10C8200026F0CEFFF1E700BFB00E0021B84A00218C
:10C8300038B5164C164B174A1D6804F13C0392E8B4
:10C84000030083E8030004F1480029790CF07DFC23
:10C85000012026F0F7F824F0C3FF01230E4DEB7002
:10C8600094F8423003F0FD03012B01D124F0C8FFFE
:10C870000CF05AFB00200123687184F8F831A4F809
:10C88000F631BDE8384024F052BF00BFB00E0021A1
:10C89000AC0E0021904B0021B84A0021054BDB78FB
:10C8A00033B10123044880F899309C3026F0C6BC8F
:10C8B000704700BFB84A0021B00E0021002024F0CC
:10C8C00036BF0C2024F033BF08B5012026F0D0F885
:10C8D000BDE808400148FFF779BF00BFB00E002156
:10C8E00008B5012026F0C4F80348FFF76FFFBDE844
:10C8F0000840002024F01BBFB00E0021FFF7E4BF6A
:10C90000034B1A68034B5068916803C3704700BF1C
:10C91000AC0E0021904B002108B5084B08481B685D
:10C92000197990F888308B4202D048300CF00DFC19
:10C93000BDE80840002024F0FABE00BFAC0E002184
:10C94000B00E002110B50446012026F091F8A37B1B
:10C9500003F0FD03012B01D124F05AFFD4F8D002DB
:10C9600020B126F02DFF0023C4F8D032D4F8D8022D
:10C9700020B126F025FF0023C4F8D832034AD3782B
:10C98000013BD370BDE8104024F032BFB84A00210B
:10C9900038B505460F4C012026F06AF82C1B0E48CE
:10C9A000EB68E41044430BB1A0B298470434E0B202
:10C9B00025F0BAFF95F800330BB124F039FF24F0CD
:10C9C00017FFD5F8EC0208B126F0FAFE00232B7011
:10C9D00038BD00BFE01A002147D9FD4638B50C46E6
:10C9E00005461222002120462CF037FF204695F8FC
:10C9F000683300F8023BD5E9DC2326F07DFD95F88D
:10CA000069330E4A637095F8B0332372D5F88C31D0
:10CA1000A3FB0232DB0F43EA4203638195F89031B6
:10CA2000237395F88832637395F88932A37395F868
:10CA30008A32E37395F88B32237438BDE3361A00DB
:10CA400038B50446012025F0FDFFA37B03F0FD036C
:10CA5000012B01D124F0D4FE002320466370A37083
:10CA6000A4F8083284F83C300CF0AAFE054620B940
:10CA700020460CF0BFFF054640B1284624F0AEFF2B
:10CA80002046BDE8384003210DF094B9074AD37819
:10CA90000133D37024F0A4FE0123284684F86830C3
:10CAA000A4F86630BDE8384024F098BFB84A0021A9
:10CAB000002024F093BF000030B4027C0121022A40
:10CAC00018BF00220C4C8170657895420AD190F80D
:10CAD000082222B900F5037030BC26F0AFBB00F588
:10CAE0005870F9E701FA02F2217821EA0202227075
:10CAF000032130BC0DF05EB9B0100021002024F0FD
:10CB00006DBF000010B5094C6378012B04D9BDE856
:10CB100010400C2024F062BF04F1600027F04BF8B5
:10CB200004F17000BDE8104027F045B8B8100021AE
:10CB3000034B5B7813B10C2024F050BF704700BF4B
:10CB4000B8100021024B587800B10C2024F046BFE9
:10CB5000B810002108B5FFF7F5FE044B5B7823B150
:10CB6000BDE80840002024F039BF08BDB8100021FE
:10CB700038B51E4B01201C6825F064FF23790BB1EA
:10CB800024F04EFE23791A4D2B72D4E90223C5E915
:10CB90000423E379AB72A3796B72637D2B760DF07E
:10CBA000B7FCD8B12862237980F80033A37980F8E4
:10CBB0000133E37980F80233D4E90223C0E9C223C8
:10CBC0000A22238AA0F8F832638A5343C0F8FC3261
:10CBD0000B23437263798371237DC371286A0DF03F
:10CBE000B9F9BDE8384024F0FBBD00BFAC310021ED
:10CBF00038310021034B5A78012A04BF00225A70B1
:10CC0000704700BF38310021084B186A90F8EB22BA
:10CC10000AB9012202715B78012B03D1C370303055
:10CC200026F00CBB05210DF0DFB800BF3831002124
:10CC300030B5104C87B06378012B07D10025206AEE
:10CC4000C3700571303026F0F9FA6570206A01A9C9
:10CC5000FFF7C4FE236A0849084A591AC91051430C
:10CC60003E2093F8B13301AA89B224F0EDFE07B05B
:10CC700030BD00BF38310021E01A002147D9FD4600
:10CC800030B52F4C87B06378206A012B04BF002396
:10CC90006370FFF77DFE256A2B7983B11222002194
:10CCA00001A82CF0DAFD2749274B691AC91059430E
:10CCB000442095F8B13301AA89B224F0C5FE256A53
:10CCC00095F8EB32BBB1217A11F0010115D1122296
:10CCD00001A82CF0C2FD1B491B4B691AC91059430E
:10CCE0001A2095F8B13301AA89B224F0ADFE0022D2
:10CCF000236A83F8EB2207B030BD182026F058FDD8
:10CD000001460028F3D040F20B134380D4E90423FA
:10CD1000C0E90223A37AC371637A8371237A037112
:10CD2000236A9A794271B3F8F822D3F8FC3202826E
:10CD30004382237E4375054B187B26F04AFDD6E7D8
:10CD400038310021E01A002147D9FD46004B00216F
:10CD50002DE9F043534B85B01D680DF0D9FB044617
:10CD6000002800F09C80012025F06CFE002184F852
:10CD7000001395F820304C4F84F8013395F821309A
:10CD80004A4E84F80233D5E90A23C4E9C22395F850
:10CD90002330384684F8B0334FF47A73C4F8FC3249
:10CDA0000C233461A4F8F8126372A91D18F032F94B
:10CDB00040F2E242BB885343C4F88C3195F82030EE
:10CDC00084F8683395F8213084F86933DB07D5E9B6
:10CDD0000A01C4E9DC011CD50B0A03F0C003403B87
:10CDE00017D14FF000084FF000098DF807300DF112
:10CDF000070202ABCDE90289FFF7BEF948B19DF801
:10CE0000073043F0020384F86933DDE90223C4E903
:10CE1000DC2395F83230306984F8B1336B6BC4F899
:10CE2000843295F8383084F8883295F8393084F8AF
:10CE3000893295F83A3084F88A3295F83B3084F894
:10CE40008B320DF087F894F8B13363B1184B6A6BED
:10CE50001B68A364174B1B68E364174B1B68C4F87B
:10CE60000831A36D9A6724F0BBFCAB88288BB38094
:10CE70006B8B7080F380AB8B33812B8E738195F835
:10CE800022303373EB8BF3816B6B7361AB6BB361EC
:10CE90000DF056F905B0BDE8F04306F01BB805B03B
:10CEA000BDE8F083AC310021B031002160310021B8
:10CEB000CC070021C4070021C007002170470000F3
:10CEC000012310B5064C2069C370303026F0B6F946
:10CED00021693E20BDE8104091F8B1230DF09EBBC2
:10CEE00060310021034B18690123303000F82D3CDC
:10CEF00026F0A4B960310021044B1869C378012BD6
:10CF000004BF0023C370FFF743BD00BF60310021A1
:10CF100010B5437A04460B2B86B010D101A9FFF758
:10CF20005DFD0C490C4B611AC9105943002094F85F
:10CF3000B13301AA89B224F087FD06B010BD0C2BD5
:10CF4000FBD1014690F8B123002006B0BDE81040A7
:10CF50000DF064BBE01A002147D9FD4601233030B3
:10CF600000F82E3C26F06AB9FFF712BD012310B578
:10CF700004468370303026F061F904F5567026F0CF
:10CF80001AFE0548201A054CC0106043BDE8104049
:10CF900080B224F08BBD00BFE01A002147D9FD46C6
:10CFA000F8B50579C388012D1AD0022D21D0B5B965
:10CFB0004FF46E72534313490688CC18B4F8C0215D
:10CFC0004088921B82420ADCD4E96E6703F54873FD
:10CFD000C4E9C867C81824F063FC84F8B051F8BDF0
:10CFE0004FF46E72074802FB0303002283F81822F5
:10CFF000F5E74FF46E72034802FB0303002283F847
:10D000008022ECE7E01A002125F0A8BD08B524F045
:10D01000EFFB0022054B5A70054B93F821301BB1F2
:10D02000BDE8084024F0F4BB08BD00BFB84A0021A9
:10D03000D84B002108B5012025F004FD24F0D0FBD9
:10D040000122074B5A70074B93F821300BB124F0A3
:10D05000D7FB0DF009FCBDE80840002024F058BBC8
:10D06000B84A0021D84B002108B5012025F0EAFC80
:10D0700024F0B6FB0122064B5A70064B93F8213080
:10D080000BB124F0BDFBBDE808400DF0EDBB00BFC7
:10D09000B84A0021D84B0021054B5B7833B10123FE
:10D0A000044880F829302C3026F0C8B8704700BFFB
:10D0B000B84A0021F8310021002024F029BB0C20BF
:10D0C00024F026BB2DE9F041634B8AB05B78002B3E
:10D0D00000F0BE80614D95F82860002E00F08C8035
:10D0E000D5F8F480B8F1000F00F08180012205F539
:10D0F000887305F1D8014046FEF7D0FB064668204C
:10D1000026F056FB0446002800F09E8000F1080738
:10D11000384608F1020118F048F9384618F09CF931
:10D1200000B196B9204626F04BFB042026F040FBC8
:10D13000014630B14FF441734380494B187B26F0D0
:10D1400048FB012025F094FC51E00023A370D5F8A2
:10D150008031A36395F8233184F83C3095F822217F
:10D160009A4207D1D5E94661D5E94402914208BF08
:10D17000864203D043F0020384F83C300020D5E916
:10D1800046230021C4E91223C4E9140195F82301C0
:10D1900095F82211884207D1D5E94670D5E9446156
:10D1A000884208BFB74203D0D5E94401C4E914015D
:10D1B00094F83C0014F0C4F90028B3D1294B21465F
:10D1C000D3E91C23C4E9162395F82A3084F84100DA
:10D1D00084F83D300123E387FF2384F860304FF665
:10D1E000FF73A4F862301E4B187B26F0F2FA0AB0E7
:10D1F000BDE8F041FFF70ABF1A4C0DF06FFC257C2B
:10D20000012D9ED13146232268462CF026FB43F6A1
:10D210000543ADF802303C238DF80430A37C0DF1BA
:10D220000A008DF80930FF238DF823304FF6FF7385
:10D23000ADF82430D4E906238DF8085026F05CF9C7
:10D24000684624F05DFA7CE7002E3FF46EAFCEE72F
:10D250000AB0BDE8F08100BFB84A0021F8310021D2
:10D26000004B0021D84B002108B5012025F000FC1F
:10D27000FFF7CCFE0DF032FCBDE80840002024F0A2
:10D2800047BA08B5012025F0F3FBFFF7BFFEBDE864
:10D2900008400DF023BC0000054B30B51C68054D5F
:10D2A00008340FCC0FC594E80F0085E80F0030BD9F
:10D2B000AC0E0021E04B002110B50446012025F002
:10D2C000D7FB074B1868201A064CC0106043043087
:10D2D000C0B225F07BFABDE8104024F089BA00BF47
:10D2E00050340021D346E07010B50446D0F8300A1F
:10D2F00028B1043826F064FA0023C4F8303AD4F890
:10D30000CC0828B1043826F05BFA0023C4F8CC38E6
:10D3100094F83B300BB124F07BFA024A9378013B3E
:10D32000937010BDB84A002138B504461F4D012046
:10D3300025F088FB2A682046137A84F8743300238A
:10D3400084F8753384F8763384F8FC3784F8FE3734
:10D350005168C4F878330EF0F1FD014640B16078B1
:10D3600024F0B2FB2046BDE8384004210EF0A0BCFA
:10D370000F4A93780133937094F83B300BB124F04B
:10D380003FFA2B68596851B14FF47A72636A0A39CF
:10D39000B3FBF2F304F55970C91A26F006FC607865
:10D3A0000021BDE8384024F08FBB00BF6434002169
:10D3B000B84A002138B504461C4D012025F042FB37
:10D3C0002A682046137A84F87433002384F875336E
:10D3D00084F8763384F8FC3784F8FE375168C4F853
:10D3E00078330EF0ABFD014640B1607824F06CFB61
:10D3F0002046BDE8384004210EF05ABC2B685B681B
:10D4000093B14FF47A71626A4B4302F59C52083231
:10D41000B3FBF2F3013B534304F55970B3FBF1F155
:10D42000BDE8384026F0C1BB38BD00BF64340021E0
:10D4300070B5134D00F559760446304626F0BBFB17
:10D440002B685B687BB14FF47A71626A4B4302F5DB
:10D450009C520832B3FBF2F3013B53433046B3FB1B
:10D46000F1F126F0A2FB00212B6860781B7A84F88A
:10D47000751384F87433BDE8704024F025BB00BFF9
:10D480006434002110B5044600F5597026F093FB72
:10D49000002384F87633012384F8FE3710BD002181
:10D4A000407824F011BB0C21407824F00DBB000023
:10D4B000F0B590F8FC3704469FB0002B39D100F549
:10D4C000597026F078FB2046FFF70EFF012025F06B
:10D4D000CFFA94F8742394F8753322B1934224BFA1
:10D4E000432284F87623002294F87613607824F09F
:10D4F0002EF9238C03F01D031D2B18D1FF234FF6AB
:10D50000FF7200200021CDE908323C230022CDE942
:10D510000401CDE90632CDE90201D4E90C0194F809
:10D520003A30CDE900010121607801F039FC1FB0EB
:10D53000F0BDD0F8CC687C4F002E7ED000F6E8031A
:10D5400000F50B6101223046FEF7A8F9002800F033
:10D55000D780682026F02CF90546002800F0D080FE
:10D560006378314603800023837012A817F0F4FE1D
:10D57000311805F1080017F018FFD4F8CC38002B4B
:10D5800000F0898094F8FBC804F50F6185F83CC071
:10D5900094F8FA38634508D151E90203D4F8F068E9
:10D5A0004A689A4208BF864203D04CF0020C85F8C4
:10D5B0003CC0D1E90023C5E9122300220023C5E9BC
:10D5C000142394F8FB2894F8FA389A4208D151E9C8
:10D5D0000203D4F8F0684A689A4208BF864203D032
:10D5E00051E90223C5E91423012385F83E30D4F81C
:10D5F000F837387BAB634D4B2946D3E91C23C5E98B
:10D60000162394F8FD3785F83D30012385F83F3027
:10D6100094F8753385F8403094F8F43785F8413044
:10D62000FF2385F860304FF6FF73A5F8623026F0CF
:10D63000D0F82046FFF758FE79E7D0F8306A002E80
:10D6400087D031460AA817F087FE311812A817F0C4
:10D65000ACFE002311939DF8283004F50B618DF882
:10D66000403003238DF84130DDE91223CDE90C234E
:10D670009DF82A300CA88DF84230DDE91423CDE95D
:10D680000E239DF82B3001228DF8433004F66823D9
:10D69000FEF7F2F95AE794F87BCA04F5276185F89A
:10D6A0003CC094F87A3A634508D151E90203D4F8B2
:10D6B000706A4A689A4208BF864203D04CF0020C56
:10D6C00085F83CC0D1E90023C5E9122300220023DC
:10D6D000C5E9142394F87B2A94F87A3A9A4208D13F
:10D6E00051E90203D4F8706A4A689A4208BF864238
:10D6F00003D051E90223C5E9142394F8953974E75E
:10D700006378311F26F8043C082306F8023C032303
:10D7100006F8013C387B26F05CF801201FB0BDE81C
:10D72000F04025F0A5B900BF004B0021D84B0021E7
:10D7300010B50446FFF7D8FD012025F099F960786F
:10D740000021BDE8104024F0BFB910B50446FFF732
:10D75000CBFD012025F08CF92046BDE810400DF0EE
:10D7600037BB3C2380F87633012380F8FE377047BF
:10D7700000221346F0B5D0E90076C3F12005A3F1ED
:10D78000200427FA03F106FA05F5294326FA04F4E2
:10D790002143C90744BF81180B7203F1010348BF3D
:10D7A0000132252BE9D180F82D20F0BD70B504465B
:10D7B0000025012025F046F984F8EE520BF082FA9C
:10D7C000A4F8905184F857532546354BC4F88C0182
:10D7D000D3E90E23E5E9C223284624F061F80123AA
:10D7E00084F83633D4F88C3183EA1343A4F8383301
:10D7F00094F8CD3AEBB194F85713B4F890315940FE
:10D8000028460DF005FC94F8CD3A84F8ED02204648
:10D8100093B1244B1B687BB19847054678B12046ED
:10D8200003210EF0AFFC29466078BDE8704024F07B
:10D8300082B9B4F89011E3E70EF0E4FCEDE70123C0
:10D8400084F88931A378012B13D194F8B52A0AB949
:10D8500084F89231D4F8CC65B4F8F25723F01DFF68
:10D860003246294625F054FE0123A4F8DE0584F84B
:10D87000B63A94F8F4325BB1D4F8CC65B4F8F25708
:10D8800023F00BFF3246294625F042FEA4F8F602AB
:10D890006078002124F04FF9BDE8704023F0A0BF6C
:10D8A000B84A0021840700210021407824F043B9C0
:10D8B0000C21407824F03FB9F8B583780446012B59
:10D8C00011D190F88951012D0DD1D0F8CC75B0F857
:10D8D000F26723F0E2FE3A46314625F019FE84F85D
:10D8E000B65AA4F8DE05012384F8EE32002394F83A
:10D8F000CD2A84F8893184F892317AB147F6FF72E3
:10D90000D4F8C404FF21A0F8042FA0F8003F80F849
:10D91000023F0F2200F606702BF09FFF04F5CA703D
:10D92000BDE8F84025F08ABC10B590F8883104466F
:10D93000012B04D1FFF7C0FF2046FFF7BDFC2046B6
:10D94000BDE81040FFF79EBD10B590F88831044641
:10D95000012B04D1FFF7B0FF2046FFF7ADFC2046B6
:10D96000BDE810400DF034BA10B50446FFF7A4FC32
:10D9700060780021BDE8104024F0DDB890F8503008
:10D98000012B12D0094B1B68D3E90223C0E9D02335
:10D99000C0E91623B0F890310633A0F860300823B0
:10D9A00080F85230012380F8503070474C34002109
:10D9B000D0F8C03A0BB1407818477047D0F8C43A55
:10D9C0000BB140781847704790F82031012B0ED0EA
:10D9D000D0F84833C0F82431B0F84C33A0F82831DF
:10D9E000B0F85433A0F82A31092380F82231704767
:10D9F0000023C0F82031C0F82431C0F82831704726
:10DA0000682200212BF029BF5030FFF7F9BF2B23EC
:10DA100007B58DF803008DF804006846ADF80010D6
:10DA20008DF802308DF8051023F06AFE03B05DF822
:10DA300004FB2D2307B5ADF800008DF804006846FF
:10DA4000ADF802308DF8051023F05AFE03B05DF8F2
:10DA500004FB08B5012024F0F5FFBDE8084023F0E1
:10DA6000BFBE00002DE9F04FDFF840810446D8F832
:10DA700000608FB006F1080529460FF095FC294695
:10DA8000002520460FF0F8FCAA46B37DAB4243D9EF
:10DA9000002794F8562004F1570305F101090BE023
:10DAA000D4F8943053BB94F89C30C4F894B0ED1A79
:10DAB00084F89D5022E00137BA421FD913F8011BA8
:10DAC0004945F8D120460EF003FE96F84030F18E1D
:10DAD0000293D6E90E23CDE900230A46F16A834674
:10DAE0000EF09CFED4F89030002BD9D1E368C4F836
:10DAF00090B06B4384F89C50C4F8983094F856303A
:10DB0000BB4207D194F834305A1C0E3384F83420C9
:10DB100044F823A04D46B8E7D8F800102046083155
:10DB20000FF0CAFB216F04F1600026F03EF82C23B1
:10DB3000A5782022002106A8ADF81630ADF81450C3
:10DB40002BF08BFEE36A1A4A0793A38A04F138018B
:10DB50005BBAADF82030E38A8DF81950ADF8223069
:10DB6000A3885034ADF8243054F8403CA3FB023273
:10DB7000DB0F43EA42030022ADF82630134651F88A
:10DB8000040B40B140880EAD5A1C05EB430323F84B
:10DB90000E0CD3B201228C42F1D10AB18DF828309B
:10DBA00005A823F0ADFD0FB0BDE8F08F743400215F
:10DBB000E3361A0090F8BA3080F85430704710B548
:10DBC00043780446012B8AB018D181780020FFF7F2
:10DBD0001EFF2022002102A82BF03FFE2C228DF8F0
:10DBE00006204422A37801A8ADF804308DF8072060
:10DBF0008DF808208DF8093023F082FD0AB010BDA1
:10DC0000082380F8543070473D2380F85430704723
:10DC100010B50446012024F02BFF236D13B1002220
:10DC200083F81A226378032B06D194F85430A07835
:10DC30004BB11946FFF7FDFE20460FF0E3F8BDE8B3
:10DC4000104023F0D5BD01461846FFF7E0FEF3E78C
:10DC5000F8B5054610F074F9044648B12846042189
:10DC600010F03CF921462846BDE8F84010F0D0B845
:10DC7000012024F0E7FE2C6DCCB1012384F889311A
:10DC8000A378012B13D194F8B52A0AB984F89231FC
:10DC9000D4F8CC75B4F8F26723F0FFFC3A4631466D
:10DCA00025F036FC0123A4F8DE0584F8B63A2846B0
:10DCB000022110F029F9BDE8F84023F091BD0000E1
:10DCC000F0B5044685B007200EF0D8FF064630B305
:10DCD000144B03A91868258C0390304618F00EFFEA
:10DCE000114F0635ADB2D7E90E230095304418F038
:10DCF00018FF0622314620460EF0C7FF94F8A030E8
:10DD0000A4F8A85043F0010384F8A030D7E90E230B
:10DD1000C4E92C23236D13B1002283F8B82005B089
:10DD2000F0BD00BF6CA90301B84A002173B50446D9
:10DD300003200EF0A3FF0646E0B1124B01A958687C
:10DD4000258C0190304618F0D9FE0635ADB22A4632
:10DD500094F8BA10304418F0F6FE062231462046F8
:10DD60000EF093FF94F8A030A4F8B85043F00203EB
:10DD700084F8A0300321204602B0BDE8704010F0C6
:10DD8000C3B800BF6CA9030110B50446C43025F028
:10DD900055FA2046BDE81040032110F0B5B810B583
:10DDA0000446012024F064FE20460FF02BF823F0F7
:10DDB0001FFD6378022B04D12046BDE8104010F00F
:10DDC00079B810BD164A30B514684FF48662C3881E
:10DDD00085B002FB0344062203890546ADF80430F2
:10DDE000ADF80A30C37F01A88DF80C308DF80620FD
:10DDF0008DF807108DF8081023F082FC94F8BE33DC
:10DE000063B12989B4F8C60310F0AEF9054628B904
:10DE100004F5707023F074FC84F8BE5305B030BD77
:10DE2000583500212DE9F0438BB0044615460E46C7
:10DE30002422002101A82BF010FD27238DF80230A9
:10DE400040F2E243B4F8902294F8931294F892725C
:10DE500002FB01FE02FB07F003FB0EFE94F880922A
:10DE600003FB00F8D4F88C32B9F1010F0CBF5B1939
:10DE7000EB1A734405932369D4F888020393B4F82A
:10DE80007C32B4F808C0ADF8183094F8943208BF6A
:10DE900040198DF81A3094F89C3218BF281A8DF862
:10DEA0001B3094F89D3208BF40448DF81C30A37A93
:10DEB00018BF4044ADF800C08DF803600CBF04905B
:10DEC0000490ADF806C08DF8046002958DF81D70C1
:10DED0008DF81E10ADF824208BB9B4F83021012B39
:10DEE0000CBFB4F83031B4F82C316846ADF82020BE
:10DEF000ADF8223023F004FC0BB0BDE8F083B4F899
:10DF00002C21ECE738B5054604200C4625F050FCE2
:10DF1000014650B12B89C47003800F238370034BDB
:10DF2000187BBDE8384025F054BC38BD004B0021BB
:10DF300038B5054604200C4625F03AFC014650B1A0
:10DF4000EB88C470038001238370034B187BBDE80A
:10DF5000384025F03EBC38BD004B0021014B9B7C76
:10DF6000C3777047C8340021024B1B681B79C37705
:10DF7000704700BF7C3400213E23C37770470823DD
:10DF8000C37770472223C37770470D23C377704749
:10DF9000014B5B7CC3777047C83400213D23C377B6
:10DFA0007047000010B50446C07A10F055F94FF4E0
:10DFB00086611B4BE2881B6801FB0233C27C013285
:10DFC000C274A27A22BB94F87C12032993F84E20E3
:10DFD00021D1013A18BF01228A1A1A4492F9E82184
:10DFE0007E2A1AD193F8A503B8B10E4A58181268C0
:10DFF000032992F9262080F8E72108BF83F8EB2156
:10E00000D3F8CC325B0702D5012384F8733210BDFC
:10E0100094F87D12D9E70122DEE784F83A21F6E789
:10E02000583500210C49002138B590F84750044676
:10E030000022C17F4DB1222906D180F8472011214D
:10E04000BDE83840FFF7EEBE0C2584F84720204697
:10E050000022FFF7E7FEE37F442B05D11623294674
:10E060002046E377FFF7AEFE2046BDE8384010F0CB
:10E07000FFBB000038B50446C08812F0E5FE054637
:10E0800098B9082025F094FB014668B1E388038025
:10E0900041F2017343802389C380E37F0371044B02
:10E0A000187B25F096FBA57638BD0123A376FBE708
:10E0B000004B0021F8B504460121C688008915F0FF
:10E0C00015FB0221208915F011FBE07A10F0C4F84D
:10E0D000054604F5187025F06EFD01236376E37F95
:10E0E0003E2B0CD100276776EB7C2046013BEB747E
:10E0F00010F0BEFB3A462046E17FFFF793FE144B3B
:10E100001B6893F83020134B1C680023934219D2EC
:10E11000E188B14217D1657EADB9A17E99B10820E1
:10E1200025F046FB014668B1E388038041F20173A4
:10E1300043802389C380E37F0371074B187B25F05D
:10E1400048FBA576F8BD013304F54A74DEE700BF4D
:10E150000C49002180340021004B00218378012BE1
:10E1600008BF4376704770B5054604200C46CE7F45
:10E1700013F00EFC014648B122230370E37A43708A
:10E18000237BC6708370284613F0D8FB21462846AF
:10E19000BDE8704010F063BC034B9B7CCB77012340
:10E1A00080F80F33704700BFC834002108460521AE
:10E1B000FFF7A8BEFFF7D7BF012380F80F337047E2
:10E1C0002DE9F84306460C46C87A10F045F8B6F833
:10E1D000A431B6F8EE13DA1DB6F8A631074602FBF5
:10E1E0000133A4F848300023A4F84A30444B9B691B
:10E1F0001B015AD410F0F8F8B4F84810B6F8A6513C
:10E20000B6F8A831F26950BB40F2E240491B4B43DB
:10E210003C493D4D096800FB0322791A0911694305
:10E220003D8A0A316843C9B224F0DEFAD4E90423F6
:10E230009B1A0344E36440F2E243B6F8A81194F851
:10E2400094225943314BD4F898021B685B8E00FB33
:10E2500012330B44E26C9A421FD2BDE8F88340F2BD
:10E26000E2484D1B5D4308FB0525B4F84A30B7F87A
:10E27000109001339BB203FB09F9A4F84A303B6AC2
:10E28000294608FB0939484624F090FC0028ECD0C8
:10E290002946484624F08AFCC8E7521AE264B4F8DA
:10E2A00048200132A4F84820D4E740F2E245B6F80D
:10E2B000A831D0F80C9005FB03F824F071FCD4E9E8
:10E2C00004239B1A4344A3EB09031B1AE364384657
:10E2D00010F08AF80028C0D0B6F8A631B4F848206B
