:020000040100F9
:1088000000000121254D0301F94C0301D94C03015E
:10881000F94C0301F94C0301F94C0301F94C030134
:10882000F94C0301F94C0301F94C0301F94C030124
:10883000F94C0301F94C0301F94C0301F94C030114
:10884000F94C0301F94C0301F94C0301F94C030104
:10885000F94C0301F9470301F94C0301F94C0301F9
:10886000155D0301F94C03012D450301F94C03018A
:10887000594A0301F94C0301F94C0301F94C030176
:10888000F94C0301A548030169470301A94A030103
:10889000F94C0301F94C0301B1480301F94C030100
:1088A000694A0301794A0301F94C0301F94C0301B8
:1088B000F94C0301F94C0301000000000000000026
:1088C00000000000000000000000000000000000A8
:1088D0000000000000000000000000000000000098
:1088E0000000000000000000000000000000000088
:1088F0000000000000000000000000000000000078
:108900000000000000000000000000000000000067
:108910000000000000000000000000000000000057
:108920000000000000000000000000000000000047
:108930000000000000000000000000000000000037
:108940000000000000000000000000000000000027
:108950000000000000000000000000000000000017
:108960000000000000000000000000000000000007
:1089700000000000000000000000000000000000F7
:1089800000000000000000000000000000000000E7
:1089900000000000000000000000000000000000D7
:1089A00000000000000000000000000000000000C7
:1089B00000000000000000000000000000000000B7
:1089C00000000000000000000000000000000000A7
:1089D0000000000000000000000000000000000097
:1089E0000000000000000000000000000000000087
:1089F0000000000000000000000000000000000077
:108A0000DEE61E284CBBCE8F023500003C00000085
:108A1000BC3C030001000000008800010088000148
:108A2000FFFF0291000000000000000000000000B5
:0C8A30000000000000000000000000003A
:108A4000002070470388F7B5A3F57C4306460C4623
:108A5000032B4DD8DFE803F00212204391F9000008
:108A600000F0B0FA04460120318823F04BFF18B122
:108A700000F8054923F0F2FE01203AE0CB788A782D
:108A8000207802EB0322497892B22CF0ADFF08B1B6
:108A90000024E8E71224E6E7CA798B79497903EBE9
:108AA00002232279E07802EB0122A178657801EBBC
:108AB00000212078E77A00EB0520A57A9BB205EB30
:108AC0000725ADB20195657A247A92B204EB0524AC
:108AD000A4B2009489B280B22EF0E0F9D7E708780A
:108AE0002DF066F80028D5D060782DF07DF8CEE71F
:108AF000002003B0F0BD00002DE9F047A84D86B07E
:108B000028462CF087FC4FF49673A64EEB80304637
:108B100025F00AFD402206F10C0102202CF08EFC0B
:108B2000402206F13E0101202CF088FC402206F193
:108B3000450106202CF082FC1022ADF8042008220A
:108B40000B238DF80620202233714FF49C63ADF87F
:108B500008208022042740F20D11B383F38CADF876
:108B60000C20B27B1C338DF80E208DF81220ADF84E
:108B7000143096F8242096F82330ADF810101344E2
:108B800096F82A200DEB0701134496F82B200520B8
:108B900013448DF816308DF80A702AF0AFFD80B2BC
:108BA0002AF07AFE2AF076FF2BF092F800F066F9B0
:108BB0002AF082FE80462AF085FE0446284629F0E7
:108BC000CDFF22464146384603F056FD08EB00092A
:108BD000A4EB000A054652464946384603F060F8C1
:108BE0000544AAEB000209EB0001384603F05AF9EC
:108BF0004719304625F0CAFC96F82250B844E41BC9
:108C000035B12146404625F009FE05468044241A28
:108C10002146404625F0BDFD241A804421460544E6
:108C2000404625F0CCFD241A80448146214640462A
:108C300025F0E9FD241A804482462146404625F06D
:108C4000D0FD3D44211A0746404425F007FE00248C
:108C50004D4455443D44054429F086FF02F046FD4D
:108C600000F048FC02F0D4FB01F0F0FA02F0ECFC5A
:108C700001F0B2F801F0D0F801F03AFD2CF0FAFE64
:108C800002F0AEF802F044FA01F0D6FD01F098FED1
:108C900003F0CAFC44482AF0F1FE2AF033FC25F028
:108CA00071FD25F0D1FD25F0C1FD25F081FD25F0F8
:108CB000C4FD25F0DCFD25F0E1FD25F06CFD25F07F
:108CC000C5FD25F0D0FD25F095FD25F083FD25F0AF
:108CD00078FD25F0DAFD25F098FD25F084FD25F0DE
:108CE0009BFD25F0C2FD31482AF0C8FE25F054FC5A
:108CF0002F482AF0C3FEB28DF18C2AF039F824F007
:108D000065FF25F06FF825F01DF824F08FFF25F0A2
:108D100079F824F0EDFF24F07BFF25F053F825F0DF
:108D2000F3F824F063FF25F02DF824F08FFF25F0F1
:108D300001F825F0D9F825F0C3F824F0B9FF24F0A4
:108D400097FF24F0A5FF24F0C3FF25F099F81948F8
:108D50002AF094FE25F068F825F084FA164824F0ED
:108D60002FFF28462AF098FD01A80194ADF808408D
:108D700025F08EFD042168462CF014FD684628F08D
:108D800025FD012200214FF4003025F023FE0B4881
:108D90002AF090FE2AF09AFE204606B0BDE8F08741
:108DA00088010021980100212535030139E60201DF
:108DB0009D2D0301F9E40201458A0001418A000169
:108DC000014B1878704700BF00000720014B197055
:108DD000704700BF00000720012070470122014BAF
:108DE0005A6070470020014138B5C4003434204631
:108DF00030F0AEFE054618B12246002130F0DFFE0D
:108E0000284638BD2FF068BE70B50E46CAB1541E54
:108E1000A0B22AF071FD054698B12246711C30F0CF
:108E2000A7FE3378022B0ED0052B05D0012B08D1DD
:108E300000212A46084602E02A46032100202AF0A3
:108E400003F8002070BD2A460121F7E7C30703D5C8
:108E5000024B58682FF0F2BC704700BF2802002177
:108E600048F29C63C360044B436003F55473036092
:108E700020238360704700BF048007201FB5684629
:108E8000FFF7EEFF0298FFF7AFFF044C2060029857
:108E9000FFF7AAFF606004B010BD00BF28020021E8
:108EA00030B5294B8BB004AC93E80300002284E872
:108EB0000300264906202BF00DFC25482BF026FC4C
:108EC00006A8FFF7CDFF204630F020FB099B214884
:108ED000214C436130F0FCFA22462049204830F012
:108EE000C3FA226893680BB102F10C0304201D4AF7
:108EF000069990601062012051601B49BDF8204026
:108F00000D684968156091611849079D88610220C4
:108F100053619481D362D5619484CA6200228862CD
:108F2000134808620092134830F05EF9124B134A5E
:108F30000293134B0F4901934FF0FF3311480093F5
:108F40002FF050FD0BB030BD20AC03014D8E000161
:108F500028AC030100000021E401002100AC030162
:108F60000AAC0301C402002128020021F8020021FA
:108F7000ACAC030130020021058E000112AC0301EC
:108F8000098E0001E8010021022907B5184603F106
:108F9000FF3310D1042100F8011C012108480A44C4
:108FA00001910092D0E909122FF07CFC03B05DF82A
:108FB00004EB29F0C9BE01290CBF02210521EAE713
:108FC000E8010021024B83F87B000020704700BFBE
:108FD000585300212CF0FCB92DE9F8431C46D0F879
:108FE0002890C56807460E46904629F07DFE99F800
:108FF0000D302C44022B04440DD0032B0DD0012B3B
:1090000000D12834306C3D690319AB4208D935646E
:109010000020BDE8F8831834F4E704F5A874F1E7FC
:109020007B682D1A63B14146986829F063FE85423A
:1090300028BF0546AC4203D9336C2B443364E7E7C1
:10904000281B4FF47A75044B1B689C886C43A04224
:1090500028BF2046DDE700BF405600211FB5012391
:109060008DF80430002301A8CDE902332CF02EF94D
:1090700005B05DF804FB1FB5002301A8CDE901335D
:1090800003932CF023F905B05DF804FB2DE9F843B8
:1090900004468846866A2CF065FC05460146A068B1
:1090A00006F1980729F026FE78B9A368DFF89090BA
:1090B000C9F8843029F018FE2844A060D9F884103B
:1090C000284629F017FEC6F8D800D6F8A4300BB110
:1090D00020469847394600232046A268FFF77CFFC8
:1090E000074618B9BDE8F84329F0CCBD144DA36874
:1090F0004046C5F884302CF045F8124B05F1880045
:10910000C5F88830104BC5F89470C5F88C30A3684A
:10911000C5F890302CF0D2F8002385F88030D6F8CE
:109120009C304BB1FFF79AFF96F8CA10D6F898001A
:10913000BDE8F8432CF01AB9FFF79DFFF4E700BF34
:109140006406002105940001E99100012DE9F8432E
:1091500080460C4629F0A0FD064618B1012630468F
:10916000BDE8F8832CF0FEFB1D4D8146D5F8841038
:1091700029F0C0FD236C03442364C5F8849029F0D2
:10918000B3FD4A46034621464046FFF725FF074602
:109190000028E3D0636A53B10246494640469847E7
:1091A00028B10122D8F8283083F8C820D7E7D5F8AD
:1091B000848029F099FD4044C5E9240709482CF032
:1091C0007DF8002385F88030636833B1FFF746FFF0
:1091D000272120682CF0CAF8C1E7FFF74CFFF7E71A
:1091E00064060021EC0600212DE9F04F87B09A4675
:1091F0009DF8403003910293934607462CF0B2FB52
:10920000DFF8F491C9F8000029F036FDDDE90231FC
:10921000846A8046D4F8C450ADB194F8C820012ABD
:1092200011D1CDE900A30A465B463946D4F8B8000F
:10923000A847012804D10023C4F8B83084F8C83006
:1092400007B0BDE8F08F6D4A6D4D92F88060701CDC
:1092500082F8800076B1022E00F08680AC8C2CF073
:1092600081FBD9F80030C01A844240F2B580A88C46
:10927000A884E5E707B3FB1E012B40F2B680042F5C
:1092800068D06FD833460126032F5DD032461E4684
:10929000EB690133EB613346164643B117F0FB0F20
:1092A00046D0404604F19801FFF750FF0646002ED5
:1092B000D4D029F0F7FCD1E784F8CC1084F8CD3075
:1092C0003A46C4E934BAD4F8980004F1E00304F152
:1092D000800102F017FB002834D04046D4F8A830B3
:1092E000D4F89810984700287DD06E8C2CF03AFB6B
:1092F000D9F80030C01A86421DD9688C94F8C9305C
:109300006884ADF81030D4F89C300593FFF7A6FEC2
:10931000012104A82CF00CF8D4F8AC301BB1404665
:10932000D4F8981098472B6801332B60002F95D004
:109330002CF04CF8B5E72CF015FBD9F80030C01A2A
:1093400080B2DBE70127EEE7AA680132AA60002BB2
:10935000A7D1ACE7334601266A6801326A60002B68
:10936000E6D1A4E7012293E76FB1FB1E012B1ED9C2
:10937000042F4FF000034FF0010629D022D9EA69EB
:109380000132EA6189E73A46D4F8A00004F1E0032B
:1093900004F1800102F0B6FA28B14046D4F8B430A6
:1093A000D4F8A01098472B6901332B61C0E7D4F89B
:1093B000B430002140469847042F4FF001034FF08E
:1093C000000605D0032FDAD1AA690132AA61BEE7EF
:1093D0006A6901326A61C2E72CF0C4FAD9F8003038
:1093E000C01A80B244E7012796E7042F4FF001032B
:1093F0007FF44AAFB0E700BFDC050021640600211E
:10940000280300212DE9F84381462CF0ABFA364EB3
:10941000306029F031FC856A0746D5F8C03083B149
:1094200095F8C820012A0CD14946D5F8B8009847CC
:10943000012804D10023C5F8B83085F8C830BDE84C
:10944000F8832A4B2A4C93F8808008F10102B8F186
:10945000010F83F880202CD1B9F1000F3FD138469D
:10946000D5F8B030D5F89C10984790B1B4F820806A
:109470002CF078FA3368C01A804524D9238C2384D1
:10948000FFF7F9FD2721D5F8A0002BF095FF4FF04D
:109490000008E3680133E360B8F1000F09D02BF056
:1094A00095FF384605F19801FFF750FE08B129F005
:1094B000F9FBE58C2CF056FA3368C01A854208D9BE
:1094C000E08CE084BBE72CF04DFA3368C31A9BB202
:1094D000D5E72CF047FA3368C01A80B2F1E7E369A8
:1094E0000133E361E3E700BFDC05002164060021EE
:1094F0002803002108B50220054A064902F030F988
:10950000BDE8084028220021034830F058BB00BFC6
:10951000D58F00018D9000012803002130B504464D
:10952000044D0FCD0FC40FCD0FC495E8030084E8A0
:10953000030030BD280300211FB5002301A8CDE999
:10954000013303932BF0C2FE05B05DF804FB1FB599
:1095500001238DF80430002301A8CDE902332BF05C
:10956000B5FE05B05DF804FB70B50546866A084691
:109570002BF008FE114C124B04F18800C4F888301F
:10958000104BC4F88C30D6F8B430C4F89430AB68C3
:10959000C4F890302BF092FE002384F88030D6F887
:1095A000983043B1FFF7D3FFBDE8704040F201119E
:1095B00005482BF0DBBEFFF7BFFFF5E7640600218F
:1095C000BD990001819D000150030021F8B50546B9
:1095D000134E876A08462BF0D5FD124C336804F110
:1095E0008800C4F88830104BC4F88C30D7F8A0300D
:1095F000C4F89430AB68C4F890302BF05FFE0023C1
:1096000084F88030336843B1FFF7A1FFBDE8F8402C
:1096100040F2011105482BF0A9BEFFF78DFFF5E7D9
:10962000B80500216406002131960001880400215C
:109630002DE9F04F85B08B469DF8381002920391CA
:109640009A4606462CF08EF9DFF89482DFF8949261
:10965000C8F8000029F010FB99F880200746856AB9
:10966000A14C039982B1032A00F0BC80258C2CF018
:1096700079F9D8F80030C01A854240F22981208C4F
:10968000208405B0BDE8F08F012E00F08A800AD951
:10969000F31E012B76D9042E00F09A8000F2A080F0
:1096A0001346012278E0032385F8BEB04FF0010B8A
:1096B00089F88030029B85F8BF10C5E9303A8B49A4
:1096C000D5F8983085F8C8B09847002838D002906F
:1096D00028462BF057FD029B09F188005344C9F836
:1096E00090302BF0EBFDB4F81C902CF03BF9D8F83F
:1096F0000030C01A81451CD9A08BA083FFF71CFF46
:1097000040F2011179482BF031FED5F89C303846F3
:1097100077499847B0FA80F35B09226801322260EA
:10972000002BA3D016F0FB0F00F0A98029F0BAFAA5
:109730009CE72CF017F9D8F80030C01A80B2DCE7AB
:1097400095F8BC3005F1980033B16A4B1B68BBB18A
:10975000594698470346E0E795F8CA30012B0AD1ED
:10976000654A1568002DD8D00146604A3846CDF8C4
:1097700000A0A847EEE73846D5F89C305B499847EB
:109780005B46CAE71146D5F89C3002929847042EF2
:109790004FF00103029A1DD0032E13D011461A4632
:1097A00006E01146D5F89C30029298473146029A5D
:1097B000A3690133A36113460A46002BB2D1002AE4
:1097C000B4D153E7A1680131A160002BAED1F6E717
:1097D00013460122616801316160002B4FD1EEE731
:1097E0000121E5E7D5F89830AEB1F21E012A57D92C
:1097F000324600219847D5F89C30002138469847DA
:10980000042E4FF000034FF001025DD056D9A1693C
:109810000131A161D1E7324685F8C86085F8BF10F3
:1098200085F8BEB031499847064690B328462BF0DC
:10983000A9FC564409F18800C9F890602BF03EFD60
:10984000A68B2CF08FF8D8F80030C01A864219D9B0
:10985000A08BA083FFF770FE40F2011123482BF08C
:1098600085FD3846D5F89C3021499847B0FA80F0FC
:109870004009E3680133E36000283FF4F7AE2BF0C2
:10988000A5FD53E72CF06EF8D8F80030C01A80B26E
:10989000DFE73846D5F89C30144998470120E8E7BF
:1098A000324600219847D5F89C3000213846984729
:1098B000042E4FF001034FF0000205D0032EA6D175
:1098C00061690131616180E721690131216184E7CA
:1098D0002CF048F8D8F80030C01A80B2D0E600BFAB
:1098E000DC050021640600218C050021880400218C
:1098F00050030021B0050021B4050021012370B5FB
:109900000546866AA0B0104C7C22314601A884F836
:10991000803030F02DF9B36F01A802932BF032FCA8
:109920000A4B04F188001B68C4F88830AB68C4F89F
:1099300090302BF0C3FCFFF7FFFD022106F1AC00D5
:109940002BF0CCFC20B070BD64060021B8050021CE
:1099500070B5164B93F880506A1C012D83F8802057
:1099600015D1134CE1B9A68D2BF0FCFF114D2B68DE
:10997000C01A86420ED9A08DA085FFF7DDFD40F20A
:1099800001110D482BF018FDE3680133E360002559
:10999000284670BD2BF0E6FF2B68C01A80B2EBE7BB
:1099A000A36A0133A36229F07DF9F1E7640600217F
:1099B00054040021DC0500215003002170B5044649
:1099C0002BF0D0FF0B4D286029F056F921460A4CA8
:1099D000FFF7BEFF668E2BF0C5FF2B68C01A8642CC
:1099E00002D9608E608670BD2BF0BCFF2B68C01A58
:1099F00080B2F7E7DC050021540400212DE9F74F80
:109A0000DFF87C920E4699F880408046022CDDF803
:109A100030A09DF83410856A00F0C480032C00F05B
:109A20003981002C40F09E81964F06B3F31E012B26
:109A300040F29A81042E00F0AA8000F2B180234601
:109A40000124032E00F0968022461C46BB6A013397
:109A5000BB6223461446002B00F0928016F0FB0FE9
:109A600001D12BF0B3FC29F01DF901248BE0C5E9ED
:109A70002F3A85F8BA10D5F89C30834985F8B9207B
:109A800098470446002862D0D5F89830002B5ED065
:109A90000123B7F82EB089F880302BF063FF7B4E9E
:109AA0003368C01A83454CD9FB8DFB8595F8B030DF
:109AB000ADF80030D5F898300193FFF748FD01214B
:109AC00068462BF035FCD5F8A03013B140466E49FE
:109AD0009847002C4CD1D5F8A830002B40D04046F8
:109AE00069499847044600283AD0032389F8803012
:109AF0002BF06CFC28462BF045FB54446448C9F815
:109B000090402BF0DBFBBE8D2BF02CFF5F4C2368CD
:109B1000C01A86421ED9B88DB885FFF70DFD40F2F8
:109B2000011159482BF022FC4046D5F8AC3056497B
:109B30009847B0FA80F464093B6801333B6014B382
:109B40008FE72BF00FFF3368C31A9BB2ADE72BF002
:109B50003DFCB8E72BF006FF2368C01A80B2DBE7B4
:109B6000D5F8AC3013B14046474998470124E3E7A4
:109B70000024E1E7BA680132BA60002B7FF473AFCA
:109B8000002C7FF470AF204603B0BDE8F08F234671
:109B900001247A6801327A60002B7FF462AFEFE72C
:109BA000012253E70324374F89F880406EB1F31E3A
:109BB000012B51D9042E4FF000034FF001045BD06C
:109BC00054D9BA6A0132BA6245E7C5E92F3A85F835
:109BD000BA10D5F8A4302C4985F8B9209847D5F8A3
:109BE000A8308BB3404628499847044660B32846BE
:109BF0002BF0C8FA544409F18800C9F890402BF0C2
:109C00005DFBBE8D2BF0AEFE204C2368C01A864251
:109C100014D9B88DB885FFF78FFC40F201111A48AE
:109C20002BF0A4FB4046D5F8AC3017499847B0FA62
:109C300080F464093B6901333B6180E72BF092FEBD
:109C40002368C01A80B2E5E7D5F8AC3013B14046BE
:109C50000D4998470124EDE7D5F8A4300021984735
:109C6000042E4FF001034FF0000405D0032EA8D1BD
:109C7000BA690132BA6180E77A6901327A618BE7A9
:109C8000640600215404002150030021DC0500215A
:109C9000EC060021D5F8A830364FC6B1F21E012AD5
:109CA0004ED900219847D5F8AC3013B10021404679
:109CB0009847042E4FF000034FF001044ED080D897
:109CC000032E7FF47EAF7A6A01327A6255E72A4921
:109CD0009847044660B328462BF054FA544409F1DF
:109CE0008800C9F890402BF0E9FABE8D2BF03AFEBF
:109CF000224C2368C01A864214D9B88DB885FFF764
:109D00001BFC40F201111C482BF030FB4046D5F8FB
:109D1000AC3019499847B0FA80F46409FB69013303
:109D2000FB610CE72BF01EFE2368C01A80B2E5E74A
:109D3000D5F8AC3013B140460F4998470124EDE700
:109D400000219847D5F8AC3013B100214046984720
:109D5000042E4FF001034FF00004B1D13A6A0132F2
:109D60003A6219E700240EE7042E4FF001037FF456
:109D700068AE0EE75404002150030021DC050021E9
:109D80002DE9F3410E461746984604462BF0EAFDAE
:109D90000F4D286028F070FF9DF8203021460D4CB3
:109DA0003246CDE900833B46FFF728FE268E2BF096
:109DB000D9FD2B68C01A864204D9208E208602B0B5
:109DC000BDE8F0812BF0CEFD2B68C01A80B2F5E71C
:109DD000DC0500215404002108B5002206200549B5
:109DE00001F0BEFCBDE808403422002102482FF0FB
:109DF000E6BE00BF699500015404002130B5044659
:109E0000044D0FCD0FC40FCD0FC40FCD0FC42B6861
:109E1000236030BD5404002108B500220920074901
:109E200001F09EFC00220F20054901F099FCBDE8DD
:109E300008402422002103482FF0C1BECD95000127
:109E4000FD9800018C05002130B50446034D0FCD6F
:109E50000FC40FCD0FC42B68236030BD8C050021CB
:109E600070B50546866A08462BF08CF90E4CD6F87C
:109E7000B43004F18800C4F89430AB68C4F8903072
:109E80002BF01CFA002384F88030D6F8983043B1C8
:109E9000FFF75DFBBDE8704040F2011103482BF075
:109EA00065BAFFF749FBF5E764060021500300217E
:109EB0002BF08EBA1FB5002301A8CDE9013303931F
:109EC0002BF004FA05B05DF804FB00002DE9F04F1B
:109ED00085B080460E469346994628F0DDFE07463B
:109EE00068B93E4CD8F828A094F8823094F8815094
:109EF000032B06D118B184F8823084F881500127F1
:109F000054E0022D92BF2A46033DEAB202F1250138
:109F10008AF80110F17E551C41FA02F20133D20792
:109F20004FF00100DBB2EDB2E2D584F8823084F864
:109F30008150B9F1000F04D11BF0FB0F01D12BF0C0
:109F400045FA50462BF01EF9B9F1000F04D0D8F8AD
:109F50000830C4F8903009E073685BB32BF002FD61
:109F6000054628F0BBFE2844C4F89000002384F87E
:109F70008030F3681BB14046D4F8901098471848D9
:109F80002BF09CF9736833B301238DF80430002360
:109F900001A8CDE902332BF099F9337E0121ADF808
:109FA0000430336801A802932BF098F9384605B0C5
:109FB000BDE8F08F327E9AF80E109AF80C0027F068
:109FC00026FF054628F08AFE284427F08FFFD4F8A4
:109FD00090300344BDE7FFF76DFFDEE76406002124
:109FE000EC0600210F4B104A10B5816AC3F8882097
:109FF0000E4A91F8B240C3F88C200422C3F8942092
:10A00000002283F8814083F8802083F882209831F1
:10A010000123FFF75BFF18B1BDE8104028F032BE06
:10A0200010BD00BF6406002171A1000131A0000134
:10A030002DE9F347994605462BF094FCDFF824817F
:10A04000494CC8F8000028F017FE484A866A92F882
:10A0500080300746591C012B82F8801068D106F128
:10A06000980A002D4BD1C6F8B4902A46D6F89C0029
:10A0700006F1B80306F1800101F044FC814668B3A3
:10A080003846D6F8A830D6F89C10984730B3B4F8C4
:10A090001A902BF067FCD8F80030C01A814516D909
:10A0A000608B6083FFF706FF96F8B1300121ADF8B1
:10A0B0000030D6F8A030684601932BF039F9D6F875
:10A0C000AC30ABB13846D6F89C10984710E02BF076
:10A0D00049FCD8F80030C01A80B2E2E700235146AC
:10A0E0001A463846FFF7F2FE0546B9F1000FE6D1F1
:10A0F000636801336360DDB12BF068F910E0002381
:10A100002A465146FFF7E2FE042D1ED001D8032D4A
:10A1100009D063690133636150B115F0FB0FEBD0D7
:10A1200028F0C0FD04E0E3680133E3600028F7D1C4
:10A13000A58B2BF017FCD8F80030C01A85420AD93D
:10A14000A08BA08302B0BDE8F087A3680133A360B1
:10A150000028D1D1ECE72BF005FCD8F80030C01A6C
:10A1600080B2EEE7DC050021BC0500216406002179
:10A170002DE9FF4107462BF0F5FB314E314C3060A5
:10A1800028F07AFD2FB163690133636128F08AFDFD
:10A190000CE02D4BD0F8288093F8805008F19801FE
:10A1A0006A1C83F880206DB1022D39D0E58B2BF02D
:10A1B000D9FB3368C01A85423BD9E08BE08304B0F9
:10A1C000BDE8F081D8F89C3023B3278B2BF0CAFB75
:10A1D0003368C01A874217D9208B01238DF80430C9
:10A1E0000023208301A8CDE902332BF06FF824214E
:10A1F000D8F89C002BF0E0F8236801332360002D91
:10A20000D4D02BF0E3F8C1E72BF0ACFB3368C01AD5
:10A2100080B2E2E72B462A46FFF758FE0546EBE7F9
:10A220003B463A46FFF752FE236905460133236158
:10A23000E5E72BF097FB3368C01A80B2BEE700BF9A
:10A24000DC050021BC0500216406002108B50320BF
:10A25000054A064901F084FABDE8084020220021A1
:10A2600003482FF0ACBC00BFB19E0001E59F000188
:10A27000BC05002130B50446034D0FCD0FC495E851
:10A280000F0084E80F0030BDBC0500211FB501237D
:10A290008DF80430002301A8CDE902332BF016F825
:10A2A00005B05DF804FB1FB5002301A8CDE901331B
:10A2B00003932BF00BF805B05DF804FBF8B51D4DCA
:10A2C0001D4B866AC5F888301C4B0F46C5F88C308C
:10A2D0000423C5F8943000230446A5F8803028F004
:10A2E000DBFC014628BBD6F8D4300BB1204698479A
:10A2F00038462AF047FFA3681148C5F8903000237C
:10A3000085F880302AF0DAFFD6F8A83013B9D6F8ED
:10A3100064315BB1FFF7BAFFA36806F19800C6F895
:10A3200068310221BDE8F8402AF0D8BFFFF7BBFF33
:10A33000F2E7F8BD6406002151A5000145A3000124
:10A34000EC0600212DE9F74F8B46019307462BF0D1
:10A3500009FBDFF878815E4DC8F8000028F08CFC1E
:10A360005C4A846A92F880608146711C012E019BD0
:10A3700082F8801040F08480012F04F1980A03D005
:10A380000BD9FB1E012B2AD894F87821002A66D01D
:10A3900000214846D4F8CC3010E0C4F8DC3084F812
:10A3A0005FB19DF8303094F878B184F8D930BBF1C2
:10A3B000000F05D0D4F8CC30D4F8F81098470EE050
:10A3C00094F85D3104EB8303D3F8F810E1B1D4F8CD
:10A3D000CC309847C0B1404B1B687BB900260023A6
:10A3E000032F84F8783147D0042F56D0002F58D14E
:10A3F0006B6801336B60002E42D05AE05A465146DA
:10A40000484698470646EAE7D4F8A8100029E6D05F
:10A410004846D4F8CC3098470028E0D0EE8B2BF09B
:10A42000A1FAD8F80030C01A864211D9E88BE88327
:10A43000FFF739FF022104F1AC002AF079FFD4F8CC
:10A44000D030002BCAD04846D4F8A8109847C5E7AA
:10A450002BF088FAD8F80030C01A80B2E7E794F8F9
:10A460005D3104EB8303D3F8F830002BB7D01B4BDE
:10A470001B68002BC3D1B1E7EB680133EB60D6B9A1
:10A480002C8C2BF06FFAD8F80030C01A844215D902
:10A49000288C288403B0BDE8F08FAB680133AB6033
:10A4A000A9E7AB690133AB61002EE9D017F0FB0FD0
:10A4B00001D12AF08BFF28F0F5FBE1E72BF052FAEF
:10A4C000D8F80030C01A80B2E3E700BFDC050021F5
:10A4D000E005002164060021080600210406002191
:10A4E000F8B5CB6B06460C460BB90120F8BD01212F
:10A4F000984705460028F8D0B06A2AF043FE114874
:10A50000114ED0F8903088302B44104D83602AF0E3
:10A51000D5FEAF8B2BF026FA3368C01A87420AD9D2
:10A52000A88BA883FFF7BFFE04F1240002212AF0C4
:10A53000D5FE0020DAE72BF015FA3368C01A80B296
:10A54000EFE700BF64060021DC050021E0050021E3
:10A550002DE9F04704462BF005FA424F424D386092
:10A5600028F08AFB82462CB1AB690133AB6128F03D
:10A5700099FB20E0DFF8F480866A98F8804006F1C5
:10A580009809022C44D0032C5AD0A4B9D6F8A8308C
:10A590001BBB96F85D3106EB8306D6F8F830ABB1FD
:10A5A000334B1B6813B14946984704462B68013367
:10A5B0002B60002C52D16C8C2BF0D4F93B68C01A64
:10A5C000844245D9688C6884BDE8F08703234946F6
:10A5D00088F88030FFF784FFE7E7012388F88030B0
:10A5E000B5F81C802BF0BEF93B68C01A804509D92C
:10A5F000A88BA883FFF74AFE2421D6F8A8002AF0EA
:10A60000DBFED3E72BF0AEF93B68C01A80B2F0E76F
:10A61000032388F880300E2296F8D910707BD6F884
:10A62000DC4027F0F4FB9634044449465046C8F811
:10A630009040FFF755FF2B69044601332B61B8E7C3
:10A640004946FFF74DFF6B69044601336B61B0E784
:10A650002BF088F93B68C01A80B2B4E72AF0B6FE46
:10A6600085E700BFDC050021E0050021640600212C
:10A670000C060021F8B51A4C1A4B866AC4F88830CB
:10A68000194B0F46C4F88C300423C4F894300023CF
:10A690000546A4F8803028F0FFFA0146F8B9D6F84C
:10A6A000D4300BB12846984738462AF06BFDAB688A
:10A6B0000E48C4F89030002384F880302AF0FEFD64
:10A6C000D6F8A83043B1FFF7E1FD06F1980002216A
:10A6D000BDE8F8402AF002BEFFF7E5FDF5E7F8BD5A
:10A6E0006406002151A5000145A30001EC060021EC
:10A6F00008B500220720074901F032F8002208209F
:10A70000054901F02DF8BDE8084024220021034846
:10A710002FF055BA75A60001BDA20001E005002189
:10A7200030B50446034D0FCD0FC40FCD0FC42B68B9
:10A73000236030BDE00500212AF04ABE2DE9F0413A
:10A740000F46984605462BF00DF9224C224E94F800
:10A7500080303060013384F8803028F08DFA002397
:10A76000826AD4F89C10C2F8A48082F8A870C4F859
:10A770009C30D2F8A0302A46984728F08DFA18B1BC
:10A780002AF024FE28F08EFA032D144C10D0042D4C
:10A7900012D0ADB9236801332360258B2BF0E2F88A
:10A7A0003368C01A85420FD9208B2083BDE8F08121
:10A7B000A3680133A360F0E7636801336360ECE7EB
:10A7C000236901332361E8E72BF0CCF83368C01A22
:10A7D00080B2EAE764060021DC05002110060021B2
:10A7E00070B50446866A08462AF0CCFC104D114B21
:10A7F00005F18800C5F88C30A368C5F89030D6F80C
:10A800009830C5F894302AF059FD0023204685F889
:10A810008030D6F89C30984728F03EFA30B128F0C6
:10A820002BFA18B1BDE8704028F03CBA70BD00BFEB
:10A83000640600213DA7000108B50C20054A064921
:10A8400000F08EFFBDE808401C22002103482FF0D5
:10A85000B6B900BF39A70001E1A700011006002129
:10A860002DE9FF411A4E0D46A6F898100221C6F8B0
:10A870009C00044601A8CDE902239DF828708DF8BC
:10A8800004102AF023FD96F8803003B137B1294631
:10A89000204604B0BDE8F0412AF068BD0D4E0E4FD1
:10A8A000B6F814802BF05EF83B68C01A804508D9D2
:10A8B000B38A29462046B38204B0BDE8F0412AF0AD
:10A8C0007BBD2BF04FF83B68C31A9BB2F1E700BF8A
:10A8D0006406002110060021DC05002170B50C463D
:10A8E0000546074E2AF072FD2046C6F890502AF021
:10A8F00049FC06F18800BDE870402AF0DFBC00BFCB
:10A90000640600212AF064BD70B504462BF02AF8D5
:10A91000144A154D92F880302860013382F8803057
:10A9200028F0AAF9836A2146104CD3F89C30984746
:10A93000E3680133E36028F0AFF918B12AF046FD6F
:10A9400028F0B0F9668B2BF00DF82B68C01A864200
:10A9500002D9608B608370BD2BF004F82B68C01A9D
:10A9600080B2F7E764060021DC0500211006002113
:10A9700070B50446866A08462AF004FC0E4D0F4B5B
:10A9800005F18800C5F88830A368C5F890302AF032
:10A9900095FC0023204685F88030D6F898309847FB
:10A9A00028F07AF930B128F067F918B1BDE87040A5
:10A9B00028F078B970BD00BF6406002109A9000124
:10A9C00008B50D20054A064900F0CAFEBDE808405A
:10A9D0001C22002103482FF0F2B800BF05A9000196
:10A9E00071A90001100600212DE9FF4104460D4622
:10A9F00093B1022102928DF8041001A803932AF06A
:10AA000065FC134B93F880304BB92946204604B0BF
:10AA1000BDE8F0412AF062BCCDE90133EDE70D4E0F
:10AA20000D4FB6F816802AF09DFF3B68C01A80458E
:10AA300008D9F38A29462046F38204B0BDE8F041E4
:10AA40002AF076BC2AF08EFF3B68C31A9BB2F1E76E
:10AA50006406002110060021DC05002130B5044603
:10AA6000034D0FCD0FC495E8070084E8070030BD03
:10AA7000100600211FB501238DF80430002301A822
:10AA8000CDE902332AF022FC05B05DF804FB00009A
:10AA90002DE9F04104460D4628F0EEF8836A1B7854
:10AAA0000A2B0BD1124B93F880303BB9FFF7E2FF32
:10AAB00029462046BDE8F0412AF010BC0D4E0E4F4D
:10AAC000B6F816802AF04EFF3B68C01A804509D9B7
:10AAD000F38AF382FFF7CEFF29462046BDE8F04116
:10AAE0002AF026BC2AF03EFF3B68C31A9BB2F0E76F
:10AAF000640600212C060021DC05002170B50C4EF7
:10AB000004460D46C6F89C00A6F8981028F0B4F844
:10AB1000836A1B780B2B0AD196F880303BB9FFF77C
:10AB2000A9FF29462046BDE870402AF01FBC70BD31
:10AB30006406002130B50446034D0FCD0FC495E8DF
:10AB4000070084E8070030BD2C06002170B50D46D3
:10AB500004462AF03DFC094BD3F89C1039B1002281
:10AB60002046C3F89C200222D5F8B43098472046EE
:10AB7000D5F8AC30BDE87040184700BF640600212E
:10AB80002DE9F04105460C46876A28F085F806460F
:10AB9000E0B920462AF0F6FA0D4C0E4B04F188007D
:10ABA000C4F888300C4BC4F88C30AB68C4F89030D3
:10ABB0000423C4F894302AF081FBD7F8A03084F83D
:10ABC00080601BB12846BDE8F0411847BDE8F08120
:10ABD00064060021DDAB0001B1AC00012DE9F043BA
:10ABE00085B005462AF0BEFE2E4F2F4E386028F065
:10ABF00043F8D0F828902946D9F8B03080469847D5
:10AC0000D6F89C10294C00293AD055BBA58A2AF0C9
:10AC1000A9FE3B68C01A85421DD9A08A0023A082E4
:10AC200001A8CDE9013303932AF050FBB6F8981040
:10AC3000D6F89C002AF0C0FBE3680133E360658B23
:10AC40002AF090FE3B68C01A854213D9608B60835E
:10AC500005B0BDE8F0832AF085FE3B68C01A80B2DB
:10AC6000DCE700230222C6F89C304046D9F8B43015
:10AC7000984708E02AF076FE3B68C01A80B2E6E703
:10AC80000DB92AF0A3FB96F8803023B928F00AF812
:10AC9000012386F88030002DCED023690133236153
:10ACA000CDE700BFDC050021640600212C06002151
:10ACB0002DE9F3470F4605462AF054FEDFF81481CC
:10ACC000C8F8000027F0D8FF0023866A9DF82820E6
:10ACD00086F8B870404F8DF80730D7F89C1086F88A
:10ACE000B920C7F89C302A46D6F8B43004469847B5
:10ACF00027F0D2FF8146002837D04FF0010927F016
:10AD0000CBFF40EA0900C0B280B1062D06D801236E
:10AD1000AB4013F0510F01D02AF058FB97F8803068
:10AD200023B927F0BFFF012387F880309DF8073053
:10AD300023B929462046D6F8A8309847032D274C3A
:10AD400035D0042D37D0002D39D12368013323604D
:10AD5000258B2AF007FED8F80030C01A854232D978
:10AD6000208B208302B0BDE8F0872046D6F89830CB
:10AD70000DF10701984782460028BED02AF026FB35
:10AD8000D6F89C300DF1070120469847A06A2AF0BA
:10AD9000F9F9D7F890005044C7F8900007F18800FF
:10ADA0002AF08CFA2046D6F8A4309847A7E7A36883
:10ADB0000133A360CCE7636801336360C8E72369AC
:10ADC00001332361C4E72AF0CDFDD8F80030C01A62
:10ADD00080B2C6E7DC050021640600212C060021B4
:10ADE00008B50A20054A064900F0BAFCBDE808404B
:10ADF0001C22002103482EF0E2BE00BF4DAB000133
:10AE000081AB00012C06002170B50D4604462AF0E6
:10AE1000DFFA094BD3F89C1039B100222046C3F861
:10AE20009C200222D5F8B43098472046D5F8AC30A3
:10AE3000BDE87040184700BF6406002101232DE9DA
:10AE4000F041876A054687F8B83083680846C7F836
:10AE5000C0300F4C0E462AF095F90E4B04F18800D5
:10AE6000C4F888300C4BC4F88C30D7F8C030C4F824
:10AE70009030D7F8C830C4F894302AF01FFA002375
:10AE8000284684F88030D6F8A030BDE8F041184755
:10AE9000640600211DB00001FDAE00012DE9F04166
:10AEA00006460C46904627F0F7FE074618B10127E4
:10AEB0003846BDE8F081414630462368984705464C
:10AEC0000028F4D02AF082FA414663683046984759
:10AED000B06A2AF057F9A36A07482B44A362B3600B
:10AEE000C0F89030236B8830C3602AF0E7F9304611
:10AEF000E3689847DCE700BF640600212DE9F043D2
:10AF000085B00F46984604462AF02CFD404E30602E
:10AF100027F0B2FE856A9DF8303085F8C47014F0D1
:10AF2000FB07814685F8C53007D1C5F8C08001A868
:10AF3000CDE9017703972AF0C9F995F8B830012BCC
:10AF400006D12FB9D5F8C03085F8B870C5F8BC3037
:10AF50004FF000082F4FD5F8B430D7F89C10224698
:10AF60004846C7F89C80984704F0FD03012B8DF8F4
:10AF700004800ED1484601AA05F19801FFF78EFF23
:10AF80009DF80430804623B921464846D5F8A830BC
:10AF9000984727F081FE40EA0800C0B280B1062C35
:10AFA00006D80123A34013F0510F01D02AF00EFA66
:10AFB00097F8803023B927F075FE012387F8803099
:10AFC000032C154D11D0042C13D0B4B92B680133C8
:10AFD0002B602C8B2AF0C6FC3368C01A844210D92F
:10AFE000288B288305B0BDE8F083AB680133AB60E4
:10AFF000EFE76B6801336B60EBE72B6901332B6183
:10B00000E7E72AF0AFFC3368C01A80B2E9E700BF77
:10B01000DC050021640600212C0600212DE9F74300
:10B0200005462AF09FFC374F4FF00009386027F0A3
:10B0300023FE0446866A2946D6F8B0309847204653
:10B040000DF1070206F198018DF80790FFF726FF32
:10B05000804655BB27F020FE40EA0800C0B258B138
:10B060002AF0B4F9284B93F880302BB927F01AFE58
:10B070000122254B83F880209DF8073023B929460B
:10B080002046D6F8A8309847204C8DBBE3680133A2
:10B09000E360658B2AF066FC3B68C01A85422BD9B9
:10B0A000608B608303B0BDE8F083012D12D10028CE
:10B0B000E2D0DFF85480D8F89C1031B1022220464B
:10B0C000D6F8B430C8F89C9098472AF07FF998F8E1
:10B0D0008030CAE7DFF83080D8F89C100029F6D01D
:10B0E00002222046D6F8B430C8F89C909847EEE784
:10B0F000236901332361CCE72AF034FC3B68C01A92
:10B1000080B2CEE7DC050021640600212C06002178
:10B1100008B50B20054A064900F022FBBDE80840AF
:10B120001C22002103482EF04ABD00BF09AE0001D9
:10B130003DAE00012C0600211FB501238DF804301F
:10B14000002301A8CDE902332AF0C0F805B05DF86C
:10B1500004FB00002DE9F04104460D4627F08CFD6C
:10B16000836A1B78042B0BD1124B93F880303BB9C8
:10B17000FFF7E2FF29462046BDE8F0412AF0AEB8CD
:10B180000D4E0E4FB6F816802AF0ECFB3B68C01A45
:10B19000804509D9F38AF382FFF7CEFF294620467E
:10B1A000BDE8F0412AF0C4B82AF0DCFB3B68C31AC2
:10B1B0009BB2F0E76406002148060021DC0500216F
:10B1C00070B50C4E04460D46C6F89C00A6F89810C3
:10B1D00027F052FD836A1B78052B0AD196F8803040
:10B1E0003BB9FFF7A9FF29462046BDE870402AF089
:10B1F000BDB870BD6406002130B50446034D0FCDC7
:10B200000FC495E8070084E8070030BD4806002118
:10B2100070B50D4604462AF0DBF8094BD3F89C10B4
:10B2200039B100222046C3F89C200222D5F8A43070
:10B2300098472046D5F89C30BDE87040184700BFBD
:10B240006406002170B5054608460E4C0E4629F0EE
:10B2500099FF0D4B04F18800C4F888300B4BC4F8FB
:10B260008C30AB68C4F890300423C4F894302AF0D2
:10B2700025F80023284684F88030D6F89830BDE8B9
:10B28000704018476406002145B3000191B20001E7
:10B2900070B50C4605462AF065FB274E306027F056
:10B2A000EBFC9DF81030826A82F8A930234B82F8BB
:10B2B000A84093F8801011B9012183F88010002470
:10B2C000D3F89C10C3F89C40D2F8A4302A46984783
:10B2D00027F0E2FC50B1062D06D80123AB4013F055
:10B2E000510F01D02AF072F827F0DCFC032D144C2A
:10B2F0000FD0042D11D0A5B9236801332360258B0D
:10B300002AF030FB3368C01A85420ED9208B208387
:10B3100070BDA3680133A360F1E763680133636024
:10B32000EDE7236901332361E9E72AF01BFB33686A
:10B33000C01A80B2EBE700BFDC05002164060021E3
:10B34000480600212DE9F04385B005462AF00AFBA6
:10B350002C4EDFF8B480306027F08EFCD0F82890B7
:10B360002946D9F8A03007469847D8F89C10274CB2
:10B3700000293CD065BBA58A2AF0F4FA3368C01ACC
:10B3800085421FD9A08A01238DF804300023A082B2
:10B3900001A8CDE9023329F099FFB8F89810D8F840
:10B3A0009C002AF009F8E3680133E360658B2AF01A
:10B3B000D9FA3368C01A854213D9608B608305B00F
:10B3C000BDE8F0832AF0CEFA3368C01A80B2DAE71B
:10B3D00000230222C8F89C303846D9F8A430984798
:10B3E00008E02AF0BFFA3368C01A80B2E6E70DB968
:10B3F00029F0ECFF27F056FC002DD4D0236901334F
:10B400002361D3E7DC050021640600214806002102
:10B4100008B50420054A064900F0A2F9BDE8084035
:10B420001C22002103482EF0CABB00BF11B200014C
:10B4300045B200014806002170B50D46044629F0CA
:10B44000C7FF094BD3F89C1039B100222046C3F83E
:10B450009C200222D5F8A83098472046D5F8A03085
:10B46000BDE87040184700BF640600212DE9F04197
:10B470000546876A08460F4C0E4629F083FE0E4BA0
:10B4800004F18800C4F888300C4BC4F88C30AB68E9
:10B49000C4F89030D7F89830C4F8943029F00EFFF3
:10B4A0000023284684F88030D6F89C30BDE8F0416F
:10B4B000184700BF6406002179B50001C1B400013E
:10B4C000F8B50C461F4605462AF04CFA274E306068
:10B4D00027F0D2FB826A9DF8183082F8B040244CE5
:10B4E00082F8B13094F8803023B90123C2F8AC70EF
:10B4F00084F880300023D4F89C10C4F89C30D2F833
:10B50000A8302A46984727F0C7FB50B1062D06D829
:10B510000123AB4013F0510F01D029F057FF27F062
:10B52000C1FB032D134C0FD0042D11D0A5B92368F6
:10B5300001332360258B2AF015FA3368C01A85423F
:10B540000ED9208B2083F8BDA3680133A360F1E7F7
:10B55000636801336360EDE7236901332361E9E741
:10B560002AF000FA3368C01A80B2EBE7DC0500214C
:10B5700064060021480600212DE9F04385B080468D
:10B580002AF0F0F92D4D2E4E286027F075FBD0F8EB
:10B5900028904146D9F8A43007462A4C9847B8F17C
:10B5A000000F29D1D6F89C300BB3A78A2AF0DAF91C
:10B5B0002B68C01A874214D9A08A01238DF8043061
:10B5C0000023A08201A8CDE9023329F07FFEB6F85E
:10B5D0009810D6F89C0029F0EFFEE3680133E36091
:10B5E0001AE02AF0BFF92B68C01A80B2E5E729F00B
:10B5F000EDFE27F057FBF0E7D6F89C1039B1002399
:10B600000222C6F89C303846D9F8A830984727F06F
:10B6100049FB236901332361668B2AF0A3F92B6868
:10B62000C01A864204D9608B608305B0BDE8F08300
:10B630002AF098F92B68C01A80B2F5E7DC050021E2
:10B64000640600214806002108B50520054A064980
:10B6500000F086F8BDE808401C22002103482EF0C7
:10B66000AEBA00BF39B400016DB400014806002134
:10B67000816A034B0A7853F8323003B11847704798
:10B6800064060021816A044B0A7803EBC2035B68FD
:10B6900003B11847704700BF6406002129F0A2BE1D
:10B6A00029F06EBD08B529F06BFDBDE8084000200B
:10B6B00029F092BE08B529F055FD002029F08AFE38
:10B6C000BDE80840012029F087BE08B529F04AFDF1
:10B6D000BDE80840002029F07DBE08B529F042FDF4
:10B6E000BDE80840012029F075BE000073B5134C79
:10B6F000134D144E29F02EFD224629460120124BEF
:10B70000009627F0FBFA2246294602200F4B0096AE
:10B7100027F0F4FA0E4B2246009300210D4B032034
:10B7200027F0ECFA01200C4927F0F6FAA0220021BC
:10B730000A4802B0BDE870402EF041BA85B600015B
:10B7400071B60001A1B60001DBB60001CBB6000165
:10B75000A5B60001B5B600019DB600016406002142
:10B76000034B43F8301003EBC0035A60704700BF2F
:10B77000640600212DE9FF41D3E9008604461746FF
:10B780001D461078002C3ED010B34FEA162C0CF05A
:10B79000C00CBCF1400F1BD1404669B1314600F0EE
:10B7A000A3FD38B12B463A464046314600F00CFD29
:10B7B000002846D0012008E0314600F087FC002830
:10B7C000F8D1214AD38B0133D38304B0BDE8F08193
:10B7D0004246334600F09EFD0238C0B20128E9D847
:10B7E0000DF10F0300933878D5E9002300F020FC19
:10B7F00010B19DF80F3023B90224134A138B013383
:10B8000013832046E1E720B1330A03F0C003402B45
:10B81000D0D04246334600F07DFD02380128C9D819
:10B820000DF10F0300933878D5E9002300F000FCF8
:10B8300018B19DF80F30002BBCD1034A138B013394
:10B8400013830220C1E700BF040700212DE9F04166
:10B85000884617461E46044658B152EA06030E4D66
:10B860000AD100F0B1FF012806D10446EB8801336C
:10B87000EB802046BDE8F0813A463346404600F072
:10B8800021FF20B9AB8802240133AB80F1E7EB88BC
:10B890000133EB80EDE700BF0407002137B5DDE998
:10B8A000065410B9002003B030BDCAB1230A03F01A
:10B8B000C003402B14D129B1284621460AAB08AA5F
:10B8C00000F0DCFCDDE90A232846CDE9002321460F
:10B8D0009DF8202000F032FC003818BF0120E2E77C
:10B8E0009DF82000DDE90A2300F025FD0238C0B2F2
:10B8F0000128D7D8024A0220538B01335383D2E761
:10B90000040700212DE9F04F90F800800D8808F021
:10B910000F0845FA08F515F0010581460F469246D5
:10B920001C466E4E87B006D13388013333802846DB
:10B9300007B0BDE8F08F4FF4C07B72884BFA08FB6C
:10B9400001321BF0010B4378728001D00125EEE734
:10B9500003F03F03637484F8108010F8025B27F053
:10B9600069FEC5F38015E574A574C4E90201C4E954
:10B9700000017868514604F1080304F11302C0F392
:10B980008010FFF7F7FE0128054602D0022839D0C3
:10B990005D46D4E90223D7F804C094F813E01CF004
:10B9A000040B0ED0D7E90410834208BF8A4203D1AA
:10B9B000CCF3C00CE64527D04FF0020B30890130A4
:10B9C00030817888714640FA08F000F00100FFF7F6
:10B9D0003DFF584523D2D7F804C01CF0040F1CD0FB
:10B9E000D7E90413A068E2689A4208BF884204D1EC
:10B9F000E37CCCF3C00C63450CD033890133338135
:10BA0000012D1AD1002592E770894FF0010B01300A
:10BA10007081D6E773890133738101250DE0788841
:10BA2000E17C40FA08F000F00100D4E90223FFF7BE
:10BA30000DFF0128F1D90228E2D04FF0010BB8F137
:10BA4000050F257584F815B080D80BFA08F818F0A2
:10BA50002A0F3FF47BAF484610F8085B27F0EAFD59
:10BA6000D4E902238146CDE904237868E37CED091B
:10BA7000CDE9009188462A4651460293C0F3001052
:10BA8000FFF70CFF01283FF461AF0228BAD07B68B2
:10BA9000DA077FF55BAFD7E90212424508BF494597
:10BAA00003D1C3F34002AA4213D0B2890132B2815A
:10BAB000002DA7D04FEA182808F0C008B8F14008B8
:10BAC000A0D19B069ED5338C0133338484F8158036
:10BAD0002DE7F3890133F38138E700BF0407002124
:10BAE0002DE9F04F07461C4608883B7C0E4618415E
:10BAF00010F001009046624D87B005D12B880133CC
:10BB00002B8007B0BDE8F08F6B8801336B80D7E9DD
:10BB10000023C4E90223C4E90023BB7C04F113021F
:10BB2000E374A374486804F108034146C0F380102D
:10BB3000FFF720FE0128814603D002283DD04FF0B8
:10BB40000009D4E90223D6F804C094F813E01CF0ED
:10BB5000040A0ED0D6E90410834208BF8A4203D1FA
:10BB6000CCF3C00086452AD04FF0020A2889013064
:10BB70002881708897F810C0714640FA0CF000F0E8
:10BB80000100FFF763FE504525D2D6F804C01CF033
:10BB9000040F1DD0D6E90413A068E2689A4208BFDA
:10BBA000884204D1E37CCCF3C00C63450DD02B89D3
:10BBB00001332B81B9F1010F1BD10020A1E7688966
:10BBC0004FF0010A01306881D3E76B8901336B8143
:10BBD0004FF001090DE03B7C7088E17C184100F0DA
:10BBE0000100D4E90223FFF731FE0128F0D9022831
:10BBF000E0D04FF0010A84F8149084F815A07B7C03
:10BC0000990701D401207CE797F81390D4E9022327
:10BC1000D7E902B77068CDE90423E37C4A46414680
:10BC2000CDE900B70293C0F30010FFF737FE0128FB
:10BC30003FF467AF0228C0D07368DA07E2D5D6E9CF
:10BC40000212BA4208BF594503D1C3F340024A4524
:10BC500011D0AA890132AA81B9F1000FADD03F0AF3
:10BC600007F0C007403FA8D19B06A6D52B8C013317
:10BC70002B846775C6E7EB890133EB81C2E700BF10
:10BC800004070021054B03F1240253F8041B9342DF
:10BC900040F8041BF9D11B8803807047040700217A
:10BCA0002DE9F04100240C4BDFF8308005460846B2
:10BCB0000E4617461C7088F8004027F017FE084B08
:10BCC000186000EB0513991BB9428EBF204688F817
:10BCD000005088B2BDE8F0812A0700212B0700211F
:10BCE0002C070021F0B500240D499DF814C00D78F3
:10BCF0000C490968A54201D80020F0BD0E7A8642A1
:10BD000008D1D1E900769E4208BF974202D14E7A0F
:10BD1000664502D001341031ECE70120EDE700BFA9
:10BD20002A0700212C070021014B1878704700BF1B
:10BD30002B0700210022014B1A7070472A070021AF
:10BD400030B50B490B4D09782C78A1420DD90A4921
:10BD5000096801EB041108720120C1E900239DF874
:10BD60000C3001344B722C7030BD0020FCE700BF5A
:10BD70002B0700212A0700212C0700212DE9F04183
:10BD80001B4C8446276800253C46DFF868E09DF898
:10BD900018809EF80010EEB2B14201D8002021E0D8
:10BDA000267A664520D1D4E900069E4208BF90421B
:10BDB0001AD1667A464517D1012901F1FF300ED913
:10BDC00085420CD001F18051013907EB01110B7A4A
:10BDD0002372D1E90023C4E900234B7A63728EF801
:10BDE00000000120BDE8F08101351034D3E700BF29
:10BDF0002C0700212A070021F0B50C4943EA004333
:10BE00000D780B490C680021C8B2854201D800208A
:10BE10000AE02046D0E908769E4208BF974201F129
:10BE2000010104F14804EFD1F0BD00BF3407002147
:10BE30005C07002130B585B00C4605461022002174
:10BE400068462DF0BCFE6A46230A28468DF800405D
:10BE50001146240C8DF801308DF8024029F0E6FBE4
:10BE60009DF802309DF801001B0443EA00239DF871
:10BE70000000184305B030BD13B5042104460DEB96
:10BE8000010029F08FFC01992046C1F3150141F40E
:10BE900080010191FFF7CEFF019940EA0160090A94
:10BEA00002B010BD2DE9F04100240D4BDFF83480C5
:10BEB000054608460E4617461C7088F8004027F0D5
:10BEC00015FD4821084B186001FB0503991BB94279
:10BED0008EBF204688F8005088B2BDE8F08100BFD0
:10BEE00034070021350700215C070021014B186051
:10BEF000704700BF30070021014B1878704700BF22
:10BF0000350700210022014B1A70704734070021C9
:10BF1000F8B507461D46FFF76FFF1646044680B981
:10BF20002E4A2F4913780978994201D80020F8BD8C
:10BF300048202C490C6800FB034401331370002C8B
:10BF4000F4D0224645EA0745069BC4E9086503F19B
:10BF5000100153F8040B8B4242F8040BF9D1012372
:10BF600004F10F0284F84030631E13F8011F71B30F
:10BF7000002384F8403004F110000246079B03F1CF
:10BF8000100153F8045B8B4242F8045BF9D10123A2
:10BF900084F84130034604F1200213F8011BC9B1B3
:10BFA000002384F8413000230022C4E90A23C4E9B5
:10BFB0000C23C4E90E230023A4F8423094F8413046
:10BFC0001BB9FFF759FFC4E90C010120AFE79A4202
:10BFD000CBD1D0E79A42E0D1E5E700BF340700219A
:10BFE000350700215C07002138B5FFF705FF78B160
:10BFF000084D2C78012C08D9482202FB04F306498D
:10C00000483B096819442DF0B3FD0120013C2C7018
:10C0100038BD00BF340700215C07002108B5FFF7D9
:10C02000EBFE20B19DF8083080F84330012008BDB8
:10C0300008B5FFF7E1FE20B190F843200120029BF4
:10C040001A7008BD10B5029CFFF7D6FE40B1D0E9CA
:10C050000A2352EA030116BF01200020C4E900238D
:10C0600010BD10B5029CFFF7C7FE40B1D0E90C230C
:10C0700052EA030116BF01200020C4E9002310BDCD
:10C0800008B5FFF7B9FE28B1029BD3E90023C0E948
:10C090000C23012008BD10B5FFF7AEFE044698B191
:10C0A00090F8403083B990F8423033B9FFF7E4FE9E
:10C0B0000123C4E90A0184F84230029BD4E90A0151
:10C0C000C3E90001012010BD0020FCE7F7B5002600
:10C0D000174C94F800C0174C25683446F7B2BC459D
:10C0E0000CD8ECB1144C2468D4B1D3E90067CDE985
:10C0F000006713780122A047002411E095F84070F2
:10C1000097B9D5E90A748C4208BF87420BD1012444
:10C11000E98C01F001011170296AAA8CC3E90012AF
:10C12000204603B0F0BD012401364835D6E700BFF4
:10C13000340700215C070021300700212DE9F34777
:10C14000DDE90A679146804632463B4648460D4641
:10C15000FFF752FEC8B190F84140B4B9D0E90E23C0
:10C16000AB4208BF424512D00A4BD3F800A0BAF147
:10C17000000F06D04B46224640462946CDE90067CF
:10C18000D047204602B0BDE8F0870024F9E701243B
:10C19000F7E700BF3007002138B505461046DDE956
:10C1A00004230C46FFF728FE50B190F8413043B904
:10C1B000D0E90E23A34208BFAA420CBF01200020F1
:10C1C00038BD0020FCE700002DE9F74F0E4605467C
:10C1D0001F464FF000084FF0480B010E41EA0621C0
:10C1E000DFF888A021F07F41214B5FFA88F41B78AB
:10C1F000A3420DD81F4A2049137801EBC30041F830
:10C200003350013303F0030346601370002026E02F
:10C21000DAF800300BFB043494F84090B9F1000FC9
:10C2200020D1D4E90A03B34208BFA8420ED0204669
:10C23000CDE90012FFF7FEFDDDE9001225F07F4396
:10C2400083420FD1C4E90A5684F842900120E38C5E
:10C2500003F001031370226AA38CC7E9002303B023
:10C26000BDE8F08F08F10108BEE700BF5C070021C0
:10C2700034070021580700213807002170B50E4609
:10C280001146D3E9002305460878FFF7B5FD0446BB
:10C29000C0B190F84130ABB9D0E90E23B34208BF2A
:10C2A000AA420DD0290E41EA062121F07F4110302B
:10C2B000FFF7C0FD25F07F43834203D1C4E90E564A
:10C2C00001200CE0064A0749137801EBC30041F84E
:10C2D000335046600020013303F00303137070BD38
:10C2E0005807002138070021042330B5084AD2E955
:10C2F00000548C4208BF854202F1080205D0013B80
:10C3000013F0FF03F3D1012030BD0020FCE700BF94
:10C310003807002108B5FFF76FFD48B1D0E90A23BF
:10C32000134306D190F84030002B14BF01200220A7
:10C3300008BD0320FCE708B5FFF75EFD48B1D0E972
:10C340000C23134306D190F84130002B14BF012079
:10C35000022008BD0320FCE72DE9F04100254FF045
:10C360004808124E124F3378ECB2A34201D8BDE810
:10C37000F0813B6808FB043494F841302BB904F198
:10C380001000FFF779FDC4E90C0194F840303BB987
:10C3900094F8423023B12046FFF76EFDC4E90A014C
:10C3A000012384F844301D44DDE700BF3407002139
:10C3B0005C0700212DE9F047174600254FF0480A99
:10C3C000DFF85C80DFF85C9043EA004698F80030C4
:10C3D000ECB2A34201D8BDE8F087D9F800300AFBDF
:10C3E0000434D4E90823B34208BFBA4216D194F802
:10C3F00041302BB904F11000FFF73EFDC4E90C01F8
:10C4000094F840303BB994F8423023B12046FFF70E
:10C4100033FDC4E90A01012384F844300135D5E72E
:10C42000340700215C07002108B5FFF7E5FC03464F
:10C4300020B1002290F8440083F8442008BD08B5DC
:10C44000FFF7DAFC003818BF012008BD1FB5002334
:10C4500001A8CDE90133039328F038FF05B05DF85A
:10C4600004FB000030B5144B144D85B0C5F888307E
:10C47000134B0C46C5F88C3083680846C5F89030DD
:10C48000D1F89830C5F8943028F07CFE05F188008A
:10C4900028F014FF03238DF80430002301A8CDE910
:10C4A000023328F013FFB4F8A410D4F8A00028F049
:10C4B0005DFF05B030BD00BF41C50001640600212D
:10C4C000C5C400017FB504460E4626F0D5FB38B33F
:10C4D000856A214685F8A66014F0FB06D5F89C30E5
:10C4E00010D1984778B1032301A8CDE902668DF8F1
:10C4F000043028F0EBFEB5F8A410D5F8A00028F021
:10C500005BFF04E0984728F061FF26F0CBFB032C8B
:10C510000A4B07D0042C09D064B91A6801321A609A
:10C5200004B070BD9A6801329A60F9E75A68013226
:10C530005A60F5E71A6901321A61F1E760070021D4
:10C54000F7B5054626F098FB1D4F0646846A25BBC5
:10C5500028F03CFF29463046D4F89830984718B365
:10C56000184DB4F8A220D5F8903020461344C5F8F1
:10C57000903028F007FE05F1880028F09FFEFFF7B5
:10C5800065FFB4F8A0300121ADF80030D4F89C303C
:10C590006846019328F0A2FE09E028F017FF29461B
:10C5A0003046D4F89830984726F07CFB25B9FB68D4
:10C5B0000133FB6003B0F0BD3B6901333B61F9E738
:10C5C000600700216406002137B50C460F4D104B63
:10C5D000C5F888300F4BC5F88C3083680846C5F81D
:10C5E000903028F0CFFD05F1880028F067FEFFF7B6
:10C5F0002DFFB4F8A0300121ADF80030D4F89C3004
:10C600006846019328F06AFE03B030BD640600213D
:10C6100041C50001C5C4000108B528F0D9FEBDE838
:10C62000084026F03FBB000010B5094C0020224610
:10C630000849FFF795F8224601200749FFF790F8CF
:10C64000BDE810401C22002104482DF0B8BA00BFFC
:10C6500019C60001C9C5000165C4000160070021B9
:10C6600030B50446034D0FCD0FC495E8070084E8AC
:10C67000070030BD600700212DE9F04100240D4B7B
:10C68000DFF834801C700D4B054608460E461746F1
:10C690001C7088F8004027F029F9094B186000EB5E
:10C6A000C503991BB9428EBF204688F8005088B256
:10C6B000BDE8F0817D0700217E0700217C07002175
:10C6C0008007002130B50B4943EA00430A48096856
:10C6D000047801EBC404A14201D1002030BDD1E9AE
:10C6E0000050984208BF954201F10801F3D10120A2
:10C6F000F4E700BF800700217D070021014B187877
:10C70000704700BF7E0700210023024A1370024ACF
:10C71000137070477D0700217C07002170B5064625
:10C7200015461C46FFF7CEFF80B9094B094A197818
:10C7300012788A420BD9084A44EA0644126802EB8E
:10C74000C10042F83150013144601970012070BDC0
:10C750007D0700217E0700218007002143EA004376
:10C760001148F0B50468DFF844C025469CF8001075
:10C7700004EBC10E754501D1002014E02846D0E934
:10C7800000769E4208BF974205F10805F2D10129C3
:10C7900005D904EBC10454E90223C0E900230120B8
:10C7A00001398CF80010F0BD800700217D070021C1
:10C7B0000122014B1A7070477C0700210022014BB7
:10C7C0001A7070477C070021014B1878704700BF32
:10C7D0007C07002137B5044625F0AEF80022144B43
:10C7E0009C42144B0CBFDA701A7194F8423003F07B
:10C7F000FD03012B01D125F0AFF820460CF0D8FB4A
:10C8000004F1280528460DF1070127F095F840B9F5
:10C81000303420460DF1070127F08EF820B903B01F
:10C8200030BD27F071F8EDE727F06EF8F1E700BFB3
:10C83000580D00213852002138B5164C164B174AB6
:10C840001D6804F13C0392E8030083E8030004F14F
:10C85000480029790CF0DFFC012026F097F925F03B
:10C8600063F801230E4DEB7094F8423003F0FD03A2
:10C87000012B01D125F068F80CF0BCFB002001234E
:10C88000687184F85032A4F84E32BDE8384024F084
:10C89000F0BF00BF580D0021500D002110530021A2
:10C8A00038520021054BDB7833B10123044880F86E
:10C8B00099309C3026F066BD704700BF3852002189
:10C8C000580D0021002024F0D4BF0C2024F0D1BF4B
:10C8D00008B5012026F070F9BDE808400148FFF7CF
:10C8E00079BF00BF580D002108B5012026F064F97A
:10C8F0000348FFF76FFFBDE80840002024F0B9BFF0
:10C90000580D0021FFF7E4BF034B1A68034B506832
:10C91000916803C3704700BF500D002110530021E0
:10C9200008B5084B08481B68197990F888308B4285
:10C9300002D048300CF06FFCBDE80840002024F025
:10C9400098BF00BF500D0021580D002110B50446BE
:10C95000012026F031F9A37B03F0FD03012B01D167
:10C9600024F0FAFFD4F8C80120B126F0CDFF00234F
:10C97000C4F8C831D4F8D00120B126F0C5FF002397
:10C98000C4F8D031034AD378013BD370BDE81040DE
:10C9900024F0D2BF3852002138B505460F4C012093
:10C9A00026F00AF92C1B0E48EB68E41044430BB147
:10C9B000A0B298470434E0B226F05AF895F87033E4
:10C9C0000BB124F0D9FF24F0B7FFD5F85C0308B110
:10C9D00026F09AFF00232B7038BD00BFB01D002148
:10C9E0004DF833E138B50C460546122200212046A9
:10C9F0002DF0E5F8204695F8D83300F8023BD5E94C
:10CA0000F82326F01DFE95F8D9330E4A637095F889
:10CA100020342372D5F8E431A3FB0232DB0F43EA62
:10CA20004203638195F8E831237395F8F832637314
:10CA300095F8F932A37395F8FA32E37395F8FB325F
:10CA4000237438BDE3361A0038B50446012026F0B9
:10CA50009DF8A37B03F0FD03012B01D124F074FFAB
:10CA6000002320466370A370A4F8003184F83C30A2
:10CA70000CF00CFF054620B920460DF021F80546C4
:10CA800040B1284625F04EF82046BDE83840032145
:10CA90000DF0F0B9074AD3780133D37024F044FF86
:10CAA0000123284684F86830A4F86630BDE8384091
:10CAB00025F038B838520021002025F033B80000A6
:10CAC00030B4027C0121022A18BF00220C4C817074
:10CAD000657895420AD190F8002122B900F582705C
:10CAE00030BC26F04FBC00F52C70F9E701FA02F2D9
:10CAF000217821EA02022270032130BC0DF0BAB97C
:10CB0000B00F0021002025F00DB8000010B5094C31
:10CB10006378012B04D9BDE810400C2025F002B841
:10CB200004F1600027F0EBF804F17000BDE810405C
:10CB300027F0E5B838140021034B5B7813B10C20C3
:10CB400024F0F0BF704700BF38140021024B587822
:10CB500000B10C2024F0E6BF3814002108B5FFF71F
:10CB6000F5FE044B5B7823B1BDE80840002024F0BB
:10CB7000D9BF08BD3814002138B51E4B01201C68F0
:10CB800026F004F823790BB124F0EEFE23791A4D38
:10CB90002B72D4E90223C5E90423E379AB72A379AC
:10CBA0006B72637D2B760DF01BFDD8B12862237963
:10CBB00080F87033A37980F87133E37980F87233A9
:10CBC000D4E90223C0E9DE230A22238AA0F86833CD
:10CBD000638A5343C0F86C330B23437263798371C8
:10CBE000237DC371286A0DF015FABDE8384024F0A2
:10CBF0009BBE00BFFC360021A0360021034B5A78B3
:10CC0000012A04BF00225A70704700BFA0360021DD
:10CC1000084B186A90F85B230AB9012202715B780D
:10CC2000012B03D1C370303026F0ACBB05210DF0D1
:10CC30003BB900BFA036002130B5104C87B06378F7
:10CC4000012B07D10025206AC3700571303026F012
:10CC500099FB6570206A01A9FFF7C4FE236A0849A1
:10CC6000084A591AC91051433E2093F8213401AAA9
:10CC700089B224F08DFF07B030BD00BFA03600217F
:10CC8000B01D00214DF833E130B52F4C87B06378EB
:10CC9000206A012B04BF00236370FFF77DFE256A25
:10CCA0002B7983B11222002101A82CF088FF27499B
:10CCB000274B691AC9105943442095F8213401AA19
:10CCC00089B224F065FF256A95F85B33BBB1217A00
:10CCD00011F0010115D1122201A82CF070FF1B499F
:10CCE0001B4B691AC91059431A2095F8213401AA1F
:10CCF00089B224F04DFF0022236A83F85B2307B03A
:10CD000030BD182026F0F8FD01460028F3D040F28F
:10CD10000B134380D4E90423C0E90223A37AC3712F
:10CD2000637A8371237A0371236A9A794271B3F823
:10CD30006823D3F86C3302824382237E4375054B0C
:10CD4000187B26F0EAFDD6E7A0360021B01D0021B1
:10CD50004DF833E1805200212DE9F043534B85B06B
:10CD60001D680DF03DFC0446002800F09C80012069
:10CD700025F00CFF002184F8701395F820304C4FFB
:10CD800084F8713395F821304A4E84F87233D5E92E
:10CD90000A23C4E9DE2395F82330384684F820348A
:10CDA0004FF47A73C4F86C330C233461A4F868131D
:10CDB0006372A91D18F082FA40F2E242BB88534325
:10CDC000C4F8E43195F8203084F8D83395F8213050
:10CDD00084F8D933DB07D5E90A01C4E9F8011CD589
:10CDE0000B0A03F0C003403B17D14FF000084FF08F
:10CDF00000098DF807300DF1070202ABCDE9028979
:10CE0000FFF7E2F948B19DF8073043F0020384F8D8
:10CE1000D933DDE90223C4E9F82395F832303069CB
:10CE200084F821346B6BC4F8F43295F8383084F808
:10CE3000F83295F8393084F8F93295F83A3084F8B8
:10CE4000FA3295F83B3084F8FB320DF0E3F894F8B1
:10CE5000213463B1184B6A6B1B68A364174B1B68C2
:10CE6000E364174B1B68C4F80831A36D9A6724F07C
:10CE70005BFDAB88288BB3806B8B7080F380AB8BB2
:10CE800033812B8E738195F822303373EB8BF381D2
:10CE90006B6B7361AB6BB3610DF0B2F905B0BDE8BC
:10CEA000F04306F003B805B0BDE8F083FC3600217E
:10CEB00000370021C8360021CC070021C40700211B
:10CEC000C007002170470000012310B5064C2069FF
:10CED000C370303026F056FA21693E20BDE810407C
:10CEE00091F821240DF0FEBBC8360021034B1869D0
:10CEF0000123303000F82D3C26F044BAC83600211A
:10CF0000044B1869C378012B04BF0023C370FFF7DB
:10CF100043BD00BFC836002110B5437A04460B2B31
:10CF200086B010D101A9FFF75DFD0C490C4B611AC9
:10CF3000C9105943002094F8213401AA89B224F081
:10CF400027FE06B010BD0C2BFBD1014690F8212422
:10CF5000002006B0BDE810400DF0C4BBB01D00219C
:10CF60004DF833E10123303000F82E3C26F00ABAA8
:10CF7000FFF712BD012310B504468370303026F050
:10CF800001FA04F5727026F0BAFE0548201A054C25
:10CF9000C0106043BDE8104080B224F02BBE00BF3B
:10CFA000B01D00214DF833E1F8B50579C388012D96
:10CFB0001AD0022D21D0B5B94FF4856253431349DD
:10CFC0000688CC18B4F830224088921B82420ADCD2
:10CFD000D4E98A6703F56473C4E9E467C81824F0E8
:10CFE00003FD84F82052F8BD4FF48562074802FB28
:10CFF0000303002283F88822F5E74FF48562034893
:10D0000002FB0303002283F8F022ECE7B01D0021AD
:10D0100008B524F091FC0022054B5A70054B93F89B
:10D0200021301BB1BDE8084024F096BC08BD00BF0C
:10D03000385200215853002108B5012025F0A6FDE3
:10D0400024F072FC0122074B5A70074B93F82130F1
:10D050000BB124F079FC0DF06BFCBDE8084000201A
:10D0600024F0F8BB385200215853002108B50120A4
:10D0700025F08CFD24F058FC0122064B5A70064B1B
:10D0800093F821300BB124F05FFCBDE808400DF0AF
:10D090004FBC00BF3852002158530021054B5B782C
:10D0A00033B10123044880F829302C3026F06AB9C6
:10D0B000704700BF3852002148370021002024F07B
:10D0C000C9BB0C2024F0C6BB2DE9F041634B8AB0EC
:10D0D0005B78002B00F0BE80614D95F82860002E33
:10D0E00000F08C80D5F8F480B8F1000F00F081805A
:10D0F000012205F5887305F1D8014046FEF702FCD0
:10D100000646682026F0F8FB0446002800F09E80C2
:10D1100000F10807384608F1020118F09AFA38467B
:10D1200018F0EEFA00B196B9204626F0EDFB042087
:10D1300026F0E2FB014630B14FF441734380494B86
:10D14000187B26F0EAFB012025F036FD51E0002394
:10D15000A370D5F8D831A36395F8233184F83C3017
:10D1600095F822219A4207D1D5E94661D5E94402D2
:10D17000914208BF864203D043F0020384F83C305A
:10D180000020D5E946230021C4E91223C4E9140193
:10D1900095F8230195F82211884207D1D5E9467008
:10D1A000D5E94461884208BFB74203D0D5E94401BC
:10D1B000C4E9140194F83C0014F01CFB0028B3D11E
:10D1C000294B2146D3E91C23C4E9162395F82A30BC
:10D1D00084F8410084F83D300123E387FF2384F87D
:10D1E00060304FF6FF73A4F862301E4B187B26F0B8
:10D1F00094FB0AB0BDE8F041FFF70ABF1A4C0DF0EE
:10D20000D1FC257C012D9ED13146232268462CF08D
:10D21000D6FC43F60543ADF802303C238DF80430CC
:10D22000A37C0DF10A008DF80930FF238DF823301F
:10D230004FF6FF73ADF82430D4E906238DF808507B
:10D2400026F0FEF9684624F0FDFA7CE7002E3FF454
:10D250006EAFCEE70AB0BDE8F08100BF38520021C2
:10D2600048370021805200215853002108B5012081
:10D2700025F0A2FCFFF7CCFE0DF094FCBDE80840C1
:10D28000002024F0E7BA08B5012025F095FCFFF74F
:10D29000BFFEBDE808400DF085BC000010B5044697
:10D2A000012025F089FC074B1868201A064C401114
:10D2B00060430430C0B225F02DFBBDE8104024F0DF
:10D2C0003BBB00BFF03B00219F5BE2D410B504469E
:10D2D000D0F8E00A28B1043826F016FB0023C4F881
:10D2E000E03AD4F8240928B1043826F00DFB0023D5
:10D2F000C4F8243994F83B300BB124F02DFB024ADA
:10D300009378013B937010BD3852002138B5044624
:10D310001F4D012025F03AFC2A682046137A84F834
:10D32000CC33002384F8CD3384F8CE3384F85438DA
:10D3300084F856385168C4F8D0330EF061FE0146C7
:10D3400040B1607824F064FC2046BDE838400421F8
:10D350000EF010BD0F4A93780133937094F83B3070
:10D360000BB124F0F1FA2B68596851B14FF47A727D
:10D37000636A0A39B3FBF2F304F56F70C91A26F039
:10D38000B8FC60780021BDE8384024F041BC00BF03
:10D39000043C00213852002138B504461C4D0120C0
:10D3A00025F0F4FB2A682046137A84F8CC33002356
:10D3B00084F8CD3384F8CE3384F8543884F8563862
:10D3C0005168C4F8D0330EF01BFE014640B16078BE
:10D3D00024F01EFC2046BDE8384004210EF0CABCF3
:10D3E0002B685B6893B14FF47A71626A4B4302F524
:10D3F0009C520832B3FBF2F3013B534304F56F70C8
:10D40000B3FBF1F1BDE8384026F073BC38BD00BF76
:10D41000043C002170B5134D00F56F76044630468C
:10D4200026F06DFC2B685B687BB14FF47A71626A01
:10D430004B4302F59C520832B3FBF2F3013B5343DA
:10D440003046B3FBF1F126F054FC00212B686078E4
:10D450001B7A84F8CD1384F8CC33BDE8704024F0F7
:10D46000D7BB00BF043C002110B5044600F56F7027
:10D4700026F045FC002384F8CE33012384F8563887
:10D4800010BD0021407824F0C3BB0C21407824F06B
:10D49000BFBB0000F0B590F8543804469FB0002B95
:10D4A00039D100F56F7026F02AFC2046FFF70EFFF9
:10D4B000012025F081FB94F8CC2394F8CD3322B1E0
:10D4C000934224BF432284F8CE23002294F8CE1343
:10D4D000607824F0DEF9238C03F01D031D2B18D196
:10D4E000FF234FF6FF7200200021CDE908323C23D4
:10D4F0000022CDE90401CDE90632CDE90201D4E9EB
:10D500000C0194F83A30CDE900010121607801F076
:10D5100051FC1FB0F0BDD0F824697C4F002E7ED0A6
:10D5200000F5146300F6081101223046FEF7EAF90F
:10D53000002800F0D780682026F0DEF90546002894
:10D5400000F0D0806378314603800023837012A8F6
:10D5500018F056F8311805F1080018F07AF8D4F8E8
:10D560002439002B00F0898094F853C904F5146124
:10D5700085F83CC094F85239634508D1D1E902627C
:10D58000D4F840094B689A4208BF864203D04CF059
:10D59000020C85F83CC0D1E90223C5E91223002220
:10D5A0000023C5E9142394F8532994F852399A4278
:10D5B00008D1D1E90262D4F840094B689A4208BF09
:10D5C000864203D0D1E90023C5E91423012385F85D
:10D5D0003E30D4F85038387BAB634D4B2946D3E905
:10D5E0001C23C5E9162394F8553885F83D300123EE
:10D5F00085F83F3094F8CD3385F8403094F84C38B6
:10D6000085F84130FF2385F860304FF6FF73A5F8A9
:10D61000623026F082F92046FFF758FE79E7D0F80D
:10D62000E06A002E87D031460AA817F0E9FF3118CA
:10D6300012A818F00EF8002311939DF8283004F674
:10D6400008118DF8403003238DF84130DDE91223B5
:10D65000CDE90C239DF82A300CA88DF84230DDE985
:10D660001423CDE90E239DF82B3001228DF8433091
:10D6700004F61833FEF734FA5AE794F82BCB04F586
:10D68000326185F83CC094F82A3B634508D151E9E2
:10D690000203D4F8206B4A689A4208BF864203D03E
:10D6A0004CF0020C85F83CC0D1E90023C5E91223F7
:10D6B00000220023C5E9142394F82B2B94F82A3B6D
:10D6C0009A4208D151E90203D4F8206B4A689A4281
:10D6D00008BF864203D051E90223C5E9142394F818
:10D6E000453A74E76378311F26F8043C082306F8AE
:10D6F000023C032306F8013C387B26F00EF901209A
:10D700001FB0BDE8F04025F057BA00BF805200219D
:10D710005853002110B50446FFF7D8FD012025F02D
:10D720004BFA60780021BDE8104024F071BA10B5C2
:10D730000446FFF7CBFD012025F03EFA2046BDE868
:10D7400010400DF0A9BB3C2380F8CE33012380F8B4
:10D750005638704700221346F0B5D0E90076C3F181
:10D760002005A3F1200427FA03F106FA05F5294361
:10D7700026FA04F42143C90744BF81180B7203F150
:10D78000010348BF0132252BE9D180F82D20F0BDDF
:10D7900070B504460025012025F0F8F984F84653B9
:10D7A0000BF0F6FAA4F8905184F8AF532546354BA8
:10D7B000C4F88C01D3E90E23E5E9D823284624F0E8
:10D7C00013F9012384F88E33D4F88C3183EA1343A0
:10D7D000A4F8903394F8D53BEBB194F8AF13B4F8B8
:10D7E0009031594028460DF077FC94F8D53B84F8E9
:10D7F0004503204693B1244B1B687BB198470546EF
:10D8000078B1204603210EF01FFD29466078BDE85F
:10D81000704024F034BAB4F89011E3E70EF054FDF0
:10D82000EDE7012384F88931A378012B13D194F813
:10D83000BD2B0AB984F89231D4F82466B4F84A585A
:10D8400023F0CDFF3246294625F006FF0123A4F838
:10D85000360684F8BE3B94F84C335BB1D4F82466AA
:10D86000B4F84A5823F0BBFF3246294625F0F4FEAF
:10D87000A4F84E036078002124F001FABDE870405E
:10D8800024F052B83852002184070021002140784A
:10D8900024F0F5B90C21407824F0F1B9F8B583787B
:10D8A0000446012B11D190F88951012D0DD1D0F8EA
:10D8B0002476B0F84A6823F092FF3A46314625F0C4
:10D8C000CBFE84F8BE5BA4F83606012384F8463309
:10D8D000002394F8D52B84F8893184F892316AB109
:10D8E000D4F81C050F22A0F8003F47F6FF73FF2174
:10D8F000A0F8023F00F604702CF061F904F5CA703C
:10D90000BDE8F84025F03EBD10B590F888310446DA
:10D91000012B04D1FFF7C2FF2046FFF7BFFC2046D2
:10D92000BDE81040FFF7A0BD10B590F8883104465F
:10D93000012B04D1FFF7B2FF2046FFF7AFFC2046D2
:10D94000BDE810400DF0A8BA10B50446FFF7A6FCDC
:10D9500060780021BDE8104024F091B990F8503073
:10D96000012B12D0094B1B68D3E90223C0E9E6233F
:10D97000C0E91623B0F890310633A0F860300823D0
:10D9800080F85230012380F850307047EC3B002182
:10D99000D0F8C83B0BB1407818477047D0F8CC3B63
:10D9A0000BB140781847704790F82031012B0ED00A
:10D9B000D0F8A033C0F82431B0F8A433A0F828314F
:10D9C000B0F8AC33A0F82A31092380F8223170472F
:10D9D0000023C0F82031C0F82431C0F82831704746
:10D9E000682200212CF0EBB85030FFF7F9BF2B2351
:10D9F00007B58DF803008DF804006846ADF80010F7
:10DA00008DF802308DF8051023F01CFF03B05DF88F
:10DA100004FB2D2307B5ADF800008DF8040068461F
:10DA2000ADF802308DF8051023F00CFF03B05DF85F
:10DA300004FB08B5012025F0A9F8BDE8084023F053
:10DA400073BF00002DE9F04FDFF840810446D8F89D
:10DA500000608FB006F1080529460FF02DFD29461C
:10DA6000002520460FF090FDAA46B37DAB4243D976
:10DA7000002794F8562004F1570305F101090BE043
:10DA8000D4F8943053BB94F89C30C4F894B0ED1A99
:10DA900084F89D5022E00137BA421FD913F8011BC8
:10DAA0004945F8D120460EF069FE96F84030F18ED7
:10DAB0000293D6E90E23CDE900230A46F16A834694
:10DAC0000EF002FFD4F89030002BD9D1E368C4F8EF
:10DAD00090B06B4384F89C50C4F8983094F856305A
:10DAE000BB4207D194F834305A1C0E3384F83420EA
:10DAF00044F823A04D46B8E7D8F800102046083176
:10DB00000FF062FC216F04F1600026F0F2F82C2384
:10DB1000A5782022002106A8ADF81630ADF81450E3
:10DB20002CF04DF8E36A1A4A0793A38A04F13801EE
:10DB30005BBAADF82030E38A8DF81950ADF8223089
:10DB4000A3885034ADF8243054F8403CA3FB023293
:10DB5000DB0F43EA42030022ADF82630134651F8AA
:10DB6000040B40B140880EAD5A1C05EB430323F86B
:10DB70000E0CD3B201228C42F1D10AB18DF82830BB
:10DB800005A823F05FFE0FB0BDE8F08F143C002124
:10DB9000E3361A0090F8BA3080F85430704710B568
:10DBA00004468AB081780020FFF721FF002120225F
:10DBB00002A82CF004F82C228DF806204422A37829
:10DBC00001A8ADF804308DF807208DF808208DF8F5
:10DBD000093023F037FE20460FF09EF90AB0BDE869
:10DBE000104023F0A9BE082380F8543070473D232D
:10DBF00080F85430704710B50446012024F0DCFF53
:10DC0000236D13B1002283F88A226378032B06D197
:10DC100094F85430A0784BB11946FFF7FAFE20462D
:10DC20000FF07AF9BDE8104023F086BE0146184691
:10DC3000FFF7DDFEF3E7F8B5054610F039FA0446C4
:10DC400048B12846042110F001FA21462846BDE8D3
:10DC5000F84010F095B9012024F098FF2C6DCCB15C
:10DC6000012384F88931A378012B13D194F8BD2BBB
:10DC70000AB984F89231D4F82476B4F84A6823F0CB
:10DC8000AEFD3A46314625F0E7FC0123A4F83606FE
:10DC900084F8BE3B2846022110F0EEF9BDE8F840BA
:10DCA00023F042BEF0B5044685B007200FF070F8AF
:10DCB000064630B3144B03A91868258C03903046F0
:10DCC00019F058F8114F0635ADB2D7E90E2300957B
:10DCD000304419F062F80622314620460FF05FF812
:10DCE00094F8A030A4F8A85043F0010384F8A030C1
:10DCF000D7E90E23C4E92C23236D13B1002283F846
:10DD0000B82005B0F0BD00BFD0AC030138520021EF
:10DD100073B5044603200FF03BF80646E0B1124B02
:10DD200001A95868258C0190304619F023F8063572
:10DD3000ADB22A4694F8BA10304419F040F80622E1
:10DD4000314620460FF02BF894F8A030A4F8B850D4
:10DD500043F0020384F8A0300321204602B0BDE85E
:10DD6000704010F089B900BFD0AC030110B5044673
:10DD7000C43025F007FB2046BDE81040032110F019
:10DD80007BB910B50446012024F016FF20460FF0A1
:10DD9000C3F823F0D1FD6378022B04D12046BDE8FF
:10DDA000104010F03FB910BD164A30B514684FF45A
:10DDB0009262C38885B002FB0344062203890546AC
:10DDC000ADF80430ADF80A30C37F01A88DF80C30EF
:10DDD0008DF806208DF807108DF8081023F032FD1D
:10DDE00094F81E3463B12989B4F8260410F0DAFAE5
:10DDF000054628B904F5846023F024FD84F81E54F8
:10DE000005B030BDF43C00212DE9F0438BB0044651
:10DE100015460E462422002101A82BF0D0FE272310
:10DE20008DF8023040F2E243B4F8E82294F8EB12A5
:10DE300094F8EA7202FB01FE02FB07F003FB0EFE00
:10DE400094F8D89203FB00F8D4F8E432B9F1010F4A
:10DE50000CBF5B19EB1A734405932369D4F8E002F5
:10DE60000393B4F8D432B4F808C0ADF8183094F87D
:10DE7000EC3208BF40198DF81A3094F8F43218BF0C
:10DE8000281A8DF81B3094F8F53208BF40448DF8FD
:10DE90001C30A37A18BF4044ADF800C08DF8036071
:10DEA0000CBF04900490ADF806C08DF80460029594
:10DEB0008DF81D708DF81E10ADF824208BB9B4F8C4
:10DEC0003021012B0CBFB4F83031B4F82C31684646
:10DED000ADF82020ADF8223023F0B4FC0BB0BDE843
:10DEE000F083B4F82C21ECE738B5054604200C4645
:10DEF00025F002FD014650B12B89C47003800F2329
:10DF00008370034B187BBDE8384025F006BD38BD53
:10DF10008052002138B5054604200C4625F0ECFC63
:10DF2000014650B1EB88C470038001238370034B1A
:10DF3000187BBDE8384025F0F0BC38BD8052002188
:10DF4000014B9B7CC3777047683C0021024B1B68E8
:10DF50001B79C377704700BF1C3C00213E23C37769
:10DF600070470823C37770472223C37770470D2378
:10DF7000C3777047014B5B7CC3777047683C0021D7
:10DF80003D23C3777047000010B50446C07A10F0F7
:10DF900081FA4FF492611B4BE2881B6801FB02334C
:10DFA000C27C0132C274A27A22BB94F8D412032933
:10DFB00093F84E2021D1013A18BF01228A1A1A443F
:10DFC00092F940227E2A1AD193F80504B8B10E4A7C
:10DFD00058181268032992F9282080F83F2208BFB8
:10DFE00083F84322D3F824335B0702D5012384F856
:10DFF000CB3210BD94F8D512D9E70122DEE784F8C0
:10E000003A21F6E7F43C0021FC4F002138B590F8A6
:10E01000475004460022C17F4DB1222906D180F825
:10E0200047201121BDE83840FFF7EEBE0C2584F8EB
:10E03000472020460022FFF7E7FEE37F442B05D16F
:10E04000162329462046E377FFF7AEFE2046BDE8BB
:10E05000384010F02BBD000038B50446C08813F0DE
:10E060004DF8054698B9082025F046FC014668B1F0
:10E07000E388038041F2017343802389C380E37FF7
:10E080000371044B187B25F048FCA57638BD0123AD
:10E09000A376FBE780520021F8B504460121C6882B
:10E0A000008915F077FC0221208915F073FCE07AD5
:10E0B00010F0F0F9054604F52E7025F020FE01233E
:10E0C0006376E37F3E2B0CD100276776EB7C2046FE
:10E0D000013BEB7410F0EAFC3A462046E17FFFF783
:10E0E00093FE144B1B6893F83220134B1C680023DB
:10E0F000934219D2E188B14217D1657EADB9A17EB4
:10E1000099B1082025F0F8FB014668B1E388038047
:10E1100041F2017343802389C380E37F0371074B7E
:10E12000187B25F0FAFBA576F8BD013304F562747F
:10E13000DEE700BFFC4F0021203C0021805200217F
:10E140008378012B08BF4376704770B505460420DD
:10E150000C46CE7F13F076FD014648B122230370B2
:10E16000E37A4370237BC6708370284613F040FD2A
:10E1700021462846BDE8704010F08FBD034B9B7CC4
:10E18000CB77012380F86F33704700BF683C0021D4
:10E1900008460521FFF7A8BEFFF7D7BF012380F887
:10E1A0006F3370472DE9F84306460C46C87A10F0E5
:10E1B00071F9B6F8FC31B6F84E14DA1DB6F8FE3136
:10E1C000074602FB0133A4F848300023A4F84A3084
:10E1D000444B9B691B015AD410F024FAB4F8481040
:10E1E000B6F8FE51B6F80032F26950BB40F2E24098
:10E1F000491B4B433C493D4D096800FB0322791AFA
:10E20000091169433D8A0A316843C9B224F090FB81
:10E21000D4E904239B1A0344E36440F2E243B6F8D2
:10E22000001294F8EC225943314BD4F8F0021B68E9
:10E230009B8E00FB12330B44E26C9A421FD2BDE866
:10E24000F88340F2E2484D1B5D4308FB0525B4F816
:10E250004A30B7F8109001339BB203FB09F9A4F8D8
:10E260004A303B6A294608FB0939484624F042FDFA
:10E270000028ECD02946484624F03CFDC8E7521A55
:10E28000E264B4F848200132A4F84820D4E740F210
:10E29000E245B6F80032D0F80C9005FB03F824F004
:10E2A00023FDD4E904239B1A4344A3EB09031B1A5F
:10E2B000E364384610F0B6F90028C0D0B6F8FE3155
:10E2C000B4F84820D21AB6F8003202FB0332E36CED
:10E2D00005FB02333A8A5543B3FBF5F3A4F84A3001
