:020000040100F9
:1088000000000121152C0301E92B0301C92B0301F1
:10881000E92B0301E92B0301E92B0301E92B0301F8
:10882000E92B0301E92B0301E92B0301E92B0301E8
:10883000E92B0301E92B0301E92B0301E92B0301D8
:10884000E92B0301E92B0301E92B0301E92B0301C8
:10885000E92B030171270301E92B0301E92B030134
:10886000053C0301E92B0301D1240301E92B03019A
:10887000D1290301E92B0301E92B0301E92B0301B2
:10888000E92B03011D280301E1260301212A03012D
:10889000E92B0301E92B030129280301E92B03013B
:1088A000E1290301F1290301E92B0301E92B03016C
:1088B000E92B0301E92B0301000000000000000088
:1088C00000000000000000000000000000000000A8
:1088D0000000000000000000000000000000000098
:1088E0000000000000000000000000000000000088
:1088F0000000000000000000000000000000000078
:108900000000000000000000000000000000000067
:108910000000000000000000000000000000000057
:108920000000000000000000000000000000000047
:108930000000000000000000000000000000000037
:108940000000000000000000000000000000000027
:108950000000000000000000000000000000000017
:108960000000000000000000000000000000000007
:1089700000000000000000000000000000000000F7
:1089800000000000000000000000000000000000E7
:1089900000000000000000000000000000000000D7
:1089A00000000000000000000000000000000000C7
:1089B00000000000000000000000000000000000B7
:1089C00000000000000000000000000000000000A7
:1089D0000000000000000000000000000000000097
:1089E0000000000000000000000000000000000087
:1089F0000000000000000000000000000000000077
:108A0000DEE61E284CBBCE8F023500003C00000085
:108A10008C1503000100000000880001008800019F
:108A2000FFFF0291000000000000000000000000B5
:0C8A30000000000000000000000000003A
:108A4000002070470388F7B5A3F57C4306460C4623
:108A5000032B4DD8DFE803F00212204391F9000008
:108A600000F0AAFA04460120318822F08BF818B1F0
:108A700000F8054922F032F801203AE0CB788A78F4
:108A8000207802EB0322497892B22AF027FF08B13E
:108A90000024E8E71224E6E7CA798B79497903EBE9
:108AA00002232279E07802EB0122A178657801EBBC
:108AB00000212078E77A00EB0520A57A9BB205EB30
:108AC0000725ADB20195657A247A92B204EB0524AC
:108AD000A4B2009489B280B22BF048FFD7E708789F
:108AE0002AF09AFF0028D5D060782AF0B1FFCEE7AF
:108AF000002003B0F0BD00002DE9F047A54D86B081
:108B0000A5482AF0BFFB284623F0E4FD302205F1FA
:108B10000C0102202AF0CAFB302205F132010120AB
:108B20002AF0C4FB302205F1390106202AF0BEFBF1
:108B30001022ADF8042008228DF8062020220B23F5
:108B4000ADF8082080224FF0040840F20D112B717F
:108B5000EB8BADF80C206A7B1C338DF80E208DF862
:108B60001220ADF814302A7FEB7EADF810101344BC
:108B700095F822200DEB0801134495F823200520D9
:108B800013448DF816308DF80A8028F003FF80B268
:108B900028F0CEFF29F06EF829F0D2F900F068F93C
:108BA00028F0D6FF074628F0D9FF06467A4828F075
:108BB00053F932463946404603F0D0FB07EB000933
:108BC000A6EB000A044652464946404602F032FFF0
:108BD0000444AAEB000209EB0001404603F028F828
:108BE00000EB0408284623F09DFDAC7E4744A6EB2D
:108BF000080634B13146384623F0D2FE0446074415
:108C0000361A3146384623F086FE361A0744814626
:108C10003146384623F095FE361A0744314644441F
:108C20008046384623F0B1FE361A074431464C449C
:108C30008146384623F097FE4444311A804638185E
:108C400023F0CEFE4C444444044428F00BF902F0D7
:108C500021FC00F045FC02F0B1FA01F07BFA02F0D1
:108C6000C7FB01F043F801F061F801F021FC2AF0A4
:108C700071FE01F093FF02F021F901F0BBFC01F05D
:108C80007DFD03F043FB454828F0E8FF28F0C8FDD0
:108C900023F03AFE23F09AFE23F08AFE23F04AFEE8
:108CA00023F08DFE23F0A2FE23F0A7FE23F035FE75
:108CB00023F08EFE23F096FE23F05EFE23F04CFEA2
:108CC00023F041FE23F0A0FE23F061FE23F04DFED1
:108CD00023F064FE23F088FE314828F0BFFF23F024
:108CE00027FD304828F0BAFFAA8CE98B28F0BAF9A2
:108CF00023F07EF823F088F923F036F923F0A8F862
:108D000023F092F923F006F923F094F823F06CF99C
:108D100023F00CFA23F07CF823F046F923F0A8F8AE
:108D200023F01AF923F0F2F923F0DCF923F0D2F85A
:108D300023F0B0F823F0BEF823F0DCF823F0B2F90A
:108D4000194828F08BFF23F081F923F073FB1748B3
:108D500023F048F82046002428F0EAFE01A80194F8
:108D6000ADF8084023F052FE042168462AF054FC76
:108D7000684626F07FFD01214FF4003023F0E4FE29
:108D80000B4828F087FF28F091FF204606B0BDE889
:108D9000F08700BF300100212001002141180301AC
:108DA000BDC7020191100301A5C60201458A000159
:108DB000418A0001014B1878704700BF000007206E
:108DC000014B1970704700BF000007200120704759
:108DD0000122014B5A6070470020014138B5C400A0
:108DE000343420462EF0FCFB054618B12246002103
:108DF0002EF02DFC284638BD2DF0E0BB70B50E4698
:108E0000CAB1541EA0B228F0BDFE054698B1224654
:108E1000711C2EF0F5FB3378022B0ED0052B05D0FC
:108E2000012B08D100212A46084602E02A460321E8
:108E3000002028F083F9002070BD2A460121F7E7C1
:108E4000C30703D5024B58682DF06EBA704700BFB8
:108E5000B001002148F29C63C360044B436003F2FD
:108E60004E33036020238360704700BF04800720D7
:108E70001FB56846FFF7EEFF0298FFF7AFFF044CFF
:108E800020600298FFF7AAFF606004B010BD00BF29
:108E9000B001002130B5294B8BB004AC93E803003E
:108EA000002284E803002649072029F0CFFB25484B
:108EB00029F0E8FB06A8FFF7CDFF20462EF06CF85E
:108EC000099B2148214C43612EF048F82246204955
:108ED00020482EF00FF8226893680BB102F10C03C2
:108EE00004201D4A069990601062012051601B49C0
:108EF000BDF820400D684968156091611849079DCB
:108F00008861022053619481D362D5619484CA62DE
:108F10000022886213480862009213482DF0D2FDA7
:108F2000124B134A0293134B0F4901934FF0FF3337
:108F3000114800932DF0BCFA0BB030BD3C86030104
:108F4000418E000144860301000000216C010021D4
:108F50001C8603012686030144020021B001002182
:108F600078020021C8860301B8010021F98D0001B3
:108F70002E860301FD8D000170010021022907B535
:108F8000184603F1FF3310D1042100F8011C012120
:108F900008480A4401910092D0E909122DF0FAF92B
:108FA00003B05DF804EB28F049B801290CBF022199
:108FB0000521EAE770010021024B83F87A000020C6
:108FC000704700BFC84000212AF04EB92DE9F84390
:108FD0001C46D0F82890C56807460E46904627F0F4
:108FE000FBFF99F80D302C44022B04440DD0032BC9
:108FF0000DD0012B00D12834306C3D690319AB42F0
:1090000008D935640020BDE8F8831834F4E704F586
:10901000A874F1E77B682D1A63B14146986827F080
:10902000E1FF854228BF0546AC4203D9336C2B448F
:109030003364E7E7281B4FF47A75044B1B689C8860
:109040006C43A04228BF2046DDE700BFB0430021AB
:109050001FB501238DF80430002301A8CDE90233A8
:109060002AF080F805B05DF804FB1FB5002301A8C5
:10907000CDE9013303932AF075F805B05DF804FBE0
:109080002DE9F84304468846866A2AF09DFB05468A
:109090000146A06806F1900727F0A4FF78B9A368FD
:1090A000DFF88890C9F8743027F096FF2844A06054
:1090B000D9F87410284627F095FFC6F8D000D6F8E6
:1090C0009C300BB120469847394600232046A268C1
:1090D000FFF77CFF074618B9BDE8F84327F050BFFB
:1090E000124DA36840466B6729F0B0FF104BC5F8DE
:1090F0008470AB670F4B05F17800EB67A368C5F888
:109100008030A3602AF026F8002385F87030D6F866
:10911000943043B1FFF79CFFD6F890002721BDE8BB
:10912000F8432AF06FB8FFF7A0FFF5E7CC05002160
:10913000F1930001D59100012DE9F84380460C46DA
:1091400027F028FF064618B101263046BDE8F8830F
:109150002AF03AFB1D4D8146696F27F043FF236CCF
:1091600003442364C5F8749027F036FF4A4603464B
:1091700021464046FFF72AFF07460028E4D0636AED
:1091800053B1024649464046984728B10122D8F8D3
:10919000283083F8C020D8E7D5F8748027F01CFF6A
:1091A0004044C5E920070A4829F0D4FF002385F888
:1091B0007030636833B1FFF74BFF272120682AF036
:1091C00021F8C2E7FFF751FFF7E700BFCC05002108
:1091D000440600212DE9F04F87B09A469DF84030B3
:1091E00003910293934607462AF0EEFADFF8F491D2
:1091F000C9F8000027F0BEFEDDE90231846A80462E
:10920000D4F8BC50ADB194F8C020012A11D1CDE9F9
:1092100000A30A465B463946D4F8B000A8470128A7
:1092200004D10023C4F8B03084F8C03007B0BDE8E2
:10923000F08F6D4A6D4D92F87060701C82F870006E
:1092400076B1022E00F08680AC8C2AF0BDFAD9F8F7
:109250000030C01A844240F2B580A88CA884E5E7AB
:1092600007B3FB1E012B40F2B680042F68D06FD8E5
:1092700033460126032F5DD032461E46EB6901338B
:10928000EB613346164643B117F0FB0F46D040461C
:1092900004F19001FFF750FF0646002ED4D027F0CE
:1092A0007FFED1E784F8C31084F8C4303A46C4E99D
:1092B00032BAD4F8900004F1D80304F1780102F036
:1092C000EBF9002834D04046D4F8A030D4F8901000
:1092D000984700287DD06E8C2AF076FAD9F80030B5
:1092E000C01A86421DD9688C94F8C1306884ADF8E4
:1092F0001030D4F894300593FFF7AAFE012104A89A
:1093000029F062FFD4F8A4301BB14046D4F8901085
:1093100098472B6801332B60002F95D029F0A2FFCE
:10932000B5E72AF051FAD9F80030C01A80B2DBE76D
:109330000127EEE7AA680132AA60002BA7D1ACE7AB
:10934000334601266A6801326A60002BE6D1A4E741
:10935000012293E76FB1FB1E012B1ED9042F4FF0A2
:1093600000034FF0010629D022D9EA690132EA61EF
:1093700089E73A46D4F8980004F1D80304F178015B
:1093800002F08AF928B14046D4F8AC30D4F89810ED
:1093900098472B6901332B61C0E7D4F8AC3000212A
:1093A00040469847042F4FF001034FF0000605D0C8
:1093B000032FDAD1AA690132AA61BEE76A690132D4
:1093C0006A61C2E72AF000FAD9F80030C01A80B208
:1093D00044E7012796E7042F4FF001037FF44AAFDB
:1093E000B0E700BF50050021CC050021A8020021F4
:1093F0002DE9F84381462AF0E7F9364E306027F030
:10940000B9FD856A0746D5F8B83083B195F8C02014
:10941000012A0CD14946D5F8B0009847012804D15B
:109420000023C5F8B03085F8C030BDE8F8832A4B7A
:109430002A4C93F8708008F10102B8F1010F83F80B
:1094400070202CD1B9F1000F3FD13846D5F8A830A3
:10945000D5F89410984790B1B4F820802AF0B4F968
:109460003368C01A804524D9238C2384FFF7FDFD7F
:109470002721D5F8980029F0EBFE4FF00008E368AB
:109480000133E360B8F1000F09D029F0EBFE384654
:1094900005F19001FFF750FE08B127F081FDE58C42
:1094A0002AF092F93368C01A854208D9E08CE0842A
:1094B000BBE72AF089F93368C31A9BB2D5E72AF0D3
:1094C00083F93368C01A80B2F1E7E3690133E361DD
:1094D000E3E700BF50050021CC050021A8020021D0
:1094E00008B50220054A064902F00EF8BDE808401A
:1094F0002822002103482EF0AAB800BFC98F00011E
:1095000081900001A802002130B50446044D0FCD22
:109510000FC40FCD0FC495E8030084E8030030BDED
:10952000A80200211FB5002301A8CDE90133039350
:1095300029F018FE05B05DF804FB1FB501238DF876
:109540000430002301A8CDE9023329F00BFE05B059
:109550005DF804FB70B50546866A084629F076FD7D
:10956000114C124B04F17800A367114BE367D6F856
:10957000AC30C4F88430AB68C4F88030AB6029F0FC
:10958000E9FD002384F87030D6F8903043B1FFF73E
:10959000D4FFBDE8704040F20111064829F032BE08
:1095A000FFF7C0FFF5E700BFCC050021D19800010F
:1095B000959C0001D002002170B50546866A0846D8
:1095C00029F044FD0D4C0E4B04F17800E367D6F80A
:1095D0009830C4F88430AB68C4F88030AB6029F0B0
:1095E000B9FD002384F87030FFF79CFFBDE87040A0
:1095F00040F20111034829F005BE00BFCC0500214F
:1096000009960001080400212DE9F74F0E469DF848
:1096100030109A460192009105462AF0D5F8DFF8FD
:109620003082DFF83092C8F8000027F0A3FCDDE9B3
:10963000001299F870300746D0F828B0864C83B1F4
:10964000032B00F08680258C2AF0BEF8D8F8003075
:10965000C01A854240F2EE80208C208403B0BDE821
:10966000F08FDDB1EA1E012A40F2EB80042D64D0B8
:109670006DD81A460123032D59D019461346A26905
:109680000132A2611A460B46002A5DD015F0FB0F8D
:1096900001D129F0E7FD27F083FCD4E703238BF801
:1096A0009D600126CBE9282A89F870302A468BF87C
:1096B0009E10DBF8903069498BF8A8609847054602
:1096C00078B3584629F0C2FC554409F17800C9F82E
:1096D000805029F03FFDA58B2AF076F8D8F80030AD
:1096E000C01A854216D9A08BA083FFF71BFF40F25A
:1096F00001115A4829F086FD3846DBF89430584964
:109700009847B0FA80F67609236801332360002E6B
:1097100099D0BEE72AF058F8D8F80030C01A80B2C5
:10972000E2E73846DBF894304C499847ECE7A1680B
:109730000131A160002AAED106E01A46012361681A
:1097400001316160002AA4D1002BA4D17BE7012163
:1097500095E7DBF89030ADB1EA1E012A52D92A46CE
:1097600000219847DBF89430002138469847042DB3
:109770004FF000024FF0010358D051D9A1690131D7
:10978000A16181E72A468BF8A8508BF89E108BF8D0
:109790009D6032499847054668B3584629F056FC03
:1097A000554409F17800C9F8805029F0D3FCA58B05
:1097B0002AF00AF8D8F80030C01A854214D9A08BD4
:1097C000A083FFF7AFFE40F20111244829F01AFDF3
:1097D0003846DBF8943022499847B0FA80F676098B
:1097E000E3680133E36092E729F0EEFFD8F8003038
:1097F000C01A80B2E4E73846DBF89430174998473E
:109800000126EDE72A4600219847DBF89430002135
:1098100038469847042D4FF001024FF0000305D061
:10982000032DABD161690131616183E721690131A8
:10983000216187E729F0C8FFD8F80030C01A80B24C
:109840000BE7042D4FF001027FF415AF77E700BF5F
:1098500050050021CC0500210C0500210804002141
:10986000D002002170B5164B93F870506A1C012D80
:1098700083F8702015D1134CE1B9A68D29F0A4FF0F
:10988000114D2B68C01A86420ED9A08DA085FFF716
:1098900049FE40F201110D4829F0DAFCE36801337A
:1098A000E3600025284670BD29F08EFF2B68C01AA2
:1098B00080B2EBE7A36A0133A36227F071FBF1E703
:1098C000CC050021D403002150050021D002002145
:1098D00070B5044629F078FF0B4D286027F04AFB4D
:1098E00021460A4CFFF7BEFF668E29F06DFF2B68FC
:1098F000C01A864202D9608E608670BD29F064FF6E
:109900002B68C01A80B2F7E750050021D40300216C
:109910002DE9F74FDFF87C920E4699F870408046AB
:10992000022CDDF830A09DF83410856A00F0C48068
:10993000032C00F03981002C40F09E81964F06B335
:10994000F31E012B40F29A81042E00F0AA8000F24F
:10995000B18023460124032E00F0968022461C4647
:10996000BB6A0133BB6223461446002B00F0928091
:1099700016F0FB0F01D129F075FC27F011FB012433
:109980008BE0C5E92D3A85F8B210D5F894308349BB
:1099900085F8B12098470446002862D0D5F8903069
:1099A000002B5ED00123B7F82EB089F8703029F073
:1099B0000BFF7B4E3368C01A83454CD9FB8DFB856A
:1099C00095F8A830ADF80030D5F890300193FFF746
:1099D000B4FD0121684629F0F7FBD5F8983013B1A2
:1099E00040466E499847002C4CD1D5F8A030002B4A
:1099F00040D0404669499847044600283AD003239E
:109A000089F8703029F02EFC284629F01FFB5444B9
:109A10006448C9F8804029F09DFBBE8D29F0D4FE32
:109A20005F4C2368C01A86421ED9B88DB885FFF7EF
:109A300079FD40F20111594829F0E4FB4046D5F880
:109A4000A43056499847B0FA80F464093B68013362
:109A50003B6014B38FE729F0B7FE3368C31A9BB29B
:109A6000ADE729F0FFFBB8E729F0AEFE2368C01A86
:109A700080B2DBE7D5F8A43013B140464749984798
:109A80000124E3E70024E1E7BA680132BA60002B61
:109A90007FF473AF002C7FF470AF204603B0BDE8B5
:109AA000F08F234601247A6801327A60002B7FF41C
:109AB00062AFEFE7012253E70324374F89F8704084
:109AC0006EB1F31E012B51D9042E4FF000034FF05D
:109AD00001045BD054D9BA6A0132BA6245E7C5E9DC
:109AE0002D3A85F8B210D5F89C302C4985F8B12074
:109AF0009847D5F8A0308BB340462849984704468C
:109B000060B3284629F0A2FA544409F17800C9F854
:109B1000804029F01FFBBE8D29F056FE204C2368A3
:109B2000C01A864214D9B88DB885FFF7FBFC40F205
:109B300001111A4829F066FB4046D5F8A4301749B0
:109B40009847B0FA80F464093B6901333B6180E7D0
:109B500029F03AFE2368C01A80B2E5E7D5F8A430B0
:109B600013B140460D4998470124EDE7D5F89C30E4
:109B700000219847042E4FF001034FF0000405D058
:109B8000032EA8D1BA690132BA6180E77A6901323D
:109B90007A618BE7CC050021D4030021D00200219B
:109BA0005005002144060021D5F8A030364FC6B13B
:109BB000F21E012A4ED900219847D5F8A43013B1DE
:109BC000002140469847042E4FF000034FF0010457
:109BD0004ED080D8032E7FF47EAF7A6A01327A624B
:109BE00055E72A499847044660B3284629F02EFADB
:109BF000544409F17800C9F8804029F0ABFABE8DD1
:109C000029F0E2FD224C2368C01A864214D9B88D8F
:109C1000B885FFF787FC40F201111C4829F0F2FAE1
:109C20004046D5F8A43019499847B0FA80F4640941
:109C3000FB690133FB610CE729F0C6FD2368C01AFC
:109C400080B2E5E7D5F8A43013B140460F499847F4
:109C50000124EDE700219847D5F8A43013B1002185
:109C600040469847042E4FF001034FF00004B1D155
:109C70003A6A01323A6219E700240EE7042E4FF0E7
:109C800001037FF468AE0EE7D4030021D002002167
:109C9000500500212DE9F3410E461746984604462B
:109CA00029F092FD0F4D286027F064F99DF82030CF
:109CB00021460D4C3246CDE900833B46FFF728FE96
:109CC000268E29F081FD2B68C01A864204D9208E89
:109CD000208602B0BDE8F08129F076FD2B68C01A1D
:109CE00080B2F5E750050021D403002108B5002219
:109CF0000620054901F008FCBDE808403422002197
:109D000002482DF0A4BC00BF55950001D4030021EA
:109D100030B50446044D0FCD0FC40FCD0FC40FCD89
:109D20000FC42B68236030BDD403002108B5002286
:109D30000920054901F0E8FBBDE808402422002184
:109D400002482DF084BC00BFB99500010C0500212C
:109D500030B50446034D0FCD0FC40FCD0FC42B6893
:109D6000236030BD0C05002170B50446866A0846A4
:109D700029F06CF90F4DD6F8AC3005F17800C5F834
:109D80008430A368C5F88030A36029F0E3F900238C
:109D900085F87030D6F8903043B1FFF7CEFBBDE8C0
:109DA000704040F20111044829F02CBAFFF7BAFBC9
:109DB000F5E700BFCC050021D002002129F054BAFC
:109DC0001FB5002301A8CDE90133039329F0CAF997
:109DD00005B05DF804FB00002DE9F04F85B080462A
:109DE0000E469346994627F0D5F8074668B93E4C8B
:109DF000D8F828A094F8723094F87150032B06D14B
:109E000018B184F8723084F87150012754E0022DA3
:109E100092BF2A46033DEAB202F125018AF80110F9
:109E2000F17E551C41FA02F20133D2074FF00100D6
:109E3000DBB2EDB2E2D584F8723084F87150B9F13A
:109E4000000F04D11BF0FB0F01D129F00BFA504693
:109E500029F0FCF8B9F1000F04D0D8F80830C4F8A4
:109E6000803009E073685BB329F0AEFC054627F04B
:109E7000B3F82844C4F88000002384F87030F368F5
:109E80001BB14046D4F880109847184829F062F971
:109E9000736833B301238DF80430002301A8CDE9A2
:109EA000023329F05FF9337E0121ADF804303368C5
:109EB00001A8029329F05EF9384605B0BDE8F08F9D
:109EC000327E9AF80E109AF80C0025F0F2FF054643
:109ED00027F082F8284426F053F8D4F88030034461
:109EE000BDE7FFF76DFFDEE7CC050021440600214A
:109EF0000E4B0F4A10B5816A9A670E4A91F8AA4034
:109F0000DA670422C3F88420002283F8714083F8C2
:109F1000702083F8722090310123FFF75DFF18B1A4
:109F2000BDE8104027F02CB810BD00BFCC050021C3
:109F300079A00001399F00012DE9F34799460546B4
:109F400029F042FCDFF82481494CC8F8000027F0D2
:109F500011F8484A866A92F870300746591C012B5E
:109F600082F8701068D106F1900A002D4BD1C6F826
:109F7000AC902A46D6F8940006F1B00306F17801B9
:109F800001F08AFB814668B33846D6F8A030D6F88F
:109F90009410984730B3B4F81A9029F015FCD8F80B
:109FA0000030C01A814516D9608B6083FFF708FF27
:109FB00096F8A9300121ADF80030D6F898306846FF
:109FC000019329F001F9D6F8A430ABB13846D6F8A0
:109FD0009410984710E029F0F7FBD8F80030C01A29
:109FE00080B2E2E7002351461A463846FFF7F4FEF6
:109FF0000546B9F1000FE6D1636801336360DDB156
:10A0000029F030F910E000232A465146FFF7E4FE1C
:10A01000042D1ED001D8032D09D06369013363617B
:10A0200050B115F0FB0FEBD026F0BAFF04E0E36867
:10A030000133E3600028F7D1A58B29F0C5FBD8F8E0
:10A040000030C01A85420AD9A08BA08302B0BDE8B7
:10A05000F087A3680133A3600028D1D1ECE729F091
:10A06000B3FBD8F80030C01A80B2EEE750050021EB
:10A0700030050021CC0500212DE9FF41074629F0DC
:10A08000A3FB314E314C306026F074FF2FB1636971
:10A090000133636126F084FF0CE02D4BD0F828805B
:10A0A00093F8705008F190016A1C83F870206DB12C
:10A0B000022D39D0E58B29F087FB3368C01A854221
:10A0C0003BD9E08BE08304B0BDE8F081D8F8943050
:10A0D00023B3278B29F078FB3368C01A874217D93E
:10A0E000208B01238DF804300023208301A8CDE9C3
:10A0F000023329F037F82421D8F8940029F0A8F881
:10A10000236801332360002DD4D029F0ABF8C1E7D8
:10A1100029F05AFB3368C01A80B2E2E72B462A4680
:10A12000FFF75AFE0546EBE73B463A46FFF754FE7B
:10A130002369054601332361E5E729F045FB3368D0
:10A14000C01A80B2BEE700BF5005002130050021D3
:10A15000CC05002108B50320054A064901F0D4F9D1
:10A16000BDE808402022002103482DF070BA00BF4E
:10A17000BD9D0001F19E00013005002130B504466F
:10A18000034D0FCD0FC495E80F0084E80F0030BDDC
:10A19000300500211FB5002301A8CDE90133039349
:10A1A00028F0E0FF05B05DF804FB00002DE9F04762
:10A1B0009A46054629F008FB354F364C386026F0A4
:10A1C000D9FE354B866A93F87090804609F10102FA
:10A1D000B9F1010F83F8702045D185BB9DF820307F
:10A1E000D6F8A01086F8D130C6F8D4A0D6F8C4307E
:10A1F000984788B3B4F81E9029F0E6FA3B68C01A75
:10A20000814516D9E38BE383FFF7C4FF022106F1F2
:10A21000A40028F0D9FFD6F8C8301BB14046D6F8C4
:10A22000A0109847636801336360E5B129F01AF81C
:10A2300017E029F0C9FA3B68C31A9BB2E3E7042D83
:10A240001CD001D8032D09D0A36915F0FB0F03F131
:10A250000103A36105D1E9E74D46E3E7E368013374
:10A26000E36026F09DFE258C29F0AEFA3B68C01A0B
:10A27000854207D9208C2084BDE8F087A36801338C
:10A28000A360D3E729F0A0FA3B68C01A80B2F2E7D6
:10A290005005002154050021CC050021F8B5CB6BF9
:10A2A00006460C460BB90120F8BD0121984705462A
:10A2B0000028F8D0B06A28F0C9FE1148114ED0F835
:10A2C000803078302B44104D836028F043FFAF8BF3
:10A2D00029F07AFA3368C01A87420AD9A88BA88372
:10A2E000FFF758FF04F12400022128F043FF00206B
:10A2F000DAE729F069FA3368C01A80B2EFE700BFE5
:10A30000CC05002150050021540500212DE9FF470F
:10A31000054629F059FA3F4F3F4C386026F02AFE97
:10A3200081462DB1A3690133A36126F039FE1AE0FD
:10A33000DFF8E880866A98F8705006F1900A022DDE
:10A340003FD0032D55D075B9D6F8A030BBB9032343
:10A35000514688F87030FFF7A1FF054623680133A6
:10A360002360002D53D1658C29F02EFA3B68C01A6A
:10A37000854246D9608C608404B0BDE8F087012333
:10A3800088F87030B4F81C8029F01EFA3B68C01AB7
:10A39000804510D9A08B01238DF804300023A083C1
:10A3A00001A8CDE9023328F0DDFE2421D6F8A00073
:10A3B00028F04EFFD2E729F007FA3B68C01A80B2B6
:10A3C000E9E7032388F870300E2296F8D110707BED
:10A3D000D6F8D45025F06DFD9635054451464846D3
:10A3E000C8F88050FFF75AFF2369054601332361FF
:10A3F000B7E75146FFF752FF6369054601336361D2
:10A40000AFE729F0E1F93B68C01A80B2B3E728F062
:10A4100029FF8AE75005002154050021CC050021C1
:10A42000F0B51E4B1E4C866AA3671E4B85B0E367D2
:10A430000423C4F8843000230F460546A4F8703086
:10A4400026F0A8FD014630BBD6F8CC300BB128462B
:10A450009847384628F0FAFDAB6800251248C4F842
:10A46000803084F8705028F075FED6F8A0307BB1AB
:10A47000012301A8CDE902558DF8043028F072FEC1
:10A48000022106F1900005B0BDE8F04028F072BE50
:10A49000FFF780FEF4E705B0F0BD00BF0DA300019B
:10A4A000CC050021ADA1000144060021FFF7B8BF93
:10A4B00008B500220720074901F026F800220820ED
:10A4C000054901F021F8BDE8084024220021034895
:10A4D0002DF0BDB821A40001ADA400015405002158
:10A4E00030B50446034D0FCD0FC40FCD0FC42B68FC
:10A4F000236030BD5405002128F0B6BE2DE9F0419F
:10A500000F469846054629F05FF9224C224E94F8F2
:10A5100070303060013384F8703026F02BFD00235A
:10A52000826AD4F88C10C2F89C8082F8A070C4F8BB
:10A530008C30D2F898302A46984726F02BFD18B177
:10A5400028F090FE26F02CFD032D144C10D0042D85
:10A5500012D0ADB9236801332360258B29F034F97B
:10A560003368C01A85420FD9208B2083BDE8F08163
:10A57000A3680133A360F0E7636801336360ECE72D
:10A58000236901332361E8E729F01EF93368C01A13
:10A5900080B2EAE7CC0500215005002178050021B2
:10A5A00070B50446866A084628F050FD0F4D104BE2
:10A5B00005F17800EB67A368C5F88030D6F89030D5
:10A5C000C5F8843028F0C6FD0023204685F8703099
:10A5D000D6F89430984726F0DDFC30B126F0CAFC5E
:10A5E00018B1BDE8704026F0DBBC70BDCC05002181
:10A5F000FDA4000108B50C20054A064900F084FFBF
:10A60000BDE808401C22002103482DF020B800BFFF
:10A61000F9A40001A1A50001780500212DE9FF4161
:10A620001A4E0D46A6F888100221C6F88C00044682
:10A6300001A8CDE902239DF828708DF8041028F0B8
:10A6400091FD96F8703003B137B12946204604B029
:10A65000BDE8F04128F0D6BD0D4E0E4FB6F814807F
:10A6600029F0B2F83B68C01A804508D9B38A294658
:10A670002046B38204B0BDE8F04128F0E9BD29F0DE
:10A68000A3F83B68C31A9BB2F1E700BFCC050021D9
:10A69000780500215005002170B50C460546074E8F
:10A6A00028F0E0FD2046C6F8805028F0CFFC06F1E7
:10A6B0007800BDE8704028F04DBD00BFCC050021FA
:10A6C00028F0D2BD70B5044629F07EF8144A154D25
:10A6D00092F870302860013382F8703026F04AFC1E
:10A6E000836A2146104CD3F894309847E3680133CD
:10A6F000E36026F04FFC18B128F0B4FD26F050FCC2
:10A70000668B29F061F82B68C01A864202D9608BEB
:10A71000608370BD29F058F82B68C01A80B2F7E743
:10A72000CC050021500500217805002170B50446B4
:10A73000866A084628F08AFC0E4D0F4B05F178001A
:10A74000AB67A368C5F88030A36028F003FD002341
:10A75000204685F87030D6F89030984726F01AFCDD
:10A7600030B126F007FC18B1BDE8704026F018BCE7
:10A7700070BD00BFCC050021C5A6000108B50D20A5
:10A78000054A064900F0C0FEBDE808401C22002131
:10A7900003482CF05CBF00BFC1A600012DA700013B
:10A7A000780500212DE9FF4104460D4693B10221B1
:10A7B00002928DF8041001A8039328F0D3FC134BE8
:10A7C00093F870304BB92946204604B0BDE8F041FB
:10A7D00028F0D0BCCDE90133EDE70D4E0D4FB6F8B2
:10A7E000168028F0F1FF3B68C01A804508D9F38A2B
:10A7F00029462046F38204B0BDE8F04128F0E4BCCD
:10A8000028F0E2FF3B68C31A9BB2F1E7CC050021B8
:10A81000780500215005002130B50446034D0FCDC9
:10A820000FC495E8070084E8070030BD78050021D3
:10A830001FB501238DF80430002301A8CDE90233B0
:10A8400028F090FC05B05DF804FB00002DE9F04114
:10A8500004460D4626F08EFB836A1B780A2B0BD12B
:10A86000124B93F870303BB9FFF7E2FF29462046C0
:10A87000BDE8F04128F07EBC0D4E0E4FB6F81680B4
:10A8800028F0A2FF3B68C01A804509D9F38AF382F9
:10A89000FFF7CEFF29462046BDE8F04128F094BCE2
:10A8A00028F092FF3B68C31A9BB2F0E7CC05002169
:10A8B000940500215005002170B50C4E04460D464C
:10A8C000C6F88C00A6F8881026F054FB836A1B7823
:10A8D0000B2B0AD196F870303BB9FFF7A9FF294638
:10A8E0002046BDE8704028F08DBC70BDCC0500212D
:10A8F00030B50446034D0FCD0FC495E8070084E83A
:10A90000070030BD9405002170B50D46044628F0BF
:10A91000ABFC094BD3F88C1039B100222046C3F8A8
:10A920008C200222D5F8AC3098472046D5F8A430C8
:10A93000BDE87040184700BFCC0500212DE9F0416B
:10A9400004460D46876A26F025FB0646D8B92846F8
:10A9500028F07CFB0D4D0E4B05F17800AB670D4BDD
:10A96000EB67A368C5F88030A3600423C5F8843082
:10A9700028F0F0FBD7F8983085F870601BB12046BE
:10A98000BDE8F0411847BDE8F08100BFCC050021CB
:10A9900099A900016DAA00012DE9F04385B0054693
:10A9A00028F012FF2E4F2F4E386026F0E3FAD0F831
:10A9B00028902946D9F8A83080469847D6F88C10B8
:10A9C000294C00293AD055BBA58A28F0FDFE3B68EA
:10A9D000C01A85421DD9A08A0023A08201A8CDE912
:10A9E0000133039328F0BEFBB6F88810D6F88C002C
:10A9F00028F02EFCE3680133E360658B28F0E4FE69
:10AA00003B68C01A854213D9608B608305B0BDE8EE
:10AA1000F08328F0D9FE3B68C01A80B2DCE700233F
:10AA20000222C6F88C304046D9F8AC30984708E08E
:10AA300028F0CAFE3B68C01A80B2E6E70DB928F0DC
:10AA400011FC96F8703023B926F0AAFA012386F893
:10AA50007030002DCED0236901332361CDE700BFD4
:10AA600050050021CC050021940500212DE9F34774
:10AA70000F46054628F0A8FEDFF81481C8F800004C
:10AA800026F078FA0023866A9DF8282086F8B070B0
:10AA9000404F8DF80730D7F88C1086F8B120C7F8F2
:10AAA0008C302A46D6F8AC300446984726F072FA25
:10AAB0008146002837D04FF0010926F06BFA40EAB2
:10AAC0000900C0B280B1062D06D80123AB4013F0B7
:10AAD000510F01D028F0C6FB97F8703023B926F04B
:10AAE0005FFA012387F870309DF8073023B92946B3
:10AAF0002046D6F8A0309847032D274C35D0042D9A
:10AB000037D0002D39D1236801332360258B28F0FD
:10AB10005BFED8F80030C01A854232D9208B2083E2
:10AB200002B0BDE8F0872046D6F890300DF107015D
:10AB3000984782460028BED028F094FBD6F894307F
:10AB40000DF1070120469847A06A28F07FFAD7F850
:10AB500080005044C7F8800007F1780028F0FAFA26
:10AB60002046D6F89C309847A7E7A3680133A36036
:10AB7000CCE7636801336360C8E72369013323616D
:10AB8000C4E728F021FED8F80030C01A80B2C6E72A
:10AB900050050021CC0500219405002108B50A20AC
:10ABA000054A064900F0B0FCBDE808401C2200211F
:10ABB00003482CF04CBD00BF09A900013DA90001CC
:10ABC0009405002170B50D46044628F04DFB094B55
:10ABD000D3F88C1039B100222046C3F88C20022211
:10ABE000D5F8AC3098472046D5F8A430BDE8704081
:10ABF000184700BFCC05002101232DE9F041876AE9
:10AC0000054687F8B03083680846C7F8B8300E4C60
:10AC10000E4628F01BFA0D4B04F17800A3670C4B8D
:10AC2000E367D7F8B830C4F88030D7F8C030C4F83C
:10AC3000843028F08FFA0023284684F87030D6F844
:10AC40009830BDE8F0411847CC050021C9AD00019E
:10AC5000B5AC00012DE9F04106460C46904626F0C1
:10AC600099F9074618B101273846BDE8F0814146F9
:10AC700030462368984705460028F4D028F0F2FAB9
:10AC80004146636830469847B06A28F0DFF9A36A06
:10AC900007482B44A362B360C0F88030236B783040
:10ACA000C36028F057FA3046E3689847DCE700BFF6
:10ACB000CC0500212DE9F7431F468846044628F0BD
:10ACC00083FD3E4E306026F055F9856A9DF82830A8
:10ACD00095F8B02085F8BD3014F0FB0308BFC5F827
:10ACE000B870012A814685F8BC8006D12BB9D5F809
:10ACF000B82085F8B030C5F8B4204FF00008304FC8
:10AD0000D5F8AC30D7F88C1022464846C7F88C806E
:10AD1000984704F0FD03012B8DF807800FD14846BA
:10AD20000DF1070205F19001FFF794FF9DF8073040
:10AD3000804623B921464846D5F8A030984726F0EA
:10AD400029F940EA0800C0B280B1062C06D80123D8
:10AD5000A34013F0510F01D028F084FA97F8703017
:10AD600023B926F01DF9012387F87030032C154D07
:10AD700011D0042C13D0B4B92B6801332B602C8B69
:10AD800028F022FD3368C01A844210D9288B28830A
:10AD900003B0BDE8F083AB680133AB60EFE76B68ED
:10ADA00001336B60EBE72B6901332B61E7E728F098
:10ADB0000BFD3368C01A80B2E9E700BF50050021DF
:10ADC000CC050021940500212DE9F743054628F024
:10ADD000FBFC374F4FF00009386026F0CBF80446F3
:10ADE000866A2946D6F8A830984720460DF1070212
:10ADF00006F190018DF80790FFF72CFF804655BBB8
:10AE000026F0C8F840EA0800C0B258B128F02AFA83
:10AE1000284B93F870302BB926F0C2F80122254B4D
:10AE200083F870209DF8073023B929462046D6F8CC
:10AE3000A0309847204C8DBBE3680133E360658BFD
:10AE400028F0C2FC3B68C01A85422BD9608B608316
:10AE500003B0BDE8F083012D12D10028E2D0DFF865
:10AE60005480D8F88C1031B102222046D6F8AC308C
:10AE7000C8F88C90984728F0F5F998F87030CAE730
:10AE8000DFF83080D8F88C100029F6D00222204656
:10AE9000D6F8AC30C8F88C909847EEE723690133B8
:10AEA0002361CCE728F090FC3B68C01A80B2CEE763
:10AEB00050050021CC0500219405002108B50B2088
:10AEC000054A064900F020FBBDE808401C2200218D
:10AED00003482CF0BCBB00BFC5AB0001F9AB0001BF
:10AEE000940500211FB501238DF80430002301A82B
:10AEF000CDE9023328F036F905B05DF804FB000017
:10AF00002DE9F04104460D4626F034F8836A1B789B
:10AF1000042B0BD1124B93F870303BB9FFF7E2FFD3
:10AF200029462046BDE8F04128F024B90D4E0E4FC9
:10AF3000B6F8168028F048FC3B68C01A804509D94D
:10AF4000F38AF382FFF7CEFF29462046BDE8F041A1
:10AF500028F03AB928F038FC3B68C31A9BB2F0E7F6
:10AF6000CC050021B00500215005002170B50C4E24
:10AF700004460D46C6F88C00A6F8881025F0FAFFA6
:10AF8000836A1B78052B0AD196F870303BB9FFF71E
:10AF9000A9FF29462046BDE8704028F033B970BDAE
:10AFA000CC05002130B50446034D0FCD0FC495E804
:10AFB000070084E8070030BDB005002170B50D46DC
:10AFC000044628F051F9094BD3F88C1039B100220E
:10AFD0002046C3F88C200222D5F89C3098472046A2
:10AFE000D5F89430BDE87040184700BFCC0500216B
:10AFF00070B5054608460E4C0E4628F027F80D4B56
:10B0000004F17800A3670C4BE367AB68C4F88030A9
:10B01000AB600423C4F8843028F09CF80023284651
:10B0200084F87030D6F89030BDE87040184700BF03
:10B03000CC050021F1B000013DB0000170B50C4617
:10B04000054628F0C1FB274E306025F093FF9DF8A0
:10B050001030826A82F8A130234B82F8A04093F826
:10B06000701011B9012183F870100024D3F88C10EE
:10B07000C3F88C40D2F89C302A46984725F08AFFC6
:10B0800050B1062D06D80123AB4013F0510F01D06B
:10B0900028F0E8F825F084FF032D144C0FD0042D80
:10B0A00011D0A5B9236801332360258B28F08CFBD0
:10B0B0003368C01A85420ED9208B208370BDA368E7
:10B0C0000133A360F1E7636801336360EDE723694F
:10B0D00001332361E9E728F077FB3368C01A80B2B7
:10B0E000EBE700BF50050021CC050021B005002191
:10B0F0002DE9F04385B0054628F066FB2C4EDFF8BD
:10B10000B480306025F036FFD0F828902946D9F871
:10B11000983007469847D8F88C10274C00293CD027
:10B1200065BBA58A28F050FB3368C01A85421FD939
:10B13000A08A01238DF804300023A08201A8CDE964
:10B14000023328F00FF8B8F88810D8F88C0028F0EF
:10B150007FF8E3680133E360658B28F035FB3368E3
:10B16000C01A854213D9608B608305B0BDE8F083B7
:10B1700028F02AFB3368C01A80B2DAE700230222E3
:10B18000C8F88C303846D9F89C30984708E028F049
:10B190001BFB3368C01A80B2E6E70DB928F062F8ED
:10B1A00025F0FEFE002DD4D0236901332361D3E7BF
:10B1B00050050021CC050021B005002108B5042070
:10B1C000054A064900F0A0F9BDE808401C2200210C
:10B1D00003482CF03CBA00BFBDAF0001F1AF000145
:10B1E000B005002170B50D46044628F03DF8094B26
:10B1F000D3F88C1039B100222046C3F88C200222EB
:10B20000D5F8A03098472046D5F89830BDE8704072
:10B21000184700BFCC0500212DE9F0410446876A9C
:10B2200008460E4D0E4627F011FF0D4B05F1780034
:10B23000AB670C4BEB67A368C5F88030A360D7F809
:10B240009030C5F8843027F085FF0023204685F82C
:10B250007030D6F89430BDE8F0411847CC05002195
:10B2600021B3000169B20001F8B50C461F4605463E
:10B2700028F0AAFA274E306025F07CFE826A9DF8FD
:10B28000183082F8A840244C82F8A93094F8703025
:10B2900023B90123C2F8A47084F870300023D4F8D5
:10B2A0008C10C4F88C30D2F8A0302A46984725F08C
:10B2B00071FE50B1062D06D80123AB4013F0510F9B
:10B2C00001D027F0CFFF25F06BFE032D134C0FD0DC
:10B2D000042D11D0A5B9236801332360258B28F0F4
:10B2E00073FA3368C01A85420ED9208B2083F8BDCB
:10B2F000A3680133A360F1E7636801336360EDE79E
:10B30000236901332361E9E728F05EFA3368C01A44
:10B3100080B2EBE750050021CC050021B0050021EB
:10B320002DE9F04385B0804628F04EFA2D4D2E4E83
:10B33000286025F01FFED0F828904146D9F89C30AF
:10B3400007462A4C9847B8F1000F29D1D6F88C301F
:10B350000BB3A78A28F038FA2B68C01A874214D991
:10B36000A08A01238DF804300023A08201A8CDE932
:10B37000023327F0F7FEB6F88810D6F88C0027F0D5
:10B3800067FFE3680133E3601AE028F01DFA2B68D9
:10B39000C01A80B2E5E727F065FF25F001FEF0E76F
:10B3A000D6F88C1039B100230222C6F88C3038460A
:10B3B000D9F8A030984725F0F3FD236901332361C4
:10B3C000668B28F001FA2B68C01A864204D9608B7C
:10B3D000608305B0BDE8F08328F0F6F92B68C01A49
:10B3E00080B2F5E750050021CC050021B005002111
:10B3F00008B50520054A064900F086F8BDE8084072
:10B400001C22002103482CF022B900BFE5B1000145
:10B4100019B20001B0050021816A034B0A7853F884
:10B42000323003B118477047CC050021816A044BC4
:10B430000A7803EBC2035B6803B11847704700BF8B
:10B44000CC05002127F01ABF27F0FEBD08B527F074
:10B45000FBFDBDE80840002027F00ABF08B527F033
:10B46000E5FD002027F002FFBDE80840012027F09D
:10B47000FFBE08B527F0DAFDBDE80840002027F040
:10B48000F5BE08B527F0D2FDBDE80840012027F041
:10B49000EDBE000073B5134C134D144E27F0C4FDE0
:10B4A000224629460120124B009625F0A1FD224696
:10B4B000294602200F4B009625F09AFD0E4B22469E
:10B4C000009300210D4B032025F092FD01200C4933
:10B4D00025F09CFD902200210A4802B0BDE8704092
:10B4E0002CF0B5B82DB4000119B4000149B4000125
:10B4F00083B4000173B400014DB400015DB40001D8
:10B5000045B40001CC050021034B43F8301003EB98
:10B51000C0035A60704700BFCC050021F0B5044657
:10B520008C46D3E9000116461D46177885B0002CDD
:10B5300036D0CFB14FEA112E0EF0C00EBEF1400F43
:10B5400012D1BCF1000F04D000F00AFD204605B076
:10B55000F0BD00F07BFC044608B10124F6E71F4A69
:10B56000D38B0133D383F1E702460B46384600F014
:10B570007BFD0238C0B20128EFD80DF10F03009314
:10B580003078D5E9002300F013FC18B19DF80F3096
:10B59000002BDBD1114A0224138B01331383D5E72F
:10B5A00027B10B0A03F0C003402BD6D002460B464E
:10B5B000384600F059FD02380128CED80DF10F03AE
:10B5C00000933078D5E9002300F0F2FB0028E1D0A9
:10B5D0009DF80F30002BC0D1DCE700BF5C060021D6
:10B5E0002DE9F041884617461E46044658B152EAF6
:10B5F00006030E4D0AD100F055FF012806D104467E
:10B60000EB880133EB802046BDE8F0813A463346B3
:10B61000404600F0C5FE20B9AB8802240133AB8060
:10B62000F1E7EB880133EB80EDE700BF5C0600211A
:10B6300037B5DDE9065410B9002003B030BDCAB1FA
:10B64000230A03F0C003402B14D129B12846214618
:10B650000AAB08AA00F0D8FCDDE90A232846CDE9A8
:10B66000002321469DF8202000F02EFC003818BF52
:10B670000120E2E79DF82000DDE90A2300F005FD46
:10B680000238C0B20128D7D8024A0220538B0133B6
:10B690005383D2E75C0600212DE9F04F90F800803B
:10B6A0000D8808F00F0845FA08F515F001058146E8
:10B6B0000F4692461C466E4E87B006D13388013342
:10B6C0003380284607B0BDE8F08F4FF4C07B728806
:10B6D0004BFA08FB01321BF0010B4378728001D05A
:10B6E0000125EEE703F03F03637484F8108010F83F
:10B6F000025B26F02BF9C5F38015E574A574C4E947
:10B700000201C4E900017868514604F1080304F11C
:10B710001302C0F38010FFF701FF0128054602D095
:10B72000022839D05D46D4E90223D7F804C094F842
:10B7300013E01CF0040B0ED0D7E90410834208BFBD
:10B740008A4203D1CCF3C00CE64527D04FF0020B60
:10B750003089013030817888714640FA08F000F075
:10B760000100FFF73DFF584523D2D7F804C01CF075
:10B77000040F1CD0D7E90413A068E2689A4208BFFE
:10B78000884204D1E37CCCF3C00C63450CD03389F0
:10B7900001333381012D1AD1002592E770894FF0D2
:10B7A000010B01307081D6E7738901337381012564
:10B7B0000DE07888E17C40FA08F000F00100D4E95F
:10B7C0000223FFF70DFF0128F1D90228E2D04FF044
:10B7D000010BB8F1050F257584F815B080D80BFA68
:10B7E00008F818F02A0F3FF47BAF484610F8085BC2
:10B7F00026F0ACF8D4E902238146CDE90423786829
:10B80000E37CED09CDE9009188462A465146029332
:10B81000C0F30010FFF70CFF01283FF461AF0228CE
:10B82000BAD07B68DA077FF55BAFD7E902124245F1
:10B8300008BF494503D1C3F34002AA4213D0B289DD
:10B840000132B281002DA7D04FEA182808F0C008B5
:10B85000B8F14008A0D19B069ED5338C01333384C8
:10B8600084F815802DE7F3890133F38138E700BFB1
:10B870005C0600212DE9F04F07461C4608883B7CFA
:10B880000E46184110F001009046624D87B005D178
:10B890002B8801332B8007B0BDE8F08F6B88013314
:10B8A0006B80D7E90023C4E90223C4E90023BB7CF1
:10B8B00004F11302E374A374486804F108034146D9
:10B8C000C0F38010FFF72AFE0128814603D002282A
:10B8D0003DD04FF00009D4E90223D6F804C094F813
:10B8E00013E01CF0040A0ED0D6E90410834208BF0E
:10B8F0008A4203D1CCF3C00086452AD04FF0020A19
:10B90000288901302881708897F810C0714640FA64
:10B910000CF000F00100FFF763FE504525D2D6F889
:10B9200004C01CF0040F1DD0D6E90413A068E2681F
:10B930009A4208BF884204D1E37CCCF3C00C634533
:10B940000DD02B8901332B81B9F1010F1BD10020C0
:10B95000A1E768894FF0010A01306881D3E76B895C
:10B9600001336B814FF001090DE03B7C7088E17C75
:10B97000184100F00100D4E90223FFF731FE01284D
:10B98000F0D90228E0D04FF0010A84F8149084F82E
:10B9900015A07B7C990701D401207CE797F81390D0
:10B9A000D4E90223D7E902B77068CDE90423E37C28
:10B9B0004A464146CDE900B70293C0F30010FFF7B5
:10B9C00037FE01283FF467AF0228C0D07368DA075A
:10B9D000E2D5D6E90212BA4208BF594503D1C3F3F2
:10B9E00040024A4511D0AA890132AA81B9F1000F5B
:10B9F000ADD03F0A07F0C007403FA8D19B06A6D5AF
:10BA00002B8C01332B846775C6E7EB890133EB81FF
:10BA1000C2E700BF5C060021054B03F1240253F886
:10BA2000041B934240F8041BF9D11B880380704724
:10BA30005C060021002330B50A4C0B4D23700B4CE3
:10BA400023708B070EBF0B4621F0030304332B60DA
:10BA500003EB00135B1A934296BF2070002098B24C
:10BA600030BD00BF8206002184060021830600212C
:10BA7000F0B500240D499DF814C00D780C490968F3
:10BA8000A54201D80020F0BD0E7A864208D1D1E946
:10BA900000769E4208BF974202D14E7A664502D098
:10BAA00001341031ECE70120EDE700BF82060021F0
:10BAB00084060021014B1878704700BF83060021DF
:10BAC0000022014B1A7070478206002130B50B49E5
:10BAD0000B4D09782C78A1420DD90A49096801EB70
:10BAE000041108720120C1E900239DF80C300134D3
:10BAF0004B722C7030BD0020FCE700BF8306002194
:10BB000082060021840600212DE9F0411B4C844669
:10BB1000276800253C46DFF868E09DF818809EF80D
:10BB20000010EEB2B14201D8002021E0267A66452D
:10BB300020D1D4E900069E4208BF90421AD1667A0D
:10BB4000464517D1012901F1FF300ED985420CD0AD
:10BB500001F18051013907EB01110B7A2372D1E910
:10BB60000023C4E900234B7A63728EF800000120A1
:10BB7000BDE8F08101351034D3E700BF8406002111
:10BB800082060021F0B50C4943EA00430D780B49C9
:10BB90000C680021C8B2854201D800200AE0204686
:10BBA000D0E908769E4208BF974201F1010104F1F5
:10BBB0004804EFD1F0BD00BF8C06002190060021A3
:10BBC00030B585B00C4605461022002168462BF0A2
:10BBD0003EFD6A46230A28468DF800401146240C93
:10BBE0008DF801308DF8024027F02EFC9DF80230D0
:10BBF0009DF801001B0443EA00239DF80000184350
:10BC000005B030BD13B5042104460DEB010027F04B
:10BC100003FD01992046C1F3150141F48001019112
:10BC2000FFF7CEFF019940EA0160090A02B010BD9A
:10BC3000002330B50A4C0B4D23700B4C23708B073F
:10BC40000EBF0B4621F0030304332B60482505FB90
:10BC500000335B1A934296BF2070002098B230BD2B
:10BC60008C060021900600218D060021014B1860F2
:10BC7000704700BF88060021014B1878704700BF4D
:10BC80008D0600210022014B1A7070478C0600219E
:10BC9000F8B507461D46FFF775FF1646044680B9FE
:10BCA0002E4A2F4913780978994201D80020F8BD0F
:10BCB00048202C490C6800FB034401331370002C0E
:10BCC000F4D0224645EA0745069BC4E9086503F11E
:10BCD000100153F8040B8B4242F8040BF9D10123F5
:10BCE00004F10F0284F84030631E13F8011F71B392
:10BCF000002384F8403004F110000246079B03F152
:10BD0000100153F8045B8B4242F8045BF9D1012324
:10BD100084F84130034604F1200213F8011BC9B135
:10BD2000002384F8413000230022C4E90A23C4E937
:10BD30000C23C4E90E230023A4F8423094F84130C8
:10BD40001BB9FFF75FFFC4E90C010120AFE79A427E
:10BD5000CBD1D0E79A42E0D1E5E700BF8C060021C5
:10BD60008D0600219006002138B5FFF70BFF78B152
:10BD7000084D2C78012C08D9482202FB04F306490F
:10BD8000483B096819442BF03BFC0120013C2C7016
:10BD900038BD00BF8C0600219006002108B5FFF7D2
:10BDA000F1FE20B19DF8083080F84330012008BD35
:10BDB00008B5FFF7E7FE20B190F843200120029B71
:10BDC0001A7008BD10B5029CFFF7DCFE40B1D0E947
:10BDD0000A2352EA030116BF01200020C4E9002310
:10BDE00010BD10B5029CFFF7CDFE40B1D0E90C2389
:10BDF00052EA030116BF01200020C4E9002310BD50
:10BE000008B5FFF7BFFE28B1029BD3E90023C0E9C4
:10BE10000C23012008BD10B5FFF7B4FE044698B10D
:10BE200090F8403083B990F8423033B9FFF7EAFE1A
:10BE30000123C4E90A0184F84230029BD4E90A01D3
:10BE4000C3E90001012010BD0020FCE7F7B5002682
:10BE5000194C94F800C0194C25683446F7B2BC451B
:10BE600010D80CB3164C2468F4B1164E758C0135FD
:10BE70007584D3E90067CDE9006713780122A047F4
:10BE8000002411E095F8407097B9D5E90A748C4206
:10BE900008BF87420BD10124E98C01F00101117028
:10BEA000296AAA8CC3E90012204603B0F0BD012420
:10BEB00001364835D2E700BF8C06002190060021EC
:10BEC000880600215C0600212DE9F347DDE90A67B9
:10BED0009146804632463B4648460D46FFF752FEA5
:10BEE000E8B190F84140D4B9D0E90E23AB4208BF85
:10BEF000424516D00C4BD3F800A0BAF1000F0AD07F
:10BF00000A4A4046938C2946013393844B46224685
:10BF1000CDE90067D047204602B0BDE8F087002495
:10BF2000F9E70124F7E700BF880600215C0600213D
:10BF300038B505461046DDE904230C46FFF722FE1E
:10BF400050B190F8413043B9D0E90E23A34208BF65
:10BF5000AA420CBF0120002038BD0020FCE70000F1
:10BF60002DE9F74F0E4605461F464FF000084FF0EB
:10BF7000480B010E41EA0621DFF880A0009221F073
:10BF80007F411F4B5FFA88F41B78A34205D81D4AF6
:10BF90000020138A0133138229E0DAF800300BFB0A
:10BFA000043494F84090B9F1000F23D1D4E90A2366
:10BFB000B34208BFAA4210D020460191FFF700FE0D
:10BFC00025F07F438342019914D10E4AC4E90A56F1
:10BFD000538A84F84290013353820120E38C009A03
:10BFE00003F001031370226AA38CC7E9002303B096
:10BFF000BDE8F08F08F10108C3E700BF90060021FB
:10C000008C0600215C06002170B50E461146D3E96E
:10C01000002305460878FFF7B5FD0446E0B190F827
:10C020004130CBB9D0E90E23B34208BFAA4211D0A8
:10C03000290E41EA062121F07F411030FFF7C0FDB3
:10C0400025F07F43834207D1064AC4E90E56D38ABE
:10C050000133D382012004E00020024A938A013395
:10C06000938270BD5C06002108B5FFF78BFD48B1D7
:10C07000D0E90A23134306D190F84030002B14BFB7
:10C080000120022008BD0320FCE708B5FFF77AFD78
:10C0900048B1D0E90C23134306D190F84130002B6E
:10C0A00014BF0120022008BD0320FCE72DE9F04168
:10C0B00000254FF04808124E124F3378ECB2A342DD
:10C0C00001D8BDE8F0813B6808FB043494F84130A6
:10C0D0002BB904F11000FFF795FDC4E90C0194F8A9
:10C0E00040303BB994F8423023B12046FFF78AFD37
:10C0F000C4E90A01012384F844301D44DDE700BF90
:10C100008C0600219006002108B5FFF73BFD034691
:10C1100020B1002290F8440083F8442008BD08B5FF
:10C12000FFF730FD003818BF012008BD1FB5002300
:10C1300001A8CDE90133039327F014F805B05DF8A9
:10C1400004FB000038B50C460E4D0F4BAB670F4B90
:10C15000EB678368C5F880308360D1F8903008467B
:10C16000C5F8843026F072FF05F1780026F0F2FF62
:10C17000FFF7DCFFB4F89C10D4F89800BDE8384015
:10C1800027F040B8CC05002129C2000191C100016F
:10C19000F8B5044624F0EEFE856A14F0FB0F214644
:10C1A000D5F8943020D19847F8B127F05BF81B4BB5
:10C1B0001B4E1B689F7827F007FBD5F8903038445A
:10C1C000C6F880002846C6F8843026F03FFF06F106
:10C1D000780026F0BFFFFFF7A9FFB5F89C10D5F84F
:10C1E000980027F00FF802E0984724F0D9FE032CBE
:10C1F0000C4B06D0042C08D05CB91A6801321A60C6
:10C20000F8BD9A6801329A60FAE75A6801325A60BA
:10C21000F6E71A6901321A61F2E700BFB043002164
:10C22000CC05002194060021F7B5054624F0A2FEB6
:10C230001C4E0746846A25BB27F014F82946384669
:10C24000D4F89030984700B3174DB4F89A20D5F839
:10C25000803020461344C5F8803026F0F7FE05F103
:10C26000780026F077FFFFF761FFB4F898300121DE
:10C27000ADF80030D4F894306846019326F07AFF88
:10C2800006E02946D4F89030984724F089FE25B975
:10C29000F3680133F36003B0F0BD336901333361F8
:10C2A000F9E700BF94060021CC05002137B50C4604
:10C2B0000F4D104BAB67104BEB678368C5F88030B0
:10C2C0008360084626F0C2FE05F1780026F042FFA2
:10C2D000FFF72CFFB4F898300121ADF80030D4F806
:10C2E00094306846019326F045FF03B030BD00BF8F
:10C2F000CC05002129C2000191C1000108B526F03A
:10C30000B3FFBDE8084024F04BBE000010B5094C57
:10C31000002022460849FFF7F7F822460120074986
:10C32000FFF7F2F8BDE810401C22002104482BF072
:10C330008EB900BFFDC20001ADC2000145C10001C0
:10C340009406002130B50446034D0FCD0FC495E887
:10C35000070084E8070030BD94060021002330B5B3
:10C360000B4C0C4D23700C4C2B7023708B070CBFA7
:10C370000B4621F00303094D18BF04332B6003EB78
:10C38000C0035B1A934296BF2070002098B230BD64
:10C39000B1060021B0060021B2060021B40600213A
:10C3A00030B50B4943EA00430A480968047801EBB9
:10C3B000C404A14201D1002030BDD1E9005098420F
:10C3C00008BF954201F10801F3D10120F4E700BF55
:10C3D000B4060021B1060021014B1878704700BF58
:10C3E000B20600210023024A1370024A13707047FC
:10C3F000B1060021B006002170B5064615461C4660
:10C40000FFF7CEFF80B9094B094A197812788A42A2
:10C410000BD9084A44EA0644126802EBC10042F80C
:10C420003150013144601970012070BDB106002106
:10C43000B2060021B406002143EA00431148F0B5DA
:10C440000468DFF844C025469CF8001004EBC10ED8
:10C45000754501D1002014E02846D0E900769E42BF
:10C4600008BF974205F10805F2D1012905D904EB6F
:10C47000C10454E90223C0E90023012001398CF8EA
:10C480000010F0BDB4060021B10600210122014BCD
:10C490001A707047B00600210022014B1A707047D5
:10C4A000B0060021014B1878704700BFB00600218C
:10C4B00037B5044623F0BAFA0022144B9C42144BC1
:10C4C0000CBFDA701A7194F8423003F0FD03012BAF
:10C4D00001D123F0BBFA20460BF046FE04F12805FB
:10C4E00028460DF1070125F06DFB40B93034204698
:10C4F0000DF1070125F066FB20B903B030BD25F032
:10C5000049FBEDE725F046FBF1E700BFB00D002148
:10C51000C03F0021154A38B5154C164B10685168BC
:10C520001D6804F13C0303C304F1480029790BF0B2
:10C5300043FF012024F0A8FC23F070FA01230E4DE4
:10C54000EB7094F8423003F0FD03012B01D123F08E
:10C5500075FA0BF02BFE00200123687184F8C031BE
:10C56000A4F8BE31BDE8384023F003BA8C40002166
:10C57000B00D0021AC0D0021C03F0021054BDB7840
:10C5800033B10123044880F899309C3025F088B8F5
:10C59000704700BFC03F0021B00D0021002023F0F4
:10C5A000E8B90C2023F0E5B908B5012024F082FC9D
:10C5B000BDE808400148FFF77BBF00BFB00D002178
:10C5C00008B5012024F076FC0348FFF771FFBDE8B1
:10C5D0000840002023F0CDB9B00D0021FFF7E4BFE3
:10C5E000034B044A19684B6813608B6853607047AB
:10C5F000AC0D00218C40002108B5084B08481B6891
:10C60000197990F888308B4202D048300BF0D4FE74
:10C61000BDE80840002023F0ACB900BFAC0D0021FC
:10C62000B00D002110B50446012024F043FCA37B8B
:10C6300003F0FD03012B01D123F008FAD4F8C8025E
:10C6400020B125F0A7FA0023C4F8C832D4F8D002EC
:10C6500020B125F09FFA0023C4F8D032034AD378E2
:10C66000013BD370BDE8104023F0E0B9C03F00218A
:10C6700038B505460F4C012024F01CFC2C1B0E483D
:10C68000EB68241144430BB1A0B298470434E0B2E4
:10C6900024F030FA95F858320BB123F0E7F923F083
:10C6A000C5F9D5F8440208B125F074FA00232B70BF
:10C6B00038BD00BFC8180021D1581F1A38B50C4624
:10C6C00005460E22002120462AF0C1FF204695F89B
:10C6D000C03200F8023BD5E9B22325F03DF995F8C8
:10C6E000C132084A637095F808332372D5F84C318B
:10C6F000A3FB0232DB0F43EA4203638195F850311A
:10C70000237338BDE3361A0038B50446012024F0FF
:10C71000BBFBA37B03F0FD03012B01D123F08EF9BA
:10C72000002320466370A370A4F8083284F83C30DC
:10C730000CF07EF9054620B920460CF08FFA05462C
:10C7400040B1284623F068FA2046BDE8384003216E
:10C750000CF066BC074AD3780133D37023F05EF93E
:10C760000123284684F86830A4F86630BDE83840D4
:10C7700023F052BAC03F0021002023F04DBA000040
:10C7800030B4027C0121022A18BF00220C4C8170B7
:10C79000657895420AD190F8082222B900F5037015
:10C7A00030BC24F07DBF00F54A70F9E701FA02F2CF
:10C7B000217821EA02022270032130BC0CF030BC47
:10C7C000780F0021002023F027BA000010B5094C93
:10C7D0006378012B04D9BDE810400C2023F01CBA6B
:10C7E00004F1600025F0C3FB04F17000BDE81040C7
:10C7F00025F0BDBB800F0021034B5B7813B10C20EB
:10C8000023F00ABA704700BF800F0021024B58780E
:10C8100000B10C2023F000BA800F002108B5FFF70B
:10C8200001FF044B5B7823B1BDE80840002023F0F2
:10C83000F3B908BD800F002138B51E4B01201C68DC
:10C8400024F022FB23790BB123F008F923791A4D48
:10C850002B72D4E90223C5E90423E379AB72A379EF
:10C860006B72637D2B760CF01FFFD8B128622379A1
:10C8700080F85832A37980F85932E37980F85A3237
:10C88000D4E90223C0E998230A22238AA0F850326F
:10C89000638A5343C0F854320B2343726379837124
:10C8A000237DC371286A0CF08BFCBDE8384023F06F
:10C8B000B5B800BF6C2B0021302B0021034B5A78F8
:10C8C000012A04BF00225A70704700BF302B00219C
:10C8D000084B186A90F843220AB9012202715B786A
:10C8E000012B03D1C3702C3024F0DABE05210CF0EB
:10C8F000B1BB00BF302B002130B50F4C85B0637841
:10C90000012B07D10025206AC37005712C3024F05B
:10C91000C7FE65706946206AFFF7D0FE216A074BA3
:10C920006A46C91A064B091159433E2089B223F0C1
:10C93000A9F905B030BD00BF302B0021C818002177
:10C94000D1581F1A30B52D4C85B06378206A012B61
:10C9500004BF00236370FFF78BFE256A2B7973B148
:10C960000E22002168462AF072FE25496A46691A9D
:10C97000244D09116943442089B223F083F9256AC3
:10C9800095F84332ABB1217A11F0010113D10E2297
:10C9900068462AF05CFE1A496A46691A194D09115F
:10C9A00069431A2089B223F06DF90022236A83F8C3
:10C9B000432205B030BD182025F0E4F801460028D8
:10C9C000F3D040F20B134380D4E90423C0E90223DF
:10C9D000A37AC371637A8371237A0371236A9A7984
:10C9E0004271B3F85022D3F8543202824382237E3C
:10C9F0004375054B187B25F0D6F8D6E7302B002180
:10CA0000C8180021D1581F1A004000212DE9F04319
:10CA10003D4B85B01D680CF047FE0446002870D0E1
:10CA2000012024F031FA002184F8581295F82030C2
:10CA3000364F84F8593295F82130354E84F85A3201
:10CA4000D5E90A23C4E9982395F82330384684F8B9
:10CA500008334FF47A73C4F854320C233461A4F8C9
:10CA600050126372A91D16F03BFF40F2E242BB88F0
:10CA70005343C4F84C3195F8203084F8C03295F80F
:10CA8000213084F8C132DB07D5E90A01C4E9B201DB
:10CA90001CD50B0A03F0C003403B17D14FF0000830
:10CAA0004FF000098DF807300DF1070202ABCDE918
:10CAB0000289FFF755FA48B19DF8073043F00203A9
:10CAC00084F8C132DDE90223C4E9B22330690CF0F5
:10CAD00077FB22F0A3FFAB88288BB3806B8B708031
:10CAE000F380AB8B33812B8E738195F822303373B7
:10CAF000EB8BF3810CF058FC05B0BDE8F04305F07A
:10CB00002DBC05B0BDE8F0836C2B0021702B0021FB
:10CB1000582B002170470000012310B5054C2069F7
:10CB2000C3702C3024F0BCFD21693E20BDE81040CC
:10CB30000CF00ABE582B0021034B186901232C303E
:10CB400000F8293C24F0ACBD582B0021044B186997
:10CB5000C378012B04BF0023C370FFF789BD00BF5A
:10CB6000582B00211FB5437A04460B2B0ED1694682
:10CB7000FFF7A4FD0A496A46611A0A4C091161438C
:10CB8000002089B223F07EF804B010BD0C2BFBD13D
:10CB90000146002004B0BDE810400CF0D5BD00BF38
:10CBA000C8180021D1581F1A01232C3000F82A3C44
:10CBB00024F076BDFFF75CBD012310B504468370F9
:10CBC0002C3024F06DFD04F52C7025F0D0F90548CB
:10CBD000201A054C00116043BDE8104080B223F0DC
:10CBE00078B800BFC8180021D1581F1AF8B50579C8
:10CBF000C38815B1012D18D0F8BD4FF444725343CA
:10CC00000E490688CC18B4F880214088921B8242D5
:10CC1000F2DCD4E95E6703F51E73C4E99E67C818A9
:10CC200022F05CFF84F87051E6E74FF44472034849
:10CC300002FB0303002283F8D821DDE7C818002196
:10CC400008B522F0F3FE0022054B5A70054B93F80D
:10CC500021301BB1BDE8084022F0F8BE08BD00BF7E
:10CC6000C03F0021C840002108B5012024F00CF984
:10CC700022F0D4FE0122074B5A70074B93F8213063
:10CC80000BB122F0DBFE0CF06DFEBDE80840002089
:10CC900022F060BEC03F0021C840002108B501203D
:10CCA00024F0F2F822F0BAFE0122064B5A70064B2D
:10CCB00093F821300BB122F0C1FEBDE808400CF022
:10CCC00051BE00BFC03F0021C8400021054B5B782A
:10CCD00033B10123044880F829302C3024F0E0BC23
:10CCE000704700BFC03F0021B82B0021002022F078
:10CCF00031BE0C2022F02EBE2DE9F0415B4B8AB0F4
:10CD00005B78002B00F0AF80594C94F82860002E1F
:10CD100000F08480D4F8EC80B8F1000F79D00122C3
:10CD200004F5847304F1D0014046FEF7B5FC0646D5
:10CD3000602024F027FF0546002800F0908000F1D5
:10CD40000807384608F1020116F093FF384616F03E
:10CD5000E7FF00B196B9284624F01CFF042024F018
:10CD600011FF014630B14FF441734380414B187BB2
:10CD700024F019FF012024F09DF84AE00023AB7055
:10CD8000D4F84831AB6394F81B3185F83C3094F803
:10CD90001A219A4207D1D4E94461D4E9420291426E
:10CDA00008BF864203D043F0020385F83C300020E0
:10CDB000D4E944230021C5E91223C5E9140194F8FC
:10CDC0001B0194F81A11884207D1D4E94470D4E9C0
:10CDD0004261884208BFB74203D0D4E94201C5E9A5
:10CDE000140195F83C0013F025FA0028B3D1224B2A
:10CDF0002946D3E91C23C5E9162394F82A3085F87F
:10CE0000410085F83D300123EB871A4B187B24F055
:10CE1000CAFE0AB0BDE8F041FFF712BF164C0CF095
:10CE2000D9FE257C012DA5D13146242201A82AF066
:10CE30000EFC43F60543ADF806303C238DF8083070
:10CE4000A37C0DF10E008DF80D30D4E906238DF88A
:10CE50000C5024F081FD01A822F074FD8AE7002E19
:10CE60003FF47CAFD5E70AB0BDE8F081C03F0021B8
:10CE7000B82B002100400021C840002108B5012046
:10CE800024F018F8FFF7DCFE0CF0A4FEBDE8084023
:10CE9000002022F05FBD08B5012024F00BF8FFF759
:10CEA000CFFEBDE808400CF095BE0000054B30B544
:10CEB0001C68054D08340FCC0FC594E80F0085E8B9
:10CEC0000F0030BDAC0D0021D040002110B504464C
:10CED000012023F0EFFF074B1868201A064CC01002
:10CEE00060430430C0B223F04BFDBDE8104022F097
:10CEF0009DBD00BF782D0021FBE14BC710B5044656
:10CF0000D0F8280928B1043824F044FE0023C4F8DE
:10CF10002839D4F8FC0728B1043824F03BFE00235C
:10CF2000C4F8FC3794F83B300BB122F08FFD024A75
:10CF30009378013B937010BDC03F002138B5044683
:10CF40001F4D012023F0A0FF2A682046137A84F8A1
:10CF5000BC32002384F8BD3284F8BE3284F8343702
:10CF600084F836375168C4F8C0320DF0B3FF01467B
:10CF700040B1607822F0BCFE2046BDE83840042174
:10CF80000DF064BE0F4A93780133937094F83B30F0
:10CF90000BB122F053FD2B68596851B14FF47A72EE
:10CFA000636A0A39B3FBF2F304F52B70C91A24F053
:10CFB000D8FF60780021BDE8384022F099BE00BF5C
:10CFC0007C2D0021C03F002138B504461C4D0120B6
:10CFD00023F05AFF2A682046137A84F8BC320023D3
:10CFE00084F8BD3284F8BE3284F8343784F836379A
:10CFF0005168C4F8C0320DF06DFF014640B1607851
:10D0000022F076FE2046BDE8384004210DF01EBE19
:10D010002B685B6893B14FF47A71626A4B4302F5F7
:10D020009C520832B3FBF2F3013B534304F52B70DF
:10D03000B3FBF1F1BDE8384024F093BF38BD00BF29
:10D040007C2D002170B5134D00F52B76044630463B
:10D0500024F08DFF2B685B687BB14FF47A71626AB4
:10D060004B4302F59C520832B3FBF2F3013B5343AE
:10D070003046B3FBF1F124F074FF00212B68607897
:10D080001B7A84F8BD1284F8BC32BDE8704022F0EF
:10D090002FBE00BF7C2D002110B5044600F52B707B
:10D0A00024F065FF002384F8BE32012384F836376C
:10D0B00010BD0021407822F01BBE0C21407822F0E8
:10D0C00017BE0000F0B590F8343704469DB0002B31
:10D0D00034D100F52B7024F04AFF2046FFF70EFFF5
:10D0E000012023F0E7FE94F8BC2294F8BD3222B16F
:10D0F000934224BF432284F8BE22002294F8BE1239
:10D10000607822F046FC238C03F01D031D2B13D105
:10D11000002000213C230022CDE90401CDE90632A4
:10D12000CDE90201D4E90C0194F83A30CDE90001CF
:10D130000121607801F0C0FB1DB0F0BDD0F8FC67A4
:10D14000784F002E77D000F6180300F5FC6101221D
:10D150003046FEF7A1FA002800F0D080602024F0CD
:10D1600011FD0546002800F0C98063783146038030
:10D170000023837010A816F053FD311805F1080044
:10D1800016F077FDD4F8FC37002B00F0828094F87D
:10D190002BC804F5026185F83CC094F82A38634531
:10D1A00008D151E90203D4F820684A689A4208BFBE
:10D1B000864203D04CF0020C85F83CC0D1E9002334
:10D1C000C5E9122300220023C5E9142394F82B2873
:10D1D00094F82A389A4208D151E90203D4F8206819
:10D1E0004A689A4208BF864203D051E90223C5E942
:10D1F0001423012385F83E30D4F83037387BAB63F5
:10D20000494B2946D3E91C23C5E9162394F8353741
:10D2100085F83D30012385F83F3094F8BD3285F81C
:10D22000403094F82C3785F8413024F0BCFC20467F
:10D23000FFF764FE80E7D0F82869002E8ED03146D3
:10D2400008A816F0EDFC311810A816F012FD002306
:10D250000F939DF8203004F5FC618DF838300323DE
:10D260008DF83930DDE91023CDE90A239DF822300D
:10D270000AA88DF83A30DDE91223CDE90C239DF898
:10D28000233001228DF83B3004F51663FEF7F2FAE5
:10D2900061E794F873C904F5166185F83CC094F809
:10D2A0007239634508D1D1E90262D4F860094B684C
:10D2B0009A4208BF864203D04CF0020C85F83CC06D
:10D2C000D1E90223C5E9122300220023C5E9142372
:10D2D00094F8732994F872399A4208D1D1E902621C
:10D2E000D4F860094B689A4208BF864203D0D1E95E
:10D2F0000023C5E9142394F895387BE76378311F40
:10D3000026F8043C082306F8023C032306F8013CF7
:10D31000387B24F048FC01201DB0BDE8F04023F02C
:10D32000C9BD00BF00400021C840002110B504461F
:10D33000FFF7E4FD012023F0BDFD60780021BDE88A
:10D34000104022F0D5BC10B50446FFF7D7FD0120F0
:10D3500023F0B0FD2046BDE810400CF09DBD3C23FD
:10D3600080F8BE32012380F836377047002213461A
:10D37000F0B5D0E90076C3F12005A3F1200427FA27
:10D3800003F106FA05F5294326FA04F42143C907F7
:10D3900044BF81180B7203F1010348BF0132252BF2
:10D3A000E9D180F82D20F0BD70B50446002501209C
:10D3B00023F06AFD84F84E520AF0B8FDA4F8285113
:10D3C000254601262B4BC4F82401D3E90C23E5E9BB
:10D3D0009A23284622F082FBD4F82431284683EA97
:10D3E0001343B4F82811A4F8983284F896620CF02C
:10D3F00055FE84F84D0220460DF0CAFE054648B1A0
:10D40000204603210DF084FE29466078BDE8704077
:10D4100022F0A5BCA37884F82161012B13D194F8E4
:10D420007D290AB984F82A31D4F80064B4F8FC5391
:10D4300022F03AFA3246294624F09AFA0123A4F857
:10D440000C0484F87E3994F854325BB1D4F800644B
:10D45000B4F8FC5322F028FA3246294624F088FA20
:10D46000A4F856026078002122F079FCBDE87040F3
:10D4700022F0D4BAC03F00210021407822F06FBCD6
:10D480000C21407822F06BBCF8B583780446012B60
:10D4900011D190F82151012D0DD1D0F80074B0F8C0
:10D4A000FC6322F001FA3A46314624F061FA84F82E
:10D4B0007E59A4F80C04012384F84E32002304F5AD
:10D4C000967084F8213184F82A31BDE8F84024F0C0
:10D4D000E7B810B590F820310446012B04D1FFF7CE
:10D4E000D3FF2046FFF7F2FC2046BDE81040FFF7CF
:10D4F000D3BD10B590F820310446012B04D1FFF7BD
:10D50000C3FF2046FFF7E2FC2046BDE810400CF0C8
:10D51000C3BC10B50446FFF7D9FC60780021BDE814
:10D52000104022F01CBC000090F85030012B12D0AB
:10D53000094B1B68D3E90223C0E9A823C0E91623DD
:10D54000B0F828310633A0F86030082380F8523054
:10D55000012380F850307047742D0021D0F88839AD
:10D560000BB1407818477047D0F88C390BB1407830
:10D5700018477047682200212AF069B85030FFF739
:10D58000F9BF2A2307B58DF803008DF8040068461B
:10D59000ADF800108DF802308DF8051022F0D2F9A8
:10D5A00003B05DF804FB2C2307B5ADF800008DF83F
:10D5B00004006846ADF802308DF8051022F0C2F97B
:10D5C00003B05DF804FB08B5012023F05DFCBDE865
:10D5D000084022F023BA00002DE9F04FDFF838812F
:10D5E0000446D8F800608FB006F1080529460EF011
:10D5F00051FE2946002520460EF0ACFEAA46B37D1A
:10D60000AB423ED9002794F8562004F1570305F1A8
:10D61000010906E0D4F894302BBBC4F894B022E0A2
:10D620000137BA421FD913F8011B4945F8D12046EA
:10D630000DF0E8FF96F84030F18E0293D6E90E2304
:10D64000CDE900230A46F16A83460EF081F8D4F84A
:10D650009030002BDED1E368C4F890B06B4384F8BF
:10D660009C50C4F8983094F85630BB4207D194F8D7
:10D6700034305A1C0E3384F8342044F823A04D462D
:10D68000BDE7D8F80010204608310EF08BFD216F61
:10D6900004F1600024F065FC2B23A57820220021F2
:10D6A00006A8ADF81630ADF8145029F0D0FFE36AA3
:10D6B0001A4A0793A38A04F138015BBAADF8203007
:10D6C000E38A8DF81950ADF82230A3885034ADF8B4
:10D6D000243054F8403CA3FB0232DB0F43EA420300
:10D6E0000022ADF82630134651F8040B40B14088B3
:10D6F0000EAD5A1C05EB430323F80E0CD3B20122E6
:10D700008C42F1D10AB18DF8283005A822F01AF91F
:10D710000FB0BDE8F08F00BF8C2D0021E3361A005A
:10D7200090F8BA3080F85430704710B5437804460A
:10D73000012B8AB018D181780020FFF722FF202228
:10D74000002102A829F083FF2B228DF80620442215
:10D75000A37801A8ADF804308DF807208DF80820D3
:10D760008DF8093022F0EEF80AB010BD082380F8D9
:10D77000543070473D2380F85430704710B504464C
:10D78000012023F097FB20460EF0D6FA22F04EF946
:10D7900094F85430A07823B1BDE810401946FFF743
:10D7A00002BF0146BDE810401846FFF7EABEF8B5D3
:10D7B00005460FF06BFB044648B1284604210FF0E4
:10D7C00033FB21462846BDE8F8400FF0C7BA0120D8
:10D7D00023F05AFB2C6DCCB1012384F82131A378BE
:10D7E000012B13D194F87D290AB984F82A31D4F891
:10D7F0000074B4F8FC6322F057F83A46314624F03E
:10D80000B7F80123A4F80C0484F87E3928460221D5
:10D810000FF020FBBDE8F84022F000B9F0B5044657
:10D8200085B007200EF0C4F9064630B3144B03A9A7
:10D830001868258C0390304617F0ACFC114F063564
:10D84000ADB2D7E90C230095304417F0B6FC0622A0
:10D85000314620460EF0B3F994F8A030A4F8A85051
:10D8600043F0010384F8A030D7E90C23C4E92C234A
:10D87000236D13B1002283F8B82005B0F0BD00BFBE
:10D88000EC860301C03F002173B5044603200EF06F
:10D890008FF90646E0B1124B01A95868258C01901A
:10D8A000304617F077FC0635ADB22A4694F8BA1028
:10D8B000304417F094FC0622314620460EF07FF9E2
:10D8C00094F8A030A4F8B85043F0020384F8A030D4
:10D8D0000321204602B0BDE870400FF0BBBA00BF84
:10D8E000EC86030110B50446C43023F0D9FE20466F
:10D8F000BDE8104003210FF0ADBA000010B504469A
:10D900000B4B1B68C31A0B48DB1043430C33D8B2D4
:10D9100023F036F820460EF00FFA012023F0CAFA61
:10D9200022F084F82046BDE810400FF069BA00BF2D
:10D93000842D002167EBD06F7FB50622ADF806205D
:10D94000002203890D4DADF80430ADF80A30C37FD5
:10D9500001A88DF80C308DF8082021F0F3FF2B780A
:10D960004BB1074EF0880FF091FB044618B93046D2
:10D9700021F0E8FF2C7004B070BD00BFC20600218A
:10D98000B80600212DE9F0438BB0044615460E463B
:10D990002422002101A829F05AFE26238DF8023006
:10D9A00040F2E243B4F8582294F85B1294F85A72A9
:10D9B00002FB01FE02FB07F003FB0EFE94F84A9205
:10D9C00003FB00F8D4F85432B9F1010F0CBF5B1916
:10D9D000EB1A734405932369D4F850020393B4F807
:10D9E0004632B4F808C0ADF8183094F85C3208BF7D
:10D9F00040198DF81A3094F8643218BF281A8DF83F
:10DA00001B3094F8653208BF40448DF81C30A37A6F
:10DA100018BF4044ADF800C08DF803600CBF0490FF
:10DA20000490ADF806C08DF8046002958DF81D7065
:10DA30008DF81E10ADF824208BB9B4F83421012BD9
:10DA40000CBFB4F83431B4F830316846ADF820205A
:10DA5000ADF8223021F076FF0BB0BDE8F083B4F8CA
:10DA60003021ECE738B5054604200C4624F08AF84E
:10DA7000014650B12B89C47003800F238370034B80
:10DA8000187BBDE8384024F08EB838BD0040002136
:10DA900038B5054604200C4624F074F8014650B110
:10DAA000EB88C470038001238370034B187BBDE8AF
:10DAB000384024F078B838BD00400021014B9B7CF1
:10DAC000C3777047E02D0021024B1B681B79C37799
:10DAD000704700BF942D00213E23C3777047082371
:10DAE000C37770472223C37770470D23C3777047EE
:10DAF000014B5B7CC3777047E02D00213D23C3774A
:10DB00007047000010B50446C07A0FF031FB4FF4A7
:10DB100070711B4BE2881B6801FB0233C27C01322F
:10DB2000C274A27A22BB94F84612032993F84620C5
:10DB300021D1013A18BF01228A1A1A4492F9A82168
:10DB40007E2A1AD193F85D03B8B10E4A58181268AC
:10DB5000032992F9202080F8A72108BF83F8AB2180
:10DB6000D3F88C325B0702D5012384F83D3210BD17
:10DB700094F84712D9E70122DEE784F83A21F6E764
:10DB8000702E00217C3F0021002210B590F8473014
:10DB90000446C17F80F8472033B1222904D1BDE873
:10DBA00010401121FFF7EEBE00222046FFF7EAFEEB
:10DBB000E37F442B04D116232046E377FFF7BCFE16
:10DBC0002046BDE810400FF0E9BD000038B504461E
:10DBD000C08811F0AFFF054698B9082023F0D2FFA6
:10DBE000014668B1E388038041F2017343802389D1
:10DBF000C380E37F0371044B187B23F0D4FFA57629
:10DC000038BD0123A376FBE700400021F8B50446A8
:10DC10000121C688008914F01DFB0221208914F01F
:10DC200019FBE07A0FF0A4FA054604F50B7024F016
:10DC30009EF901236376E37F3E2B0CD100276776A4
:10DC4000EB7C2046013BEB740FF0A8FD3A462046E2
:10DC5000E17FFFF797FE144B1B6893F82A20134BC4
:10DC60001C680023934219D2E188B14217D1657E26
:10DC7000ADB9A17E99B1082023F084FF014668B1B7
:10DC8000E388038041F2017343802389C380E37FEB
:10DC90000371074B187B23F086FFA576F8BD01338F
:10DCA00004F53C74DEE700BF7C3F0021982D002185
:10DCB0000040002110B50446C07A0FF059FAA3784D
:10DCC000012B05D163762430BDE8104023F0E8BC79
:10DCD00010BD70B5054604200C46CE7F12F0D4FC72
:10DCE000014648B122230370E37A4370237BC67058
:10DCF0008370284612F09EFC21462846BDE87040FD
:10DD00000FF05DBE034B9B7CCB77012380F8C932BB
:10DD1000704700BFE02D002108460521FFF7A2BE95
:10DD2000FFF7D7BF012380F8C93270472DE9F041D2
:10DD300006460C46C87A0FF01BFAB6F86431B6F8FE
:10DD40009813DA1DB6F86631074602FB0133A4F8D2
:10DD500048300023A4F84A300FF0DEFAB4F8481037
:10DD6000B6F86651B6F86831726998BB40F2E2487D
:10DD7000491B4B4328492948096808FB0322791AA3
:10DD800009114143388A0A3108FB00F0C9B222F078
:10DD900005FED4E904239B1A0344E364B6F8683112
:10DDA00094F85C2208FB03F81D4BD4F860121B6842
:10DDB0009B8D01FB12334344E26C9A4201D2BDE8D1
:10DDC000F081A2EB0802E264B4F848200132A4F822
:10DDD0004820F1E740F2E2484D1B5D4308FB052572
:10DDE000B4F84A303E8A01339BB2A4F84A307343F8
:10DDF0003E6A294608FB0366304623F0F3F8002804
:10DE0000EED02946304623F0EDF8D4E904239B1ADE
:10DE10000344E364D3E700BF902D0021398EE3383B
:10DE20007C3F00217FB50546C87A0C460FF0A0F96B
:10DE3000C37C0646F3B9837C002B00F0E480417973
:10DE4000C1B940F2E242038A53437A4A10687A4ADF
:10DE5000301A00115043794A0A30CDE90112F268B4
:10DE6000C0B200921A4622F037FD002800F0CB80A5
:10DE70000123737121462846FFF758FF214630469B
:10DE80000FF0FEFA6E4BC5F878336E4BC5F87C3355
:10DE90006D4B1B681B88E380D5F8A031C4F8E830CF
:10DEA000B5F8DA31A4F828320AF040F8D5E95C2355
:10DEB000C4F8E40020460FF033FA242012F0E4FB0B
:10DEC0000146002800F095801F230370E37A437019
:10DED000237B837094F84632022B03D0032B14BFAC
:10DEE00001230423CB7094F84732022B03D0032B79
:10DEF00014BF012304230B71B4F84C3228464B7134
:10DF000094F84A32B4F84C22DB03C2F30B029BB202
:10DF100013431B128B71B4F84E32CB71B4F84E32EE
:10DF2000C3F303230B72D4F850324B72D4F850323F
:10DF30001B0A8B72B4F8523203F00F03CB72D4F881
:10DF400054320B73D4F854321B0A4B73B4F8563264
:10DF500003F00F038B73B4F83431CB73B4F834315E
:10DF60001B0A0B74B4F830314B74B4F830311B0A0F
:10DF70008B7494F85C32CB74D4F860320B75D4F89F
:10DF800060321B0A4B75B4F862328B7594F86432B8
:10DF900094F8652203F00F0343EA0213CB7594F85B
:10DFA0005A320B7694F85B324B76B4F858328B7653
:10DFB000B4F858321B0ACB76E36C0B77E36C1B0A80
:10DFC0004B77B4F84E308B77E36CCB77E36C1B0A5E
:10DFD00081F82030B4F84E3081F82130B4F8483060
:10DFE00081F82230B4F848301B0A81F8233012F04F
:10DFF00021FB01232146284684F8473004B0BDE8C0
:10E0000070400FF0DCBC2046FFF76FFD042023F0CA
:10E01000B9FD014608B904B070BDE388038044F639
:10E0200001334380094B187B04B0BDE8704023F0F6
:10E03000BABD00BF902D0021398EE33821EF0101D8
:10E0400001D901015DD901016C2E002100400021A0
:10E05000002310B50C46084681F84730FFF748FD0D
:10E06000204610F06DFF2046BDE810400221FFF76A
:10E07000F9BC000070B50546C87A0C460FF078F878
:10E08000384B0646D3E904329A4205D3C378FBB134
:10E09000204610F083FE1DE001220D21284601F0EC
:10E0A0008DF9214628460FF094FC0023204684F881
:10E0B0004730FFF71AFD214630460FF074FA20462C
:10E0C00010F03EFF02212046BDE87040FFF7CABCB9
:10E0D00010F0B2FD20460FF083F9337923B92246C0
:10E0E0002946304610F0D0FE0023102084F8473037
:10E0F00012F0CAFA014670B321230370D4F8E43059
:10E100004370D4F8E4301B0A8370B4F8E630C3706F
:10E1100094F8E7300371E36C4371E36C1B0A83717D
:10E12000B4F84E30C3716369037263691B0A4372AA
:10E13000E38A83722369C37223691B0A0373638AA8
:10E140004373B4F848308373B4F848301B0AC37380
:10E15000284612F06FFA214628460FF03AFC0121BA
:10E16000B1E700BFE02D002170B50646C87A0C4625
:10E170000EF0FEFF0546214630460FF02AFC2046F1
:10E18000FFF7B0FC214628460FF00DFA204610F0AC
:10E19000D7FE2046BDE870400221FFF763BC10B5F2
:10E1A0000C460FF016FC204610F0CAFE2046BDE8D3
:10E1B00010400221FFF756BC10B50C460FF009FCC9
:10E1C000204610F0BDFE44232046E3770221BDE83F
:10E1D0001040FFF747BC000040F67C4238B58B8CFE
:10E1E0000546043B9BB293420C4654D80B7E1F2B32
:10E1F00051D80B79012B4ED8CB88B3F5805F4AD22A
:10E200000B89B3F5805F46D2CB68B3F5801F42D24D
:10E210000B69B3F5801F3ED240F6FB738A8A9A429F
:10E2200039D8CA8A9A4236D889784B1E012B01D92F
:10E23000042930D1E078431E012B01D904282AD1CA
:10E2400021F0DAF838B394F82230013B1E2B22D8A3
:10E2500094F82330013B1E2B1DD894F82030102B4E
:10E2600019D894F82130102B15D8D4E90A319942E5
:10E2700011D3227E012A10D9B5F8680140F2E24597
:10E28000074B013A1B689B8D05FB0033E06900FBDF
:10E290001233994201D9122038BD0020FCE700BF9B
:10E2A0007C3F00211FB527220389ADF80620ADF879
:10E2B0000430ADF80A30C37AC2888DF80C30037B85
:10E2C000044601A8ADF808208DF80D3021F03AFB86
:10E2D00018B91A2120891FF0C7FC04B010BD000036
