:020000040100F9
:1088000000000121A93D03017D3D03015D3D030100
:108810007D3D03017D3D03017D3D03017D3D030160
:108820007D3D03017D3D03017D3D03017D3D030150
:108830007D3D03017D3D03017D3D03017D3D030140
:108840007D3D03017D3D03017D3D03017D3D030130
:108850007D3D03017D3803017D3D03017D3D030125
:10886000DD4C03017D3D0301B13503017D3D030175
:10887000DD3A03017D3D03017D3D03017D3D0301A3
:108880007D3D030129390301ED3703012D3B030130
:108890007D3D03017D3D0301353903017D3D03012C
:1088A000ED3A0301FD3A03017D3D03017D3D0301E6
:1088B0007D3D03017D3D030100000000000000003C
:1088C00000000000000000000000000000000000A8
:1088D0000000000000000000000000000000000098
:1088E0000000000000000000000000000000000088
:1088F0000000000000000000000000000000000078
:108900000000000000000000000000000000000067
:108910000000000000000000000000000000000057
:108920000000000000000000000000000000000047
:108930000000000000000000000000000000000037
:108940000000000000000000000000000000000027
:108950000000000000000000000000000000000017
:108960000000000000000000000000000000000007
:1089700000000000000000000000000000000000F7
:1089800000000000000000000000000000000000E7
:1089900000000000000000000000000000000000D7
:1089A00000000000000000000000000000000000C7
:1089B00000000000000000000000000000000000B7
:1089C00000000000000000000000000000000000A7
:1089D0000000000000000000000000000000000097
:1089E0000000000000000000000000000000000087
:1089F0000000000000000000000000000000000077
:108A0000DEE61E284CBBCE8F023500003C00000085
:108A1000AC2A03000100000000880001008800016A
:108A2000FFFF0291000000000000000000000000B5
:0C8A30000000000000000000000000003A
:108A4000002070470388F7B5A3F57C4306460C4623
:108A5000032B4DD8DFE803F00212204391F9000008
:108A600000F0A6FA04460120318823F003F818B17B
:108A700000F8054922F0AAFF01203AE0CB788A7875
:108A8000207802EB0322497892B22BF0BDFF08B1A7
:108A90000024E8E71224E6E7CA798B79497903EBE9
:108AA00002232279E07802EB0122A178657801EBBC
:108AB00000212078E77A00EB0520A57A9BB205EB30
:108AC0000725ADB20195657A247A92B204EB0524AC
:108AD000A4B2009489B280B22DF072F8D7E708787A
:108AE0002CF05EF80028D5D060782CF075F8CEE731
:108AF000002003B0F0BD00002DE9F047A34E86B082
:108B0000A3482BF04BFC304624F06AFD382206F1D6
:108B10000C0102202BF04EFC38220120B1182BF062
:108B200049FC382206F13F0106202BF043FC1022BD
:108B3000ADF8042008228DF8062020220B23ADF882
:108B400008208022042740F20D113371738CADF898
:108B50000C20727B1C338DF80E208DF81220ADF89E
:108B6000143096F82020F37FADF81010134496F8D7
:108B700026200DEB0701134496F827200520134407
:108B80008DF816308DF80A7029F006FE80B229F0B3
:108B9000D1FE29F071FF2AF0DDF800F065F929F027
:108BA000D9FE804629F0DCFE0446794829F02AF8EF
:108BB00022464146384603F05BFC08EB0009A4EB73
:108BC000000A054652464946384602F0ADFF0544C4
:108BD000AAEB000209EB0001384603F0A3F847199D
:108BE000304624F029FDB57FB844E41B35B1214659
:108BF000404624F06BFE05468044241A2146404638
:108C000024F01DFE241A804421460544404624F0E9
:108C10002CFE241A804481462146404624F04BFE17
:108C2000241A804482462146404624F030FE3D44CA
:108C3000211A0746404424F069FE00244D4455445F
:108C40003D44054428F0E4FF02F09EFC00F046FCA1
:108C500002F02CFB01F08EFA02F044FC01F054F813
:108C600001F072F801F08EFC2BF00AFF02F004F81C
:108C700002F09AF901F02AFD01F0ECFD03F0D0FBBF
:108C8000444829F0EDFE29F08BFC24F0D1FD24F0BE
:108C900033FE24F023FE24F0E1FD24F026FE24F030
:108CA0003EFE24F043FE24F0CCFD24F027FE24F009
:108CB00032FE24F0F7FD24F0E3FD24F0D8FD24F08B
:108CC0003CFE24F0FAFD24F0E6FD24F0FDFD24F046
:108CD00024FE314829F0C4FE24F0B4FC2F4829F0CA
:108CE000BFFE328D718C29F091F823F0FBFF24F048
:108CF00005F924F0B3F824F025F824F00FF924F056
:108D000083F824F011F824F0E9F824F089F923F02D
:108D1000F9FF24F0C3F824F025F824F097F824F0A4
:108D20006FF924F059F924F04FF824F02DF824F0CD
:108D30003BF824F059F824F02FF9194829F090FE57
:108D400024F0FEF824F0F2FA164823F0C5FF284676
:108D500029F0F0FD01A80194ADF8084024F0F0FDE1
:108D6000042168462BF0D2FC684627F0A1FD0122C1
:108D700000214FF4003024F085FE0B4829F08CFED2
:108D800029F096FE204606B0BDE8F087A801002134
:108D900098010021C1250301E5D60201391E030116
:108DA000B1D50201458A0001418A0001014B1878C2
:108DB000704700BF00000720014B1970704700BFCB
:108DC00000000720012070470122014B5A607047C4
:108DD0000020014138B5C400343420462FF0D6FDC0
:108DE000054618B1224600212FF007FE284638BD5F
:108DF0002EF01CBD70B50E46CAB1541EA0B229F0AB
:108E0000C3FD054698B12246711C2FF0CFFD337883
:108E1000022B0ED0052B05D0012B08D100212A46AC
:108E2000084602E02A460321002029F05BF80020D2
:108E300070BD2A460121F7E7C30703D5024B5868E6
:108E40002EF08ABB704700BF3002002148F29C63BD
:108E5000C360044B436003F55473036020238360B5
:108E6000704700BF048007201FB56846FFF7EEFF7C
:108E70000298FFF7AFFF044C20600298FFF7AAFFAB
:108E8000606004B010BD00BF3002002130B5294B36
:108E90008BB004AC93E80300002284E80300264969
:108EA00007202AF059FC25482AF072FC06A8FFF793
:108EB000CDFF20462FF046FA099B2148214C436103
:108EC0002FF022FA2246204920482FF0E9F92268A3
:108ED00093680BB102F10C0304201D4A06999060BF
:108EE0001062012051601B49BDF820400D6849689F
:108EF000156091611849079D886102205361948132
:108F0000D362D5619484CA620022886213480862E1
:108F1000009213482FF082F8124B134A0293134B1E
:108F20000F4901934FF0FF33114800932EF0FEFBE1
:108F30000BB030BD5C9A0301398E0001649A0301C5
:108F400000000021EC0100213C9A0301469A030134
:108F5000E00200213002002110030021E89A030101
:108F600038020021F18D00014E9A0301F58D0001B8
:108F7000F0010021022907B5184603F1FF3310D193
:108F8000042100F8011C012108480A4401910092C3
:108F9000D0E909122EF014FB03B05DF804EB28F0C1
:108FA00021BF01290CBF02210521EAE7F0010021C0
:108FB000024B83F87A000020704700BFB8530021AD
:108FC0002BF0DEB92DE9F8431C46D0F82890C5688F
:108FD00007460E46904628F0D5FE99F80D302C44F1
:108FE000022B04440DD0032B0DD0012B00D12834CB
:108FF000306C3D690319AB4208D935640020BDE8E7
:10900000F8831834F4E704F5A874F1E77B682D1AA7
:1090100063B14146986828F0BBFE854228BF0546EB
:10902000AC4203D9336C2B443364E7E7281B4FF47D
:109030007A75044B1B689C886C43A04228BF20466D
:10904000DDE700BFA05600211FB501238DF80430D5
:10905000002301A8CDE902332BF010F905B05DF82B
:1090600004FB1FB5002301A8CDE9013303932BF0C6
:1090700005F905B05DF804FB2DE9F8430446884680
:10908000866A2BF023FC05460146A06806F190078E
:1090900028F07EFE78B9A368DFF88C90C9F87C30A0
:1090A00028F070FE2844A060D9F87C10284628F0EB
:1090B0006FFEC6F8D000D6F89C300BB1204698471A
:1090C000394600232046A268FFF77CFF074618B9FF
:1090D000BDE8F84328F02ABE134DA3684046EB676D
:1090E0002BF058F8114BC5F88C70C5F88030104B38
:1090F00005F18000C5F88430A368C5F88830A36006
:109100002BF0B4F8002385F87830D6F8943043B1CA
:10911000FFF79AFFD6F890002721BDE8F8432BF01F
:10912000FDB8FFF79EFFF5E764060021ED9300010F
:10913000D19100012DE9F84380460C4628F000FE4D
:10914000064618B101263046BDE8F8832BF0BEFB79
:109150001D4D8146E96F28F01BFE236C03442364F8
:10916000C5F87C9028F00EFE4A460346214640464C
:10917000FFF728FF07460028E4D0636A53B1024690
:1091800049464046984728B10122D8F8283083F84C
:10919000C020D8E7D5F87C8028F0F4FD4044C5E92C
:1091A00022070A482BF062F8002385F878306368BC
:1091B00033B1FFF749FF272120682BF0AFF8C2E752
:1091C000FFF74FFFF7E700BF64060021E406002128
:1091D0002DE9F04F87B09A469DF8403003910293F5
:1091E000934607462BF072FBDFF8F491C9F80000B4
:1091F00028F096FDDDE90231846A8046D4F8BC503F
:10920000ADB194F8C020012A11D1CDE900A30A46DE
:109210005B463946D4F8B000A847012804D10023A2
:10922000C4F8B03084F8C03007B0BDE8F08F6D4AA4
:109230006D4D92F87860701C82F8780076B1022E3D
:1092400000F08680AC8C2BF041FBD9F80030C01ABE
:10925000844240F2B580A88CA884E5E707B3FB1EE2
:10926000012B40F2B680042F68D06FD83346012618
:10927000032F5DD032461E46EB690133EB61334666
:10928000164643B117F0FB0F46D0404604F190015B
:10929000FFF750FF0646002ED4D028F057FDD1E747
:1092A00084F8C31084F8C4303A46C4E932BAD4F81A
:1092B000900004F1D80304F1780102F067FA002865
:1092C00034D04046D4F8A030D4F890109847002805
:1092D0007DD06E8C2BF0FAFAD9F80030C01A864295
:1092E0001DD9688C94F8C1306884ADF81030D4F87A
:1092F00094300593FFF7A8FE012104A82AF0F0FF9F
:10930000D4F8A4301BB14046D4F8901098472B688D
:1093100001332B60002F95D02BF030F8B5E72BF000
:10932000D5FAD9F80030C01A80B2DBE70127EEE7A2
:10933000AA680132AA60002BA7D1ACE73346012608
:109340006A6801326A60002BE6D1A4E7012293E744
:109350006FB1FB1E012B1ED9042F4FF000034FF0FD
:10936000010629D022D9EA690132EA6189E73A4641
:10937000D4F8980004F1D80304F1780102F006FA59
:1093800028B14046D4F8AC30D4F8981098472B69EF
:1093900001332B61C0E7D4F8AC3000214046984738
:1093A000042F4FF001034FF0000605D0032FDAD150
:1093B000AA690132AA61BEE76A6901326A61C2E73D
:1093C0002BF084FAD9F80030C01A80B244E70127A4
:1093D00096E7042F4FF001037FF44AAFB0E700BFD8
:1093E000E805002164060021400300212DE9F8432F
:1093F00081462BF06BFA364E306028F091FC856A7E
:109400000746D5F8B83083B195F8C020012A0CD1B1
:109410004946D5F8B0009847012804D10023C5F883
:10942000B03085F8C030BDE8F8832A4B2A4C93F859
:10943000788008F10102B8F1010F83F878202CD16F
:10944000B9F1000F3FD13846D5F8A830D5F89410BF
:10945000984790B1B4F820802BF038FA3368C01ADE
:10946000804524D9238C2384FFF7FBFD2721D5F8E1
:1094700098002AF079FF4FF00008E3680133E360B9
:10948000B8F1000F09D02AF079FF384605F19001B4
:10949000FFF750FE08B128F059FCE58C2BF016FAC6
:1094A0003368C01A854208D9E08CE084BBE72BF012
:1094B0000DFA3368C31A9BB2D5E72BF007FA33686D
:1094C000C01A80B2F1E7E3690133E361E3E700BF6B
:1094D000E8050021640600214003002108B50220B0
:1094E000054A064902F08AF8BDE808402822002112
:1094F00003482FF082BA00BFC18F000179900001AC
:109500004003002130B50446044D0FCD0FC40FCDEC
:109510000FC495E8030084E8030030BD4003002138
:109520001FB5002301A8CDE9013303932AF0A6FE5D
:1095300005B05DF804FB1FB501238DF8043000234E
:1095400001A8CDE902332AF099FE05B05DF804FBCD
:1095500070B50546866A08462AF01CFE124C134B6D
:1095600004F18000C4F88030114BC4F88430D6F880
:10957000AC30C4F88C30AB68C4F88830AB602AF0EB
:1095800075FE002384F87830D6F8903043B1FFF7A9
:10959000D2FFBDE8704040F2011106482AF0BEBE7D
:1095A000FFF7BEFFF5E700BF64060021ED9800015C
:1095B000B19C00016803002170B50546866A084623
:1095C0002AF0E8FD0D4C0E4B04F18000C4F8843005
:1095D000D6F89830C4F88C30AB68C4F88830AB60EB
:1095E0002AF044FE002384F87830FFF799FFBDE8A5
:1095F000704040F2011103482AF090BE6406002139
:1096000009960001A00400212DE9F04F85B08B469A
:109610009DF838109A460392029106462BF056F9AF
:10962000DFF84882DFF84892C8F8000028F078FB9D
:10963000DDE9021299F878300746856A8D4C83B1CE
:10964000032B00F09580258C2BF040F9D8F80030E2
:10965000C01A854240F2FD80208C208405B0BDE810
:10966000F08FDEB1F21E012A40F2FA80042E73D090
:109670007CD81A460123032E68D019461346A269E6
:109680000132A2611A460B46002A6CD016F0FB0F7D
:1096900001D12AF073FE28F059FBD4E7032389F89F
:1096A00078300123C5E92B2A85F8B430324685F895
:1096B000AB10D5F89030704985F8AAB098470646A7
:1096C00078B328462AF066FD564409F18000C9F8AF
:1096D00088602AF0CBFDA68B2BF0F8F8D8F8003084
:1096E000C01A864216D9A08BA083FFF719FF40F25B
:1096F000011161482AF012FE3846D5F894305F49CE
:109700009847B0FA80F040092368013323600028AD
:1097100099D0BEE72BF0DAF8D8F80030C01A80B242
:10972000E2E7D5F89C2052B1D5F8A0603EB195F89B
:10973000A830514600933846D5F8A430B047384693
:10974000D5F894304C4998470120DDE7A1680131F4
:10975000A160002A9FD106E01A4601236168013109
:109760006160002A95D1002B95D16CE7012186E735
:10977000D5F89030AEB1F21E012A52D932460021FE
:109780009847D5F89430002138469847042E4FF07A
:1097900000024FF0010358D051D9A1690131A161F4
:1097A00072E7324685F8B46085F8AB1085F8AAB048
:1097B00031499847064668B328462AF0EBFC5644E0
:1097C00009F18000C9F888602AF050FDA68B2BF0C3
:1097D0007DF8D8F80030C01A864214D9A08BA08337
:1097E000FFF79EFE40F2011123482AF097FD38460C
:1097F000D5F8943021499847B0FA80F04009E368E1
:109800000133E36083E72BF061F8D8F80030C01A29
:1098100080B2E4E73846D5F89430174998470120DC
:10982000EDE7324600219847D5F8943000213846BC
:109830009847042E4FF001024FF0000305D0032E8D
:10984000ABD161690131616183E721690131216136
:1098500087E72BF03BF8D8F80030C01A80B2FCE65E
:10986000042E4FF001027FF406AF77E7E8050021F0
:1098700064060021A4050021A00400216803002142
:1098800070B5164B93F878506A1C012D83F8782038
:1098900015D1134CE1B9A68D2BF018F8114D2B689A
:1098A000C01A86420ED9A08DA085FFF739FE40F27E
:1098B00001110D482AF058FDE3680133E3600025EB
:1098C000284670BD2BF002F82B68C01A80B2EBE777
:1098D000A36A0133A36228F039FAF1E76406002194
:1098E0006C040021E80500216803002170B50446DE
:1098F0002AF0ECFF0B4D286028F012FA21460A4CA2
:10990000FFF7BEFF668E2AF0E1FF2B68C01A864281
:1099100002D9608E608670BD2AF0D8FF2B68C01A0D
:1099200080B2F7E7E80500216C0400212DE9F74F2C
:10993000DFF87C920E4699F878408046022CDDF8DC
:1099400030A09DF83410856A00F0C480032C00F02C
:109950003981002C40F09E81964F06B3F31E012BF7
:1099600040F29A81042E00F0AA8000F2B1802346D2
:109970000124032E00F0968022461C46BB6A013368
:10998000BB6223461446002B00F0928016F0FB0FBA
:1099900001D12AF0F3FC28F0D9F901248BE0C5E9C4
:1099A0002D3A85F8B210D5F89430834985F8B12066
:1099B00098470446002862D0D5F89030002B5ED03E
:1099C0000123B7F82EB089F878302AF07FFF7B4E5C
:1099D0003368C01A83454CD9FB8DFB8595F8A830B8
:1099E000ADF80030D5F890300193FFF7A4FD0121C8
:1099F00068462AF075FCD5F8983013B140466E4998
:109A00009847002C4CD1D5F8A030002B40D04046D0
:109A100069499847044600283AD0032389F87830EA
:109A20002AF0ACFC28462AF0B5FB54446448C9F837
:109A300088402AF01BFCBE8D2AF048FF5F4C23684B
:109A4000C01A86421ED9B88DB885FFF769FD40F26D
:109A5000011159482AF062FC4046D5F8A430564915
:109A60009847B0FA80F464093B6801333B6014B353
:109A70008FE72AF02BFF3368C31A9BB2ADE72AF0B9
:109A80007DFCB8E72AF022FF2368C01A80B2DBE72A
:109A9000D5F8A43013B14046474998470124E3E77D
:109AA0000024E1E7BA680132BA60002B7FF473AF9B
:109AB000002C7FF470AF204603B0BDE8F08F234642
:109AC00001247A6801327A60002B7FF462AFEFE7FD
:109AD000012253E70324374F89F878406EB1F31E13
:109AE000012B51D9042E4FF000034FF001045BD03D
:109AF00054D9BA6A0132BA6245E7C5E92D3A85F808
:109B0000B210D5F89C302C4985F8B1209847D5F88B
:109B1000A0308BB3404628499847044660B3284696
:109B20002AF038FB544409F18000C9F888402AF033
:109B30009DFBBE8D2AF0CAFE204C2368C01A8642C7
:109B400014D9B88DB885FFF7EBFC40F201111A4823
:109B50002AF0E4FB4046D5F8A43017499847B0FAFC
:109B600080F464093B6901333B6180E72AF0AEFE73
:109B70002368C01A80B2E5E7D5F8A43013B1404697
:109B80000D4998470124EDE7D5F89C30002198470E
:109B9000042E4FF001034FF0000405D0032EA8D18E
:109BA000BA690132BA6180E77A6901327A618BE77A
:109BB000640600216C04002168030021E8050021EF
:109BC000E4060021D5F8A030364FC6B1F21E012AB6
:109BD0004ED900219847D5F8A43013B10021404652
:109BE0009847042E4FF000034FF001044ED080D868
:109BF000032E7FF47EAF7A6A01327A6255E72A49F2
:109C00009847044660B328462AF0C4FA544409F140
:109C10008000C9F888402AF029FBBE8D2AF056FE44
:109C2000224C2368C01A864214D9B88DB885FFF734
:109C300077FC40F201111C482AF070FB4046D5F831
:109C4000A43019499847B0FA80F46409FB690133DC
:109C5000FB610CE72AF03AFE2368C01A80B2E5E700
:109C6000D5F8A43013B140460F4998470124EDE7D9
:109C700000219847D5F8A43013B1002140469847F9
:109C8000042E4FF001034FF00004B1D13A6A0132C3
:109C90003A6219E700240EE7042E4FF001037FF427
:109CA00068AE0EE76C04002168030021E80500217E
:109CB0002DE9F3410E461746984604462AF006FE63
:109CC0000F4D286028F02CF89DF8203021460D4CCF
:109CD0003246CDE900833B46FFF728FE268E2AF068
:109CE000F5FD2B68C01A864204D9208E208602B06A
:109CF000BDE8F0812AF0EAFD2B68C01A80B2F5E7D2
:109D0000E80500216C04002108B500220620054961
:109D100001F074FCBDE808403422002102482EF016
:109D20006CBE00BF519500016C04002130B50446A3
:109D3000044D0FCD0FC40FCD0FC40FCD0FC42B6832
:109D4000236030BD6C04002108B5002209200549BC
:109D500001F054FCBDE808402422002102482EF006
:109D60004CBE00BFB9950001A405002130B50446E2
:109D7000034D0FCD0FC40FCD0FC42B68236030BD32
:109D8000A405002170B50446866A08462AF002FA46
:109D90000F4DD6F8AC3005F18000C5F88C30A368C3
:109DA000C5F88830A3602AF061FA002385F878307E
:109DB000D6F8903043B1FFF7BEFBBDE8704040F2EB
:109DC000011104482AF0AABAFFF7AAFBF5E700BF81
:109DD00064060021680300212AF0D2BA1FB50023CF
:109DE00001A8CDE9013303932AF048FA05B05DF8E4
:109DF00004FB00002DE9F04F85B080460E469346E7
:109E0000994627F09DFF074668B93E4CD8F828A030
:109E100094F87A3094F87950032B06D118B184F86D
:109E20007A3084F87950012754E0022D92BF2A46F7
:109E3000033DEAB202F125018AF80110F17E551CBA
:109E400041FA02F20133D2074FF00100DBB2EDB26A
:109E5000E2D584F87A3084F87950B9F1000F04D152
:109E60001BF0FB0F01D12AF089FA50462AF092F933
:109E7000B9F1000F04D0D8F80830C4F8883009E0F0
:109E800073685BB32AF022FD054627F07BFF284468
:109E9000C4F88800002384F87830F3681BB140468A
:109EA000D4F88810984718482AF0E0F9736833B35B
:109EB00001238DF80430002301A8CDE902332AF0F4
:109EC000DDF9337E0121ADF80430336801A8029337
:109ED0002AF0DCF9384605B0BDE8F08F327E9AF8FA
:109EE0000E109AF80C0026F0EAFF054627F04AFF0C
:109EF000284427F04BF8D4F888300344BDE7FFF737
:109F00006DFFDEE764060021E40600210F4B104AD6
:109F100010B5816AC3F880200E4A91F8AA40C3F8B0
:109F200084200422C3F88C20002283F8794083F82F
:109F3000782083F87A2090310123FFF75BFF18B176
:109F4000BDE8104027F0F2BE10BD00BF640600213E
:109F500099A00001599F00012DE9F3479946054654
:109F60002AF0B4FCDFF82481494CC8F8000027F03F
:109F7000D7FE484A866A92F878300746591C012B6A
:109F800082F8781068D106F1900A002D4BD1C6F8FE
:109F9000AC902A46D6F8940006F1B00306F1780199
:109FA00001F0F4FB814668B33846D6F8A030D6F805
:109FB0009410984730B3B4F81A902AF087FCD8F878
:109FC0000030C01A814516D9608B6083FFF706FF09
:109FD00096F8A9300121ADF80030D6F898306846DF
:109FE00001932AF07DF9D6F8A430ABB13846D6F803
:109FF0009410984710E02AF069FCD8F80030C01A95
:10A0000080B2E2E7002351461A463846FFF7F2FED7
:10A010000546B9F1000FE6D1636801336360DDB135
:10A020002AF0ACF910E000232A465146FFF7E2FE81
:10A03000042D1ED001D8032D09D06369013363615B
:10A0400050B115F0FB0FEBD027F080FE04E0E36881
:10A050000133E3600028F7D1A58B2AF037FCD8F84C
:10A060000030C01A85420AD9A08BA08302B0BDE897
:10A07000F087A3680133A3600028D1D1ECE72AF070
:10A0800025FCD8F80030C01A80B2EEE7E8050021C0
:10A09000C8050021640600212DE9FF4107462AF08A
:10A0A00015FC314E314C306027F03AFE2FB1636918
:10A0B0000133636127F04AFE0CE02D4BD0F8288075
:10A0C00093F8785008F190016A1C83F878206DB1FC
:10A0D000022D39D0E58B2AF0F9FB3368C01A85428E
:10A0E0003BD9E08BE08304B0BDE8F081D8F8943030
:10A0F00023B3278B2AF0EAFB3368C01A874217D9AB
:10A10000208B01238DF804300023208301A8CDE9A2
:10A1100002332AF0B3F82421D8F894002AF024F965
:10A12000236801332360002DD4D02AF027F9C1E73A
:10A130002AF0CCFB3368C01A80B2E2E72B462A46ED
:10A14000FFF758FE0546EBE73B463A46FFF752FE5F
:10A150002369054601332361E5E72AF0B7FB33683D
:10A16000C01A80B2BEE700BFE8050021C805002183
:10A170006406002108B50320054A064901F03EFAAD
:10A18000BDE808402022002103482EF036BC00BF65
:10A19000D99D00010D9F0001C805002130B504467E
:10A1A000034D0FCD0FC495E80F0084E80F0030BDBC
:10A1B000C80500211FB5002301A8CDE90133039391
:10A1C0002AF05CF805B05DF804FB00002DE9F047CB
:10A1D00089469A4606462AF079FB5A4F5A4D38600E
:10A1E00027F09EFD594A846A92F878308046591CBF
:10A1F000012B82F8781040F08F80002E7AD19DF8E4
:10A20000203084F8FA9084F8D13094F8F830C4F80B
:10A21000D4A004EB8303D3F8F01000293FD0D4F886
:10A22000C430984700283AD0B5F81E902AF04EFB6B
:10A230003B68C01A814528D9E88BE883FFF7BAFF4D
:10A24000D4F8C8203AB194F8F830404604EB8303C0
:10A25000D3F8F010904794F8F83094F8F9200133CF
:10A26000DBB29A4284F8F83015D904EB830340F24C
:10A270000111D3F8F0002AF051F86B6801336B60DC
:10A28000002E49D02AF07AF844E02AF01FFB3B6800
:10A29000C01A80B2D1E7002384F8F830EDE7D4F893
:10A2A000A01009B90126E8E74046D4F8C430984721
:10A2B0000028F7D0B5F81E902AF008FB3B68C01ABA
:10A2C000814511D9E88BE883FFF774FF022104F17F
:10A2D000A4002AF005F8D4F8C830002BCDD04046B1
:10A2E000D4F8A0109847C8E72AF0F0FA3B68C01AE3
:10A2F00080B2E8E7042E1AD001D8032E07D0AB694C
:10A3000016F0FB0F03F10103AB6103D1BAE7EB6871
:10A310000133EB6027F01AFD2C8C2AF0D7FA3B684A
:10A32000C01A844207D9288C2884BDE8F087AB681E
:10A330000133AB60A6E72AF0C9FA3B68C01A80B2C5
:10A34000F2E700BFE8050021EC05002164060021CA
:10A35000F8B5CB6B06460C460BB90120F8BD0121C0
:10A36000984705460028F8D0B06A29F013FF114835
:10A37000114ED0F8883080302B44104D836029F086
:10A3800075FFAF8B2AF0A2FA3368C01A87420AD948
:10A39000A88BA883FFF70EFF04F12400022129F007
:10A3A00075FF0020DAE72AF091FA3368C01A80B20C
:10A3B000EFE700BF64060021E8050021EC0500215D
:10A3C0002DE9FF4705462AF081FA464F464C386092
:10A3D00027F0A6FC81462DB1A3690133A36127F0C4
:10A3E000B5FC1AE0DFF80481866A98F8785006F127
:10A3F000900A022D4CD0032D62D075B9D6F8A0304A
:10A40000BBB90323514688F87830FFF7A1FF054612
:10A41000236801332360002D60D1658C2AF056FA41
:10A420003B68C01A854253D9608C608404B0BDE893
:10A43000F08796F8F83006EB8303D3F8F00028B1E4
:10A44000D6F8FC30002BE3D09847E1E7012388F8E9
:10A450007830B4F81C802AF039FA3B68C01A80457D
:10A4600010D9A08B01238DF804300023A08301A80C
:10A47000CDE9023329F002FF2421D6F8A00029F00B
:10A4800073FFC5E72AF022FA3B68C01A80B2E9E7F9
:10A49000032388F878300E2296F8D110707BD6F816
:10A4A000D45026F00CFD9635054451464846C8F870
:10A4B0008850FFF74DFF2369054601332361AAE762
:10A4C0005146FFF745FF6369054601336361A2E723
:10A4D0002AF0FCF93B68C01A80B2A6E729F04EFFCB
:10A4E0007DE700BFE8050021EC050021640600219E
:10A4F000F0B51F4B1F4C866AC4F880301E4B85B0E8
:10A50000C4F884300423C4F88C3000230F46054679
:10A51000A4F8783027F014FC014630BBD6F8CC30D4
:10A520000BB128469847384629F034FEAB68002521
:10A530001248C4F8883084F8785029F097FED6F88D
:10A54000A0307BB1012301A8CDE902558DF804307C
:10A5500029F094FE022106F1900005B0BDE8F0401C
:10A5600029F094BEFFF726FEF4E705B0F0BD00BF6A
:10A57000C1A3000164060021CDA10001E406002171
:10A58000FFF7B6BF08B500220720074901F036F8EB
:10A5900000220820054901F031F8BDE808402422D6
:10A5A000002103482EF029BAF1A4000181A5000181
:10A5B000EC05002130B50446034D0FCD0FC40FCD7F
:10A5C0000FC42B68236030BDEC05002129F0D8BEF4
:10A5D0002DE9F0410F46984605462AF077F9224CBE
:10A5E000224E94F878303060013384F8783027F0C8
:10A5F00097FB0023826AD4F89410C2F89C8082F8FA
:10A60000A070C4F89430D2F898302A46984727F0C2
:10A6100097FB18B129F0B2FE27F098FB032D144CDC
:10A6200010D0042D12D0ADB9236801332360258BDF
:10A630002AF04CF93368C01A85420FD9208B208349
:10A64000BDE8F081A3680133A360F0E763680133DC
:10A650006360ECE7236901332361E8E72AF036F908
:10A660003368C01A80B2EAE764060021E8050021D9
:10A670001006002170B50446866A084629F08AFD56
:10A68000104D114B05F18000C5F88430A368C5F862
:10A690008830D6F89030C5F88C3029F0E7FD0023DB
:10A6A000204685F87830D6F89430984727F048FB54
:10A6B00030B127F035FB18B1BDE8704027F046BB3C
:10A6C00070BD00BF64060021D1A5000108B50C20B3
:10A6D000054A064900F092FFBDE808401C2200210F
:10A6E00003482EF08AB900BFCDA5000175A6000170
:10A6F000100600212DE9FF411A4E0D46A6F89010D4
:10A700000221C6F89400044601A8CDE902239DF871
:10A7100028708DF8041029F0B1FD96F8783003B157
:10A7200037B12946204604B0BDE8F04129F0F6BD16
:10A730000D4E0E4FB6F814802AF0C8F83B68C01AC8
:10A74000804508D9B38A29462046B38204B0BDE8C3
:10A75000F04129F009BE2AF0B9F83B68C31A9BB250
:10A76000F1E700BF6406002110060021E805002182
:10A7700070B50C460546074E29F000FE2046C6F887
:10A78000885029F007FD06F18000BDE8704029F0EF
:10A790006DBD00BF6406002129F0F2BD70B504460E
:10A7A0002AF094F8144A154D92F878302860013355
:10A7B00082F8783027F0B4FA836A2146104CD3F837
:10A7C00094309847E3680133E36027F0B9FA18B191
:10A7D00029F0D4FD27F0BAFA668B2AF077F82B68B7
:10A7E000C01A864202D9608B608370BD2AF06EF871
:10A7F0002B68C01A80B2F7E764060021E805002143
:10A800001006002170B50446866A084629F0C2FC8D
:10A810000E4D0F4B05F18000C5F88030A368C5F8D8
:10A820008830A36029F022FD0023204685F8783087
:10A83000D6F89030984727F083FA30B127F070FAB5
:10A8400018B1BDE8704027F081BA70BD64060021E0
:10A850009DA7000108B50D20054A064900F0CEFE6F
:10A86000BDE808401C22002103482EF0C6B800BFF6
:10A8700099A7000105A80001100600212DE9FF415C
:10A8800004460D4693B1022102928DF8041001A8EE
:10A89000039329F0F3FC134B93F878304BB9294616
:10A8A000204604B0BDE8F04129F0F0BCCDE9013309
:10A8B000EDE70D4E0D4FB6F816802AF007F83B680D
:10A8C000C01A804508D9F38A29462046F38204B08D
:10A8D000BDE8F04129F004BD29F0F8FF3B68C31A38
:10A8E0009BB2F1E76406002110060021E805002173
:10A8F00030B50446034D0FCD0FC495E8070084E83A
:10A90000070030BD100600211FB501238DF804306B
:10A91000002301A8CDE9023329F0B0FC05B05DF8B1
:10A9200004FB00002DE9F04104460D4627F0F8F93C
:10A93000836A1B780A2B0BD1124B93F878303BB902
:10A94000FFF7E2FF29462046BDE8F04129F09EBC12
:10A950000D4E0E4FB6F8168029F0B8FF3B68C01AAE
:10A96000804509D9F38AF382FFF7CEFF29462046B6
:10A97000BDE8F04129F0B4BC29F0A8FF3B68C31A38
:10A980009BB2F0E7640600212C060021E8050021B7
:10A9900070B50C4E04460D46C6F89400A6F890100B
:10A9A00027F0BEF9836A1B780B2B0AD196F8783012
:10A9B0003BB9FFF7A9FF29462046BDE8704029F0C2
:10A9C000ADBC70BD6406002130B50446034D0FCD0B
:10A9D0000FC495E8070084E8070030BD2C0600216D
:10A9E00070B50D46044629F0CBFC094BD3F8941002
:10A9F00039B100222046C3F894200222D5F8AC30A9
:10AA000098472046D5F8A430BDE87040184700BFED
:10AA1000640600212DE9F04104460D46876A27F0BF
:10AA20008FF90646E8B9284629F0B4FB0E4D0F4BC6
:10AA300005F18000C5F880300D4BC5F88430A3685F
:10AA4000C5F88830A3600423C5F88C3029F00EFCCB
:10AA5000D7F8983085F878601BB12046BDE8F04102
:10AA60001847BDE8F08100BF6406002175AA000107
:10AA700049AB00012DE9F04385B0054629F026FFDA
:10AA80002E4F2F4E386027F04BF9D0F828902946EA
:10AA9000D9F8A83080469847D6F89410294C002958
:10AAA0003AD055BBA58A29F011FF3B68C01A8542F0
:10AAB0001DD9A08A0023A08201A8CDE90133039308
:10AAC00029F0DCFBB6F89010D6F8940029F04CFC85
:10AAD000E3680133E360658B29F0F8FE3B68C01A38
:10AAE000854213D9608B608305B0BDE8F08329F0FF
:10AAF000EDFE3B68C01A80B2DCE700230222C6F8F4
:10AB000094304046D9F8AC30984708E029F0DEFE92
:10AB10003B68C01A80B2E6E70DB929F02FFC96F821
:10AB2000783023B927F012F9012386F87830002D08
:10AB3000CED0236901332361CDE700BFE8050021B2
:10AB4000640600212C0600212DE9F3470F46054637
:10AB500029F0BCFEDFF81481C8F8000027F0E0F807
:10AB60000023866A9DF8282086F8B070404F8DF843
:10AB70000730D7F8941086F8B120C7F894302A46E9
:10AB8000D6F8AC300446984727F0DAF8814600281A
:10AB900037D04FF0010927F0D3F840EA0900C0B2DE
:10ABA00080B1062D06D80123AB4013F0510F01D020
:10ABB00029F0E4FB97F8783023B927F0C7F8012390
:10ABC00087F878309DF8073023B929462046D6F813
:10ABD000A0309847032D274C35D0042D37D0002DB9
:10ABE00039D1236801332360258B29F06FFED8F813
:10ABF0000030C01A854232D9208B208302B0BDE8D4
:10AC0000F0872046D6F890300DF10701984782462C
:10AC10000028BED029F0B2FBD6F894300DF1070120
:10AC200020469847A06A29F0B5FAD7F88800504422
:10AC3000C7F8880007F1800029F018FB2046D6F8F5
:10AC40009C309847A7E7A3680133A360CCE763680B
:10AC500001336360C8E7236901332361C4E729F046
:10AC600035FED8F80030C01A80B2C6E7E8050021EA
:10AC7000640600212C06002108B50A20054A064971
:10AC800000F0BCFCBDE808401C22002103482DF068
:10AC9000B4BE00BFE1A9000115AA00012C060021E5
:10ACA00070B50D46044629F06BFB094BD3F89410A0
:10ACB00039B100222046C3F894200222D5F8AC30E6
:10ACC00098472046D5F8A430BDE87040184700BF2B
:10ACD0006406002101232DE9F041876A054687F8C3
:10ACE000B03083680846C7F8B8300F4C0E4629F0DC
:10ACF00051FA0E4B04F18000C4F880300C4BC4F8BC
:10AD00008430D7F8B830C4F88830D7F8C030C4F8E9
:10AD10008C3029F0ABFA0023284684F87830D6F836
:10AD20009830BDE8F041184764060021B5AE000137
:10AD300095AD00012DE9F04106460C46904626F0FF
:10AD4000FFFF074618B101273846BDE8F0814146AC
:10AD500030462368984705460028F4D029F00EFBBA
:10AD60004146636830469847B06A29F013FAA36AEF
:10AD700007482B44A362B360C0F88830236B80304F
:10AD8000C36029F073FA3046E3689847DCE700BFF8
:10AD9000640600212DE9F04385B00F46984604462D
:10ADA00029F094FD404E306026F0BAFF856A9DF888
:10ADB000303085F8BC7014F0FB07814685F8BD3053
:10ADC00007D1C5F8B88001A8CDE90177039729F02C
:10ADD00055FA95F8B030012B06D12FB9D5F8B83017
:10ADE00085F8B070C5F8B4304FF000082F4FD5F893
:10ADF000AC30D7F8941022464846C7F8948098475C
:10AE000004F0FD03012B8DF804800ED1484601AA01
:10AE100005F19001FFF78EFF9DF80430804623B9BD
:10AE200021464846D5F8A030984726F089FF40EAE9
:10AE30000800C0B280B1062C06D80123A34013F04D
:10AE4000510F01D029F09AFA97F8783023B926F0FB
:10AE50007DFF012387F87830032C154D11D0042C89
:10AE600013D0B4B92B6801332B602C8B29F02EFD45
:10AE70003368C01A844210D9288B288305B0BDE8F6
:10AE8000F083AB680133AB60EFE76B6801336B6055
:10AE9000EBE72B6901332B61E7E729F017FD3368F6
:10AEA000C01A80B2E9E700BFE8050021640600216E
:10AEB0002C0600212DE9F743054629F007FD374F01
:10AEC0004FF00009386026F02BFF0446866A2946B9
:10AED000D6F8A830984720460DF1070206F19001F8
:10AEE0008DF80790FFF726FF804655BB26F028FF18
:10AEF00040EA0800C0B258B129F040FA284B93F854
:10AF000078302BB926F022FF0122254B83F87820D8
:10AF10009DF8073023B929462046D6F8A030984737
:10AF2000204C8DBBE3680133E360658B29F0CEFCD8
:10AF30003B68C01A85422BD9608B608303B0BDE8A3
:10AF4000F083012D12D10028E2D0DFF85480D8F828
:10AF5000941031B102222046D6F8AC30C8F8949053
:10AF6000984729F00BFA98F87830CAE7DFF8308074
:10AF7000D8F894100029F6D002222046D6F8AC303A
:10AF8000C8F894909847EEE7236901332361CCE732
:10AF900029F09CFC3B68C01A80B2CEE7E80500218E
:10AFA000640600212C06002108B50B20054A06493D
:10AFB00000F024FBBDE808401C22002103482DF0CE
:10AFC0001CBD00BFA1AC0001D5AC00012C060021C6
:10AFD0001FB501238DF80430002301A8CDE9023309
:10AFE00029F04CF905B05DF804FB00002DE9F041B3
:10AFF00004460D4626F094FE836A1B78042B0BD181
:10B00000124B93F878303BB9FFF7E2FF2946204610
:10B01000BDE8F04129F03AB90D4E0E4FB6F8168052
:10B0200029F054FC3B68C01A804509D9F38AF382A1
:10B03000FFF7CEFF29462046BDE8F04129F050B980
:10B0400029F044FC3B68C31A9BB2F0E76406002178
:10B0500048060021E805002170B50C4E04460D4657
:10B06000C6F89400A6F8901026F05AFE836A1B7862
:10B07000052B0AD196F878303BB9FFF7A9FF29468E
:10B080002046BDE8704029F049B970BD6406002132
:10B0900030B50446034D0FCD0FC495E8070084E892
:10B0A000070030BD4806002170B50D46044629F062
:10B0B00067F9094BD3F8941039B100222046C3F840
:10B0C00094200222D5F89C3098472046D5F8943039
:10B0D000BDE87040184700BF6406002170B5054602
:10B0E00008460F4C0E4629F055F80E4B04F180002F
:10B0F000C4F880300C4BC4F88430AB68C4F8883096
:10B10000AB600423C4F88C3029F0B0F80023284643
:10B1100084F87830D6F89030BDE87040184700BF0A
:10B1200064060021E1B100012DB1000170B50C46AB
:10B13000054629F0CBFB274E306026F0F1FD9DF847
:10B140001030826A82F8A130234B82F8A04093F835
:10B15000781011B9012183F878100024D3F89410E5
:10B16000C3F89440D2F89C302A46984726F0E8FD70
:10B1700050B1062D06D80123AB4013F0510F01D07A
:10B1800029F0FCF826F0E2FD032D144C0FD0042D1D
:10B1900011D0A5B9236801332360258B29F096FBD4
:10B1A0003368C01A85420ED9208B208370BDA368F6
:10B1B0000133A360F1E7636801336360EDE723695E
:10B1C00001332361E9E729F081FB3368C01A80B2BB
:10B1D000EBE700BFE80500216406002148060021D6
:10B1E0002DE9F04385B0054629F070FB2C4EDFF8C1
:10B1F000B480306026F094FDD0F828902946D9F824
:10B20000983007469847D8F89410274C00293CD02E
:10B2100065BBA58A29F05AFB3368C01A85421FD93D
:10B22000A08A01238DF804300023A08201A8CDE973
:10B23000023329F023F8B8F89010D8F8940029F0D8
:10B2400093F8E3680133E360658B29F03FFB3368D3
:10B25000C01A854213D9608B608305B0BDE8F083C6
:10B2600029F034FB3368C01A80B2DAE700230222E7
:10B27000C8F894303846D9F89C30984708E029F04F
:10B2800025FB3368C01A80B2E6E70DB929F076F8DD
:10B2900026F05CFD002DD4D0236901332361D3E770
:10B2A000E8050021640600214806002108B50420B5
:10B2B000054A064900F0A2F9BDE808401C22002119
:10B2C00003482DF09ABB00BFA9B00001DDB000011A
:10B2D0004806002170B50D46044629F051F8094B87
:10B2E000D3F8941039B100222046C3F894200222EA
:10B2F000D5F8A03098472046D5F89830BDE8704082
:10B30000184700BF640600212DE9F0410446876A12
:10B3100008460F4D0E4628F03DFF0E4B05F180000C
:10B32000C5F880300C4BC5F88430A368C5F8883068
:10B33000A360D7F89030C5F88C3028F097FF002331
:10B34000204685F87830D6F89430BDE8F0411847AB
:10B350006406002115B400015DB30001F8B50C4688
:10B360001F46054629F0B2FA274E306026F0D8FC79
:10B37000826A9DF8183082F8A840244C82F8A930DF
:10B3800094F8783023B90123C2F8A47084F8783097
:10B390000023D4F89410C4F89430D2F8A0302A4690
:10B3A000984726F0CDFC50B1062D06D80123AB40BE
:10B3B00013F0510F01D028F0E1FF26F0C7FC032D58
:10B3C000134C0FD0042D11D0A5B92368013323608D
:10B3D000258B29F07BFA3368C01A85420ED9208B61
:10B3E0002083F8BDA3680133A360F1E763680133EC
:10B3F0006360EDE7236901332361E9E729F066FA29
:10B400003368C01A80B2EBE7E8050021640600212A
:10B41000480600212DE9F04385B0804629F056FA10
:10B420002D4D2E4E286026F07BFCD0F8289041460A
:10B43000D9F89C3007462A4C9847B8F1000F29D11B
:10B44000D6F894300BB3A78A29F040FA2B68C01ABB
:10B45000874214D9A08A01238DF804300023A082EA
:10B4600001A8CDE9023328F009FFB6F89010D6F80C
:10B47000940028F079FFE3680133E3601AE029F0D3
:10B4800025FA2B68C01A80B2E5E728F077FF26F08E
:10B490005DFCF0E7D6F8941039B100230222C6F81B
:10B4A00094303846D9F8A030984726F04FFC2369ED
:10B4B00001332361668B29F009FA2B68C01A864292
:10B4C00004D9608B608305B0BDE8F08329F0FEF9F4
:10B4D0002B68C01A80B2F5E7E80500216406002158
:10B4E0004806002108B50520054A064900F086F8FF
:10B4F000BDE808401C22002103482DF07EBA00BFA1
:10B50000D5B2000109B3000148060021816A034B4E
:10B510000A7853F8323003B11847704764060021A7
:10B52000816A044B0A7803EBC2035B6803B11847D6
:10B53000704700BF6406002128F02CBF28F028BE09
:10B5400008B528F025FEBDE80840002028F01CBF03
:10B5500008B528F00FFE002028F014FFBDE80840D1
:10B56000012028F011BF08B528F004FEBDE808400E
:10B57000002028F007BF08B528F0FCFDBDE8084012
:10B58000012028F0FFBE000073B5134C134D144E7C
:10B5900028F0EEFD224629460120124B009626F0A7
:10B5A000FBFB2246294602200F4B009626F0F4FBB7
:10B5B0000E4B2246009300210D4B032026F0ECFB9E
:10B5C00001200C4926F0F6FB982200210A4802B01F
:10B5D000BDE870402DF011BA21B500010DB5000194
:10B5E0003DB5000177B5000167B5000141B5000127
:10B5F00051B5000139B5000164060021034B43F841
:10B60000301003EBC0035A60704700BF640600218E
:10B61000F0B504468C46D3E9000116461D4617785E
:10B6200085B0002C36D0CFB14FEA112E0EF0C00EEF
:10B63000BEF1400F12D1BCF1000F04D000F00AFDA2
:10B64000204605B0F0BD00F07BFC044608B10124A3
:10B65000F6E71F4AD38B0133D383F1E702460B464B
:10B66000384600F07BFD0238C0B20128EFD80DF15A
:10B670000F0300933078D5E9002300F013FC18B1D4
:10B680009DF80F30002BDBD1114A0224138B0133BC
:10B690001383D5E727B10B0A03F0C003402BD6D0A4
:10B6A00002460B46384600F059FD02380128CED834
:10B6B0000DF10F0300933078D5E9002300F0F2FB81
:10B6C0000028E1D09DF80F30002BC0D1DCE700BF8F
:10B6D000FC0600212DE9F041884617461E46044627
:10B6E00058B152EA06030E4D0AD100F065FF012859
:10B6F00006D10446EB880133EB802046BDE8F0819B
:10B700003A463346404600F0D5FE20B9AB880224C5
:10B710000133AB80F1E7EB880133EB80EDE700BF4D
:10B72000FC06002137B5DDE9065410B9002003B04E
:10B7300030BDCAB1230A03F0C003402B14D129B194
:10B74000284621460AAB08AA00F0D8FCDDE90A2306
:10B750002846CDE9002321469DF8202000F02EFC4C
:10B76000003818BF0120E2E79DF82000DDE90A2338
:10B7700000F005FD0238C0B20128D7D8024A0220E5
:10B78000538B01335383D2E7FC0600212DE9F04FA0
:10B7900090F800800D8808F00F0845FA08F515F0BC
:10B7A000010581460F4692461C466E4E87B006D173
:10B7B000338801333380284607B0BDE8F08F4FF45B
:10B7C000C07B72884BFA08FB01321BF0010B4378F7
:10B7D000728001D00125EEE703F03F03637484F823
:10B7E000108010F8025B26F073FFC5F38015E57436
:10B7F000A574C4E90201C4E900017868514604F166
:10B80000080304F11302C0F38010FFF701FF0128C1
:10B81000054602D0022839D05D46D4E90223D7F884
:10B8200004C094F813E01CF0040B0ED0D7E9041008
:10B83000834208BF8A4203D1CCF3C00CE64527D02F
:10B840004FF0020B3089013030817888714640FA20
:10B8500008F000F00100FFF73DFF584523D2D7F86C
:10B8600004C01CF0040F1CD0D7E90413A068E268E0
:10B870009A4208BF884204D1E37CCCF3C00C6345F4
:10B880000CD0338901333381012D1AD1002592E781
:10B8900070894FF0010B01307081D6E77389013355
:10B8A000738101250DE07888E17C40FA08F000F012
:10B8B0000100D4E90223FFF70DFF0128F1D9022886
:10B8C000E2D04FF0010BB8F1050F257584F815B0E3
:10B8D00080D80BFA08F818F02A0F3FF47BAF4846DF
:10B8E00010F8085B26F0F4FED4E902238146CDE986
:10B8F00004237868E37CED09CDE9009188462A4667
:10B9000051460293C0F30010FFF70CFF01283FF4EB
:10B9100061AF0228BAD07B68DA077FF55BAFD7E961
:10B920000212424508BF494503D1C3F34002AA426F
:10B9300013D0B2890132B281002DA7D04FEA182866
:10B9400008F0C008B8F14008A0D19B069ED5338C02
:10B950000133338484F815802DE7F3890133F381B3
:10B9600038E700BFFC0600212DE9F04F07461C46D2
:10B9700008883B7C0E46184110F001009046624D4D
:10B9800087B005D12B8801332B8007B0BDE8F08F3D
:10B990006B8801336B80D7E90023C4E90223C4E933
:10B9A0000023BB7C04F11302E374A374486804F120
:10B9B00008034146C0F38010FFF72AFE01288146A4
:10B9C00003D002283DD04FF00009D4E90223D6F875
:10B9D00004C094F813E01CF0040A0ED0D6E9041059
:10B9E000834208BF8A4203D1CCF3C00086452AD0E7
:10B9F0004FF0020A288901302881708897F810C01A
:10BA0000714640FA0CF000F00100FFF763FE50456C
:10BA100025D2D6F804C01CF0040F1DD0D6E90413BB
:10BA2000A068E2689A4208BF884204D1E37CCCF364
:10BA3000C00C63450DD02B8901332B81B9F1010F67
:10BA40001BD10020A1E768894FF0010A013068810D
:10BA5000D3E76B8901336B814FF001090DE03B7C2B
:10BA60007088E17C184100F00100D4E90223FFF75F
:10BA700031FE0128F0D90228E0D04FF0010A84F805
:10BA8000149084F815A07B7C990701D401207CE7F1
:10BA900097F81390D4E90223D7E902B77068CDE98B
:10BAA0000423E37C4A464146CDE900B70293C0F344
:10BAB0000010FFF737FE01283FF467AF0228C0D01F
:10BAC0007368DA07E2D5D6E90212BA4208BF5945CF
:10BAD00003D1C3F340024A4511D0AA890132AA8199
:10BAE000B9F1000FADD03F0A07F0C007403FA8D121
:10BAF0009B06A6D52B8C01332B846775C6E7EB8993
:10BB00000133EB81C2E700BFFC060021054B03F1C6
:10BB1000240253F8041B934240F8041BF9D11B88FC
:10BB200003807047FC060021002330B50A4C0B4D02
:10BB300023700B4C23708B070EBF0B4621F00303C1
:10BB400004332B6003EB00135B1A934296BF207003
:10BB5000002098B230BD00BF220700212407002139
:10BB600023070021F0B500240D499DF814C00D787D
:10BB70000C490968A54201D80020F0BD0E7A864222
:10BB800008D1D1E900769E4208BF974202D14E7A91
:10BB9000664502D001341031ECE70120EDE700BF2B
:10BBA0002207002124070021014B1878704700BFAD
:10BBB000230700210022014B1A7070472207002141
:10BBC00030B50B490B4D09782C78A1420DD90A49A3
:10BBD000096801EB041108720120C1E900239DF8F6
:10BBE0000C3001344B722C7030BD0020FCE700BFDC
:10BBF0002307002122070021240700212DE9F0411D
:10BC00001B4C8446276800253C46DFF868E09DF819
:10BC100018809EF80010EEB2B14201D8002021E059
:10BC2000267A664520D1D4E900069E4208BF90429C
:10BC30001AD1667A464517D1012901F1FF300ED994
:10BC400085420CD001F18051013907EB01110B7ACB
:10BC50002372D1E90023C4E900234B7A63728EF882
:10BC600000000120BDE8F08101351034D3E700BFAA
:10BC70002407002122070021F0B50C4943EA0043C4
:10BC80000D780B490C680021C8B2854201D800200C
:10BC90000AE02046D0E908769E4208BF974201F1AB
:10BCA000010104F14804EFD1F0BD00BF2C070021D1
:10BCB0003007002130B585B00C4605461022002122
:10BCC00068462CF09AFE6A46230A28468DF8004002
:10BCD0001146240C8DF801308DF8024028F05AFCF2
:10BCE0009DF802309DF801001B0443EA00239DF8F3
:10BCF0000000184305B030BD13B5042104460DEB18
:10BD0000010028F003FD01992046C1F3150141F41B
:10BD100080010191FFF7CEFF019940EA0160090A15
:10BD200002B010BD002330B50A4C0B4D23700B4CF4
:10BD300023708B070EBF0B4621F0030304332B60E7
:10BD4000482505FB00335B1A934296BF2070002004
:10BD500098B230BD2C070021300700212D070021AB
:10BD6000014B1860704700BF28070021014B18786D
:10BD7000704700BF2D0700210022014B1A70704749
:10BD80002C070021F8B507461D46FFF775FF16463C
:10BD9000044680B92E4A2F4913780978994201D870
:10BDA0000020F8BD48202C490C6800FB03440133F7
:10BDB0001370002CF4D0224645EA0745069BC4E9DF
:10BDC000086503F1100153F8040B8B4242F8040B91
:10BDD000F9D1012304F10F0284F84030631E13F8F7
:10BDE000011F71B3002384F8403004F110000246B3
:10BDF000079B03F1100153F8045B8B4242F8045B8C
:10BE0000F9D1012384F84130034604F1200213F8EC
:10BE1000011BC9B1002384F8413000230022C4E98A
:10BE20000A23C4E90C23C4E90E230023A4F84230FA
:10BE300094F841301BB9FFF75FFFC4E90C01012002
:10BE4000AFE79A42CBD1D0E79A42E0D1E5E700BF15
:10BE50002C0700212D0700213007002138B5FFF7FE
:10BE60000BFF78B1084D2C78012C08D9482202FB31
:10BE700004F30649483B096819442CF097FD01205A
:10BE8000013C2C7038BD00BF2C0700213007002179
:10BE900008B5FFF7F1FE20B19DF8083080F8433077
:10BEA000012008BD08B5FFF7E7FE20B190F8432058
:10BEB0000120029B1A7008BD10B5029CFFF7DCFE42
:10BEC00040B1D0E90A2352EA030116BF0120002045
:10BED000C4E9002310BD10B5029CFFF7CDFE40B1B0
:10BEE000D0E90C2352EA030116BF01200020C4E967
:10BEF000002310BD08B5FFF7BFFE28B1029BD3E9B0
:10BF00000023C0E90C23012008BD10B5FFF7B4FEE3
:10BF1000044698B190F8403083B990F8423033B974
:10BF2000FFF7EAFE0123C4E90A0184F84230029BCC
:10BF3000D4E90A01C3E90001012010BD0020FCE79B
:10BF4000F7B50026194C94F800C0194C2568344602
:10BF5000F7B2BC4510D80CB3164C2468F4B1164E99
:10BF6000758C01357584D3E90067CDE900671378D6
:10BF70000122A047002411E095F8407097B9D5E957
:10BF80000A748C4208BF87420BD10124E98C01F06E
:10BF900001011170296AAA8CC3E90012204603B07E
:10BFA000F0BD012401364835D2E700BF2C0700213F
:10BFB0003007002128070021FC0600212DE9F34766
:10BFC000DDE90A679146804632463B4648460D46C3
:10BFD000FFF752FEE8B190F84140D4B9D0E90E2302
:10BFE000AB4208BF424516D00C4BD3F800A0BAF1C3
:10BFF000000F0AD00A4A4046938C294601339384A5
:10C000004B462246CDE90067D047204602B0BDE846
:10C01000F0870024F9E70124F7E700BF2807002193
:10C02000FC06002138B505461046DDE904230C4620
:10C03000FFF722FE50B190F8413043B9D0E90E230A
:10C04000A34208BFAA420CBF0120002038BD002037
:10C05000FCE700002DE9F74F0E4605461F464FF05E
:10C0600000084FF0480B010E41EA0621DFF880A0DE
:10C07000009221F07F411F4B5FFA88F41B78A342A6
:10C0800005D81D4A0020138A0133138229E0DAF80B
:10C0900000300BFB043494F84090B9F1000F23D129
:10C0A000D4E90A23B34208BFAA4210D02046019126
:10C0B000FFF700FE25F07F438342019914D10E4A19
:10C0C000C4E90A56538A84F842900133538201200E
:10C0D000E38C009A03F001031370226AA38CC7E972
:10C0E000002303B0BDE8F08F08F10108C3E700BFEB
:10C0F000300700212C070021FC06002170B50E46F8
:10C100001146D3E9002305460878FFF7B5FD04463C
:10C11000E0B190F84130CBB9D0E90E23B34208BF6B
:10C12000AA4211D0290E41EA062121F07F411030A8
:10C13000FFF7C0FD25F07F43834207D1064AC4E9DB
:10C140000E56D38A0133D382012004E00020024A34
:10C15000938A0133938270BDFC06002108B5FFF776
:10C160008BFD48B1D0E90A23134306D190F8403043
:10C17000002B14BF0120022008BD0320FCE708B5F6
:10C18000FFF77AFD48B1D0E90C23134306D190F8AC
:10C190004130002B14BF0120022008BD0320FCE722
:10C1A0002DE9F04100254FF04808124E124F337828
:10C1B000ECB2A34201D8BDE8F0813B6808FB04342F
:10C1C00094F841302BB904F11000FFF795FDC4E954
:10C1D0000C0194F840303BB994F8423023B120462A
:10C1E000FFF78AFDC4E90A01012384F844301D44A5
:10C1F000DDE700BF2C0700213007002108B5FFF75D
:10C200003BFD034620B1002290F8440083F844200F
:10C2100008BD08B5FFF730FD003818BF012008BD84
:10C220001FB5002301A8CDE90133039328F026F8B8
:10C2300005B05DF804FB000030B5144B144D85B01B
:10C24000C5F88030134B0C46C5F884308368C5F8B8
:10C2500088308360D1F890300846C5F88C3027F0DC
:10C2600099FF05F1800028F001F803238DF80430D0
:10C27000002301A8CDE9023328F000F8B4F89C109F
:10C28000D4F8980028F04AF805B030BD39C3000151
:10C290006406002199C20001F0B585B00F4604463E
:10C2A00025F03EFD856A064685F89E70F4B9204B60
:10C2B0001B682BB195F82C2012B105F12C00984782
:10C2C00021463046D5F894309847B0B103238DF815
:10C2D0000430002301A8CDE9023327F0CFFFB5F8E1
:10C2E0009C10D5F8980028F03FF80AE014F0FB0FF6
:10C2F000D5F89430E4D02146984728F03FF825F04F
:10C3000025FD032C0B4B07D0042C09D064B91A6807
:10C3100001321A6005B0F0BD9A6801329A60F9E7FF
:10C320005A6801325A60F5E71A6901321A61F1E779
:10C33000700D002134070021F7B5054625F0F0FC0B
:10C340001C4E0746846A25BB28F018F82946384653
:10C35000D4F89030984700B3174DB4F89A20D5F828
:10C36000883020461344C5F8883027F013FF05F1C4
:10C37000800027F07BFFFFF753FFB4F898300121CE
:10C38000ADF80030D4F894306846019327F07EFF72
:10C3900006E02946D4F89030984725F0D7FC25B917
:10C3A000F3680133F36003B0F0BD336901333361E7
:10C3B000F9E700BF340700216406002137B50C46B9
:10C3C000104D114BC5F88030104BC5F88430836890
:10C3D000C5F888308360084627F0DCFE05F1800050
:10C3E00027F044FFFFF71CFFB4F898300121ADF8A7
:10C3F0000030D4F894306846019327F047FF03B02B
:10C4000030BD00BF6406002139C3000199C200019C
:10C4100008B527F0B5FFBDE8084025F097BC00003F
:10C4200010B5094C002022460849FFF7E7F82246DC
:10C4300001200749FFF7E2F8BDE810401C22002167
:10C4400004482CF0DABA00BF11C40001BDC30001DA
:10C4500039C200013407002130B50446034D0FCD29
:10C460000FC495E8070084E8070030BD34070021B9
:10C47000002330B50B4C0C4D23700C4C2B702370EB
:10C480008B070CBF0B4621F00303094D18BF043383
:10C490002B6003EBC0035B1A934296BF2070002011
:10C4A00098B230BD510700215007002152070021EA
:10C4B0005407002130B50B4943EA00430A48096894
:10C4C000047801EBC404A14201D1002030BDD1E9C0
:10C4D0000050984208BF954201F10801F3D10120B4
:10C4E000F4E700BF5407002151070021014B1878E1
:10C4F000704700BF520700210023024A1370024A0E
:10C5000013707047510700215007002170B506468F
:10C5100015461C46FFF7CEFF80B9094B094A19782A
:10C5200012788A420BD9084A44EA0644126802EBA0
:10C53000C10042F83150013144601970012070BDD2
:10C5400051070021520700215407002143EA00430C
:10C550001148F0B50468DFF844C025469CF8001087
:10C5600004EBC10E754501D1002014E02846D0E946
:10C5700000769E4208BF974205F10805F2D10129D5
:10C5800005D904EBC10454E90223C0E900230120CA
:10C5900001398CF80010F0BD54070021510700212B
:10C5A0000122014B1A707047500700210022014BF5
:10C5B0001A70704750070021014B1878704700BF70
:10C5C0005007002137B5044624F024FA0022144B0A
:10C5D0009C42144B0CBFDA701A7194F8423003F08D
:10C5E000FD03012B01D124F025FA20460CF0DAF8E6
:10C5F00004F1280528460DF1070126F0E5F940B9B8
:10C60000303420460DF1070126F0DEF920B903B0E1
:10C6100030BD26F0C1F9EDE726F0BEF9F1E700BF25
:10C62000700E0021A8520021154A38B5154C164B42
:10C63000106851681D6804F13C0303C304F148000D
:10C6400029790CF0D7F9012025F0F4FA24F0DAF971
:10C6500001230E4DEB7094F8423003F0FD03012BE3
:10C6600001D124F0DFF90CF0BFF80020012368713C
:10C6700084F8D031A4F8CE31BDE8384024F06BB94D
:10C6800080530021700E0021680E0021A852002165
:10C69000054BDB7833B10123044880F899309C3096
:10C6A00025F0BEBE704700BFA8520021700E0021C9
:10C6B000002024F050B90C2024F04DB908B5012019
:10C6C00025F0CEFABDE808400148FFF77BBF00BF68
:10C6D000700E002108B5012025F0C2FA0348FFF7CB
:10C6E00071FFBDE80840002024F035B9700E00212C
:10C6F000FFF7E4BF034B044A19684B6813608B686B
:10C7000053607047680E00218053002108B5084B24
:10C7100008481B68197990F888308B4202D048305D
:10C720000CF068F9BDE80840002024F014B900BFFF
:10C73000680E0021700E002110B50446012025F07E
:10C740008FFAA37B03F0FD03012B01D124F072F9D2
:10C75000D4F8C80220B126F01FF90023C4F8C8326B
:10C76000D4F8D00220B126F017F90023C4F8D03253
:10C77000034AD378013BD370BDE8104024F04AB996
:10C78000A852002138B505460F4C012025F068FA63
:10C790002C1B0E48EB68241144430BB1A0B2984700
:10C7A0000434E0B225F0B8F995F8D8320BB124F092
:10C7B00051F924F02FF9D5F8C40208B126F0ECF8AD
:10C7C00000232B7038BD00BFD8190021D32FFDD214
:10C7D00038B50C4605461222002120462CF00DF9F2
:10C7E000204695F8403300F8023BD5E9D22325F0E6
:10C7F00075FF95F841330E4A637095F888332372BC
:10C80000D5F86431A3FB0232DB0F43EA42036381B4
:10C8100095F86831237395F86032637395F8613247
:10C82000A37395F86232E37395F86332237438BDCD
:10C83000E3361A0038B50446012025F0FBF9A37B46
:10C8400003F0FD03012B01D124F0ECF80023204676
:10C850006370A370A4F8083284F83C300CF008FC34
:10C86000054620B920460CF01BFD054640B1284680
:10C8700024F0C6F92046BDE8384003210CF0F0BE94
:10C88000074AD3780133D37024F0BCF8012328463B
:10C8900084F86830A4F86630BDE8384024F0B0B9B8
:10C8A000A8520021002024F0ABB9000030B4027C73
:10C8B0000121022A18BF00220C4C81706578954234
:10C8C0000AD190F8082222B900F5037030BC25F097
:10C8D000A7BD00F54E70F9E701FA02F2217821EACE
:10C8E00002022270032130BC0CF0BABE48100021B5
:10C8F000002024F085B9000010B5094C6378012BA5
:10C9000004D9BDE810400C2024F07AB904F160008D
:10C9100026F037FA04F17000BDE8104026F031BA75
:10C9200050100021034B5B7813B10C2024F068B940
:10C93000704700BF50100021024B587800B10C2006
:10C9400024F05EB95010002108B5FFF7F5FE044B46
:10C950005B7823B1BDE80840002024F051B908BD40
:10C960005010002138B51E4B01201C6825F062F9DB
:10C9700023790BB124F066F823791A4D2B72D4E990
:10C980000223C5E90423E379AB72A3796B72637D5B
:10C990002B760DF0C5F9D8B12862237980F8D8320A
:10C9A000A37980F8D932E37980F8DA32D4E9022326
:10C9B000C0E9B8230A22238AA0F8D032638A5343FD
:10C9C000C0F8D4320B23437263798371237DC37122
:10C9D000286A0CF015FFBDE8384024F013B800BFFA
:10C9E000443C0021003C0021034B5A78012A04BF3B
:10C9F00000225A70704700BF003C0021084B186AA3
:10CA000090F8C3220AB9012202715B78012B03D18D
:10CA1000C370303025F004BD05210CF03BBE00BFD3
:10CA2000003C002130B5104C87B06378012B07D152
:10CA30000025206AC3700571303025F0F1FC657067
:10CA4000206A01A9FFF7C4FE236A0849084A591A57
:10CA5000091151433E2093F88D3401AA89B224F084
:10CA60000AF907B030BD00BF003C0021D8190021F1
:10CA7000D32FFDD230B52F4C87B06378206A012BBD
:10CA800004BF00236370FFF77DFE256A2B7983B115
:10CA90001222002101A82BF0B0FF2749274B691A69
:10CAA00009115943442095F88D3401AA89B224F024
:10CAB000E2F8256A95F8C332BBB1217A11F0010181
:10CAC00015D1122201A82BF098FF1B491B4B691AA4
:10CAD000091159431A2095F88D3401AA89B224F01E
:10CAE000CAF80022236A83F8C32207B030BD182099
:10CAF00025F04AFF01460028F3D040F20B13438093
:10CB0000D4E90423C0E90223A37AC371637A837151
:10CB1000237A0371236A9A794271B3F8D022D3F849
:10CB2000D43202824382237E4375054B187B25F065
:10CB30003CFFD6E7003C0021D8190021D32FFDD2BD
:10CB4000F05200212DE9F0434B4B85B01D680DF0EC
:10CB5000E7F80446002800F08C80012025F06AF8F0
:10CB6000002184F8D81295F82030444F84F8D93247
:10CB700095F82130424E84F8DA32D5E90A23C4E927
:10CB8000B82395F82330384684F888334FF47A7305
:10CB9000C4F8D4320C233461A4F8D0126372A91DF6
:10CBA00017F0F2FC40F2E242BB885343C4F8643110
:10CBB00095F8203084F8403395F8213084F84133DB
:10CBC000DB07D5E90A01C4E9D2011CD50B0A03F041
:10CBD000C003403B17D14FF000084FF000098DF81B
:10CBE00007300DF1070202ABCDE90289FFF732FAF7
:10CBF00048B19DF8073043F0020384F84133DDE982
:10CC00000223C4E9D22395F83230306984F88D3498
:10CC10006B6BC4F85C3295F8383084F8603295F864
:10CC2000393084F8613295F83A3084F8623295F8F8
:10CC30003B3084F863320CF0E3FD23F0E3FEAB8875
:10CC4000288BB3806B8B7080F380AB8B33812B8E02
:10CC5000738195F822303373EB8BF3816B6B7361C7
:10CC6000AB6BB3610CF0C2FE05B0BDE8F04305F05C
:10CC70000DBE05B0BDE8F083443C0021483C0021D6
:10CC8000283C002170470000012310B5064C2069A4
:10CC9000C370303025F0C4FB21693E20BDE8104050
:10CCA00091F88D240DF08CB8283C0021034B1869B5
:10CCB0000123303000F82D3C25F0B2BB283C002188
:10CCC000044B1869C378012B04BF0023C370FFF71E
:10CCD00059BD00BF283C002110B5437A04460B2BF8
:10CCE00086B010D101A9FFF773FD0C490C4B611AF6
:10CCF00009115943002094F88D3401AA89B223F018
:10CD0000BAFF06B010BD0C2BFBD1014690F88D2464
:10CD1000002006B0BDE810400DF052B8D81900212F
:10CD2000D32FFDD20123303000F82E3C25F078BB04
:10CD3000FFF728BD012310B504468370303025F07D
:10CD40006FFB04F54C7026F01CF80548201A054CC2
:10CD500000116043BDE8104080B223F0BDBF00BFAA
:10CD6000D8190021D32FFDD2F8B50579C388012D3C
:10CD70001AD0022D21D0B5B94FF4B66253431349EE
:10CD80000688CC18B4F898214088921B82420ADCAD
:10CD9000D4E9646703F53E73C4E9BE67C81823F09D
:10CDA00091FE84F88851F8BD4FF4B662074802FB43
:10CDB0000303002283F8F021F5E74FF4B66203483D
:10CDC00002FB0303002283F85822ECE7D819002164
:10CDD00008B523F01FFE0022054B5A70054B93F84F
:10CDE00021301BB1BDE8084023F024BE08BD00BFC0
:10CDF000A8520021B853002108B5012024F01AFFE1
:10CE000023F000FE0122074B5A70074B93F82130A4
:10CE10000BB123F007FE0DF0EDF8BDE8084000204F
:10CE200023F08ABDA8520021B853002108B5012083
:10CE300024F000FF23F0E6FD0122064B5A70064B5A
:10CE400093F821300BB123F0EDFDBDE808400DF063
:10CE5000D1B800BFA8520021B8530021054B5B7820
:10CE600033B10123044880F829302C3025F0D8BA9A
:10CE7000704700BFA8520021903C0021002023F001
:10CE80005BBD0C2023F058BD2DE9F0415B4B8AB00F
:10CE90005B78002B00F0AF80594C94F82860002E8E
:10CEA00000F08480D4F8EC80B8F1000F79D0012232
:10CEB00004F5847304F1D0014046FEF767FC064692
:10CEC000602025F061FD0546002800F0908000F10B
:10CED0000807384608F1020117F037FD384617F009
:10CEE0008BFD00B196B9284625F056FD042025F0AB
:10CEF0004BFD014630B14FF441734380414B187BE9
:10CF000025F053FD012024F0ABFE4AE00023AB7076
:10CF1000D4F85831AB6394F81B3185F83C3094F861
:10CF20001A219A4207D1D4E94461D4E942029142DC
:10CF300008BF864203D043F0020385F83C3000204E
:10CF4000D4E944230021C5E91223C5E9140194F86A
:10CF50001B0194F81A11884207D1D4E94470D4E92E
:10CF60004261884208BFB74203D0D4E94201C5E913
:10CF7000140195F83C0013F0BDFE0028B3D1224BFC
:10CF80002946D3E91C23C5E9162394F82A3085F8ED
:10CF9000410085F83D300123EB871A4B187B25F0C3
:10CFA00004FD0AB0BDE8F041FFF712BF164C0DF0CA
:10CFB0005BF9257C012DA5D13146242201A82BF057
:10CFC0001CFD43F60543ADF806303C238DF80830D0
:10CFD000A37C0DF10E008DF80D30D4E906238DF8F9
:10CFE0000C5025F07BFB01A823F09EFC8AE7002E65
:10CFF0003FF47CAFD5E70AB0BDE8F081A85200212C
:10D00000903C0021F0520021B853002108B50120C6
:10D0100024F026FEFFF7DCFE0DF026F9BDE80840FF
:10D02000002023F089BC08B5012024F019FEFFF789
:10D03000CFFEBDE808400DF017B90000054B30B534
:10D040001C68054D08340FCC0FC594E80F0085E827
:10D050000F0030BD680E0021C053002110B50446FA
:10D06000012024F0FDFD074B1868201A064C8011A2
:10D0700060430430C0B224F0A3FCBDE8104023F0AC
:10D08000C9BC00BFC43E002183BEA02F10B504461A
:10D09000D0F8C80928B1043825F07EFC0023C4F874
:10D0A000C839D4F88C0828B1043825F075FC002361
:10D0B000C4F88C3894F83B300BB123F0BBFC024A27
:10D0C0009378013B937010BDA852002138B50446F7
:10D0D0001F4D012024F0AEFD2A682046137A84F803
:10D0E0004C33002384F84D3384F84E3384F8C4372E
:10D0F00084F8C6375168C4F850330EF00BFB014674
:10D1000040B1607823F0F6FD2046BDE838400421A8
:10D110000EF0BAB90F4A93780133937094F83B300C
:10D120000BB123F07FFC2B68596851B14FF47A7230
:10D13000636A0A39B3FBF2F304F54F70C91A25F09C
:10D140001AFE60780021BDE8384023F0D3BD00BF4F
:10D15000C83E0021A852002138B504461C4D0120CC
:10D1600024F068FD2A682046137A84F84C330023A3
:10D1700084F84D3384F84E3384F8C43784F8C637C6
:10D180005168C4F850330EF0C5FA014640B16078DA
:10D1900023F0B0FD2046BDE8384004210EF074B9FC
:10D1A0002B685B6893B14FF47A71626A4B4302F566
:10D1B0009C520832B3FBF2F3013B534304F54F702A
:10D1C000B3FBF1F1BDE8384025F0D5BD38BD00BF57
:10D1D000C83E002170B5134D00F54F760446304629
:10D1E00025F0CFFD2B685B687BB14FF47A71626AE2
:10D1F0004B4302F59C520832B3FBF2F3013B53431D
:10D200003046B3FBF1F125F0B6FD00212B686078C4
:10D210001B7A84F84D1384F84C33BDE8704023F03A
:10D2200069BD00BFC83E002110B5044600F54F702F
:10D2300025F0A7FD002384F84E33012384F8C63778
:10D2400010BD0021407823F055BD0C21407823F01B
:10D2500051BD0000F0B590F8C43704469DB0002BD6
:10D2600034D100F54F7025F08CFD2046FFF70EFFFE
:10D27000012024F0F5FC94F84C2394F84D3322B1AE
:10D28000934224BF432284F84E23002294F84E1385
:10D29000607823F070FB238C03F01D031D2B13D14A
:10D2A000002000213C230022CDE90401CDE9063213
:10D2B000CDE90201D4E90C0194F83A30CDE900013E
:10D2C0000121607801F068FC1DB0F0BDD0F88C68D9
:10D2D000784F002E77D000F6A80300F507610122F1
:10D2E0003046FEF753FA002800F0D080602025F089
:10D2F0004BFB0546002800F0C98063783146038067
:10D300000023837010A817F0F7FA311805F1080010
:10D3100017F01BFBD4F88C38002B00F0828094F8B7
:10D32000BBC804F50B6185F83CC094F8BA38634576
:10D3300008D151E90203D4F8B0684A689A4208BF9C
:10D34000864203D04CF0020C85F83CC0D1E90023A2
:10D35000C5E9122300220023C5E9142394F8BB2851
:10D3600094F8BA389A4208D151E90203D4F8B06867
:10D370004A689A4208BF864203D051E90223C5E9B0
:10D380001423012385F83E30D4F8C037387BAB63D3
:10D39000494B2946D3E91C23C5E9162394F8C53720
:10D3A00085F83D30012385F83F3094F84D3385F8FA
:10D3B000403094F8BC3785F8413025F0F6FA204625
:10D3C000FFF764FE80E7D0F8C869002E8ED03146A2
:10D3D00008A817F091FA311810A817F0B6FA002330
:10D3E0000F939DF8203004F507618DF83830032342
:10D3F0008DF83930DDE91023CDE90A239DF822307C
:10D400000AA88DF83A30DDE91223CDE90C239DF806
:10D41000233001228DF83B3004F52063FEF7A4FA97
:10D4200061E794F813CA04F5206185F83CC094F8CC
:10D43000123A634508D1D1E90262D4F8000A4B6878
:10D440009A4208BF864203D04CF0020C85F83CC0DB
:10D45000D1E90223C5E9122300220023C5E91423E0
:10D4600094F8132A94F8123A9A4208D1D1E9026248
:10D47000D4F8000A4B689A4208BF864203D0D1E92B
:10D480000023C5E9142394F835397BE76378311F0D
:10D4900026F8043C082306F8023C032306F8013C66
:10D4A000387B25F082FA01201DB0BDE8F04024F061
:10D4B000D7BB00BFF0520021B853002110B504467D
:10D4C000FFF7E4FD012024F0CBFB60780021BDE8EC
:10D4D000104023F00FBC10B50446FFF7D7FD012024
:10D4E00024F0BEFB2046BDE810400DF041B83C23BF
:10D4F00080F84E33012380F8C63770470022134668
:10D50000F0B5D0E90076C3F12005A3F1200427FA95
:10D5100003F106FA05F5294326FA04F42143C90765
:10D5200044BF81180B7203F1010348BF0132252B60
:10D53000E9D180F82D20F0BD70B50446002501200A
:10D5400024F078FB84F8C6520BF01CF894F82F33C3
:10D55000A4F8905165F30603254684F82F33364B23
:10D56000C4F88C01D3E90E23E5E9B823284623F05B
:10D57000A9FA012384F80E33D4F88C3183EA1343DB
:10D58000A4F8103394F8453AFBB194F82F13B4F88B
:10D59000903101F07F01594028460DF0F9F894F8D8
:10D5A000453A84F8C502204693B1244B1B687BB1F1
:10D5B0009847054678B1204603210EF0CBF929465D
:10D5C0006078BDE8704023F0CCBBB4F89011E3E77D
:10D5D0000EF010FAEDE7012384F88931A378012BCE
:10D5E00013D194F82D2A0AB984F89231D4F89064B2
:10D5F000B4F88C5423F065F93246294625F07AF8C0
:10D600000123A4F89C0484F82E3A94F8CC325BB140
:10D61000D4F89064B4F88C5423F053F93246294678
:10D6200025F068F8A4F8CE026078002123F099FB79
:10D63000BDE8704023F0E6B9A85200215807002148
:10D640000021407823F08DBB0C21407823F089BB6A
:10D65000F8B583780446012B11D190F88951012D3A
:10D660000DD1D0F89074B0F88C6423F02AF93A46C2
:10D67000314625F03FF884F82E5AA4F89C04012383
:10D6800084F8C632002304F5CA7084F8893184F81E
:10D690009231BDE8F84024F0C3BE10B590F888314F
:10D6A0000446012B04D1FFF7D3FF2046FFF7D6FC39
:10D6B0002046BDE81040FFF7B7BD10B590F888319F
:10D6C0000446012B04D1FFF7C3FF2046FFF7C6FC39
:10D6D0002046BDE810400CF04BBF10B50446FFF7E4
:10D6E000BDFC60780021BDE8104023F03ABB00008B
:10D6F00090F85030012B12D0094B1B68D3E902235C
:10D70000C0E9C623C0E91623B0F890310633A0F86B
:10D710006030082380F85230012380F85030704781
:10D72000C03E0021D0F8383A0BB140781847704716
:10D73000D0F83C3A0BB140781847704790F8203148
:10D74000012B0ED0D0F82033C0F82431B0F82433A8
:10D75000A0F82831B0F82C33A0F82A31092380F83A
:10D76000223170470023C0F82031C0F82431C0F8BE
:10D7700028317047682200212BF03FB95030FFF765
:10D78000F9BF2A2307B58DF803008DF80400684619
:10D79000ADF800108DF802308DF8051023F0C4F8B4
:10D7A00003B05DF804FB2C2307B5ADF800008DF83D
:10D7B00004006846ADF802308DF8051023F0B4F887
:10D7C00003B05DF804FB08B5012024F033FABDE88E
:10D7D000084023F017B900002DE9F04FDFF8388139
:10D7E0000446D8F800608FB006F1080529460FF00E
:10D7F000ADF92946002520460FF010FAAA46B37D60
:10D80000AB423ED9002794F8562004F1570305F1A6
:10D81000010906E0D4F894302BBBC4F894B022E0A0
:10D820000137BA421FD913F8011B4945F8D12046E8
:10D830000EF01CFB96F84030F18E0293D6E90E23D1
:10D84000CDE900230A46F16A83460EF0B5FBD4F811
:10D850009030002BDED1E368C4F890B06B4384F8BD
:10D860009C50C4F8983094F85630BB4207D194F8D5
:10D8700034305A1C0E3384F8342044F823A04D462B
:10D88000BDE7D8F80010204608310FF0E7F8216F07
:10D8900004F1600025F06FFA2B23A57820220021E7
:10D8A00006A8ADF81630ADF814502BF0A6F8E36AD0
:10D8B0001A4A0793A38A04F138015BBAADF8203005
:10D8C000E38A8DF81950ADF82230A3885034ADF8B2
:10D8D000243054F8403CA3FB0232DB0F43EA4203FE
:10D8E0000022ADF82630134651F8040B40B14088B1
:10D8F0000EAD5A1C05EB430323F80E0CD3B20122E4
:10D900008C42F1D10AB18DF8283005A823F00CF82B
:10D910000FB0BDE8F08F00BFE43E0021E3361A00EF
:10D9200090F8BA3080F85430704710B54378044608
:10D93000012B8AB018D181780020FFF722FF202226
:10D94000002102A82BF059F82B228DF80620442242
:10D95000A37801A8ADF804308DF807208DF80820D1
:10D960008DF8093022F0E0FF0AB010BD082380F8DE
:10D97000543070473D2380F85430704710B504464A
:10D98000012024F06DF9236D13B1002283F8F221F8
:10D990006378032B06D194F85430A0784BB1194624
:10D9A000FFF701FF20460EF0FBFDBDE8104023F01D
:10D9B00031B801461846FFF7E4FEF3E7F8B505462F
:10D9C0000FF0D4FE044648B1284604210FF09CFE17
:10D9D00021462846BDE8F8400FF030BE012024F073
:10D9E00029F92C6DCCB1012384F88931A378012B5E
:10D9F00013D194F82D2A0AB984F89231D4F890748E
:10DA0000B4F88C6422F05DFF3A46314624F072FE91
:10DA10000123A4F89C0484F82E3A284602210FF032
:10DA200089FEBDE8F84022F0EDBF0000F0B50446E5
:10DA300085B007200EF0F0FC064630B3144B03A966
:10DA40001868258C0390304618F004FB114F0635FA
:10DA5000ADB2D7E90E230095304418F00EFB062234
:10DA6000314620460EF0DFFC94F8A030A4F8A85010
:10DA700043F0010384F8A030D7E90E23C4E92C2336
:10DA8000236D13B1002283F8B82005B0F0BD00BFAC
:10DA90000C9B0301A852002173B5044603200EF02D
:10DAA000BBFC0646E0B1124B01A95868258C0190D9
:10DAB000304618F0CFFA0635ADB22A4694F8BA10BF
:10DAC000304418F0ECFA0622314620460EF0ABFC4A
:10DAD00094F8A030A4F8B85043F0020384F8A030C2
:10DAE0000321204602B0BDE870400FF023BE00BF06
:10DAF0000C9B030110B50446C43024F091FC204671
:10DB0000BDE8104003210FF015BE000010B504461B
:10DB10000D4B1B68C31A0D48DB1043430C33D8B2BE
:10DB200023F04EFF012024F09BF820460EF038FD34
:10DB300022F070FF6378022B04D12046BDE810402C
:10DB40000FF0CEBD10BD00BFDC3E0021E9473FFA1B
:10DB5000164A30B514684FF47E72C38885B002FB54
:10DB600003440622ADF80620002203890546ADF8DD
:10DB70000430ADF80A30C37F01A88DF80C308DF861
:10DB8000082022F0D1FE94F88E3363B12989B4F8CD
:10DB900096030FF00BFF054628B904F5647022F0D8
:10DBA000C3FE84F88E5305B030BD00BFC83F0021CE
:10DBB0002DE9F0438BB0044615460E462422002181
:10DBC00001A82AF01AFF26238DF8023040F2E24322
:10DBD000B4F8682294F86B1294F86A7202FB01FEA2
:10DBE00002FB07F003FB0EFE94F8589203FB00F8CB
:10DBF000D4F86432B9F1010F0CBF5B19EB1A73440E
:10DC000005932369D4F860020393B4F85432B4F84E
:10DC100008C0ADF8183094F86C3208BF40198DF880
:10DC20001A3094F8743218BF281A8DF81B3094F803
:10DC3000753208BF40448DF81C30A37A18BF4044A9
:10DC4000ADF800C08DF803600CBF04900490ADF8EF
:10DC500006C08DF8046002958DF81D708DF81E10B9
:10DC6000ADF824208BB9B4F83021012B0CBFB4F8E7
:10DC70003031B4F82C316846ADF82020ADF82230B0
:10DC800022F052FE0BB0BDE8F083B4F82C21ECE793
:10DC900038B5054604200C4624F076FE014650B106
:10DCA0002B89C47003800F238370034B187BBDE85E
:10DCB000384024F07ABE38BDF052002138B5054610
:10DCC00004200C4624F060FE014650B1EB88C4707D
:10DCD000038001238370034B187BBDE8384024F098
:10DCE00064BE38BDF0520021014B9B7CC377704766
:10DCF000383F0021024B1B681B79C377704700BF78
:10DD0000EC3E00213E23C37770470823C37770475A
:10DD10002223C37770470D23C3777047014B5B7C89
:10DD2000C3777047383F00213D23C3777047000019
:10DD300010B50446C07A0FF0B1FE4FF47E711B4B54
:10DD4000E2881B6801FB0233C27C0132C274A27AF2
:10DD500022BB94F85412032993F84E2021D1013AA2
:10DD600018BF01228A1A1A4492F9C0217E2A1AD1B8
:10DD700093F87503B8B10E4A58181268032992F93E
:10DD8000242080F8BF2108BF83F8C321D3F8A43230
:10DD90005B0702D5012384F84B3210BD94F855126D
:10DDA000D9E70122DEE784F83A21F6E7C83F0021EF
:10DDB00054520021002210B590F847300446C17F2C
:10DDC00080F8472033B1222904D1BDE81040112149
:10DDD000FFF7EEBE00222046FFF7EAFEE37F442B6A
:10DDE00004D116232046E377FFF7B2FE2046BDE8B4
:10DDF000104010F063B9000038B50446C08812F036
:10DE0000F9FB054698B9082024F0BEFD014668B12B
:10DE1000E388038041F2017343802389C380E37F59
:10DE20000371044B187B24F0C0FDA57638BD012397
:10DE3000A376FBE7F0520021F8B504460121C6881D
:10DE4000008914F0ABFF0221208914F0A7FFE07ACB
:10DE50000FF024FE054604F50E7024F092FF012316
:10DE60006376E37F3E2B0CD100276776EB7C204660
:10DE7000013BEB7410F022F93A462046E17FFFF7B0
:10DE800097FE144B1B6893F82E20134B1C6800233D
:10DE9000934219D2E188B14217D1657EADB9A17E16
:10DEA00099B1082024F070FD014668B1E388038031
:10DEB00041F2017343802389C380E37F0371074BE1
:10DEC000187B24F072FDA576F8BD013304F540748B
:10DED000DEE700BF54520021F03E0021F052002145
:10DEE0008378012B08BF4376704770B50546042040
:10DEF0000C46CE7F13F026F9014648B12223037069
:10DF0000E37A4370237BC6708370284613F0F0F8E1
:10DF100021462846BDE8704010F0C7B9034B9B7CF2
:10DF2000CB77012380F8E132704700BF383F0021F2
:10DF300008460521FFF7ACBEFFF7D7BF012380F8E5
:10DF4000E13270472DE9F84305460C46C87A0FF0D8
:10DF5000A5FDB5F87C31B5F8BC13DA1DB5F87E31F6
:10DF6000074602FB0133A4F848300023A4F84A30E6
:10DF7000574B9B691B015AD40FF05EFEB4F8481052
:10DF8000B5F87E61B5F88031EA6950BB40F2E240F5
:10DF9000891B4B434F49504E096800FB0322791AF5
:10DFA000091171433E8A0A317043C9B223F016FD4C
:10DFB000D4E904239B1A0344E36440F2E243B5F836
:10DFC000801194F86C225943444BD4F870021B68BA
:10DFD0001B8E00FB12330B44E26C9A421FD2BDE849
:10DFE000F88340F2E2488E1B5E4308FB0626B4F835
:10DFF0004A30B7F8109001339BB203FB09F9A4F83B
:10E000004A303B6A314608FB0939484623F0C0FED6
:10E010000028ECD03146484623F0BAFEC8E7521A31
:10E02000E264B4F848200132A4F84820D4E740F272
:10E03000E246B5F88031D0F80C9006FB03F823F0E7
:10E04000A1FED4E904239B1A4344A3EB09031B1A42
:10E05000E36438460FF0F0FD0028C0D0B5F87E31FB
:10E06000B4F84810C91AB5F880315943EB6906FB7A
:10E070000138B4F84A003B8A013080B2A4F84A0063
:10E0800058433B6A414606FB003023F081FE0028DE
:10E09000EFD0B5F8803194F86C225E430F4BD4F882
:10E0A00070121B681B8E01FB12333344E26C9A42E0
:10E0B00005D2B4F84A300133A4F84A308FE7921BF6
:10E0C000E264B4F848200132A4F84820EEE700BF2B
:10E0D000A8520021E83E0021398EE3385452002135
:10E0E000F0B5054685B0C87A0C460FF0D7FCC37C66
:10E0F0000646002B3CD1877C002F36D12046FFF707
:10E100000AFE834B9B691B0100F1FB80012F19D193
:10E11000717969BB40F2E242338A53437D4A106809
:10E120007D4A301A001150437C4A0A30CDE9011271
:10E13000F268C0B200921A4623F0EEFBB8B920464E
:10E14000FFF7E9FD042024F01FFC0146002800F041
:10E15000DC80E388038044F601334380704B187BF6
:10E1600005B0BDE8F04024F020BC0127C9E7777175
:10E1700021462846FFF7E6FE214630460FF010FE06
:10E18000684BC5F89C33684BC5F8A033674B1B68D8
:10E190001B88E380D5F8B831C4F8E830B5F8F2311F
:10E1A000A4F848320AF0EEF9D5E96223C4F8E40095
:10E1B00020460FF045FD242012F0C4FF0146002840
:10E1C00000F095801F230370E37A4370237B8370F4
:10E1D00094F85432022B03D0032B14BF01230423E1
:10E1E000CB7094F85532022B03D0032B14BF0123BC
:10E1F00004230B71B4F85A3228464B7194F8583204
:10E20000B4F85A22DB03C2F30B029BB213431B1276
:10E210008B71B4F85C32CB71B4F85C32C3F3032376
:10E220000B72D4F860324B72D4F860321B0A8B72D6
:10E23000B4F8623203F00F03CB72D4F864320B737C
:10E24000D4F864321B0A4B73B4F8663203F00F0340
:10E250008B73B4F83031CB73B4F830311B0A0B74C4
:10E26000B4F82C314B74B4F82C311B0A8B7494F82D
:10E270006C32CB74D4F870320B75D4F870321B0A40
:10E280004B75B4F872328B7594F8743294F8752229
:10E2900003F00F0343EA0213CB7594F86A320B764E
:10E2A00094F86B324B76B4F868328B76B4F86832F7
:10E2B0001B0ACB76E36C0B77E36C1B0A4B77B4F845
:10E2C0004E308B77E36CCB77E36C1B0A81F8203000
:10E2D000B4F84E3081F82130B4F8483081F822305B
